{
  "address": "0xfe8eb544e5be7823a90865EbB83ffF1DeB939c98",
  "abi": [
    {
      "inputs": [
        {
          "internalType": "address",
          "name": "dao",
          "type": "address"
        },
        {
          "internalType": "address",
          "name": "where",
          "type": "address"
        },
        {
          "internalType": "address",
          "name": "who",
          "type": "address"
        },
        {
          "internalType": "bytes32",
          "name": "permissionId",
          "type": "bytes32"
        }
      ],
      "name": "DaoUnauthorized",
      "type": "error"
    },
    {
      "anonymous": false,
      "inputs": [
        {
          "indexed": false,
          "internalType": "address",
          "name": "previousAdmin",
          "type": "address"
        },
        {
          "indexed": false,
          "internalType": "address",
          "name": "newAdmin",
          "type": "address"
        }
      ],
      "name": "AdminChanged",
      "type": "event"
    },
    {
      "anonymous": false,
      "inputs": [
        {
          "indexed": true,
          "internalType": "address",
          "name": "beacon",
          "type": "address"
        }
      ],
      "name": "BeaconUpgraded",
      "type": "event"
    },
    {
      "anonymous": false,
      "inputs": [
        {
          "indexed": false,
          "internalType": "uint8",
          "name": "version",
          "type": "uint8"
        }
      ],
      "name": "Initialized",
      "type": "event"
    },
    {
      "anonymous": false,
      "inputs": [
        {
          "indexed": false,
          "internalType": "uint256",
          "name": "proposalId",
          "type": "uint256"
        },
        {
          "indexed": false,
          "internalType": "bytes",
          "name": "metadata",
          "type": "bytes"
        },
        {
          "indexed": false,
          "internalType": "uint64",
          "name": "startDate",
          "type": "uint64"
        },
        {
          "indexed": false,
          "internalType": "uint64",
          "name": "endDate",
          "type": "uint64"
        },
        {
          "components": [
            {
              "internalType": "string",
              "name": "metadata",
              "type": "string"
            },
            {
              "internalType": "uint64",
              "name": "deadline",
              "type": "uint64"
            },
            {
              "components": [
                {
                  "internalType": "contract IERC20",
                  "name": "tokenContract",
                  "type": "address"
                },
                {
                  "internalType": "uint96",
                  "name": "amount",
                  "type": "uint96"
                }
              ],
              "internalType": "struct ITasks.ERC20Transfer[]",
              "name": "budget",
              "type": "tuple[]"
            },
            {
              "internalType": "address",
              "name": "manager",
              "type": "address"
            },
            {
              "components": [
                {
                  "internalType": "address",
                  "name": "applicant",
                  "type": "address"
                },
                {
                  "components": [
                    {
                      "internalType": "bool",
                      "name": "nextToken",
                      "type": "bool"
                    },
                    {
                      "internalType": "address",
                      "name": "to",
                      "type": "address"
                    },
                    {
                      "internalType": "uint88",
                      "name": "amount",
                      "type": "uint88"
                    }
                  ],
                  "internalType": "struct ITasks.Reward[]",
                  "name": "reward",
                  "type": "tuple[]"
                }
              ],
              "internalType": "struct ITasks.PreapprovedApplication[]",
              "name": "preapproved",
              "type": "tuple[]"
            }
          ],
          "indexed": false,
          "internalType": "struct ITaskDrafts.CreateTaskInfo",
          "name": "taskInfo",
          "type": "tuple"
        }
      ],
      "name": "TaskDraftCreated",
      "type": "event"
    },
    {
      "anonymous": false,
      "inputs": [
        {
          "indexed": true,
          "internalType": "address",
          "name": "implementation",
          "type": "address"
        }
      ],
      "name": "Upgraded",
      "type": "event"
    },
    {
      "inputs": [],
      "name": "UPGRADE_PLUGIN_PERMISSION_ID",
      "outputs": [
        {
          "internalType": "bytes32",
          "name": "",
          "type": "bytes32"
        }
      ],
      "stateMutability": "view",
      "type": "function"
    },
    {
      "inputs": [
        {
          "internalType": "bytes",
          "name": "_metadata",
          "type": "bytes"
        },
        {
          "internalType": "uint64",
          "name": "_startDate",
          "type": "uint64"
        },
        {
          "internalType": "uint64",
          "name": "_endDate",
          "type": "uint64"
        },
        {
          "components": [
            {
              "internalType": "string",
              "name": "metadata",
              "type": "string"
            },
            {
              "internalType": "uint64",
              "name": "deadline",
              "type": "uint64"
            },
            {
              "components": [
                {
                  "internalType": "contract IERC20",
                  "name": "tokenContract",
                  "type": "address"
                },
                {
                  "internalType": "uint96",
                  "name": "amount",
                  "type": "uint96"
                }
              ],
              "internalType": "struct ITasks.ERC20Transfer[]",
              "name": "budget",
              "type": "tuple[]"
            },
            {
              "internalType": "address",
              "name": "manager",
              "type": "address"
            },
            {
              "components": [
                {
                  "internalType": "address",
                  "name": "applicant",
                  "type": "address"
                },
                {
                  "components": [
                    {
                      "internalType": "bool",
                      "name": "nextToken",
                      "type": "bool"
                    },
                    {
                      "internalType": "address",
                      "name": "to",
                      "type": "address"
                    },
                    {
                      "internalType": "uint88",
                      "name": "amount",
                      "type": "uint88"
                    }
                  ],
                  "internalType": "struct ITasks.Reward[]",
                  "name": "reward",
                  "type": "tuple[]"
                }
              ],
              "internalType": "struct ITasks.PreapprovedApplication[]",
              "name": "preapproved",
              "type": "tuple[]"
            }
          ],
          "internalType": "struct ITaskDrafts.CreateTaskInfo",
          "name": "_taskInfo",
          "type": "tuple"
        }
      ],
      "name": "createDraftTask",
      "outputs": [],
      "stateMutability": "nonpayable",
      "type": "function"
    },
    {
      "inputs": [],
      "name": "dao",
      "outputs": [
        {
          "internalType": "contract IDAO",
          "name": "",
          "type": "address"
        }
      ],
      "stateMutability": "view",
      "type": "function"
    },
    {
      "inputs": [],
      "name": "getGovernanceContract",
      "outputs": [
        {
          "internalType": "contract IPluginProposals",
          "name": "",
          "type": "address"
        }
      ],
      "stateMutability": "view",
      "type": "function"
    },
    {
      "inputs": [],
      "name": "getTasksContract",
      "outputs": [
        {
          "internalType": "contract ITasks",
          "name": "",
          "type": "address"
        }
      ],
      "stateMutability": "view",
      "type": "function"
    },
    {
      "inputs": [],
      "name": "implementation",
      "outputs": [
        {
          "internalType": "address",
          "name": "",
          "type": "address"
        }
      ],
      "stateMutability": "view",
      "type": "function"
    },
    {
      "inputs": [
        {
          "internalType": "contract IDAO",
          "name": "_dao",
          "type": "address"
        },
        {
          "internalType": "contract ITasks",
          "name": "_tasks",
          "type": "address"
        },
        {
          "internalType": "contract IPluginProposals",
          "name": "_governancePlugin",
          "type": "address"
        }
      ],
      "name": "initialize",
      "outputs": [],
      "stateMutability": "nonpayable",
      "type": "function"
    },
    {
      "inputs": [],
      "name": "pluginType",
      "outputs": [
        {
          "internalType": "enum IPlugin.PluginType",
          "name": "",
          "type": "uint8"
        }
      ],
      "stateMutability": "pure",
      "type": "function"
    },
    {
      "inputs": [],
      "name": "proxiableUUID",
      "outputs": [
        {
          "internalType": "bytes32",
          "name": "",
          "type": "bytes32"
        }
      ],
      "stateMutability": "view",
      "type": "function"
    },
    {
      "inputs": [
        {
          "internalType": "bytes4",
          "name": "_interfaceId",
          "type": "bytes4"
        }
      ],
      "name": "supportsInterface",
      "outputs": [
        {
          "internalType": "bool",
          "name": "",
          "type": "bool"
        }
      ],
      "stateMutability": "view",
      "type": "function"
    },
    {
      "inputs": [
        {
          "internalType": "contract ITasks",
          "name": "_tasks",
          "type": "address"
        },
        {
          "internalType": "contract IPluginProposals",
          "name": "_governancePlugin",
          "type": "address"
        }
      ],
      "name": "updateAddresses",
      "outputs": [],
      "stateMutability": "nonpayable",
      "type": "function"
    },
    {
      "inputs": [
        {
          "internalType": "address",
          "name": "newImplementation",
          "type": "address"
        }
      ],
      "name": "upgradeTo",
      "outputs": [],
      "stateMutability": "nonpayable",
      "type": "function"
    },
    {
      "inputs": [
        {
          "internalType": "address",
          "name": "newImplementation",
          "type": "address"
        },
        {
          "internalType": "bytes",
          "name": "data",
          "type": "bytes"
        }
      ],
      "name": "upgradeToAndCall",
      "outputs": [],
      "stateMutability": "payable",
      "type": "function"
    }
  ],
  "numDeployments": 1,
  "bytecode": "0x60a06040523060805234801561001457600080fd5b5061001d610022565b6100e1565b600054610100900460ff161561008e5760405162461bcd60e51b815260206004820152602760248201527f496e697469616c697a61626c653a20636f6e747261637420697320696e697469604482015266616c697a696e6760c81b606482015260840160405180910390fd5b60005460ff908116146100df576000805460ff191660ff9081179091556040519081527f7f26b83ff96e1f2b6a682f133852f6798a09c465da95921460cefb38474024989060200160405180910390a15b565b6080516122a46200011960003960008181610340015281816103f50152818161054a015281816105fa015261074301526122a46000f3fe6080604052600436106100d25760003560e01c80635c60da1b1161007f578063c1d1103711610059578063c1d1103714610221578063c9c4bfca14610241578063d2c6c68114610275578063ef2fa85f146102a157600080fd5b80635c60da1b146101cc578063c0c53b8b146101e1578063c0cf926b1461020157600080fd5b806341de6830116100b057806341de68301461017a5780634f1ef2861461019657806352d1902d146101a957600080fd5b806301ffc9a7146100d75780633659cfe61461010c5780634162169f1461012e575b600080fd5b3480156100e357600080fd5b506100f76100f236600461163b565b6102cd565b60405190151581526020015b60405180910390f35b34801561011857600080fd5b5061012c6101273660046116af565b610329565b005b34801561013a57600080fd5b5060c95473ffffffffffffffffffffffffffffffffffffffff165b60405173ffffffffffffffffffffffffffffffffffffffff9091168152602001610103565b34801561018657600080fd5b50600060405161010391906116cc565b61012c6101a436600461173c565b610533565b3480156101b557600080fd5b506101be610729565b604051908152602001610103565b3480156101d857600080fd5b50610155610815565b3480156101ed57600080fd5b5061012c6101fc36600461181e565b61085a565b34801561020d57600080fd5b5061012c61021c366004611899565b610a47565b34801561022d57600080fd5b5061012c61023c366004611952565b610cce565b34801561024d57600080fd5b506101be7f821b6e3a557148015a918c89e5d092e878a69854a2d1a410635f771bd5a8a3f581565b34801561028157600080fd5b5061012d5473ffffffffffffffffffffffffffffffffffffffff16610155565b3480156102ad57600080fd5b5061012e5473ffffffffffffffffffffffffffffffffffffffff16610155565b60007fffffffff0000000000000000000000000000000000000000000000000000000082167f3cf7ec82000000000000000000000000000000000000000000000000000000001480610323575061032382610d6f565b92915050565b73ffffffffffffffffffffffffffffffffffffffff7f00000000000000000000000000000000000000000000000000000000000000001630036103f3576040517f08c379a000000000000000000000000000000000000000000000000000000000815260206004820152602c60248201527f46756e6374696f6e206d7573742062652063616c6c6564207468726f7567682060448201527f64656c656761746563616c6c000000000000000000000000000000000000000060648201526084015b60405180910390fd5b7f000000000000000000000000000000000000000000000000000000000000000073ffffffffffffffffffffffffffffffffffffffff166104687f360894a13ba1a3210667c828492db98dca3e2076cc3735a920a3ca505d382bbc5473ffffffffffffffffffffffffffffffffffffffff1690565b73ffffffffffffffffffffffffffffffffffffffff161461050b576040517f08c379a000000000000000000000000000000000000000000000000000000000815260206004820152602c60248201527f46756e6374696f6e206d7573742062652063616c6c6564207468726f7567682060448201527f6163746976652070726f7879000000000000000000000000000000000000000060648201526084016103ea565b61051481610e52565b6040805160008082526020820190925261053091839190610e98565b50565b73ffffffffffffffffffffffffffffffffffffffff7f00000000000000000000000000000000000000000000000000000000000000001630036105f8576040517f08c379a000000000000000000000000000000000000000000000000000000000815260206004820152602c60248201527f46756e6374696f6e206d7573742062652063616c6c6564207468726f7567682060448201527f64656c656761746563616c6c000000000000000000000000000000000000000060648201526084016103ea565b7f000000000000000000000000000000000000000000000000000000000000000073ffffffffffffffffffffffffffffffffffffffff1661066d7f360894a13ba1a3210667c828492db98dca3e2076cc3735a920a3ca505d382bbc5473ffffffffffffffffffffffffffffffffffffffff1690565b73ffffffffffffffffffffffffffffffffffffffff1614610710576040517f08c379a000000000000000000000000000000000000000000000000000000000815260206004820152602c60248201527f46756e6374696f6e206d7573742062652063616c6c6564207468726f7567682060448201527f6163746976652070726f7879000000000000000000000000000000000000000060648201526084016103ea565b61071982610e52565b61072582826001610e98565b5050565b60003073ffffffffffffffffffffffffffffffffffffffff7f000000000000000000000000000000000000000000000000000000000000000016146107f0576040517f08c379a000000000000000000000000000000000000000000000000000000000815260206004820152603860248201527f555550535570677261646561626c653a206d757374206e6f742062652063616c60448201527f6c6564207468726f7567682064656c656761746563616c6c000000000000000060648201526084016103ea565b507f360894a13ba1a3210667c828492db98dca3e2076cc3735a920a3ca505d382bbc90565b60006108557f360894a13ba1a3210667c828492db98dca3e2076cc3735a920a3ca505d382bbc5473ffffffffffffffffffffffffffffffffffffffff1690565b905090565b600054610100900460ff161580801561087a5750600054600160ff909116105b806108945750303b158015610894575060005460ff166001145b610920576040517f08c379a000000000000000000000000000000000000000000000000000000000815260206004820152602e60248201527f496e697469616c697a61626c653a20636f6e747261637420697320616c72656160448201527f647920696e697469616c697a656400000000000000000000000000000000000060648201526084016103ea565b600080547fffffffffffffffffffffffffffffffffffffffffffffffffffffffffffffff00166001179055801561097e57600080547fffffffffffffffffffffffffffffffffffffffffffffffffffffffffffff00ff166101001790555b6109878461109c565b61012d805473ffffffffffffffffffffffffffffffffffffffff8086167fffffffffffffffffffffffff00000000000000000000000000000000000000009283161790925561012e8054928516929091169190911790558015610a4157600080547fffffffffffffffffffffffffffffffffffffffffffffffffffffffffffff00ff169055604051600181527f7f26b83ff96e1f2b6a682f133852f6798a09c465da95921460cefb38474024989060200160405180910390a15b50505050565b604080516001808252818301909252600091816020015b60408051606080820183526000808352602083015291810191909152815260200190600190039081610a5e57905050905060007f978a2b5300000000000000000000000000000000000000000000000000000000610abc848061198b565b610acc60408701602088016119f7565b610ad96040880188611a12565b610ae960808a0160608b016116af565b610af660808b018b611a7a565b604051602401610b0d989796959493929190611d27565b604080517fffffffffffffffffffffffffffffffffffffffffffffffffffffffffffffffe0818403018152918152602080830180517bffffffffffffffffffffffffffffffffffffffffffffffffffffffff167fffffffff0000000000000000000000000000000000000000000000000000000090951694909417909352805160608101825261012d5473ffffffffffffffffffffffffffffffffffffffff16815260009381018490529081018290528451919350918491610bd157610bd1611dc5565b60209081029190910101525061012e546040517f23b8897400000000000000000000000000000000000000000000000000000000815260009173ffffffffffffffffffffffffffffffffffffffff16906323b8897490610c3f908a908a90879087908c908c90600401611e62565b6020604051808303816000875af1158015610c5e573d6000803e3d6000fd5b505050506040513d601f19601f82011682018060405250810190610c829190611f5b565b90507fea32c01f105e792bab5b9812b4a0207716669ac6b607cec3424bbf3ffd30068a818888888888604051610cbd9695949392919061207e565b60405180910390a150505050505050565b60c9547f37c20ba3fe5e4e1eb04b4bdb30d528f9d2d37a43a745d3976dffa671d4a3895390610d199073ffffffffffffffffffffffffffffffffffffffff1630335b8460003661113c565b5061012d805473ffffffffffffffffffffffffffffffffffffffff9384167fffffffffffffffffffffffff00000000000000000000000000000000000000009182161790915561012e8054929093169116179055565b60007fffffffff0000000000000000000000000000000000000000000000000000000082167f41de6830000000000000000000000000000000000000000000000000000000001480610e0257507fffffffff0000000000000000000000000000000000000000000000000000000082167f52d1902d00000000000000000000000000000000000000000000000000000000145b8061032357507f01ffc9a7000000000000000000000000000000000000000000000000000000007fffffffff00000000000000000000000000000000000000000000000000000000831614610323565b60c9547f821b6e3a557148015a918c89e5d092e878a69854a2d1a410635f771bd5a8a3f5906107259073ffffffffffffffffffffffffffffffffffffffff163033610d10565b7f4910fdfa16fed3260ed0e7147f7cc6da11a60208b5b9406d12a635614ffd91435460ff1615610ed057610ecb83611244565b505050565b8273ffffffffffffffffffffffffffffffffffffffff166352d1902d6040518163ffffffff1660e01b8152600401602060405180830381865afa925050508015610f55575060408051601f3d9081017fffffffffffffffffffffffffffffffffffffffffffffffffffffffffffffffe0168201909252610f5291810190611f5b565b60015b610fe1576040517f08c379a000000000000000000000000000000000000000000000000000000000815260206004820152602e60248201527f45524331393637557067726164653a206e657720696d706c656d656e7461746960448201527f6f6e206973206e6f74205555505300000000000000000000000000000000000060648201526084016103ea565b7f360894a13ba1a3210667c828492db98dca3e2076cc3735a920a3ca505d382bbc8114611090576040517f08c379a000000000000000000000000000000000000000000000000000000000815260206004820152602960248201527f45524331393637557067726164653a20756e737570706f727465642070726f7860448201527f6961626c6555554944000000000000000000000000000000000000000000000060648201526084016103ea565b50610ecb83838361134e565b600054610100900460ff16611133576040517f08c379a000000000000000000000000000000000000000000000000000000000815260206004820152602b60248201527f496e697469616c697a61626c653a20636f6e7472616374206973206e6f74206960448201527f6e697469616c697a696e6700000000000000000000000000000000000000000060648201526084016103ea565b61053081611373565b6040517ffdef910600000000000000000000000000000000000000000000000000000000815273ffffffffffffffffffffffffffffffffffffffff87169063fdef91069061119690889088908890889088906004016121bb565b602060405180830381865afa1580156111b3573d6000803e3d6000fd5b505050506040513d601f19601f820116820180604052508101906111d791906121fb565b61123c576040517f32dbe3b400000000000000000000000000000000000000000000000000000000815273ffffffffffffffffffffffffffffffffffffffff8088166004830152808716602483015285166044820152606481018490526084016103ea565b505050505050565b73ffffffffffffffffffffffffffffffffffffffff81163b6112e8576040517f08c379a000000000000000000000000000000000000000000000000000000000815260206004820152602d60248201527f455243313936373a206e657720696d706c656d656e746174696f6e206973206e60448201527f6f74206120636f6e74726163740000000000000000000000000000000000000060648201526084016103ea565b7f360894a13ba1a3210667c828492db98dca3e2076cc3735a920a3ca505d382bbc80547fffffffffffffffffffffffff00000000000000000000000000000000000000001673ffffffffffffffffffffffffffffffffffffffff92909216919091179055565b61135783611451565b6000825111806113645750805b15610ecb57610a41838361149e565b600054610100900460ff1661140a576040517f08c379a000000000000000000000000000000000000000000000000000000000815260206004820152602b60248201527f496e697469616c697a61626c653a20636f6e7472616374206973206e6f74206960448201527f6e697469616c697a696e6700000000000000000000000000000000000000000060648201526084016103ea565b60c980547fffffffffffffffffffffffff00000000000000000000000000000000000000001673ffffffffffffffffffffffffffffffffffffffff92909216919091179055565b61145a81611244565b60405173ffffffffffffffffffffffffffffffffffffffff8216907fbc7cd75a20ee27fd9adebab32041f755214dbc6bffa90cc0225b39da2e5c2d3b90600090a250565b60606114c38383604051806060016040528060278152602001612248602791396114ca565b9392505050565b60606000808573ffffffffffffffffffffffffffffffffffffffff16856040516114f49190612218565b600060405180830381855af49150503d806000811461152f576040519150601f19603f3d011682016040523d82523d6000602084013e611534565b606091505b50915091506115458683838761154f565b9695505050505050565b606083156115e55782516000036115de5773ffffffffffffffffffffffffffffffffffffffff85163b6115de576040517f08c379a000000000000000000000000000000000000000000000000000000000815260206004820152601d60248201527f416464726573733a2063616c6c20746f206e6f6e2d636f6e747261637400000060448201526064016103ea565b50816115ef565b6115ef83836115f7565b949350505050565b8151156116075781518083602001fd5b806040517f08c379a00000000000000000000000000000000000000000000000000000000081526004016103ea9190612234565b60006020828403121561164d57600080fd5b81357fffffffff00000000000000000000000000000000000000000000000000000000811681146114c357600080fd5b73ffffffffffffffffffffffffffffffffffffffff8116811461053057600080fd5b80356116aa8161167d565b919050565b6000602082840312156116c157600080fd5b81356114c38161167d565b6020810160038310611707577f4e487b7100000000000000000000000000000000000000000000000000000000600052602160045260246000fd5b91905290565b7f4e487b7100000000000000000000000000000000000000000000000000000000600052604160045260246000fd5b6000806040838503121561174f57600080fd5b823561175a8161167d565b9150602083013567ffffffffffffffff8082111561177757600080fd5b818501915085601f83011261178b57600080fd5b81358181111561179d5761179d61170d565b604051601f82017fffffffffffffffffffffffffffffffffffffffffffffffffffffffffffffffe0908116603f011681019083821181831017156117e3576117e361170d565b816040528281528860208487010111156117fc57600080fd5b8260208601602083013760006020848301015280955050505050509250929050565b60008060006060848603121561183357600080fd5b833561183e8161167d565b9250602084013561184e8161167d565b9150604084013561185e8161167d565b809150509250925092565b803567ffffffffffffffff811681146116aa57600080fd5b600060a0828403121561189357600080fd5b50919050565b6000806000806000608086880312156118b157600080fd5b853567ffffffffffffffff808211156118c957600080fd5b818801915088601f8301126118dd57600080fd5b8135818111156118ec57600080fd5b8960208285010111156118fe57600080fd5b6020830197508096505061191460208901611869565b945061192260408901611869565b9350606088013591508082111561193857600080fd5b5061194588828901611881565b9150509295509295909350565b6000806040838503121561196557600080fd5b82356119708161167d565b915060208301356119808161167d565b809150509250929050565b60008083357fffffffffffffffffffffffffffffffffffffffffffffffffffffffffffffffe18436030181126119c057600080fd5b83018035915067ffffffffffffffff8211156119db57600080fd5b6020019150368190038213156119f057600080fd5b9250929050565b600060208284031215611a0957600080fd5b6114c382611869565b60008083357fffffffffffffffffffffffffffffffffffffffffffffffffffffffffffffffe1843603018112611a4757600080fd5b83018035915067ffffffffffffffff821115611a6257600080fd5b6020019150600681901b36038213156119f057600080fd5b60008083357fffffffffffffffffffffffffffffffffffffffffffffffffffffffffffffffe1843603018112611aaf57600080fd5b83018035915067ffffffffffffffff821115611aca57600080fd5b6020019150600581901b36038213156119f057600080fd5b8183528181602085013750600060208284010152600060207fffffffffffffffffffffffffffffffffffffffffffffffffffffffffffffffe0601f840116840101905092915050565b60008135611b388161167d565b73ffffffffffffffffffffffffffffffffffffffff16835260208201356bffffffffffffffffffffffff8116808214611b7057600080fd5b602085015250506040909101919050565b801515811461053057600080fd5b600082357fffffffffffffffffffffffffffffffffffffffffffffffffffffffffffffffc1833603018112611bc357600080fd5b90910192915050565b81835260006020808501808196508560051b810191508460005b87811015611d1a578284038952611bfd8288611b8f565b60408086018235611c0d8161167d565b73ffffffffffffffffffffffffffffffffffffffff80821689528985013591507fffffffffffffffffffffffffffffffffffffffffffffffffffffffffffffffe1853603018212611c5d57600080fd5b93018881019390359067ffffffffffffffff821115611c7b57600080fd5b60608083023603861315611c8e57600080fd5b898b0185905292829052600092808a015b83851015611cfe578635611cb281611b81565b15158152868c0135611cc38161167d565b8316818d0152868601356affffffffffffffffffffff8116808214611ce757600080fd5b828801525095810195600194909401938101611c9f565b9e8b019e99505050948801945050506001919091019050611be6565b5091979650505050505050565b60a081526000611d3b60a083018a8c611ae2565b67ffffffffffffffff891660208401526040838203818501528188835260208301905089925060005b89811015611d8457611d768285611b2b565b938301939150600101611d64565b5073ffffffffffffffffffffffffffffffffffffffff881660608601528481036080860152611db4818789611bcc565b9d9c50505050505050505050505050565b7f4e487b7100000000000000000000000000000000000000000000000000000000600052603260045260246000fd5b60005b83811015611e0f578181015183820152602001611df7565b50506000910152565b60008151808452611e30816020860160208601611df4565b601f017fffffffffffffffffffffffffffffffffffffffffffffffffffffffffffffffe0169290920160200192915050565b60a081526000611e7660a08301888a611ae2565b6020838203818501528188518084528284019150828160051b850101838b0160005b83811015611f1a578683037fffffffffffffffffffffffffffffffffffffffffffffffffffffffffffffffe00185528151805173ffffffffffffffffffffffffffffffffffffffff1684528681015187850152604090810151606091850182905290611f0681860183611e18565b968801969450505090850190600101611e98565b5050604087018a905267ffffffffffffffff891660608801529450611f3f9350505050565b67ffffffffffffffff831660808301525b979650505050505050565b600060208284031215611f6d57600080fd5b5051919050565b60008083357fffffffffffffffffffffffffffffffffffffffffffffffffffffffffffffffe1843603018112611fa957600080fd5b830160208101925035905067ffffffffffffffff811115611fc957600080fd5b8060061b36038213156119f057600080fd5b81835260208301925060008160005b8481101561200d57611ffc8683611b2b565b955060409190910190600101611fea565b5093949350505050565b60008083357fffffffffffffffffffffffffffffffffffffffffffffffffffffffffffffffe184360301811261204c57600080fd5b830160208101925035905067ffffffffffffffff81111561206c57600080fd5b8060051b36038213156119f057600080fd5b86815260a06020820152600061209860a083018789611ae2565b67ffffffffffffffff80871660408501528086166060850152838203608085015284357fffffffffffffffffffffffffffffffffffffffffffffffffffffffffffffffe18636030181126120eb57600080fd5b85016020810190358281111561210057600080fd5b80360382131561210f57600080fd5b60a0845261212160a085018284611ae2565b9250505061213160208601611869565b67ffffffffffffffff16602083015261214d6040860186611f74565b8383036040850152612160838284611fdb565b925050506121706060860161169f565b73ffffffffffffffffffffffffffffffffffffffff1660608301526121986080860186612017565b83830360808501526121ab838284611bcc565b9c9b505050505050505050505050565b600073ffffffffffffffffffffffffffffffffffffffff808816835280871660208401525084604083015260806060830152611f50608083018486611ae2565b60006020828403121561220d57600080fd5b81516114c381611b81565b6000825161222a818460208701611df4565b9190910192915050565b6020815260006114c36020830184611e1856fe416464726573733a206c6f772d6c6576656c2064656c65676174652063616c6c206661696c6564a26469706673582212205b6b9560d18a9a67cc23d7fca66409439cef91277183fa95a1acfda2247380bf64736f6c63430008110033"
}