{
  "address": "0x2c253283a14c55C12C77931A8bf7E3CdC0f9D3C8",
  "abi": [
    {
      "inputs": [],
      "name": "AccessDenied",
      "type": "error"
    },
    {
      "inputs": [
        {
          "internalType": "address",
          "name": "dao",
          "type": "address"
        },
        {
          "internalType": "address",
          "name": "where",
          "type": "address"
        },
        {
          "internalType": "address",
          "name": "who",
          "type": "address"
        },
        {
          "internalType": "bytes32",
          "name": "permissionId",
          "type": "bytes32"
        }
      ],
      "name": "DaoUnauthorized",
      "type": "error"
    },
    {
      "inputs": [],
      "name": "NotWearingHat",
      "type": "error"
    },
    {
      "anonymous": false,
      "inputs": [
        {
          "indexed": false,
          "internalType": "address",
          "name": "previousAdmin",
          "type": "address"
        },
        {
          "indexed": false,
          "internalType": "address",
          "name": "newAdmin",
          "type": "address"
        }
      ],
      "name": "AdminChanged",
      "type": "event"
    },
    {
      "anonymous": false,
      "inputs": [
        {
          "indexed": true,
          "internalType": "address",
          "name": "beacon",
          "type": "address"
        }
      ],
      "name": "BeaconUpgraded",
      "type": "event"
    },
    {
      "anonymous": false,
      "inputs": [
        {
          "indexed": true,
          "internalType": "uint256",
          "name": "nonce",
          "type": "uint256"
        },
        {
          "indexed": true,
          "internalType": "address",
          "name": "sender",
          "type": "address"
        },
        {
          "indexed": false,
          "internalType": "uint256",
          "name": "hat",
          "type": "uint256"
        },
        {
          "components": [
            {
              "internalType": "address",
              "name": "to",
              "type": "address"
            },
            {
              "internalType": "uint256",
              "name": "value",
              "type": "uint256"
            },
            {
              "internalType": "bytes",
              "name": "data",
              "type": "bytes"
            }
          ],
          "indexed": false,
          "internalType": "struct IDAO.Action[]",
          "name": "actions",
          "type": "tuple[]"
        }
      ],
      "name": "Execution",
      "type": "event"
    },
    {
      "anonymous": false,
      "inputs": [
        {
          "indexed": true,
          "internalType": "uint256",
          "name": "hat",
          "type": "uint256"
        }
      ],
      "name": "FullAccessGranted",
      "type": "event"
    },
    {
      "anonymous": false,
      "inputs": [
        {
          "indexed": true,
          "internalType": "uint256",
          "name": "hat",
          "type": "uint256"
        }
      ],
      "name": "FullAccessRevoked",
      "type": "event"
    },
    {
      "anonymous": false,
      "inputs": [
        {
          "indexed": true,
          "internalType": "uint256",
          "name": "hat",
          "type": "uint256"
        },
        {
          "indexed": false,
          "internalType": "address",
          "name": "zone",
          "type": "address"
        },
        {
          "indexed": false,
          "internalType": "bytes4",
          "name": "functionSelector",
          "type": "bytes4"
        }
      ],
      "name": "FullFunctionAccessGranted",
      "type": "event"
    },
    {
      "anonymous": false,
      "inputs": [
        {
          "indexed": true,
          "internalType": "uint256",
          "name": "hat",
          "type": "uint256"
        },
        {
          "indexed": false,
          "internalType": "address",
          "name": "zone",
          "type": "address"
        },
        {
          "indexed": false,
          "internalType": "bytes4",
          "name": "functionSelector",
          "type": "bytes4"
        }
      ],
      "name": "FullFunctionAccessRevoked",
      "type": "event"
    },
    {
      "anonymous": false,
      "inputs": [
        {
          "indexed": true,
          "internalType": "uint256",
          "name": "hat",
          "type": "uint256"
        },
        {
          "indexed": false,
          "internalType": "address",
          "name": "zone",
          "type": "address"
        }
      ],
      "name": "FullZoneAccessGranted",
      "type": "event"
    },
    {
      "anonymous": false,
      "inputs": [
        {
          "indexed": true,
          "internalType": "uint256",
          "name": "hat",
          "type": "uint256"
        },
        {
          "indexed": false,
          "internalType": "address",
          "name": "zone",
          "type": "address"
        }
      ],
      "name": "FullZoneAccessRevoked",
      "type": "event"
    },
    {
      "anonymous": false,
      "inputs": [
        {
          "indexed": false,
          "internalType": "uint8",
          "name": "version",
          "type": "uint8"
        }
      ],
      "name": "Initialized",
      "type": "event"
    },
    {
      "anonymous": false,
      "inputs": [
        {
          "indexed": true,
          "internalType": "address",
          "name": "implementation",
          "type": "address"
        }
      ],
      "name": "Upgraded",
      "type": "event"
    },
    {
      "inputs": [],
      "name": "UPGRADE_PLUGIN_PERMISSION_ID",
      "outputs": [
        {
          "internalType": "bytes32",
          "name": "",
          "type": "bytes32"
        }
      ],
      "stateMutability": "view",
      "type": "function"
    },
    {
      "inputs": [
        {
          "internalType": "uint256",
          "name": "_hat",
          "type": "uint256"
        },
        {
          "components": [
            {
              "internalType": "address",
              "name": "to",
              "type": "address"
            },
            {
              "internalType": "uint256",
              "name": "value",
              "type": "uint256"
            },
            {
              "internalType": "bytes",
              "name": "data",
              "type": "bytes"
            }
          ],
          "internalType": "struct IDAO.Action[]",
          "name": "_actions",
          "type": "tuple[]"
        },
        {
          "internalType": "uint256",
          "name": "_failureMap",
          "type": "uint256"
        }
      ],
      "name": "asDAO",
      "outputs": [
        {
          "internalType": "bytes[]",
          "name": "returnValueBytes",
          "type": "bytes[]"
        },
        {
          "internalType": "uint256",
          "name": "failureMap",
          "type": "uint256"
        }
      ],
      "stateMutability": "nonpayable",
      "type": "function"
    },
    {
      "inputs": [],
      "name": "dao",
      "outputs": [
        {
          "internalType": "contract IDAO",
          "name": "",
          "type": "address"
        }
      ],
      "stateMutability": "view",
      "type": "function"
    },
    {
      "inputs": [
        {
          "internalType": "uint256",
          "name": "_hat",
          "type": "uint256"
        }
      ],
      "name": "grantFullAccess",
      "outputs": [],
      "stateMutability": "nonpayable",
      "type": "function"
    },
    {
      "inputs": [
        {
          "internalType": "uint256",
          "name": "_hat",
          "type": "uint256"
        },
        {
          "internalType": "address",
          "name": "_zone",
          "type": "address"
        },
        {
          "internalType": "bytes4",
          "name": "_function",
          "type": "bytes4"
        }
      ],
      "name": "grantFullFunctionAccess",
      "outputs": [],
      "stateMutability": "nonpayable",
      "type": "function"
    },
    {
      "inputs": [
        {
          "internalType": "uint256",
          "name": "_hat",
          "type": "uint256"
        },
        {
          "internalType": "address",
          "name": "_zone",
          "type": "address"
        }
      ],
      "name": "grantFullZoneAccess",
      "outputs": [],
      "stateMutability": "nonpayable",
      "type": "function"
    },
    {
      "inputs": [
        {
          "internalType": "uint256",
          "name": "_hat",
          "type": "uint256"
        },
        {
          "components": [
            {
              "internalType": "address",
              "name": "to",
              "type": "address"
            },
            {
              "internalType": "uint256",
              "name": "value",
              "type": "uint256"
            },
            {
              "internalType": "bytes",
              "name": "data",
              "type": "bytes"
            }
          ],
          "internalType": "struct IDAO.Action[]",
          "name": "_actions",
          "type": "tuple[]"
        }
      ],
      "name": "hasAccess",
      "outputs": [
        {
          "internalType": "bool",
          "name": "",
          "type": "bool"
        }
      ],
      "stateMutability": "view",
      "type": "function"
    },
    {
      "inputs": [],
      "name": "implementation",
      "outputs": [
        {
          "internalType": "address",
          "name": "",
          "type": "address"
        }
      ],
      "stateMutability": "view",
      "type": "function"
    },
    {
      "inputs": [
        {
          "internalType": "contract IDAO",
          "name": "_dao",
          "type": "address"
        },
        {
          "internalType": "contract IHats",
          "name": "_hats",
          "type": "address"
        }
      ],
      "name": "initialize",
      "outputs": [],
      "stateMutability": "nonpayable",
      "type": "function"
    },
    {
      "inputs": [],
      "name": "pluginType",
      "outputs": [
        {
          "internalType": "enum IPlugin.PluginType",
          "name": "",
          "type": "uint8"
        }
      ],
      "stateMutability": "pure",
      "type": "function"
    },
    {
      "inputs": [],
      "name": "proxiableUUID",
      "outputs": [
        {
          "internalType": "bytes32",
          "name": "",
          "type": "bytes32"
        }
      ],
      "stateMutability": "view",
      "type": "function"
    },
    {
      "inputs": [
        {
          "internalType": "uint256",
          "name": "_hat",
          "type": "uint256"
        }
      ],
      "name": "revokeFullAccess",
      "outputs": [],
      "stateMutability": "nonpayable",
      "type": "function"
    },
    {
      "inputs": [
        {
          "internalType": "uint256",
          "name": "_hat",
          "type": "uint256"
        },
        {
          "internalType": "address",
          "name": "_zone",
          "type": "address"
        },
        {
          "internalType": "bytes4",
          "name": "_function",
          "type": "bytes4"
        }
      ],
      "name": "revokeFullFunctionAccess",
      "outputs": [],
      "stateMutability": "nonpayable",
      "type": "function"
    },
    {
      "inputs": [
        {
          "internalType": "uint256",
          "name": "_hat",
          "type": "uint256"
        },
        {
          "internalType": "address",
          "name": "_zone",
          "type": "address"
        }
      ],
      "name": "revokeFullZoneAccess",
      "outputs": [],
      "stateMutability": "nonpayable",
      "type": "function"
    },
    {
      "inputs": [
        {
          "internalType": "bytes4",
          "name": "_interfaceId",
          "type": "bytes4"
        }
      ],
      "name": "supportsInterface",
      "outputs": [
        {
          "internalType": "bool",
          "name": "",
          "type": "bool"
        }
      ],
      "stateMutability": "view",
      "type": "function"
    },
    {
      "inputs": [
        {
          "internalType": "address",
          "name": "newImplementation",
          "type": "address"
        }
      ],
      "name": "upgradeTo",
      "outputs": [],
      "stateMutability": "nonpayable",
      "type": "function"
    },
    {
      "inputs": [
        {
          "internalType": "address",
          "name": "newImplementation",
          "type": "address"
        },
        {
          "internalType": "bytes",
          "name": "data",
          "type": "bytes"
        }
      ],
      "name": "upgradeToAndCall",
      "outputs": [],
      "stateMutability": "payable",
      "type": "function"
    }
  ],
  "args": [],
  "numDeployments": 1,
  "solcInputHash": "caac9a9c3726f07114d89693afed9504",
  "bytecode": "0x60a06040523060805234801561001457600080fd5b5061001d610022565b6100e1565b600054610100900460ff161561008e5760405162461bcd60e51b815260206004820152602760248201527f496e697469616c697a61626c653a20636f6e747261637420697320696e697469604482015266616c697a696e6760c81b606482015260840160405180910390fd5b60005460ff908116146100df576000805460ff191660ff9081179091556040519081527f7f26b83ff96e1f2b6a682f133852f6798a09c465da95921460cefb38474024989060200160405180910390a15b565b608051611c7d610118600039600081816106e60152818161072f015281816108e70152818161092701526109a30152611c7d6000f3fe6080604052600436106100fe5760003560e01c8063485cc955116100955780639dabd764116100645780639dabd764146102a1578063b8903d89146102c1578063c9c4bfca146102e1578063e41c2d8d14610315578063f4101c671461033557600080fd5b8063485cc955146102365780634f1ef2861461025657806352d1902d146102695780635c60da1b1461028c57600080fd5b80632dc24134116100d15780632dc24134146101a85780633659cfe6146101c85780634162169f146101e857806341de68301461021a57600080fd5b806301ffc9a714610103578063069c5e8d146101385780630b8a64501461015a57806320e2783914610188575b600080fd5b34801561010f57600080fd5b5061012361011e366004611333565b610355565b60405190151581526020015b60405180910390f35b34801561014457600080fd5b50610158610153366004611363565b610380565b005b34801561016657600080fd5b5061017a6101753660046113ed565b610445565b60405161012f929190611490565b34801561019457600080fd5b506101236101a33660046114f9565b6105ec565b3480156101b457600080fd5b506101586101c3366004611545565b61065e565b3480156101d457600080fd5b506101586101e336600461155e565b6106dc565b3480156101f457600080fd5b5060c9546001600160a01b03165b6040516001600160a01b03909116815260200161012f565b34801561022657600080fd5b50600060405161012f919061157b565b34801561024257600080fd5b506101586102513660046115a3565b6107ad565b61015861026436600461164b565b6108dd565b34801561027557600080fd5b5061027e610996565b60405190815260200161012f565b34801561029857600080fd5b50610202610a49565b3480156102ad57600080fd5b506101586102bc366004611545565b610a58565b3480156102cd57600080fd5b506101586102dc3660046116de565b610ad3565b3480156102ed57600080fd5b5061027e7f821b6e3a557148015a918c89e5d092e878a69854a2d1a410635f771bd5a8a3f581565b34801561032157600080fd5b506101586103303660046116de565b610b74565b34801561034157600080fd5b50610158610350366004611363565b610c09565b60006001600160e01b03198216633501d8d760e01b148061037a575061037a82610cbb565b92915050565b60c9547fa8cad758485c709fbef15b6c8181d7555030d4a6a792ec9a7f4ffc02518e480f906103be906001600160a01b031630335b84600036610d0b565b600061013160006103cf8686610dc7565b8152602001908152602001600020600086815260200190815260200160002060006101000a81548160ff021916908315150217905550837f15bea7b81f47ba7035fab9481499d29e2aa255a5842ace04ec00a7c6da38e4f48484604051610437929190611703565b60405180910390a250505050565b61012e54604051627eeac760e11b81523360048201526024810186905260609160009187916001600160a01b03169062fdd58e90604401602060405180830381865afa158015610499573d6000803e3d6000fd5b505050506040513d601f19601f820116820180604052508101906104bd9190611726565b6000036104dd576040516369bd554b60e11b815260040160405180910390fd5b6104e88787876105ec565b61050557604051634ca8886760e01b815260040160405180910390fd5b60c95461012d546040516331c6fcc960e21b81526001600160a01b039092169163c71bf3249161053d918a908a908a90600401611840565b6000604051808303816000875af115801561055c573d6000803e3d6000fd5b505050506040513d6000823e601f3d908101601f19168201604052610584919081019061186b565b61012d5460405192955090935033917f8d906c1994971d36bd94a687b5a1bfca93307dedd913c9d4fa523fae80ee13bf906105c4908b908b908b90611971565b60405180910390a361012d600081546105dc906119aa565b9091555091969095509350505050565b600083815261012f602052604081205460ff166106535760005b828110156106515761063b85858584818110610624576106246119c3565b905060200281019061063691906119d9565b610df8565b610649576000915050610657565b600101610606565b505b5060015b9392505050565b60c9547f0209bc221846239f7e72f2c3d8d76e43901cbe3d7184b510d07dc7a1e9a02cd890610697906001600160a01b031630336103b5565b600082815261012f6020526040808220805460ff191660011790555183917fd122250fdf1a727060408d59d6d7811685b43abfc384fd67c34003705b877d6f91a25050565b6001600160a01b037f000000000000000000000000000000000000000000000000000000000000000016300361072d5760405162461bcd60e51b8152600401610724906119f9565b60405180910390fd5b7f00000000000000000000000000000000000000000000000000000000000000006001600160a01b031661075f610e93565b6001600160a01b0316146107855760405162461bcd60e51b815260040161072490611a45565b61078e81610eaf565b604080516000808252602082019092526107aa91839190610ee8565b50565b600054610100900460ff16158080156107cd5750600054600160ff909116105b806107e75750303b1580156107e7575060005460ff166001145b61084a5760405162461bcd60e51b815260206004820152602e60248201527f496e697469616c697a61626c653a20636f6e747261637420697320616c72656160448201526d191e481a5b9a5d1a585b1a5e995960921b6064820152608401610724565b6000805460ff19166001179055801561086d576000805461ff0019166101001790555b61087683611053565b61012e80546001600160a01b0319166001600160a01b03841617905580156108d8576000805461ff0019169055604051600181527f7f26b83ff96e1f2b6a682f133852f6798a09c465da95921460cefb38474024989060200160405180910390a15b505050565b6001600160a01b037f00000000000000000000000000000000000000000000000000000000000000001630036109255760405162461bcd60e51b8152600401610724906119f9565b7f00000000000000000000000000000000000000000000000000000000000000006001600160a01b0316610957610e93565b6001600160a01b03161461097d5760405162461bcd60e51b815260040161072490611a45565b61098682610eaf565b61099282826001610ee8565b5050565b6000306001600160a01b037f00000000000000000000000000000000000000000000000000000000000000001614610a365760405162461bcd60e51b815260206004820152603860248201527f555550535570677261646561626c653a206d757374206e6f742062652063616c60448201527f6c6564207468726f7567682064656c656761746563616c6c00000000000000006064820152608401610724565b50600080516020611c0183398151915290565b6000610a53610e93565b905090565b60c9547fa8cad758485c709fbef15b6c8181d7555030d4a6a792ec9a7f4ffc02518e480f90610a91906001600160a01b031630336103b5565b600082815261012f6020526040808220805460ff191690555183917ff64d06794594aa02e14643f9394456dca6a0c076b656ccd4ca3792e153c17b3e91a25050565b60c9547f0209bc221846239f7e72f2c3d8d76e43901cbe3d7184b510d07dc7a1e9a02cd890610b0c906001600160a01b031630336103b5565b6001600160a01b038216600081815261013060209081526040808320878452825291829020805460ff19166001179055905191825284917f97c137d334f84a6ae66fafd836d2966b45685a691f0562a39863e01226b608b391015b60405180910390a2505050565b60c9547fa8cad758485c709fbef15b6c8181d7555030d4a6a792ec9a7f4ffc02518e480f90610bad906001600160a01b031630336103b5565b6001600160a01b038216600081815261013060209081526040808320878452825291829020805460ff19169055905191825284917f9fd34b26eeb07850dbb0fa057aff705db3355c3c110bccb75ddbed74996b3ab99101610b67565b60c9547f0209bc221846239f7e72f2c3d8d76e43901cbe3d7184b510d07dc7a1e9a02cd890610c42906001600160a01b031630336103b5565b60016101316000610c538686610dc7565b8152602001908152602001600020600086815260200190815260200160002060006101000a81548160ff021916908315150217905550837f4999cb37d8023ac329c37f14b385a8d28e1bbd4a6ba00e0bc1b3b574e4d1aee58484604051610437929190611703565b60006001600160e01b0319821663041de68360e41b1480610cec57506001600160e01b031982166352d1902d60e01b145b8061037a57506301ffc9a760e01b6001600160e01b031983161461037a565b604051637ef7c88360e11b81526001600160a01b0387169063fdef910690610d3f9088908890889088908890600401611a91565b602060405180830381865afa158015610d5c573d6000803e3d6000fd5b505050506040513d601f19601f82011682018060405250810190610d809190611ad0565b610dbf57604051630cb6f8ed60e21b81526001600160a01b03808816600483015280871660248301528516604482015260648101849052608401610724565b505050505050565b6000610de860e083901c640100000000600160c01b03602086901b16611af2565b6001600160a01b03169392505050565b600061013081610e0b602085018561155e565b6001600160a01b031681526020808201929092526040908101600090812086825290925290205460ff168061065757506101316000610e6b610e50602086018661155e565b610e5d6040870187611b19565b610e6691611b60565b610dc7565b81526020808201929092526040908101600090812086825290925290205460ff169392505050565b600080516020611c01833981519152546001600160a01b031690565b60c9547f821b6e3a557148015a918c89e5d092e878a69854a2d1a410635f771bd5a8a3f590610992906001600160a01b031630336103b5565b7f4910fdfa16fed3260ed0e7147f7cc6da11a60208b5b9406d12a635614ffd91435460ff1615610f1b576108d883611083565b826001600160a01b03166352d1902d6040518163ffffffff1660e01b8152600401602060405180830381865afa925050508015610f75575060408051601f3d908101601f19168201909252610f7291810190611726565b60015b610fd85760405162461bcd60e51b815260206004820152602e60248201527f45524331393637557067726164653a206e657720696d706c656d656e7461746960448201526d6f6e206973206e6f74205555505360901b6064820152608401610724565b600080516020611c0183398151915281146110475760405162461bcd60e51b815260206004820152602960248201527f45524331393637557067726164653a20756e737570706f727465642070726f786044820152681a58589b195555525160ba1b6064820152608401610724565b506108d883838361111f565b600054610100900460ff1661107a5760405162461bcd60e51b815260040161072490611b90565b6107aa8161114a565b6001600160a01b0381163b6110f05760405162461bcd60e51b815260206004820152602d60248201527f455243313936373a206e657720696d706c656d656e746174696f6e206973206e60448201526c1bdd08184818dbdb9d1c9858dd609a1b6064820152608401610724565b600080516020611c0183398151915280546001600160a01b0319166001600160a01b0392909216919091179055565b61112883611193565b6000825111806111355750805b156108d85761114483836111d3565b50505050565b600054610100900460ff166111715760405162461bcd60e51b815260040161072490611b90565b60c980546001600160a01b0319166001600160a01b0392909216919091179055565b61119c81611083565b6040516001600160a01b038216907fbc7cd75a20ee27fd9adebab32041f755214dbc6bffa90cc0225b39da2e5c2d3b90600090a250565b60606106578383604051806060016040528060278152602001611c21602791396060600080856001600160a01b0316856040516112109190611bdb565b600060405180830381855af49150503d806000811461124b576040519150601f19603f3d011682016040523d82523d6000602084013e611250565b606091505b50915091506112618683838761126b565b9695505050505050565b606083156112da5782516000036112d3576001600160a01b0385163b6112d35760405162461bcd60e51b815260206004820152601d60248201527f416464726573733a2063616c6c20746f206e6f6e2d636f6e74726163740000006044820152606401610724565b50816112e4565b6112e483836112ec565b949350505050565b8151156112fc5781518083602001fd5b8060405162461bcd60e51b81526004016107249190611bed565b80356001600160e01b03198116811461132e57600080fd5b919050565b60006020828403121561134557600080fd5b61065782611316565b6001600160a01b03811681146107aa57600080fd5b60008060006060848603121561137857600080fd5b83359250602084013561138a8161134e565b915061139860408501611316565b90509250925092565b60008083601f8401126113b357600080fd5b50813567ffffffffffffffff8111156113cb57600080fd5b6020830191508360208260051b85010111156113e657600080fd5b9250929050565b6000806000806060858703121561140357600080fd5b84359350602085013567ffffffffffffffff81111561142157600080fd5b61142d878288016113a1565b9598909750949560400135949350505050565b60005b8381101561145b578181015183820152602001611443565b50506000910152565b6000815180845261147c816020860160208601611440565b601f01601f19169290920160200192915050565b6000604082016040835280855180835260608501915060608160051b8601019250602080880160005b838110156114e757605f198887030185526114d5868351611464565b955093820193908201906001016114b9565b50509490940194909452949350505050565b60008060006040848603121561150e57600080fd5b83359250602084013567ffffffffffffffff81111561152c57600080fd5b611538868287016113a1565b9497909650939450505050565b60006020828403121561155757600080fd5b5035919050565b60006020828403121561157057600080fd5b81356106578161134e565b602081016003831061159d57634e487b7160e01b600052602160045260246000fd5b91905290565b600080604083850312156115b657600080fd5b82356115c18161134e565b915060208301356115d18161134e565b809150509250929050565b634e487b7160e01b600052604160045260246000fd5b604051601f8201601f1916810167ffffffffffffffff8111828210171561161b5761161b6115dc565b604052919050565b600067ffffffffffffffff82111561163d5761163d6115dc565b50601f01601f191660200190565b6000806040838503121561165e57600080fd5b82356116698161134e565b9150602083013567ffffffffffffffff81111561168557600080fd5b8301601f8101851361169657600080fd5b80356116a96116a482611623565b6115f2565b8181528660208385010111156116be57600080fd5b816020840160208301376000602083830101528093505050509250929050565b600080604083850312156116f157600080fd5b8235915060208301356115d18161134e565b6001600160a01b039290921682526001600160e01b031916602082015260400190565b60006020828403121561173857600080fd5b5051919050565b81835281816020850137506000828201602090810191909152601f909101601f19169091010190565b81835260006020808501808196508560051b810191508460005b878110156118335782840389528135605e198836030181126117a357600080fd5b8701606081356117b28161134e565b6001600160a01b03168652818701358787015260408083013536849003601e190181126117de57600080fd5b90920187810192903567ffffffffffffffff8111156117fc57600080fd5b80360384131561180b57600080fd5b828289015261181d838901828661173f565b9c89019c97505050928601925050600101611782565b5091979650505050505050565b84815260606020820152600061185a606083018587611768565b905082604083015295945050505050565b600080604080848603121561187f57600080fd5b835167ffffffffffffffff8082111561189757600080fd5b818601915086601f8301126118ab57600080fd5b81516020828211156118bf576118bf6115dc565b8160051b6118ce8282016115f2565b928352848101820192828101908b8511156118e857600080fd5b83870192505b8483101561195d578251868111156119065760008081fd5b8701603f81018d136119185760008081fd5b848101516119286116a482611623565b8181528e8b83850101111561193d5760008081fd5b61194c828883018d8601611440565b8452505091830191908301906118ee565b9990920151989a9899505050505050505050565b83815260406020820152600061198b604083018486611768565b95945050505050565b634e487b7160e01b600052601160045260246000fd5b6000600182016119bc576119bc611994565b5060010190565b634e487b7160e01b600052603260045260246000fd5b60008235605e198336030181126119ef57600080fd5b9190910192915050565b6020808252602c908201527f46756e6374696f6e206d7573742062652063616c6c6564207468726f7567682060408201526b19195b1959d85d1958d85b1b60a21b606082015260800190565b6020808252602c908201527f46756e6374696f6e206d7573742062652063616c6c6564207468726f7567682060408201526b6163746976652070726f787960a01b606082015260800190565b6001600160a01b0386811682528516602082015260408101849052608060608201819052600090611ac5908301848661173f565b979650505050505050565b600060208284031215611ae257600080fd5b8151801515811461065757600080fd5b6001600160a01b03818116838216019080821115611b1257611b12611994565b5092915050565b6000808335601e19843603018112611b3057600080fd5b83018035915067ffffffffffffffff821115611b4b57600080fd5b6020019150368190038213156113e657600080fd5b6001600160e01b03198135818116916004851015611b885780818660040360031b1b83161692505b505092915050565b6020808252602b908201527f496e697469616c697a61626c653a20636f6e7472616374206973206e6f74206960408201526a6e697469616c697a696e6760a81b606082015260800190565b600082516119ef818460208701611440565b602081526000610657602083018461146456fe360894a13ba1a3210667c828492db98dca3e2076cc3735a920a3ca505d382bbc416464726573733a206c6f772d6c6576656c2064656c65676174652063616c6c206661696c6564a26469706673582212202a30ffdc0b0452761898a145e9ceb7a16bb245d343ac2f141458fcf3bf839a9164736f6c63430008110033",
  "devdoc": {
    "errors": {
      "DaoUnauthorized(address,address,address,bytes32)": [
        {
          "params": {
            "dao": "The associated DAO.",
            "permissionId": "The permission identifier.",
            "where": "The context in which the authorization reverted.",
            "who": "The address (EOA or contract) missing the permission."
          }
        }
      ]
    },
    "kind": "dev",
    "methods": {
      "asDAO(uint256,(address,uint256,bytes)[],uint256)": {
        "params": {
          "_actions": "The actions to execute.",
          "_failureMap": "Which actions are allowed to fail without reverting the whole transaction.",
          "_hat": "The hat to use for validations the actions are allowed."
        }
      },
      "dao()": {
        "returns": {
          "_0": "The DAO contract."
        }
      },
      "grantFullAccess(uint256)": {
        "params": {
          "_hat": "The hat that is granted the permission."
        }
      },
      "grantFullFunctionAccess(uint256,address,bytes4)": {
        "params": {
          "_function": "The function of the smart contract.",
          "_hat": "The hat that is granted the permission.",
          "_zone": "The address of the smart contract."
        }
      },
      "grantFullZoneAccess(uint256,address)": {
        "params": {
          "_hat": "The hat that is granted the permission.",
          "_zone": "The address of the smart contract."
        }
      },
      "hasAccess(uint256,(address,uint256,bytes)[])": {
        "details": "Only a single hat means that a user holding multiple hats might need to split their actions into one batch per hat.",
        "params": {
          "_actions": "The actions to check.",
          "_hat": "The hat to check with."
        }
      },
      "implementation()": {
        "returns": {
          "_0": "The address of the implementation contract."
        }
      },
      "initialize(address,address)": {
        "params": {
          "_dao": "The dao where this plugin is installed.",
          "_hats": "The deployment of Hats Protocol to use."
        }
      },
      "proxiableUUID()": {
        "details": "Implementation of the ERC1822 {proxiableUUID} function. This returns the storage slot used by the implementation. It is used to validate the implementation's compatibility when performing an upgrade. IMPORTANT: A proxy pointing at a proxiable contract should not be considered proxiable itself, because this risks bricking a proxy that upgrades to it, by delegating to itself until out of gas. Thus it is critical that this function revert if invoked through a proxy. This is guaranteed by the `notDelegated` modifier."
      },
      "revokeFullAccess(uint256)": {
        "params": {
          "_hat": "The hat that is granted the permission."
        }
      },
      "revokeFullFunctionAccess(uint256,address,bytes4)": {
        "params": {
          "_function": "The function of the smart contract.",
          "_hat": "The hat that is granted the permission.",
          "_zone": "The address of the smart contract."
        }
      },
      "revokeFullZoneAccess(uint256,address)": {
        "params": {
          "_hat": "The hat that is granted the permission.",
          "_zone": "The address of the smart contract."
        }
      },
      "supportsInterface(bytes4)": {
        "params": {
          "_interfaceId": "The ID of the interface."
        },
        "returns": {
          "_0": "Returns `true` if the interface is supported."
        }
      },
      "upgradeTo(address)": {
        "custom:oz-upgrades-unsafe-allow-reachable": "delegatecall",
        "details": "Upgrade the implementation of the proxy to `newImplementation`. Calls {_authorizeUpgrade}. Emits an {Upgraded} event."
      },
      "upgradeToAndCall(address,bytes)": {
        "custom:oz-upgrades-unsafe-allow-reachable": "delegatecall",
        "details": "Upgrade the implementation of the proxy to `newImplementation`, and subsequently execute the function call encoded in `data`. Calls {_authorizeUpgrade}. Emits an {Upgraded} event."
      }
    },
    "stateVariables": {
      "__gap": {
        "details": "This empty reserved space is put in place to allow future versions to add new variables without shifting down storage in the inheritance chain. https://docs.openzeppelin.com/contracts/4.x/upgradeable#storage_gaps"
      }
    },
    "version": 1
  },
  "userdoc": {
    "errors": {
      "DaoUnauthorized(address,address,address,bytes32)": [
        {
          "notice": "Thrown if a call is unauthorized in the associated DAO."
        }
      ]
    },
    "kind": "user",
    "methods": {
      "UPGRADE_PLUGIN_PERMISSION_ID()": {
        "notice": "The ID of the permission required to call the `_authorizeUpgrade` function."
      },
      "asDAO(uint256,(address,uint256,bytes)[],uint256)": {
        "notice": "Executes a list of actions as the DAO."
      },
      "dao()": {
        "notice": "Returns the DAO contract."
      },
      "grantFullAccess(uint256)": {
        "notice": "Grants a hat the permission to do any action."
      },
      "grantFullFunctionAccess(uint256,address,bytes4)": {
        "notice": "Grants a hat the permission to call one function of one smart contract."
      },
      "grantFullZoneAccess(uint256,address)": {
        "notice": "Grants a hat the permission to call all functions of one smart contract."
      },
      "hasAccess(uint256,(address,uint256,bytes)[])": {
        "notice": "Verifies if a hat is allowed to execute a list of actions."
      },
      "implementation()": {
        "notice": "Returns the address of the implementation contract in the [proxy storage slot](https://eips.ethereum.org/EIPS/eip-1967) slot the [UUPS proxy](https://eips.ethereum.org/EIPS/eip-1822) is pointing to."
      },
      "initialize(address,address)": {
        "notice": "Initialize the TaskDisputes plugin."
      },
      "pluginType()": {
        "notice": "Returns the plugin's type"
      },
      "revokeFullAccess(uint256)": {
        "notice": "Revokes a hat the permission to do any action."
      },
      "revokeFullFunctionAccess(uint256,address,bytes4)": {
        "notice": "Revokes a hat the permission to call one function of one smart contract."
      },
      "revokeFullZoneAccess(uint256,address)": {
        "notice": "Revokes a hat the permission to call all functions of one smart contract."
      },
      "supportsInterface(bytes4)": {
        "notice": "Checks if an interface is supported by this or its parent contract."
      }
    },
    "version": 1
  },
  "storageLayout": {
    "storage": [
      {
        "astId": 10330,
        "contract": "contracts/DAO/SharedAddress/SharedAddress.sol:SharedAddress",
        "label": "_initialized",
        "offset": 0,
        "slot": "0",
        "type": "t_uint8"
      },
      {
        "astId": 10333,
        "contract": "contracts/DAO/SharedAddress/SharedAddress.sol:SharedAddress",
        "label": "_initializing",
        "offset": 1,
        "slot": "0",
        "type": "t_bool"
      },
      {
        "astId": 16361,
        "contract": "contracts/DAO/SharedAddress/SharedAddress.sol:SharedAddress",
        "label": "__gap",
        "offset": 0,
        "slot": "1",
        "type": "t_array(t_uint256)50_storage"
      },
      {
        "astId": 10312,
        "contract": "contracts/DAO/SharedAddress/SharedAddress.sol:SharedAddress",
        "label": "__gap",
        "offset": 0,
        "slot": "51",
        "type": "t_array(t_uint256)50_storage"
      },
      {
        "astId": 10627,
        "contract": "contracts/DAO/SharedAddress/SharedAddress.sol:SharedAddress",
        "label": "__gap",
        "offset": 0,
        "slot": "101",
        "type": "t_array(t_uint256)50_storage"
      },
      {
        "astId": 14989,
        "contract": "contracts/DAO/SharedAddress/SharedAddress.sol:SharedAddress",
        "label": "__gap",
        "offset": 0,
        "slot": "151",
        "type": "t_array(t_uint256)50_storage"
      },
      {
        "astId": 2043,
        "contract": "contracts/DAO/SharedAddress/SharedAddress.sol:SharedAddress",
        "label": "dao_",
        "offset": 0,
        "slot": "201",
        "type": "t_contract(IDAO)1013"
      },
      {
        "astId": 2092,
        "contract": "contracts/DAO/SharedAddress/SharedAddress.sol:SharedAddress",
        "label": "__gap",
        "offset": 0,
        "slot": "202",
        "type": "t_array(t_uint256)49_storage"
      },
      {
        "astId": 2027,
        "contract": "contracts/DAO/SharedAddress/SharedAddress.sol:SharedAddress",
        "label": "__gap",
        "offset": 0,
        "slot": "251",
        "type": "t_array(t_uint256)50_storage"
      },
      {
        "astId": 20439,
        "contract": "contracts/DAO/SharedAddress/SharedAddress.sol:SharedAddress",
        "label": "daoNonce",
        "offset": 0,
        "slot": "301",
        "type": "t_uint256"
      },
      {
        "astId": 20442,
        "contract": "contracts/DAO/SharedAddress/SharedAddress.sol:SharedAddress",
        "label": "hats",
        "offset": 0,
        "slot": "302",
        "type": "t_contract(IHats)25525"
      },
      {
        "astId": 20446,
        "contract": "contracts/DAO/SharedAddress/SharedAddress.sol:SharedAddress",
        "label": "fullAccess",
        "offset": 0,
        "slot": "303",
        "type": "t_mapping(t_uint256,t_bool)"
      },
      {
        "astId": 20452,
        "contract": "contracts/DAO/SharedAddress/SharedAddress.sol:SharedAddress",
        "label": "fullZoneAccess",
        "offset": 0,
        "slot": "304",
        "type": "t_mapping(t_address,t_mapping(t_uint256,t_bool))"
      },
      {
        "astId": 20458,
        "contract": "contracts/DAO/SharedAddress/SharedAddress.sol:SharedAddress",
        "label": "fullFunctionAccess",
        "offset": 0,
        "slot": "305",
        "type": "t_mapping(t_uint256,t_mapping(t_uint256,t_bool))"
      },
      {
        "astId": 20837,
        "contract": "contracts/DAO/SharedAddress/SharedAddress.sol:SharedAddress",
        "label": "__gap",
        "offset": 0,
        "slot": "306",
        "type": "t_array(t_uint256)50_storage"
      }
    ],
    "types": {
      "t_address": {
        "encoding": "inplace",
        "label": "address",
        "numberOfBytes": "20"
      },
      "t_array(t_uint256)49_storage": {
        "base": "t_uint256",
        "encoding": "inplace",
        "label": "uint256[49]",
        "numberOfBytes": "1568"
      },
      "t_array(t_uint256)50_storage": {
        "base": "t_uint256",
        "encoding": "inplace",
        "label": "uint256[50]",
        "numberOfBytes": "1600"
      },
      "t_bool": {
        "encoding": "inplace",
        "label": "bool",
        "numberOfBytes": "1"
      },
      "t_contract(IDAO)1013": {
        "encoding": "inplace",
        "label": "contract IDAO",
        "numberOfBytes": "20"
      },
      "t_contract(IHats)25525": {
        "encoding": "inplace",
        "label": "contract IHats",
        "numberOfBytes": "20"
      },
      "t_mapping(t_address,t_mapping(t_uint256,t_bool))": {
        "encoding": "mapping",
        "key": "t_address",
        "label": "mapping(address => mapping(uint256 => bool))",
        "numberOfBytes": "32",
        "value": "t_mapping(t_uint256,t_bool)"
      },
      "t_mapping(t_uint256,t_bool)": {
        "encoding": "mapping",
        "key": "t_uint256",
        "label": "mapping(uint256 => bool)",
        "numberOfBytes": "32",
        "value": "t_bool"
      },
      "t_mapping(t_uint256,t_mapping(t_uint256,t_bool))": {
        "encoding": "mapping",
        "key": "t_uint256",
        "label": "mapping(uint256 => mapping(uint256 => bool))",
        "numberOfBytes": "32",
        "value": "t_mapping(t_uint256,t_bool)"
      },
      "t_uint256": {
        "encoding": "inplace",
        "label": "uint256",
        "numberOfBytes": "32"
      },
      "t_uint8": {
        "encoding": "inplace",
        "label": "uint8",
        "numberOfBytes": "1"
      }
    }
  }
}