{
  "address": "0x8D3840B8FADc9925FE8F9e850448fD24b5c8F37c",
  "abi": [
    {
      "inputs": [],
      "stateMutability": "nonpayable",
      "type": "constructor"
    },
    {
      "inputs": [
        {
          "internalType": "uint256",
          "name": "index",
          "type": "uint256"
        }
      ],
      "name": "ActionFailed",
      "type": "error"
    },
    {
      "inputs": [],
      "name": "AnyAddressDisallowedForWhoAndWhere",
      "type": "error"
    },
    {
      "inputs": [
        {
          "internalType": "contract IPermissionCondition",
          "name": "condition",
          "type": "address"
        }
      ],
      "name": "ConditionInterfacNotSupported",
      "type": "error"
    },
    {
      "inputs": [
        {
          "internalType": "contract IPermissionCondition",
          "name": "condition",
          "type": "address"
        }
      ],
      "name": "ConditionNotAContract",
      "type": "error"
    },
    {
      "inputs": [],
      "name": "GrantWithConditionNotSupported",
      "type": "error"
    },
    {
      "inputs": [],
      "name": "InsufficientGas",
      "type": "error"
    },
    {
      "inputs": [
        {
          "internalType": "uint256",
          "name": "expected",
          "type": "uint256"
        },
        {
          "internalType": "uint256",
          "name": "actual",
          "type": "uint256"
        }
      ],
      "name": "NativeTokenDepositAmountMismatch",
      "type": "error"
    },
    {
      "inputs": [
        {
          "internalType": "address",
          "name": "where",
          "type": "address"
        },
        {
          "internalType": "address",
          "name": "who",
          "type": "address"
        },
        {
          "internalType": "bytes32",
          "name": "permissionId",
          "type": "bytes32"
        },
        {
          "internalType": "address",
          "name": "currentCondition",
          "type": "address"
        },
        {
          "internalType": "address",
          "name": "newCondition",
          "type": "address"
        }
      ],
      "name": "PermissionAlreadyGrantedForDifferentCondition",
      "type": "error"
    },
    {
      "inputs": [],
      "name": "PermissionsForAnyAddressDisallowed",
      "type": "error"
    },
    {
      "inputs": [
        {
          "internalType": "uint8[3]",
          "name": "protocolVersion",
          "type": "uint8[3]"
        }
      ],
      "name": "ProtocolVersionUpgradeNotSupported",
      "type": "error"
    },
    {
      "inputs": [],
      "name": "ReentrantCall",
      "type": "error"
    },
    {
      "inputs": [],
      "name": "TooManyActions",
      "type": "error"
    },
    {
      "inputs": [
        {
          "internalType": "address",
          "name": "where",
          "type": "address"
        },
        {
          "internalType": "address",
          "name": "who",
          "type": "address"
        },
        {
          "internalType": "bytes32",
          "name": "permissionId",
          "type": "bytes32"
        }
      ],
      "name": "Unauthorized",
      "type": "error"
    },
    {
      "inputs": [
        {
          "internalType": "bytes4",
          "name": "callbackSelector",
          "type": "bytes4"
        },
        {
          "internalType": "bytes4",
          "name": "magicNumber",
          "type": "bytes4"
        }
      ],
      "name": "UnkownCallback",
      "type": "error"
    },
    {
      "inputs": [],
      "name": "ZeroAmount",
      "type": "error"
    },
    {
      "anonymous": false,
      "inputs": [
        {
          "indexed": false,
          "internalType": "address",
          "name": "previousAdmin",
          "type": "address"
        },
        {
          "indexed": false,
          "internalType": "address",
          "name": "newAdmin",
          "type": "address"
        }
      ],
      "name": "AdminChanged",
      "type": "event"
    },
    {
      "anonymous": false,
      "inputs": [
        {
          "indexed": true,
          "internalType": "address",
          "name": "beacon",
          "type": "address"
        }
      ],
      "name": "BeaconUpgraded",
      "type": "event"
    },
    {
      "anonymous": false,
      "inputs": [
        {
          "indexed": false,
          "internalType": "address",
          "name": "sender",
          "type": "address"
        },
        {
          "indexed": true,
          "internalType": "bytes4",
          "name": "sig",
          "type": "bytes4"
        },
        {
          "indexed": false,
          "internalType": "bytes",
          "name": "data",
          "type": "bytes"
        }
      ],
      "name": "CallbackReceived",
      "type": "event"
    },
    {
      "anonymous": false,
      "inputs": [
        {
          "indexed": true,
          "internalType": "address",
          "name": "sender",
          "type": "address"
        },
        {
          "indexed": true,
          "internalType": "address",
          "name": "token",
          "type": "address"
        },
        {
          "indexed": false,
          "internalType": "uint256",
          "name": "amount",
          "type": "uint256"
        },
        {
          "indexed": false,
          "internalType": "string",
          "name": "_reference",
          "type": "string"
        }
      ],
      "name": "Deposited",
      "type": "event"
    },
    {
      "anonymous": false,
      "inputs": [
        {
          "indexed": true,
          "internalType": "address",
          "name": "actor",
          "type": "address"
        },
        {
          "indexed": false,
          "internalType": "bytes32",
          "name": "callId",
          "type": "bytes32"
        },
        {
          "components": [
            {
              "internalType": "address",
              "name": "to",
              "type": "address"
            },
            {
              "internalType": "uint256",
              "name": "value",
              "type": "uint256"
            },
            {
              "internalType": "bytes",
              "name": "data",
              "type": "bytes"
            }
          ],
          "indexed": false,
          "internalType": "struct IDAO.Action[]",
          "name": "actions",
          "type": "tuple[]"
        },
        {
          "indexed": false,
          "internalType": "uint256",
          "name": "allowFailureMap",
          "type": "uint256"
        },
        {
          "indexed": false,
          "internalType": "uint256",
          "name": "failureMap",
          "type": "uint256"
        },
        {
          "indexed": false,
          "internalType": "bytes[]",
          "name": "execResults",
          "type": "bytes[]"
        }
      ],
      "name": "Executed",
      "type": "event"
    },
    {
      "anonymous": false,
      "inputs": [
        {
          "indexed": true,
          "internalType": "bytes32",
          "name": "permissionId",
          "type": "bytes32"
        },
        {
          "indexed": true,
          "internalType": "address",
          "name": "here",
          "type": "address"
        },
        {
          "indexed": false,
          "internalType": "address",
          "name": "where",
          "type": "address"
        },
        {
          "indexed": true,
          "internalType": "address",
          "name": "who",
          "type": "address"
        },
        {
          "indexed": false,
          "internalType": "address",
          "name": "condition",
          "type": "address"
        }
      ],
      "name": "Granted",
      "type": "event"
    },
    {
      "anonymous": false,
      "inputs": [
        {
          "indexed": false,
          "internalType": "uint8",
          "name": "version",
          "type": "uint8"
        }
      ],
      "name": "Initialized",
      "type": "event"
    },
    {
      "anonymous": false,
      "inputs": [
        {
          "indexed": false,
          "internalType": "bytes",
          "name": "metadata",
          "type": "bytes"
        }
      ],
      "name": "MetadataSet",
      "type": "event"
    },
    {
      "anonymous": false,
      "inputs": [
        {
          "indexed": false,
          "internalType": "address",
          "name": "sender",
          "type": "address"
        },
        {
          "indexed": false,
          "internalType": "uint256",
          "name": "amount",
          "type": "uint256"
        }
      ],
      "name": "NativeTokenDeposited",
      "type": "event"
    },
    {
      "anonymous": false,
      "inputs": [
        {
          "indexed": false,
          "internalType": "string",
          "name": "daoURI",
          "type": "string"
        }
      ],
      "name": "NewURI",
      "type": "event"
    },
    {
      "anonymous": false,
      "inputs": [
        {
          "indexed": true,
          "internalType": "bytes32",
          "name": "permissionId",
          "type": "bytes32"
        },
        {
          "indexed": true,
          "internalType": "address",
          "name": "here",
          "type": "address"
        },
        {
          "indexed": false,
          "internalType": "address",
          "name": "where",
          "type": "address"
        },
        {
          "indexed": true,
          "internalType": "address",
          "name": "who",
          "type": "address"
        }
      ],
      "name": "Revoked",
      "type": "event"
    },
    {
      "anonymous": false,
      "inputs": [
        {
          "indexed": false,
          "internalType": "address",
          "name": "signatureValidator",
          "type": "address"
        }
      ],
      "name": "SignatureValidatorSet",
      "type": "event"
    },
    {
      "anonymous": false,
      "inputs": [
        {
          "indexed": false,
          "internalType": "bytes4",
          "name": "interfaceId",
          "type": "bytes4"
        },
        {
          "indexed": false,
          "internalType": "bytes4",
          "name": "callbackSelector",
          "type": "bytes4"
        },
        {
          "indexed": false,
          "internalType": "bytes4",
          "name": "magicNumber",
          "type": "bytes4"
        }
      ],
      "name": "StandardCallbackRegistered",
      "type": "event"
    },
    {
      "anonymous": false,
      "inputs": [
        {
          "indexed": false,
          "internalType": "address",
          "name": "forwarder",
          "type": "address"
        }
      ],
      "name": "TrustedForwarderSet",
      "type": "event"
    },
    {
      "anonymous": false,
      "inputs": [
        {
          "indexed": true,
          "internalType": "address",
          "name": "implementation",
          "type": "address"
        }
      ],
      "name": "Upgraded",
      "type": "event"
    },
    {
      "stateMutability": "nonpayable",
      "type": "fallback"
    },
    {
      "inputs": [],
      "name": "EXECUTE_PERMISSION_ID",
      "outputs": [
        {
          "internalType": "bytes32",
          "name": "",
          "type": "bytes32"
        }
      ],
      "stateMutability": "view",
      "type": "function"
    },
    {
      "inputs": [],
      "name": "REGISTER_STANDARD_CALLBACK_PERMISSION_ID",
      "outputs": [
        {
          "internalType": "bytes32",
          "name": "",
          "type": "bytes32"
        }
      ],
      "stateMutability": "view",
      "type": "function"
    },
    {
      "inputs": [],
      "name": "ROOT_PERMISSION_ID",
      "outputs": [
        {
          "internalType": "bytes32",
          "name": "",
          "type": "bytes32"
        }
      ],
      "stateMutability": "view",
      "type": "function"
    },
    {
      "inputs": [],
      "name": "SET_METADATA_PERMISSION_ID",
      "outputs": [
        {
          "internalType": "bytes32",
          "name": "",
          "type": "bytes32"
        }
      ],
      "stateMutability": "view",
      "type": "function"
    },
    {
      "inputs": [],
      "name": "SET_SIGNATURE_VALIDATOR_PERMISSION_ID",
      "outputs": [
        {
          "internalType": "bytes32",
          "name": "",
          "type": "bytes32"
        }
      ],
      "stateMutability": "view",
      "type": "function"
    },
    {
      "inputs": [],
      "name": "SET_TRUSTED_FORWARDER_PERMISSION_ID",
      "outputs": [
        {
          "internalType": "bytes32",
          "name": "",
          "type": "bytes32"
        }
      ],
      "stateMutability": "view",
      "type": "function"
    },
    {
      "inputs": [],
      "name": "UPGRADE_DAO_PERMISSION_ID",
      "outputs": [
        {
          "internalType": "bytes32",
          "name": "",
          "type": "bytes32"
        }
      ],
      "stateMutability": "view",
      "type": "function"
    },
    {
      "inputs": [
        {
          "components": [
            {
              "internalType": "enum PermissionLib.Operation",
              "name": "operation",
              "type": "uint8"
            },
            {
              "internalType": "address",
              "name": "where",
              "type": "address"
            },
            {
              "internalType": "address",
              "name": "who",
              "type": "address"
            },
            {
              "internalType": "address",
              "name": "condition",
              "type": "address"
            },
            {
              "internalType": "bytes32",
              "name": "permissionId",
              "type": "bytes32"
            }
          ],
          "internalType": "struct PermissionLib.MultiTargetPermission[]",
          "name": "_items",
          "type": "tuple[]"
        }
      ],
      "name": "applyMultiTargetPermissions",
      "outputs": [],
      "stateMutability": "nonpayable",
      "type": "function"
    },
    {
      "inputs": [
        {
          "internalType": "address",
          "name": "_where",
          "type": "address"
        },
        {
          "components": [
            {
              "internalType": "enum PermissionLib.Operation",
              "name": "operation",
              "type": "uint8"
            },
            {
              "internalType": "address",
              "name": "who",
              "type": "address"
            },
            {
              "internalType": "bytes32",
              "name": "permissionId",
              "type": "bytes32"
            }
          ],
          "internalType": "struct PermissionLib.SingleTargetPermission[]",
          "name": "items",
          "type": "tuple[]"
        }
      ],
      "name": "applySingleTargetPermissions",
      "outputs": [],
      "stateMutability": "nonpayable",
      "type": "function"
    },
    {
      "inputs": [],
      "name": "daoURI",
      "outputs": [
        {
          "internalType": "string",
          "name": "",
          "type": "string"
        }
      ],
      "stateMutability": "view",
      "type": "function"
    },
    {
      "inputs": [
        {
          "internalType": "address",
          "name": "_token",
          "type": "address"
        },
        {
          "internalType": "uint256",
          "name": "_amount",
          "type": "uint256"
        },
        {
          "internalType": "string",
          "name": "_reference",
          "type": "string"
        }
      ],
      "name": "deposit",
      "outputs": [],
      "stateMutability": "payable",
      "type": "function"
    },
    {
      "inputs": [
        {
          "internalType": "bytes32",
          "name": "_callId",
          "type": "bytes32"
        },
        {
          "components": [
            {
              "internalType": "address",
              "name": "to",
              "type": "address"
            },
            {
              "internalType": "uint256",
              "name": "value",
              "type": "uint256"
            },
            {
              "internalType": "bytes",
              "name": "data",
              "type": "bytes"
            }
          ],
          "internalType": "struct IDAO.Action[]",
          "name": "_actions",
          "type": "tuple[]"
        },
        {
          "internalType": "uint256",
          "name": "_allowFailureMap",
          "type": "uint256"
        }
      ],
      "name": "execute",
      "outputs": [
        {
          "internalType": "bytes[]",
          "name": "execResults",
          "type": "bytes[]"
        },
        {
          "internalType": "uint256",
          "name": "failureMap",
          "type": "uint256"
        }
      ],
      "stateMutability": "nonpayable",
      "type": "function"
    },
    {
      "inputs": [],
      "name": "getTrustedForwarder",
      "outputs": [
        {
          "internalType": "address",
          "name": "",
          "type": "address"
        }
      ],
      "stateMutability": "view",
      "type": "function"
    },
    {
      "inputs": [
        {
          "internalType": "address",
          "name": "_where",
          "type": "address"
        },
        {
          "internalType": "address",
          "name": "_who",
          "type": "address"
        },
        {
          "internalType": "bytes32",
          "name": "_permissionId",
          "type": "bytes32"
        }
      ],
      "name": "grant",
      "outputs": [],
      "stateMutability": "nonpayable",
      "type": "function"
    },
    {
      "inputs": [
        {
          "internalType": "address",
          "name": "_where",
          "type": "address"
        },
        {
          "internalType": "address",
          "name": "_who",
          "type": "address"
        },
        {
          "internalType": "bytes32",
          "name": "_permissionId",
          "type": "bytes32"
        },
        {
          "internalType": "contract IPermissionCondition",
          "name": "_condition",
          "type": "address"
        }
      ],
      "name": "grantWithCondition",
      "outputs": [],
      "stateMutability": "nonpayable",
      "type": "function"
    },
    {
      "inputs": [
        {
          "internalType": "address",
          "name": "_where",
          "type": "address"
        },
        {
          "internalType": "address",
          "name": "_who",
          "type": "address"
        },
        {
          "internalType": "bytes32",
          "name": "_permissionId",
          "type": "bytes32"
        },
        {
          "internalType": "bytes",
          "name": "_data",
          "type": "bytes"
        }
      ],
      "name": "hasPermission",
      "outputs": [
        {
          "internalType": "bool",
          "name": "",
          "type": "bool"
        }
      ],
      "stateMutability": "view",
      "type": "function"
    },
    {
      "inputs": [
        {
          "internalType": "bytes",
          "name": "_metadata",
          "type": "bytes"
        },
        {
          "internalType": "address",
          "name": "_initialOwner",
          "type": "address"
        },
        {
          "internalType": "address",
          "name": "_trustedForwarder",
          "type": "address"
        },
        {
          "internalType": "string",
          "name": "daoURI_",
          "type": "string"
        }
      ],
      "name": "initialize",
      "outputs": [],
      "stateMutability": "nonpayable",
      "type": "function"
    },
    {
      "inputs": [
        {
          "internalType": "uint8[3]",
          "name": "_previousProtocolVersion",
          "type": "uint8[3]"
        },
        {
          "internalType": "bytes",
          "name": "_initData",
          "type": "bytes"
        }
      ],
      "name": "initializeFrom",
      "outputs": [],
      "stateMutability": "nonpayable",
      "type": "function"
    },
    {
      "inputs": [
        {
          "internalType": "address",
          "name": "_where",
          "type": "address"
        },
        {
          "internalType": "address",
          "name": "_who",
          "type": "address"
        },
        {
          "internalType": "bytes32",
          "name": "_permissionId",
          "type": "bytes32"
        },
        {
          "internalType": "bytes",
          "name": "_data",
          "type": "bytes"
        }
      ],
      "name": "isGranted",
      "outputs": [
        {
          "internalType": "bool",
          "name": "",
          "type": "bool"
        }
      ],
      "stateMutability": "view",
      "type": "function"
    },
    {
      "inputs": [
        {
          "internalType": "bytes32",
          "name": "_hash",
          "type": "bytes32"
        },
        {
          "internalType": "bytes",
          "name": "_signature",
          "type": "bytes"
        }
      ],
      "name": "isValidSignature",
      "outputs": [
        {
          "internalType": "bytes4",
          "name": "",
          "type": "bytes4"
        }
      ],
      "stateMutability": "view",
      "type": "function"
    },
    {
      "inputs": [],
      "name": "protocolVersion",
      "outputs": [
        {
          "internalType": "uint8[3]",
          "name": "",
          "type": "uint8[3]"
        }
      ],
      "stateMutability": "pure",
      "type": "function"
    },
    {
      "inputs": [],
      "name": "proxiableUUID",
      "outputs": [
        {
          "internalType": "bytes32",
          "name": "",
          "type": "bytes32"
        }
      ],
      "stateMutability": "view",
      "type": "function"
    },
    {
      "inputs": [
        {
          "internalType": "bytes4",
          "name": "_interfaceId",
          "type": "bytes4"
        },
        {
          "internalType": "bytes4",
          "name": "_callbackSelector",
          "type": "bytes4"
        },
        {
          "internalType": "bytes4",
          "name": "_magicNumber",
          "type": "bytes4"
        }
      ],
      "name": "registerStandardCallback",
      "outputs": [],
      "stateMutability": "nonpayable",
      "type": "function"
    },
    {
      "inputs": [
        {
          "internalType": "address",
          "name": "_where",
          "type": "address"
        },
        {
          "internalType": "address",
          "name": "_who",
          "type": "address"
        },
        {
          "internalType": "bytes32",
          "name": "_permissionId",
          "type": "bytes32"
        }
      ],
      "name": "revoke",
      "outputs": [],
      "stateMutability": "nonpayable",
      "type": "function"
    },
    {
      "inputs": [
        {
          "internalType": "string",
          "name": "newDaoURI",
          "type": "string"
        }
      ],
      "name": "setDaoURI",
      "outputs": [],
      "stateMutability": "nonpayable",
      "type": "function"
    },
    {
      "inputs": [
        {
          "internalType": "bytes",
          "name": "_metadata",
          "type": "bytes"
        }
      ],
      "name": "setMetadata",
      "outputs": [],
      "stateMutability": "nonpayable",
      "type": "function"
    },
    {
      "inputs": [
        {
          "internalType": "address",
          "name": "_signatureValidator",
          "type": "address"
        }
      ],
      "name": "setSignatureValidator",
      "outputs": [],
      "stateMutability": "nonpayable",
      "type": "function"
    },
    {
      "inputs": [
        {
          "internalType": "address",
          "name": "_newTrustedForwarder",
          "type": "address"
        }
      ],
      "name": "setTrustedForwarder",
      "outputs": [],
      "stateMutability": "nonpayable",
      "type": "function"
    },
    {
      "inputs": [],
      "name": "signatureValidator",
      "outputs": [
        {
          "internalType": "contract IERC1271",
          "name": "",
          "type": "address"
        }
      ],
      "stateMutability": "view",
      "type": "function"
    },
    {
      "inputs": [
        {
          "internalType": "bytes4",
          "name": "interfaceId",
          "type": "bytes4"
        }
      ],
      "name": "supportsInterface",
      "outputs": [
        {
          "internalType": "bool",
          "name": "",
          "type": "bool"
        }
      ],
      "stateMutability": "view",
      "type": "function"
    },
    {
      "inputs": [
        {
          "internalType": "address",
          "name": "newImplementation",
          "type": "address"
        }
      ],
      "name": "upgradeTo",
      "outputs": [],
      "stateMutability": "nonpayable",
      "type": "function"
    },
    {
      "inputs": [
        {
          "internalType": "address",
          "name": "newImplementation",
          "type": "address"
        },
        {
          "internalType": "bytes",
          "name": "data",
          "type": "bytes"
        }
      ],
      "name": "upgradeToAndCall",
      "outputs": [],
      "stateMutability": "payable",
      "type": "function"
    },
    {
      "stateMutability": "payable",
      "type": "receive"
    }
  ],
  "numDeployments": 1,
  "bytecode": "0x60a0604052306080523480156200001557600080fd5b506200002062000026565b620000e7565b600054610100900460ff1615620000935760405162461bcd60e51b815260206004820152602760248201527f496e697469616c697a61626c653a20636f6e747261637420697320696e697469604482015266616c697a696e6760c81b606482015260840160405180910390fd5b60005460ff90811614620000e5576000805460ff191660ff9081179091556040519081527f7f26b83ff96e1f2b6a682f133852f6798a09c465da95921460cefb38474024989060200160405180910390a15b565b60805161335d6200011f60003960008181610a7901528181610ab901528181610cd401528181610d140152610da7015261335d6000f3fe6080604052600436106101e75760003560e01c80637034731b11610102578063d96054c411610095578063e978afe511610064578063e978afe5146106e6578063eafb8b0614610706578063ee57e36f14610726578063fdef91061461074657610226565b8063d96054c414610650578063da74222814610670578063e2e3556314610690578063e306bee7146106c457610226565b8063c71bf324116100d1578063c71bf324146105c3578063c9dbc2a4146105f1578063ce1b815f14610611578063d68bad2c1461063057610226565b80637034731b1461053a578063829331a11461055c578063bfe07da614610590578063c4a50145146105a357610226565b806326875b1f1161017a5780633e2ab0d9116101495780633e2ab0d9146104d257806342d8e99e146104f25780634f1ef2861461051257806352d1902d1461052557610226565b806326875b1f146104235780632ae9c600146104575780633659cfe614610479578063388da9341461049957610226565b80631626ba7e116101b65780631626ba7e1461037657806322844d04146103af57806324b4d73f146103cf5780632675fdd01461040357610226565b806301ffc9a7146102bb5780630729d054146102f057806309e56b14146103325780631080f99b1461035457610226565b3661022657604080513381523460208201527f62c2c8e34665db7c56b2cabd7f5fb9702ccd352ffa8150147e450797e9f8e8f3910160405180910390a1005b34801561023257600080fd5b50600036606060006102866000356001600160e01b03191685858080601f01602080910402602001604051908101604052809392919081815260200183838082843760009201919091525061076692505050565b604080516001600160e01b03198316602082015291925001604051602081830303815290604052915050915050805190602001f35b3480156102c757600080fd5b506102db6102d63660046124ed565b61080f565b60405190151581526020015b60405180910390f35b3480156102fc57600080fd5b506103247fbf04b4486c9663d805744005c3da000eda93de6e3308a4a7a812eb565327b78d81565b6040519081526020016102e7565b34801561033e57600080fd5b5061032460008051602061330883398151915281565b34801561036057600080fd5b5061037461036f366004612552565b61084b565b005b34801561038257600080fd5b50610396610391366004612635565b610872565b6040516001600160e01b031990911681526020016102e7565b3480156103bb57600080fd5b506103746103ca366004612690565b610909565b3480156103db57600080fd5b506103247f1f53edd44352e5d15bad2b29233baa93bcd595e09457780bc7c5445bbbe751cc81565b34801561040f57600080fd5b506102db61041e366004612717565b6109fa565b34801561042f57600080fd5b506103247ffaf505be9907aa6951c2ebe5b0312f4980e14f21912ed355372103cc8bd683bc81565b34801561046357600080fd5b5061046c610a45565b6040516102e79190612782565b34801561048557600080fd5b506103746104943660046127b6565b610a6f565b3480156104a557600080fd5b5061012d546104ba906001600160a01b031681565b6040516001600160a01b0390911681526020016102e7565b3480156104de57600080fd5b506103746104ed3660046127b6565b610b4e565b3480156104fe57600080fd5b5061037461050d3660046127d3565b610bcf565b61037461052036600461282a565b610cca565b34801561053157600080fd5b50610324610d9a565b34801561054657600080fd5b5061054f610e4d565b6040516102e791906128b3565b34801561056857600080fd5b506103247f06d294bc8cbad2e393408b20dd019a772661f60b8d633e56761157cb1ec85f8c81565b61037461059e3660046128c6565b610ee0565b3480156105af57600080fd5b506103746105be366004612921565b610fcf565b3480156105cf57600080fd5b506105e36105de36600461296c565b611059565b6040516102e7929190612a45565b3480156105fd57600080fd5b5061037461060c366004612a67565b61131a565b34801561061d57600080fd5b5061012e546001600160a01b03166104ba565b34801561063c57600080fd5b5061037461064b366004612aba565b61133e565b34801561065c57600080fd5b5061037461066b366004612aba565b611367565b34801561067c57600080fd5b5061037461068b3660046127b6565b61138a565b34801561069c57600080fd5b506103247f0dcbfb19b09fb8ff4e9af583d4b8e9c8127cc1b26529b4d96dd3b7e77808837281565b3480156106d057600080fd5b506103246000805160206132a183398151915281565b3480156106f257600080fd5b50610374610701366004612afb565b6113bd565b34801561071257600080fd5b50610374610721366004612b6f565b6114b2565b34801561073257600080fd5b50610374610741366004612552565b6115c1565b34801561075257600080fd5b506102db610761366004612717565b6115e3565b6001600160e01b0319808316600090815260fb6020526040812054909160e09190911b9081166107c257604051632a5ee61f60e11b81526001600160e01b03198086166004830152821660248201526044015b60405180910390fd5b836001600160e01b0319167f4792cb6e46e49876374bea490ba23274bacea6b84c216a64f47abab54027589b33856040516107fe929190612c07565b60405180910390a290505b92915050565b60006301ffc9a760e01b6001600160e01b0319831614806108095750506001600160e01b03191660009081526033602052604090205460ff1690565b6000805160206132a1833981519152610863816115f1565b61086d8383611660565b505050565b61012d546000906001600160a01b031661088e57506000610809565b61012d54604051630b135d3f60e11b81526001600160a01b0390911690631626ba7e906108c19086908690600401612c2b565b602060405180830381865afa1580156108de573d6000803e3d6000fd5b505050506040513d601f19601f820116820180604052508101906109029190612c44565b9392505050565b600080516020613308833981519152610921816115f1565b60005b828110156109f357600084848381811061094057610940612c61565b9050606002018036038101906109569190612c8b565b905060008151600281111561096d5761096d612cf3565b0361098a5761098586826020015183604001516116a0565b6109ea565b60018151600281111561099f5761099f612cf3565b036109b7576109858682602001518360400151611780565b6002815160028111156109cc576109cc612cf3565b036109ea5760405163d4d3bef760e01b815260040160405180910390fd5b50600101610924565b5050505050565b6000610a0885858585611814565b80610a215750610a21856001600160a01b038585611814565b80610a3a5750610a3a6001600160a01b03858585611814565b90505b949350505050565b610a4d6124b9565b5060408051606081018252600181526003602082015260009181019190915290565b6001600160a01b037f0000000000000000000000000000000000000000000000000000000000000000163003610ab75760405162461bcd60e51b81526004016107b990612d09565b7f00000000000000000000000000000000000000000000000000000000000000006001600160a01b0316610b006000805160206132c1833981519152546001600160a01b031690565b6001600160a01b031614610b265760405162461bcd60e51b81526004016107b990612d55565b610b2f816118fc565b60408051600080825260208201909252610b4b91839190611926565b50565b7f0dcbfb19b09fb8ff4e9af583d4b8e9c8127cc1b26529b4d96dd3b7e778088372610b78816115f1565b61012d80546001600160a01b0319166001600160a01b0384169081179091556040519081527f3b25c5d3870ec0eac28822b177f18c9130233ade5b7f857c6a224a507c37fc4e906020015b60405180910390a15050565b600054600290610100900460ff16158015610bf1575060005460ff8083169116105b610c0d5760405162461bcd60e51b81526004016107b990612da1565b6000805461ffff191660ff831617610100179055610c2e6020850185612e00565b60ff16600114610c5357836040516384833d6760e01b81526004016107b99190612e1b565b6002610c656040860160208701612e00565b60ff1611610c8257600161013055610c82621574e360e91b611a91565b6000805461ff001916905560405160ff821681527f7f26b83ff96e1f2b6a682f133852f6798a09c465da95921460cefb3847402498906020015b60405180910390a150505050565b6001600160a01b037f0000000000000000000000000000000000000000000000000000000000000000163003610d125760405162461bcd60e51b81526004016107b990612d09565b7f00000000000000000000000000000000000000000000000000000000000000006001600160a01b0316610d5b6000805160206132c1833981519152546001600160a01b031690565b6001600160a01b031614610d815760405162461bcd60e51b81526004016107b990612d55565b610d8a826118fc565b610d9682826001611926565b5050565b6000306001600160a01b037f00000000000000000000000000000000000000000000000000000000000000001614610e3a5760405162461bcd60e51b815260206004820152603860248201527f555550535570677261646561626c653a206d757374206e6f742062652063616c60448201527f6c6564207468726f7567682064656c656761746563616c6c000000000000000060648201526084016107b9565b506000805160206132c183398151915290565b606061012f8054610e5d90612e4e565b80601f0160208091040260200160405190810160405280929190818152602001828054610e8990612e4e565b8015610ed65780601f10610eab57610100808354040283529160200191610ed6565b820191906000526020600020905b815481529060010190602001808311610eb957829003601f168201915b5050505050905090565b82600003610f0157604051631f2a200560e01b815260040160405180910390fd5b6001600160a01b038416610f3d57823414610f38576040516301abd56160e41b8152600481018490523460248201526044016107b9565b610f7a565b3415610f65576040516301abd56160e41b8152600060048201523460248201526044016107b9565b610f7a6001600160a01b038516333086611b10565b836001600160a01b0316336001600160a01b03167f2bc500cf071be2d1c1458ed6ff484cd4db4345ada8943dee7ff29e7af3558f76858585604051610fc193929190612eb1565b60405180910390a350505050565b7ffaf505be9907aa6951c2ebe5b0312f4980e14f21912ed355372103cc8bd683bc610ff9816115f1565b61100284611a91565b61100c8383611b6a565b604080516001600160e01b0319808716825280861660208301528416918101919091527ffc72fd547553f7a663e0048e590afc9c47b56a4242e960f31cf4c62e23d308b990606001610cbc565b6060600060026101305403611081576040516306fda65d60e31b815260040160405180910390fd5b6002610130557fbf04b4486c9663d805744005c3da000eda93de6e3308a4a7a812eb565327b78d6110b1816115f1565b6101008511156110d4576040516308e3b1eb60e11b815260040160405180910390fd5b846001600160401b038111156110ec576110ec612593565b60405190808252806020026020018201604052801561111f57816020015b606081526020019060019003908161110a5790505b50925060008060005b878110156112ba575a92506000808a8a8481811061114857611148612c61565b905060200281019061115a9190612ecb565b6111689060208101906127b6565b6001600160a01b03168b8b8581811061118357611183612c61565b90506020028101906111959190612ecb565b602001358c8c868181106111ab576111ab612c61565b90506020028101906111bd9190612ecb565b6111cb906040810190612eeb565b6040516111d9929190612f31565b60006040518083038185875af1925050503d8060008114611216576040519150601f19603f3d011682016040523d82523d6000602084013e61121b565b606091505b50915091505a9350600160ff84161b891661125657816112515760405163a6a7dbbd60e01b8152600481018490526024016107b9565b611292565b8161129257611266604086612f41565b841015611286576040516307099c5360e21b815260040160405180910390fd5b600160ff84161b871896505b808884815181106112a5576112a5612c61565b60209081029190910101525050600101611128565b50336001600160a01b03167fd4e57c2049f004fb297ef78591cd409503ceb6b2c722d7ffed032fc99e5f3b588a8a8a8a898b6040516112fe96959493929190612f63565b60405180910390a2505060016101305550909590945092505050565b600080516020613308833981519152611332816115f1565b6109f385858585611b9c565b600080516020613308833981519152611356816115f1565b6113618484846116a0565b50505050565b60008051602061330883398151915261137f816115f1565b611361848484611780565b7f06d294bc8cbad2e393408b20dd019a772661f60b8d633e56761157cb1ec85f8c6113b4816115f1565b610d9682611e0a565b6000805160206133088339815191526113d5816115f1565b60005b828110156113615760008484838181106113f4576113f4612c61565b905060a0020180360381019061140a9190613071565b905060008151600281111561142157611421612cf3565b036114425761143d8160200151826040015183608001516116a0565b6114a9565b60018151600281111561145757611457612cf3565b036114735761143d816020015182604001518360800151611780565b60028151600281111561148857611488612cf3565b036114a9576114a98160200151826040015183608001518460600151611b9c565b506001016113d8565b600054600290610100900460ff161580156114d4575060005460ff8083169116105b6114f05760405162461bcd60e51b81526004016107b990612da1565b6000805461ffff191660ff83161761010017905560016101305561151a6349c2aa3f60e11b611a91565b61152a630b135d3f60e11b611a91565b61153a637034731b60e01b611a91565b611549621574e360e91b611a91565b611551611e5f565b61155b8787611eb4565b61156484611e0a565b61156e8383611660565b61157785611ee5565b6000805461ff001916905560405160ff821681527f7f26b83ff96e1f2b6a682f133852f6798a09c465da95921460cefb38474024989060200160405180910390a150505050505050565b6000805160206132a18339815191526115d9816115f1565b61086d8383611eb4565b6000610a3a858585856109fa565b6116343033836000368080601f0160208091040260200160405190810160405280939291908181526020018383808284376000920191909152506109fa92505050565b610b4b57604051631e09743f60e01b8152306004820152336024820152604481018290526064016107b9565b61012f61166e82848361314d565b507fe9b617ecb5f63f6a9ccd8d4d5fa0d7b2ef9b17ce3f48e6b135808d6a40e677428282604051610bc392919061320c565b6001600160a01b0383811614806116bf57506001600160a01b03828116145b156116dd576040516324159e5b60e01b815260040160405180910390fd5b60006116ea848484611f59565b600081815260c960205260409020549091506001600160a01b0316806109f357600082815260c9602090815260409182902080546001600160a01b031916600290811790915582516001600160a01b0389811682529281019190915290861691339186917f0f579ad49235a8c1fd9041427e7067b1eb10926bbed380bf6fabc73e0e807644910160405180910390a45050505050565b600061178d848484611f59565b600081815260c960205260409020549091506001600160a01b03161561136157600081815260c9602090815260409182902080546001600160a01b031916905590516001600160a01b038681168252851691339185917f3ca48185ec3f6e47e24db18b13f1c65b1ce05da1659f9c1c4fe717dda5f67524910160405180910390a450505050565b60008060c96000611826888888611f59565b81526020810191909152604001600020546001600160a01b0316905080611851576000915050610a3d565b6001196001600160a01b0382160161186d576001915050610a3d565b6040516302675fdd60e41b81526001600160a01b03821690632675fdd09061189f908990899089908990600401613220565b602060405180830381865afa9250505080156118d8575060408051601f3d908101601f191682019092526118d591810190613253565b60015b156118f05780156118ee57600192505050610a3d565b505b50600095945050505050565b7f1f53edd44352e5d15bad2b29233baa93bcd595e09457780bc7c5445bbbe751cc610d96816115f1565b7f4910fdfa16fed3260ed0e7147f7cc6da11a60208b5b9406d12a635614ffd91435460ff16156119595761086d83611fbe565b826001600160a01b03166352d1902d6040518163ffffffff1660e01b8152600401602060405180830381865afa9250505080156119b3575060408051601f3d908101601f191682019092526119b091810190613275565b60015b611a165760405162461bcd60e51b815260206004820152602e60248201527f45524331393637557067726164653a206e657720696d706c656d656e7461746960448201526d6f6e206973206e6f74205555505360901b60648201526084016107b9565b6000805160206132c18339815191528114611a855760405162461bcd60e51b815260206004820152602960248201527f45524331393637557067726164653a20756e737570706f727465642070726f786044820152681a58589b195555525160ba1b60648201526084016107b9565b5061086d83838361205a565b6001600160e01b03198082169003611aeb5760405162461bcd60e51b815260206004820152601c60248201527f4552433136353a20696e76616c696420696e746572666163652069640000000060448201526064016107b9565b6001600160e01b0319166000908152603360205260409020805460ff19166001179055565b604080516001600160a01b0385811660248301528416604482015260648082018490528251808303909101815260849091019091526020810180516001600160e01b03166323b872dd60e01b17905261136190859061207f565b6001600160e01b031991909116600090815260fb60205260409020805463ffffffff191660e09290921c919091179055565b806001600160a01b0381163b611bd05760405163241acd7b60e11b81526001600160a01b03831660048201526024016107b9565b6040516301ffc9a760e01b81526302675fdd60e41b60048201526001600160a01b038216906301ffc9a790602401602060405180830381865afa158015611c1b573d6000803e3d6000fd5b505050506040513d601f19601f82011682018060405250810190611c3f9190613253565b611c6757604051633a05b88b60e11b81526001600160a01b03831660048201526024016107b9565b6001600160a01b03858116148015611c8757506001600160a01b03848116145b15611ca5576040516385f1ba9960e01b815260040160405180910390fd5b6001600160a01b038581161480611cc457506001600160a01b03848116145b15611d0757600080516020613308833981519152831480611ce95750611ce983612154565b15611d07576040516324159e5b60e01b815260040160405180910390fd5b6000611d14868686611f59565b600081815260c960205260409020549091506001600160a01b031680611da557600082815260c9602090815260409182902080546001600160a01b0319166001600160a01b0387811691821790925583518b8316815292830152881691339188917f0f579ad49235a8c1fd9041427e7067b1eb10926bbed380bf6fabc73e0e807644910160405180910390a4611e01565b826001600160a01b0316816001600160a01b031614611e01576040516305cc3c4f60e11b81526001600160a01b03808916600483015280881660248301526044820187905280831660648301528416608482015260a4016107b9565b50505050505050565b61012e80546001600160a01b0319166001600160a01b0383169081179091556040519081527fd91237492a9e30cd2faf361fc103998a382ff0ec2b1b07dc1cbebb76ae2f1ea29060200160405180910390a150565b611e6f630a85bd0160e11b611a91565b611e7f630271189760e51b611a91565b611e90630a85bd0160e11b80611b6a565b611ea163f23a6e6160e01b80611b6a565b611eb263bc197c8160e01b80611b6a565b565b7fbb39ebb37e60fb5d606ffdb749d2336e56b88e6c88c4bd6513b308f643186eed8282604051610bc392919061320c565b600054610100900460ff16611f505760405162461bcd60e51b815260206004820152602b60248201527f496e697469616c697a61626c653a20636f6e7472616374206973206e6f74206960448201526a6e697469616c697a696e6760a81b60648201526084016107b9565b610b4b8161223b565b604051692822a926a4a9a9a4a7a760b11b60208201526bffffffffffffffffffffffff19606084811b8216602a84015285901b16603e820152605281018290526000906072016040516020818303038152906040528051906020012090509392505050565b6001600160a01b0381163b61202b5760405162461bcd60e51b815260206004820152602d60248201527f455243313936373a206e657720696d706c656d656e746174696f6e206973206e60448201526c1bdd08184818dbdb9d1c9858dd609a1b60648201526084016107b9565b6000805160206132c183398151915280546001600160a01b0319166001600160a01b0392909216919091179055565b61206383612254565b6000825111806120705750805b1561086d576113618383612294565b60006120d4826040518060400160405280602081526020017f5361666545524332303a206c6f772d6c6576656c2063616c6c206661696c6564815250856001600160a01b03166122b99092919063ffffffff16565b90508051600014806120f55750808060200190518101906120f59190613253565b61086d5760405162461bcd60e51b815260206004820152602a60248201527f5361666545524332303a204552433230206f7065726174696f6e20646964206e6044820152691bdd081cdd58d8d9595960b21b60648201526084016107b9565b60007fbf04b4486c9663d805744005c3da000eda93de6e3308a4a7a812eb565327b78d8214806121a357507f1f53edd44352e5d15bad2b29233baa93bcd595e09457780bc7c5445bbbe751cc82145b806121bb57506000805160206132a183398151915282145b806121e557507f06d294bc8cbad2e393408b20dd019a772661f60b8d633e56761157cb1ec85f8c82145b8061220f57507f0dcbfb19b09fb8ff4e9af583d4b8e9c8127cc1b26529b4d96dd3b7e77808837282145b806108095750507ffaf505be9907aa6951c2ebe5b0312f4980e14f21912ed355372103cc8bd683bc1490565b610b4b30826000805160206133088339815191526116a0565b61225d81611fbe565b6040516001600160a01b038216907fbc7cd75a20ee27fd9adebab32041f755214dbc6bffa90cc0225b39da2e5c2d3b90600090a250565b606061090283836040518060600160405280602781526020016132e1602791396122c8565b6060610a3d8484600085612340565b6060600080856001600160a01b0316856040516122e5919061328e565b600060405180830381855af49150503d8060008114612320576040519150601f19603f3d011682016040523d82523d6000602084013e612325565b606091505b50915091506123368683838761241b565b9695505050505050565b6060824710156123a15760405162461bcd60e51b815260206004820152602660248201527f416464726573733a20696e73756666696369656e742062616c616e636520666f6044820152651c8818d85b1b60d21b60648201526084016107b9565b600080866001600160a01b031685876040516123bd919061328e565b60006040518083038185875af1925050503d80600081146123fa576040519150601f19603f3d011682016040523d82523d6000602084013e6123ff565b606091505b50915091506124108783838761241b565b979650505050505050565b6060831561248a578251600003612483576001600160a01b0385163b6124835760405162461bcd60e51b815260206004820152601d60248201527f416464726573733a2063616c6c20746f206e6f6e2d636f6e747261637400000060448201526064016107b9565b5081610a3d565b610a3d838381511561249f5781518083602001fd5b8060405162461bcd60e51b81526004016107b991906128b3565b60405180606001604052806003906020820280368337509192915050565b6001600160e01b031981168114610b4b57600080fd5b6000602082840312156124ff57600080fd5b8135610902816124d7565b60008083601f84011261251c57600080fd5b5081356001600160401b0381111561253357600080fd5b60208301915083602082850101111561254b57600080fd5b9250929050565b6000806020838503121561256557600080fd5b82356001600160401b0381111561257b57600080fd5b6125878582860161250a565b90969095509350505050565b634e487b7160e01b600052604160045260246000fd5b600082601f8301126125ba57600080fd5b81356001600160401b03808211156125d4576125d4612593565b604051601f8301601f19908116603f011681019082821181831017156125fc576125fc612593565b8160405283815286602085880101111561261557600080fd5b836020870160208301376000602085830101528094505050505092915050565b6000806040838503121561264857600080fd5b8235915060208301356001600160401b0381111561266557600080fd5b612671858286016125a9565b9150509250929050565b6001600160a01b0381168114610b4b57600080fd5b6000806000604084860312156126a557600080fd5b83356126b08161267b565b925060208401356001600160401b03808211156126cc57600080fd5b818601915086601f8301126126e057600080fd5b8135818111156126ef57600080fd5b87602060608302850101111561270457600080fd5b6020830194508093505050509250925092565b6000806000806080858703121561272d57600080fd5b84356127388161267b565b935060208501356127488161267b565b92506040850135915060608501356001600160401b0381111561276a57600080fd5b612776878288016125a9565b91505092959194509250565b60608101818360005b60038110156127ad57815160ff1683526020928301929091019060010161278b565b50505092915050565b6000602082840312156127c857600080fd5b81356109028161267b565b6000806000608084860312156127e857600080fd5b60608401858111156127f957600080fd5b849350356001600160401b0381111561281157600080fd5b61281d8682870161250a565b9497909650939450505050565b6000806040838503121561283d57600080fd5b82356128488161267b565b915060208301356001600160401b0381111561266557600080fd5b60005b8381101561287e578181015183820152602001612866565b50506000910152565b6000815180845261289f816020860160208601612863565b601f01601f19169290920160200192915050565b6020815260006109026020830184612887565b600080600080606085870312156128dc57600080fd5b84356128e78161267b565b93506020850135925060408501356001600160401b0381111561290957600080fd5b6129158782880161250a565b95989497509550505050565b60008060006060848603121561293657600080fd5b8335612941816124d7565b92506020840135612951816124d7565b91506040840135612961816124d7565b809150509250925092565b6000806000806060858703121561298257600080fd5b8435935060208501356001600160401b03808211156129a057600080fd5b818701915087601f8301126129b457600080fd5b8135818111156129c357600080fd5b8860208260051b85010111156129d857600080fd5b95986020929092019750949560400135945092505050565b600081518084526020808501808196508360051b8101915082860160005b85811015612a38578284038952612a26848351612887565b98850198935090840190600101612a0e565b5091979650505050505050565b604081526000612a5860408301856129f0565b90508260208301529392505050565b60008060008060808587031215612a7d57600080fd5b8435612a888161267b565b93506020850135612a988161267b565b9250604085013591506060850135612aaf8161267b565b939692955090935050565b600080600060608486031215612acf57600080fd5b8335612ada8161267b565b92506020840135612aea8161267b565b929592945050506040919091013590565b60008060208385031215612b0e57600080fd5b82356001600160401b0380821115612b2557600080fd5b818501915085601f830112612b3957600080fd5b813581811115612b4857600080fd5b86602060a083028501011115612b5d57600080fd5b60209290920196919550909350505050565b60008060008060008060808789031215612b8857600080fd5b86356001600160401b0380821115612b9f57600080fd5b612bab8a838b0161250a565b909850965060208901359150612bc08261267b565b909450604088013590612bd28261267b565b90935060608801359080821115612be857600080fd5b50612bf589828a0161250a565b979a9699509497509295939492505050565b6001600160a01b0383168152604060208201819052600090610a3d90830184612887565b828152604060208201526000610a3d6040830184612887565b600060208284031215612c5657600080fd5b8151610902816124d7565b634e487b7160e01b600052603260045260246000fd5b803560038110612c8657600080fd5b919050565b600060608284031215612c9d57600080fd5b604051606081018181106001600160401b0382111715612cbf57612cbf612593565b604052612ccb83612c77565b81526020830135612cdb8161267b565b60208201526040928301359281019290925250919050565b634e487b7160e01b600052602160045260246000fd5b6020808252602c908201527f46756e6374696f6e206d7573742062652063616c6c6564207468726f7567682060408201526b19195b1959d85d1958d85b1b60a21b606082015260800190565b6020808252602c908201527f46756e6374696f6e206d7573742062652063616c6c6564207468726f7567682060408201526b6163746976652070726f787960a01b606082015260800190565b6020808252602e908201527f496e697469616c697a61626c653a20636f6e747261637420697320616c72656160408201526d191e481a5b9a5d1a585b1a5e995960921b606082015260800190565b803560ff81168114612c8657600080fd5b600060208284031215612e1257600080fd5b61090282612def565b60608101818360005b60038110156127ad5760ff612e3883612def565b1683526020928301929190910190600101612e24565b600181811c90821680612e6257607f821691505b602082108103612e8257634e487b7160e01b600052602260045260246000fd5b50919050565b81835281816020850137506000828201602090810191909152601f909101601f19169091010190565b838152604060208201526000610a3a604083018486612e88565b60008235605e19833603018112612ee157600080fd5b9190910192915050565b6000808335601e19843603018112612f0257600080fd5b8301803591506001600160401b03821115612f1c57600080fd5b60200191503681900382131561254b57600080fd5b8183823760009101908152919050565b600082612f5e57634e487b7160e01b600052601260045260246000fd5b500490565b600060a08201888352602060a0818501528188835260c08501905060c08960051b86010192508960005b8a8110156130425786850360bf190183528135368d9003605e19018112612fb357600080fd5b8c0160608135612fc28161267b565b6001600160a01b03168752818601358688015260408083013536849003601e19018112612fee57600080fd5b9092018681019290356001600160401b0381111561300b57600080fd5b80360384131561301a57600080fd5b82828a015261302c838a018286612e88565b9850505093850193505090830190600101612f8d565b50505050856040840152846060840152828103608084015261306481856129f0565b9998505050505050505050565b600060a0828403121561308357600080fd5b60405160a081018181106001600160401b03821117156130a5576130a5612593565b6040526130b183612c77565b815260208301356130c18161267b565b602082015260408301356130d48161267b565b604082015260608301356130e78161267b565b60608201526080928301359281019290925250919050565b601f82111561086d57600081815260208120601f850160051c810160208610156131265750805b601f850160051c820191505b8181101561314557828155600101613132565b505050505050565b6001600160401b0383111561316457613164612593565b613178836131728354612e4e565b836130ff565b6000601f8411600181146131ac57600085156131945750838201355b600019600387901b1c1916600186901b1783556109f3565b600083815260209020601f19861690835b828110156131dd57868501358255602094850194600190920191016131bd565b50868210156131fa5760001960f88860031b161c19848701351681555b505060018560011b0183555050505050565b602081526000610a3d602083018486612e88565b6001600160a01b038581168252841660208201526040810183905260806060820181905260009061233690830184612887565b60006020828403121561326557600080fd5b8151801515811461090257600080fd5b60006020828403121561328757600080fd5b5051919050565b60008251612ee181846020870161286356fe4707e94b25cfce1a7c363508fbb838c35864388ad77284b248282b9746982b9b360894a13ba1a3210667c828492db98dca3e2076cc3735a920a3ca505d382bbc416464726573733a206c6f772d6c6576656c2064656c65676174652063616c6c206661696c6564815fe80e4b37c8582a3b773d1d7071f983eacfd56b5965db654f3087c25ada33a26469706673582212201599c659b6804dca2fd630a1d57b182090db1e2d97fcc9ed18c1e94014c355a664736f6c63430008110033"
}