{
  "address": "0xc715336B5E7F10294F36CA09f19A0493070E2eFB",
  "abi": [
    {
      "inputs": [
        {
          "internalType": "contract DAORegistry",
          "name": "_registry",
          "type": "address"
        },
        {
          "internalType": "contract PluginSetupProcessor",
          "name": "_pluginSetupProcessor",
          "type": "address"
        }
      ],
      "stateMutability": "nonpayable",
      "type": "constructor"
    },
    {
      "inputs": [],
      "name": "NoPluginProvided",
      "type": "error"
    },
    {
      "inputs": [
        {
          "components": [
            {
              "internalType": "address",
              "name": "trustedForwarder",
              "type": "address"
            },
            {
              "internalType": "string",
              "name": "daoURI",
              "type": "string"
            },
            {
              "internalType": "string",
              "name": "subdomain",
              "type": "string"
            },
            {
              "internalType": "bytes",
              "name": "metadata",
              "type": "bytes"
            }
          ],
          "internalType": "struct DAOFactory.DAOSettings",
          "name": "_daoSettings",
          "type": "tuple"
        },
        {
          "components": [
            {
              "components": [
                {
                  "components": [
                    {
                      "internalType": "uint8",
                      "name": "release",
                      "type": "uint8"
                    },
                    {
                      "internalType": "uint16",
                      "name": "build",
                      "type": "uint16"
                    }
                  ],
                  "internalType": "struct PluginRepo.Tag",
                  "name": "versionTag",
                  "type": "tuple"
                },
                {
                  "internalType": "contract PluginRepo",
                  "name": "pluginSetupRepo",
                  "type": "address"
                }
              ],
              "internalType": "struct PluginSetupRef",
              "name": "pluginSetupRef",
              "type": "tuple"
            },
            {
              "internalType": "bytes",
              "name": "data",
              "type": "bytes"
            }
          ],
          "internalType": "struct DAOFactory.PluginSettings[]",
          "name": "_pluginSettings",
          "type": "tuple[]"
        }
      ],
      "name": "createDao",
      "outputs": [
        {
          "internalType": "contract DAO",
          "name": "createdDao",
          "type": "address"
        }
      ],
      "stateMutability": "nonpayable",
      "type": "function"
    },
    {
      "inputs": [],
      "name": "daoBase",
      "outputs": [
        {
          "internalType": "address",
          "name": "",
          "type": "address"
        }
      ],
      "stateMutability": "view",
      "type": "function"
    },
    {
      "inputs": [],
      "name": "daoRegistry",
      "outputs": [
        {
          "internalType": "contract DAORegistry",
          "name": "",
          "type": "address"
        }
      ],
      "stateMutability": "view",
      "type": "function"
    },
    {
      "inputs": [],
      "name": "pluginSetupProcessor",
      "outputs": [
        {
          "internalType": "contract PluginSetupProcessor",
          "name": "",
          "type": "address"
        }
      ],
      "stateMutability": "view",
      "type": "function"
    },
    {
      "inputs": [],
      "name": "protocolVersion",
      "outputs": [
        {
          "internalType": "uint8[3]",
          "name": "",
          "type": "uint8[3]"
        }
      ],
      "stateMutability": "pure",
      "type": "function"
    },
    {
      "inputs": [
        {
          "internalType": "bytes4",
          "name": "_interfaceId",
          "type": "bytes4"
        }
      ],
      "name": "supportsInterface",
      "outputs": [
        {
          "internalType": "bool",
          "name": "",
          "type": "bool"
        }
      ],
      "stateMutability": "view",
      "type": "function"
    }
  ],
  "numDeployments": 1,
  "bytecode": "0x60e06040523480156200001157600080fd5b5060405162006a9338038062006a938339810160408190526200003491620000af565b6001600160a01b0380831660a052811660c052604051620000559062000088565b604051809103906000f08015801562000072573d6000803e3d6000fd5b506001600160a01b031660805250620000ee9050565b61453d806200255683390190565b6001600160a01b0381168114620000ac57600080fd5b50565b60008060408385031215620000c357600080fd5b8251620000d08162000096565b6020840151909250620000e38162000096565b809150509250929050565b60805160a05160c0516123fa6200015c60003960008181610119015281816103a50152818161047c01528181610525015281816105ab0152818161074a015281816108c4015261096b01526000818160b201526102a00152600081816101580152610a8001526123fa6000f3fe60806040523480156200001157600080fd5b50600436106200007b5760003560e01c8063a9445d9b1162000056578063a9445d9b1462000113578063b5568838146200013b578063d9f8bd23146200015257600080fd5b806301ffc9a714620000805780632a2b6ba014620000ac5780632ae9c60014620000fa575b600080fd5b620000976200009136600462001192565b6200017a565b60405190151581526020015b60405180910390f35b620000d47f000000000000000000000000000000000000000000000000000000000000000081565b60405173ffffffffffffffffffffffffffffffffffffffff9091168152602001620000a3565b6200010462000214565b604051620000a39190620011dd565b620000d47f000000000000000000000000000000000000000000000000000000000000000081565b620000d46200014c36600462001213565b62000240565b620000d47f000000000000000000000000000000000000000000000000000000000000000081565b60007fffffffff0000000000000000000000000000000000000000000000000000000082167f2ae9c6000000000000000000000000000000000000000000000000000000000014806200020e57507f01ffc9a7000000000000000000000000000000000000000000000000000000007fffffffff000000000000000000000000000000000000000000000000000000008316145b92915050565b6200021e62001166565b5060408051606081018252600181526003602082015260009181019190915290565b60008181036200027c576040517f8aec24df00000000000000000000000000000000000000000000000000000000815260040160405180910390fd5b620002878462000a78565b905073ffffffffffffffffffffffffffffffffffffffff7f00000000000000000000000000000000000000000000000000000000000000001663ede497398233620002d66040890189620012bc565b6040518563ffffffff1660e01b8152600401620002f7949392919062001374565b600060405180830381600087803b1580156200031257600080fd5b505af115801562000327573d6000803e3d6000fd5b5050505060008173ffffffffffffffffffffffffffffffffffffffff166309e56b146040518163ffffffff1660e01b8152600401602060405180830381865afa15801562000379573d6000803e3d6000fd5b505050506040513d601f19601f820116820180604052508101906200039f9190620013ba565b905060007f000000000000000000000000000000000000000000000000000000000000000073ffffffffffffffffffffffffffffffffffffffff1663747e5ec16040518163ffffffff1660e01b8152600401602060405180830381865afa1580156200040f573d6000803e3d6000fd5b505050506040513d601f19601f82011682018060405250810190620004359190620013ba565b6040517fd68bad2c00000000000000000000000000000000000000000000000000000000815273ffffffffffffffffffffffffffffffffffffffff858116600483018190527f000000000000000000000000000000000000000000000000000000000000000090911660248301526044820185905291925063d68bad2c90606401600060405180830381600087803b158015620004d157600080fd5b505af1158015620004e6573d6000803e3d6000fd5b50506040517fd68bad2c00000000000000000000000000000000000000000000000000000000815273ffffffffffffffffffffffffffffffffffffffff7f000000000000000000000000000000000000000000000000000000000000000081166004830152306024830152604482018590528616925063d68bad2c9150606401600060405180830381600087803b1580156200058157600080fd5b505af115801562000596573d6000803e3d6000fd5b5050505060005b8481101562000871576000807f000000000000000000000000000000000000000000000000000000000000000073ffffffffffffffffffffffffffffffffffffffff16633c8c01d18760405180604001604052808c8c89818110620006065762000606620013d4565b90506020028101906200061a919062001403565b6200062c90368190038101906200153b565b81526020018c8c89818110620006465762000646620013d4565b90506020028101906200065a919062001403565b6200066a906060810190620012bc565b8080601f01602080910402602001604051908101604052809392919081815260200183838082843760009201919091525050509152506040517fffffffff0000000000000000000000000000000000000000000000000000000060e085901b168152620006dc9291906004016200162c565b6000604051808303816000875af1158015620006fc573d6000803e3d6000fd5b505050506040513d6000823e601f3d9081017fffffffffffffffffffffffffffffffffffffffffffffffffffffffffffffffe0168201604052620007449190810190620017c2565b915091507f000000000000000000000000000000000000000000000000000000000000000073ffffffffffffffffffffffffffffffffffffffff1663fe6c34748760405180608001604052808c8c89818110620007a557620007a5620013d4565b9050602002810190620007b9919062001403565b620007cb90368190038101906200153b565b81526020018673ffffffffffffffffffffffffffffffffffffffff1681526020018560200151815260200162000805866000015162000b5d565b8152506040518363ffffffff1660e01b81526004016200082792919062001915565b600060405180830381600087803b1580156200084257600080fd5b505af115801562000857573d6000803e3d6000fd5b50505050505080620008699062001a1f565b90506200059d565b506200087d8362000b8f565b6040517fd96054c400000000000000000000000000000000000000000000000000000000815273ffffffffffffffffffffffffffffffffffffffff848116600483018190527f00000000000000000000000000000000000000000000000000000000000000009091166024830152604482018490529063d96054c490606401600060405180830381600087803b1580156200091757600080fd5b505af11580156200092c573d6000803e3d6000fd5b50506040517fd96054c400000000000000000000000000000000000000000000000000000000815273ffffffffffffffffffffffffffffffffffffffff7f000000000000000000000000000000000000000000000000000000000000000081166004830152306024830152604482018590528616925063d96054c49150606401600060405180830381600087803b158015620009c757600080fd5b505af1158015620009dc573d6000803e3d6000fd5b50506040517fd96054c400000000000000000000000000000000000000000000000000000000815273ffffffffffffffffffffffffffffffffffffffff86166004820181905230602483015260448201869052925063d96054c49150606401600060405180830381600087803b15801562000a5657600080fd5b505af115801562000a6b573d6000803e3d6000fd5b5050505050509392505050565b600062000ab57f00000000000000000000000000000000000000000000000000000000000000006040518060200160405280600081525062001122565b905073ffffffffffffffffffffffffffffffffffffffff811663eafb8b0662000ae26060850185620012bc565b3062000af2602088018862001a7f565b62000b016020890189620012bc565b6040518763ffffffff1660e01b815260040162000b249695949392919062001a9f565b600060405180830381600087803b15801562000b3f57600080fd5b505af115801562000b54573d6000803e3d6000fd5b50505050919050565b60008160405160200162000b72919062001afb565b604051602081830303815290604052805190602001209050919050565b60408051600680825260e08201909252600091816020015b60408051606081018252600080825260208083018290529282015282527fffffffffffffffffffffffffffffffffffffffffffffffffffffffffffffffff90920191018162000ba757905050604080516060810190915290915080600081526020018373ffffffffffffffffffffffffffffffffffffffff1681526020018373ffffffffffffffffffffffffffffffffffffffff166309e56b146040518163ffffffff1660e01b8152600401602060405180830381865afa15801562000c71573d6000803e3d6000fd5b505050506040513d601f19601f8201168201806040525081019062000c979190620013ba565b8152508160008151811062000cb05762000cb0620013d4565b6020908102919091010152604080516060810190915280600081526020018373ffffffffffffffffffffffffffffffffffffffff1681526020018373ffffffffffffffffffffffffffffffffffffffff166324b4d73f6040518163ffffffff1660e01b8152600401602060405180830381865afa15801562000d36573d6000803e3d6000fd5b505050506040513d601f19601f8201168201806040525081019062000d5c9190620013ba565b8152508160018151811062000d755762000d75620013d4565b6020908102919091010152604080516060810190915280600081526020018373ffffffffffffffffffffffffffffffffffffffff1681526020018373ffffffffffffffffffffffffffffffffffffffff1663e2e355636040518163ffffffff1660e01b8152600401602060405180830381865afa15801562000dfb573d6000803e3d6000fd5b505050506040513d601f19601f8201168201806040525081019062000e219190620013ba565b8152508160028151811062000e3a5762000e3a620013d4565b6020908102919091010152604080516060810190915280600081526020018373ffffffffffffffffffffffffffffffffffffffff1681526020018373ffffffffffffffffffffffffffffffffffffffff1663829331a16040518163ffffffff1660e01b8152600401602060405180830381865afa15801562000ec0573d6000803e3d6000fd5b505050506040513d601f19601f8201168201806040525081019062000ee69190620013ba565b8152508160038151811062000eff5762000eff620013d4565b6020908102919091010152604080516060810190915280600081526020018373ffffffffffffffffffffffffffffffffffffffff1681526020018373ffffffffffffffffffffffffffffffffffffffff1663e306bee76040518163ffffffff1660e01b8152600401602060405180830381865afa15801562000f85573d6000803e3d6000fd5b505050506040513d601f19601f8201168201806040525081019062000fab9190620013ba565b8152508160048151811062000fc45762000fc4620013d4565b6020908102919091010152604080516060810190915280600081526020018373ffffffffffffffffffffffffffffffffffffffff1681526020018373ffffffffffffffffffffffffffffffffffffffff166326875b1f6040518163ffffffff1660e01b8152600401602060405180830381865afa1580156200104a573d6000803e3d6000fd5b505050506040513d601f19601f82011682018060405250810190620010709190620013ba565b81525081600581518110620010895762001089620013d4565b60209081029190910101526040517f22844d0400000000000000000000000000000000000000000000000000000000815273ffffffffffffffffffffffffffffffffffffffff8316906322844d0490620010ea908590859060040162001b57565b600060405180830381600087803b1580156200110557600080fd5b505af11580156200111a573d6000803e3d6000fd5b505050505050565b60008282604051620011349062001184565b6200114192919062001bde565b604051809103906000f0801580156200115e573d6000803e3d6000fd5b509392505050565b60405180606001604052806003906020820280368337509192915050565b6107ad8062001c1883390190565b600060208284031215620011a557600080fd5b81357fffffffff0000000000000000000000000000000000000000000000000000000081168114620011d657600080fd5b9392505050565b60608101818360005b60038110156200120a57815160ff16835260209283019290910190600101620011e6565b50505092915050565b6000806000604084860312156200122957600080fd5b833567ffffffffffffffff808211156200124257600080fd5b90850190608082880312156200125757600080fd5b909350602085013590808211156200126e57600080fd5b818601915086601f8301126200128357600080fd5b8135818111156200129357600080fd5b8760208260051b8501011115620012a957600080fd5b6020830194508093505050509250925092565b60008083357fffffffffffffffffffffffffffffffffffffffffffffffffffffffffffffffe1843603018112620012f257600080fd5b83018035915067ffffffffffffffff8211156200130e57600080fd5b6020019150368190038213156200132457600080fd5b9250929050565b8183528181602085013750600060208284010152600060207fffffffffffffffffffffffffffffffffffffffffffffffffffffffffffffffe0601f840116840101905092915050565b600073ffffffffffffffffffffffffffffffffffffffff808716835280861660208401525060606040830152620013b06060830184866200132b565b9695505050505050565b600060208284031215620013cd57600080fd5b5051919050565b7f4e487b7100000000000000000000000000000000000000000000000000000000600052603260045260246000fd5b600082357fffffffffffffffffffffffffffffffffffffffffffffffffffffffffffffff818336030181126200143857600080fd5b9190910192915050565b7f4e487b7100000000000000000000000000000000000000000000000000000000600052604160045260246000fd5b6040805190810167ffffffffffffffff8111828210171562001497576200149762001442565b60405290565b60405160a0810167ffffffffffffffff8111828210171562001497576200149762001442565b604051601f82017fffffffffffffffffffffffffffffffffffffffffffffffffffffffffffffffe016810167ffffffffffffffff811182821017156200150d576200150d62001442565b604052919050565b73ffffffffffffffffffffffffffffffffffffffff811681146200153857600080fd5b50565b600081830360608112156200154f57600080fd5b6200155962001471565b60408212156200156857600080fd5b6200157262001471565b9150833560ff811681146200158657600080fd5b8252602084013561ffff811681146200159e57600080fd5b6020830152908152604083013590620015b78262001515565b60208101919091529392505050565b6000815180845260005b81811015620015ee57602081850181015186830182015201620015d0565b5060006020828601015260207fffffffffffffffffffffffffffffffffffffffffffffffffffffffffffffffe0601f83011685010191505092915050565b73ffffffffffffffffffffffffffffffffffffffff83168152604060208201526200168d6040820183518051805160ff16835260209081015161ffff1681840152015173ffffffffffffffffffffffffffffffffffffffff16604090910152565b60006020830151608060a0840152620016aa60c0840182620015c6565b95945050505050565b600067ffffffffffffffff821115620016d057620016d062001442565b5060051b60200190565b600082601f830112620016ec57600080fd5b8151602062001705620016ff83620016b3565b620014c3565b82815260a092830285018201928282019190878511156200172557600080fd5b8387015b85811015620017b55781818a031215620017435760008081fd5b6200174d6200149d565b8151600381106200175e5760008081fd5b8152818601516200176f8162001515565b81870152604082810151620017848162001515565b90820152606082810151620017998162001515565b9082015260808281015190820152845292840192810162001729565b5090979650505050505050565b60008060408385031215620017d657600080fd5b8251620017e38162001515565b8092505060208084015167ffffffffffffffff808211156200180457600080fd5b90850190604082880312156200181957600080fd5b6200182362001471565b8251828111156200183357600080fd5b8301601f810189136200184557600080fd5b805162001856620016ff82620016b3565b81815260059190911b8201860190868101908b8311156200187657600080fd5b928701925b82841015620018a1578351620018918162001515565b825292870192908701906200187b565b84525050508284015182811115620018b857600080fd5b620018c689828601620016da565b8583015250809450505050509250929050565b6003811062001911577f4e487b7100000000000000000000000000000000000000000000000000000000600052602160045260246000fd5b9052565b6000604073ffffffffffffffffffffffffffffffffffffffff80861684526020828186015261010085016200197f84870188518051805160ff16835260209081015161ffff1681840152015173ffffffffffffffffffffffffffffffffffffffff16604090910152565b86820151831660a0878101919091528488015160c080890152805192839052830191600091906101208901905b8084101562001a03578451620019c4838251620018d9565b808701518816838801528881015188168984015260608082015189169084015260809081015190830152938501936001939093019290820190620019ac565b5060608a015160e08a0152809750505050505050509392505050565b60007fffffffffffffffffffffffffffffffffffffffffffffffffffffffffffffffff820362001a78577f4e487b7100000000000000000000000000000000000000000000000000000000600052601160045260246000fd5b5060010190565b60006020828403121562001a9257600080fd5b8135620011d68162001515565b60808152600062001ab560808301888a6200132b565b73ffffffffffffffffffffffffffffffffffffffff878116602085015286166040840152828103606084015262001aee8185876200132b565b9998505050505050505050565b6020808252825182820181905260009190848201906040850190845b8181101562001b4b57835173ffffffffffffffffffffffffffffffffffffffff168352928401929184019160010162001b17565b50909695505050505050565b6000604080830173ffffffffffffffffffffffffffffffffffffffff80871685526020838187015282875180855260609450848801915082890160005b8281101562001bce57815162001bac858251620018d9565b8086015187168587015288015188850152928601929084019060010162001b94565b50919a9950505050505050505050565b73ffffffffffffffffffffffffffffffffffffffff8316815260406020820152600062001c0f6040830184620015c6565b94935050505056fe60806040526040516107ad3803806107ad83398101604081905261002291610319565b61002e82826000610035565b5050610436565b61003e8361006b565b60008251118061004b5750805b156100665761006483836100ab60201b6100291760201c565b505b505050565b610074816100d7565b6040516001600160a01b038216907fbc7cd75a20ee27fd9adebab32041f755214dbc6bffa90cc0225b39da2e5c2d3b90600090a250565b60606100d08383604051806060016040528060278152602001610786602791396101a9565b9392505050565b6100ea8161022260201b6100551760201c565b6101515760405162461bcd60e51b815260206004820152602d60248201527f455243313936373a206e657720696d706c656d656e746174696f6e206973206e60448201526c1bdd08184818dbdb9d1c9858dd609a1b60648201526084015b60405180910390fd5b806101887f360894a13ba1a3210667c828492db98dca3e2076cc3735a920a3ca505d382bbc60001b61023160201b6100711760201c565b80546001600160a01b0319166001600160a01b039290921691909117905550565b6060600080856001600160a01b0316856040516101c691906103e7565b600060405180830381855af49150503d8060008114610201576040519150601f19603f3d011682016040523d82523d6000602084013e610206565b606091505b50909250905061021886838387610234565b9695505050505050565b6001600160a01b03163b151590565b90565b606083156102a357825160000361029c576001600160a01b0385163b61029c5760405162461bcd60e51b815260206004820152601d60248201527f416464726573733a2063616c6c20746f206e6f6e2d636f6e74726163740000006044820152606401610148565b50816102ad565b6102ad83836102b5565b949350505050565b8151156102c55781518083602001fd5b8060405162461bcd60e51b81526004016101489190610403565b634e487b7160e01b600052604160045260246000fd5b60005b838110156103105781810151838201526020016102f8565b50506000910152565b6000806040838503121561032c57600080fd5b82516001600160a01b038116811461034357600080fd5b60208401519092506001600160401b038082111561036057600080fd5b818501915085601f83011261037457600080fd5b815181811115610386576103866102df565b604051601f8201601f19908116603f011681019083821181831017156103ae576103ae6102df565b816040528281528860208487010111156103c757600080fd5b6103d88360208301602088016102f5565b80955050505050509250929050565b600082516103f98184602087016102f5565b9190910192915050565b60208152600082518060208401526104228160408501602087016102f5565b601f01601f19169190910160400192915050565b610341806104456000396000f3fe60806040523661001357610011610017565b005b6100115b610027610022610074565b6100b9565b565b606061004e83836040518060600160405280602781526020016102e5602791396100dd565b9392505050565b73ffffffffffffffffffffffffffffffffffffffff163b151590565b90565b60006100b47f360894a13ba1a3210667c828492db98dca3e2076cc3735a920a3ca505d382bbc5473ffffffffffffffffffffffffffffffffffffffff1690565b905090565b3660008037600080366000845af43d6000803e8080156100d8573d6000f35b3d6000fd5b60606000808573ffffffffffffffffffffffffffffffffffffffff16856040516101079190610277565b600060405180830381855af49150503d8060008114610142576040519150601f19603f3d011682016040523d82523d6000602084013e610147565b606091505b509150915061015886838387610162565b9695505050505050565b606083156101fd5782516000036101f65773ffffffffffffffffffffffffffffffffffffffff85163b6101f6576040517f08c379a000000000000000000000000000000000000000000000000000000000815260206004820152601d60248201527f416464726573733a2063616c6c20746f206e6f6e2d636f6e747261637400000060448201526064015b60405180910390fd5b5081610207565b610207838361020f565b949350505050565b81511561021f5781518083602001fd5b806040517f08c379a00000000000000000000000000000000000000000000000000000000081526004016101ed9190610293565b60005b8381101561026e578181015183820152602001610256565b50506000910152565b60008251610289818460208701610253565b9190910192915050565b60208152600082518060208401526102b2816040850160208701610253565b601f017fffffffffffffffffffffffffffffffffffffffffffffffffffffffffffffffe016919091016040019291505056fe416464726573733a206c6f772d6c6576656c2064656c65676174652063616c6c206661696c6564a26469706673582212204620451c9055005597d3f3df4a1a9242194551838ce5e440ecc1fd3deaab1c4364736f6c63430008110033416464726573733a206c6f772d6c6576656c2064656c65676174652063616c6c206661696c6564a2646970667358221220c0fcc566a99db4efe89625fa88c0c58c22bf6db2b89f260ea2ac4ced9d4f41d464736f6c6343000811003360a0604052306080523480156200001557600080fd5b506200002062000026565b620000e7565b600054610100900460ff1615620000935760405162461bcd60e51b815260206004820152602760248201527f496e697469616c697a61626c653a20636f6e747261637420697320696e697469604482015266616c697a696e6760c81b606482015260840160405180910390fd5b60005460ff90811614620000e5576000805460ff191660ff9081179091556040519081527f7f26b83ff96e1f2b6a682f133852f6798a09c465da95921460cefb38474024989060200160405180910390a15b565b60805161441e6200011f60003960008181610c4a01528181610cfa015281816110cd0152818161117d01526112c6015261441e6000f3fe6080604052600436106101e75760003560e01c80637034731b11610102578063d96054c411610095578063e978afe511610064578063e978afe514610779578063eafb8b0614610799578063ee57e36f146107b9578063fdef9106146107d957610226565b8063d96054c4146106d1578063da742228146106f1578063e2e3556314610711578063e306bee71461074557610226565b8063c71bf324116100d1578063c71bf32414610637578063c9dbc2a414610665578063ce1b815f14610685578063d68bad2c146106b157610226565b80637034731b146105ae578063829331a1146105d0578063bfe07da614610604578063c4a501451461061757610226565b806326875b1f1161017a5780633e2ab0d9116101495780633e2ab0d91461054657806342d8e99e146105665780634f1ef2861461058657806352d1902d1461059957610226565b806326875b1f1461047d5780632ae9c600146104b15780633659cfe6146104d3578063388da934146104f357610226565b80631626ba7e116101b65780631626ba7e146103b857806322844d041461040957806324b4d73f146104295780632675fdd01461045d57610226565b806301ffc9a7146102eb5780630729d0541461032057806309e56b14146103625780631080f99b1461039657610226565b3661022657604080513381523460208201527f62c2c8e34665db7c56b2cabd7f5fb9702ccd352ffa8150147e450797e9f8e8f3910160405180910390a1005b34801561023257600080fd5b506000366060600061029e6000357fffffffff000000000000000000000000000000000000000000000000000000001685858080601f0160208091040260200160405190810160405280939291908181526020018383808284376000920191909152506107f992505050565b604080517fffffffff000000000000000000000000000000000000000000000000000000008316602082015291925001604051602081830303815290604052915050915050805190602001f35b3480156102f757600080fd5b5061030b6103063660046134ea565b610900565b60405190151581526020015b60405180910390f35b34801561032c57600080fd5b506103547fbf04b4486c9663d805744005c3da000eda93de6e3308a4a7a812eb565327b78d81565b604051908152602001610317565b34801561036e57600080fd5b506103547f815fe80e4b37c8582a3b773d1d7071f983eacfd56b5965db654f3087c25ada3381565b3480156103a257600080fd5b506103b66103b1366004613550565b610985565b005b3480156103c457600080fd5b506103d86103d336600461366c565b6109be565b6040517fffffffff000000000000000000000000000000000000000000000000000000009091168152602001610317565b34801561041557600080fd5b506103b66104243660046136d5565b610a88565b34801561043557600080fd5b506103547f1f53edd44352e5d15bad2b29233baa93bcd595e09457780bc7c5445bbbe751cc81565b34801561046957600080fd5b5061030b61047836600461375d565b610ba4565b34801561048957600080fd5b506103547ffaf505be9907aa6951c2ebe5b0312f4980e14f21912ed355372103cc8bd683bc81565b3480156104bd57600080fd5b506104c6610c09565b60405161031791906137c9565b3480156104df57600080fd5b506103b66104ee3660046137fd565b610c33565b3480156104ff57600080fd5b5061012d546105219073ffffffffffffffffffffffffffffffffffffffff1681565b60405173ffffffffffffffffffffffffffffffffffffffff9091168152602001610317565b34801561055257600080fd5b506103b66105613660046137fd565b610e38565b34801561057257600080fd5b506103b661058136600461381a565b610ede565b6103b6610594366004613872565b6110b6565b3480156105a557600080fd5b506103546112ac565b3480156105ba57600080fd5b506105c3611398565b604051610317919061391a565b3480156105dc57600080fd5b506103547f06d294bc8cbad2e393408b20dd019a772661f60b8d633e56761157cb1ec85f8c81565b6103b661061236600461392d565b61142b565b34801561062357600080fd5b506103b6610632366004613989565b611599565b34801561064357600080fd5b506106576106523660046139d4565b61168e565b604051610317929190613aae565b34801561067157600080fd5b506103b6610680366004613ad0565b6119ce565b34801561069157600080fd5b5061012e5473ffffffffffffffffffffffffffffffffffffffff16610521565b3480156106bd57600080fd5b506103b66106cc366004613b23565b611a04565b3480156106dd57600080fd5b506103b66106ec366004613b23565b611a3f565b3480156106fd57600080fd5b506103b661070c3660046137fd565b611a74565b34801561071d57600080fd5b506103547f0dcbfb19b09fb8ff4e9af583d4b8e9c8127cc1b26529b4d96dd3b7e77808837281565b34801561075157600080fd5b506103547f4707e94b25cfce1a7c363508fbb838c35864388ad77284b248282b9746982b9b81565b34801561078557600080fd5b506103b6610794366004613b64565b611aa7565b3480156107a557600080fd5b506103b66107b4366004613bd9565b611bae565b3480156107c557600080fd5b506103b66107d4366004613550565b611dcc565b3480156107e557600080fd5b5061030b6107f436600461375d565b611e00565b7fffffffff00000000000000000000000000000000000000000000000000000000808316600090815260fb6020526040812054909160e09190911b90811661089e576040517f54bdcc3e0000000000000000000000000000000000000000000000000000000081527fffffffff000000000000000000000000000000000000000000000000000000008086166004830152821660248201526044015b60405180910390fd5b837bffffffffffffffffffffffffffffffffffffffffffffffffffffffff19167f4792cb6e46e49876374bea490ba23274bacea6b84c216a64f47abab54027589b33856040516108ef929190613c72565b60405180910390a290505b92915050565b60007f01ffc9a7000000000000000000000000000000000000000000000000000000007fffffffff00000000000000000000000000000000000000000000000000000000831614806108fa5750507fffffffff000000000000000000000000000000000000000000000000000000001660009081526033602052604090205460ff1690565b7f4707e94b25cfce1a7c363508fbb838c35864388ad77284b248282b9746982b9b6109af81611e0e565b6109b98383611e96565b505050565b61012d5460009073ffffffffffffffffffffffffffffffffffffffff166109e7575060006108fa565b61012d546040517f1626ba7e00000000000000000000000000000000000000000000000000000000815273ffffffffffffffffffffffffffffffffffffffff90911690631626ba7e90610a409086908690600401613ca1565b602060405180830381865afa158015610a5d573d6000803e3d6000fd5b505050506040513d601f19601f82011682018060405250810190610a819190613cba565b9392505050565b7f815fe80e4b37c8582a3b773d1d7071f983eacfd56b5965db654f3087c25ada33610ab281611e0e565b60005b82811015610b9d576000848483818110610ad157610ad1613cd7565b905060600201803603810190610ae79190613d1a565b9050600081516002811115610afe57610afe613d83565b03610b1b57610b168682602001518360400151611ed6565b610b94565b600181516002811115610b3057610b30613d83565b03610b4857610b168682602001518360400151612094565b600281516002811115610b5d57610b5d613d83565b03610b94576040517fd4d3bef700000000000000000000000000000000000000000000000000000000815260040160405180910390fd5b50600101610ab5565b5050505050565b6000610bb2858585856121d3565b80610bd85750610bd88573ffffffffffffffffffffffffffffffffffffffff85856121d3565b80610bfe5750610bfe73ffffffffffffffffffffffffffffffffffffffff8585856121d3565b90505b949350505050565b610c1161349e565b5060408051606081018252600181526003602082015260009181019190915290565b73ffffffffffffffffffffffffffffffffffffffff7f0000000000000000000000000000000000000000000000000000000000000000163003610cf8576040517f08c379a000000000000000000000000000000000000000000000000000000000815260206004820152602c60248201527f46756e6374696f6e206d7573742062652063616c6c6564207468726f7567682060448201527f64656c656761746563616c6c00000000000000000000000000000000000000006064820152608401610895565b7f000000000000000000000000000000000000000000000000000000000000000073ffffffffffffffffffffffffffffffffffffffff16610d6d7f360894a13ba1a3210667c828492db98dca3e2076cc3735a920a3ca505d382bbc5473ffffffffffffffffffffffffffffffffffffffff1690565b73ffffffffffffffffffffffffffffffffffffffff1614610e10576040517f08c379a000000000000000000000000000000000000000000000000000000000815260206004820152602c60248201527f46756e6374696f6e206d7573742062652063616c6c6564207468726f7567682060448201527f6163746976652070726f787900000000000000000000000000000000000000006064820152608401610895565b610e19816123bd565b60408051600080825260208201909252610e35918391906123e7565b50565b7f0dcbfb19b09fb8ff4e9af583d4b8e9c8127cc1b26529b4d96dd3b7e778088372610e6281611e0e565b61012d80547fffffffffffffffffffffffff00000000000000000000000000000000000000001673ffffffffffffffffffffffffffffffffffffffff84169081179091556040519081527f3b25c5d3870ec0eac28822b177f18c9130233ade5b7f857c6a224a507c37fc4e906020015b60405180910390a15050565b600054600290610100900460ff16158015610f00575060005460ff8083169116105b610f8c576040517f08c379a000000000000000000000000000000000000000000000000000000000815260206004820152602e60248201527f496e697469616c697a61626c653a20636f6e747261637420697320616c72656160448201527f647920696e697469616c697a65640000000000000000000000000000000000006064820152608401610895565b600080547fffffffffffffffffffffffffffffffffffffffffffffffffffffffffffff00001660ff831617610100179055610fca6020850185613dc3565b60ff1660011461100857836040517f84833d670000000000000000000000000000000000000000000000000000000081526004016108959190613dde565b600261101a6040860160208701613dc3565b60ff1611611051576001610130556110517f2ae9c600000000000000000000000000000000000000000000000000000000006125e6565b600080547fffffffffffffffffffffffffffffffffffffffffffffffffffffffffffff00ff16905560405160ff821681527f7f26b83ff96e1f2b6a682f133852f6798a09c465da95921460cefb3847402498906020015b60405180910390a150505050565b73ffffffffffffffffffffffffffffffffffffffff7f000000000000000000000000000000000000000000000000000000000000000016300361117b576040517f08c379a000000000000000000000000000000000000000000000000000000000815260206004820152602c60248201527f46756e6374696f6e206d7573742062652063616c6c6564207468726f7567682060448201527f64656c656761746563616c6c00000000000000000000000000000000000000006064820152608401610895565b7f000000000000000000000000000000000000000000000000000000000000000073ffffffffffffffffffffffffffffffffffffffff166111f07f360894a13ba1a3210667c828492db98dca3e2076cc3735a920a3ca505d382bbc5473ffffffffffffffffffffffffffffffffffffffff1690565b73ffffffffffffffffffffffffffffffffffffffff1614611293576040517f08c379a000000000000000000000000000000000000000000000000000000000815260206004820152602c60248201527f46756e6374696f6e206d7573742062652063616c6c6564207468726f7567682060448201527f6163746976652070726f787900000000000000000000000000000000000000006064820152608401610895565b61129c826123bd565b6112a8828260016123e7565b5050565b60003073ffffffffffffffffffffffffffffffffffffffff7f00000000000000000000000000000000000000000000000000000000000000001614611373576040517f08c379a000000000000000000000000000000000000000000000000000000000815260206004820152603860248201527f555550535570677261646561626c653a206d757374206e6f742062652063616c60448201527f6c6564207468726f7567682064656c656761746563616c6c00000000000000006064820152608401610895565b507f360894a13ba1a3210667c828492db98dca3e2076cc3735a920a3ca505d382bbc90565b606061012f80546113a890613e11565b80601f01602080910402602001604051908101604052809291908181526020018280546113d490613e11565b80156114215780601f106113f657610100808354040283529160200191611421565b820191906000526020600020905b81548152906001019060200180831161140457829003601f168201915b5050505050905090565b82600003611465576040517f1f2a200500000000000000000000000000000000000000000000000000000000815260040160405180910390fd5b73ffffffffffffffffffffffffffffffffffffffff84166114c7578234146114c2576040517f1abd561000000000000000000000000000000000000000000000000000000000815260048101849052346024820152604401610895565b61152a565b3415611508576040517f1abd561000000000000000000000000000000000000000000000000000000000815260006004820152346024820152604401610895565b61152a73ffffffffffffffffffffffffffffffffffffffff85163330866126cd565b8373ffffffffffffffffffffffffffffffffffffffff163373ffffffffffffffffffffffffffffffffffffffff167f2bc500cf071be2d1c1458ed6ff484cd4db4345ada8943dee7ff29e7af3558f7685858560405161158b93929190613ead565b60405180910390a350505050565b7ffaf505be9907aa6951c2ebe5b0312f4980e14f21912ed355372103cc8bd683bc6115c381611e0e565b6115cc846125e6565b7fffffffff000000000000000000000000000000000000000000000000000000008316600090815260fb6020526040902080547fffffffffffffffffffffffffffffffffffffffffffffffffffffffff000000001660e084901c179055604080517fffffffff00000000000000000000000000000000000000000000000000000000808716825280861660208301528416918101919091527ffc72fd547553f7a663e0048e590afc9c47b56a4242e960f31cf4c62e23d308b9906060016110a8565b60606000600261013054036116cf576040517f37ed32e800000000000000000000000000000000000000000000000000000000815260040160405180910390fd5b6002610130557fbf04b4486c9663d805744005c3da000eda93de6e3308a4a7a812eb565327b78d6116ff81611e0e565b61010085111561173b576040517f11c763d600000000000000000000000000000000000000000000000000000000815260040160405180910390fd5b8467ffffffffffffffff81111561175457611754613592565b60405190808252806020026020018201604052801561178757816020015b60608152602001906001900390816117725790505b50925060008060005b87811015611961575a92506000808a8a848181106117b0576117b0613cd7565b90506020028101906117c29190613ec7565b6117d09060208101906137fd565b73ffffffffffffffffffffffffffffffffffffffff168b8b858181106117f8576117f8613cd7565b905060200281019061180a9190613ec7565b602001358c8c8681811061182057611820613cd7565b90506020028101906118329190613ec7565b611840906040810190613f05565b60405161184e929190613f6a565b60006040518083038185875af1925050503d806000811461188b576040519150601f19603f3d011682016040523d82523d6000602084013e611890565b606091505b50915091505a9350600160ff84161b89166118e457816118df576040517fa6a7dbbd00000000000000000000000000000000000000000000000000000000815260048101849052602401610895565b611939565b81611939576118f4604086613f7a565b84101561192d576040517f1c26714c00000000000000000000000000000000000000000000000000000000815260040160405180910390fd5b600160ff84161b871896505b8088848151811061194c5761194c613cd7565b60209081029190910101525050600101611790565b503373ffffffffffffffffffffffffffffffffffffffff167fd4e57c2049f004fb297ef78591cd409503ceb6b2c722d7ffed032fc99e5f3b588a8a8a8a898b6040516119b296959493929190613fb5565b60405180910390a2505060016101305550909590945092505050565b7f815fe80e4b37c8582a3b773d1d7071f983eacfd56b5965db654f3087c25ada336119f881611e0e565b610b9d85858585612762565b7f815fe80e4b37c8582a3b773d1d7071f983eacfd56b5965db654f3087c25ada33611a2e81611e0e565b611a39848484611ed6565b50505050565b7f815fe80e4b37c8582a3b773d1d7071f983eacfd56b5965db654f3087c25ada33611a6981611e0e565b611a39848484612094565b7f06d294bc8cbad2e393408b20dd019a772661f60b8d633e56761157cb1ec85f8c611a9e81611e0e565b6112a882612bcb565b7f815fe80e4b37c8582a3b773d1d7071f983eacfd56b5965db654f3087c25ada33611ad181611e0e565b60005b82811015611a39576000848483818110611af057611af0613cd7565b905060a00201803603810190611b06919061412a565b9050600081516002811115611b1d57611b1d613d83565b03611b3e57611b39816020015182604001518360800151611ed6565b611ba5565b600181516002811115611b5357611b53613d83565b03611b6f57611b39816020015182604001518360800151612094565b600281516002811115611b8457611b84613d83565b03611ba557611ba58160200151826040015183608001518460600151612762565b50600101611ad4565b600054600290610100900460ff16158015611bd0575060005460ff8083169116105b611c5c576040517f08c379a000000000000000000000000000000000000000000000000000000000815260206004820152602e60248201527f496e697469616c697a61626c653a20636f6e747261637420697320616c72656160448201527f647920696e697469616c697a65640000000000000000000000000000000000006064820152608401610895565b600080547fffffffffffffffffffffffffffffffffffffffffffffffffffffffffffff00001660ff831617610100179055600161013055611cbc7f9385547e000000000000000000000000000000000000000000000000000000006125e6565b611ce57f1626ba7e000000000000000000000000000000000000000000000000000000006125e6565b611d0e7f7034731b000000000000000000000000000000000000000000000000000000006125e6565b611d377f2ae9c600000000000000000000000000000000000000000000000000000000006125e6565b611d3f612c45565b611d498787612d6d565b611d5284612bcb565b611d5c8383611e96565b611d6585612d9e565b600080547fffffffffffffffffffffffffffffffffffffffffffffffffffffffffffff00ff16905560405160ff821681527f7f26b83ff96e1f2b6a682f133852f6798a09c465da95921460cefb38474024989060200160405180910390a150505050505050565b7f4707e94b25cfce1a7c363508fbb838c35864388ad77284b248282b9746982b9b611df681611e0e565b6109b98383612d6d565b6000610bfe85858585610ba4565b611e513033836000368080601f016020809104026020016040519081016040528093929190818152602001838380828437600092019190915250610ba492505050565b610e35576040517f1e09743f00000000000000000000000000000000000000000000000000000000815230600482015233602482015260448101829052606401610895565b61012f611ea4828483614207565b507fe9b617ecb5f63f6a9ccd8d4d5fa0d7b2ef9b17ce3f48e6b135808d6a40e677428282604051610ed2929190614321565b73ffffffffffffffffffffffffffffffffffffffff8381161480611f0f575073ffffffffffffffffffffffffffffffffffffffff828116145b15611f46576040517f24159e5b00000000000000000000000000000000000000000000000000000000815260040160405180910390fd5b604080517f5045524d495353494f4e000000000000000000000000000000000000000000006020808301919091527fffffffffffffffffffffffffffffffffffffffff000000000000000000000000606086811b8216602a85015287901b16603e83015260528083018590528351808403909101815260729092019092528051910120600090600081815260c9602052604090205490915073ffffffffffffffffffffffffffffffffffffffff1680610b9d57600082815260c9602090815260409182902080547fffffffffffffffffffffffff0000000000000000000000000000000000000000166002908117909155825173ffffffffffffffffffffffffffffffffffffffff89811682529281019190915290861691339186917f0f579ad49235a8c1fd9041427e7067b1eb10926bbed380bf6fabc73e0e807644910160405180910390a45050505050565b604080517f5045524d495353494f4e000000000000000000000000000000000000000000006020808301919091527fffffffffffffffffffffffffffffffffffffffff000000000000000000000000606086811b8216602a85015287901b16603e83015260528083018590528351808403909101815260729092019092528051910120600090600081815260c9602052604090205490915073ffffffffffffffffffffffffffffffffffffffff1615611a3957600081815260c9602090815260409182902080547fffffffffffffffffffffffff0000000000000000000000000000000000000000169055905173ffffffffffffffffffffffffffffffffffffffff8681168252851691339185917f3ca48185ec3f6e47e24db18b13f1c65b1ce05da1659f9c1c4fe717dda5f67524910160405180910390a450505050565b60008060c9600061226b8888886040517f5045524d495353494f4e0000000000000000000000000000000000000000000060208201527fffffffffffffffffffffffffffffffffffffffff000000000000000000000000606084811b8216602a84015285901b16603e820152605281018290526000906072016040516020818303038152906040528051906020012090509392505050565b815260208101919091526040016000205473ffffffffffffffffffffffffffffffffffffffff169050806122a3576000915050610c01565b7ffffffffffffffffffffffffffffffffffffffffffffffffffffffffffffffffe73ffffffffffffffffffffffffffffffffffffffff8216016122ea576001915050610c01565b6040517f2675fdd000000000000000000000000000000000000000000000000000000000815273ffffffffffffffffffffffffffffffffffffffff821690632675fdd090612342908990899089908990600401614335565b602060405180830381865afa925050508015612399575060408051601f3d9081017fffffffffffffffffffffffffffffffffffffffffffffffffffffffffffffffe016820190925261239691810190614374565b60015b156123b15780156123af57600192505050610c01565b505b50600095945050505050565b7f1f53edd44352e5d15bad2b29233baa93bcd595e09457780bc7c5445bbbe751cc6112a881611e0e565b7f4910fdfa16fed3260ed0e7147f7cc6da11a60208b5b9406d12a635614ffd91435460ff161561241a576109b983612e3e565b8273ffffffffffffffffffffffffffffffffffffffff166352d1902d6040518163ffffffff1660e01b8152600401602060405180830381865afa92505050801561249f575060408051601f3d9081017fffffffffffffffffffffffffffffffffffffffffffffffffffffffffffffffe016820190925261249c91810190614396565b60015b61252b576040517f08c379a000000000000000000000000000000000000000000000000000000000815260206004820152602e60248201527f45524331393637557067726164653a206e657720696d706c656d656e7461746960448201527f6f6e206973206e6f7420555550530000000000000000000000000000000000006064820152608401610895565b7f360894a13ba1a3210667c828492db98dca3e2076cc3735a920a3ca505d382bbc81146125da576040517f08c379a000000000000000000000000000000000000000000000000000000000815260206004820152602960248201527f45524331393637557067726164653a20756e737570706f727465642070726f7860448201527f6961626c655555494400000000000000000000000000000000000000000000006064820152608401610895565b506109b9838383612f48565b7fffffffff000000000000000000000000000000000000000000000000000000008082169003612672576040517f08c379a000000000000000000000000000000000000000000000000000000000815260206004820152601c60248201527f4552433136353a20696e76616c696420696e74657266616365206964000000006044820152606401610895565b7fffffffff0000000000000000000000000000000000000000000000000000000016600090815260336020526040902080547fffffffffffffffffffffffffffffffffffffffffffffffffffffffffffffff00166001179055565b6040805173ffffffffffffffffffffffffffffffffffffffff85811660248301528416604482015260648082018490528251808303909101815260849091019091526020810180517bffffffffffffffffffffffffffffffffffffffffffffffffffffffff167f23b872dd00000000000000000000000000000000000000000000000000000000179052611a39908590612f6d565b8073ffffffffffffffffffffffffffffffffffffffff81163b6127c9576040517f48359af600000000000000000000000000000000000000000000000000000000815273ffffffffffffffffffffffffffffffffffffffff83166004820152602401610895565b6040517f01ffc9a70000000000000000000000000000000000000000000000000000000081527f2675fdd000000000000000000000000000000000000000000000000000000000600482015273ffffffffffffffffffffffffffffffffffffffff8216906301ffc9a790602401602060405180830381865afa158015612853573d6000803e3d6000fd5b505050506040513d601f19601f820116820180604052508101906128779190614374565b6128c5576040517f740b711600000000000000000000000000000000000000000000000000000000815273ffffffffffffffffffffffffffffffffffffffff83166004820152602401610895565b73ffffffffffffffffffffffffffffffffffffffff8581161480156128ff575073ffffffffffffffffffffffffffffffffffffffff848116145b15612936576040517f85f1ba9900000000000000000000000000000000000000000000000000000000815260040160405180910390fd5b73ffffffffffffffffffffffffffffffffffffffff858116148061296f575073ffffffffffffffffffffffffffffffffffffffff848116145b156129dd577f815fe80e4b37c8582a3b773d1d7071f983eacfd56b5965db654f3087c25ada338314806129a657506129a68361307c565b156129dd576040517f24159e5b00000000000000000000000000000000000000000000000000000000815260040160405180910390fd5b604080517f5045524d495353494f4e000000000000000000000000000000000000000000006020808301919091527fffffffffffffffffffffffffffffffffffffffff000000000000000000000000606088811b8216602a85015289901b16603e83015260528083018790528351808403909101815260729092019092528051910120600090600081815260c9602052604090205490915073ffffffffffffffffffffffffffffffffffffffff1680612b2657600082815260c9602090815260409182902080547fffffffffffffffffffffffff00000000000000000000000000000000000000001673ffffffffffffffffffffffffffffffffffffffff87811691821790925583518b8316815292830152881691339188917f0f579ad49235a8c1fd9041427e7067b1eb10926bbed380bf6fabc73e0e807644910160405180910390a4612bc2565b8273ffffffffffffffffffffffffffffffffffffffff168173ffffffffffffffffffffffffffffffffffffffff1614612bc2576040517f0b98789e00000000000000000000000000000000000000000000000000000000815273ffffffffffffffffffffffffffffffffffffffff808916600483015280881660248301526044820187905280831660648301528416608482015260a401610895565b50505050505050565b61012e80547fffffffffffffffffffffffff00000000000000000000000000000000000000001673ffffffffffffffffffffffffffffffffffffffff83169081179091556040519081527fd91237492a9e30cd2faf361fc103998a382ff0ec2b1b07dc1cbebb76ae2f1ea29060200160405180910390a150565b612c6e7f150b7a02000000000000000000000000000000000000000000000000000000006125e6565b612c977f4e2312e0000000000000000000000000000000000000000000000000000000006125e6565b60fb6020527f5a08f87af82de422c581ce019b2e54a9c17372e9cba575ae0470ba2482d6368680547fffffffffffffffffffffffffffffffffffffffffffffffffffffffff0000000090811663150b7a02179091557fe1cfe341950d56d8854f782066100d5ae1d5930cdb4949b973e554a343efc6c38054821663f23a6e611790557fbc197c81000000000000000000000000000000000000000000000000000000006000527f08ba3617671847c1c169da222a5bc01cfdefcc3c4f1e5525214a474479c89123805490911663bc197c81179055565b7fbb39ebb37e60fb5d606ffdb749d2336e56b88e6c88c4bd6513b308f643186eed8282604051610ed2929190614321565b600054610100900460ff16612e35576040517f08c379a000000000000000000000000000000000000000000000000000000000815260206004820152602b60248201527f496e697469616c697a61626c653a20636f6e7472616374206973206e6f74206960448201527f6e697469616c697a696e670000000000000000000000000000000000000000006064820152608401610895565b610e3581613175565b73ffffffffffffffffffffffffffffffffffffffff81163b612ee2576040517f08c379a000000000000000000000000000000000000000000000000000000000815260206004820152602d60248201527f455243313936373a206e657720696d706c656d656e746174696f6e206973206e60448201527f6f74206120636f6e7472616374000000000000000000000000000000000000006064820152608401610895565b7f360894a13ba1a3210667c828492db98dca3e2076cc3735a920a3ca505d382bbc80547fffffffffffffffffffffffff00000000000000000000000000000000000000001673ffffffffffffffffffffffffffffffffffffffff92909216919091179055565b612f51836131a0565b600082511180612f5e5750805b156109b957611a3983836131ed565b6000612fcf826040518060400160405280602081526020017f5361666545524332303a206c6f772d6c6576656c2063616c6c206661696c65648152508573ffffffffffffffffffffffffffffffffffffffff166132129092919063ffffffff16565b9050805160001480612ff0575080806020019051810190612ff09190614374565b6109b9576040517f08c379a000000000000000000000000000000000000000000000000000000000815260206004820152602a60248201527f5361666545524332303a204552433230206f7065726174696f6e20646964206e60448201527f6f742073756363656564000000000000000000000000000000000000000000006064820152608401610895565b60007fbf04b4486c9663d805744005c3da000eda93de6e3308a4a7a812eb565327b78d8214806130cb57507f1f53edd44352e5d15bad2b29233baa93bcd595e09457780bc7c5445bbbe751cc82145b806130f557507f4707e94b25cfce1a7c363508fbb838c35864388ad77284b248282b9746982b9b82145b8061311f57507f06d294bc8cbad2e393408b20dd019a772661f60b8d633e56761157cb1ec85f8c82145b8061314957507f0dcbfb19b09fb8ff4e9af583d4b8e9c8127cc1b26529b4d96dd3b7e77808837282145b806108fa5750507ffaf505be9907aa6951c2ebe5b0312f4980e14f21912ed355372103cc8bd683bc1490565b610e3530827f815fe80e4b37c8582a3b773d1d7071f983eacfd56b5965db654f3087c25ada33611ed6565b6131a981612e3e565b60405173ffffffffffffffffffffffffffffffffffffffff8216907fbc7cd75a20ee27fd9adebab32041f755214dbc6bffa90cc0225b39da2e5c2d3b90600090a250565b6060610a8183836040518060600160405280602781526020016143c260279139613221565b6060610c0184846000856132a6565b60606000808573ffffffffffffffffffffffffffffffffffffffff168560405161324b91906143af565b600060405180830381855af49150503d8060008114613286576040519150601f19603f3d011682016040523d82523d6000602084013e61328b565b606091505b509150915061329c868383876133bf565b9695505050505050565b606082471015613338576040517f08c379a000000000000000000000000000000000000000000000000000000000815260206004820152602660248201527f416464726573733a20696e73756666696369656e742062616c616e636520666f60448201527f722063616c6c00000000000000000000000000000000000000000000000000006064820152608401610895565b6000808673ffffffffffffffffffffffffffffffffffffffff16858760405161336191906143af565b60006040518083038185875af1925050503d806000811461339e576040519150601f19603f3d011682016040523d82523d6000602084013e6133a3565b606091505b50915091506133b4878383876133bf565b979650505050505050565b6060831561345557825160000361344e5773ffffffffffffffffffffffffffffffffffffffff85163b61344e576040517f08c379a000000000000000000000000000000000000000000000000000000000815260206004820152601d60248201527f416464726573733a2063616c6c20746f206e6f6e2d636f6e74726163740000006044820152606401610895565b5081610c01565b610c01838381511561346a5781518083602001fd5b806040517f08c379a0000000000000000000000000000000000000000000000000000000008152600401610895919061391a565b60405180606001604052806003906020820280368337509192915050565b7fffffffff0000000000000000000000000000000000000000000000000000000081168114610e3557600080fd5b6000602082840312156134fc57600080fd5b8135610a81816134bc565b60008083601f84011261351957600080fd5b50813567ffffffffffffffff81111561353157600080fd5b60208301915083602082850101111561354957600080fd5b9250929050565b6000806020838503121561356357600080fd5b823567ffffffffffffffff81111561357a57600080fd5b61358685828601613507565b90969095509350505050565b7f4e487b7100000000000000000000000000000000000000000000000000000000600052604160045260246000fd5b600082601f8301126135d257600080fd5b813567ffffffffffffffff808211156135ed576135ed613592565b604051601f83017fffffffffffffffffffffffffffffffffffffffffffffffffffffffffffffffe0908116603f0116810190828211818310171561363357613633613592565b8160405283815286602085880101111561364c57600080fd5b836020870160208301376000602085830101528094505050505092915050565b6000806040838503121561367f57600080fd5b82359150602083013567ffffffffffffffff81111561369d57600080fd5b6136a9858286016135c1565b9150509250929050565b73ffffffffffffffffffffffffffffffffffffffff81168114610e3557600080fd5b6000806000604084860312156136ea57600080fd5b83356136f5816136b3565b9250602084013567ffffffffffffffff8082111561371257600080fd5b818601915086601f83011261372657600080fd5b81358181111561373557600080fd5b87602060608302850101111561374a57600080fd5b6020830194508093505050509250925092565b6000806000806080858703121561377357600080fd5b843561377e816136b3565b9350602085013561378e816136b3565b925060408501359150606085013567ffffffffffffffff8111156137b157600080fd5b6137bd878288016135c1565b91505092959194509250565b60608101818360005b60038110156137f457815160ff168352602092830192909101906001016137d2565b50505092915050565b60006020828403121561380f57600080fd5b8135610a81816136b3565b60008060006080848603121561382f57600080fd5b606084018581111561384057600080fd5b8493503567ffffffffffffffff81111561385957600080fd5b61386586828701613507565b9497909650939450505050565b6000806040838503121561388557600080fd5b8235613890816136b3565b9150602083013567ffffffffffffffff81111561369d57600080fd5b60005b838110156138c75781810151838201526020016138af565b50506000910152565b600081518084526138e88160208601602086016138ac565b601f017fffffffffffffffffffffffffffffffffffffffffffffffffffffffffffffffe0169290920160200192915050565b602081526000610a8160208301846138d0565b6000806000806060858703121561394357600080fd5b843561394e816136b3565b935060208501359250604085013567ffffffffffffffff81111561397157600080fd5b61397d87828801613507565b95989497509550505050565b60008060006060848603121561399e57600080fd5b83356139a9816134bc565b925060208401356139b9816134bc565b915060408401356139c9816134bc565b809150509250925092565b600080600080606085870312156139ea57600080fd5b84359350602085013567ffffffffffffffff80821115613a0957600080fd5b818701915087601f830112613a1d57600080fd5b813581811115613a2c57600080fd5b8860208260051b8501011115613a4157600080fd5b95986020929092019750949560400135945092505050565b600081518084526020808501808196508360051b8101915082860160005b85811015613aa1578284038952613a8f8483516138d0565b98850198935090840190600101613a77565b5091979650505050505050565b604081526000613ac16040830185613a59565b90508260208301529392505050565b60008060008060808587031215613ae657600080fd5b8435613af1816136b3565b93506020850135613b01816136b3565b9250604085013591506060850135613b18816136b3565b939692955090935050565b600080600060608486031215613b3857600080fd5b8335613b43816136b3565b92506020840135613b53816136b3565b929592945050506040919091013590565b60008060208385031215613b7757600080fd5b823567ffffffffffffffff80821115613b8f57600080fd5b818501915085601f830112613ba357600080fd5b813581811115613bb257600080fd5b86602060a083028501011115613bc757600080fd5b60209290920196919550909350505050565b60008060008060008060808789031215613bf257600080fd5b863567ffffffffffffffff80821115613c0a57600080fd5b613c168a838b01613507565b909850965060208901359150613c2b826136b3565b909450604088013590613c3d826136b3565b90935060608801359080821115613c5357600080fd5b50613c6089828a01613507565b979a9699509497509295939492505050565b73ffffffffffffffffffffffffffffffffffffffff83168152604060208201526000610c0160408301846138d0565b828152604060208201526000610c0160408301846138d0565b600060208284031215613ccc57600080fd5b8151610a81816134bc565b7f4e487b7100000000000000000000000000000000000000000000000000000000600052603260045260246000fd5b803560038110613d1557600080fd5b919050565b600060608284031215613d2c57600080fd5b6040516060810181811067ffffffffffffffff82111715613d4f57613d4f613592565b604052613d5b83613d06565b81526020830135613d6b816136b3565b60208201526040928301359281019290925250919050565b7f4e487b7100000000000000000000000000000000000000000000000000000000600052602160045260246000fd5b803560ff81168114613d1557600080fd5b600060208284031215613dd557600080fd5b610a8182613db2565b60608101818360005b60038110156137f45760ff613dfb83613db2565b1683526020928301929190910190600101613de7565b600181811c90821680613e2557607f821691505b602082108103613e5e577f4e487b7100000000000000000000000000000000000000000000000000000000600052602260045260246000fd5b50919050565b8183528181602085013750600060208284010152600060207fffffffffffffffffffffffffffffffffffffffffffffffffffffffffffffffe0601f840116840101905092915050565b838152604060208201526000610bfe604083018486613e64565b600082357fffffffffffffffffffffffffffffffffffffffffffffffffffffffffffffffa1833603018112613efb57600080fd5b9190910192915050565b60008083357fffffffffffffffffffffffffffffffffffffffffffffffffffffffffffffffe1843603018112613f3a57600080fd5b83018035915067ffffffffffffffff821115613f5557600080fd5b60200191503681900382131561354957600080fd5b8183823760009101908152919050565b600082613fb0577f4e487b7100000000000000000000000000000000000000000000000000000000600052601260045260246000fd5b500490565b600060a08201888352602060a0818501528188835260c08501905060c08960051b86010192508960005b8a8110156140fb577fffffffffffffffffffffffffffffffffffffffffffffffffffffffffffffff4087860301835281357fffffffffffffffffffffffffffffffffffffffffffffffffffffffffffffffa18d360301811261404057600080fd5b8c016060813561404f816136b3565b73ffffffffffffffffffffffffffffffffffffffff1687528186013586880152604080830135368490037fffffffffffffffffffffffffffffffffffffffffffffffffffffffffffffffe10181126140a657600080fd5b90920186810192903567ffffffffffffffff8111156140c457600080fd5b8036038413156140d357600080fd5b82828a01526140e5838a018286613e64565b9850505093850193505090830190600101613fdf565b50505050856040840152846060840152828103608084015261411d8185613a59565b9998505050505050505050565b600060a0828403121561413c57600080fd5b60405160a0810181811067ffffffffffffffff8211171561415f5761415f613592565b60405261416b83613d06565b8152602083013561417b816136b3565b6020820152604083013561418e816136b3565b604082015260608301356141a1816136b3565b60608201526080928301359281019290925250919050565b601f8211156109b957600081815260208120601f850160051c810160208610156141e05750805b601f850160051c820191505b818110156141ff578281556001016141ec565b505050505050565b67ffffffffffffffff83111561421f5761421f613592565b6142338361422d8354613e11565b836141b9565b6000601f841160018114614285576000851561424f5750838201355b7fffffffffffffffffffffffffffffffffffffffffffffffffffffffffffffffff600387901b1c1916600186901b178355610b9d565b6000838152602090207fffffffffffffffffffffffffffffffffffffffffffffffffffffffffffffffe0861690835b828110156142d457868501358255602094850194600190920191016142b4565b508682101561430f577fffffffffffffffffffffffffffffffffffffffffffffffffffffffffffffffff60f88860031b161c19848701351681555b505060018560011b0183555050505050565b602081526000610c01602083018486613e64565b600073ffffffffffffffffffffffffffffffffffffffff80871683528086166020840152508360408301526080606083015261329c60808301846138d0565b60006020828403121561438657600080fd5b81518015158114610a8157600080fd5b6000602082840312156143a857600080fd5b5051919050565b60008251613efb8184602087016138ac56fe416464726573733a206c6f772d6c6576656c2064656c65676174652063616c6c206661696c6564a264697066735822122020a362dd63c4e6e06e6f4f814ed9a220b75c8c6391cd417221a6ba93ab6366a164736f6c63430008110033"
}