{
  "address": "0x6dD0C8b7F9406206ceAA01B5576D9d46e9298f0E",
  "abi": [
    {
      "inputs": [],
      "stateMutability": "nonpayable",
      "type": "constructor"
    },
    {
      "inputs": [
        {
          "internalType": "address",
          "name": "registrant",
          "type": "address"
        }
      ],
      "name": "ContractAlreadyRegistered",
      "type": "error"
    },
    {
      "inputs": [
        {
          "internalType": "address",
          "name": "registrant",
          "type": "address"
        }
      ],
      "name": "ContractERC165SupportInvalid",
      "type": "error"
    },
    {
      "inputs": [
        {
          "internalType": "address",
          "name": "registrant",
          "type": "address"
        }
      ],
      "name": "ContractInterfaceInvalid",
      "type": "error"
    },
    {
      "inputs": [
        {
          "internalType": "address",
          "name": "dao",
          "type": "address"
        },
        {
          "internalType": "address",
          "name": "where",
          "type": "address"
        },
        {
          "internalType": "address",
          "name": "who",
          "type": "address"
        },
        {
          "internalType": "bytes32",
          "name": "permissionId",
          "type": "bytes32"
        }
      ],
      "name": "DaoUnauthorized",
      "type": "error"
    },
    {
      "inputs": [
        {
          "internalType": "string",
          "name": "subdomain",
          "type": "string"
        }
      ],
      "name": "InvalidDaoSubdomain",
      "type": "error"
    },
    {
      "anonymous": false,
      "inputs": [
        {
          "indexed": false,
          "internalType": "address",
          "name": "previousAdmin",
          "type": "address"
        },
        {
          "indexed": false,
          "internalType": "address",
          "name": "newAdmin",
          "type": "address"
        }
      ],
      "name": "AdminChanged",
      "type": "event"
    },
    {
      "anonymous": false,
      "inputs": [
        {
          "indexed": true,
          "internalType": "address",
          "name": "beacon",
          "type": "address"
        }
      ],
      "name": "BeaconUpgraded",
      "type": "event"
    },
    {
      "anonymous": false,
      "inputs": [
        {
          "indexed": true,
          "internalType": "address",
          "name": "dao",
          "type": "address"
        },
        {
          "indexed": true,
          "internalType": "address",
          "name": "creator",
          "type": "address"
        },
        {
          "indexed": false,
          "internalType": "string",
          "name": "subdomain",
          "type": "string"
        }
      ],
      "name": "DAORegistered",
      "type": "event"
    },
    {
      "anonymous": false,
      "inputs": [
        {
          "indexed": false,
          "internalType": "uint8",
          "name": "version",
          "type": "uint8"
        }
      ],
      "name": "Initialized",
      "type": "event"
    },
    {
      "anonymous": false,
      "inputs": [
        {
          "indexed": true,
          "internalType": "address",
          "name": "implementation",
          "type": "address"
        }
      ],
      "name": "Upgraded",
      "type": "event"
    },
    {
      "inputs": [],
      "name": "REGISTER_DAO_PERMISSION_ID",
      "outputs": [
        {
          "internalType": "bytes32",
          "name": "",
          "type": "bytes32"
        }
      ],
      "stateMutability": "view",
      "type": "function"
    },
    {
      "inputs": [],
      "name": "UPGRADE_REGISTRY_PERMISSION_ID",
      "outputs": [
        {
          "internalType": "bytes32",
          "name": "",
          "type": "bytes32"
        }
      ],
      "stateMutability": "view",
      "type": "function"
    },
    {
      "inputs": [],
      "name": "dao",
      "outputs": [
        {
          "internalType": "contract IDAO",
          "name": "",
          "type": "address"
        }
      ],
      "stateMutability": "view",
      "type": "function"
    },
    {
      "inputs": [
        {
          "internalType": "address",
          "name": "",
          "type": "address"
        }
      ],
      "name": "entries",
      "outputs": [
        {
          "internalType": "bool",
          "name": "",
          "type": "bool"
        }
      ],
      "stateMutability": "view",
      "type": "function"
    },
    {
      "inputs": [
        {
          "internalType": "contract IDAO",
          "name": "_managingDao",
          "type": "address"
        },
        {
          "internalType": "contract ENSSubdomainRegistrar",
          "name": "_subdomainRegistrar",
          "type": "address"
        }
      ],
      "name": "initialize",
      "outputs": [],
      "stateMutability": "nonpayable",
      "type": "function"
    },
    {
      "inputs": [],
      "name": "proxiableUUID",
      "outputs": [
        {
          "internalType": "bytes32",
          "name": "",
          "type": "bytes32"
        }
      ],
      "stateMutability": "view",
      "type": "function"
    },
    {
      "inputs": [
        {
          "internalType": "contract IDAO",
          "name": "dao",
          "type": "address"
        },
        {
          "internalType": "address",
          "name": "creator",
          "type": "address"
        },
        {
          "internalType": "string",
          "name": "subdomain",
          "type": "string"
        }
      ],
      "name": "register",
      "outputs": [],
      "stateMutability": "nonpayable",
      "type": "function"
    },
    {
      "inputs": [],
      "name": "subdomainRegistrar",
      "outputs": [
        {
          "internalType": "contract ENSSubdomainRegistrar",
          "name": "",
          "type": "address"
        }
      ],
      "stateMutability": "view",
      "type": "function"
    },
    {
      "inputs": [],
      "name": "targetInterfaceId",
      "outputs": [
        {
          "internalType": "bytes4",
          "name": "",
          "type": "bytes4"
        }
      ],
      "stateMutability": "view",
      "type": "function"
    },
    {
      "inputs": [
        {
          "internalType": "address",
          "name": "newImplementation",
          "type": "address"
        }
      ],
      "name": "upgradeTo",
      "outputs": [],
      "stateMutability": "nonpayable",
      "type": "function"
    },
    {
      "inputs": [
        {
          "internalType": "address",
          "name": "newImplementation",
          "type": "address"
        },
        {
          "internalType": "bytes",
          "name": "data",
          "type": "bytes"
        }
      ],
      "name": "upgradeToAndCall",
      "outputs": [],
      "stateMutability": "payable",
      "type": "function"
    }
  ],
  "numDeployments": 1,
  "bytecode": "0x60a06040523060805234801561001457600080fd5b5061001d610022565b6100e1565b600054610100900460ff161561008e5760405162461bcd60e51b815260206004820152602760248201527f496e697469616c697a61626c653a20636f6e747261637420697320696e697469604482015266616c697a696e6760c81b606482015260840160405180910390fd5b60005460ff908116146100df576000805460ff191660ff9081179091556040519081527f7f26b83ff96e1f2b6a682f133852f6798a09c465da95921460cefb38474024989060200160405180910390a15b565b608051611b3a610118600039600081816102e401528181610399015281816106e40152818161079401526108dd0152611b3a6000f3fe6080604052600436106100bb5760003560e01c80634f1ef28611610074578063a2298b4b1161004e578063a2298b4b14610239578063ede497391461026d578063f29ee1251461028d57600080fd5b80634f1ef286146101cf57806352d1902d146101e257806374574eb71461020557600080fd5b80634162169f116100a55780634162169f1461013957806344162ef814610164578063485cc955146101af57600080fd5b8062077393146100c05780633659cfe614610117575b600080fd5b3480156100cc57600080fd5b5060fb546100ed9073ffffffffffffffffffffffffffffffffffffffff1681565b60405173ffffffffffffffffffffffffffffffffffffffff90911681526020015b60405180910390f35b34801561012357600080fd5b506101376101323660046116dd565b6102cd565b005b34801561014557600080fd5b5060975473ffffffffffffffffffffffffffffffffffffffff166100ed565b34801561017057600080fd5b5060c95461017e9060e01b81565b6040517fffffffff00000000000000000000000000000000000000000000000000000000909116815260200161010e565b3480156101bb57600080fd5b506101376101ca3660046116fa565b6104d7565b6101376101dd366004611762565b6106cd565b3480156101ee57600080fd5b506101f76108c3565b60405190815260200161010e565b34801561021157600080fd5b506101f77f60b96ff9fb5f29153c29c1747515b8be4ee523d686cc6f453ec294b0afa7293281565b34801561024557600080fd5b506101f77fde5e253d6956bc5fb69cfa564733633f4e53b143e42859306cd13cdc5485621581565b34801561027957600080fd5b50610137610288366004611844565b6109af565b34801561029957600080fd5b506102bd6102a83660046116dd565b60ca6020526000908152604090205460ff1681565b604051901515815260200161010e565b73ffffffffffffffffffffffffffffffffffffffff7f0000000000000000000000000000000000000000000000000000000000000000163003610397576040517f08c379a000000000000000000000000000000000000000000000000000000000815260206004820152602c60248201527f46756e6374696f6e206d7573742062652063616c6c6564207468726f7567682060448201527f64656c656761746563616c6c000000000000000000000000000000000000000060648201526084015b60405180910390fd5b7f000000000000000000000000000000000000000000000000000000000000000073ffffffffffffffffffffffffffffffffffffffff1661040c7f360894a13ba1a3210667c828492db98dca3e2076cc3735a920a3ca505d382bbc5473ffffffffffffffffffffffffffffffffffffffff1690565b73ffffffffffffffffffffffffffffffffffffffff16146104af576040517f08c379a000000000000000000000000000000000000000000000000000000000815260206004820152602c60248201527f46756e6374696f6e206d7573742062652063616c6c6564207468726f7567682060448201527f6163746976652070726f78790000000000000000000000000000000000000000606482015260840161038e565b6104b881610b64565b604080516000808252602082019092526104d491839190610baa565b50565b600054610100900460ff16158080156104f75750600054600160ff909116105b806105115750303b158015610511575060005460ff166001145b61059d576040517f08c379a000000000000000000000000000000000000000000000000000000000815260206004820152602e60248201527f496e697469616c697a61626c653a20636f6e747261637420697320616c72656160448201527f647920696e697469616c697a6564000000000000000000000000000000000000606482015260840161038e565b600080547fffffffffffffffffffffffffffffffffffffffffffffffffffffffffffffff0016600117905580156105fb57600080547fffffffffffffffffffffffffffffffffffffffffffffffffffffffffffff00ff166101001790555b610625837f9385547e00000000000000000000000000000000000000000000000000000000610da9565b60fb80547fffffffffffffffffffffffff00000000000000000000000000000000000000001673ffffffffffffffffffffffffffffffffffffffff841617905580156106c857600080547fffffffffffffffffffffffffffffffffffffffffffffffffffffffffffff00ff169055604051600181527f7f26b83ff96e1f2b6a682f133852f6798a09c465da95921460cefb38474024989060200160405180910390a15b505050565b73ffffffffffffffffffffffffffffffffffffffff7f0000000000000000000000000000000000000000000000000000000000000000163003610792576040517f08c379a000000000000000000000000000000000000000000000000000000000815260206004820152602c60248201527f46756e6374696f6e206d7573742062652063616c6c6564207468726f7567682060448201527f64656c656761746563616c6c0000000000000000000000000000000000000000606482015260840161038e565b7f000000000000000000000000000000000000000000000000000000000000000073ffffffffffffffffffffffffffffffffffffffff166108077f360894a13ba1a3210667c828492db98dca3e2076cc3735a920a3ca505d382bbc5473ffffffffffffffffffffffffffffffffffffffff1690565b73ffffffffffffffffffffffffffffffffffffffff16146108aa576040517f08c379a000000000000000000000000000000000000000000000000000000000815260206004820152602c60248201527f46756e6374696f6e206d7573742062652063616c6c6564207468726f7567682060448201527f6163746976652070726f78790000000000000000000000000000000000000000606482015260840161038e565b6108b382610b64565b6108bf82826001610baa565b5050565b60003073ffffffffffffffffffffffffffffffffffffffff7f0000000000000000000000000000000000000000000000000000000000000000161461098a576040517f08c379a000000000000000000000000000000000000000000000000000000000815260206004820152603860248201527f555550535570677261646561626c653a206d757374206e6f742062652063616c60448201527f6c6564207468726f7567682064656c656761746563616c6c0000000000000000606482015260840161038e565b507f360894a13ba1a3210667c828492db98dca3e2076cc3735a920a3ca505d382bbc90565b6097547fde5e253d6956bc5fb69cfa564733633f4e53b143e42859306cd13cdc54856215906109fa9073ffffffffffffffffffffffffffffffffffffffff1630335b84600036610e7e565b84610a0481610f86565b8215610af557610a1484846110c2565b610a4e5783836040517f3a5bf49b00000000000000000000000000000000000000000000000000000000815260040161038e92919061191f565b60008484604051610a60929190611933565b60405190819003812060fb547f89bb41450000000000000000000000000000000000000000000000000000000083526004830182905273ffffffffffffffffffffffffffffffffffffffff858116602485015291935016906389bb414590604401600060405180830381600087803b158015610adb57600080fd5b505af1158015610aef573d6000803e3d6000fd5b50505050505b8473ffffffffffffffffffffffffffffffffffffffff168173ffffffffffffffffffffffffffffffffffffffff167fbc0b11fe649bb4d67c7fb40936163e5423f45c3ae83fbd8f8f8c75e1a3fa97af8686604051610b5492919061191f565b60405180910390a3505050505050565b6097547f60b96ff9fb5f29153c29c1747515b8be4ee523d686cc6f453ec294b0afa72932906108bf9073ffffffffffffffffffffffffffffffffffffffff1630336109f1565b7f4910fdfa16fed3260ed0e7147f7cc6da11a60208b5b9406d12a635614ffd91435460ff1615610bdd576106c88361116f565b8273ffffffffffffffffffffffffffffffffffffffff166352d1902d6040518163ffffffff1660e01b8152600401602060405180830381865afa925050508015610c62575060408051601f3d9081017fffffffffffffffffffffffffffffffffffffffffffffffffffffffffffffffe0168201909252610c5f91810190611943565b60015b610cee576040517f08c379a000000000000000000000000000000000000000000000000000000000815260206004820152602e60248201527f45524331393637557067726164653a206e657720696d706c656d656e7461746960448201527f6f6e206973206e6f742055555053000000000000000000000000000000000000606482015260840161038e565b7f360894a13ba1a3210667c828492db98dca3e2076cc3735a920a3ca505d382bbc8114610d9d576040517f08c379a000000000000000000000000000000000000000000000000000000000815260206004820152602960248201527f45524331393637557067726164653a20756e737570706f727465642070726f7860448201527f6961626c65555549440000000000000000000000000000000000000000000000606482015260840161038e565b506106c8838383611279565b600054610100900460ff16610e40576040517f08c379a000000000000000000000000000000000000000000000000000000000815260206004820152602b60248201527f496e697469616c697a61626c653a20636f6e7472616374206973206e6f74206960448201527f6e697469616c697a696e67000000000000000000000000000000000000000000606482015260840161038e565b610e49826112a4565b60c980547fffffffffffffffffffffffffffffffffffffffffffffffffffffffff000000001660e09290921c91909117905550565b6040517ffdef910600000000000000000000000000000000000000000000000000000000815273ffffffffffffffffffffffffffffffffffffffff87169063fdef910690610ed8908890889088908890889060040161195c565b602060405180830381865afa158015610ef5573d6000803e3d6000fd5b505050506040513d601f19601f82011682018060405250810190610f19919061199c565b610f7e576040517f32dbe3b400000000000000000000000000000000000000000000000000000000815273ffffffffffffffffffffffffffffffffffffffff80881660048301528087166024830152851660448201526064810184905260840161038e565b505050505050565b73ffffffffffffffffffffffffffffffffffffffff8116600090815260ca602052604090205460ff1615610ffe576040517ffdcce17f00000000000000000000000000000000000000000000000000000000815273ffffffffffffffffffffffffffffffffffffffff8216600482015260240161038e565b60c9546110259073ffffffffffffffffffffffffffffffffffffffff83169060e01b611382565b611073576040517f71023c8a00000000000000000000000000000000000000000000000000000000815273ffffffffffffffffffffffffffffffffffffffff8216600482015260240161038e565b73ffffffffffffffffffffffffffffffffffffffff16600090815260ca6020526040902080547fffffffffffffffffffffffffffffffffffffffffffffffffffffffffffffff00166001179055565b6000828280835b818110156111605760008484838181106110e5576110e56119be565b919091013560f81c9150506060811180156111035750607b8160ff16105b1561110e575061114e565b602f8160ff161180156111245750603a8160ff16105b1561112f575061114e565b8060ff16602d03611140575061114e565b600095505050505050611169565b80611158816119ed565b9150506110c9565b50600193505050505b92915050565b73ffffffffffffffffffffffffffffffffffffffff81163b611213576040517f08c379a000000000000000000000000000000000000000000000000000000000815260206004820152602d60248201527f455243313936373a206e657720696d706c656d656e746174696f6e206973206e60448201527f6f74206120636f6e747261637400000000000000000000000000000000000000606482015260840161038e565b7f360894a13ba1a3210667c828492db98dca3e2076cc3735a920a3ca505d382bbc80547fffffffffffffffffffffffff00000000000000000000000000000000000000001673ffffffffffffffffffffffffffffffffffffffff92909216919091179055565b611282836113a5565b60008251118061128f5750805b156106c85761129e83836113f2565b50505050565b600054610100900460ff1661133b576040517f08c379a000000000000000000000000000000000000000000000000000000000815260206004820152602b60248201527f496e697469616c697a61626c653a20636f6e7472616374206973206e6f74206960448201527f6e697469616c697a696e67000000000000000000000000000000000000000000606482015260840161038e565b609780547fffffffffffffffffffffffff00000000000000000000000000000000000000001673ffffffffffffffffffffffffffffffffffffffff92909216919091179055565b600061138d83611417565b801561139e575061139e838361147b565b9392505050565b6113ae8161116f565b60405173ffffffffffffffffffffffffffffffffffffffff8216907fbc7cd75a20ee27fd9adebab32041f755214dbc6bffa90cc0225b39da2e5c2d3b90600090a250565b606061139e8383604051806060016040528060278152602001611ade6027913961154a565b6000611443827f01ffc9a70000000000000000000000000000000000000000000000000000000061147b565b80156111695750611474827fffffffff0000000000000000000000000000000000000000000000000000000061147b565b1592915050565b604080517fffffffff000000000000000000000000000000000000000000000000000000008316602480830191909152825180830390910181526044909101909152602080820180517bffffffffffffffffffffffffffffffffffffffffffffffffffffffff167f01ffc9a700000000000000000000000000000000000000000000000000000000178152825160009392849283928392918391908a617530fa92503d91506000519050828015611533575060208210155b801561153f5750600081115b979650505050505050565b60606000808573ffffffffffffffffffffffffffffffffffffffff16856040516115749190611a70565b600060405180830381855af49150503d80600081146115af576040519150601f19603f3d011682016040523d82523d6000602084013e6115b4565b606091505b50915091506115c5868383876115cf565b9695505050505050565b6060831561166557825160000361165e5773ffffffffffffffffffffffffffffffffffffffff85163b61165e576040517f08c379a000000000000000000000000000000000000000000000000000000000815260206004820152601d60248201527f416464726573733a2063616c6c20746f206e6f6e2d636f6e7472616374000000604482015260640161038e565b508161166f565b61166f8383611677565b949350505050565b8151156116875781518083602001fd5b806040517f08c379a000000000000000000000000000000000000000000000000000000000815260040161038e9190611a8c565b73ffffffffffffffffffffffffffffffffffffffff811681146104d457600080fd5b6000602082840312156116ef57600080fd5b813561139e816116bb565b6000806040838503121561170d57600080fd5b8235611718816116bb565b91506020830135611728816116bb565b809150509250929050565b7f4e487b7100000000000000000000000000000000000000000000000000000000600052604160045260246000fd5b6000806040838503121561177557600080fd5b8235611780816116bb565b9150602083013567ffffffffffffffff8082111561179d57600080fd5b818501915085601f8301126117b157600080fd5b8135818111156117c3576117c3611733565b604051601f82017fffffffffffffffffffffffffffffffffffffffffffffffffffffffffffffffe0908116603f0116810190838211818310171561180957611809611733565b8160405282815288602084870101111561182257600080fd5b8260208601602083013760006020848301015280955050505050509250929050565b6000806000806060858703121561185a57600080fd5b8435611865816116bb565b93506020850135611875816116bb565b9250604085013567ffffffffffffffff8082111561189257600080fd5b818701915087601f8301126118a657600080fd5b8135818111156118b557600080fd5b8860208285010111156118c757600080fd5b95989497505060200194505050565b8183528181602085013750600060208284010152600060207fffffffffffffffffffffffffffffffffffffffffffffffffffffffffffffffe0601f840116840101905092915050565b60208152600061166f6020830184866118d6565b8183823760009101908152919050565b60006020828403121561195557600080fd5b5051919050565b600073ffffffffffffffffffffffffffffffffffffffff80881683528087166020840152508460408301526080606083015261153f6080830184866118d6565b6000602082840312156119ae57600080fd5b8151801515811461139e57600080fd5b7f4e487b7100000000000000000000000000000000000000000000000000000000600052603260045260246000fd5b60007fffffffffffffffffffffffffffffffffffffffffffffffffffffffffffffffff8203611a45577f4e487b7100000000000000000000000000000000000000000000000000000000600052601160045260246000fd5b5060010190565b60005b83811015611a67578181015183820152602001611a4f565b50506000910152565b60008251611a82818460208701611a4c565b9190910192915050565b6020815260008251806020840152611aab816040850160208701611a4c565b601f017fffffffffffffffffffffffffffffffffffffffffffffffffffffffffffffffe016919091016040019291505056fe416464726573733a206c6f772d6c6576656c2064656c65676174652063616c6c206661696c6564a264697066735822122013eac881789bfd150a3116c4b3c1fc9c2568d53ce389f02f66c9005c72ceed2964736f6c63430008110033"
}