{
  "address": "0x2Cd943E1BEF5bB0663a3622C0e1B22922BF5b482",
  "abi": [
    {
      "inputs": [
        {
          "internalType": "address",
          "name": "dao",
          "type": "address"
        },
        {
          "internalType": "address",
          "name": "where",
          "type": "address"
        },
        {
          "internalType": "address",
          "name": "who",
          "type": "address"
        },
        {
          "internalType": "bytes32",
          "name": "permissionId",
          "type": "bytes32"
        }
      ],
      "name": "DaoUnauthorized",
      "type": "error"
    },
    {
      "anonymous": false,
      "inputs": [
        {
          "indexed": false,
          "internalType": "address",
          "name": "previousAdmin",
          "type": "address"
        },
        {
          "indexed": false,
          "internalType": "address",
          "name": "newAdmin",
          "type": "address"
        }
      ],
      "name": "AdminChanged",
      "type": "event"
    },
    {
      "anonymous": false,
      "inputs": [
        {
          "indexed": true,
          "internalType": "address",
          "name": "beacon",
          "type": "address"
        }
      ],
      "name": "BeaconUpgraded",
      "type": "event"
    },
    {
      "anonymous": false,
      "inputs": [
        {
          "indexed": false,
          "internalType": "uint8",
          "name": "version",
          "type": "uint8"
        }
      ],
      "name": "Initialized",
      "type": "event"
    },
    {
      "anonymous": false,
      "inputs": [
        {
          "indexed": false,
          "internalType": "uint256",
          "name": "proposalId",
          "type": "uint256"
        },
        {
          "indexed": false,
          "internalType": "bytes",
          "name": "metadata",
          "type": "bytes"
        },
        {
          "indexed": false,
          "internalType": "uint64",
          "name": "startDate",
          "type": "uint64"
        },
        {
          "indexed": false,
          "internalType": "uint64",
          "name": "endDate",
          "type": "uint64"
        },
        {
          "components": [
            {
              "internalType": "string",
              "name": "metadata",
              "type": "string"
            },
            {
              "internalType": "uint64",
              "name": "deadline",
              "type": "uint64"
            },
            {
              "components": [
                {
                  "internalType": "contract IERC20",
                  "name": "tokenContract",
                  "type": "address"
                },
                {
                  "internalType": "uint96",
                  "name": "amount",
                  "type": "uint96"
                }
              ],
              "internalType": "struct ITasks.ERC20Transfer[]",
              "name": "budget",
              "type": "tuple[]"
            },
            {
              "internalType": "address",
              "name": "manager",
              "type": "address"
            },
            {
              "components": [
                {
                  "internalType": "address",
                  "name": "applicant",
                  "type": "address"
                },
                {
                  "components": [
                    {
                      "internalType": "bool",
                      "name": "nextToken",
                      "type": "bool"
                    },
                    {
                      "internalType": "address",
                      "name": "to",
                      "type": "address"
                    },
                    {
                      "internalType": "uint88",
                      "name": "amount",
                      "type": "uint88"
                    }
                  ],
                  "internalType": "struct ITasks.Reward[]",
                  "name": "reward",
                  "type": "tuple[]"
                },
                {
                  "components": [
                    {
                      "internalType": "address",
                      "name": "to",
                      "type": "address"
                    },
                    {
                      "internalType": "uint96",
                      "name": "amount",
                      "type": "uint96"
                    }
                  ],
                  "internalType": "struct ITasks.NativeReward[]",
                  "name": "nativeReward",
                  "type": "tuple[]"
                }
              ],
              "internalType": "struct ITasks.PreapprovedApplication[]",
              "name": "preapproved",
              "type": "tuple[]"
            }
          ],
          "indexed": false,
          "internalType": "struct ITaskDrafts.CreateTaskInfo",
          "name": "taskInfo",
          "type": "tuple"
        }
      ],
      "name": "TaskDraftCreated",
      "type": "event"
    },
    {
      "anonymous": false,
      "inputs": [
        {
          "indexed": true,
          "internalType": "address",
          "name": "implementation",
          "type": "address"
        }
      ],
      "name": "Upgraded",
      "type": "event"
    },
    {
      "inputs": [],
      "name": "UPGRADE_PLUGIN_PERMISSION_ID",
      "outputs": [
        {
          "internalType": "bytes32",
          "name": "",
          "type": "bytes32"
        }
      ],
      "stateMutability": "view",
      "type": "function"
    },
    {
      "inputs": [
        {
          "internalType": "bytes",
          "name": "_metadata",
          "type": "bytes"
        },
        {
          "internalType": "uint64",
          "name": "_startDate",
          "type": "uint64"
        },
        {
          "internalType": "uint64",
          "name": "_endDate",
          "type": "uint64"
        },
        {
          "components": [
            {
              "internalType": "string",
              "name": "metadata",
              "type": "string"
            },
            {
              "internalType": "uint64",
              "name": "deadline",
              "type": "uint64"
            },
            {
              "components": [
                {
                  "internalType": "contract IERC20",
                  "name": "tokenContract",
                  "type": "address"
                },
                {
                  "internalType": "uint96",
                  "name": "amount",
                  "type": "uint96"
                }
              ],
              "internalType": "struct ITasks.ERC20Transfer[]",
              "name": "budget",
              "type": "tuple[]"
            },
            {
              "internalType": "address",
              "name": "manager",
              "type": "address"
            },
            {
              "components": [
                {
                  "internalType": "address",
                  "name": "applicant",
                  "type": "address"
                },
                {
                  "components": [
                    {
                      "internalType": "bool",
                      "name": "nextToken",
                      "type": "bool"
                    },
                    {
                      "internalType": "address",
                      "name": "to",
                      "type": "address"
                    },
                    {
                      "internalType": "uint88",
                      "name": "amount",
                      "type": "uint88"
                    }
                  ],
                  "internalType": "struct ITasks.Reward[]",
                  "name": "reward",
                  "type": "tuple[]"
                },
                {
                  "components": [
                    {
                      "internalType": "address",
                      "name": "to",
                      "type": "address"
                    },
                    {
                      "internalType": "uint96",
                      "name": "amount",
                      "type": "uint96"
                    }
                  ],
                  "internalType": "struct ITasks.NativeReward[]",
                  "name": "nativeReward",
                  "type": "tuple[]"
                }
              ],
              "internalType": "struct ITasks.PreapprovedApplication[]",
              "name": "preapproved",
              "type": "tuple[]"
            }
          ],
          "internalType": "struct ITaskDrafts.CreateTaskInfo",
          "name": "_taskInfo",
          "type": "tuple"
        }
      ],
      "name": "createDraftTask",
      "outputs": [],
      "stateMutability": "nonpayable",
      "type": "function"
    },
    {
      "inputs": [],
      "name": "dao",
      "outputs": [
        {
          "internalType": "contract IDAO",
          "name": "",
          "type": "address"
        }
      ],
      "stateMutability": "view",
      "type": "function"
    },
    {
      "inputs": [],
      "name": "getGovernanceContract",
      "outputs": [
        {
          "internalType": "contract IPluginProposals",
          "name": "",
          "type": "address"
        }
      ],
      "stateMutability": "view",
      "type": "function"
    },
    {
      "inputs": [],
      "name": "getTasksContract",
      "outputs": [
        {
          "internalType": "contract ITasks",
          "name": "",
          "type": "address"
        }
      ],
      "stateMutability": "view",
      "type": "function"
    },
    {
      "inputs": [],
      "name": "implementation",
      "outputs": [
        {
          "internalType": "address",
          "name": "",
          "type": "address"
        }
      ],
      "stateMutability": "view",
      "type": "function"
    },
    {
      "inputs": [
        {
          "internalType": "contract IDAO",
          "name": "_dao",
          "type": "address"
        },
        {
          "internalType": "contract ITasks",
          "name": "_tasks",
          "type": "address"
        },
        {
          "internalType": "contract IPluginProposals",
          "name": "_governancePlugin",
          "type": "address"
        }
      ],
      "name": "initialize",
      "outputs": [],
      "stateMutability": "nonpayable",
      "type": "function"
    },
    {
      "inputs": [],
      "name": "pluginType",
      "outputs": [
        {
          "internalType": "enum IPlugin.PluginType",
          "name": "",
          "type": "uint8"
        }
      ],
      "stateMutability": "pure",
      "type": "function"
    },
    {
      "inputs": [],
      "name": "proxiableUUID",
      "outputs": [
        {
          "internalType": "bytes32",
          "name": "",
          "type": "bytes32"
        }
      ],
      "stateMutability": "view",
      "type": "function"
    },
    {
      "inputs": [
        {
          "internalType": "bytes4",
          "name": "_interfaceId",
          "type": "bytes4"
        }
      ],
      "name": "supportsInterface",
      "outputs": [
        {
          "internalType": "bool",
          "name": "",
          "type": "bool"
        }
      ],
      "stateMutability": "view",
      "type": "function"
    },
    {
      "inputs": [
        {
          "internalType": "contract IPluginProposals",
          "name": "_governancePlugin",
          "type": "address"
        }
      ],
      "name": "updateGovernanceContract",
      "outputs": [],
      "stateMutability": "nonpayable",
      "type": "function"
    },
    {
      "inputs": [
        {
          "internalType": "contract ITasks",
          "name": "_tasks",
          "type": "address"
        }
      ],
      "name": "updateTasksContract",
      "outputs": [],
      "stateMutability": "nonpayable",
      "type": "function"
    },
    {
      "inputs": [
        {
          "internalType": "address",
          "name": "newImplementation",
          "type": "address"
        }
      ],
      "name": "upgradeTo",
      "outputs": [],
      "stateMutability": "nonpayable",
      "type": "function"
    },
    {
      "inputs": [
        {
          "internalType": "address",
          "name": "newImplementation",
          "type": "address"
        },
        {
          "internalType": "bytes",
          "name": "data",
          "type": "bytes"
        }
      ],
      "name": "upgradeToAndCall",
      "outputs": [],
      "stateMutability": "payable",
      "type": "function"
    }
  ],
  "numDeployments": 1,
  "bytecode": "0x60a06040523060805234801561001457600080fd5b5061001d610022565b6100e1565b600054610100900460ff161561008e5760405162461bcd60e51b815260206004820152602760248201527f496e697469616c697a61626c653a20636f6e747261637420697320696e697469604482015266616c697a696e6760c81b606482015260840160405180910390fd5b60005460ff908116146100df576000805460ff191660ff9081179091556040519081527f7f26b83ff96e1f2b6a682f133852f6798a09c465da95921460cefb38474024989060200160405180910390a15b565b608051611a72610118600039600081816102f901528181610342015281816103ca0152818161040a01526104860152611a726000f3fe6080604052600436106100dd5760003560e01c80636faf60a01161007f578063c9c4bfca11610059578063c9c4bfca14610232578063d2c6c68114610266578063ef2fa85f14610285578063f3d881d2146102a457600080fd5b80636faf60a0146101d25780637f722831146101f2578063c0c53b8b1461021257600080fd5b806341de6830116100bb57806341de68301461016b5780634f1ef2861461018757806352d1902d1461019a5780635c60da1b146101bd57600080fd5b806301ffc9a7146100e25780633659cfe6146101175780634162169f14610139575b600080fd5b3480156100ee57600080fd5b506101026100fd366004610ecb565b6102c4565b60405190151581526020015b60405180910390f35b34801561012357600080fd5b50610137610132366004610f1a565b6102ef565b005b34801561014557600080fd5b5060c9546001600160a01b03165b6040516001600160a01b03909116815260200161010e565b34801561017757600080fd5b50600060405161010e9190610f37565b610137610195366004610f75565b6103c0565b3480156101a657600080fd5b506101af610479565b60405190815260200161010e565b3480156101c957600080fd5b5061015361052c565b3480156101de57600080fd5b506101376101ed366004610f1a565b61053b565b3480156101fe57600080fd5b5061013761020d366004610f1a565b61059d565b34801561021e57600080fd5b5061013761022d366004611038565b6105fa565b34801561023e57600080fd5b506101af7f821b6e3a557148015a918c89e5d092e878a69854a2d1a410635f771bd5a8a3f581565b34801561027257600080fd5b5061012d546001600160a01b0316610153565b34801561029157600080fd5b5061012e546001600160a01b0316610153565b3480156102b057600080fd5b506101376102bf3660046110b2565b610741565b60006001600160e01b0319821663deeca79d60e01b14806102e957506102e982610931565b92915050565b6001600160a01b037f00000000000000000000000000000000000000000000000000000000000000001630036103405760405162461bcd60e51b81526004016103379061116a565b60405180910390fd5b7f00000000000000000000000000000000000000000000000000000000000000006001600160a01b0316610372610981565b6001600160a01b0316146103985760405162461bcd60e51b8152600401610337906111b6565b6103a18161099d565b604080516000808252602082019092526103bd918391906109d6565b50565b6001600160a01b037f00000000000000000000000000000000000000000000000000000000000000001630036104085760405162461bcd60e51b81526004016103379061116a565b7f00000000000000000000000000000000000000000000000000000000000000006001600160a01b031661043a610981565b6001600160a01b0316146104605760405162461bcd60e51b8152600401610337906111b6565b6104698261099d565b610475828260016109d6565b5050565b6000306001600160a01b037f000000000000000000000000000000000000000000000000000000000000000016146105195760405162461bcd60e51b815260206004820152603860248201527f555550535570677261646561626c653a206d757374206e6f742062652063616c60448201527f6c6564207468726f7567682064656c656761746563616c6c00000000000000006064820152608401610337565b506000805160206119f683398151915290565b6000610536610981565b905090565b60c9547f37c20ba3fe5e4e1eb04b4bdb30d528f9d2d37a43a745d3976dffa671d4a3895390610579906001600160a01b031630335b84600036610b46565b5061012e80546001600160a01b0319166001600160a01b0392909216919091179055565b60c9547f37c20ba3fe5e4e1eb04b4bdb30d528f9d2d37a43a745d3976dffa671d4a38953906105d6906001600160a01b03163033610570565b5061012d80546001600160a01b0319166001600160a01b0392909216919091179055565b600054610100900460ff161580801561061a5750600054600160ff909116105b806106345750303b158015610634575060005460ff166001145b6106975760405162461bcd60e51b815260206004820152602e60248201527f496e697469616c697a61626c653a20636f6e747261637420697320616c72656160448201526d191e481a5b9a5d1a585b1a5e995960921b6064820152608401610337565b6000805460ff1916600117905580156106ba576000805461ff0019166101001790555b6106c384610c02565b61012d80546001600160a01b038086166001600160a01b03199283161790925561012e805492851692909116919091179055801561073b576000805461ff0019169055604051600181527f7f26b83ff96e1f2b6a682f133852f6798a09c465da95921460cefb38474024989060200160405180910390a15b50505050565b604080516001808252818301909252600091816020015b604080516060808201835260008083526020830152918101919091528152602001906001900390816107585790505090506000631c5754af60e31b61079d8480611202565b6107ad604087016020880161124f565b6107ba604088018861126a565b6107ca60808a0160608b01610f1a565b6107d760808b018b6112b3565b6040516024016107ee9897969594939291906115bb565b60408051601f19818403018152918152602080830180516001600160e01b03166001600160e01b031990951694909417909352805160608101825261012d546001600160a01b031681526000938101849052908101829052845191935091849161085a5761085a61164b565b60209081029190910101525061012e546040516308ee225d60e21b81526000916001600160a01b0316906323b88974906108a2908a908a90879087908c908c906004016116b1565b6020604051808303816000875af11580156108c1573d6000803e3d6000fd5b505050506040513d601f19601f820116820180604052508101906108e5919061177d565b90507f741335f3bfa2d424414552e7241d49091382d0d25e2474056eceacfe08cc014f8188888888886040516109209695949392919061181a565b60405180910390a150505050505050565b60006001600160e01b0319821663041de68360e41b148061096257506001600160e01b031982166352d1902d60e01b145b806102e957506301ffc9a760e01b6001600160e01b03198316146102e9565b6000805160206119f6833981519152546001600160a01b031690565b60c9547f821b6e3a557148015a918c89e5d092e878a69854a2d1a410635f771bd5a8a3f590610475906001600160a01b03163033610570565b7f4910fdfa16fed3260ed0e7147f7cc6da11a60208b5b9406d12a635614ffd91435460ff1615610a0e57610a0983610c32565b505050565b826001600160a01b03166352d1902d6040518163ffffffff1660e01b8152600401602060405180830381865afa925050508015610a68575060408051601f3d908101601f19168201909252610a659181019061177d565b60015b610acb5760405162461bcd60e51b815260206004820152602e60248201527f45524331393637557067726164653a206e657720696d706c656d656e7461746960448201526d6f6e206973206e6f74205555505360901b6064820152608401610337565b6000805160206119f68339815191528114610b3a5760405162461bcd60e51b815260206004820152602960248201527f45524331393637557067726164653a20756e737570706f727465642070726f786044820152681a58589b195555525160ba1b6064820152608401610337565b50610a09838383610cce565b604051637ef7c88360e11b81526001600160a01b0387169063fdef910690610b7a908890889088908890889060040161192a565b602060405180830381865afa158015610b97573d6000803e3d6000fd5b505050506040513d601f19601f82011682018060405250810190610bbb919061195e565b610bfa57604051630cb6f8ed60e21b81526001600160a01b03808816600483015280871660248301528516604482015260648101849052608401610337565b505050505050565b600054610100900460ff16610c295760405162461bcd60e51b81526004016103379061197b565b6103bd81610cf3565b6001600160a01b0381163b610c9f5760405162461bcd60e51b815260206004820152602d60248201527f455243313936373a206e657720696d706c656d656e746174696f6e206973206e60448201526c1bdd08184818dbdb9d1c9858dd609a1b6064820152608401610337565b6000805160206119f683398151915280546001600160a01b0319166001600160a01b0392909216919091179055565b610cd783610d3c565b600082511180610ce45750805b15610a095761073b8383610d7c565b600054610100900460ff16610d1a5760405162461bcd60e51b81526004016103379061197b565b60c980546001600160a01b0319166001600160a01b0392909216919091179055565b610d4581610c32565b6040516001600160a01b038216907fbc7cd75a20ee27fd9adebab32041f755214dbc6bffa90cc0225b39da2e5c2d3b90600090a250565b6060610da18383604051806060016040528060278152602001611a1660279139610da8565b9392505050565b6060600080856001600160a01b031685604051610dc591906119c6565b600060405180830381855af49150503d8060008114610e00576040519150601f19603f3d011682016040523d82523d6000602084013e610e05565b606091505b5091509150610e1686838387610e20565b9695505050505050565b60608315610e8f578251600003610e88576001600160a01b0385163b610e885760405162461bcd60e51b815260206004820152601d60248201527f416464726573733a2063616c6c20746f206e6f6e2d636f6e74726163740000006044820152606401610337565b5081610e99565b610e998383610ea1565b949350505050565b815115610eb15781518083602001fd5b8060405162461bcd60e51b815260040161033791906119e2565b600060208284031215610edd57600080fd5b81356001600160e01b031981168114610da157600080fd5b6001600160a01b03811681146103bd57600080fd5b8035610f1581610ef5565b919050565b600060208284031215610f2c57600080fd5b8135610da181610ef5565b6020810160038310610f5957634e487b7160e01b600052602160045260246000fd5b91905290565b634e487b7160e01b600052604160045260246000fd5b60008060408385031215610f8857600080fd5b8235610f9381610ef5565b915060208301356001600160401b0380821115610faf57600080fd5b818501915085601f830112610fc357600080fd5b813581811115610fd557610fd5610f5f565b604051601f8201601f19908116603f01168101908382118183101715610ffd57610ffd610f5f565b8160405282815288602084870101111561101657600080fd5b8260208601602083013760006020848301015280955050505050509250929050565b60008060006060848603121561104d57600080fd5b833561105881610ef5565b9250602084013561106881610ef5565b9150604084013561107881610ef5565b809150509250925092565b80356001600160401b0381168114610f1557600080fd5b600060a082840312156110ac57600080fd5b50919050565b6000806000806000608086880312156110ca57600080fd5b85356001600160401b03808211156110e157600080fd5b818801915088601f8301126110f557600080fd5b81358181111561110457600080fd5b89602082850101111561111657600080fd5b6020830197508096505061112c60208901611083565b945061113a60408901611083565b9350606088013591508082111561115057600080fd5b5061115d8882890161109a565b9150509295509295909350565b6020808252602c908201527f46756e6374696f6e206d7573742062652063616c6c6564207468726f7567682060408201526b19195b1959d85d1958d85b1b60a21b606082015260800190565b6020808252602c908201527f46756e6374696f6e206d7573742062652063616c6c6564207468726f7567682060408201526b6163746976652070726f787960a01b606082015260800190565b6000808335601e1984360301811261121957600080fd5b8301803591506001600160401b0382111561123357600080fd5b60200191503681900382131561124857600080fd5b9250929050565b60006020828403121561126157600080fd5b610da182611083565b6000808335601e1984360301811261128157600080fd5b8301803591506001600160401b0382111561129b57600080fd5b6020019150600681901b360382131561124857600080fd5b6000808335601e198436030181126112ca57600080fd5b8301803591506001600160401b038211156112e457600080fd5b6020019150600581901b360382131561124857600080fd5b81835281816020850137506000828201602090810191909152601f909101601f19169091010190565b80356001600160601b0381168114610f1557600080fd5b6000813561134981610ef5565b6001600160a01b031683526001600160601b0361136860208401611325565b166020840152505060400190565b80151581146103bd57600080fd5b818352600060208085019450826000805b868110156114005782356113a881611376565b15158852828401356113b981610ef5565b6001600160a01b0316888501526040838101356affffffffffffffffffffff81168082146113e5578485fd5b918a0191909152506060978801979290920191600101611395565b50959695505050505050565b6000808335601e1984360301811261142357600080fd5b83016020810192503590506001600160401b0381111561144257600080fd5b8060061b360382131561124857600080fd5b8183526000602080850194508260005b858110156114ad57813561147781610ef5565b6001600160a01b031687526001600160601b03611495838501611325565b16878401526040968701969190910190600101611464565b509495945050505050565b60008235605e198336030181126114ce57600080fd5b90910192915050565b818352600060208085019450848460051b86018460005b878110156115ae57838303895261150582886114b8565b6060813561151281610ef5565b6001600160a01b031685528187013536839003601e1901811261153457600080fd5b820187810190356001600160401b0381111561154f57600080fd5b828102360382131561156057600080fd5b82898801526115728388018284611384565b9250505060406115848184018461140c565b935086830382880152611598838583611454565b9c89019c965050509286019250506001016114ee565b5090979650505050505050565b60a0815260006115cf60a083018a8c6112fc565b6001600160401b03891660208401526040838203818501528188835260208301905089925060005b8981101561161757611609828561133c565b9383019391506001016115f7565b506001600160a01b0388166060860152848103608086015261163a8187896114d7565b9d9c50505050505050505050505050565b634e487b7160e01b600052603260045260246000fd5b60005b8381101561167c578181015183820152602001611664565b50506000910152565b6000815180845261169d816020860160208601611661565b601f01601f19169290920160200192915050565b60a0815260006116c560a08301888a6112fc565b6020838203818501528188518084528284019150828160051b850101838b0160005b8381101561173e57868303601f19018552815180516001600160a01b03168452868101518785015260409081015160609185018290529061172a81860183611685565b9688019694505050908501906001016116e7565b5050604087018a90526001600160401b038916606088015294506117629350505050565b6001600160401b03831660808301525b979650505050505050565b60006020828403121561178f57600080fd5b5051919050565b81835260208301925060008160005b848110156117c8576117b7868361133c565b9550604091909101906001016117a5565b5093949350505050565b6000808335601e198436030181126117e957600080fd5b83016020810192503590506001600160401b0381111561180857600080fd5b8060051b360382131561124857600080fd5b86815260a06020820152600061183460a0830187896112fc565b6001600160401b038087166040850152808616606085015283820360808501528435601e1986360301811261186857600080fd5b85016020810190358281111561187d57600080fd5b80360382131561188c57600080fd5b60a0845261189e60a0850182846112fc565b925050506118ae60208601611083565b6001600160401b031660208301526118c9604086018661140c565b83830360408501526118dc838284611796565b925050506118ec60608601610f0a565b6001600160a01b0316606083015261190760808601866117d2565b838303608085015261191a8382846114d7565b9c9b505050505050505050505050565b6001600160a01b038681168252851660208201526040810184905260806060820181905260009061177290830184866112fc565b60006020828403121561197057600080fd5b8151610da181611376565b6020808252602b908201527f496e697469616c697a61626c653a20636f6e7472616374206973206e6f74206960408201526a6e697469616c697a696e6760a81b606082015260800190565b600082516119d8818460208701611661565b9190910192915050565b602081526000610da1602083018461168556fe360894a13ba1a3210667c828492db98dca3e2076cc3735a920a3ca505d382bbc416464726573733a206c6f772d6c6576656c2064656c65676174652063616c6c206661696c6564a2646970667358221220d4c3fdba42fbe89633b53f1608bab071f55f9aa5c8185bc9902f95a237bd720564736f6c63430008110033"
}