{
  "address": "0xD187fAa63678397a184c167F4C2B4F3E2b59B090",
  "abi": [
    {
      "inputs": [
        {
          "internalType": "address",
          "name": "dao",
          "type": "address"
        },
        {
          "internalType": "address",
          "name": "where",
          "type": "address"
        },
        {
          "internalType": "address",
          "name": "who",
          "type": "address"
        },
        {
          "internalType": "bytes32",
          "name": "permissionId",
          "type": "bytes32"
        }
      ],
      "name": "DaoUnauthorized",
      "type": "error"
    },
    {
      "inputs": [
        {
          "internalType": "uint64",
          "name": "limit",
          "type": "uint64"
        },
        {
          "internalType": "uint64",
          "name": "actual",
          "type": "uint64"
        }
      ],
      "name": "DateOutOfBounds",
      "type": "error"
    },
    {
      "inputs": [
        {
          "internalType": "uint256",
          "name": "tokenId",
          "type": "uint256"
        }
      ],
      "name": "InvalidTokenlistUpdate",
      "type": "error"
    },
    {
      "inputs": [
        {
          "internalType": "uint64",
          "name": "limit",
          "type": "uint64"
        },
        {
          "internalType": "uint64",
          "name": "actual",
          "type": "uint64"
        }
      ],
      "name": "MinDurationOutOfBounds",
      "type": "error"
    },
    {
      "inputs": [
        {
          "internalType": "uint256",
          "name": "sender",
          "type": "uint256"
        }
      ],
      "name": "ProposalCreationForbidden",
      "type": "error"
    },
    {
      "inputs": [
        {
          "internalType": "uint256",
          "name": "proposalId",
          "type": "uint256"
        }
      ],
      "name": "ProposalExecutionForbidden",
      "type": "error"
    },
    {
      "inputs": [
        {
          "internalType": "uint256",
          "name": "limit",
          "type": "uint256"
        },
        {
          "internalType": "uint256",
          "name": "actual",
          "type": "uint256"
        }
      ],
      "name": "RatioOutOfBounds",
      "type": "error"
    },
    {
      "inputs": [
        {
          "internalType": "uint256",
          "name": "tokenId",
          "type": "uint256"
        },
        {
          "internalType": "address",
          "name": "sender",
          "type": "address"
        }
      ],
      "name": "TokenNotOwnedBySender",
      "type": "error"
    },
    {
      "inputs": [
        {
          "internalType": "uint256",
          "name": "proposalId",
          "type": "uint256"
        },
        {
          "internalType": "uint256",
          "name": "account",
          "type": "uint256"
        },
        {
          "internalType": "enum ITokenMajorityVoting.VoteOption",
          "name": "voteOption",
          "type": "uint8"
        }
      ],
      "name": "VoteCastForbidden",
      "type": "error"
    },
    {
      "anonymous": false,
      "inputs": [
        {
          "indexed": false,
          "internalType": "address",
          "name": "previousAdmin",
          "type": "address"
        },
        {
          "indexed": false,
          "internalType": "address",
          "name": "newAdmin",
          "type": "address"
        }
      ],
      "name": "AdminChanged",
      "type": "event"
    },
    {
      "anonymous": false,
      "inputs": [
        {
          "indexed": true,
          "internalType": "address",
          "name": "beacon",
          "type": "address"
        }
      ],
      "name": "BeaconUpgraded",
      "type": "event"
    },
    {
      "anonymous": false,
      "inputs": [
        {
          "indexed": false,
          "internalType": "uint8",
          "name": "version",
          "type": "uint8"
        }
      ],
      "name": "Initialized",
      "type": "event"
    },
    {
      "anonymous": false,
      "inputs": [
        {
          "indexed": false,
          "internalType": "uint256[]",
          "name": "members",
          "type": "uint256[]"
        }
      ],
      "name": "MembersAdded",
      "type": "event"
    },
    {
      "anonymous": false,
      "inputs": [
        {
          "indexed": false,
          "internalType": "uint256[]",
          "name": "members",
          "type": "uint256[]"
        }
      ],
      "name": "MembersRemoved",
      "type": "event"
    },
    {
      "anonymous": false,
      "inputs": [
        {
          "indexed": true,
          "internalType": "address",
          "name": "definingContract",
          "type": "address"
        }
      ],
      "name": "MembershipContractAnnounced",
      "type": "event"
    },
    {
      "anonymous": false,
      "inputs": [
        {
          "indexed": true,
          "internalType": "uint256",
          "name": "proposalId",
          "type": "uint256"
        },
        {
          "indexed": true,
          "internalType": "address",
          "name": "creator",
          "type": "address"
        },
        {
          "indexed": false,
          "internalType": "uint64",
          "name": "startDate",
          "type": "uint64"
        },
        {
          "indexed": false,
          "internalType": "uint64",
          "name": "endDate",
          "type": "uint64"
        },
        {
          "indexed": false,
          "internalType": "bytes",
          "name": "metadata",
          "type": "bytes"
        },
        {
          "components": [
            {
              "internalType": "address",
              "name": "to",
              "type": "address"
            },
            {
              "internalType": "uint256",
              "name": "value",
              "type": "uint256"
            },
            {
              "internalType": "bytes",
              "name": "data",
              "type": "bytes"
            }
          ],
          "indexed": false,
          "internalType": "struct IDAO.Action[]",
          "name": "actions",
          "type": "tuple[]"
        },
        {
          "indexed": false,
          "internalType": "uint256",
          "name": "allowFailureMap",
          "type": "uint256"
        }
      ],
      "name": "ProposalCreated",
      "type": "event"
    },
    {
      "anonymous": false,
      "inputs": [
        {
          "indexed": true,
          "internalType": "uint256",
          "name": "proposalId",
          "type": "uint256"
        }
      ],
      "name": "ProposalExecuted",
      "type": "event"
    },
    {
      "anonymous": false,
      "inputs": [
        {
          "indexed": false,
          "internalType": "uint256[]",
          "name": "tokens",
          "type": "uint256[]"
        }
      ],
      "name": "TokensAdded",
      "type": "event"
    },
    {
      "anonymous": false,
      "inputs": [
        {
          "indexed": false,
          "internalType": "uint256[]",
          "name": "tokens",
          "type": "uint256[]"
        }
      ],
      "name": "TokensRemoved",
      "type": "event"
    },
    {
      "anonymous": false,
      "inputs": [
        {
          "indexed": true,
          "internalType": "address",
          "name": "implementation",
          "type": "address"
        }
      ],
      "name": "Upgraded",
      "type": "event"
    },
    {
      "anonymous": false,
      "inputs": [
        {
          "indexed": true,
          "internalType": "uint256",
          "name": "proposalId",
          "type": "uint256"
        },
        {
          "indexed": true,
          "internalType": "uint256",
          "name": "voter",
          "type": "uint256"
        },
        {
          "indexed": false,
          "internalType": "enum ITokenMajorityVoting.VoteOption",
          "name": "voteOption",
          "type": "uint8"
        },
        {
          "indexed": false,
          "internalType": "uint256",
          "name": "votingPower",
          "type": "uint256"
        }
      ],
      "name": "VoteCast",
      "type": "event"
    },
    {
      "anonymous": false,
      "inputs": [
        {
          "indexed": false,
          "internalType": "enum TokenMajorityVotingBase.VotingMode",
          "name": "votingMode",
          "type": "uint8"
        },
        {
          "indexed": false,
          "internalType": "uint32",
          "name": "supportThreshold",
          "type": "uint32"
        },
        {
          "indexed": false,
          "internalType": "uint32",
          "name": "minParticipation",
          "type": "uint32"
        },
        {
          "indexed": false,
          "internalType": "uint64",
          "name": "minDuration",
          "type": "uint64"
        },
        {
          "indexed": false,
          "internalType": "uint256",
          "name": "minProposerVotingPower",
          "type": "uint256"
        }
      ],
      "name": "VotingSettingsUpdated",
      "type": "event"
    },
    {
      "inputs": [],
      "name": "UPDATE_MEMBERS_PERMISSION_ID",
      "outputs": [
        {
          "internalType": "bytes32",
          "name": "",
          "type": "bytes32"
        }
      ],
      "stateMutability": "view",
      "type": "function"
    },
    {
      "inputs": [],
      "name": "UPDATE_VOTING_SETTINGS_PERMISSION_ID",
      "outputs": [
        {
          "internalType": "bytes32",
          "name": "",
          "type": "bytes32"
        }
      ],
      "stateMutability": "view",
      "type": "function"
    },
    {
      "inputs": [],
      "name": "UPGRADE_PLUGIN_PERMISSION_ID",
      "outputs": [
        {
          "internalType": "bytes32",
          "name": "",
          "type": "bytes32"
        }
      ],
      "stateMutability": "view",
      "type": "function"
    },
    {
      "inputs": [
        {
          "internalType": "uint256[]",
          "name": "_members",
          "type": "uint256[]"
        }
      ],
      "name": "addMembers",
      "outputs": [],
      "stateMutability": "nonpayable",
      "type": "function"
    },
    {
      "inputs": [
        {
          "internalType": "uint256",
          "name": "_proposalId",
          "type": "uint256"
        }
      ],
      "name": "canExecute",
      "outputs": [
        {
          "internalType": "bool",
          "name": "",
          "type": "bool"
        }
      ],
      "stateMutability": "view",
      "type": "function"
    },
    {
      "inputs": [
        {
          "internalType": "uint256",
          "name": "_proposalId",
          "type": "uint256"
        },
        {
          "internalType": "uint256",
          "name": "_voter",
          "type": "uint256"
        },
        {
          "internalType": "enum ITokenMajorityVoting.VoteOption",
          "name": "_voteOption",
          "type": "uint8"
        }
      ],
      "name": "canVote",
      "outputs": [
        {
          "internalType": "bool",
          "name": "",
          "type": "bool"
        }
      ],
      "stateMutability": "view",
      "type": "function"
    },
    {
      "inputs": [
        {
          "internalType": "bytes",
          "name": "_metadata",
          "type": "bytes"
        },
        {
          "components": [
            {
              "internalType": "address",
              "name": "to",
              "type": "address"
            },
            {
              "internalType": "uint256",
              "name": "value",
              "type": "uint256"
            },
            {
              "internalType": "bytes",
              "name": "data",
              "type": "bytes"
            }
          ],
          "internalType": "struct IDAO.Action[]",
          "name": "_actions",
          "type": "tuple[]"
        },
        {
          "internalType": "uint256",
          "name": "_allowFailureMap",
          "type": "uint256"
        },
        {
          "internalType": "uint64",
          "name": "_startDate",
          "type": "uint64"
        },
        {
          "internalType": "uint64",
          "name": "_endDate",
          "type": "uint64"
        }
      ],
      "name": "createPluginProposal",
      "outputs": [
        {
          "internalType": "uint256",
          "name": "proposalId",
          "type": "uint256"
        }
      ],
      "stateMutability": "nonpayable",
      "type": "function"
    },
    {
      "inputs": [
        {
          "internalType": "bytes",
          "name": "_metadata",
          "type": "bytes"
        },
        {
          "components": [
            {
              "internalType": "address",
              "name": "to",
              "type": "address"
            },
            {
              "internalType": "uint256",
              "name": "value",
              "type": "uint256"
            },
            {
              "internalType": "bytes",
              "name": "data",
              "type": "bytes"
            }
          ],
          "internalType": "struct IDAO.Action[]",
          "name": "_actions",
          "type": "tuple[]"
        },
        {
          "internalType": "uint256",
          "name": "_allowFailureMap",
          "type": "uint256"
        },
        {
          "internalType": "uint64",
          "name": "_startDate",
          "type": "uint64"
        },
        {
          "internalType": "uint64",
          "name": "_endDate",
          "type": "uint64"
        },
        {
          "internalType": "enum ITokenMajorityVoting.VoteOption",
          "name": "_voteOption",
          "type": "uint8"
        },
        {
          "internalType": "bool",
          "name": "_tryEarlyExecution",
          "type": "bool"
        },
        {
          "internalType": "uint256",
          "name": "_tokenId",
          "type": "uint256"
        }
      ],
      "name": "createProposal",
      "outputs": [
        {
          "internalType": "uint256",
          "name": "proposalId",
          "type": "uint256"
        }
      ],
      "stateMutability": "nonpayable",
      "type": "function"
    },
    {
      "inputs": [],
      "name": "dao",
      "outputs": [
        {
          "internalType": "contract IDAO",
          "name": "",
          "type": "address"
        }
      ],
      "stateMutability": "view",
      "type": "function"
    },
    {
      "inputs": [
        {
          "internalType": "uint256",
          "name": "_proposalId",
          "type": "uint256"
        }
      ],
      "name": "execute",
      "outputs": [],
      "stateMutability": "nonpayable",
      "type": "function"
    },
    {
      "inputs": [
        {
          "internalType": "uint256",
          "name": "_proposalId",
          "type": "uint256"
        }
      ],
      "name": "getProposal",
      "outputs": [
        {
          "internalType": "bool",
          "name": "open",
          "type": "bool"
        },
        {
          "internalType": "bool",
          "name": "executed",
          "type": "bool"
        },
        {
          "components": [
            {
              "internalType": "enum TokenMajorityVotingBase.VotingMode",
              "name": "votingMode",
              "type": "uint8"
            },
            {
              "internalType": "uint32",
              "name": "supportThreshold",
              "type": "uint32"
            },
            {
              "internalType": "uint64",
              "name": "startDate",
              "type": "uint64"
            },
            {
              "internalType": "uint64",
              "name": "endDate",
              "type": "uint64"
            },
            {
              "internalType": "uint64",
              "name": "snapshotBlock",
              "type": "uint64"
            },
            {
              "internalType": "uint256",
              "name": "minVotingPower",
              "type": "uint256"
            }
          ],
          "internalType": "struct TokenMajorityVotingBase.ProposalParameters",
          "name": "parameters",
          "type": "tuple"
        },
        {
          "components": [
            {
              "internalType": "uint256",
              "name": "abstain",
              "type": "uint256"
            },
            {
              "internalType": "uint256",
              "name": "yes",
              "type": "uint256"
            },
            {
              "internalType": "uint256",
              "name": "no",
              "type": "uint256"
            }
          ],
          "internalType": "struct TokenMajorityVotingBase.Tally",
          "name": "tally",
          "type": "tuple"
        },
        {
          "components": [
            {
              "internalType": "address",
              "name": "to",
              "type": "address"
            },
            {
              "internalType": "uint256",
              "name": "value",
              "type": "uint256"
            },
            {
              "internalType": "bytes",
              "name": "data",
              "type": "bytes"
            }
          ],
          "internalType": "struct IDAO.Action[]",
          "name": "actions",
          "type": "tuple[]"
        },
        {
          "internalType": "uint256",
          "name": "allowFailureMap",
          "type": "uint256"
        }
      ],
      "stateMutability": "view",
      "type": "function"
    },
    {
      "inputs": [
        {
          "internalType": "uint256",
          "name": "_proposalId",
          "type": "uint256"
        },
        {
          "internalType": "uint256",
          "name": "_voter",
          "type": "uint256"
        }
      ],
      "name": "getVoteOption",
      "outputs": [
        {
          "internalType": "enum ITokenMajorityVoting.VoteOption",
          "name": "",
          "type": "uint8"
        }
      ],
      "stateMutability": "view",
      "type": "function"
    },
    {
      "inputs": [],
      "name": "implementation",
      "outputs": [
        {
          "internalType": "address",
          "name": "",
          "type": "address"
        }
      ],
      "stateMutability": "view",
      "type": "function"
    },
    {
      "inputs": [
        {
          "internalType": "contract IDAO",
          "name": "_dao",
          "type": "address"
        },
        {
          "components": [
            {
              "internalType": "enum TokenMajorityVotingBase.VotingMode",
              "name": "votingMode",
              "type": "uint8"
            },
            {
              "internalType": "uint32",
              "name": "supportThreshold",
              "type": "uint32"
            },
            {
              "internalType": "uint32",
              "name": "minParticipation",
              "type": "uint32"
            },
            {
              "internalType": "uint64",
              "name": "minDuration",
              "type": "uint64"
            },
            {
              "internalType": "uint256",
              "name": "minProposerVotingPower",
              "type": "uint256"
            }
          ],
          "internalType": "struct TokenMajorityVotingBase.VotingSettings",
          "name": "_votingSettings",
          "type": "tuple"
        },
        {
          "internalType": "contract IERC721",
          "name": "_tokenCollection",
          "type": "address"
        },
        {
          "internalType": "uint256[]",
          "name": "_members",
          "type": "uint256[]"
        }
      ],
      "name": "initialize",
      "outputs": [],
      "stateMutability": "nonpayable",
      "type": "function"
    },
    {
      "inputs": [
        {
          "internalType": "uint256",
          "name": "_tokenId",
          "type": "uint256"
        }
      ],
      "name": "isListed",
      "outputs": [
        {
          "internalType": "bool",
          "name": "",
          "type": "bool"
        }
      ],
      "stateMutability": "view",
      "type": "function"
    },
    {
      "inputs": [
        {
          "internalType": "uint256",
          "name": "_tokenId",
          "type": "uint256"
        },
        {
          "internalType": "uint256",
          "name": "_blockNumber",
          "type": "uint256"
        }
      ],
      "name": "isListedAtBlock",
      "outputs": [
        {
          "internalType": "bool",
          "name": "",
          "type": "bool"
        }
      ],
      "stateMutability": "view",
      "type": "function"
    },
    {
      "inputs": [
        {
          "internalType": "uint256",
          "name": "_tokenId",
          "type": "uint256"
        }
      ],
      "name": "isMember",
      "outputs": [
        {
          "internalType": "bool",
          "name": "",
          "type": "bool"
        }
      ],
      "stateMutability": "view",
      "type": "function"
    },
    {
      "inputs": [
        {
          "internalType": "uint256",
          "name": "_proposalId",
          "type": "uint256"
        }
      ],
      "name": "isMinParticipationReached",
      "outputs": [
        {
          "internalType": "bool",
          "name": "",
          "type": "bool"
        }
      ],
      "stateMutability": "view",
      "type": "function"
    },
    {
      "inputs": [
        {
          "internalType": "uint256",
          "name": "_proposalId",
          "type": "uint256"
        }
      ],
      "name": "isSupportThresholdReached",
      "outputs": [
        {
          "internalType": "bool",
          "name": "",
          "type": "bool"
        }
      ],
      "stateMutability": "view",
      "type": "function"
    },
    {
      "inputs": [
        {
          "internalType": "uint256",
          "name": "_proposalId",
          "type": "uint256"
        }
      ],
      "name": "isSupportThresholdReachedEarly",
      "outputs": [
        {
          "internalType": "bool",
          "name": "",
          "type": "bool"
        }
      ],
      "stateMutability": "view",
      "type": "function"
    },
    {
      "inputs": [],
      "name": "minDuration",
      "outputs": [
        {
          "internalType": "uint64",
          "name": "",
          "type": "uint64"
        }
      ],
      "stateMutability": "view",
      "type": "function"
    },
    {
      "inputs": [],
      "name": "minParticipation",
      "outputs": [
        {
          "internalType": "uint32",
          "name": "",
          "type": "uint32"
        }
      ],
      "stateMutability": "view",
      "type": "function"
    },
    {
      "inputs": [],
      "name": "minProposerVotingPower",
      "outputs": [
        {
          "internalType": "uint256",
          "name": "",
          "type": "uint256"
        }
      ],
      "stateMutability": "view",
      "type": "function"
    },
    {
      "inputs": [],
      "name": "pluginType",
      "outputs": [
        {
          "internalType": "enum IPlugin.PluginType",
          "name": "",
          "type": "uint8"
        }
      ],
      "stateMutability": "pure",
      "type": "function"
    },
    {
      "inputs": [],
      "name": "proposalCount",
      "outputs": [
        {
          "internalType": "uint256",
          "name": "",
          "type": "uint256"
        }
      ],
      "stateMutability": "view",
      "type": "function"
    },
    {
      "inputs": [],
      "name": "proxiableUUID",
      "outputs": [
        {
          "internalType": "bytes32",
          "name": "",
          "type": "bytes32"
        }
      ],
      "stateMutability": "view",
      "type": "function"
    },
    {
      "inputs": [
        {
          "internalType": "uint256[]",
          "name": "_members",
          "type": "uint256[]"
        }
      ],
      "name": "removeMembers",
      "outputs": [],
      "stateMutability": "nonpayable",
      "type": "function"
    },
    {
      "inputs": [],
      "name": "supportThreshold",
      "outputs": [
        {
          "internalType": "uint32",
          "name": "",
          "type": "uint32"
        }
      ],
      "stateMutability": "view",
      "type": "function"
    },
    {
      "inputs": [
        {
          "internalType": "bytes4",
          "name": "_interfaceId",
          "type": "bytes4"
        }
      ],
      "name": "supportsInterface",
      "outputs": [
        {
          "internalType": "bool",
          "name": "",
          "type": "bool"
        }
      ],
      "stateMutability": "view",
      "type": "function"
    },
    {
      "inputs": [],
      "name": "tokenlistLength",
      "outputs": [
        {
          "internalType": "uint256",
          "name": "",
          "type": "uint256"
        }
      ],
      "stateMutability": "view",
      "type": "function"
    },
    {
      "inputs": [
        {
          "internalType": "uint256",
          "name": "_blockNumber",
          "type": "uint256"
        }
      ],
      "name": "tokenlistLengthAtBlock",
      "outputs": [
        {
          "internalType": "uint256",
          "name": "",
          "type": "uint256"
        }
      ],
      "stateMutability": "view",
      "type": "function"
    },
    {
      "inputs": [
        {
          "internalType": "uint256",
          "name": "_blockNumber",
          "type": "uint256"
        }
      ],
      "name": "totalVotingPower",
      "outputs": [
        {
          "internalType": "uint256",
          "name": "",
          "type": "uint256"
        }
      ],
      "stateMutability": "view",
      "type": "function"
    },
    {
      "inputs": [
        {
          "components": [
            {
              "internalType": "enum TokenMajorityVotingBase.VotingMode",
              "name": "votingMode",
              "type": "uint8"
            },
            {
              "internalType": "uint32",
              "name": "supportThreshold",
              "type": "uint32"
            },
            {
              "internalType": "uint32",
              "name": "minParticipation",
              "type": "uint32"
            },
            {
              "internalType": "uint64",
              "name": "minDuration",
              "type": "uint64"
            },
            {
              "internalType": "uint256",
              "name": "minProposerVotingPower",
              "type": "uint256"
            }
          ],
          "internalType": "struct TokenMajorityVotingBase.VotingSettings",
          "name": "_votingSettings",
          "type": "tuple"
        }
      ],
      "name": "updateVotingSettings",
      "outputs": [],
      "stateMutability": "nonpayable",
      "type": "function"
    },
    {
      "inputs": [
        {
          "internalType": "address",
          "name": "newImplementation",
          "type": "address"
        }
      ],
      "name": "upgradeTo",
      "outputs": [],
      "stateMutability": "nonpayable",
      "type": "function"
    },
    {
      "inputs": [
        {
          "internalType": "address",
          "name": "newImplementation",
          "type": "address"
        },
        {
          "internalType": "bytes",
          "name": "data",
          "type": "bytes"
        }
      ],
      "name": "upgradeToAndCall",
      "outputs": [],
      "stateMutability": "payable",
      "type": "function"
    },
    {
      "inputs": [
        {
          "internalType": "uint256",
          "name": "_proposalId",
          "type": "uint256"
        },
        {
          "internalType": "enum ITokenMajorityVoting.VoteOption",
          "name": "_voteOption",
          "type": "uint8"
        },
        {
          "internalType": "bool",
          "name": "_tryEarlyExecution",
          "type": "bool"
        },
        {
          "internalType": "uint256",
          "name": "_tokenId",
          "type": "uint256"
        }
      ],
      "name": "vote",
      "outputs": [],
      "stateMutability": "nonpayable",
      "type": "function"
    },
    {
      "inputs": [],
      "name": "votingMode",
      "outputs": [
        {
          "internalType": "enum TokenMajorityVotingBase.VotingMode",
          "name": "",
          "type": "uint8"
        }
      ],
      "stateMutability": "view",
      "type": "function"
    }
  ],
  "numDeployments": 1,
  "bytecode": "0x60a0604052306080523480156200001557600080fd5b506200002062000026565b620000e7565b600054610100900460ff1615620000935760405162461bcd60e51b815260206004820152602760248201527f496e697469616c697a61626c653a20636f6e747261637420697320696e697469604482015266616c697a696e6760c81b606482015260840160405180910390fd5b60005460ff90811614620000e5576000805460ff191660ff9081179091556040519081527f7f26b83ff96e1f2b6a682f133852f6798a09c465da95921460cefb38474024989060200160405180910390a15b565b608051614a346200011f60003960008181610b8401528181610c3401528181610d8901528181610e390152610f7e0152614a346000f3fe60806040526004361061026a5760003560e01c80637c36e8e811610153578063cc63604a116100cb578063e1dff6dc1161007f578063f60046b211610064578063f60046b214610770578063fcce488314610786578063fe0d94c1146107a657600080fd5b8063e1dff6dc14610730578063f29d02791461075057600080fd5b8063d50c7377116100b0578063d50c7377146106db578063d822b172146106fb578063da35c6641461071b57600080fd5b8063cc63604a1461069b578063cf131149146106bb57600080fd5b8063aa52e2c711610122578063c7f758a811610107578063c7f758a814610615578063c9c4bfca14610647578063c9e35e821461067b57600080fd5b8063aa52e2c7146105a8578063b4ed7ec3146105c857600080fd5b80637c36e8e814610527578063853cb478146105485780638a4b00f81461056857806391883dd11461058857600080fd5b80632de55505116101e65780634f1ef286116101b5578063536f9f421161019a578063536f9f42146104b157806356715761146104d15780635c60da1b1461051257600080fd5b80634f1ef2861461048957806352d1902d1461049c57600080fd5b80632de55505146103f45780633659cfe6146104095780634162169f1461042957806341de68301461047557600080fd5b80630dfb278e1161023d5780631fe5d305116102225780631fe5d3051461039257806323b88974146103b257806323d07188146103d257600080fd5b80630dfb278e1461033c5780631befc4051461035e57600080fd5b806301ffc9a71461026f578063047e5aaf146102a4578063054fd2c2146102e65780630de218561461031c575b600080fd5b34801561027b57600080fd5b5061028f61028a366004613800565b6107c6565b60405190151581526020015b60405180910390f35b3480156102b057600080fd5b506102d87ff874984acff9c23f740e19d82270cc9e4c95b5e75332d3ebf7e9c009dbbfe5ee81565b60405190815260200161029b565b3480156102f257600080fd5b506101605465010000000000900463ffffffff165b60405163ffffffff909116815260200161029b565b34801561032857600080fd5b5061028f610337366004613842565b610822565b34801561034857600080fd5b5061035c610357366004613873565b6108d7565b005b34801561036a57600080fd5b506102d87fbba35d41610b7d25c8e486006535c76bd423091563e694d206ae3d71ce949fe581565b34801561039e57600080fd5b5061035c6103ad3660046138f6565b61092f565b3480156103be57600080fd5b506102d86103cd3660046139ca565b610ad8565b3480156103de57600080fd5b506101605460ff165b60405161029b9190613aa9565b34801561040057600080fd5b506102d8610b3d565b34801561041557600080fd5b5061035c610424366004613abc565b610b6d565b34801561043557600080fd5b5060c95473ffffffffffffffffffffffffffffffffffffffff165b60405173ffffffffffffffffffffffffffffffffffffffff909116815260200161029b565b34801561048157600080fd5b5060006103e7565b61035c610497366004613b9d565b610d72565b3480156104a857600080fd5b506102d8610f64565b3480156104bd57600080fd5b506102d86104cc366004613842565b611051565b3480156104dd57600080fd5b50610160546901000000000000000000900467ffffffffffffffff1660405167ffffffffffffffff909116815260200161029b565b34801561051e57600080fd5b5061045061105c565b34801561053357600080fd5b5061016054610100900463ffffffff16610307565b34801561055457600080fd5b506102d8610563366004613c52565b6110a1565b34801561057457600080fd5b5061028f610583366004613842565b611241565b34801561059457600080fd5b506102d86105a3366004613842565b611281565b3480156105b457600080fd5b5061035c6105c3366004613d1f565b61128f565b3480156105d457600080fd5b506106086105e3366004613d65565b600091825261015f602090815260408084209284526006909201905290205460ff1690565b60405161029b9190613d9b565b34801561062157600080fd5b50610635610630366004613842565b6113a3565b60405161029b96959493929190613ea2565b34801561065357600080fd5b506102d87f821b6e3a557148015a918c89e5d092e878a69854a2d1a410635f771bd5a8a3f581565b34801561068757600080fd5b5061028f610696366004613d65565b61162a565b3480156106a757600080fd5b5061028f6106b6366004613842565b61164d565b3480156106c757600080fd5b5061028f6106d6366004613842565b611658565b3480156106e757600080fd5b5061028f6106f6366004613842565b6116ba565b34801561070757600080fd5b5061035c610716366004613f5a565b6116c5565b34801561072757600080fd5b506102d861171a565b34801561073c57600080fd5b5061028f61074b366004613f9c565b611726565b34801561075c57600080fd5b5061035c61076b366004613f5a565b61173d565b34801561077c57600080fd5b50610161546102d8565b34801561079257600080fd5b5061028f6107a1366004613842565b61178d565b3480156107b257600080fd5b5061035c6107c1366004613842565b6117cd565b60007fffffffff0000000000000000000000000000000000000000000000000000000082167f2abfb30b00000000000000000000000000000000000000000000000000000000148061081c575061081c82611818565b92915050565b600081815261015f6020526040812060038101546004820154600183015484929190610870907501000000000000000000000000000000000000000000900467ffffffffffffffff16611051565b61087a9190614000565b6108849190614000565b60018301549091506108a2908290610100900463ffffffff16614013565b600483015460018401546108c490610100900463ffffffff16620f4240614000565b6108ce9190614013565b11949350505050565b60c9547fbba35d41610b7d25c8e486006535c76bd423091563e694d206ae3d71ce949fe5906109229073ffffffffffffffffffffffffffffffffffffffff1630335b846000366118ba565b61092b826119ba565b5050565b600054610100900460ff161580801561094f5750600054600160ff909116105b806109695750303b158015610969575060005460ff166001145b6109fa576040517f08c379a000000000000000000000000000000000000000000000000000000000815260206004820152602e60248201527f496e697469616c697a61626c653a20636f6e747261637420697320616c72656160448201527f647920696e697469616c697a656400000000000000000000000000000000000060648201526084015b60405180910390fd5b600080547fffffffffffffffffffffffffffffffffffffffffffffffffffffffffffffff001660011790558015610a5857600080547fffffffffffffffffffffffffffffffffffffffffffffffffffffffffffff00ff166101001790555b610a63868686611bbd565b610a6d8383611cb0565b8015610ad057600080547fffffffffffffffffffffffffffffffffffffffffffffffffffffffffffff00ff169055604051600181527f7f26b83ff96e1f2b6a682f133852f6798a09c465da95921460cefb38474024989060200160405180910390a15b505050505050565b60c9546000907f1c15d3cf5131706f2e5df605eda2cdbb56eb273e9d22a510f9adba5ee2f7a49c90610b219073ffffffffffffffffffffffffffffffffffffffff163033610919565b610b3089898989898989611dc7565b9998505050505050505050565b6000610b4a610193612002565b7bffffffffffffffffffffffffffffffffffffffffffffffffffffffff16905090565b73ffffffffffffffffffffffffffffffffffffffff7f0000000000000000000000000000000000000000000000000000000000000000163003610c32576040517f08c379a000000000000000000000000000000000000000000000000000000000815260206004820152602c60248201527f46756e6374696f6e206d7573742062652063616c6c6564207468726f7567682060448201527f64656c656761746563616c6c000000000000000000000000000000000000000060648201526084016109f1565b7f000000000000000000000000000000000000000000000000000000000000000073ffffffffffffffffffffffffffffffffffffffff16610ca77f360894a13ba1a3210667c828492db98dca3e2076cc3735a920a3ca505d382bbc5473ffffffffffffffffffffffffffffffffffffffff1690565b73ffffffffffffffffffffffffffffffffffffffff1614610d4a576040517f08c379a000000000000000000000000000000000000000000000000000000000815260206004820152602c60248201527f46756e6374696f6e206d7573742062652063616c6c6564207468726f7567682060448201527f6163746976652070726f7879000000000000000000000000000000000000000060648201526084016109f1565b610d538161205f565b60408051600080825260208201909252610d6f918391906120a5565b50565b73ffffffffffffffffffffffffffffffffffffffff7f0000000000000000000000000000000000000000000000000000000000000000163003610e37576040517f08c379a000000000000000000000000000000000000000000000000000000000815260206004820152602c60248201527f46756e6374696f6e206d7573742062652063616c6c6564207468726f7567682060448201527f64656c656761746563616c6c000000000000000000000000000000000000000060648201526084016109f1565b7f000000000000000000000000000000000000000000000000000000000000000073ffffffffffffffffffffffffffffffffffffffff16610eac7f360894a13ba1a3210667c828492db98dca3e2076cc3735a920a3ca505d382bbc5473ffffffffffffffffffffffffffffffffffffffff1690565b73ffffffffffffffffffffffffffffffffffffffff1614610f4f576040517f08c379a000000000000000000000000000000000000000000000000000000000815260206004820152602c60248201527f46756e6374696f6e206d7573742062652063616c6c6564207468726f7567682060448201527f6163746976652070726f7879000000000000000000000000000000000000000060648201526084016109f1565b610f588261205f565b61092b828260016120a5565b60003073ffffffffffffffffffffffffffffffffffffffff7f0000000000000000000000000000000000000000000000000000000000000000161461102b576040517f08c379a000000000000000000000000000000000000000000000000000000000815260206004820152603860248201527f555550535570677261646561626c653a206d757374206e6f742062652063616c60448201527f6c6564207468726f7567682064656c656761746563616c6c000000000000000060648201526084016109f1565b507f360894a13ba1a3210667c828492db98dca3e2076cc3735a920a3ca505d382bbc5b90565b600061081c82611281565b600061109c7f360894a13ba1a3210667c828492db98dca3e2076cc3735a920a3ca505d382bbc5473ffffffffffffffffffffffffffffffffffffffff1690565b905090565b600033610162546040517f6352211e0000000000000000000000000000000000000000000000000000000081526004810185905273ffffffffffffffffffffffffffffffffffffffff9283169290911690636352211e90602401602060405180830381865afa158015611118573d6000803e3d6000fd5b505050506040513d601f19601f8201168201806040525081019061113c919061402a565b73ffffffffffffffffffffffffffffffffffffffff16146111ab5781335b6040517f0187b43e000000000000000000000000000000000000000000000000000000008152600481019290925273ffffffffffffffffffffffffffffffffffffffff1660248201526044016109f1565b61016154158015906111c357506111c18261178d565b155b156111fd576040517fdc785e65000000000000000000000000000000000000000000000000000000008152600481018390526024016109f1565b61120c8b8b8b8b8b8b8b611dc7565b9050600084600381111561122257611222613a6a565b14611233576112338185858561128f565b9a9950505050505050505050565b600081815261015f60205260408120600281015460038201546005830154600484015461126e9190614047565b6112789190614047565b10159392505050565b600061081c610193836122a4565b33610162546040517f6352211e0000000000000000000000000000000000000000000000000000000081526004810184905273ffffffffffffffffffffffffffffffffffffffff9283169290911690636352211e90602401602060405180830381865afa158015611304573d6000803e3d6000fd5b505050506040513d601f19601f82011682018060405250810190611328919061402a565b73ffffffffffffffffffffffffffffffffffffffff161461134a57803361115a565b61135584828561239b565b611391578381846040517fd64056a80000000000000000000000000000000000000000000000000000000081526004016109f19392919061405a565b61139d8484838561248b565b50505050565b6040805160c081018252600080825260208201819052918101829052606081018290526080810182905260a0810182905281906113fa60405180606001604052806000815260200160008152602001600081525090565b600085815261015f602052604081206060919061141681612686565b81546040805160c08101909152600184018054939a5060ff928316995090929091839116600281111561144b5761144b613a6a565b600281111561145c5761145c613a6a565b8152815463ffffffff61010082041660208084019190915267ffffffffffffffff65010000000000830481166040808601919091526d0100000000000000000000000000840482166060808701919091527501000000000000000000000000000000000000000000909404909116608085015260019094015460a090930192909252825190810183526003850154815260048501548183015260058501548184015260078501805484518185028101850190955280855294995090975091929060009084015b828210156116135760008481526020908190206040805160608101825260038602909201805473ffffffffffffffffffffffffffffffffffffffff1683526001810154938301939093526002830180549293929184019161158290614075565b80601f01602080910402602001604051908101604052809291908181526020018280546115ae90614075565b80156115fb5780601f106115d0576101008083540402835291602001916115fb565b820191906000526020600020905b8154815290600101906020018083116115de57829003601f168201915b50505050508152505081526020019060010190611522565b505050509250806008015491505091939550919395565b60008281526101926020526040812061164390836122a4565b6001149392505050565b600061081c826126f4565b600081815261015f60205260408120600581015460018201546116869190610100900463ffffffff16614013565b600482015460018301546116a890610100900463ffffffff16620f4240614000565b6116b29190614013565b119392505050565b600061081c8261178d565b60c9547ff874984acff9c23f740e19d82270cc9e4c95b5e75332d3ebf7e9c009dbbfe5ee9061170b9073ffffffffffffffffffffffffffffffffffffffff163033610919565b611715838361279c565b505050565b600061109c61012d5490565b600061173384848461239b565b90505b9392505050565b60c9547ff874984acff9c23f740e19d82270cc9e4c95b5e75332d3ebf7e9c009dbbfe5ee906117839073ffffffffffffffffffffffffffffffffffffffff163033610919565b6117158383611cb0565b6000818152610192602052604081206117a590612002565b7bffffffffffffffffffffffffffffffffffffffffffffffffffffffff166001149050919050565b6117d6816126f4565b61180f576040517f9fefd0f1000000000000000000000000000000000000000000000000000000008152600481018290526024016109f1565b610d6f8161283b565b60007fffffffff0000000000000000000000000000000000000000000000000000000082167f9ffe34470000000000000000000000000000000000000000000000000000000014806118ab57507fffffffff0000000000000000000000000000000000000000000000000000000082167ffccdad9e00000000000000000000000000000000000000000000000000000000145b8061081c575061081c826129db565b6040517ffdef910600000000000000000000000000000000000000000000000000000000815273ffffffffffffffffffffffffffffffffffffffff87169063fdef910690611914908890889088908890889060040161410b565b602060405180830381865afa158015611931573d6000803e3d6000fd5b505050506040513d601f19601f820116820180604052508101906119559190614156565b610ad0576040517f32dbe3b400000000000000000000000000000000000000000000000000000000815273ffffffffffffffffffffffffffffffffffffffff8088166004830152808716602483015285166044820152606481018490526084016109f1565b6119c86001620f4240614000565b6119d86040830160208401614185565b63ffffffff161115611a43576119f26001620f4240614000565b611a026040830160208401614185565b6040517fcc80c195000000000000000000000000000000000000000000000000000000008152600481019290925263ffffffff1660248201526044016109f1565b620f4240611a576060830160408401614185565b63ffffffff161115611a7757620f4240611a026060830160408401614185565b610e10611a8a60808301606084016141a2565b67ffffffffffffffff161015611af357610e10611aad60808301606084016141a2565b6040517fc51033ee00000000000000000000000000000000000000000000000000000000815267ffffffffffffffff9283166004820152911660248201526044016109f1565b6301e13380611b0860808301606084016141a2565b67ffffffffffffffff161115611b2d576301e13380611aad60808301606084016141a2565b80610160611b3b82826141d9565b507fa8a18d06ddd19f24a872740e3d364c86f62be25f7154525dda18ef07fda46f3e9050611b6c602083018361430a565b611b7c6040840160208501614185565b611b8c6060850160408601614185565b611b9c60808601606087016141a2565b8560800135604051611bb2959493929190614327565b60405180910390a150565b600054610100900460ff16611c54576040517f08c379a000000000000000000000000000000000000000000000000000000000815260206004820152602b60248201527f496e697469616c697a61626c653a20636f6e7472616374206973206e6f74206960448201527f6e697469616c697a696e6700000000000000000000000000000000000000000060648201526084016109f1565b611c5d83612a31565b611c66826119ba565b61016280547fffffffffffffffffffffffff00000000000000000000000000000000000000001673ffffffffffffffffffffffffffffffffffffffff929092169190911790555050565b60005b81811015611d7857611cdc838383818110611cd057611cd0614363565b9050602002013561178d565b15611d2f57828282818110611cf357611cf3614363565b905060200201356040517f7ab0b3a50000000000000000000000000000000000000000000000000000000081526004016109f191815260200190565b611d6e60016101926000868686818110611d4b57611d4b614363565b905060200201358152602001908152602001600020612ad190919063ffffffff16565b5050600101611cb3565b50611d88610193612b1c83612b20565b50507fe34b7735099414da6660fcd312ed4e89c9da25c599a838872099c7b7ded804308282604051611dbb929190614392565b60405180910390a15050565b6000806001611dd543612b6d565b039050611de28484612c0b565b9094509250611df7338a8a87878c8c8c612d4c565b600081815261015f602052604090206001810180547fffffffffffffffffffffff00000000000000000000000000000000ffffffffff166501000000000067ffffffffffffffff898116919091027fffffffffffffffffffffff0000000000000000ffffffffffffffffffffffffff16919091176d010000000000000000000000000088831602177fffffff0000000000000000ffffffffffffffffffffffffffffffffffffffffff16750100000000000000000000000000000000000000000091861691909102179055610160549193509060ff166001808301805490917fffffffffffffffffffffffffffffffffffffffffffffffffffffffffffffff0090911690836002811115611f0d57611f0d613a6a565b0217905550610160546001820180547fffffffffffffffffffffffffffffffffffffffffffffffffffffff00000000ff1663ffffffff6101009384900416909202919091179055611f82611f6a67ffffffffffffffff8416611051565b6101605465010000000000900463ffffffff16612dbf565b60028201558515611f9557600881018690555b60005b87811015611ff45781600701898983818110611fb657611fb6614363565b9050602002810190611fc891906143e4565b815460018101835560009283526020909220909160030201611fea8282614468565b5050600101611f98565b505050979650505050505050565b805460009080156120565761202a8361201c600184614000565b600091825260209091200190565b5464010000000090047bffffffffffffffffffffffffffffffffffffffffffffffffffffffff16611736565b60009392505050565b60c9547f821b6e3a557148015a918c89e5d092e878a69854a2d1a410635f771bd5a8a3f59061092b9073ffffffffffffffffffffffffffffffffffffffff163033610919565b7f4910fdfa16fed3260ed0e7147f7cc6da11a60208b5b9406d12a635614ffd91435460ff16156120d85761171583612e4f565b8273ffffffffffffffffffffffffffffffffffffffff166352d1902d6040518163ffffffff1660e01b8152600401602060405180830381865afa92505050801561215d575060408051601f3d9081017fffffffffffffffffffffffffffffffffffffffffffffffffffffffffffffffe016820190925261215a91810190614629565b60015b6121e9576040517f08c379a000000000000000000000000000000000000000000000000000000000815260206004820152602e60248201527f45524331393637557067726164653a206e657720696d706c656d656e7461746960448201527f6f6e206973206e6f74205555505300000000000000000000000000000000000060648201526084016109f1565b7f360894a13ba1a3210667c828492db98dca3e2076cc3735a920a3ca505d382bbc8114612298576040517f08c379a000000000000000000000000000000000000000000000000000000000815260206004820152602960248201527f45524331393637557067726164653a20756e737570706f727465642070726f7860448201527f6961626c6555554944000000000000000000000000000000000000000000000060648201526084016109f1565b50611715838383612f59565b600043821061230f576040517f08c379a000000000000000000000000000000000000000000000000000000000815260206004820181905260248201527f436865636b706f696e74733a20626c6f636b206e6f7420796574206d696e656460448201526064016109f1565b600061231a83612f7e565b8454909150600061232d86848385613014565b90508015612370576123448661201c600184614000565b5464010000000090047bffffffffffffffffffffffffffffffffffffffffffffffffffffffff16612373565b60005b7bffffffffffffffffffffffffffffffffffffffffffffffffffffffff169695505050505050565b600083815261015f602052604081206123b381612686565b6123c1576000915050611736565b60008360038111156123d5576123d5613a6a565b036123e4576000915050611736565b60018101546124179085907501000000000000000000000000000000000000000000900467ffffffffffffffff1661162a565b612425576000915050611736565b600084815260068201602052604081205460ff16600381111561244a5761244a613a6a565b1415801561247157506002600182015460ff16600281111561246e5761246e613a6a565b14155b15612480576000915050611736565b506001949350505050565b600084815261015f60209081526040808320858452600681019092529091205460ff1660028160038111156124c2576124c2613a6a565b036124e25760048201546124d890600190614000565b6004830155612546565b60038160038111156124f6576124f6613a6a565b0361251657600582015461250c90600190614000565b6005830155612546565b600181600381111561252a5761252a613a6a565b0361254657600382015461254090600190614000565b60038301555b600285600381111561255a5761255a613a6a565b0361257957600482015461256f906001614047565b60048301556125db565b600385600381111561258d5761258d613a6a565b036125ac5760058201546125a2906001614047565b60058301556125db565b60018560038111156125c0576125c0613a6a565b036125db5760038201546125d5906001614047565b60038301555b6000848152600683016020526040902080548691907fffffffffffffffffffffffffffffffffffffffffffffffffffffffffffffff0016600183600381111561262657612626613a6a565b021790555083867fad568ed61bf7091b7786ac87d74f01328c2be1bc083d681d151edfcc3ebdfe3d87600160405161265f929190614642565b60405180910390a38280156126785750612678866126f4565b15610ad057610ad08661283b565b60008061269242612b6d565b600184015490915067ffffffffffffffff8083166501000000000090920416118015906126e15750600183015467ffffffffffffffff6d01000000000000000000000000009091048116908216105b8015611736575050905460ff1615919050565b600081815261015f60205260408120805460ff16156127165750600092915050565b61271f81612686565b156127675760018082015460ff16600281111561273e5761273e613a6a565b1461274c5750600092915050565b61275583610822565b6127625750600092915050565b61277d565b61277083611658565b61277d5750600092915050565b61278683611241565b6127935750600092915050565b50600192915050565b60005b818110156127f8576127bc838383818110611cd057611cd0614363565b6127d257828282818110611cf357611cf3614363565b6127ee60006101926000868686818110611d4b57611d4b614363565b505060010161279f565b5061280861019361307583612b20565b50507f5c5d1acd08aa7a519a90f8fa1a36eb31c8bafe7db8e195036b15136d52aa3b098282604051611dbb929190614392565b600081815261015f6020526040902080547fffffffffffffffffffffffffffffffffffffffffffffffffffffffffffffff0016600117905561171561289560c95473ffffffffffffffffffffffffffffffffffffffff1690565b8261015f6000858152602001908152602001600020600701805480602002602001604051908101604052809291908181526020016000905b828210156129be5760008481526020908190206040805160608101825260038602909201805473ffffffffffffffffffffffffffffffffffffffff1683526001810154938301939093526002830180549293929184019161292d90614075565b80601f016020809104026020016040519081016040528092919081815260200182805461295990614075565b80156129a65780601f1061297b576101008083540402835291602001916129a6565b820191906000526020600020905b81548152906001019060200180831161298957829003601f168201915b505050505081525050815260200190600101906128cd565b505050600086815261015f6020526040902060080154905061307a565b60007fffffffff0000000000000000000000000000000000000000000000000000000082167fda35c66400000000000000000000000000000000000000000000000000000000148061081c575061081c82613174565b600054610100900460ff16612ac8576040517f08c379a000000000000000000000000000000000000000000000000000000000815260206004820152602b60248201527f496e697469616c697a61626c653a20636f6e7472616374206973206e6f74206960448201527f6e697469616c697a696e6700000000000000000000000000000000000000000060648201526084016109f1565b610d6f81613257565b600080612aef84612ae143612f7e565b612aea86613335565b6133e3565b7bffffffffffffffffffffffffffffffffffffffffffffffffffffffff91821693501690505b9250929050565b0190565b600080612b6085612b5b612b3388612002565b7bffffffffffffffffffffffffffffffffffffffffffffffffffffffff16868863ffffffff16565b612ad1565b915091505b935093915050565b600067ffffffffffffffff821115612c07576040517f08c379a000000000000000000000000000000000000000000000000000000000815260206004820152602660248201527f53616665436173743a2076616c756520646f65736e27742066697420696e203660448201527f342062697473000000000000000000000000000000000000000000000000000060648201526084016109f1565b5090565b6000806000612c1942612b6d565b90508467ffffffffffffffff16600003612c3557809250612c9a565b8492508067ffffffffffffffff168367ffffffffffffffff161015612c9a576040517f4cc9c0f400000000000000000000000000000000000000000000000000000000815267ffffffffffffffff8083166004830152841660248201526044016109f1565b61016054600090612cc2906901000000000000000000900467ffffffffffffffff168561465d565b90508467ffffffffffffffff16600003612cde57809250612d43565b8492508067ffffffffffffffff168367ffffffffffffffff161015612d43576040517f4cc9c0f400000000000000000000000000000000000000000000000000000000815267ffffffffffffffff8083166004830152841660248201526044016109f1565b50509250929050565b6000612d566135f4565b90508873ffffffffffffffffffffffffffffffffffffffff16817fa6c1f8f4276dc3f243459e13b557c84e8f4e90b2e09070bad5f6909cee687c9288888c8c8a8a8a604051612dab979695949392919061467e565b60405180910390a398975050505050505050565b6000620f4240821115612e0a576040517fcc80c195000000000000000000000000000000000000000000000000000000008152620f42406004820152602481018390526044016109f1565b612e148284614013565b92506000612e25620f424085614823565b9050612e34620f424085614837565b91508015612e4857612e458261484b565b91505b5092915050565b73ffffffffffffffffffffffffffffffffffffffff81163b612ef3576040517f08c379a000000000000000000000000000000000000000000000000000000000815260206004820152602d60248201527f455243313936373a206e657720696d706c656d656e746174696f6e206973206e60448201527f6f74206120636f6e74726163740000000000000000000000000000000000000060648201526084016109f1565b7f360894a13ba1a3210667c828492db98dca3e2076cc3735a920a3ca505d382bbc80547fffffffffffffffffffffffff00000000000000000000000000000000000000001673ffffffffffffffffffffffffffffffffffffffff92909216919091179055565b612f628361360f565b600082511180612f6f5750805b156117155761139d838361365c565b600063ffffffff821115612c07576040517f08c379a000000000000000000000000000000000000000000000000000000000815260206004820152602660248201527f53616665436173743a2076616c756520646f65736e27742066697420696e203360448201527f322062697473000000000000000000000000000000000000000000000000000060648201526084016109f1565b60005b8183101561306a57600061302b8484613681565b60008781526020902090915063ffffffff86169082015463ffffffff16111561305657809250613064565b613061816001614047565b93505b50613017565b50805b949350505050565b900390565b6040517fc71bf32400000000000000000000000000000000000000000000000000000000815260609060009073ffffffffffffffffffffffffffffffffffffffff87169063c71bf324906130d690889088908890600401614883565b6000604051808303816000875af11580156130f5573d6000803e3d6000fd5b505050506040513d6000823e601f3d9081017fffffffffffffffffffffffffffffffffffffffffffffffffffffffffffffffe016820160405261313b91908101906148ac565b604051919350915085907f712ae1383f79ac853f8d882153778e0260ef8f03b504e2866e0593e04d2b291f90600090a294509492505050565b60007fffffffff0000000000000000000000000000000000000000000000000000000082167f41de683000000000000000000000000000000000000000000000000000000000148061320757507fffffffff0000000000000000000000000000000000000000000000000000000082167f52d1902d00000000000000000000000000000000000000000000000000000000145b8061081c57507f01ffc9a7000000000000000000000000000000000000000000000000000000007fffffffff0000000000000000000000000000000000000000000000000000000083161461081c565b600054610100900460ff166132ee576040517f08c379a000000000000000000000000000000000000000000000000000000000815260206004820152602b60248201527f496e697469616c697a61626c653a20636f6e7472616374206973206e6f74206960448201527f6e697469616c697a696e6700000000000000000000000000000000000000000060648201526084016109f1565b60c980547fffffffffffffffffffffffff00000000000000000000000000000000000000001673ffffffffffffffffffffffffffffffffffffffff92909216919091179055565b60007bffffffffffffffffffffffffffffffffffffffffffffffffffffffff821115612c07576040517f08c379a000000000000000000000000000000000000000000000000000000000815260206004820152602760248201527f53616665436173743a2076616c756520646f65736e27742066697420696e203260448201527f323420626974730000000000000000000000000000000000000000000000000060648201526084016109f1565b8254600090819080156135855760006134018761201c600185614000565b60408051808201909152905463ffffffff8082168084526401000000009092047bffffffffffffffffffffffffffffffffffffffffffffffffffffffff16602084015291925090871610156134b2576040517f08c379a000000000000000000000000000000000000000000000000000000000815260206004820152601b60248201527f436865636b706f696e743a2064656372656173696e67206b657973000000000060448201526064016109f1565b805163ffffffff80881691160361351057846134d38861201c600186614000565b80547bffffffffffffffffffffffffffffffffffffffffffffffffffffffff929092166401000000000263ffffffff909216919091179055613575565b6040805180820190915263ffffffff80881682527bffffffffffffffffffffffffffffffffffffffffffffffffffffffff80881660208085019182528b54600181018d5560008d81529190912094519151909216640100000000029216919091179101555b602001519250839150612b659050565b50506040805180820190915263ffffffff80851682527bffffffffffffffffffffffffffffffffffffffffffffffffffffffff80851660208085019182528854600181018a5560008a815291822095519251909316640100000000029190931617920191909155905081612b65565b60006135fe61171a565b905061104e61012d80546001019055565b61361881612e4f565b60405173ffffffffffffffffffffffffffffffffffffffff8216907fbc7cd75a20ee27fd9adebab32041f755214dbc6bffa90cc0225b39da2e5c2d3b90600090a250565b606061173683836040518060600160405280602781526020016149d86027913961369c565b60006136906002848418614837565b61173690848416614047565b60606000808573ffffffffffffffffffffffffffffffffffffffff16856040516136c691906149b2565b600060405180830381855af49150503d8060008114613701576040519150601f19603f3d011682016040523d82523d6000602084013e613706565b606091505b509150915061371786838387613721565b9695505050505050565b606083156137b75782516000036137b05773ffffffffffffffffffffffffffffffffffffffff85163b6137b0576040517f08c379a000000000000000000000000000000000000000000000000000000000815260206004820152601d60248201527f416464726573733a2063616c6c20746f206e6f6e2d636f6e747261637400000060448201526064016109f1565b508161306d565b61306d83838151156137cc5781518083602001fd5b806040517f08c379a00000000000000000000000000000000000000000000000000000000081526004016109f191906149c4565b60006020828403121561381257600080fd5b81357fffffffff000000000000000000000000000000000000000000000000000000008116811461173657600080fd5b60006020828403121561385457600080fd5b5035919050565b600060a0828403121561386d57600080fd5b50919050565b600060a0828403121561388557600080fd5b611736838361385b565b73ffffffffffffffffffffffffffffffffffffffff81168114610d6f57600080fd5b60008083601f8401126138c357600080fd5b50813567ffffffffffffffff8111156138db57600080fd5b6020830191508360208260051b8501011115612b1557600080fd5b6000806000806000610100868803121561390f57600080fd5b853561391a8161388f565b9450613929876020880161385b565b935060c08601356139398161388f565b925060e086013567ffffffffffffffff81111561395557600080fd5b613961888289016138b1565b969995985093965092949392505050565b60008083601f84011261398457600080fd5b50813567ffffffffffffffff81111561399c57600080fd5b602083019150836020828501011115612b1557600080fd5b67ffffffffffffffff81168114610d6f57600080fd5b600080600080600080600060a0888a0312156139e557600080fd5b873567ffffffffffffffff808211156139fd57600080fd5b613a098b838c01613972565b909950975060208a0135915080821115613a2257600080fd5b50613a2f8a828b016138b1565b909650945050604088013592506060880135613a4a816139b4565b91506080880135613a5a816139b4565b8091505092959891949750929550565b7f4e487b7100000000000000000000000000000000000000000000000000000000600052602160045260246000fd5b60038110610d6f57610d6f613a6a565b60208101613ab683613a99565b91905290565b600060208284031215613ace57600080fd5b81356117368161388f565b7f4e487b7100000000000000000000000000000000000000000000000000000000600052604160045260246000fd5b604051601f82017fffffffffffffffffffffffffffffffffffffffffffffffffffffffffffffffe016810167ffffffffffffffff81118282101715613b4f57613b4f613ad9565b604052919050565b600067ffffffffffffffff821115613b7157613b71613ad9565b50601f017fffffffffffffffffffffffffffffffffffffffffffffffffffffffffffffffe01660200190565b60008060408385031215613bb057600080fd5b8235613bbb8161388f565b9150602083013567ffffffffffffffff811115613bd757600080fd5b8301601f81018513613be857600080fd5b8035613bfb613bf682613b57565b613b08565b818152866020838501011115613c1057600080fd5b816020840160208301376000602083830101528093505050509250929050565b803560048110613c3f57600080fd5b919050565b8015158114610d6f57600080fd5b6000806000806000806000806000806101008b8d031215613c7257600080fd5b8a3567ffffffffffffffff80821115613c8a57600080fd5b613c968e838f01613972565b909c509a5060208d0135915080821115613caf57600080fd5b50613cbc8d828e016138b1565b90995097505060408b0135955060608b0135613cd7816139b4565b945060808b0135613ce7816139b4565b9350613cf560a08c01613c30565b925060c08b0135613d0581613c44565b8092505060e08b013590509295989b9194979a5092959850565b60008060008060808587031215613d3557600080fd5b84359350613d4560208601613c30565b92506040850135613d5581613c44565b9396929550929360600135925050565b60008060408385031215613d7857600080fd5b50508035926020909101359150565b60048110613d9757613d97613a6a565b9052565b6020810161081c8284613d87565b60005b83811015613dc4578181015183820152602001613dac565b50506000910152565b60008151808452613de5816020860160208601613da9565b601f017fffffffffffffffffffffffffffffffffffffffffffffffffffffffffffffffe0169290920160200192915050565b600081518084526020808501808196508360051b8101915082860160005b85811015613e955782840389528151805173ffffffffffffffffffffffffffffffffffffffff1685528581015186860152604090810151606091860182905290613e8181870183613dcd565b9a87019a9550505090840190600101613e35565b5091979650505050505050565b60006101a0881515835287151560208401528651613ebf81613a99565b8060408501525063ffffffff6020880151166060840152604087015167ffffffffffffffff80821660808601528060608a01511660a08601528060808a01511660c0860152505060a087015160e0840152613f326101008401878051825260208082015190830152604090810151910152565b80610160840152613f4581840186613e17565b91505082610180830152979650505050505050565b60008060208385031215613f6d57600080fd5b823567ffffffffffffffff811115613f8457600080fd5b613f90858286016138b1565b90969095509350505050565b600080600060608486031215613fb157600080fd5b8335925060208401359150613fc860408501613c30565b90509250925092565b7f4e487b7100000000000000000000000000000000000000000000000000000000600052601160045260246000fd5b8181038181111561081c5761081c613fd1565b808202811582820484141761081c5761081c613fd1565b60006020828403121561403c57600080fd5b81516117368161388f565b8082018082111561081c5761081c613fd1565b838152602081018390526060810161306d6040830184613d87565b600181811c9082168061408957607f821691505b60208210810361386d577f4e487b7100000000000000000000000000000000000000000000000000000000600052602260045260246000fd5b8183528181602085013750600060208284010152600060207fffffffffffffffffffffffffffffffffffffffffffffffffffffffffffffffe0601f840116840101905092915050565b600073ffffffffffffffffffffffffffffffffffffffff80881683528087166020840152508460408301526080606083015261414b6080830184866140c2565b979650505050505050565b60006020828403121561416857600080fd5b815161173681613c44565b63ffffffff81168114610d6f57600080fd5b60006020828403121561419757600080fd5b813561173681614173565b6000602082840312156141b457600080fd5b8135611736816139b4565b60038110610d6f57600080fd5b6000813561081c816139b4565b81356141e4816141bf565b6141ed81613a99565b815460ff82169150817fffffffffffffffffffffffffffffffffffffffffffffffffffffffffffffff008216178355602084013561422a81614173565b64ffffffff008160081b16905080837fffffffffffffffffffffffffffffffffffffffffffffffffffffff0000000000841617178455604085013561426e81614173565b68ffffffff00000000008160281b16847fffffffffffffffffffffffffffffffffffffffffffffff0000000000000000008516178317178555505050506142fc6142ba606084016141cc565b82547fffffffffffffffffffffffffffffff0000000000000000ffffffffffffffffff1660489190911b70ffffffffffffffff00000000000000000016178255565b608082013560018201555050565b60006020828403121561431c57600080fd5b8135611736816141bf565b60a0810161433487613a99565b95815263ffffffff948516602082015292909316604083015267ffffffffffffffff1660608201526080015290565b7f4e487b7100000000000000000000000000000000000000000000000000000000600052603260045260246000fd5b6020815281602082015260007f07ffffffffffffffffffffffffffffffffffffffffffffffffffffffffffffff8311156143cb57600080fd5b8260051b80856040850137919091016040019392505050565b600082357fffffffffffffffffffffffffffffffffffffffffffffffffffffffffffffffa183360301811261441857600080fd5b9190910192915050565b601f82111561171557600081815260208120601f850160051c810160208610156144495750805b601f850160051c820191505b81811015610ad057828155600101614455565b81356144738161388f565b73ffffffffffffffffffffffffffffffffffffffff81167fffffffffffffffffffffffff0000000000000000000000000000000000000000835416178255506001602080840135828401556002830160408501357fffffffffffffffffffffffffffffffffffffffffffffffffffffffffffffffe18636030181126144f757600080fd5b8501803567ffffffffffffffff81111561451057600080fd5b803603848301131561452157600080fd5b6145358161452f8554614075565b85614422565b6000601f821160018114614589576000831561455357508382018601355b7fffffffffffffffffffffffffffffffffffffffffffffffffffffffffffffffff600385901b1c1916600184901b17855561461e565b6000858152602090207fffffffffffffffffffffffffffffffffffffffffffffffffffffffffffffffe0841690835b828110156145d7578685018901358255938801939089019088016145b8565b5084821015614614577fffffffffffffffffffffffffffffffffffffffffffffffffffffffffffffffff60f88660031b161c198885880101351681555b50508683881b0185555b505050505050505050565b60006020828403121561463b57600080fd5b5051919050565b604081016146508285613d87565b8260208301529392505050565b67ffffffffffffffff818116838216019080821115612e4857612e48613fd1565b600067ffffffffffffffff808a1683526020818a1681850152604060a0818601526146ad60a086018a8c6140c2565b606086820381880152818983528483019050848a60051b8401018b60005b8c8110156147d6577fffffffffffffffffffffffffffffffffffffffffffffffffffffffffffffffe086840301845281357fffffffffffffffffffffffffffffffffffffffffffffffffffffffffffffffa18f360301811261472c57600080fd5b8e0180356147398161388f565b73ffffffffffffffffffffffffffffffffffffffff168452808901358985015287810135368290037fffffffffffffffffffffffffffffffffffffffffffffffffffffffffffffffe101811261478e57600080fd5b0188810190358a8111156147a157600080fd5b8036038213156147b057600080fd5b86898601526147c287860182846140c2565b958a019594505050908701906001016146cb565b50508097505050505050505082608083015298975050505050505050565b7f4e487b7100000000000000000000000000000000000000000000000000000000600052601260045260246000fd5b600082614832576148326147f4565b500690565b600082614846576148466147f4565b500490565b60007fffffffffffffffffffffffffffffffffffffffffffffffffffffffffffffffff820361487c5761487c613fd1565b5060010190565b83815260606020820152600061489c6060830185613e17565b9050826040830152949350505050565b60008060408084860312156148c057600080fd5b835167ffffffffffffffff808211156148d857600080fd5b818601915086601f8301126148ec57600080fd5b815160208282111561490057614900613ad9565b8160051b61490f828201613b08565b928352848101820192828101908b85111561492957600080fd5b83870192505b8483101561499e578251868111156149475760008081fd5b8701603f81018d136149595760008081fd5b84810151614969613bf682613b57565b8181528e8b83850101111561497e5760008081fd5b61498d828883018d8601613da9565b84525050918301919083019061492f565b9990920151989a9899505050505050505050565b60008251614418818460208701613da9565b6020815260006117366020830184613dcd56fe416464726573733a206c6f772d6c6576656c2064656c65676174652063616c6c206661696c6564a26469706673582212200883a40c7c0125929d1d815d680badfb44f4d9bb10afbb6282b014d821dfe23764736f6c63430008110033"
}