{
  "address": "0x2d44D12E087dBd9e89978cb87BD2A754b9300B2f",
  "abi": [
    {
      "inputs": [
        {
          "internalType": "address",
          "name": "dao",
          "type": "address"
        },
        {
          "internalType": "address",
          "name": "where",
          "type": "address"
        },
        {
          "internalType": "address",
          "name": "who",
          "type": "address"
        },
        {
          "internalType": "bytes32",
          "name": "permissionId",
          "type": "bytes32"
        }
      ],
      "name": "DaoUnauthorized",
      "type": "error"
    },
    {
      "inputs": [],
      "name": "TransferToDAOError",
      "type": "error"
    },
    {
      "inputs": [],
      "name": "Underpaying",
      "type": "error"
    },
    {
      "anonymous": false,
      "inputs": [
        {
          "indexed": false,
          "internalType": "address",
          "name": "previousAdmin",
          "type": "address"
        },
        {
          "indexed": false,
          "internalType": "address",
          "name": "newAdmin",
          "type": "address"
        }
      ],
      "name": "AdminChanged",
      "type": "event"
    },
    {
      "anonymous": false,
      "inputs": [
        {
          "indexed": true,
          "internalType": "address",
          "name": "beacon",
          "type": "address"
        }
      ],
      "name": "BeaconUpgraded",
      "type": "event"
    },
    {
      "anonymous": false,
      "inputs": [
        {
          "indexed": false,
          "internalType": "uint8",
          "name": "version",
          "type": "uint8"
        }
      ],
      "name": "Initialized",
      "type": "event"
    },
    {
      "anonymous": false,
      "inputs": [
        {
          "indexed": true,
          "internalType": "address",
          "name": "implementation",
          "type": "address"
        }
      ],
      "name": "Upgraded",
      "type": "event"
    },
    {
      "inputs": [],
      "name": "UPGRADE_PLUGIN_PERMISSION_ID",
      "outputs": [
        {
          "internalType": "bytes32",
          "name": "",
          "type": "bytes32"
        }
      ],
      "stateMutability": "view",
      "type": "function"
    },
    {
      "inputs": [
        {
          "internalType": "bytes",
          "name": "_metadata",
          "type": "bytes"
        },
        {
          "internalType": "uint64",
          "name": "_startDate",
          "type": "uint64"
        },
        {
          "internalType": "uint64",
          "name": "_endDate",
          "type": "uint64"
        },
        {
          "internalType": "uint256",
          "name": "_taskId",
          "type": "uint256"
        },
        {
          "internalType": "uint88[]",
          "name": "_partialReward",
          "type": "uint88[]"
        },
        {
          "internalType": "uint96[]",
          "name": "_partialNativeReward",
          "type": "uint96[]"
        }
      ],
      "name": "createDispute",
      "outputs": [],
      "stateMutability": "payable",
      "type": "function"
    },
    {
      "inputs": [],
      "name": "dao",
      "outputs": [
        {
          "internalType": "contract IDAO",
          "name": "",
          "type": "address"
        }
      ],
      "stateMutability": "view",
      "type": "function"
    },
    {
      "inputs": [],
      "name": "getDisputeCost",
      "outputs": [
        {
          "internalType": "uint256",
          "name": "",
          "type": "uint256"
        }
      ],
      "stateMutability": "view",
      "type": "function"
    },
    {
      "inputs": [],
      "name": "getGovernanceContract",
      "outputs": [
        {
          "internalType": "contract IPluginProposals",
          "name": "",
          "type": "address"
        }
      ],
      "stateMutability": "view",
      "type": "function"
    },
    {
      "inputs": [],
      "name": "getTasksContract",
      "outputs": [
        {
          "internalType": "contract ITasks",
          "name": "",
          "type": "address"
        }
      ],
      "stateMutability": "view",
      "type": "function"
    },
    {
      "inputs": [],
      "name": "implementation",
      "outputs": [
        {
          "internalType": "address",
          "name": "",
          "type": "address"
        }
      ],
      "stateMutability": "view",
      "type": "function"
    },
    {
      "inputs": [
        {
          "internalType": "contract IDAO",
          "name": "_dao",
          "type": "address"
        },
        {
          "internalType": "contract ITasks",
          "name": "_tasks",
          "type": "address"
        },
        {
          "internalType": "contract IPluginProposals",
          "name": "_governancePlugin",
          "type": "address"
        },
        {
          "internalType": "uint256",
          "name": "_disputeCost",
          "type": "uint256"
        }
      ],
      "name": "initialize",
      "outputs": [],
      "stateMutability": "nonpayable",
      "type": "function"
    },
    {
      "inputs": [],
      "name": "pluginType",
      "outputs": [
        {
          "internalType": "enum IPlugin.PluginType",
          "name": "",
          "type": "uint8"
        }
      ],
      "stateMutability": "pure",
      "type": "function"
    },
    {
      "inputs": [],
      "name": "proxiableUUID",
      "outputs": [
        {
          "internalType": "bytes32",
          "name": "",
          "type": "bytes32"
        }
      ],
      "stateMutability": "view",
      "type": "function"
    },
    {
      "inputs": [
        {
          "internalType": "bytes4",
          "name": "_interfaceId",
          "type": "bytes4"
        }
      ],
      "name": "supportsInterface",
      "outputs": [
        {
          "internalType": "bool",
          "name": "",
          "type": "bool"
        }
      ],
      "stateMutability": "view",
      "type": "function"
    },
    {
      "inputs": [
        {
          "internalType": "uint256",
          "name": "_disputeCost",
          "type": "uint256"
        }
      ],
      "name": "updateDisputeCost",
      "outputs": [],
      "stateMutability": "nonpayable",
      "type": "function"
    },
    {
      "inputs": [
        {
          "internalType": "contract IPluginProposals",
          "name": "_governancePlugin",
          "type": "address"
        }
      ],
      "name": "updateGovernanceContract",
      "outputs": [],
      "stateMutability": "nonpayable",
      "type": "function"
    },
    {
      "inputs": [
        {
          "internalType": "contract ITasks",
          "name": "_tasks",
          "type": "address"
        }
      ],
      "name": "updateTasksContract",
      "outputs": [],
      "stateMutability": "nonpayable",
      "type": "function"
    },
    {
      "inputs": [
        {
          "internalType": "address",
          "name": "newImplementation",
          "type": "address"
        }
      ],
      "name": "upgradeTo",
      "outputs": [],
      "stateMutability": "nonpayable",
      "type": "function"
    },
    {
      "inputs": [
        {
          "internalType": "address",
          "name": "newImplementation",
          "type": "address"
        },
        {
          "internalType": "bytes",
          "name": "data",
          "type": "bytes"
        }
      ],
      "name": "upgradeToAndCall",
      "outputs": [],
      "stateMutability": "payable",
      "type": "function"
    }
  ],
  "numDeployments": 1,
  "bytecode": "0x60a06040523060805234801561001457600080fd5b5061001d610022565b6100e1565b600054610100900460ff161561008e5760405162461bcd60e51b815260206004820152602760248201527f496e697469616c697a61626c653a20636f6e747261637420697320696e697469604482015266616c697a696e6760c81b606482015260840160405180910390fd5b60005460ff908116146100df576000805460ff191660ff9081179091556040519081527f7f26b83ff96e1f2b6a682f133852f6798a09c465da95921460cefb38474024989060200160405180910390a15b565b6080516116c26101186000396000818161033801528181610381015281816104090152818161044901526104c501526116c26000f3fe6080604052600436106100f35760003560e01c806371eb6c341161008a578063d208ee9411610059578063d208ee941461028f578063d2c6c681146102a5578063e755c180146102c4578063ef2fa85f146102e457600080fd5b806371eb6c34146102085780637f7228311461021b578063c9c4bfca1461023b578063cf756fdf1461026f57600080fd5b80634f1ef286116100c65780634f1ef2861461019d57806352d1902d146101b05780635c60da1b146101d35780636faf60a0146101e857600080fd5b806301ffc9a7146100f85780633659cfe61461012d5780634162169f1461014f57806341de683014610181575b600080fd5b34801561010457600080fd5b50610118610113366004610f91565b610303565b60405190151581526020015b60405180910390f35b34801561013957600080fd5b5061014d610148366004610fd0565b61032e565b005b34801561015b57600080fd5b5060c9546001600160a01b03165b6040516001600160a01b039091168152602001610124565b34801561018d57600080fd5b5060006040516101249190610fed565b61014d6101ab36600461102b565b6103ff565b3480156101bc57600080fd5b506101c56104b8565b604051908152602001610124565b3480156101df57600080fd5b5061016961056b565b3480156101f457600080fd5b5061014d610203366004610fd0565b61057a565b61014d610216366004611158565b6105dc565b34801561022757600080fd5b5061014d610236366004610fd0565b610806565b34801561024757600080fd5b506101c57f821b6e3a557148015a918c89e5d092e878a69854a2d1a410635f771bd5a8a3f581565b34801561027b57600080fd5b5061014d61028a36600461124d565b610863565b34801561029b57600080fd5b5061012f546101c5565b3480156102b157600080fd5b5061012d546001600160a01b0316610169565b3480156102d057600080fd5b5061014d6102df36600461129e565b6109b1565b3480156102f057600080fd5b5061012e546001600160a01b0316610169565b60006001600160e01b03198216636982656f60e01b14806103285750610328826109f1565b92915050565b6001600160a01b037f000000000000000000000000000000000000000000000000000000000000000016300361037f5760405162461bcd60e51b8152600401610376906112b7565b60405180910390fd5b7f00000000000000000000000000000000000000000000000000000000000000006001600160a01b03166103b1610a41565b6001600160a01b0316146103d75760405162461bcd60e51b815260040161037690611303565b6103e081610a5d565b604080516000808252602082019092526103fc91839190610a96565b50565b6001600160a01b037f00000000000000000000000000000000000000000000000000000000000000001630036104475760405162461bcd60e51b8152600401610376906112b7565b7f00000000000000000000000000000000000000000000000000000000000000006001600160a01b0316610479610a41565b6001600160a01b03161461049f5760405162461bcd60e51b815260040161037690611303565b6104a882610a5d565b6104b482826001610a96565b5050565b6000306001600160a01b037f000000000000000000000000000000000000000000000000000000000000000016146105585760405162461bcd60e51b815260206004820152603860248201527f555550535570677261646561626c653a206d757374206e6f742062652063616c60448201527f6c6564207468726f7567682064656c656761746563616c6c00000000000000006064820152608401610376565b5060008051602061164683398151915290565b6000610575610a41565b905090565b60c9547f37c20ba3fe5e4e1eb04b4bdb30d528f9d2d37a43a745d3976dffa671d4a38953906105b8906001600160a01b031630335b84600036610c06565b5061012e80546001600160a01b0319166001600160a01b0392909216919091179055565b61012f54341015610600576040516318020b0760e31b815260040160405180910390fd5b600061061460c9546001600160a01b031690565b6001600160a01b03163460405160006040518083038185875af1925050503d806000811461065e576040519150601f19603f3d011682016040523d82523d6000602084013e610663565b606091505b5050905080610685576040516309222c7160e01b815260040160405180910390fd5b604080516001808252818301909252600091816020015b6040805160608082018352600080835260208301529181019190915281526020019060019003908161069c5790505090506000637c101fbf60e01b88888888886040516024016106f095949392919061134f565b60408051601f19818403018152918152602080830180516001600160e01b03166001600160e01b031990951694909417909352805160608101825261012d546001600160a01b031681526000938101849052908101829052845191935091849161075c5761075c6113ff565b60200260200101819052505061012e60009054906101000a90046001600160a01b03166001600160a01b03166323b889748c8c8460008e8e6040518763ffffffff1660e01b81526004016107b59695949392919061148e565b6020604051808303816000875af11580156107d4573d6000803e3d6000fd5b505050506040513d601f19601f820116820180604052508101906107f8919061155c565b505050505050505050505050565b60c9547f37c20ba3fe5e4e1eb04b4bdb30d528f9d2d37a43a745d3976dffa671d4a389539061083f906001600160a01b031630336105af565b5061012d80546001600160a01b0319166001600160a01b0392909216919091179055565b600054610100900460ff16158080156108835750600054600160ff909116105b8061089d5750303b15801561089d575060005460ff166001145b6109005760405162461bcd60e51b815260206004820152602e60248201527f496e697469616c697a61626c653a20636f6e747261637420697320616c72656160448201526d191e481a5b9a5d1a585b1a5e995960921b6064820152608401610376565b6000805460ff191660011790558015610923576000805461ff0019166101001790555b61092c85610cc2565b61012d80546001600160a01b038087166001600160a01b03199283161790925561012e80549286169290911691909117905561012f82905580156109aa576000805461ff0019169055604051600181527f7f26b83ff96e1f2b6a682f133852f6798a09c465da95921460cefb38474024989060200160405180910390a15b5050505050565b60c9547fa926e199a49d5bcfba7868af86f6181e7030cbcc6f989f960a611c31ee4cb750906109ea906001600160a01b031630336105af565b5061012f55565b60006001600160e01b0319821663041de68360e41b1480610a2257506001600160e01b031982166352d1902d60e01b145b8061032857506301ffc9a760e01b6001600160e01b0319831614610328565b600080516020611646833981519152546001600160a01b031690565b60c9547f821b6e3a557148015a918c89e5d092e878a69854a2d1a410635f771bd5a8a3f5906104b4906001600160a01b031630336105af565b7f4910fdfa16fed3260ed0e7147f7cc6da11a60208b5b9406d12a635614ffd91435460ff1615610ace57610ac983610cf2565b505050565b826001600160a01b03166352d1902d6040518163ffffffff1660e01b8152600401602060405180830381865afa925050508015610b28575060408051601f3d908101601f19168201909252610b259181019061155c565b60015b610b8b5760405162461bcd60e51b815260206004820152602e60248201527f45524331393637557067726164653a206e657720696d706c656d656e7461746960448201526d6f6e206973206e6f74205555505360901b6064820152608401610376565b6000805160206116468339815191528114610bfa5760405162461bcd60e51b815260206004820152602960248201527f45524331393637557067726164653a20756e737570706f727465642070726f786044820152681a58589b195555525160ba1b6064820152608401610376565b50610ac9838383610d8e565b604051637ef7c88360e11b81526001600160a01b0387169063fdef910690610c3a9088908890889088908890600401611575565b602060405180830381865afa158015610c57573d6000803e3d6000fd5b505050506040513d601f19601f82011682018060405250810190610c7b91906115a9565b610cba57604051630cb6f8ed60e21b81526001600160a01b03808816600483015280871660248301528516604482015260648101849052608401610376565b505050505050565b600054610100900460ff16610ce95760405162461bcd60e51b8152600401610376906115cb565b6103fc81610db9565b6001600160a01b0381163b610d5f5760405162461bcd60e51b815260206004820152602d60248201527f455243313936373a206e657720696d706c656d656e746174696f6e206973206e60448201526c1bdd08184818dbdb9d1c9858dd609a1b6064820152608401610376565b60008051602061164683398151915280546001600160a01b0319166001600160a01b0392909216919091179055565b610d9783610e02565b600082511180610da45750805b15610ac957610db38383610e42565b50505050565b600054610100900460ff16610de05760405162461bcd60e51b8152600401610376906115cb565b60c980546001600160a01b0319166001600160a01b0392909216919091179055565b610e0b81610cf2565b6040516001600160a01b038216907fbc7cd75a20ee27fd9adebab32041f755214dbc6bffa90cc0225b39da2e5c2d3b90600090a250565b6060610e67838360405180606001604052806027815260200161166660279139610e6e565b9392505050565b6060600080856001600160a01b031685604051610e8b9190611616565b600060405180830381855af49150503d8060008114610ec6576040519150601f19603f3d011682016040523d82523d6000602084013e610ecb565b606091505b5091509150610edc86838387610ee6565b9695505050505050565b60608315610f55578251600003610f4e576001600160a01b0385163b610f4e5760405162461bcd60e51b815260206004820152601d60248201527f416464726573733a2063616c6c20746f206e6f6e2d636f6e74726163740000006044820152606401610376565b5081610f5f565b610f5f8383610f67565b949350505050565b815115610f775781518083602001fd5b8060405162461bcd60e51b81526004016103769190611632565b600060208284031215610fa357600080fd5b81356001600160e01b031981168114610e6757600080fd5b6001600160a01b03811681146103fc57600080fd5b600060208284031215610fe257600080fd5b8135610e6781610fbb565b602081016003831061100f57634e487b7160e01b600052602160045260246000fd5b91905290565b634e487b7160e01b600052604160045260246000fd5b6000806040838503121561103e57600080fd5b823561104981610fbb565b9150602083013567ffffffffffffffff8082111561106657600080fd5b818501915085601f83011261107a57600080fd5b81358181111561108c5761108c611015565b604051601f8201601f19908116603f011681019083821181831017156110b4576110b4611015565b816040528281528860208487010111156110cd57600080fd5b8260208601602083013760006020848301015280955050505050509250929050565b803567ffffffffffffffff8116811461110757600080fd5b919050565b60008083601f84011261111e57600080fd5b50813567ffffffffffffffff81111561113657600080fd5b6020830191508360208260051b850101111561115157600080fd5b9250929050565b600080600080600080600080600060c08a8c03121561117657600080fd5b893567ffffffffffffffff8082111561118e57600080fd5b818c0191508c601f8301126111a257600080fd5b8135818111156111b157600080fd5b8d60208285010111156111c357600080fd5b602083019b50809a50506111d960208d016110ef565b98506111e760408d016110ef565b975060608c0135965060808c013591508082111561120457600080fd5b6112108d838e0161110c565b909650945060a08c013591508082111561122957600080fd5b506112368c828d0161110c565b915080935050809150509295985092959850929598565b6000806000806080858703121561126357600080fd5b843561126e81610fbb565b9350602085013561127e81610fbb565b9250604085013561128e81610fbb565b9396929550929360600135925050565b6000602082840312156112b057600080fd5b5035919050565b6020808252602c908201527f46756e6374696f6e206d7573742062652063616c6c6564207468726f7567682060408201526b19195b1959d85d1958d85b1b60a21b606082015260800190565b6020808252602c908201527f46756e6374696f6e206d7573742062652063616c6c6564207468726f7567682060408201526b6163746976652070726f787960a01b606082015260800190565b85815260606020808301829052908201859052600090869060808401835b888110156113a45783356affffffffffffffffffffff811680821461139157600080fd5b835250928201929082019060010161136d565b508481036040860152858152810191508560005b868110156113f05781356bffffffffffffffffffffffff81168082146113dd57600080fd5b85525092820192908201906001016113b8565b50919998505050505050505050565b634e487b7160e01b600052603260045260246000fd5b81835281816020850137506000828201602090810191909152601f909101601f19169091010190565b60005b83811015611459578181015183820152602001611441565b50506000910152565b6000815180845261147a81602086016020860161143e565b601f01601f19169290920160200192915050565b60a0815260006114a260a08301888a611415565b6020838203818501528188518084528284019150828160051b850101838b0160005b8381101561151b57868303601f19018552815180516001600160a01b03168452868101518785015260409081015160609185018290529061150781860183611462565b9688019694505050908501906001016114c4565b5050604087018a905267ffffffffffffffff8916606088015294506115409350505050565b67ffffffffffffffff831660808301525b979650505050505050565b60006020828403121561156e57600080fd5b5051919050565b6001600160a01b03868116825285166020820152604081018490526080606082018190526000906115519083018486611415565b6000602082840312156115bb57600080fd5b81518015158114610e6757600080fd5b6020808252602b908201527f496e697469616c697a61626c653a20636f6e7472616374206973206e6f74206960408201526a6e697469616c697a696e6760a81b606082015260800190565b6000825161162881846020870161143e565b9190910192915050565b602081526000610e67602083018461146256fe360894a13ba1a3210667c828492db98dca3e2076cc3735a920a3ca505d382bbc416464726573733a206c6f772d6c6576656c2064656c65676174652063616c6c206661696c6564a2646970667358221220e251409b6e31ed2c2356e6a860b29c079d003beb3cfa6c4bada3fe3b51fb355c64736f6c63430008110033"
}