{
  "address": "0x9DD9B7727D569cfdC4D5a23320c35093ff4F2997",
  "abi": [
    {
      "inputs": [],
      "name": "AlreadyInitialized",
      "type": "error"
    },
    {
      "inputs": [],
      "name": "NotOwner",
      "type": "error"
    },
    {
      "stateMutability": "payable",
      "type": "fallback"
    },
    {
      "inputs": [],
      "name": "__Escrow_init",
      "outputs": [],
      "stateMutability": "payable",
      "type": "function"
    },
    {
      "inputs": [
        {
          "internalType": "contract IERC20",
          "name": "token",
          "type": "address"
        },
        {
          "internalType": "address",
          "name": "to",
          "type": "address"
        },
        {
          "internalType": "uint256",
          "name": "amount",
          "type": "uint256"
        }
      ],
      "name": "transfer",
      "outputs": [],
      "stateMutability": "nonpayable",
      "type": "function"
    },
    {
      "inputs": [
        {
          "internalType": "address payable",
          "name": "to",
          "type": "address"
        },
        {
          "internalType": "uint256",
          "name": "amount",
          "type": "uint256"
        }
      ],
      "name": "transferNative",
      "outputs": [],
      "stateMutability": "nonpayable",
      "type": "function"
    },
    {
      "stateMutability": "payable",
      "type": "receive"
    }
  ],
  "args": [],
  "numDeployments": 2,
  "solcInputHash": "2e71b4f5a4f54915fa586ca0c6f426c9",
  "bytecode": "0x608060405234801561001057600080fd5b506102b1806100206000396000f3fe6080604052600436106100355760003560e01c806365b145fb1461003e5780637d2e90c214610046578063beabacc81461006657005b3661003c57005b005b61003c610086565b34801561005257600080fd5b5061003c6100613660046101e5565b6100c3565b34801561007257600080fd5b5061003c610081366004610211565b610129565b6000546001600160a01b0316156100af5760405162dc149f60e41b815260040160405180910390fd5b600080546001600160a01b03191633179055565b6000546001600160a01b031633146100ee576040516330cd747160e01b815260040160405180910390fd5b6040516001600160a01b0383169082156108fc029083906000818181858888f19350505050158015610124573d6000803e3d6000fd5b505050565b6000546001600160a01b03163314610154576040516330cd747160e01b815260040160405180910390fd5b60405163a9059cbb60e01b81526001600160a01b0383811660048301526024820183905284169063a9059cbb906044016020604051808303816000875af11580156101a3573d6000803e3d6000fd5b505050506040513d601f19601f820116820180604052508101906101c79190610252565b50505050565b6001600160a01b03811681146101e257600080fd5b50565b600080604083850312156101f857600080fd5b8235610203816101cd565b946020939093013593505050565b60008060006060848603121561022657600080fd5b8335610231816101cd565b92506020840135610241816101cd565b929592945050506040919091013590565b60006020828403121561026457600080fd5b8151801515811461027457600080fd5b939250505056fea26469706673582212203321662ba87bb5393699e625f6ad760c1e8c1db77694232c7706003a346b336364736f6c63430008150033",
  "devdoc": {
    "kind": "dev",
    "methods": {
      "__Escrow_init()": {
        "details": "This should be called in the same transaction as deploying the escrow, to prevent front running."
      },
      "transfer(address,address,uint256)": {
        "params": {
          "amount": "The amount of ERC20 token to receive.",
          "to": "The address to recieve the tokens.",
          "token": "The ERC20 contract address."
        }
      },
      "transferNative(address,uint256)": {
        "params": {
          "amount": "The amount of native currency to receive.",
          "to": "The address to recieve the currency."
        }
      }
    },
    "version": 1
  },
  "userdoc": {
    "kind": "user",
    "methods": {
      "__Escrow_init()": {
        "notice": "Initializes the Escrow with the sender of the transaction as owner."
      },
      "transfer(address,address,uint256)": {
        "notice": "Transfers a certain amount of ERC20 token to a given address. Can only be called by the owner."
      },
      "transferNative(address,uint256)": {
        "notice": "Transfers a certain amount of native currency to a given address. Can only be called by the owner."
      }
    },
    "version": 1
  },
  "storageLayout": {
    "storage": [
      {
        "astId": 34867,
        "contract": "contracts/Escrow.sol:Escrow",
        "label": "owner",
        "offset": 0,
        "slot": "0",
        "type": "t_address"
      }
    ],
    "types": {
      "t_address": {
        "encoding": "inplace",
        "label": "address",
        "numberOfBytes": "20"
      }
    }
  }
}