{
  "address": "0xf49d8368f7f4b5679BCaDBAA0431b060ef1d94Aa",
  "abi": [
    {
      "inputs": [
        {
          "internalType": "string",
          "name": "_name",
          "type": "string"
        },
        {
          "internalType": "string",
          "name": "_baseImageURI",
          "type": "string"
        }
      ],
      "stateMutability": "nonpayable",
      "type": "constructor"
    },
    {
      "inputs": [
        {
          "internalType": "uint256",
          "name": "hatId",
          "type": "uint256"
        }
      ],
      "name": "AllHatsWorn",
      "type": "error"
    },
    {
      "inputs": [
        {
          "internalType": "address",
          "name": "wearer",
          "type": "address"
        },
        {
          "internalType": "uint256",
          "name": "hatId",
          "type": "uint256"
        }
      ],
      "name": "AlreadyWearingHat",
      "type": "error"
    },
    {
      "inputs": [],
      "name": "BatchArrayLengthMismatch",
      "type": "error"
    },
    {
      "inputs": [],
      "name": "CircularLinkage",
      "type": "error"
    },
    {
      "inputs": [],
      "name": "CrossTreeLinkage",
      "type": "error"
    },
    {
      "inputs": [
        {
          "internalType": "uint256",
          "name": "hatId",
          "type": "uint256"
        }
      ],
      "name": "HatDoesNotExist",
      "type": "error"
    },
    {
      "inputs": [],
      "name": "HatNotActive",
      "type": "error"
    },
    {
      "inputs": [],
      "name": "Immutable",
      "type": "error"
    },
    {
      "inputs": [],
      "name": "InvalidHatId",
      "type": "error"
    },
    {
      "inputs": [],
      "name": "InvalidUnlink",
      "type": "error"
    },
    {
      "inputs": [],
      "name": "LinkageNotRequested",
      "type": "error"
    },
    {
      "inputs": [],
      "name": "MaxLevelsReached",
      "type": "error"
    },
    {
      "inputs": [],
      "name": "MaxLevelsReached",
      "type": "error"
    },
    {
      "inputs": [],
      "name": "NewMaxSupplyTooLow",
      "type": "error"
    },
    {
      "inputs": [
        {
          "internalType": "address",
          "name": "user",
          "type": "address"
        },
        {
          "internalType": "uint256",
          "name": "hatId",
          "type": "uint256"
        }
      ],
      "name": "NotAdmin",
      "type": "error"
    },
    {
      "inputs": [],
      "name": "NotAdminOrWearer",
      "type": "error"
    },
    {
      "inputs": [],
      "name": "NotEligible",
      "type": "error"
    },
    {
      "inputs": [],
      "name": "NotHatWearer",
      "type": "error"
    },
    {
      "inputs": [],
      "name": "NotHatsEligibility",
      "type": "error"
    },
    {
      "inputs": [],
      "name": "NotHatsToggle",
      "type": "error"
    },
    {
      "inputs": [],
      "name": "StringTooLong",
      "type": "error"
    },
    {
      "inputs": [],
      "name": "ZeroAddress",
      "type": "error"
    },
    {
      "anonymous": false,
      "inputs": [
        {
          "indexed": true,
          "internalType": "address",
          "name": "owner",
          "type": "address"
        },
        {
          "indexed": true,
          "internalType": "address",
          "name": "operator",
          "type": "address"
        },
        {
          "indexed": false,
          "internalType": "bool",
          "name": "approved",
          "type": "bool"
        }
      ],
      "name": "ApprovalForAll",
      "type": "event"
    },
    {
      "anonymous": false,
      "inputs": [
        {
          "indexed": false,
          "internalType": "uint256",
          "name": "id",
          "type": "uint256"
        },
        {
          "indexed": false,
          "internalType": "string",
          "name": "details",
          "type": "string"
        },
        {
          "indexed": false,
          "internalType": "uint32",
          "name": "maxSupply",
          "type": "uint32"
        },
        {
          "indexed": false,
          "internalType": "address",
          "name": "eligibility",
          "type": "address"
        },
        {
          "indexed": false,
          "internalType": "address",
          "name": "toggle",
          "type": "address"
        },
        {
          "indexed": false,
          "internalType": "bool",
          "name": "mutable_",
          "type": "bool"
        },
        {
          "indexed": false,
          "internalType": "string",
          "name": "imageURI",
          "type": "string"
        }
      ],
      "name": "HatCreated",
      "type": "event"
    },
    {
      "anonymous": false,
      "inputs": [
        {
          "indexed": false,
          "internalType": "uint256",
          "name": "hatId",
          "type": "uint256"
        },
        {
          "indexed": false,
          "internalType": "string",
          "name": "newDetails",
          "type": "string"
        }
      ],
      "name": "HatDetailsChanged",
      "type": "event"
    },
    {
      "anonymous": false,
      "inputs": [
        {
          "indexed": false,
          "internalType": "uint256",
          "name": "hatId",
          "type": "uint256"
        },
        {
          "indexed": false,
          "internalType": "address",
          "name": "newEligibility",
          "type": "address"
        }
      ],
      "name": "HatEligibilityChanged",
      "type": "event"
    },
    {
      "anonymous": false,
      "inputs": [
        {
          "indexed": false,
          "internalType": "uint256",
          "name": "hatId",
          "type": "uint256"
        },
        {
          "indexed": false,
          "internalType": "string",
          "name": "newImageURI",
          "type": "string"
        }
      ],
      "name": "HatImageURIChanged",
      "type": "event"
    },
    {
      "anonymous": false,
      "inputs": [
        {
          "indexed": false,
          "internalType": "uint256",
          "name": "hatId",
          "type": "uint256"
        },
        {
          "indexed": false,
          "internalType": "uint32",
          "name": "newMaxSupply",
          "type": "uint32"
        }
      ],
      "name": "HatMaxSupplyChanged",
      "type": "event"
    },
    {
      "anonymous": false,
      "inputs": [
        {
          "indexed": false,
          "internalType": "uint256",
          "name": "hatId",
          "type": "uint256"
        }
      ],
      "name": "HatMutabilityChanged",
      "type": "event"
    },
    {
      "anonymous": false,
      "inputs": [
        {
          "indexed": false,
          "internalType": "uint256",
          "name": "hatId",
          "type": "uint256"
        },
        {
          "indexed": false,
          "internalType": "bool",
          "name": "newStatus",
          "type": "bool"
        }
      ],
      "name": "HatStatusChanged",
      "type": "event"
    },
    {
      "anonymous": false,
      "inputs": [
        {
          "indexed": false,
          "internalType": "uint256",
          "name": "hatId",
          "type": "uint256"
        },
        {
          "indexed": false,
          "internalType": "address",
          "name": "newToggle",
          "type": "address"
        }
      ],
      "name": "HatToggleChanged",
      "type": "event"
    },
    {
      "anonymous": false,
      "inputs": [
        {
          "indexed": false,
          "internalType": "uint32",
          "name": "domain",
          "type": "uint32"
        },
        {
          "indexed": false,
          "internalType": "uint256",
          "name": "newAdmin",
          "type": "uint256"
        }
      ],
      "name": "TopHatLinkRequested",
      "type": "event"
    },
    {
      "anonymous": false,
      "inputs": [
        {
          "indexed": false,
          "internalType": "uint32",
          "name": "domain",
          "type": "uint32"
        },
        {
          "indexed": false,
          "internalType": "uint256",
          "name": "newAdmin",
          "type": "uint256"
        }
      ],
      "name": "TopHatLinked",
      "type": "event"
    },
    {
      "anonymous": false,
      "inputs": [
        {
          "indexed": true,
          "internalType": "address",
          "name": "operator",
          "type": "address"
        },
        {
          "indexed": true,
          "internalType": "address",
          "name": "from",
          "type": "address"
        },
        {
          "indexed": true,
          "internalType": "address",
          "name": "to",
          "type": "address"
        },
        {
          "indexed": false,
          "internalType": "uint256[]",
          "name": "ids",
          "type": "uint256[]"
        },
        {
          "indexed": false,
          "internalType": "uint256[]",
          "name": "amounts",
          "type": "uint256[]"
        }
      ],
      "name": "TransferBatch",
      "type": "event"
    },
    {
      "anonymous": false,
      "inputs": [
        {
          "indexed": true,
          "internalType": "address",
          "name": "operator",
          "type": "address"
        },
        {
          "indexed": true,
          "internalType": "address",
          "name": "from",
          "type": "address"
        },
        {
          "indexed": true,
          "internalType": "address",
          "name": "to",
          "type": "address"
        },
        {
          "indexed": false,
          "internalType": "uint256",
          "name": "id",
          "type": "uint256"
        },
        {
          "indexed": false,
          "internalType": "uint256",
          "name": "amount",
          "type": "uint256"
        }
      ],
      "name": "TransferSingle",
      "type": "event"
    },
    {
      "anonymous": false,
      "inputs": [
        {
          "indexed": false,
          "internalType": "string",
          "name": "value",
          "type": "string"
        },
        {
          "indexed": true,
          "internalType": "uint256",
          "name": "id",
          "type": "uint256"
        }
      ],
      "name": "URI",
      "type": "event"
    },
    {
      "anonymous": false,
      "inputs": [
        {
          "indexed": false,
          "internalType": "uint256",
          "name": "hatId",
          "type": "uint256"
        },
        {
          "indexed": false,
          "internalType": "address",
          "name": "wearer",
          "type": "address"
        },
        {
          "indexed": false,
          "internalType": "bool",
          "name": "wearerStanding",
          "type": "bool"
        }
      ],
      "name": "WearerStandingChanged",
      "type": "event"
    },
    {
      "inputs": [
        {
          "internalType": "uint32",
          "name": "_topHatDomain",
          "type": "uint32"
        },
        {
          "internalType": "uint256",
          "name": "_newAdminHat",
          "type": "uint256"
        },
        {
          "internalType": "address",
          "name": "_eligibility",
          "type": "address"
        },
        {
          "internalType": "address",
          "name": "_toggle",
          "type": "address"
        },
        {
          "internalType": "string",
          "name": "_details",
          "type": "string"
        },
        {
          "internalType": "string",
          "name": "_imageURI",
          "type": "string"
        }
      ],
      "name": "approveLinkTopHatToTree",
      "outputs": [],
      "stateMutability": "nonpayable",
      "type": "function"
    },
    {
      "inputs": [
        {
          "internalType": "uint256",
          "name": "",
          "type": "uint256"
        },
        {
          "internalType": "address",
          "name": "",
          "type": "address"
        }
      ],
      "name": "badStandings",
      "outputs": [
        {
          "internalType": "bool",
          "name": "",
          "type": "bool"
        }
      ],
      "stateMutability": "view",
      "type": "function"
    },
    {
      "inputs": [
        {
          "internalType": "address",
          "name": "_wearer",
          "type": "address"
        },
        {
          "internalType": "uint256",
          "name": "_hatId",
          "type": "uint256"
        }
      ],
      "name": "balanceOf",
      "outputs": [
        {
          "internalType": "uint256",
          "name": "balance",
          "type": "uint256"
        }
      ],
      "stateMutability": "view",
      "type": "function"
    },
    {
      "inputs": [
        {
          "internalType": "address[]",
          "name": "_wearers",
          "type": "address[]"
        },
        {
          "internalType": "uint256[]",
          "name": "_hatIds",
          "type": "uint256[]"
        }
      ],
      "name": "balanceOfBatch",
      "outputs": [
        {
          "internalType": "uint256[]",
          "name": "balances",
          "type": "uint256[]"
        }
      ],
      "stateMutability": "view",
      "type": "function"
    },
    {
      "inputs": [],
      "name": "baseImageURI",
      "outputs": [
        {
          "internalType": "string",
          "name": "",
          "type": "string"
        }
      ],
      "stateMutability": "view",
      "type": "function"
    },
    {
      "inputs": [
        {
          "internalType": "uint256[]",
          "name": "_admins",
          "type": "uint256[]"
        },
        {
          "internalType": "string[]",
          "name": "_details",
          "type": "string[]"
        },
        {
          "internalType": "uint32[]",
          "name": "_maxSupplies",
          "type": "uint32[]"
        },
        {
          "internalType": "address[]",
          "name": "_eligibilityModules",
          "type": "address[]"
        },
        {
          "internalType": "address[]",
          "name": "_toggleModules",
          "type": "address[]"
        },
        {
          "internalType": "bool[]",
          "name": "_mutables",
          "type": "bool[]"
        },
        {
          "internalType": "string[]",
          "name": "_imageURIs",
          "type": "string[]"
        }
      ],
      "name": "batchCreateHats",
      "outputs": [
        {
          "internalType": "bool",
          "name": "success",
          "type": "bool"
        }
      ],
      "stateMutability": "nonpayable",
      "type": "function"
    },
    {
      "inputs": [
        {
          "internalType": "uint256[]",
          "name": "_hatIds",
          "type": "uint256[]"
        },
        {
          "internalType": "address[]",
          "name": "_wearers",
          "type": "address[]"
        }
      ],
      "name": "batchMintHats",
      "outputs": [
        {
          "internalType": "bool",
          "name": "success",
          "type": "bool"
        }
      ],
      "stateMutability": "nonpayable",
      "type": "function"
    },
    {
      "inputs": [
        {
          "internalType": "uint256",
          "name": "_admin",
          "type": "uint256"
        },
        {
          "internalType": "uint16",
          "name": "_newHat",
          "type": "uint16"
        }
      ],
      "name": "buildHatId",
      "outputs": [
        {
          "internalType": "uint256",
          "name": "id",
          "type": "uint256"
        }
      ],
      "stateMutability": "pure",
      "type": "function"
    },
    {
      "inputs": [
        {
          "internalType": "uint256",
          "name": "_hatId",
          "type": "uint256"
        },
        {
          "internalType": "string",
          "name": "_newDetails",
          "type": "string"
        }
      ],
      "name": "changeHatDetails",
      "outputs": [],
      "stateMutability": "nonpayable",
      "type": "function"
    },
    {
      "inputs": [
        {
          "internalType": "uint256",
          "name": "_hatId",
          "type": "uint256"
        },
        {
          "internalType": "address",
          "name": "_newEligibility",
          "type": "address"
        }
      ],
      "name": "changeHatEligibility",
      "outputs": [],
      "stateMutability": "nonpayable",
      "type": "function"
    },
    {
      "inputs": [
        {
          "internalType": "uint256",
          "name": "_hatId",
          "type": "uint256"
        },
        {
          "internalType": "string",
          "name": "_newImageURI",
          "type": "string"
        }
      ],
      "name": "changeHatImageURI",
      "outputs": [],
      "stateMutability": "nonpayable",
      "type": "function"
    },
    {
      "inputs": [
        {
          "internalType": "uint256",
          "name": "_hatId",
          "type": "uint256"
        },
        {
          "internalType": "uint32",
          "name": "_newMaxSupply",
          "type": "uint32"
        }
      ],
      "name": "changeHatMaxSupply",
      "outputs": [],
      "stateMutability": "nonpayable",
      "type": "function"
    },
    {
      "inputs": [
        {
          "internalType": "uint256",
          "name": "_hatId",
          "type": "uint256"
        },
        {
          "internalType": "address",
          "name": "_newToggle",
          "type": "address"
        }
      ],
      "name": "changeHatToggle",
      "outputs": [],
      "stateMutability": "nonpayable",
      "type": "function"
    },
    {
      "inputs": [
        {
          "internalType": "uint256",
          "name": "_hatId",
          "type": "uint256"
        }
      ],
      "name": "checkHatStatus",
      "outputs": [
        {
          "internalType": "bool",
          "name": "toggled",
          "type": "bool"
        }
      ],
      "stateMutability": "nonpayable",
      "type": "function"
    },
    {
      "inputs": [
        {
          "internalType": "uint256",
          "name": "_hatId",
          "type": "uint256"
        },
        {
          "internalType": "address",
          "name": "_wearer",
          "type": "address"
        }
      ],
      "name": "checkHatWearerStatus",
      "outputs": [
        {
          "internalType": "bool",
          "name": "updated",
          "type": "bool"
        }
      ],
      "stateMutability": "nonpayable",
      "type": "function"
    },
    {
      "inputs": [
        {
          "internalType": "uint256",
          "name": "_admin",
          "type": "uint256"
        },
        {
          "internalType": "string",
          "name": "_details",
          "type": "string"
        },
        {
          "internalType": "uint32",
          "name": "_maxSupply",
          "type": "uint32"
        },
        {
          "internalType": "address",
          "name": "_eligibility",
          "type": "address"
        },
        {
          "internalType": "address",
          "name": "_toggle",
          "type": "address"
        },
        {
          "internalType": "bool",
          "name": "_mutable",
          "type": "bool"
        },
        {
          "internalType": "string",
          "name": "_imageURI",
          "type": "string"
        }
      ],
      "name": "createHat",
      "outputs": [
        {
          "internalType": "uint256",
          "name": "newHatId",
          "type": "uint256"
        }
      ],
      "stateMutability": "nonpayable",
      "type": "function"
    },
    {
      "inputs": [
        {
          "internalType": "uint256",
          "name": "_hatId",
          "type": "uint256"
        },
        {
          "internalType": "uint32",
          "name": "_level",
          "type": "uint32"
        }
      ],
      "name": "getAdminAtLevel",
      "outputs": [
        {
          "internalType": "uint256",
          "name": "admin",
          "type": "uint256"
        }
      ],
      "stateMutability": "view",
      "type": "function"
    },
    {
      "inputs": [
        {
          "internalType": "uint256",
          "name": "_hatId",
          "type": "uint256"
        },
        {
          "internalType": "uint32",
          "name": "_level",
          "type": "uint32"
        }
      ],
      "name": "getAdminAtLocalLevel",
      "outputs": [
        {
          "internalType": "uint256",
          "name": "admin",
          "type": "uint256"
        }
      ],
      "stateMutability": "pure",
      "type": "function"
    },
    {
      "inputs": [
        {
          "internalType": "uint256",
          "name": "_hatId",
          "type": "uint256"
        }
      ],
      "name": "getHatEligibilityModule",
      "outputs": [
        {
          "internalType": "address",
          "name": "eligibility",
          "type": "address"
        }
      ],
      "stateMutability": "view",
      "type": "function"
    },
    {
      "inputs": [
        {
          "internalType": "uint256",
          "name": "_hatId",
          "type": "uint256"
        }
      ],
      "name": "getHatLevel",
      "outputs": [
        {
          "internalType": "uint32",
          "name": "level",
          "type": "uint32"
        }
      ],
      "stateMutability": "view",
      "type": "function"
    },
    {
      "inputs": [
        {
          "internalType": "uint256",
          "name": "_hatId",
          "type": "uint256"
        }
      ],
      "name": "getHatMaxSupply",
      "outputs": [
        {
          "internalType": "uint32",
          "name": "maxSupply",
          "type": "uint32"
        }
      ],
      "stateMutability": "view",
      "type": "function"
    },
    {
      "inputs": [
        {
          "internalType": "uint256",
          "name": "_hatId",
          "type": "uint256"
        }
      ],
      "name": "getHatToggleModule",
      "outputs": [
        {
          "internalType": "address",
          "name": "toggle",
          "type": "address"
        }
      ],
      "stateMutability": "view",
      "type": "function"
    },
    {
      "inputs": [
        {
          "internalType": "uint256",
          "name": "_hatId",
          "type": "uint256"
        }
      ],
      "name": "getImageURIForHat",
      "outputs": [
        {
          "internalType": "string",
          "name": "_uri",
          "type": "string"
        }
      ],
      "stateMutability": "view",
      "type": "function"
    },
    {
      "inputs": [
        {
          "internalType": "uint256",
          "name": "_hatId",
          "type": "uint256"
        }
      ],
      "name": "getLocalHatLevel",
      "outputs": [
        {
          "internalType": "uint32",
          "name": "level",
          "type": "uint32"
        }
      ],
      "stateMutability": "pure",
      "type": "function"
    },
    {
      "inputs": [
        {
          "internalType": "uint256",
          "name": "_admin",
          "type": "uint256"
        }
      ],
      "name": "getNextId",
      "outputs": [
        {
          "internalType": "uint256",
          "name": "nextId",
          "type": "uint256"
        }
      ],
      "stateMutability": "view",
      "type": "function"
    },
    {
      "inputs": [
        {
          "internalType": "uint32",
          "name": "_topHatDomain",
          "type": "uint32"
        }
      ],
      "name": "getTippyTopHatDomain",
      "outputs": [
        {
          "internalType": "uint32",
          "name": "domain",
          "type": "uint32"
        }
      ],
      "stateMutability": "view",
      "type": "function"
    },
    {
      "inputs": [
        {
          "internalType": "uint256",
          "name": "_hatId",
          "type": "uint256"
        }
      ],
      "name": "getTopHatDomain",
      "outputs": [
        {
          "internalType": "uint32",
          "name": "domain",
          "type": "uint32"
        }
      ],
      "stateMutability": "pure",
      "type": "function"
    },
    {
      "inputs": [
        {
          "internalType": "uint256",
          "name": "_hatId",
          "type": "uint256"
        }
      ],
      "name": "hatSupply",
      "outputs": [
        {
          "internalType": "uint32",
          "name": "supply",
          "type": "uint32"
        }
      ],
      "stateMutability": "view",
      "type": "function"
    },
    {
      "inputs": [
        {
          "internalType": "uint256",
          "name": "_hatId",
          "type": "uint256"
        }
      ],
      "name": "isActive",
      "outputs": [
        {
          "internalType": "bool",
          "name": "active",
          "type": "bool"
        }
      ],
      "stateMutability": "view",
      "type": "function"
    },
    {
      "inputs": [
        {
          "internalType": "address",
          "name": "_user",
          "type": "address"
        },
        {
          "internalType": "uint256",
          "name": "_hatId",
          "type": "uint256"
        }
      ],
      "name": "isAdminOfHat",
      "outputs": [
        {
          "internalType": "bool",
          "name": "isAdmin",
          "type": "bool"
        }
      ],
      "stateMutability": "view",
      "type": "function"
    },
    {
      "inputs": [
        {
          "internalType": "address",
          "name": "",
          "type": "address"
        },
        {
          "internalType": "address",
          "name": "",
          "type": "address"
        }
      ],
      "name": "isApprovedForAll",
      "outputs": [
        {
          "internalType": "bool",
          "name": "",
          "type": "bool"
        }
      ],
      "stateMutability": "view",
      "type": "function"
    },
    {
      "inputs": [
        {
          "internalType": "address",
          "name": "_wearer",
          "type": "address"
        },
        {
          "internalType": "uint256",
          "name": "_hatId",
          "type": "uint256"
        }
      ],
      "name": "isEligible",
      "outputs": [
        {
          "internalType": "bool",
          "name": "eligible",
          "type": "bool"
        }
      ],
      "stateMutability": "view",
      "type": "function"
    },
    {
      "inputs": [
        {
          "internalType": "address",
          "name": "_wearer",
          "type": "address"
        },
        {
          "internalType": "uint256",
          "name": "_hatId",
          "type": "uint256"
        }
      ],
      "name": "isInGoodStanding",
      "outputs": [
        {
          "internalType": "bool",
          "name": "standing",
          "type": "bool"
        }
      ],
      "stateMutability": "view",
      "type": "function"
    },
    {
      "inputs": [
        {
          "internalType": "uint256",
          "name": "_hatId",
          "type": "uint256"
        }
      ],
      "name": "isLocalTopHat",
      "outputs": [
        {
          "internalType": "bool",
          "name": "_isLocalTopHat",
          "type": "bool"
        }
      ],
      "stateMutability": "pure",
      "type": "function"
    },
    {
      "inputs": [
        {
          "internalType": "uint256",
          "name": "_hatId",
          "type": "uint256"
        }
      ],
      "name": "isTopHat",
      "outputs": [
        {
          "internalType": "bool",
          "name": "_isTopHat",
          "type": "bool"
        }
      ],
      "stateMutability": "view",
      "type": "function"
    },
    {
      "inputs": [
        {
          "internalType": "uint256",
          "name": "_hatId",
          "type": "uint256"
        }
      ],
      "name": "isValidHatId",
      "outputs": [
        {
          "internalType": "bool",
          "name": "validHatId",
          "type": "bool"
        }
      ],
      "stateMutability": "pure",
      "type": "function"
    },
    {
      "inputs": [
        {
          "internalType": "address",
          "name": "_user",
          "type": "address"
        },
        {
          "internalType": "uint256",
          "name": "_hatId",
          "type": "uint256"
        }
      ],
      "name": "isWearerOfHat",
      "outputs": [
        {
          "internalType": "bool",
          "name": "isWearer",
          "type": "bool"
        }
      ],
      "stateMutability": "view",
      "type": "function"
    },
    {
      "inputs": [],
      "name": "lastTopHatId",
      "outputs": [
        {
          "internalType": "uint32",
          "name": "",
          "type": "uint32"
        }
      ],
      "stateMutability": "view",
      "type": "function"
    },
    {
      "inputs": [
        {
          "internalType": "uint32",
          "name": "",
          "type": "uint32"
        }
      ],
      "name": "linkedTreeAdmins",
      "outputs": [
        {
          "internalType": "uint256",
          "name": "",
          "type": "uint256"
        }
      ],
      "stateMutability": "view",
      "type": "function"
    },
    {
      "inputs": [
        {
          "internalType": "uint32",
          "name": "",
          "type": "uint32"
        }
      ],
      "name": "linkedTreeRequests",
      "outputs": [
        {
          "internalType": "uint256",
          "name": "",
          "type": "uint256"
        }
      ],
      "stateMutability": "view",
      "type": "function"
    },
    {
      "inputs": [
        {
          "internalType": "uint256",
          "name": "_hatId",
          "type": "uint256"
        }
      ],
      "name": "makeHatImmutable",
      "outputs": [],
      "stateMutability": "nonpayable",
      "type": "function"
    },
    {
      "inputs": [
        {
          "internalType": "uint256",
          "name": "_hatId",
          "type": "uint256"
        },
        {
          "internalType": "address",
          "name": "_wearer",
          "type": "address"
        }
      ],
      "name": "mintHat",
      "outputs": [
        {
          "internalType": "bool",
          "name": "success",
          "type": "bool"
        }
      ],
      "stateMutability": "nonpayable",
      "type": "function"
    },
    {
      "inputs": [
        {
          "internalType": "address",
          "name": "_target",
          "type": "address"
        },
        {
          "internalType": "string",
          "name": "_details",
          "type": "string"
        },
        {
          "internalType": "string",
          "name": "_imageURI",
          "type": "string"
        }
      ],
      "name": "mintTopHat",
      "outputs": [
        {
          "internalType": "uint256",
          "name": "topHatId",
          "type": "uint256"
        }
      ],
      "stateMutability": "nonpayable",
      "type": "function"
    },
    {
      "inputs": [
        {
          "internalType": "bytes[]",
          "name": "data",
          "type": "bytes[]"
        }
      ],
      "name": "multicall",
      "outputs": [
        {
          "internalType": "bytes[]",
          "name": "",
          "type": "bytes[]"
        }
      ],
      "stateMutability": "nonpayable",
      "type": "function"
    },
    {
      "inputs": [],
      "name": "name",
      "outputs": [
        {
          "internalType": "string",
          "name": "",
          "type": "string"
        }
      ],
      "stateMutability": "view",
      "type": "function"
    },
    {
      "inputs": [
        {
          "internalType": "uint32",
          "name": "_topHatDomain",
          "type": "uint32"
        },
        {
          "internalType": "uint256",
          "name": "_linkedAdmin",
          "type": "uint256"
        }
      ],
      "name": "noCircularLinkage",
      "outputs": [
        {
          "internalType": "bool",
          "name": "notCircular",
          "type": "bool"
        }
      ],
      "stateMutability": "view",
      "type": "function"
    },
    {
      "inputs": [
        {
          "internalType": "uint32",
          "name": "_topHatDomain",
          "type": "uint32"
        },
        {
          "internalType": "uint256",
          "name": "_newAdminHat",
          "type": "uint256"
        },
        {
          "internalType": "address",
          "name": "_eligibility",
          "type": "address"
        },
        {
          "internalType": "address",
          "name": "_toggle",
          "type": "address"
        },
        {
          "internalType": "string",
          "name": "_details",
          "type": "string"
        },
        {
          "internalType": "string",
          "name": "_imageURI",
          "type": "string"
        }
      ],
      "name": "relinkTopHatWithinTree",
      "outputs": [],
      "stateMutability": "nonpayable",
      "type": "function"
    },
    {
      "inputs": [
        {
          "internalType": "uint256",
          "name": "_hatId",
          "type": "uint256"
        }
      ],
      "name": "renounceHat",
      "outputs": [],
      "stateMutability": "nonpayable",
      "type": "function"
    },
    {
      "inputs": [
        {
          "internalType": "uint32",
          "name": "_topHatDomain",
          "type": "uint32"
        },
        {
          "internalType": "uint256",
          "name": "_requestedAdminHat",
          "type": "uint256"
        }
      ],
      "name": "requestLinkTopHatToTree",
      "outputs": [],
      "stateMutability": "nonpayable",
      "type": "function"
    },
    {
      "inputs": [
        {
          "internalType": "address",
          "name": "",
          "type": "address"
        },
        {
          "internalType": "address",
          "name": "",
          "type": "address"
        },
        {
          "internalType": "uint256[]",
          "name": "",
          "type": "uint256[]"
        },
        {
          "internalType": "uint256[]",
          "name": "",
          "type": "uint256[]"
        },
        {
          "internalType": "bytes",
          "name": "",
          "type": "bytes"
        }
      ],
      "name": "safeBatchTransferFrom",
      "outputs": [],
      "stateMutability": "pure",
      "type": "function"
    },
    {
      "inputs": [
        {
          "internalType": "address",
          "name": "",
          "type": "address"
        },
        {
          "internalType": "address",
          "name": "",
          "type": "address"
        },
        {
          "internalType": "uint256",
          "name": "",
          "type": "uint256"
        },
        {
          "internalType": "uint256",
          "name": "",
          "type": "uint256"
        },
        {
          "internalType": "bytes",
          "name": "",
          "type": "bytes"
        }
      ],
      "name": "safeTransferFrom",
      "outputs": [],
      "stateMutability": "pure",
      "type": "function"
    },
    {
      "inputs": [
        {
          "internalType": "uint32",
          "name": "_topHatDomain",
          "type": "uint32"
        },
        {
          "internalType": "uint256",
          "name": "_newAdminHat",
          "type": "uint256"
        }
      ],
      "name": "sameTippyTopHatDomain",
      "outputs": [
        {
          "internalType": "bool",
          "name": "sameDomain",
          "type": "bool"
        }
      ],
      "stateMutability": "view",
      "type": "function"
    },
    {
      "inputs": [
        {
          "internalType": "address",
          "name": "",
          "type": "address"
        },
        {
          "internalType": "bool",
          "name": "",
          "type": "bool"
        }
      ],
      "name": "setApprovalForAll",
      "outputs": [],
      "stateMutability": "pure",
      "type": "function"
    },
    {
      "inputs": [
        {
          "internalType": "uint256",
          "name": "_hatId",
          "type": "uint256"
        },
        {
          "internalType": "bool",
          "name": "_newStatus",
          "type": "bool"
        }
      ],
      "name": "setHatStatus",
      "outputs": [
        {
          "internalType": "bool",
          "name": "toggled",
          "type": "bool"
        }
      ],
      "stateMutability": "nonpayable",
      "type": "function"
    },
    {
      "inputs": [
        {
          "internalType": "uint256",
          "name": "_hatId",
          "type": "uint256"
        },
        {
          "internalType": "address",
          "name": "_wearer",
          "type": "address"
        },
        {
          "internalType": "bool",
          "name": "_eligible",
          "type": "bool"
        },
        {
          "internalType": "bool",
          "name": "_standing",
          "type": "bool"
        }
      ],
      "name": "setHatWearerStatus",
      "outputs": [
        {
          "internalType": "bool",
          "name": "updated",
          "type": "bool"
        }
      ],
      "stateMutability": "nonpayable",
      "type": "function"
    },
    {
      "inputs": [
        {
          "internalType": "bytes4",
          "name": "interfaceId",
          "type": "bytes4"
        }
      ],
      "name": "supportsInterface",
      "outputs": [
        {
          "internalType": "bool",
          "name": "",
          "type": "bool"
        }
      ],
      "stateMutability": "pure",
      "type": "function"
    },
    {
      "inputs": [
        {
          "internalType": "uint256",
          "name": "_hatId",
          "type": "uint256"
        },
        {
          "internalType": "address",
          "name": "_from",
          "type": "address"
        },
        {
          "internalType": "address",
          "name": "_to",
          "type": "address"
        }
      ],
      "name": "transferHat",
      "outputs": [],
      "stateMutability": "nonpayable",
      "type": "function"
    },
    {
      "inputs": [
        {
          "internalType": "uint32",
          "name": "_topHatDomain",
          "type": "uint32"
        },
        {
          "internalType": "address",
          "name": "_wearer",
          "type": "address"
        }
      ],
      "name": "unlinkTopHatFromTree",
      "outputs": [],
      "stateMutability": "nonpayable",
      "type": "function"
    },
    {
      "inputs": [
        {
          "internalType": "uint256",
          "name": "id",
          "type": "uint256"
        }
      ],
      "name": "uri",
      "outputs": [
        {
          "internalType": "string",
          "name": "_uri",
          "type": "string"
        }
      ],
      "stateMutability": "view",
      "type": "function"
    },
    {
      "inputs": [
        {
          "internalType": "uint256",
          "name": "_hatId",
          "type": "uint256"
        }
      ],
      "name": "viewHat",
      "outputs": [
        {
          "internalType": "string",
          "name": "details",
          "type": "string"
        },
        {
          "internalType": "uint32",
          "name": "maxSupply",
          "type": "uint32"
        },
        {
          "internalType": "uint32",
          "name": "supply",
          "type": "uint32"
        },
        {
          "internalType": "address",
          "name": "eligibility",
          "type": "address"
        },
        {
          "internalType": "address",
          "name": "toggle",
          "type": "address"
        },
        {
          "internalType": "string",
          "name": "imageURI",
          "type": "string"
        },
        {
          "internalType": "uint16",
          "name": "lastHatId",
          "type": "uint16"
        },
        {
          "internalType": "bool",
          "name": "mutable_",
          "type": "bool"
        },
        {
          "internalType": "bool",
          "name": "active",
          "type": "bool"
        }
      ],
      "stateMutability": "view",
      "type": "function"
    }
  ],
  "transactionHash": "0x146310b6e5668613f62535c21107c82da8b6b75c580f73eff636744e5d49ee95",
  "args": [
    "Hats Protocol v1",
    "ipfs://bafkreiflezpk3kjz6zsv23pbvowtatnd5hmqfkdro33x5mh2azlhne3ah4"
  ],
  "numDeployments": 1,
  "solcInputHash": "2e71b4f5a4f54915fa586ca0c6f426c9",
  "bytecode": "0x60806040523480156200001157600080fd5b5060405162004cb738038062004cb783398101604081905262000034916200011f565b600462000042838262000218565b50600662000051828262000218565b505050620002e4565b634e487b7160e01b600052604160045260246000fd5b600082601f8301126200008257600080fd5b81516001600160401b03808211156200009f576200009f6200005a565b604051601f8301601f19908116603f01168101908282118183101715620000ca57620000ca6200005a565b81604052838152602092508683858801011115620000e757600080fd5b600091505b838210156200010b5785820183015181830184015290820190620000ec565b600093810190920192909252949350505050565b600080604083850312156200013357600080fd5b82516001600160401b03808211156200014b57600080fd5b620001598683870162000070565b935060208501519150808211156200017057600080fd5b506200017f8582860162000070565b9150509250929050565b600181811c908216806200019e57607f821691505b602082108103620001bf57634e487b7160e01b600052602260045260246000fd5b50919050565b601f8211156200021357600081815260208120601f850160051c81016020861015620001ee5750805b601f850160051c820191505b818110156200020f57828155600101620001fa565b5050505b505050565b81516001600160401b038111156200023457620002346200005a565b6200024c8162000245845462000189565b84620001c5565b602080601f8311600181146200028457600084156200026b5750858301515b600019600386901b1c1916600185901b1785556200020f565b600085815260208120601f198616915b82811015620002b55788860151825594840194600190910190840162000294565b5085821015620002d45787850151600019600388901b60f8161c191681555b5050505050600190811b01905550565b6149c380620002f46000396000f3fe608060405234801561001057600080fd5b50600436106103a35760003560e01c806382afd23b116101e9578063d0221ee01161010f578063e985e9c5116100ad578063fb2849171161007c578063fb284917146108d2578063fb2aaa4c146108ff578063fc3e05a414610912578063fd8a71631461092257600080fd5b8063e985e9c514610870578063f242432a1461089e578063f737401e146108ac578063f8f353b6146108bf57600080fd5b8063d80a8434116100e9578063d80a843414610824578063d9fd995b14610837578063e05209ff1461084a578063e33dd5c91461085d57600080fd5b8063d0221ee0146107d6578063d3272ba8146107e9578063d395acf8146107fc57600080fd5b8063a2be079b11610187578063b052925e11610156578063b052925e1461077d578063b56f756214610790578063c43dc177146107a3578063cead6304146107b657600080fd5b8063a2be079b14610709578063a4a1f06c14610737578063ac9650d81461074a578063afaae55a1461076a57600080fd5b80639d6ccb9f116101c35780639d6ccb9f146106c25780639fe3b510146106d5578063a22cb465146106e8578063a29e8fa6146106f657600080fd5b806382afd23b146106735780638c076077146106865780639aa22f6d146106af57600080fd5b8063499c05e8116102ce578063641f776e1161026c578063756329a41161023b578063756329a4146106275780637903e56b1461063a5780637a9df89f1461064d57806380198fad1461066057600080fd5b8063641f776e146105cc5780636743175a146105df5780637178fb51146105f257806374f82e301461061f57600080fd5b806354a1826c116102a857806354a1826c1461054f57806357f607721461056257806359701e44146105a65780635d5eb5af146105b957600080fd5b8063499c05e8146104f45780634e1273f41461051c57806352a6b2651461053c57600080fd5b80631a64dfad11610346578063378a848911610315578063378a8489146104a85780633fa9d544146104bb5780634352409a146104ce57806345fffac8146104e157600080fd5b80631a64dfad1461046157806321dbb8cb146104745780632eb2c2d614610487578063376792b91461049557600080fd5b806306fdde031161038257806306fdde03146104065780630b328e261461041b5780630e89341c1461043b5780631183a8c01461044e57600080fd5b8062fdd58e146103a85780630109f854146103ce57806301ffc9a7146103e3575b600080fd5b6103bb6103b636600461379a565b610935565b6040519081526020015b60405180910390f35b6103e16103dc3660046137c4565b610978565b005b6103f66103f13660046137f0565b610a60565b60405190151581526020016103c5565b61040e610a97565b6040516103c5919061386a565b6103bb610429366004613891565b60036020526000908152604090205481565b61040e6104493660046138ac565b610b25565b6103bb61045c3660046138ac565b610b30565b6103bb61046f36600461390d565b610b6a565b6103e161048236600461398d565b610bd3565b6103e16103a33660046139f4565b6103e16104a3366004613aae565b610cbd565b6103e16104b6366004613aae565b610d28565b6103f66104c93660046137c4565b610dc0565b6103f66104dc36600461379a565b610f1b565b6103f66104ef3660046138ac565b610f30565b6105076105023660046138ac565b610f6d565b60405163ffffffff90911681526020016103c5565b61052f61052a366004613b37565b6110e9565b6040516103c59190613ba2565b6103f661054a366004613b37565b6111d0565b6103f661055d36600461379a565b611257565b61058e6105703660046138ac565b6000908152600760205260409020600101546001600160a01b031690565b6040516001600160a01b0390911681526020016103c5565b6103e16105b43660046137c4565b6113c3565b6103bb6105c736600461398d565b611479565b6103f66105da3660046137c4565b611506565b6103f66105ed3660046138ac565b61162c565b6105076106003660046138ac565b600090815260076020526040902054600160c01b900463ffffffff1690565b61040e6116b4565b6103e16106353660046138ac565b6116c1565b6103f6610648366004613c92565b611762565b6103e161065b3660046138ac565b6118d2565b6103e161066e366004613df6565b61190a565b6103f66106813660046138ac565b6119e6565b61058e6106943660046138ac565b6000908152600760205260409020546001600160a01b031690565b6105076106bd3660046138ac565b6119fe565b6105076106d0366004613891565b611a15565b6103f66106e3366004613e20565b611a45565b6103e16103a3366004613e4c565b6103f6610704366004613e20565b611a82565b6103f66107173660046137c4565b600860209081526000928352604080842090915290825290205460ff1681565b6103e1610745366004613e76565b611ade565b61075d610758366004613eb2565b611c69565b6040516103c59190613ef3565b6103f6610778366004613f55565b611cea565b6103bb61078b366004613fa2565b611d38565b6103f661079e36600461379a565b611e44565b6103f66107b1366004614062565b611f8b565b6103bb6107c4366004613891565b60026020526000908152604090205481565b6103e16107e4366004613e20565b611fd0565b6103f66107f73660046138ac565b612036565b61080f61080a3660046138ac565b61207c565b6040516103c599989796959493929190614085565b6103f661083236600461379a565b6121a8565b6103e1610845366004614101565b6121c2565b6103bb61085836600461398d565b612272565b61040e61086b3660046138ac565b6122a1565b6103f661087e36600461414c565b600160209081526000928352604080842090915290825290205460ff1681565b6103e16103a3366004614168565b6103e16108ba366004614101565b61263f565b6103bb6108cd3660046141df565b6126ef565b6105076108e03660046138ac565b600090815260076020526040902054600160a01b900463ffffffff1690565b61050761090d3660046138ac565b612753565b6005546105079063ffffffff1681565b6103f66109303660046138ac565b6127b2565b600081815260076020526040812061094d81846127cc565b801561095f575061095f8482856128e0565b156109715761096e8484612a64565b91505b5092915050565b6001600160a01b03811661099f5760405163d92e233d60e01b815260040160405180910390fd5b6109a882612a89565b60008281526007602052604090206109bf81612ab9565b6109dc57604051635dbbc87360e11b815260040160405180910390fd5b6000806109e98386612acf565b9150915081156109ff576109fd8582612be1565b505b6001830180546001600160a01b0319166001600160a01b0386169081179091556040805187815260208101929092527ff68bc34e5f23b18f8e3a63ff51c021c8fbc9266113a63a4c73a66b4ad9033638910160405180910390a15050505050565b60006301ffc9a760e01b6001600160e01b031983161480610a9157506303a24d0760e21b6001600160e01b03198316145b92915050565b60048054610aa490614216565b80601f0160208091040260200160405190810160405280929190818152602001828054610ad090614216565b8015610b1d5780601f10610af257610100808354040283529160200191610b1d565b820191906000526020600020905b815481529060010190602001808311610b0057829003601f168201915b505050505081565b6060610a9182612c5a565b6000818152600760205260408120548190610b5790600160e01b900461ffff166001614260565b9050610b6383826126ef565b9392505050565b6005805460009160e0918390610b859063ffffffff1661427b565b91906101000a81548163ffffffff021916908363ffffffff160217905563ffffffff16901b9050610bc0818686600160008060008a8a612e8a565b610bca8682612f90565b95945050505050565b610bdc82612a89565b6000828152600760205260409020610bf381612ab9565b610c1057604051635dbbc87360e11b815260040160405180910390fd5b805463ffffffff600160c01b90910481169083161015610c435760405163d2955d3b60e01b815260040160405180910390fd5b805463ffffffff838116600160a01b9092041614610cb857805463ffffffff60a01b1916600160a01b63ffffffff84169081029190911782556040805185815260208101929092527fb1141d53812d55ffe5a4ca05e686728ebe52d8e4fc66057d6e54724c01a77f5691015b60405180910390a15b505050565b6001600160e01b031960e089901b16610cd581612a89565b600e610ce089612753565b63ffffffff161015610d0457610cff610cfa8960016126ef565b612a89565b610d0d565b610d0d8861301f565b610d1d898989898989898961305b565b505050505050505050565b600e610d3388612753565b63ffffffff161015610d5257610d4d610cfa8860016126ef565b610d5b565b610d5b8761301f565b63ffffffff88166000908152600260205260409020548714610d9057604051635e598f5160e11b815260040160405180910390fd5b63ffffffff8816600090815260026020526040812055610db6888888888888888861305b565b5050505050505050565b6000828152600760205260408082205490516001600160a01b038481166024830152604482018690528392839283928392169060640160408051601f198184030181529181526020820180516001600160e01b0316635eb41c3960e11b17905251610e2b91906142ba565b600060405180830381855afa9150503d8060008114610e66576040519150601f19603f3d011682016040523d82523d6000602084013e610e6b565b606091505b5091509150818015610e7e575080516040145b15610ee95760008082806020019051810190610e9a91906142d6565b91509150600282108015610eae5750600281105b15610ee95780600114610ec2576000610ec5565b60015b9450848015610ed45750816001145b610edf576000610ee2565b60015b9550610f02565b6040516345ebc5ad60e11b815260040160405180910390fd5b5050610f1087878686613368565b979650505050505050565b600080610f288484610935565b119392505050565b6000610f3b826127b2565b8015610a91575060036000610f4f846119fe565b63ffffffff1681526020810191909152604001600020541592915050565b60006001600160e01b0382168103610f8757506000919050565b6001600160d01b038216600003610fa057506001919050565b6001600160c01b038216600003610fb957506002919050565b6001600160b01b038216600003610fd257506003919050565b6001600160a01b038216600003610feb57506004919050565b71ffffffffffffffffffffffffffffffffffff821660000361100f57506005919050565b6fffffffffffffffffffffffffffffffff821660000361103157506006919050565b6dffffffffffffffffffffffffffff821660000361105157506007919050565b6001600160601b03821660000361106a57506008919050565b69ffffffffffffffffffff821660000361108657506009919050565b6001600160401b03821660000361109f5750600a919050565b65ffffffffffff82166000036110b75750600b919050565b63ffffffff82166000036110cd5750600c919050565b61ffff82166000036110e15750600d919050565b50600e919050565b606083821461110b5760405163fc5221bd60e01b815260040160405180910390fd5b836001600160401b0381111561112357611123613be6565b60405190808252806020026020018201604052801561114c578160200160208202803683370190505b50905060005b848110156111c7576111a286868381811061116f5761116f6142fa565b90506020020160208101906111849190614310565b858584818110611196576111966142fa565b90506020020135610935565b8282815181106111b4576111b46142fa565b6020908102919091010152600101611152565b50949350505050565b6000838281146111f35760405163fc5221bd60e01b815260040160405180910390fd5b60005b8181101561124a57611241878783818110611213576112136142fa565b9050602002013586868481811061122c5761122c6142fa565b90506020020160208101906105da9190614310565b506001016111f6565b5060019695505050505050565b6000818152600760205260408082205490516001600160a01b038581166024830152604482018590528392839291169060640160408051601f198184030181529181526020820180516001600160e01b0316635eb41c3960e11b179052516112bf91906142ba565b600060405180830381855afa9150503d80600081146112fa576040519150601f19603f3d011682016040523d82523d6000602084013e6112ff565b606091505b5091509150818015611312575080516040145b15611391576000808280602001905181019061132e91906142d6565b915091506002821080156113425750600281105b156113605780600114611356576000611359565b60015b945061138a565b60008681526008602090815260408083206001600160a01b038b16845290915290205460ff161594505b50506113bb565b60008481526008602090815260408083206001600160a01b038916845290915290205460ff161592505b505092915050565b6001600160a01b0381166113ea5760405163d92e233d60e01b815260040160405180910390fd5b6113f382612a89565b600082815260076020526040902061140a81612ab9565b61142757604051635dbbc87360e11b815260040160405180910390fd5b80546001600160a01b0319166001600160a01b03831690811782556040805185815260208101929092527f5f59e4feecec6992840f6f7c313415b21889d4445ea82fefd7f620aeb194461d9101610caf565b60008060036000611489866119fe565b63ffffffff1663ffffffff168152602001908152602001600020549050806000036114c0576114b88484612272565b915050610a91565b60006114d061090d866000612272565b90508363ffffffff168163ffffffff16116114fc576114f385610858838761432b565b92505050610a91565b610bca8285611479565b60008281526007602052604081208054600160a01b900463ffffffff16820361154a57604051632b88c60560e21b8152600481018590526024015b60405180910390fd5b61155483856121a8565b61157157604051637c75aa6f60e11b815260040160405180910390fd5b61157b81856127cc565b6115985760405163e629aba360e01b815260040160405180910390fd5b6115a184612a89565b805463ffffffff600160a01b82048116600160c01b90920416106115db5760405163019b2d5760e31b815260048101859052602401611541565b60006115e78486612a64565b11156116185760405163643d208360e01b81526001600160a01b038416600482015260248101859052604401611541565b6116228385612f90565b5060019392505050565b6000611637826127b2565b1561164457506001919050565b600061164f83610f6d565b905060008061165f60018461432b565b63ffffffff1690505b80156116a95761167981600e614348565b61168490601061435b565b85901c91508161ffff166000036116a057506000949350505050565b60001901611668565b506001949350505050565b60068054610aa490614216565b6116ca81612a89565b60008181526007602052604090206116e181612ab9565b6116fe57604051635dbbc87360e11b815260040160405180910390fd5b6001810180546001600160a01b038116600160a01b918290046bbfffffffffffffffffffffff169091021790556040518281527f10bb2a0010ffb3a037a886128a37f6574be73acb0ee505c37a4f12e8d290ed8e9060200160405180910390a15050565b60008b818b821480156117745750818a145b80156117805750885182145b801561178c5750875182145b801561179757508186145b80156117a257508184145b9050806117c25760405163fc5221bd60e01b815260040160405180910390fd5b5060005b818110156118bd576118b48f8f838181106117e3576117e36142fa565b905060200201358e8e848181106117fc576117fc6142fa565b905060200281019061180e9190614372565b8e8e86818110611820576118206142fa565b90506020020160208101906118359190613891565b8d8681518110611847576118476142fa565b60200260200101518d8781518110611861576118616142fa565b60200260200101518d8d8981811061187b5761187b6142fa565b905060200201602081019061189091906143b8565b8c8c8a8181106118a2576118a26142fa565b905060200281019061078b9190614372565b506001016117c6565b5060019e9d5050505050505050505050505050565b60016118de3383612a64565b10156118fd5760405163ae9f0ba560e01b815260040160405180910390fd5b6119073382613445565b50565b6001600160e01b031960e083901b1661192281612a89565b6001600160a01b038216158061193f575061193d8282610f1b565b155b1561195d576040516314c1a0e360e31b815260040160405180910390fd5b63ffffffff83166000818152600360209081526040808320839055600282528083208390558483526007825280832080546001600160a01b031990811682556001820180549091169055815194855291840192909252917fd89812e6ebd66026da23b9c10923f8ec2d47c2f4bea260250e66d05ab76f6b8991015b60405180910390a150505050565b6000818152600760205260408120610a9190836127cc565b6000611a0c600e601061435b565b9190911c919050565b63ffffffff8116600090815260036020526040812054808203611a39575090919050565b610b636106d0826119fe565b600080611a5184611a15565b90506000611a5e846119fe565b90506000611a6b82611a15565b63ffffffff93841693169290921495945050505050565b600081600003611a9457506001610a91565b6000611a9f836119fe565b90508063ffffffff168463ffffffff1603611abe576000915050610a91565b63ffffffff8116600090815260036020526040902054610bca8582611a82565b611ae783612a89565b611af083610f30565b611b28576000838152600760205260409020611b0b90612ab9565b611b2857604051635dbbc87360e11b815260040160405180910390fd5b6001611b348385612a64565b1015611b535760405163ae9f0ba560e01b815260040160405180910390fd5b6000611b5f8285612a64565b1115611b905760405163643d208360e01b81526001600160a01b038216600482015260248101849052604401611541565b611b9a81846121a8565b611bb757604051637c75aa6f60e11b815260040160405180910390fd5b6000838152600760205260409020611bcf90846127cc565b611bec5760405163e629aba360e01b815260040160405180910390fd5b6001600160a01b038281166000818152602081815260408083208884528252808320839055938516808352828252848320888452825291849020600190819055845188815291820152909233917fc3d58168c5ae7397731d063d5bbf3d657854427343f4c083240f7aacaa2d0f62910160405180910390a4505050565b606060206000528160205281611c7f5760406000f35b60408260051b8085604037818101905b82518601604082018135602083018237600080833583305af4611cb6573d6000803e3d6000fd5b8285526020850194503d81523d6000602083013e50503d01603f0167ffffffffffffffe016818310611c8f57604081016000f35b600084815260076020526040812080546001600160a01b03163314611d22576040516345ebc5ad60e11b815260040160405180910390fd5b611d2e86868686613368565b9695505050505050565b600061ffff8a1615611d5d57604051630f9244b960e31b815260040160405180910390fd5b6001600160a01b038616611d845760405163d92e233d60e01b815260040160405180910390fd5b6001600160a01b038516611dab5760405163d92e233d60e01b815260040160405180910390fd5b611db48a61162c565b611dd157604051630b43a06560e41b815260040160405180910390fd5b611dda8a610b30565b9050611de581612a89565b611df6818a8a8a8a8a8a8a8a612e8a565b60008a81526007602052604090208054601c90611e1d90600160e01b900461ffff166143d3565b91906101000a81548161ffff021916908361ffff1602179055509998505050505050505050565b6000806000611e52846127b2565b15611ec05760036000611e64866119fe565b63ffffffff1663ffffffff16815260200190815260200160002054915081600003611e93576114f38585610f1b565b611e9d8583610f1b565b15611ead57600192505050610a91565b611eb682610f6d565b9050819350611ed8565b6001611ecb85610f6d565b611ed5919061432b565b90505b63ffffffff811615611f0b57611ef2856104dc8684612272565b15611f0257600192505050610a91565b60001901611ed8565b611f1a856104dc866000612272565b15611f2a57600192505050610a91565b60036000611f37866119fe565b63ffffffff1663ffffffff16815260200190815260200160002054915081600003611f6757600092505050610a91565b611f718583610f1b565b15611f8157600192505050610a91565b610bca8583611e44565b600082815260076020526040812060018101546001600160a01b03163314611fc65760405163eaca8b6560e01b815260040160405180910390fd5b61096e8484612be1565b6001600160e01b031960e083901b16611fe881612a89565b63ffffffff8316600081815260026020908152604091829020859055815192835282018490527f81ae7626a9656578e59b92a7575fdbd9cfe59e467c1e88334e305e0b428e76669101610caf565b600081815260076020526040812081806120508386612acf565b91509150816120725760405163eaca8b6560e01b815260040160405180910390fd5b610bca8582612be1565b60606000806000806060600080600080600760008c815260200190815260200160002090508060020180546120b090614216565b80601f01602080910402602001604051908101604052809291908181526020018280546120dc90614216565b80156121295780601f106120fe57610100808354040283529160200191612129565b820191906000526020600020905b81548152906001019060200180831161210c57829003601f168201915b505084546001860154949e5063ffffffff600160a01b820481169e50600160c01b8204169c506001600160a01b039081169b5093909316985061217192508d91506122a19050565b8154909550600160e01b900461ffff16935061218c81612ab9565b9250612198818c6127cc565b9150509193959799909294969850565b6000818152600760205260408120610b63908490846128e0565b611b588111156121e557604051631623655b60e31b815260040160405180910390fd5b6121ee83612a89565b600083815260076020526040902061220584610f30565b61222f5761221281612ab9565b61222f57604051635dbbc87360e11b815260040160405180910390fd5b6003810161223e838583614438565b507f26bb402a5ddddf109a54486ab4d62a69ae00966cbc94c57075787f70bf9cba6c8484846040516119d893929190614521565b60008061228663ffffffff8416600e614348565b61229190601061435b565b600019901b939093169392505050565b600081815260076020526040812060038101805460609391906122c390614216565b80601f01602080910402602001604051908101604052809291908181526020018280546122ef90614216565b801561233c5780601f106123115761010080835404028352916020019161233c565b820191906000526020600020905b81548152906001019060200180831161231f57829003601f168201915b50505050509050600081511115612354579392505050565b600061235f85612753565b63ffffffff16905080600003612404576006805461237c90614216565b80601f01602080910402602001604051908101604052809291908181526020018280546123a890614216565b80156123f55780601f106123ca576101008083540402835291602001916123f5565b820191906000526020600020905b8154815290600101906020018083116123d857829003601f168201915b50505050509350505050919050565b600080612412600184614348565b90505b80156124e6576124258782611479565b600081815260076020526040902060038101805491975091935061244890614216565b80601f016020809104026020016040519081016040528092919081815260200182805461247490614216565b80156124c15780601f10612496576101008083540402835291602001916124c1565b820191906000526020600020905b8154815290600101906020018083116124a457829003601f168201915b505050505093506000845111156124dd57509195945050505050565b60001901612415565b506124f2866000611479565b600081815260076020526040902060038101805491965091925061251590614216565b80601f016020809104026020016040519081016040528092919081815260200182805461254190614216565b801561258e5780601f106125635761010080835404028352916020019161258e565b820191906000526020600020905b81548152906001019060200180831161257157829003601f168201915b505050505092506000835111156125a9575090949350505050565b600680546125b690614216565b80601f01602080910402602001604051908101604052809291908181526020018280546125e290614216565b801561262f5780601f106126045761010080835404028352916020019161262f565b820191906000526020600020905b81548152906001019060200180831161261257829003601f168201915b5050505050945050505050919050565b611b5881111561266257604051631623655b60e31b815260040160405180910390fd5b61266b83612a89565b600083815260076020526040902061268284610f30565b6126ac5761268f81612ab9565b6126ac57604051635dbbc87360e11b815260040160405180910390fd5b600281016126bb838583614438565b507fb8350431af3841b22f977d0e8fd4be94669ef68e2db1d7f02a731d5d09ed44cc8484846040516119d893929190614521565b60008060005b600e81101561273957600019602060108302011c915084821660000361273157806001600e03036010028461ffff16901b851792505050610a91565b6001016126f5565b50604051630f9244b960e31b815260040160405180910390fd5b600061275e82610f6d565b905060006003600061276f856119fe565b63ffffffff168152602081019190915260400160002054905080156127ac5761279781612753565b6127a283600161453b565b610b63919061453b565b50919050565b60008082118015610a915750506001600160e01b03161590565b600182015460405160248101839052600091829182916001600160a01b03169060440160408051601f198184030181529181526020820180516001600160e01b0316634b1047bd60e11b1790525161282491906142ba565b600060405180830381855afa9150503d806000811461285f576040519150601f19603f3d011682016040523d82523d6000602084013e612864565b606091505b5091509150818015612877575080516020145b156128c857600061288782614558565b9050600081900361289b57600093506128c2565b806001036128ac57600193506128c2565b600180870154600160a01b9004605f1c16151593505b506113bb565b600180860154600160a01b9004605f1c161515610bca565b81546040516001600160a01b03858116602483015260448201849052600092839283929091169060640160408051601f198184030181529181526020820180516001600160e01b0316635eb41c3960e11b1790525161293f91906142ba565b600060405180830381855afa9150503d806000811461297a576040519150601f19603f3d011682016040523d82523d6000602084013e61297f565b606091505b5091509150818015612992575080516040145b15612a31576000806000838060200190518101906129b091906142d6565b915091506002821080156129c45750600281105b156129ff57806001146129d85760006129db565b60015b92508280156129ea5750816001145b6129f55760006129f8565b60015b9550612a29565b60008781526008602090815260408083206001600160a01b038d16845290915290205460ff161595505b505050612a5b565b60008481526008602090815260408083206001600160a01b038a16845290915290205460ff161592505b50509392505050565b6001600160a01b03909116600090815260208181526040808320938352929052205490565b612a933382611e44565b6119075760405163f921ec0160e01b815233600482015260248101829052604401611541565b60010154600160a01b90046001605e1b16151590565b600080600083604051602401612ae791815260200190565b60408051601f198184030181529181526020820180516001600160e01b0316634b1047bd60e11b179052600187015490519192506060916001600160a01b0390911690612b359084906142ba565b600060405180830381855afa9150503d8060008114612b70576040519150601f19603f3d011682016040523d82523d6000602084013e612b75565b606091505b509094509050838015612b89575080516020145b15612bd357600081806020019051810190612ba4919061457c565b905080600003612bb75760009350612bcd565b80600103612bc85760019350612bcd565b600094505b50612bd8565b600093505b50509250929050565b6000828152600760205260408120600180820154600160a01b9004605f1c16151515158315151461097157612c1681846134d4565b6040805185815284151560208201527fd07f9843f67faeb66cef933eec38bef71b53ef4086a2aa2a5b109b6ee531c751910160405180910390a15060019392505050565b6000818152600760205260408120606091612c7484610f30565b15612c80575082612c9c565b612c99846001612c8f87612753565b6105c7919061432b565b90505b6000612cb5612caa866119fe565b63ffffffff16613539565b612cbe86613539565b612cc987602061357d565b604051602001612cdb93929190614595565b60405160208183030381529060405290506000612cf884876127cc565b612d225760405180604001604052806008815260200167696e61637469766560c01b815250612d42565b6040518060400160405280600681526020016561637469766560d01b8152505b8454612d5a90600160c01b900463ffffffff16613539565b8554612d7290600160a01b900463ffffffff16613539565b612d7b86613539565b612d8687602061357d565b8854612d9a906001600160a01b031661360f565b60018a0154612db1906001600160a01b031661360f565b612dba8b612ab9565b612de1576040518060400160405280600581526020016466616c736560d81b815250612dff565b604051806040016040528060048152602001637472756560e01b8152505b604051602001612e16989796959493929190614634565b6040516020818303038152906040529050612e6084600201612e37886122a1565b8484604051602001612e4c94939291906147b2565b604051602081830303815290604052613676565b604051602001612e7091906148e0565b604051602081830303815290604052945050505050919050565b600089815260076020526040902060028101612ea7898b83614438565b5080546001600160a01b038088166001600160a01b031963ffffffff8b16600160a01b0281166001600160c01b0319909416939093171783556001830180549188169190921617905560038101612eff838583614438565b5083612f0f576001605f1b612f15565b6003605e1b5b8160010160146101000a8154816001600160601b0302191690836001600160601b031602179055507f4d38ad12136291322128027bb8c3af7db2261be395032c1d26dd0ad20cf294158a8a8a8a8a8a8a8a8a604051612f7c99989796959493929190614925565b60405180910390a150505050505050505050565b6001600160a01b038216600081815260208181526040808320858452825280832060019081905560078352818420805463ffffffff600160c01b808304821685019091160263ffffffff60c01b1990911617905581518681529283015233917fc3d58168c5ae7397731d063d5bbf3d657854427343f4c083240f7aacaa2d0f6291015b60405180910390a45050565b6130293382611e44565b15801561303d575061303b3382610f1b565b155b156119075760405163bc3a32ff60e01b815260040160405180910390fd5b6130658888611a82565b613082576040516310084a3f60e21b815260040160405180910390fd5b63ffffffff8816600090815260036020526040902054801561313057600060e06130ab8b611a15565b63ffffffff16901b90506130bf3382610f1b565b613107576001600160e01b0319808a169083168082148015906130e25750828214155b15613100576040516344ce0dd360e11b815260040160405180910390fd5b505061312e565b6131118a8a611a45565b61312e576040516344ce0dd360e11b815260040160405180910390fd5b505b506001600160e01b031960e089901b1660008181526007602052604090206001600160a01b038816156131b35780546001600160a01b0319166001600160a01b03891690811782556040805184815260208101929092527f5f59e4feecec6992840f6f7c313415b21889d4445ea82fefd7f620aeb194461d910160405180910390a15b6001600160a01b0387161561321d576001810180546001600160a01b0319166001600160a01b0389169081179091556040805184815260208101929092527ff68bc34e5f23b18f8e3a63ff51c021c8fbc9266113a63a4c73a66b4ad9033638910160405180910390a15b84801561329357611b5881111561324757604051631623655b60e31b815260040160405180910390fd5b60028201613256878983614438565b507fb8350431af3841b22f977d0e8fd4be94669ef68e2db1d7f02a731d5d09ed44cc83888860405161328a93929190614521565b60405180910390a15b5082801561330a57611b588111156132be57604051631623655b60e31b815260040160405180910390fd5b600382016132cd858783614438565b507f26bb402a5ddddf109a54486ab4d62a69ae00966cbc94c57075787f70bf9cba6c83868660405161330193929190614521565b60405180910390a15b63ffffffff8b166000818152600360209081526040918290208d9055815192835282018c90527fd89812e6ebd66026da23b9c10923f8ec2d47c2f4bea260250e66d05ab76f6b89910160405180910390a15050505050505050505050565b6000806133758587612a64565b111561339557821580613386575081155b15613395576133958486613445565b60008581526008602090815260408083206001600160a01b038816845290915290205460ff1615158215150361343d575060008481526008602090815260408083206001600160a01b038716808552908352928190208054851560ff19909116811790915581518881529283019390935291158183015290516001917ff95db9732f1ede51ad19afa6ee380168a1be58df547533ff009c18ceacd01ef5919081900360600190a15b949350505050565b6001600160a01b038216600081815260208181526040808320858452825280832083905560078252808320805463ffffffff60c01b198116600160c01b9182900463ffffffff9081166000190116909102179055805185815260019281019290925291929133917fc3d58168c5ae7397731d063d5bbf3d657854427343f4c083240f7aacaa2d0f629101613013565b801561350a575060010180546001600160a01b0381166001605f1b600160a01b928390046001600160601b031617909102179055565b5060010180546001600160a01b038116600160a01b918290046b7fffffffffffffffffffffff16909102179055565b606060a06040510180604052602081039150506000815280825b600183039250600a81066030018353600a9004806135535750819003601f19909101908152919050565b60408051601f196062600185901b01811690910191829052600091019081526f30313233343536373839616263646566600f5280835b600f8116516001198401936000190153600f8160041c165183536000199093019260081c836135b35780156135f057632194895a6000526004601cfd5b50613078601f1983015281900360020160211990910190815292915050565b60408051606001908190526f30313233343536373839616263646566600f526014825b600f8116516001198401936000190153600f8160041c165183536000199091019060081c81613632575050613078601f19820152602a602119909101908152919050565b6060610a9182600080606083518015613776576003600282010460021b60405192507f4142434445464748494a4b4c4d4e4f505152535455565758595a616263646566601f526102308515027f6768696a6b6c6d6e6f707172737475767778797a303132333435363738392d5f03603f52602083018181015b6003880197508751603f8160121c16518353603f81600c1c16516001840153603f8160061c16516002840153603f8116516003840153506004820191508082106136ef576003840686801561374f57600182148215150185038752613767565b603d821515850353603d6001831460011b8503538487525b5050601f01601f191660405250505b509392505050565b80356001600160a01b038116811461379557600080fd5b919050565b600080604083850312156137ad57600080fd5b6137b68361377e565b946020939093013593505050565b600080604083850312156137d757600080fd5b823591506137e76020840161377e565b90509250929050565b60006020828403121561380257600080fd5b81356001600160e01b031981168114610b6357600080fd5b60005b8381101561383557818101518382015260200161381d565b50506000910152565b6000815180845261385681602086016020860161381a565b601f01601f19169290920160200192915050565b602081526000610b63602083018461383e565b803563ffffffff8116811461379557600080fd5b6000602082840312156138a357600080fd5b610b638261387d565b6000602082840312156138be57600080fd5b5035919050565b60008083601f8401126138d757600080fd5b5081356001600160401b038111156138ee57600080fd5b60208301915083602082850101111561390657600080fd5b9250929050565b60008060008060006060868803121561392557600080fd5b61392e8661377e565b945060208601356001600160401b038082111561394a57600080fd5b61395689838a016138c5565b9096509450604088013591508082111561396f57600080fd5b5061397c888289016138c5565b969995985093965092949392505050565b600080604083850312156139a057600080fd5b823591506137e76020840161387d565b60008083601f8401126139c257600080fd5b5081356001600160401b038111156139d957600080fd5b6020830191508360208260051b850101111561390657600080fd5b60008060008060008060008060a0898b031215613a1057600080fd5b613a198961377e565b9750613a2760208a0161377e565b965060408901356001600160401b0380821115613a4357600080fd5b613a4f8c838d016139b0565b909850965060608b0135915080821115613a6857600080fd5b613a748c838d016139b0565b909650945060808b0135915080821115613a8d57600080fd5b50613a9a8b828c016138c5565b999c989b5096995094979396929594505050565b60008060008060008060008060c0898b031215613aca57600080fd5b613ad38961387d565b975060208901359650613ae860408a0161377e565b9550613af660608a0161377e565b945060808901356001600160401b0380821115613b1257600080fd5b613b1e8c838d016138c5565b909650945060a08b0135915080821115613a8d57600080fd5b60008060008060408587031215613b4d57600080fd5b84356001600160401b0380821115613b6457600080fd5b613b70888389016139b0565b90965094506020870135915080821115613b8957600080fd5b50613b96878288016139b0565b95989497509550505050565b6020808252825182820181905260009190848201906040850190845b81811015613bda57835183529284019291840191600101613bbe565b50909695505050505050565b634e487b7160e01b600052604160045260246000fd5b600082601f830112613c0d57600080fd5b813560206001600160401b0380831115613c2957613c29613be6565b8260051b604051601f19603f83011681018181108482111715613c4e57613c4e613be6565b604052938452858101830193838101925087851115613c6c57600080fd5b83870191505b84821015610f1057613c838261377e565b83529183019190830190613c72565b60008060008060008060008060008060008060e08d8f031215613cb457600080fd5b6001600160401b038d351115613cc957600080fd5b613cd68e8e358f016139b0565b909c509a506001600160401b0360208e01351115613cf357600080fd5b613d038e60208f01358f016139b0565b909a5098506001600160401b0360408e01351115613d2057600080fd5b613d308e60408f01358f016139b0565b90985096506001600160401b0360608e01351115613d4d57600080fd5b613d5d8e60608f01358f01613bfc565b95506001600160401b0360808e01351115613d7757600080fd5b613d878e60808f01358f01613bfc565b94506001600160401b0360a08e01351115613da157600080fd5b613db18e60a08f01358f016139b0565b90945092506001600160401b0360c08e01351115613dce57600080fd5b613dde8e60c08f01358f016139b0565b81935080925050509295989b509295989b509295989b565b60008060408385031215613e0957600080fd5b613e128361387d565b91506137e76020840161377e565b60008060408385031215613e3357600080fd5b6137b68361387d565b8035801515811461379557600080fd5b60008060408385031215613e5f57600080fd5b613e688361377e565b91506137e760208401613e3c565b600080600060608486031215613e8b57600080fd5b83359250613e9b6020850161377e565b9150613ea96040850161377e565b90509250925092565b60008060208385031215613ec557600080fd5b82356001600160401b03811115613edb57600080fd5b613ee7858286016139b0565b90969095509350505050565b6000602080830181845280855180835260408601915060408160051b870101925083870160005b82811015613f4857603f19888603018452613f3685835161383e565b94509285019290850190600101613f1a565b5092979650505050505050565b60008060008060808587031215613f6b57600080fd5b84359350613f7b6020860161377e565b9250613f8960408601613e3c565b9150613f9760608601613e3c565b905092959194509250565b600080600080600080600080600060e08a8c031215613fc057600080fd5b8935985060208a01356001600160401b0380821115613fde57600080fd5b613fea8d838e016138c5565b909a509850889150613ffe60408d0161387d565b975061400c60608d0161377e565b965061401a60808d0161377e565b955061402860a08d01613e3c565b945060c08c013591508082111561403e57600080fd5b5061404b8c828d016138c5565b915080935050809150509295985092959850929598565b6000806040838503121561407557600080fd5b823591506137e760208401613e3c565b60006101208083526140998184018d61383e565b63ffffffff8c811660208601528b1660408501526001600160a01b038a811660608601528916608085015283810360a085015290506140d8818861383e565b61ffff9690961660c0840152505091151560e08301521515610100909101529695505050505050565b60008060006040848603121561411657600080fd5b8335925060208401356001600160401b0381111561413357600080fd5b61413f868287016138c5565b9497909650939450505050565b6000806040838503121561415f57600080fd5b613e128361377e565b60008060008060008060a0878903121561418157600080fd5b61418a8761377e565b95506141986020880161377e565b9450604087013593506060870135925060808701356001600160401b038111156141c157600080fd5b6141cd89828a016138c5565b979a9699509497509295939492505050565b600080604083850312156141f257600080fd5b82359150602083013561ffff8116811461420b57600080fd5b809150509250929050565b600181811c9082168061422a57607f821691505b6020821081036127ac57634e487b7160e01b600052602260045260246000fd5b634e487b7160e01b600052601160045260246000fd5b61ffff8181168382160190808211156109715761097161424a565b600063ffffffff8083168181036142945761429461424a565b6001019392505050565b600081516142b081856020860161381a565b9290920192915050565b600082516142cc81846020870161381a565b9190910192915050565b600080604083850312156142e957600080fd5b505080516020909101519092909150565b634e487b7160e01b600052603260045260246000fd5b60006020828403121561432257600080fd5b610b638261377e565b63ffffffff8281168282160390808211156109715761097161424a565b81810381811115610a9157610a9161424a565b8082028115828204841417610a9157610a9161424a565b6000808335601e1984360301811261438957600080fd5b8301803591506001600160401b038211156143a357600080fd5b60200191503681900382131561390657600080fd5b6000602082840312156143ca57600080fd5b610b6382613e3c565b600061ffff8083168181036142945761429461424a565b601f821115610cb857600081815260208120601f850160051c810160208610156144115750805b601f850160051c820191505b818110156144305782815560010161441d565b505050505050565b6001600160401b0383111561444f5761444f613be6565b6144638361445d8354614216565b836143ea565b6000601f841160018114614497576000851561447f5750838201355b600019600387901b1c1916600186901b1783556144f1565b600083815260209020601f19861690835b828110156144c857868501358255602094850194600190920191016144a8565b50868210156144e55760001960f88860031b161c19848701351681555b505060018560011b0183555b5050505050565b81835281816020850137506000828201602090810191909152601f909101601f19169091010190565b838152604060208201526000610bca6040830184866144f8565b63ffffffff8181168382160190808211156109715761097161424a565b805160208083015191908110156127ac5760001960209190910360031b1b16919050565b60006020828403121561458e57600080fd5b5051919050565b6a113237b6b0b4b7111d101160a91b815283516000906145bc81600b85016020890161381a565b691116101134b2111d101160b11b600b9184019182015284516145e681601584016020890161381a565b7011161011383932ba3a3c9034b2111d101160791b60159290910191820152835161461881602684016020880161381a565b61088b60f21b6026929091019182015260280195945050505050565b6a1139ba30ba3ab9911d101160a91b8152885160009061465b81600b850160208e0161381a565b751116101131bab93932b73a1039bab838363c911d101160511b600b918401918201528951614691816021840160208e0161381a565b016146b360218201711116101139bab838363c9031b0b8111d101160711b9052565b6146c0603382018a61429e565b711116101130b236b4b7101434b214911d101160711b815290506146e7601282018961429e565b7f222c202261646d696e202870726574747920696429223a20220000000000000081529050614719601982018861429e565b7f222c2022656c69676962696c697479206d6f64756c65223a20220000000000008152905061474b601a82018761429e565b74111610113a37b3b3b6329036b7b23ab632911d101160591b81529050614775601582018661429e565b6e1116101136baba30b13632911d101160891b81529050614799600f82018561429e565b601160f91b81526001019b9a5050505050505050505050565b693d913730b6b2911d101160b11b81526212185d60ea1b600a82015272111610113232b9b1b934b83a34b7b7111d101160691b600d820152845460009060209082906147fd81614216565b60018281168015614815576001811461482e5761485e565b60ff19841688870152821515830288018601945061485e565b8b6000528560002060005b848110156148545781548a8201890152908301908701614839565b5050858389010194505b506c1116101134b6b0b3b2911d101160991b845261487f600d85018b61429e565b61088b60f21b815294506d011383937b832b93a34b2b9911d160951b6002860152607b60f81b60108601526148c06148ba601187018b61429e565b8961429e565b607d60f81b808252918101919091526002019a9950505050505050505050565b7f646174613a6170706c69636174696f6e2f6a736f6e3b6261736536342c00000081526000825161491881601d85016020870161381a565b91909101601d0192915050565b89815260e06020820152600061493f60e083018a8c6144f8565b63ffffffff891660408401526001600160a01b0388811660608501528716608084015285151560a084015282810360c084015261497d8185876144f8565b9c9b50505050505050505050505056fea2646970667358221220a4eb9ec6bd1f8970f301d0524a656ec4c9141268f10c5eb0684242925eff379b64736f6c63430008150033",
  "devdoc": {
    "author": "Haberdasher Labs",
    "details": "This is a multi-tenant contract that can manage all hats for a given chain. While it fully implements the ERC1155 interface, it does not fully comply with the ERC1155 standard.",
    "errors": {
      "InvalidUnlink()": [
        {
          "details": "This ensures that unlinking never results in a bricked tophat"
        }
      ],
      "NotAdmin(address,uint256)": [
        {
          "details": "Can be equivalent to `NotHatWearer(buildHatId(hatId))`, such as when emitted by `approveLinkTopHatToTree` or `relinkTopHatToTree`"
        }
      ],
      "StringTooLong()": [
        {
          "details": "This protects against a DOS attack where an admin iteratively extend's a hat's details or imageURI      to be so long that reading it exceeds the block gas limit, breaking `uri()` and `viewHat()`"
        }
      ]
    },
    "events": {
      "HatCreated(uint256,string,uint32,address,address,bool,string)": {
        "params": {
          "details": "A description of the Hat",
          "eligibility": "The address that can report on the Hat wearer's status",
          "id": "The id for the new hat",
          "imageURI": "The image uri for this hat and the fallback for its",
          "maxSupply": "The total instances of the Hat that can be worn at once",
          "mutable_": "Whether the hat's properties are changeable after creation",
          "toggle": "The address that can deactivate the Hat"
        }
      },
      "HatDetailsChanged(uint256,string)": {
        "params": {
          "hatId": "The id of the hat",
          "newDetails": "The updated details"
        }
      },
      "HatEligibilityChanged(uint256,address)": {
        "params": {
          "hatId": "The id of the hat",
          "newEligibility": "The updated eligibiliy module"
        }
      },
      "HatImageURIChanged(uint256,string)": {
        "params": {
          "hatId": "The id of the hat",
          "newImageURI": "The updated image URI"
        }
      },
      "HatMaxSupplyChanged(uint256,uint32)": {
        "params": {
          "hatId": "The id of the hat",
          "newMaxSupply": "The updated max supply"
        }
      },
      "HatMutabilityChanged(uint256)": {
        "params": {
          "hatId": "The id of the hat"
        }
      },
      "HatStatusChanged(uint256,bool)": {
        "params": {
          "hatId": "The id of the hat",
          "newStatus": "Whether the hat is active"
        }
      },
      "HatToggleChanged(uint256,address)": {
        "params": {
          "hatId": "The id of the hat",
          "newToggle": "The updated toggle module"
        }
      },
      "TopHatLinkRequested(uint32,uint256)": {
        "params": {
          "domain": "The domain of the tree tophat to link",
          "newAdmin": "The tophat's would-be admin in the parent tree"
        }
      },
      "TopHatLinked(uint32,uint256)": {
        "params": {
          "domain": "The domain of the newly-linked tophat",
          "newAdmin": "The tophat's new admin in the parent tree"
        }
      },
      "WearerStandingChanged(uint256,address,bool)": {
        "details": "Eligibility is excluded since the source of truth for eligibility is the eligibility module and may change without a transaction",
        "params": {
          "hatId": "The id of the wearer's hat",
          "wearer": "The wearer's address",
          "wearerStanding": "Whether the wearer is in good standing for the hat"
        }
      }
    },
    "kind": "dev",
    "methods": {
      "approveLinkTopHatToTree(uint32,uint256,address,address,string,string)": {
        "details": "Requests can only be approved by wearer or an admin of the `_newAdminHat`, and there      can only be one link per tree root at a given time.",
        "params": {
          "_details": "Optional new details for the linked topHat",
          "_eligibility": "Optional new eligibility module for the linked topHat",
          "_imageURI": "Optional new imageURI for the linked topHat",
          "_newAdminHat": "The hat that will administer the linked tree",
          "_toggle": "Optional new toggle module for the linked topHat",
          "_topHatDomain": "The 32 bit domain of the topHat to link"
        }
      },
      "balanceOf(address,uint256)": {
        "details": "Balance is dynamic based on the hat's status and wearer's eligibility, so off-chain balance data indexed from events may not be in sync",
        "params": {
          "_hatId": "The id of the Hat",
          "_wearer": "The address whose balance is being checked"
        },
        "returns": {
          "balance": "The `wearer`'s balance of the Hat tokens. Can never be > 1."
        }
      },
      "balanceOfBatch(address[],uint256[])": {
        "details": "Given the higher gas overhead of Hats balanceOf checks, large batches may be high cost or run into gas limits",
        "params": {
          "_hatIds": "Array of Hat ids to check, using the same index as _wearers",
          "_wearers": "Array of addresses to check balances for"
        }
      },
      "batchCreateHats(uint256[],string[],uint32[],address[],address[],bool[],string[])": {
        "details": "This is a convenience function that loops through the arrays and calls `createHat`.",
        "params": {
          "_admins": "Array of ids of admins for each hat to create",
          "_details": "Array of details for each hat to create",
          "_eligibilityModules": "Array of eligibility module addresses for each hat to create",
          "_imageURIs": "Array of imageURIs for each hat to create",
          "_maxSupplies": "Array of supply caps for each hat to create",
          "_mutables": "Array of mutable flags for each hat to create",
          "_toggleModules": "Array of toggle module addresses for each hat to create"
        },
        "returns": {
          "success": "True if all createHat calls succeeded"
        }
      },
      "batchMintHats(uint256[],address[])": {
        "details": "This is a convenience function that loops through the arrays and calls `mintHat`.",
        "params": {
          "_hatIds": "Array of ids of hats to mint",
          "_wearers": "Array of addresses to which the hats will be minted"
        },
        "returns": {
          "success": "True if all mintHat calls succeeded"
        }
      },
      "buildHatId(uint256,uint16)": {
        "details": "Reverts if the admin has already reached `MAX_LEVELS`",
        "params": {
          "_admin": "the id of the admin for the new hat",
          "_newHat": "the uint16 id of the new hat"
        },
        "returns": {
          "id": "The constructed hat id"
        }
      },
      "changeHatDetails(uint256,string)": {
        "details": "Hat must be mutable, except for tophats.",
        "params": {
          "_hatId": "The id of the Hat to change",
          "_newDetails": "The new details. Must not be larger than 7000 bytes."
        }
      },
      "changeHatEligibility(uint256,address)": {
        "details": "Hat must be mutable",
        "params": {
          "_hatId": "The id of the Hat to change",
          "_newEligibility": "The new eligibility module"
        }
      },
      "changeHatImageURI(uint256,string)": {
        "details": "Hat must be mutable, except for tophats",
        "params": {
          "_hatId": "The id of the Hat to change",
          "_newImageURI": "The new imageURI. Must not be larger than 7000 bytes."
        }
      },
      "changeHatMaxSupply(uint256,uint32)": {
        "details": "Hat must be mutable; new max supply cannot be less than current supply",
        "params": {
          "_hatId": "The id of the Hat to change",
          "_newMaxSupply": "The new max supply"
        }
      },
      "changeHatToggle(uint256,address)": {
        "details": "Hat must be mutable",
        "params": {
          "_hatId": "The id of the Hat to change",
          "_newToggle": "The new toggle module"
        }
      },
      "checkHatStatus(uint256)": {
        "details": "May change the hat's status in storage",
        "params": {
          "_hatId": "The id of the Hat whose toggle we are checking"
        },
        "returns": {
          "toggled": "Whether there was a new status"
        }
      },
      "checkHatWearerStatus(uint256,address)": {
        "details": "Burns the wearer's hat, if revoked",
        "params": {
          "_hatId": "The id of the hat",
          "_wearer": "The address of the Hat wearer whose status report is being requested"
        },
        "returns": {
          "updated": "Whether the wearer's status was altered"
        }
      },
      "constructor": {
        "params": {
          "_baseImageURI": "The fallback image URI",
          "_name": "The name of this contract, typically including the version"
        }
      },
      "createHat(uint256,string,uint32,address,address,bool,string)": {
        "details": "Initializes a new Hat struct, but does not mint any tokens.",
        "params": {
          "_admin": "The id of the Hat that will control who wears the newly created hat",
          "_details": "A description of the Hat. Should not be larger than 7000 bytes (enforced in changeHatDetails)",
          "_eligibility": "The address that can report on the Hat wearer's status",
          "_imageURI": "The image uri for this hat and the fallback for its                  downstream hats [optional]. Should not be larger than 7000 bytes (enforced in changeHatImageURI)",
          "_maxSupply": "The total instances of the Hat that can be worn at once",
          "_mutable": "Whether the hat's properties are changeable after creation",
          "_toggle": "The address that can deactivate the Hat"
        },
        "returns": {
          "newHatId": "The id of the newly created Hat"
        }
      },
      "getAdminAtLevel(uint256,uint32)": {
        "details": "This function traverses trees by following the linkedTreeAdmin       pointer to a hat located in a different tree",
        "params": {
          "_hatId": "the id of the hat in question",
          "_level": "the admin level of interest"
        },
        "returns": {
          "admin": "The hat id of the resulting admin"
        }
      },
      "getAdminAtLocalLevel(uint256,uint32)": {
        "params": {
          "_hatId": "the id of the hat in question",
          "_level": "the admin level of interest"
        },
        "returns": {
          "admin": "The hat id of the resulting admin"
        }
      },
      "getHatEligibilityModule(uint256)": {
        "params": {
          "_hatId": "The hat whose eligibility module we're looking for"
        },
        "returns": {
          "eligibility": "The eligibility module for this hat"
        }
      },
      "getHatLevel(uint256)": {
        "params": {
          "_hatId": "the id of the hat in question"
        },
        "returns": {
          "level": "(0 to type(uint32).max)"
        }
      },
      "getHatMaxSupply(uint256)": {
        "params": {
          "_hatId": "The hat whose max supply we're looking for"
        },
        "returns": {
          "maxSupply": "The maximum possible quantity of this hat that could be minted"
        }
      },
      "getHatToggleModule(uint256)": {
        "params": {
          "_hatId": "The hat whose toggle module we're looking for"
        },
        "returns": {
          "toggle": "The toggle module for this hat"
        }
      },
      "getImageURIForHat(uint256)": {
        "details": "If this hat does not have an imageURI set, recursively get the imageURI from      its admin",
        "params": {
          "_hatId": "The hat whose imageURI we're looking for"
        },
        "returns": {
          "_uri": "The imageURI of this hat or, if empty, its admin"
        }
      },
      "getLocalHatLevel(uint256)": {
        "details": "Similar to getHatLevel, but does not account for linked trees",
        "params": {
          "_hatId": "the id of the hat in question"
        },
        "returns": {
          "level": "The local level, from 0 to 14"
        }
      },
      "getNextId(uint256)": {
        "details": "Does not incrememnt lastHatId",
        "params": {
          "_admin": "The id of the hat to serve as the admin for the next child hat"
        },
        "returns": {
          "nextId": "The new hat id"
        }
      },
      "getTippyTopHatDomain(uint32)": {
        "params": {
          "_topHatDomain": "the 32 bit domain of a (likely linked) tophat"
        },
        "returns": {
          "domain": "The tippy tophat domain"
        }
      },
      "getTopHatDomain(uint256)": {
        "details": "A domain is the identifier for a given hat tree, stored in the first 4 bytes of a hat's id",
        "params": {
          "_hatId": "the id of the hat in question"
        },
        "returns": {
          "domain": "The domain of the hat's tophat"
        }
      },
      "hatSupply(uint256)": {
        "details": "Only tracks explicit burns and mints, not dynamic revocations",
        "params": {
          "_hatId": "The id of the Hat"
        },
        "returns": {
          "supply": "The current supply of the Hat"
        }
      },
      "isActive(uint256)": {
        "params": {
          "_hatId": "The id of the hat"
        },
        "returns": {
          "active": "Whether the hat is active"
        }
      },
      "isAdminOfHat(address,uint256)": {
        "details": "Recursively checks if `_user` wears the admin Hat of the Hat in question. This is recursive since there may be a string of Hats as admins of Hats.",
        "params": {
          "_hatId": "The id of the Hat for which the `_user` might be the admin",
          "_user": "The address in question"
        },
        "returns": {
          "isAdmin": "Whether the `_user` has admin rights for the Hat"
        }
      },
      "isEligible(address,uint256)": {
        "details": "Public function for use when passing a Hat object is not possible or preferable",
        "params": {
          "_hatId": "The id of the Hat",
          "_wearer": "The address to check"
        },
        "returns": {
          "eligible": "Whether the wearer is eligible for the Hat"
        }
      },
      "isInGoodStanding(address,uint256)": {
        "params": {
          "_hatId": "The id of the Hat",
          "_wearer": "The address of the Hat wearer"
        },
        "returns": {
          "standing": "Whether the wearer is in good standing"
        }
      },
      "isLocalTopHat(uint256)": {
        "details": "Similar to isTopHat, but does not account for linked trees",
        "params": {
          "_hatId": "The hat in question"
        },
        "returns": {
          "_isLocalTopHat": "Whether the hat is a topHat for its local tree"
        }
      },
      "isTopHat(uint256)": {
        "params": {
          "_hatId": "The hat in question"
        },
        "returns": {
          "_isTopHat": "Whether the hat is a topHat"
        }
      },
      "isWearerOfHat(address,uint256)": {
        "details": "Convenience function that wraps `balanceOf`",
        "params": {
          "_hatId": "The id of the Hat that the `_user` might wear",
          "_user": "The address in question"
        },
        "returns": {
          "isWearer": "Whether the `_user` wears the Hat."
        }
      },
      "makeHatImmutable(uint256)": {
        "details": "Sets the second bit of hat.config to 0",
        "params": {
          "_hatId": "The id of the Hat to make immutable"
        }
      },
      "mintHat(uint256,address)": {
        "details": "The msg.sender must wear an admin Hat of `_hatId`, and the recipient must be eligible to wear `_hatId`",
        "params": {
          "_hatId": "The id of the Hat to mint",
          "_wearer": "The address to which the Hat is minted"
        },
        "returns": {
          "success": "Whether the mint succeeded"
        }
      },
      "mintTopHat(address,string,string)": {
        "details": "A topHat has no eligibility and no toggle",
        "params": {
          "_details": "A description of the Hat [optional]. Should not be larger than 7000 bytes                 (enforced in changeHatDetails)",
          "_imageURI": "The image uri for this top hat and the fallback for its                  downstream hats [optional]. Should not be large than 7000 bytes                  (enforced in changeHatImageURI)",
          "_target": "The address to which the newly created topHat is minted"
        },
        "returns": {
          "topHatId": "The id of the newly created topHat"
        }
      },
      "multicall(bytes[])": {
        "details": "Apply `DELEGATECALL` with the current contract to each calldata in `data`, and store the `abi.encode` formatted results of each `DELEGATECALL` into `results`. If any of the `DELEGATECALL`s reverts, the entire context is reverted, and the error is bubbled up. This function is deliberately made non-payable to guard against double-spending. (See: https://www.paradigm.xyz/2021/08/two-rights-might-make-a-wrong) For efficiency, this function will directly return the results, terminating the context. If called internally, it must be called at the end of a function that returns `(bytes[] memory)`."
      },
      "noCircularLinkage(uint32,uint256)": {
        "params": {
          "_linkedAdmin": "the hatId of the potential tree admin",
          "_topHatDomain": "the 32 bit domain of the tree to be linked"
        },
        "returns": {
          "notCircular": "circular link has not been found"
        }
      },
      "relinkTopHatWithinTree(uint32,uint256,address,address,string,string)": {
        "details": "Caller must be both an admin tree root and admin or wearer of `_newAdminHat`.",
        "params": {
          "_details": "Optional new details for the linked topHat",
          "_eligibility": "Optional new eligibility module for the linked topHat",
          "_imageURI": "Optional new imageURI for the linked topHat",
          "_newAdminHat": "The new admin for the linked tree",
          "_toggle": "Optional new toggle module for the linked topHat",
          "_topHatDomain": "The 32 bit domain of the topHat to relink"
        }
      },
      "renounceHat(uint256)": {
        "details": "Burns the msg.sender's hat",
        "params": {
          "_hatId": "The id of the Hat being renounced"
        }
      },
      "requestLinkTopHatToTree(uint32,uint256)": {
        "details": "A topHat can have at most 1 request at a time. Submitting a new request will      replace the existing request.",
        "params": {
          "_requestedAdminHat": "The hat that will administer the linked tree",
          "_topHatDomain": "The domain of the topHat to link"
        }
      },
      "safeTransferFrom(address,address,uint256,uint256,bytes)": {
        "details": "Admins should use `transferHat()` to transfer"
      },
      "sameTippyTopHatDomain(uint32,uint256)": {
        "params": {
          "_newAdminHat": "The new admin for the linked tree",
          "_topHatDomain": "The 32 bit domain of the tophat to be linked"
        },
        "returns": {
          "sameDomain": "Whether the _topHatDomain and the domain of its potential linked _newAdminHat domains are the same"
        }
      },
      "setApprovalForAll(address,bool)": {
        "details": "Admins should use `transferHat()` to transfer"
      },
      "setHatStatus(uint256,bool)": {
        "details": "The msg.sender must be set as the hat's toggle",
        "params": {
          "_hatId": "The id of the Hat for which to adjust status",
          "_newStatus": "The new status to set"
        },
        "returns": {
          "toggled": "Whether the status was toggled"
        }
      },
      "setHatWearerStatus(uint256,address,bool,bool)": {
        "details": "Burns the wearer's hat, if revoked",
        "params": {
          "_eligible": "Whether the wearer is eligible for the hat (will be revoked if false)",
          "_hatId": "The id of the hat",
          "_standing": "False if the wearer is no longer in good standing (and potentially should be penalized)",
          "_wearer": "The address of the hat wearer whose status is being reported"
        },
        "returns": {
          "updated": "Whether the report succeeded"
        }
      },
      "supportsInterface(bytes4)": {
        "details": "While Hats Protocol conforms to the ERC1155 *interface*, it does not fully conform to the ERC1155 *specification*  since it does not implement the ERC1155Receiver functionality.  For this reason, this function overrides the ERC1155 implementation to return false for ERC1155.",
        "params": {
          "interfaceId": "The interface identifier, as specified in ERC-165"
        },
        "returns": {
          "_0": "bool True if the contract implements `interfaceId` and false otherwise"
        }
      },
      "transferHat(uint256,address,address)": {
        "details": "The hat must be mutable, and the transfer must be initiated by an admin",
        "params": {
          "_from": "The current wearer",
          "_hatId": "The hat in question",
          "_to": "The new wearer"
        }
      },
      "unlinkTopHatFromTree(uint32,address)": {
        "details": "This can only be called by an admin of the tree root. Fails if the topHat to unlink has no non-zero wearer, which can occur if...     - It's wearer is in badStanding     - It has been revoked from its wearer (and possibly burned)     - It is not active (ie toggled off)",
        "params": {
          "_topHatDomain": "The 32 bit domain of the topHat to unlink",
          "_wearer": "The current wearer of the topHat to unlink"
        }
      },
      "uri(uint256)": {
        "params": {
          "id": "The id of the Hat"
        },
        "returns": {
          "_uri": "An 1155-compatible JSON object"
        }
      },
      "viewHat(uint256)": {
        "params": {
          "_hatId": "The id of the Hat"
        },
        "returns": {
          "active": "Whether the Hat is current active, as read from `_isActive`",
          "details": "The details of the Hat",
          "eligibility": "The eligibility address for this Hat",
          "imageURI": "The image URI used for this Hat",
          "lastHatId": "The most recently created Hat with this Hat as admin; also the count of Hats with this Hat as admin",
          "maxSupply": "The max supply of tokens for this Hat",
          "mutable_": "Whether this hat's properties can be changed",
          "supply": "The number of current wearers of this Hat",
          "toggle": "The toggle address for this Hat"
        }
      }
    },
    "stateVariables": {
      "_hats": {
        "details": "Internal mapping of hats to hat ids. See HatsIdUtilities.sol for more info on how hat ids work"
      },
      "badStandings": {
        "details": "Used by external contracts to trigger penalties for wearers in bad standing      hatId => wearer => !standing"
      }
    },
    "title": "Hats Protocol v1",
    "version": 1
  },
  "userdoc": {
    "errors": {
      "AllHatsWorn(uint256)": [
        {
          "notice": "Emitted when attempting to mint `hatId` but `hatId`'s maxSupply has been reached"
        }
      ],
      "AlreadyWearingHat(address,uint256)": [
        {
          "notice": "Emitted when attempting to mint `hatId` to a `wearer` who is already wearing the hat"
        }
      ],
      "BatchArrayLengthMismatch()": [
        {
          "notice": "Emitted when array arguments to a batch function have mismatching lengths"
        }
      ],
      "CircularLinkage()": [
        {
          "notice": "Emitted when attempting to link a tophat to a new admin for which the tophat serves as an admin"
        }
      ],
      "CrossTreeLinkage()": [
        {
          "notice": "Emitted when attempting to link or relink a tophat to a separate tree"
        }
      ],
      "HatDoesNotExist(uint256)": [
        {
          "notice": "Emitted when attempting to mint a non-existant hat"
        }
      ],
      "HatNotActive()": [
        {
          "notice": "Emmitted when attempting to mint or transfer a hat that is not active"
        }
      ],
      "Immutable()": [
        {
          "notice": "Emitted when attempting to mutate or transfer an immutable hat"
        }
      ],
      "InvalidHatId()": [
        {
          "notice": "Emitted when an attempted hat id has empty intermediate level(s)"
        }
      ],
      "InvalidUnlink()": [
        {
          "notice": "Emitted when attempting to unlink a tophat that does not have a wearer"
        }
      ],
      "LinkageNotRequested()": [
        {
          "notice": "Emitted when attempting to link a tophat without a request"
        }
      ],
      "MaxLevelsReached()": [
        {
          "notice": "see HatsErrors.sol for description"
        },
        {
          "notice": "Emitted when attempting to create a hat with a level 14 hat as its admin"
        }
      ],
      "NewMaxSupplyTooLow()": [
        {
          "notice": "Emitted when attempting to change a hat's maxSupply to a value lower than its current supply"
        }
      ],
      "NotAdmin(address,uint256)": [
        {
          "notice": "Emitted when `user` is attempting to perform an action on `hatId` but is not wearing one of `hatId`'s admin hats"
        }
      ],
      "NotAdminOrWearer()": [
        {
          "notice": "Emitted when attempting to perform an action that requires being either an admin or wearer of a given hat"
        }
      ],
      "NotEligible()": [
        {
          "notice": "Emitted when attempting to mint or transfer a hat to an ineligible wearer"
        }
      ],
      "NotHatWearer()": [
        {
          "notice": "Emitted when attempting to perform an action as or for an account that is not a wearer of a given hat"
        }
      ],
      "NotHatsEligibility()": [
        {
          "notice": "Emitted when attempting to check or set a hat wearer's status from an account that is not that hat's eligibility module"
        }
      ],
      "NotHatsToggle()": [
        {
          "notice": "Emitted when attempting to check or set a hat's status from an account that is not that hat's toggle module"
        }
      ],
      "StringTooLong()": [
        {
          "notice": "Emmitted when attempting to change a hat's details or imageURI to a string with over 7000 bytes (~characters)"
        }
      ],
      "ZeroAddress()": [
        {
          "notice": "Emmited when attempting to change a hat's eligibility or toggle module to the zero address"
        }
      ]
    },
    "events": {
      "HatCreated(uint256,string,uint32,address,address,bool,string)": {
        "notice": "Emitted when a new hat is created"
      },
      "HatDetailsChanged(uint256,string)": {
        "notice": "Emitted when a hat's details are updated"
      },
      "HatEligibilityChanged(uint256,address)": {
        "notice": "Emitted when a hat's eligibility module is updated"
      },
      "HatImageURIChanged(uint256,string)": {
        "notice": "Emitted when a hat's image URI is updated"
      },
      "HatMaxSupplyChanged(uint256,uint32)": {
        "notice": "Emitted when a hat's maximum supply is updated"
      },
      "HatMutabilityChanged(uint256)": {
        "notice": "Emitted when a hat's mutability is updated"
      },
      "HatStatusChanged(uint256,bool)": {
        "notice": "Emitted when a hat's status is updated"
      },
      "HatToggleChanged(uint256,address)": {
        "notice": "Emitted when a hat's toggle module is updated"
      },
      "TopHatLinkRequested(uint32,uint256)": {
        "notice": "Emitted when a tophat linkage is requested by its admin"
      },
      "TopHatLinked(uint32,uint256)": {
        "notice": "Emitted when a tophat is linked to a another tree"
      },
      "WearerStandingChanged(uint256,address,bool)": {
        "notice": "Emitted when a hat wearer's standing is updated"
      }
    },
    "kind": "user",
    "methods": {
      "approveLinkTopHatToTree(uint32,uint256,address,address,string,string)": {
        "notice": "Approve a request to link a Tree under a parent tree, with options to add eligibility or toggle modules and change its metadata"
      },
      "badStandings(uint256,address)": {
        "notice": "Mapping of wearers in bad standing for certain hats"
      },
      "balanceOf(address,uint256)": {
        "notice": "Gets the Hat token balance of a user for a given Hat"
      },
      "balanceOfBatch(address[],uint256[])": {
        "notice": "Batch retrieval for wearer balances"
      },
      "baseImageURI()": {
        "notice": "The fallback image URI for hat tokens with no `imageURI` specified in their branch"
      },
      "batchCreateHats(uint256[],string[],uint32[],address[],address[],bool[],string[])": {
        "notice": "Creates new hats in batch. The msg.sender must be an admin of each hat."
      },
      "batchMintHats(uint256[],address[])": {
        "notice": "Mints new hats in batch. The msg.sender must be an admin of each hat."
      },
      "buildHatId(uint256,uint16)": {
        "notice": "Constructs a valid hat id for a new hat underneath a given admin"
      },
      "changeHatDetails(uint256,string)": {
        "notice": "Change a hat's details"
      },
      "changeHatEligibility(uint256,address)": {
        "notice": "Change a hat's details"
      },
      "changeHatImageURI(uint256,string)": {
        "notice": "Change a hat's details"
      },
      "changeHatMaxSupply(uint256,uint32)": {
        "notice": "Change a hat's details"
      },
      "changeHatToggle(uint256,address)": {
        "notice": "Change a hat's details"
      },
      "checkHatStatus(uint256)": {
        "notice": "Checks a hat's toggle module and processes the returned status"
      },
      "checkHatWearerStatus(uint256,address)": {
        "notice": "Check a hat's eligibility for a report on the status of one of the hat's wearers and, if `false`, revoke their hat"
      },
      "constructor": {
        "notice": "All arguments are immutable; they can only be set once during construction"
      },
      "createHat(uint256,string,uint32,address,address,bool,string)": {
        "notice": "Creates a new hat. The msg.sender must wear the `_admin` hat."
      },
      "getAdminAtLevel(uint256,uint32)": {
        "notice": "Gets the hat id of the admin at a given level of a given hat"
      },
      "getAdminAtLocalLevel(uint256,uint32)": {
        "notice": "Gets the hat id of the admin at a given level of a given hat         local to the tree containing the hat."
      },
      "getHatEligibilityModule(uint256)": {
        "notice": "Gets the eligibility module for a hat"
      },
      "getHatLevel(uint256)": {
        "notice": "Identifies the level a given hat in its hat tree"
      },
      "getHatMaxSupply(uint256)": {
        "notice": "Gets the max supply for a hat"
      },
      "getHatToggleModule(uint256)": {
        "notice": "Gets the toggle module for a hat"
      },
      "getImageURIForHat(uint256)": {
        "notice": "Gets the imageURI for a given hat"
      },
      "getLocalHatLevel(uint256)": {
        "notice": "Identifies the level a given hat in its local hat tree"
      },
      "getNextId(uint256)": {
        "notice": "Gets the id of the next child hat of the hat `_admin`"
      },
      "getTippyTopHatDomain(uint32)": {
        "notice": "Gets the domain of the highest parent tophat  the \"tippy tophat\""
      },
      "getTopHatDomain(uint256)": {
        "notice": "Gets the tophat domain of a given hat"
      },
      "hatSupply(uint256)": {
        "notice": "Gets the current supply of a Hat"
      },
      "isActive(uint256)": {
        "notice": "Checks the active status of a hat"
      },
      "isAdminOfHat(address,uint256)": {
        "notice": "Checks whether a given address serves as the admin of a given Hat"
      },
      "isEligible(address,uint256)": {
        "notice": "Checks whether an address is eligible for a given Hat"
      },
      "isInGoodStanding(address,uint256)": {
        "notice": "Checks whether a wearer of a Hat is in good standing"
      },
      "isLocalTopHat(uint256)": {
        "notice": "Checks whether a hat is a topHat in its local hat tree"
      },
      "isTopHat(uint256)": {
        "notice": "Checks whether a hat is a topHat"
      },
      "isWearerOfHat(address,uint256)": {
        "notice": "Checks whether a given address wears a given Hat"
      },
      "lastTopHatId()": {
        "notice": "The first 4 bytes of the id of the last tophat created."
      },
      "linkedTreeAdmins(uint32)": {
        "notice": "Mapping of approved & linked tophats to admin hats in other trees, used for grafting one hats tree onto another"
      },
      "linkedTreeRequests(uint32)": {
        "notice": "Mapping of tophats requesting to link to admin hats in other trees"
      },
      "makeHatImmutable(uint256)": {
        "notice": "Set a mutable hat to immutable"
      },
      "mintHat(uint256,address)": {
        "notice": "Mints an ERC1155-similar token of the Hat to an eligible recipient, who then \"wears\" the hat"
      },
      "mintTopHat(address,string,string)": {
        "notice": "Creates and mints a Hat that is its own admin, i.e. a \"topHat\""
      },
      "name()": {
        "notice": "The name of the contract, typically including the version"
      },
      "noCircularLinkage(uint32,uint256)": {
        "notice": "Checks For any circular linkage of trees"
      },
      "relinkTopHatWithinTree(uint32,uint256,address,address,string,string)": {
        "notice": "Move a tree root to a different position within the same parent tree,         without a request. Valid destinations include within the same local tree as the origin,         or to the local tree of the tippyTopHat. TippyTopHat wearers can bypass this restriction         to relink to anywhere in its full tree."
      },
      "renounceHat(uint256)": {
        "notice": "Stop wearing a hat, aka \"renounce\" it"
      },
      "requestLinkTopHatToTree(uint32,uint256)": {
        "notice": "Submits a request to link a Hat Tree under a parent tree. Requests can be submitted by either...     a) the wearer of a topHat, previous to any linkage, or     b) the admin(s) of an already-linked topHat (aka tree root), where such a        request is to move the tree root to another admin within the same parent        tree"
      },
      "safeBatchTransferFrom(address,address,uint256[],uint256[],bytes)": {
        "notice": "Safe transfers are not necessary for Hats since transfers are not handled by the wearer"
      },
      "safeTransferFrom(address,address,uint256,uint256,bytes)": {
        "notice": "Safe transfers are not necessary for Hats since transfers are not handled by the wearer"
      },
      "sameTippyTopHatDomain(uint32,uint256)": {
        "notice": "Checks that a tophat domain and its potential linked admin are from the same tree, ie have the same tippy tophat domain"
      },
      "setApprovalForAll(address,bool)": {
        "notice": "Approvals are not necessary for Hats since transfers are not handled by the wearer"
      },
      "setHatStatus(uint256,bool)": {
        "notice": "Toggles a Hat's status from active to deactive, or vice versa"
      },
      "setHatWearerStatus(uint256,address,bool,bool)": {
        "notice": "Report from a hat's eligibility on the status of one of its wearers and, if `false`, revoke their hat"
      },
      "supportsInterface(bytes4)": {
        "notice": "ERC165 interface detection"
      },
      "transferHat(uint256,address,address)": {
        "notice": "Transfers a hat from one wearer to another eligible wearer"
      },
      "unlinkTopHatFromTree(uint32,address)": {
        "notice": "Unlink a Tree from the parent tree"
      },
      "uri(uint256)": {
        "notice": "View the uri for a Hat"
      },
      "viewHat(uint256)": {
        "notice": "View the properties of a given Hat"
      }
    },
    "notice": "Hats are DAO-native, revocable, and programmable roles that are represented as non-transferable ERC-1155-similar tokens for composability",
    "version": 1
  },
  "storageLayout": {
    "storage": [
      {
        "astId": 33806,
        "contract": "contracts/Deps/hats-protocol/Hats.sol:Hats",
        "label": "_balanceOf",
        "offset": 0,
        "slot": "0",
        "type": "t_mapping(t_address,t_mapping(t_uint256,t_uint256))"
      },
      {
        "astId": 33812,
        "contract": "contracts/Deps/hats-protocol/Hats.sol:Hats",
        "label": "isApprovedForAll",
        "offset": 0,
        "slot": "1",
        "type": "t_mapping(t_address,t_mapping(t_address,t_bool))"
      },
      {
        "astId": 32431,
        "contract": "contracts/Deps/hats-protocol/Hats.sol:Hats",
        "label": "linkedTreeRequests",
        "offset": 0,
        "slot": "2",
        "type": "t_mapping(t_uint32,t_uint256)"
      },
      {
        "astId": 32436,
        "contract": "contracts/Deps/hats-protocol/Hats.sol:Hats",
        "label": "linkedTreeAdmins",
        "offset": 0,
        "slot": "3",
        "type": "t_mapping(t_uint32,t_uint256)"
      },
      {
        "astId": 29282,
        "contract": "contracts/Deps/hats-protocol/Hats.sol:Hats",
        "label": "name",
        "offset": 0,
        "slot": "4",
        "type": "t_string_storage"
      },
      {
        "astId": 29285,
        "contract": "contracts/Deps/hats-protocol/Hats.sol:Hats",
        "label": "lastTopHatId",
        "offset": 0,
        "slot": "5",
        "type": "t_uint32"
      },
      {
        "astId": 29288,
        "contract": "contracts/Deps/hats-protocol/Hats.sol:Hats",
        "label": "baseImageURI",
        "offset": 0,
        "slot": "6",
        "type": "t_string_storage"
      },
      {
        "astId": 29294,
        "contract": "contracts/Deps/hats-protocol/Hats.sol:Hats",
        "label": "_hats",
        "offset": 0,
        "slot": "7",
        "type": "t_mapping(t_uint256,t_struct(Hat)29279_storage)"
      },
      {
        "astId": 29301,
        "contract": "contracts/Deps/hats-protocol/Hats.sol:Hats",
        "label": "badStandings",
        "offset": 0,
        "slot": "8",
        "type": "t_mapping(t_uint256,t_mapping(t_address,t_bool))"
      }
    ],
    "types": {
      "t_address": {
        "encoding": "inplace",
        "label": "address",
        "numberOfBytes": "20"
      },
      "t_bool": {
        "encoding": "inplace",
        "label": "bool",
        "numberOfBytes": "1"
      },
      "t_mapping(t_address,t_bool)": {
        "encoding": "mapping",
        "key": "t_address",
        "label": "mapping(address => bool)",
        "numberOfBytes": "32",
        "value": "t_bool"
      },
      "t_mapping(t_address,t_mapping(t_address,t_bool))": {
        "encoding": "mapping",
        "key": "t_address",
        "label": "mapping(address => mapping(address => bool))",
        "numberOfBytes": "32",
        "value": "t_mapping(t_address,t_bool)"
      },
      "t_mapping(t_address,t_mapping(t_uint256,t_uint256))": {
        "encoding": "mapping",
        "key": "t_address",
        "label": "mapping(address => mapping(uint256 => uint256))",
        "numberOfBytes": "32",
        "value": "t_mapping(t_uint256,t_uint256)"
      },
      "t_mapping(t_uint256,t_mapping(t_address,t_bool))": {
        "encoding": "mapping",
        "key": "t_uint256",
        "label": "mapping(uint256 => mapping(address => bool))",
        "numberOfBytes": "32",
        "value": "t_mapping(t_address,t_bool)"
      },
      "t_mapping(t_uint256,t_struct(Hat)29279_storage)": {
        "encoding": "mapping",
        "key": "t_uint256",
        "label": "mapping(uint256 => struct Hats.Hat)",
        "numberOfBytes": "32",
        "value": "t_struct(Hat)29279_storage"
      },
      "t_mapping(t_uint256,t_uint256)": {
        "encoding": "mapping",
        "key": "t_uint256",
        "label": "mapping(uint256 => uint256)",
        "numberOfBytes": "32",
        "value": "t_uint256"
      },
      "t_mapping(t_uint32,t_uint256)": {
        "encoding": "mapping",
        "key": "t_uint32",
        "label": "mapping(uint32 => uint256)",
        "numberOfBytes": "32",
        "value": "t_uint256"
      },
      "t_string_storage": {
        "encoding": "bytes",
        "label": "string",
        "numberOfBytes": "32"
      },
      "t_struct(Hat)29279_storage": {
        "encoding": "inplace",
        "label": "struct Hats.Hat",
        "members": [
          {
            "astId": 29264,
            "contract": "contracts/Deps/hats-protocol/Hats.sol:Hats",
            "label": "eligibility",
            "offset": 0,
            "slot": "0",
            "type": "t_address"
          },
          {
            "astId": 29266,
            "contract": "contracts/Deps/hats-protocol/Hats.sol:Hats",
            "label": "maxSupply",
            "offset": 20,
            "slot": "0",
            "type": "t_uint32"
          },
          {
            "astId": 29268,
            "contract": "contracts/Deps/hats-protocol/Hats.sol:Hats",
            "label": "supply",
            "offset": 24,
            "slot": "0",
            "type": "t_uint32"
          },
          {
            "astId": 29270,
            "contract": "contracts/Deps/hats-protocol/Hats.sol:Hats",
            "label": "lastHatId",
            "offset": 28,
            "slot": "0",
            "type": "t_uint16"
          },
          {
            "astId": 29272,
            "contract": "contracts/Deps/hats-protocol/Hats.sol:Hats",
            "label": "toggle",
            "offset": 0,
            "slot": "1",
            "type": "t_address"
          },
          {
            "astId": 29274,
            "contract": "contracts/Deps/hats-protocol/Hats.sol:Hats",
            "label": "config",
            "offset": 20,
            "slot": "1",
            "type": "t_uint96"
          },
          {
            "astId": 29276,
            "contract": "contracts/Deps/hats-protocol/Hats.sol:Hats",
            "label": "details",
            "offset": 0,
            "slot": "2",
            "type": "t_string_storage"
          },
          {
            "astId": 29278,
            "contract": "contracts/Deps/hats-protocol/Hats.sol:Hats",
            "label": "imageURI",
            "offset": 0,
            "slot": "3",
            "type": "t_string_storage"
          }
        ],
        "numberOfBytes": "128"
      },
      "t_uint16": {
        "encoding": "inplace",
        "label": "uint16",
        "numberOfBytes": "2"
      },
      "t_uint256": {
        "encoding": "inplace",
        "label": "uint256",
        "numberOfBytes": "32"
      },
      "t_uint32": {
        "encoding": "inplace",
        "label": "uint32",
        "numberOfBytes": "4"
      },
      "t_uint96": {
        "encoding": "inplace",
        "label": "uint96",
        "numberOfBytes": "12"
      }
    }
  }
}