{
  "address": "0xB9225Da6029F8D8afAa68D37F58B40163bF65d56",
  "abi": [
    {
      "inputs": [
        {
          "internalType": "address",
          "name": "dao",
          "type": "address"
        },
        {
          "internalType": "address",
          "name": "where",
          "type": "address"
        },
        {
          "internalType": "address",
          "name": "who",
          "type": "address"
        },
        {
          "internalType": "bytes32",
          "name": "permissionId",
          "type": "bytes32"
        }
      ],
      "name": "DaoUnauthorized",
      "type": "error"
    },
    {
      "inputs": [
        {
          "internalType": "uint256",
          "name": "index",
          "type": "uint256"
        },
        {
          "internalType": "uint256",
          "name": "count",
          "type": "uint256"
        }
      ],
      "name": "IndexOutOfBound",
      "type": "error"
    },
    {
      "anonymous": false,
      "inputs": [
        {
          "indexed": false,
          "internalType": "address",
          "name": "previousAdmin",
          "type": "address"
        },
        {
          "indexed": false,
          "internalType": "address",
          "name": "newAdmin",
          "type": "address"
        }
      ],
      "name": "AdminChanged",
      "type": "event"
    },
    {
      "anonymous": false,
      "inputs": [
        {
          "indexed": true,
          "internalType": "address",
          "name": "beacon",
          "type": "address"
        }
      ],
      "name": "BeaconUpgraded",
      "type": "event"
    },
    {
      "anonymous": false,
      "inputs": [
        {
          "indexed": false,
          "internalType": "uint8",
          "name": "version",
          "type": "uint8"
        }
      ],
      "name": "Initialized",
      "type": "event"
    },
    {
      "anonymous": false,
      "inputs": [
        {
          "indexed": true,
          "internalType": "address",
          "name": "implementation",
          "type": "address"
        }
      ],
      "name": "Upgraded",
      "type": "event"
    },
    {
      "inputs": [],
      "name": "UPGRADE_PLUGIN_PERMISSION_ID",
      "outputs": [
        {
          "internalType": "bytes32",
          "name": "",
          "type": "bytes32"
        }
      ],
      "stateMutability": "view",
      "type": "function"
    },
    {
      "inputs": [
        {
          "internalType": "address",
          "name": "_subDAO",
          "type": "address"
        }
      ],
      "name": "addSubDAO",
      "outputs": [],
      "stateMutability": "nonpayable",
      "type": "function"
    },
    {
      "inputs": [
        {
          "internalType": "contract DAOFactory",
          "name": "_daoFactory",
          "type": "address"
        },
        {
          "components": [
            {
              "internalType": "address",
              "name": "trustedForwarder",
              "type": "address"
            },
            {
              "internalType": "string",
              "name": "daoURI",
              "type": "string"
            },
            {
              "internalType": "string",
              "name": "subdomain",
              "type": "string"
            },
            {
              "internalType": "bytes",
              "name": "metadata",
              "type": "bytes"
            }
          ],
          "internalType": "struct DAOFactory.DAOSettings",
          "name": "_daoSettings",
          "type": "tuple"
        },
        {
          "components": [
            {
              "components": [
                {
                  "components": [
                    {
                      "internalType": "uint8",
                      "name": "release",
                      "type": "uint8"
                    },
                    {
                      "internalType": "uint16",
                      "name": "build",
                      "type": "uint16"
                    }
                  ],
                  "internalType": "struct PluginRepo.Tag",
                  "name": "versionTag",
                  "type": "tuple"
                },
                {
                  "internalType": "contract PluginRepo",
                  "name": "pluginSetupRepo",
                  "type": "address"
                }
              ],
              "internalType": "struct PluginSetupRef",
              "name": "pluginSetupRef",
              "type": "tuple"
            },
            {
              "internalType": "bytes",
              "name": "data",
              "type": "bytes"
            }
          ],
          "internalType": "struct DAOFactory.PluginSettings[]",
          "name": "_pluginSettings",
          "type": "tuple[]"
        }
      ],
      "name": "createSubDAO",
      "outputs": [],
      "stateMutability": "nonpayable",
      "type": "function"
    },
    {
      "inputs": [],
      "name": "dao",
      "outputs": [
        {
          "internalType": "contract IDAO",
          "name": "",
          "type": "address"
        }
      ],
      "stateMutability": "view",
      "type": "function"
    },
    {
      "inputs": [
        {
          "internalType": "uint256",
          "name": "_index",
          "type": "uint256"
        }
      ],
      "name": "getSubDAO",
      "outputs": [
        {
          "internalType": "address",
          "name": "subDAO",
          "type": "address"
        }
      ],
      "stateMutability": "view",
      "type": "function"
    },
    {
      "inputs": [],
      "name": "getSubDAOCount",
      "outputs": [
        {
          "internalType": "uint256",
          "name": "count",
          "type": "uint256"
        }
      ],
      "stateMutability": "view",
      "type": "function"
    },
    {
      "inputs": [],
      "name": "getSubDAOs",
      "outputs": [
        {
          "internalType": "address[]",
          "name": "subDAOArray",
          "type": "address[]"
        }
      ],
      "stateMutability": "view",
      "type": "function"
    },
    {
      "inputs": [],
      "name": "implementation",
      "outputs": [
        {
          "internalType": "address",
          "name": "",
          "type": "address"
        }
      ],
      "stateMutability": "view",
      "type": "function"
    },
    {
      "inputs": [
        {
          "internalType": "contract IDAO",
          "name": "_dao",
          "type": "address"
        }
      ],
      "name": "initialize",
      "outputs": [],
      "stateMutability": "nonpayable",
      "type": "function"
    },
    {
      "inputs": [],
      "name": "pluginType",
      "outputs": [
        {
          "internalType": "enum IPlugin.PluginType",
          "name": "",
          "type": "uint8"
        }
      ],
      "stateMutability": "pure",
      "type": "function"
    },
    {
      "inputs": [],
      "name": "proxiableUUID",
      "outputs": [
        {
          "internalType": "bytes32",
          "name": "",
          "type": "bytes32"
        }
      ],
      "stateMutability": "view",
      "type": "function"
    },
    {
      "inputs": [
        {
          "internalType": "uint256",
          "name": "_index",
          "type": "uint256"
        }
      ],
      "name": "removeSubDAO",
      "outputs": [],
      "stateMutability": "nonpayable",
      "type": "function"
    },
    {
      "inputs": [
        {
          "internalType": "bytes4",
          "name": "_interfaceId",
          "type": "bytes4"
        }
      ],
      "name": "supportsInterface",
      "outputs": [
        {
          "internalType": "bool",
          "name": "",
          "type": "bool"
        }
      ],
      "stateMutability": "view",
      "type": "function"
    },
    {
      "inputs": [
        {
          "internalType": "address",
          "name": "newImplementation",
          "type": "address"
        }
      ],
      "name": "upgradeTo",
      "outputs": [],
      "stateMutability": "nonpayable",
      "type": "function"
    },
    {
      "inputs": [
        {
          "internalType": "address",
          "name": "newImplementation",
          "type": "address"
        },
        {
          "internalType": "bytes",
          "name": "data",
          "type": "bytes"
        }
      ],
      "name": "upgradeToAndCall",
      "outputs": [],
      "stateMutability": "payable",
      "type": "function"
    }
  ],
  "numDeployments": 1,
  "bytecode": "0x60a06040523060805234801561001457600080fd5b5061001d610022565b6100e1565b600054610100900460ff161561008e5760405162461bcd60e51b815260206004820152602760248201527f496e697469616c697a61626c653a20636f6e747261637420697320696e697469604482015266616c697a696e6760c81b606482015260840160405180910390fd5b60005460ff908116146100df576000805460ff191660ff9081179091556040519081527f7f26b83ff96e1f2b6a682f133852f6798a09c465da95921460cefb38474024989060200160405180910390a15b565b60805161162e6101186000396000818161048f015281816104d801528181610560015281816105a0015261065e015261162e6000f3fe6080604052600436106100e85760003560e01c8063508a9ddc1161008a5780639885774f116100595780639885774f14610255578063bcb0521314610275578063c4d66de814610295578063c9c4bfca146102b557600080fd5b8063508a9ddc146101e757806352d1902d14610207578063545cd9661461022a5780635c60da1b1461024057600080fd5b80633659cfe6116100c65780633659cfe6146101665780634162169f1461018657806341de6830146101b85780634f1ef286146101d457600080fd5b806301ffc9a7146100ed578063081454b91461012257806322f59d6814610144575b600080fd5b3480156100f957600080fd5b5061010d610108366004610f19565b6102e9565b60405190151581526020015b60405180910390f35b34801561012e57600080fd5b5061014261013d366004610f58565b610314565b005b34801561015057600080fd5b506101596103db565b6040516101199190611007565b34801561017257600080fd5b50610142610181366004611054565b610485565b34801561019257600080fd5b5060c9546001600160a01b03165b6040516001600160a01b039091168152602001610119565b3480156101c457600080fd5b5060006040516101199190611071565b6101426101e23660046110af565b610556565b3480156101f357600080fd5b50610142610202366004611173565b61060f565b34801561021357600080fd5b5061021c610651565b604051908152602001610119565b34801561023657600080fd5b5061012e5461021c565b34801561024c57600080fd5b506101a0610704565b34801561026157600080fd5b506101a0610270366004611173565b610713565b34801561028157600080fd5b50610142610290366004611054565b610764565b3480156102a157600080fd5b506101426102b0366004611054565b6107a6565b3480156102c157600080fd5b5061021c7f821b6e3a557148015a918c89e5d092e878a69854a2d1a410635f771bd5a8a3f581565b60006001600160e01b03198216630a02a83760e01b148061030e575061030e826108b8565b92915050565b60c9547fd559d562c5593f92508b8d1f3096aec6f6876e0bf0e2f2de778f496292495aa090610352906001600160a01b031630335b84600036610908565b6040516316aad10760e31b81526000906001600160a01b0387169063b55688389061038590889088908890600401611202565b6020604051808303816000875af11580156103a4573d6000803e3d6000fd5b505050506040513d601f19601f820116820180604052508101906103c89190611368565b90506103d3816109bc565b505050505050565b606061012e5467ffffffffffffffff8111156103f9576103f9611099565b604051908082528060200260200182016040528015610422578160200160208202803683370190505b50905060005b815181101561048157600081815261012d602052604090205482516001600160a01b039091169083908390811061046157610461611385565b6001600160a01b0390921660209283029190910190910152600101610428565b5090565b6001600160a01b037f00000000000000000000000000000000000000000000000000000000000000001630036104d65760405162461bcd60e51b81526004016104cd9061139b565b60405180910390fd5b7f00000000000000000000000000000000000000000000000000000000000000006001600160a01b03166105086109fb565b6001600160a01b03161461052e5760405162461bcd60e51b81526004016104cd906113e7565b61053781610a17565b6040805160008082526020820190925261055391839190610a50565b50565b6001600160a01b037f000000000000000000000000000000000000000000000000000000000000000016300361059e5760405162461bcd60e51b81526004016104cd9061139b565b7f00000000000000000000000000000000000000000000000000000000000000006001600160a01b03166105d06109fb565b6001600160a01b0316146105f65760405162461bcd60e51b81526004016104cd906113e7565b6105ff82610a17565b61060b82826001610a50565b5050565b60c9547fd559d562c5593f92508b8d1f3096aec6f6876e0bf0e2f2de778f496292495aa090610648906001600160a01b03163033610349565b61060b82610bc0565b6000306001600160a01b037f000000000000000000000000000000000000000000000000000000000000000016146106f15760405162461bcd60e51b815260206004820152603860248201527f555550535570677261646561626c653a206d757374206e6f742062652063616c60448201527f6c6564207468726f7567682064656c656761746563616c6c000000000000000060648201526084016104cd565b506000805160206115b283398151915290565b600061070e6109fb565b905090565b600061012e5482106107475761012e54604051630d03942760e41b81526104cd918491600401918252602082015260400190565b50600090815261012d60205260409020546001600160a01b031690565b60c9547fd559d562c5593f92508b8d1f3096aec6f6876e0bf0e2f2de778f496292495aa09061079d906001600160a01b03163033610349565b61060b826109bc565b600054610100900460ff16158080156107c65750600054600160ff909116105b806107e05750303b1580156107e0575060005460ff166001145b6108435760405162461bcd60e51b815260206004820152602e60248201527f496e697469616c697a61626c653a20636f6e747261637420697320616c72656160448201526d191e481a5b9a5d1a585b1a5e995960921b60648201526084016104cd565b6000805460ff191660011790558015610866576000805461ff0019166101001790555b61086f82610c4a565b801561060b576000805461ff0019169055604051600181527f7f26b83ff96e1f2b6a682f133852f6798a09c465da95921460cefb38474024989060200160405180910390a15050565b60006001600160e01b0319821663041de68360e41b14806108e957506001600160e01b031982166352d1902d60e01b145b8061030e57506301ffc9a760e01b6001600160e01b031983161461030e565b604051637ef7c88360e11b81526001600160a01b0387169063fdef91069061093c9088908890889088908890600401611433565b602060405180830381865afa158015610959573d6000803e3d6000fd5b505050506040513d601f19601f8201168201806040525081019061097d9190611472565b6103d357604051630cb6f8ed60e21b81526001600160a01b038088166004830152808716602483015285166044820152606481018490526084016104cd565b61012e8054600090815261012d6020526040812080546001600160a01b0319166001600160a01b03851617905581546109f4906114aa565b9091555050565b6000805160206115b2833981519152546001600160a01b031690565b60c9547f821b6e3a557148015a918c89e5d092e878a69854a2d1a410635f771bd5a8a3f59061060b906001600160a01b03163033610349565b7f4910fdfa16fed3260ed0e7147f7cc6da11a60208b5b9406d12a635614ffd91435460ff1615610a8857610a8383610c7a565b505050565b826001600160a01b03166352d1902d6040518163ffffffff1660e01b8152600401602060405180830381865afa925050508015610ae2575060408051601f3d908101601f19168201909252610adf918101906114c3565b60015b610b455760405162461bcd60e51b815260206004820152602e60248201527f45524331393637557067726164653a206e657720696d706c656d656e7461746960448201526d6f6e206973206e6f74205555505360901b60648201526084016104cd565b6000805160206115b28339815191528114610bb45760405162461bcd60e51b815260206004820152602960248201527f45524331393637557067726164653a20756e737570706f727465642070726f786044820152681a58589b195555525160ba1b60648201526084016104cd565b50610a83838383610d16565b61012e548110610bf25761012e54604051630d03942760e41b81526104cd918391600401918252602082015260400190565b61012e60008154610c02906114dc565b9091555061012e5481146105535761012e54600090815261012d602052604080822054838352912080546001600160a01b0319166001600160a01b0390921691909117905550565b600054610100900460ff16610c715760405162461bcd60e51b81526004016104cd906114f3565b61055381610d41565b6001600160a01b0381163b610ce75760405162461bcd60e51b815260206004820152602d60248201527f455243313936373a206e657720696d706c656d656e746174696f6e206973206e60448201526c1bdd08184818dbdb9d1c9858dd609a1b60648201526084016104cd565b6000805160206115b283398151915280546001600160a01b0319166001600160a01b0392909216919091179055565b610d1f83610d8a565b600082511180610d2c5750805b15610a8357610d3b8383610dca565b50505050565b600054610100900460ff16610d685760405162461bcd60e51b81526004016104cd906114f3565b60c980546001600160a01b0319166001600160a01b0392909216919091179055565b610d9381610c7a565b6040516001600160a01b038216907fbc7cd75a20ee27fd9adebab32041f755214dbc6bffa90cc0225b39da2e5c2d3b90600090a250565b6060610def83836040518060600160405280602781526020016115d260279139610df6565b9392505050565b6060600080856001600160a01b031685604051610e139190611562565b600060405180830381855af49150503d8060008114610e4e576040519150601f19603f3d011682016040523d82523d6000602084013e610e53565b606091505b5091509150610e6486838387610e6e565b9695505050505050565b60608315610edd578251600003610ed6576001600160a01b0385163b610ed65760405162461bcd60e51b815260206004820152601d60248201527f416464726573733a2063616c6c20746f206e6f6e2d636f6e747261637400000060448201526064016104cd565b5081610ee7565b610ee78383610eef565b949350505050565b815115610eff5781518083602001fd5b8060405162461bcd60e51b81526004016104cd919061157e565b600060208284031215610f2b57600080fd5b81356001600160e01b031981168114610def57600080fd5b6001600160a01b038116811461055357600080fd5b60008060008060608587031215610f6e57600080fd5b8435610f7981610f43565b9350602085013567ffffffffffffffff80821115610f9657600080fd5b9086019060808289031215610faa57600080fd5b90935060408601359080821115610fc057600080fd5b818701915087601f830112610fd457600080fd5b813581811115610fe357600080fd5b8860208260051b8501011115610ff857600080fd5b95989497505060200194505050565b6020808252825182820181905260009190848201906040850190845b818110156110485783516001600160a01b031683529284019291840191600101611023565b50909695505050505050565b60006020828403121561106657600080fd5b8135610def81610f43565b602081016003831061109357634e487b7160e01b600052602160045260246000fd5b91905290565b634e487b7160e01b600052604160045260246000fd5b600080604083850312156110c257600080fd5b82356110cd81610f43565b9150602083013567ffffffffffffffff808211156110ea57600080fd5b818501915085601f8301126110fe57600080fd5b81358181111561111057611110611099565b604051601f8201601f19908116603f0116810190838211818310171561113857611138611099565b8160405282815288602084870101111561115157600080fd5b8260208601602083013760006020848301015280955050505050509250929050565b60006020828403121561118557600080fd5b5035919050565b6000808335601e198436030181126111a357600080fd5b830160208101925035905067ffffffffffffffff8111156111c357600080fd5b8036038213156111d257600080fd5b9250929050565b81835281816020850137506000828201602090810191909152601f909101601f19169091010190565b60006040808352853561121481610f43565b6001600160a01b03908116848301526020906112328883018961118c565b6080606081818a015261124960c08a0184866111d9565b9350611257878d018d61118c565b9350603f19808b870301848c01526112708686846111d9565b955061127e838f018f61118c565b95509150808b87030160a08c0152506112988585836111d9565b8a8103888c01528b8152945050858401925060058a901b840186018b60005b8c81101561135557868303601f190186528135368f9003607e190181126112dd57600080fd5b8e01803560ff81168082146112f157600080fd5b855250808a013561ffff811680821461130957600080fd5b858c015250808b013561131b81610f43565b8916848c015261132d8186018261118c565b9150868686015261134187860183836111d9565b978b019794505050908801906001016112b7565b50909d9c50505050505050505050505050565b60006020828403121561137a57600080fd5b8151610def81610f43565b634e487b7160e01b600052603260045260246000fd5b6020808252602c908201527f46756e6374696f6e206d7573742062652063616c6c6564207468726f7567682060408201526b19195b1959d85d1958d85b1b60a21b606082015260800190565b6020808252602c908201527f46756e6374696f6e206d7573742062652063616c6c6564207468726f7567682060408201526b6163746976652070726f787960a01b606082015260800190565b6001600160a01b038681168252851660208201526040810184905260806060820181905260009061146790830184866111d9565b979650505050505050565b60006020828403121561148457600080fd5b81518015158114610def57600080fd5b634e487b7160e01b600052601160045260246000fd5b6000600182016114bc576114bc611494565b5060010190565b6000602082840312156114d557600080fd5b5051919050565b6000816114eb576114eb611494565b506000190190565b6020808252602b908201527f496e697469616c697a61626c653a20636f6e7472616374206973206e6f74206960408201526a6e697469616c697a696e6760a81b606082015260800190565b60005b83811015611559578181015183820152602001611541565b50506000910152565b6000825161157481846020870161153e565b9190910192915050565b602081526000825180602084015261159d81604085016020870161153e565b601f01601f1916919091016040019291505056fe360894a13ba1a3210667c828492db98dca3e2076cc3735a920a3ca505d382bbc416464726573733a206c6f772d6c6576656c2064656c65676174652063616c6c206661696c6564a2646970667358221220312cedb874f7dbcc2e58c3d8936fd308e7793d68dc417edbfcda4f040fec835364736f6c63430008110033"
}