{
  "address": "0xfC596446E700f07F13603ea0688651c8c1DD9B19",
  "abi": [
    {
      "inputs": [],
      "stateMutability": "nonpayable",
      "type": "constructor"
    },
    {
      "inputs": [
        {
          "internalType": "uint256",
          "name": "index",
          "type": "uint256"
        }
      ],
      "name": "ActionFailed",
      "type": "error"
    },
    {
      "inputs": [],
      "name": "AnyAddressDisallowedForWhoAndWhere",
      "type": "error"
    },
    {
      "inputs": [
        {
          "internalType": "contract IPermissionCondition",
          "name": "condition",
          "type": "address"
        }
      ],
      "name": "ConditionInterfacNotSupported",
      "type": "error"
    },
    {
      "inputs": [
        {
          "internalType": "contract IPermissionCondition",
          "name": "condition",
          "type": "address"
        }
      ],
      "name": "ConditionNotAContract",
      "type": "error"
    },
    {
      "inputs": [],
      "name": "GrantWithConditionNotSupported",
      "type": "error"
    },
    {
      "inputs": [],
      "name": "InsufficientGas",
      "type": "error"
    },
    {
      "inputs": [
        {
          "internalType": "uint256",
          "name": "expected",
          "type": "uint256"
        },
        {
          "internalType": "uint256",
          "name": "actual",
          "type": "uint256"
        }
      ],
      "name": "NativeTokenDepositAmountMismatch",
      "type": "error"
    },
    {
      "inputs": [
        {
          "internalType": "address",
          "name": "where",
          "type": "address"
        },
        {
          "internalType": "address",
          "name": "who",
          "type": "address"
        },
        {
          "internalType": "bytes32",
          "name": "permissionId",
          "type": "bytes32"
        },
        {
          "internalType": "address",
          "name": "currentCondition",
          "type": "address"
        },
        {
          "internalType": "address",
          "name": "newCondition",
          "type": "address"
        }
      ],
      "name": "PermissionAlreadyGrantedForDifferentCondition",
      "type": "error"
    },
    {
      "inputs": [],
      "name": "PermissionsForAnyAddressDisallowed",
      "type": "error"
    },
    {
      "inputs": [
        {
          "internalType": "uint8[3]",
          "name": "protocolVersion",
          "type": "uint8[3]"
        }
      ],
      "name": "ProtocolVersionUpgradeNotSupported",
      "type": "error"
    },
    {
      "inputs": [],
      "name": "ReentrantCall",
      "type": "error"
    },
    {
      "inputs": [],
      "name": "TooManyActions",
      "type": "error"
    },
    {
      "inputs": [
        {
          "internalType": "address",
          "name": "where",
          "type": "address"
        },
        {
          "internalType": "address",
          "name": "who",
          "type": "address"
        },
        {
          "internalType": "bytes32",
          "name": "permissionId",
          "type": "bytes32"
        }
      ],
      "name": "Unauthorized",
      "type": "error"
    },
    {
      "inputs": [
        {
          "internalType": "bytes4",
          "name": "callbackSelector",
          "type": "bytes4"
        },
        {
          "internalType": "bytes4",
          "name": "magicNumber",
          "type": "bytes4"
        }
      ],
      "name": "UnkownCallback",
      "type": "error"
    },
    {
      "inputs": [],
      "name": "ZeroAmount",
      "type": "error"
    },
    {
      "anonymous": false,
      "inputs": [
        {
          "indexed": false,
          "internalType": "address",
          "name": "previousAdmin",
          "type": "address"
        },
        {
          "indexed": false,
          "internalType": "address",
          "name": "newAdmin",
          "type": "address"
        }
      ],
      "name": "AdminChanged",
      "type": "event"
    },
    {
      "anonymous": false,
      "inputs": [
        {
          "indexed": true,
          "internalType": "address",
          "name": "beacon",
          "type": "address"
        }
      ],
      "name": "BeaconUpgraded",
      "type": "event"
    },
    {
      "anonymous": false,
      "inputs": [
        {
          "indexed": false,
          "internalType": "address",
          "name": "sender",
          "type": "address"
        },
        {
          "indexed": true,
          "internalType": "bytes4",
          "name": "sig",
          "type": "bytes4"
        },
        {
          "indexed": false,
          "internalType": "bytes",
          "name": "data",
          "type": "bytes"
        }
      ],
      "name": "CallbackReceived",
      "type": "event"
    },
    {
      "anonymous": false,
      "inputs": [
        {
          "indexed": true,
          "internalType": "address",
          "name": "sender",
          "type": "address"
        },
        {
          "indexed": true,
          "internalType": "address",
          "name": "token",
          "type": "address"
        },
        {
          "indexed": false,
          "internalType": "uint256",
          "name": "amount",
          "type": "uint256"
        },
        {
          "indexed": false,
          "internalType": "string",
          "name": "_reference",
          "type": "string"
        }
      ],
      "name": "Deposited",
      "type": "event"
    },
    {
      "anonymous": false,
      "inputs": [
        {
          "indexed": true,
          "internalType": "address",
          "name": "actor",
          "type": "address"
        },
        {
          "indexed": false,
          "internalType": "bytes32",
          "name": "callId",
          "type": "bytes32"
        },
        {
          "components": [
            {
              "internalType": "address",
              "name": "to",
              "type": "address"
            },
            {
              "internalType": "uint256",
              "name": "value",
              "type": "uint256"
            },
            {
              "internalType": "bytes",
              "name": "data",
              "type": "bytes"
            }
          ],
          "indexed": false,
          "internalType": "struct IDAO.Action[]",
          "name": "actions",
          "type": "tuple[]"
        },
        {
          "indexed": false,
          "internalType": "uint256",
          "name": "allowFailureMap",
          "type": "uint256"
        },
        {
          "indexed": false,
          "internalType": "uint256",
          "name": "failureMap",
          "type": "uint256"
        },
        {
          "indexed": false,
          "internalType": "bytes[]",
          "name": "execResults",
          "type": "bytes[]"
        }
      ],
      "name": "Executed",
      "type": "event"
    },
    {
      "anonymous": false,
      "inputs": [
        {
          "indexed": true,
          "internalType": "bytes32",
          "name": "permissionId",
          "type": "bytes32"
        },
        {
          "indexed": true,
          "internalType": "address",
          "name": "here",
          "type": "address"
        },
        {
          "indexed": false,
          "internalType": "address",
          "name": "where",
          "type": "address"
        },
        {
          "indexed": true,
          "internalType": "address",
          "name": "who",
          "type": "address"
        },
        {
          "indexed": false,
          "internalType": "address",
          "name": "condition",
          "type": "address"
        }
      ],
      "name": "Granted",
      "type": "event"
    },
    {
      "anonymous": false,
      "inputs": [
        {
          "indexed": false,
          "internalType": "uint8",
          "name": "version",
          "type": "uint8"
        }
      ],
      "name": "Initialized",
      "type": "event"
    },
    {
      "anonymous": false,
      "inputs": [
        {
          "indexed": false,
          "internalType": "bytes",
          "name": "metadata",
          "type": "bytes"
        }
      ],
      "name": "MetadataSet",
      "type": "event"
    },
    {
      "anonymous": false,
      "inputs": [
        {
          "indexed": false,
          "internalType": "address",
          "name": "sender",
          "type": "address"
        },
        {
          "indexed": false,
          "internalType": "uint256",
          "name": "amount",
          "type": "uint256"
        }
      ],
      "name": "NativeTokenDeposited",
      "type": "event"
    },
    {
      "anonymous": false,
      "inputs": [
        {
          "indexed": false,
          "internalType": "string",
          "name": "daoURI",
          "type": "string"
        }
      ],
      "name": "NewURI",
      "type": "event"
    },
    {
      "anonymous": false,
      "inputs": [
        {
          "indexed": true,
          "internalType": "bytes32",
          "name": "permissionId",
          "type": "bytes32"
        },
        {
          "indexed": true,
          "internalType": "address",
          "name": "here",
          "type": "address"
        },
        {
          "indexed": false,
          "internalType": "address",
          "name": "where",
          "type": "address"
        },
        {
          "indexed": true,
          "internalType": "address",
          "name": "who",
          "type": "address"
        }
      ],
      "name": "Revoked",
      "type": "event"
    },
    {
      "anonymous": false,
      "inputs": [
        {
          "indexed": false,
          "internalType": "address",
          "name": "signatureValidator",
          "type": "address"
        }
      ],
      "name": "SignatureValidatorSet",
      "type": "event"
    },
    {
      "anonymous": false,
      "inputs": [
        {
          "indexed": false,
          "internalType": "bytes4",
          "name": "interfaceId",
          "type": "bytes4"
        },
        {
          "indexed": false,
          "internalType": "bytes4",
          "name": "callbackSelector",
          "type": "bytes4"
        },
        {
          "indexed": false,
          "internalType": "bytes4",
          "name": "magicNumber",
          "type": "bytes4"
        }
      ],
      "name": "StandardCallbackRegistered",
      "type": "event"
    },
    {
      "anonymous": false,
      "inputs": [
        {
          "indexed": false,
          "internalType": "address",
          "name": "forwarder",
          "type": "address"
        }
      ],
      "name": "TrustedForwarderSet",
      "type": "event"
    },
    {
      "anonymous": false,
      "inputs": [
        {
          "indexed": true,
          "internalType": "address",
          "name": "implementation",
          "type": "address"
        }
      ],
      "name": "Upgraded",
      "type": "event"
    },
    {
      "stateMutability": "nonpayable",
      "type": "fallback"
    },
    {
      "inputs": [],
      "name": "EXECUTE_PERMISSION_ID",
      "outputs": [
        {
          "internalType": "bytes32",
          "name": "",
          "type": "bytes32"
        }
      ],
      "stateMutability": "view",
      "type": "function"
    },
    {
      "inputs": [],
      "name": "REGISTER_STANDARD_CALLBACK_PERMISSION_ID",
      "outputs": [
        {
          "internalType": "bytes32",
          "name": "",
          "type": "bytes32"
        }
      ],
      "stateMutability": "view",
      "type": "function"
    },
    {
      "inputs": [],
      "name": "ROOT_PERMISSION_ID",
      "outputs": [
        {
          "internalType": "bytes32",
          "name": "",
          "type": "bytes32"
        }
      ],
      "stateMutability": "view",
      "type": "function"
    },
    {
      "inputs": [],
      "name": "SET_METADATA_PERMISSION_ID",
      "outputs": [
        {
          "internalType": "bytes32",
          "name": "",
          "type": "bytes32"
        }
      ],
      "stateMutability": "view",
      "type": "function"
    },
    {
      "inputs": [],
      "name": "SET_SIGNATURE_VALIDATOR_PERMISSION_ID",
      "outputs": [
        {
          "internalType": "bytes32",
          "name": "",
          "type": "bytes32"
        }
      ],
      "stateMutability": "view",
      "type": "function"
    },
    {
      "inputs": [],
      "name": "SET_TRUSTED_FORWARDER_PERMISSION_ID",
      "outputs": [
        {
          "internalType": "bytes32",
          "name": "",
          "type": "bytes32"
        }
      ],
      "stateMutability": "view",
      "type": "function"
    },
    {
      "inputs": [],
      "name": "UPGRADE_DAO_PERMISSION_ID",
      "outputs": [
        {
          "internalType": "bytes32",
          "name": "",
          "type": "bytes32"
        }
      ],
      "stateMutability": "view",
      "type": "function"
    },
    {
      "inputs": [
        {
          "components": [
            {
              "internalType": "enum PermissionLib.Operation",
              "name": "operation",
              "type": "uint8"
            },
            {
              "internalType": "address",
              "name": "where",
              "type": "address"
            },
            {
              "internalType": "address",
              "name": "who",
              "type": "address"
            },
            {
              "internalType": "address",
              "name": "condition",
              "type": "address"
            },
            {
              "internalType": "bytes32",
              "name": "permissionId",
              "type": "bytes32"
            }
          ],
          "internalType": "struct PermissionLib.MultiTargetPermission[]",
          "name": "_items",
          "type": "tuple[]"
        }
      ],
      "name": "applyMultiTargetPermissions",
      "outputs": [],
      "stateMutability": "nonpayable",
      "type": "function"
    },
    {
      "inputs": [
        {
          "internalType": "address",
          "name": "_where",
          "type": "address"
        },
        {
          "components": [
            {
              "internalType": "enum PermissionLib.Operation",
              "name": "operation",
              "type": "uint8"
            },
            {
              "internalType": "address",
              "name": "who",
              "type": "address"
            },
            {
              "internalType": "bytes32",
              "name": "permissionId",
              "type": "bytes32"
            }
          ],
          "internalType": "struct PermissionLib.SingleTargetPermission[]",
          "name": "items",
          "type": "tuple[]"
        }
      ],
      "name": "applySingleTargetPermissions",
      "outputs": [],
      "stateMutability": "nonpayable",
      "type": "function"
    },
    {
      "inputs": [],
      "name": "daoURI",
      "outputs": [
        {
          "internalType": "string",
          "name": "",
          "type": "string"
        }
      ],
      "stateMutability": "view",
      "type": "function"
    },
    {
      "inputs": [
        {
          "internalType": "address",
          "name": "_token",
          "type": "address"
        },
        {
          "internalType": "uint256",
          "name": "_amount",
          "type": "uint256"
        },
        {
          "internalType": "string",
          "name": "_reference",
          "type": "string"
        }
      ],
      "name": "deposit",
      "outputs": [],
      "stateMutability": "payable",
      "type": "function"
    },
    {
      "inputs": [
        {
          "internalType": "bytes32",
          "name": "_callId",
          "type": "bytes32"
        },
        {
          "components": [
            {
              "internalType": "address",
              "name": "to",
              "type": "address"
            },
            {
              "internalType": "uint256",
              "name": "value",
              "type": "uint256"
            },
            {
              "internalType": "bytes",
              "name": "data",
              "type": "bytes"
            }
          ],
          "internalType": "struct IDAO.Action[]",
          "name": "_actions",
          "type": "tuple[]"
        },
        {
          "internalType": "uint256",
          "name": "_allowFailureMap",
          "type": "uint256"
        }
      ],
      "name": "execute",
      "outputs": [
        {
          "internalType": "bytes[]",
          "name": "execResults",
          "type": "bytes[]"
        },
        {
          "internalType": "uint256",
          "name": "failureMap",
          "type": "uint256"
        }
      ],
      "stateMutability": "nonpayable",
      "type": "function"
    },
    {
      "inputs": [],
      "name": "getTrustedForwarder",
      "outputs": [
        {
          "internalType": "address",
          "name": "",
          "type": "address"
        }
      ],
      "stateMutability": "view",
      "type": "function"
    },
    {
      "inputs": [
        {
          "internalType": "address",
          "name": "_where",
          "type": "address"
        },
        {
          "internalType": "address",
          "name": "_who",
          "type": "address"
        },
        {
          "internalType": "bytes32",
          "name": "_permissionId",
          "type": "bytes32"
        }
      ],
      "name": "grant",
      "outputs": [],
      "stateMutability": "nonpayable",
      "type": "function"
    },
    {
      "inputs": [
        {
          "internalType": "address",
          "name": "_where",
          "type": "address"
        },
        {
          "internalType": "address",
          "name": "_who",
          "type": "address"
        },
        {
          "internalType": "bytes32",
          "name": "_permissionId",
          "type": "bytes32"
        },
        {
          "internalType": "contract IPermissionCondition",
          "name": "_condition",
          "type": "address"
        }
      ],
      "name": "grantWithCondition",
      "outputs": [],
      "stateMutability": "nonpayable",
      "type": "function"
    },
    {
      "inputs": [
        {
          "internalType": "address",
          "name": "_where",
          "type": "address"
        },
        {
          "internalType": "address",
          "name": "_who",
          "type": "address"
        },
        {
          "internalType": "bytes32",
          "name": "_permissionId",
          "type": "bytes32"
        },
        {
          "internalType": "bytes",
          "name": "_data",
          "type": "bytes"
        }
      ],
      "name": "hasPermission",
      "outputs": [
        {
          "internalType": "bool",
          "name": "",
          "type": "bool"
        }
      ],
      "stateMutability": "view",
      "type": "function"
    },
    {
      "inputs": [
        {
          "internalType": "bytes",
          "name": "_metadata",
          "type": "bytes"
        },
        {
          "internalType": "address",
          "name": "_initialOwner",
          "type": "address"
        },
        {
          "internalType": "address",
          "name": "_trustedForwarder",
          "type": "address"
        },
        {
          "internalType": "string",
          "name": "daoURI_",
          "type": "string"
        }
      ],
      "name": "initialize",
      "outputs": [],
      "stateMutability": "nonpayable",
      "type": "function"
    },
    {
      "inputs": [
        {
          "internalType": "uint8[3]",
          "name": "_previousProtocolVersion",
          "type": "uint8[3]"
        },
        {
          "internalType": "bytes",
          "name": "_initData",
          "type": "bytes"
        }
      ],
      "name": "initializeFrom",
      "outputs": [],
      "stateMutability": "nonpayable",
      "type": "function"
    },
    {
      "inputs": [
        {
          "internalType": "address",
          "name": "_where",
          "type": "address"
        },
        {
          "internalType": "address",
          "name": "_who",
          "type": "address"
        },
        {
          "internalType": "bytes32",
          "name": "_permissionId",
          "type": "bytes32"
        },
        {
          "internalType": "bytes",
          "name": "_data",
          "type": "bytes"
        }
      ],
      "name": "isGranted",
      "outputs": [
        {
          "internalType": "bool",
          "name": "",
          "type": "bool"
        }
      ],
      "stateMutability": "view",
      "type": "function"
    },
    {
      "inputs": [
        {
          "internalType": "bytes32",
          "name": "_hash",
          "type": "bytes32"
        },
        {
          "internalType": "bytes",
          "name": "_signature",
          "type": "bytes"
        }
      ],
      "name": "isValidSignature",
      "outputs": [
        {
          "internalType": "bytes4",
          "name": "",
          "type": "bytes4"
        }
      ],
      "stateMutability": "view",
      "type": "function"
    },
    {
      "inputs": [],
      "name": "protocolVersion",
      "outputs": [
        {
          "internalType": "uint8[3]",
          "name": "",
          "type": "uint8[3]"
        }
      ],
      "stateMutability": "pure",
      "type": "function"
    },
    {
      "inputs": [],
      "name": "proxiableUUID",
      "outputs": [
        {
          "internalType": "bytes32",
          "name": "",
          "type": "bytes32"
        }
      ],
      "stateMutability": "view",
      "type": "function"
    },
    {
      "inputs": [
        {
          "internalType": "bytes4",
          "name": "_interfaceId",
          "type": "bytes4"
        },
        {
          "internalType": "bytes4",
          "name": "_callbackSelector",
          "type": "bytes4"
        },
        {
          "internalType": "bytes4",
          "name": "_magicNumber",
          "type": "bytes4"
        }
      ],
      "name": "registerStandardCallback",
      "outputs": [],
      "stateMutability": "nonpayable",
      "type": "function"
    },
    {
      "inputs": [
        {
          "internalType": "address",
          "name": "_where",
          "type": "address"
        },
        {
          "internalType": "address",
          "name": "_who",
          "type": "address"
        },
        {
          "internalType": "bytes32",
          "name": "_permissionId",
          "type": "bytes32"
        }
      ],
      "name": "revoke",
      "outputs": [],
      "stateMutability": "nonpayable",
      "type": "function"
    },
    {
      "inputs": [
        {
          "internalType": "string",
          "name": "newDaoURI",
          "type": "string"
        }
      ],
      "name": "setDaoURI",
      "outputs": [],
      "stateMutability": "nonpayable",
      "type": "function"
    },
    {
      "inputs": [
        {
          "internalType": "bytes",
          "name": "_metadata",
          "type": "bytes"
        }
      ],
      "name": "setMetadata",
      "outputs": [],
      "stateMutability": "nonpayable",
      "type": "function"
    },
    {
      "inputs": [
        {
          "internalType": "address",
          "name": "_signatureValidator",
          "type": "address"
        }
      ],
      "name": "setSignatureValidator",
      "outputs": [],
      "stateMutability": "nonpayable",
      "type": "function"
    },
    {
      "inputs": [
        {
          "internalType": "address",
          "name": "_newTrustedForwarder",
          "type": "address"
        }
      ],
      "name": "setTrustedForwarder",
      "outputs": [],
      "stateMutability": "nonpayable",
      "type": "function"
    },
    {
      "inputs": [],
      "name": "signatureValidator",
      "outputs": [
        {
          "internalType": "contract IERC1271",
          "name": "",
          "type": "address"
        }
      ],
      "stateMutability": "view",
      "type": "function"
    },
    {
      "inputs": [
        {
          "internalType": "bytes4",
          "name": "interfaceId",
          "type": "bytes4"
        }
      ],
      "name": "supportsInterface",
      "outputs": [
        {
          "internalType": "bool",
          "name": "",
          "type": "bool"
        }
      ],
      "stateMutability": "view",
      "type": "function"
    },
    {
      "inputs": [
        {
          "internalType": "address",
          "name": "newImplementation",
          "type": "address"
        }
      ],
      "name": "upgradeTo",
      "outputs": [],
      "stateMutability": "nonpayable",
      "type": "function"
    },
    {
      "inputs": [
        {
          "internalType": "address",
          "name": "newImplementation",
          "type": "address"
        },
        {
          "internalType": "bytes",
          "name": "data",
          "type": "bytes"
        }
      ],
      "name": "upgradeToAndCall",
      "outputs": [],
      "stateMutability": "payable",
      "type": "function"
    },
    {
      "stateMutability": "payable",
      "type": "receive"
    }
  ],
  "numDeployments": 1,
  "bytecode": "0x60a0604052306080523480156200001557600080fd5b506200002062000026565b620000e7565b600054610100900460ff1615620000935760405162461bcd60e51b815260206004820152602760248201527f496e697469616c697a61626c653a20636f6e747261637420697320696e697469604482015266616c697a696e6760c81b606482015260840160405180910390fd5b60005460ff90811614620000e5576000805460ff191660ff9081179091556040519081527f7f26b83ff96e1f2b6a682f133852f6798a09c465da95921460cefb38474024989060200160405180910390a15b565b60805161441e6200011f60003960008181610c4a01528181610cfa015281816110cd0152818161117d01526112c6015261441e6000f3fe6080604052600436106101e75760003560e01c80637034731b11610102578063d96054c411610095578063e978afe511610064578063e978afe514610779578063eafb8b0614610799578063ee57e36f146107b9578063fdef9106146107d957610226565b8063d96054c4146106d1578063da742228146106f1578063e2e3556314610711578063e306bee71461074557610226565b8063c71bf324116100d1578063c71bf32414610637578063c9dbc2a414610665578063ce1b815f14610685578063d68bad2c146106b157610226565b80637034731b146105ae578063829331a1146105d0578063bfe07da614610604578063c4a501451461061757610226565b806326875b1f1161017a5780633e2ab0d9116101495780633e2ab0d91461054657806342d8e99e146105665780634f1ef2861461058657806352d1902d1461059957610226565b806326875b1f1461047d5780632ae9c600146104b15780633659cfe6146104d3578063388da934146104f357610226565b80631626ba7e116101b65780631626ba7e146103b857806322844d041461040957806324b4d73f146104295780632675fdd01461045d57610226565b806301ffc9a7146102eb5780630729d0541461032057806309e56b14146103625780631080f99b1461039657610226565b3661022657604080513381523460208201527f62c2c8e34665db7c56b2cabd7f5fb9702ccd352ffa8150147e450797e9f8e8f3910160405180910390a1005b34801561023257600080fd5b506000366060600061029e6000357fffffffff000000000000000000000000000000000000000000000000000000001685858080601f0160208091040260200160405190810160405280939291908181526020018383808284376000920191909152506107f992505050565b604080517fffffffff000000000000000000000000000000000000000000000000000000008316602082015291925001604051602081830303815290604052915050915050805190602001f35b3480156102f757600080fd5b5061030b6103063660046134ea565b610900565b60405190151581526020015b60405180910390f35b34801561032c57600080fd5b506103547fbf04b4486c9663d805744005c3da000eda93de6e3308a4a7a812eb565327b78d81565b604051908152602001610317565b34801561036e57600080fd5b506103547f815fe80e4b37c8582a3b773d1d7071f983eacfd56b5965db654f3087c25ada3381565b3480156103a257600080fd5b506103b66103b1366004613550565b610985565b005b3480156103c457600080fd5b506103d86103d336600461366c565b6109be565b6040517fffffffff000000000000000000000000000000000000000000000000000000009091168152602001610317565b34801561041557600080fd5b506103b66104243660046136d5565b610a88565b34801561043557600080fd5b506103547f1f53edd44352e5d15bad2b29233baa93bcd595e09457780bc7c5445bbbe751cc81565b34801561046957600080fd5b5061030b61047836600461375d565b610ba4565b34801561048957600080fd5b506103547ffaf505be9907aa6951c2ebe5b0312f4980e14f21912ed355372103cc8bd683bc81565b3480156104bd57600080fd5b506104c6610c09565b60405161031791906137c9565b3480156104df57600080fd5b506103b66104ee3660046137fd565b610c33565b3480156104ff57600080fd5b5061012d546105219073ffffffffffffffffffffffffffffffffffffffff1681565b60405173ffffffffffffffffffffffffffffffffffffffff9091168152602001610317565b34801561055257600080fd5b506103b66105613660046137fd565b610e38565b34801561057257600080fd5b506103b661058136600461381a565b610ede565b6103b6610594366004613872565b6110b6565b3480156105a557600080fd5b506103546112ac565b3480156105ba57600080fd5b506105c3611398565b604051610317919061391a565b3480156105dc57600080fd5b506103547f06d294bc8cbad2e393408b20dd019a772661f60b8d633e56761157cb1ec85f8c81565b6103b661061236600461392d565b61142b565b34801561062357600080fd5b506103b6610632366004613989565b611599565b34801561064357600080fd5b506106576106523660046139d4565b61168e565b604051610317929190613aae565b34801561067157600080fd5b506103b6610680366004613ad0565b6119ce565b34801561069157600080fd5b5061012e5473ffffffffffffffffffffffffffffffffffffffff16610521565b3480156106bd57600080fd5b506103b66106cc366004613b23565b611a04565b3480156106dd57600080fd5b506103b66106ec366004613b23565b611a3f565b3480156106fd57600080fd5b506103b661070c3660046137fd565b611a74565b34801561071d57600080fd5b506103547f0dcbfb19b09fb8ff4e9af583d4b8e9c8127cc1b26529b4d96dd3b7e77808837281565b34801561075157600080fd5b506103547f4707e94b25cfce1a7c363508fbb838c35864388ad77284b248282b9746982b9b81565b34801561078557600080fd5b506103b6610794366004613b64565b611aa7565b3480156107a557600080fd5b506103b66107b4366004613bd9565b611bae565b3480156107c557600080fd5b506103b66107d4366004613550565b611dcc565b3480156107e557600080fd5b5061030b6107f436600461375d565b611e00565b7fffffffff00000000000000000000000000000000000000000000000000000000808316600090815260fb6020526040812054909160e09190911b90811661089e576040517f54bdcc3e0000000000000000000000000000000000000000000000000000000081527fffffffff000000000000000000000000000000000000000000000000000000008086166004830152821660248201526044015b60405180910390fd5b837bffffffffffffffffffffffffffffffffffffffffffffffffffffffff19167f4792cb6e46e49876374bea490ba23274bacea6b84c216a64f47abab54027589b33856040516108ef929190613c72565b60405180910390a290505b92915050565b60007f01ffc9a7000000000000000000000000000000000000000000000000000000007fffffffff00000000000000000000000000000000000000000000000000000000831614806108fa5750507fffffffff000000000000000000000000000000000000000000000000000000001660009081526033602052604090205460ff1690565b7f4707e94b25cfce1a7c363508fbb838c35864388ad77284b248282b9746982b9b6109af81611e0e565b6109b98383611e96565b505050565b61012d5460009073ffffffffffffffffffffffffffffffffffffffff166109e7575060006108fa565b61012d546040517f1626ba7e00000000000000000000000000000000000000000000000000000000815273ffffffffffffffffffffffffffffffffffffffff90911690631626ba7e90610a409086908690600401613ca1565b602060405180830381865afa158015610a5d573d6000803e3d6000fd5b505050506040513d601f19601f82011682018060405250810190610a819190613cba565b9392505050565b7f815fe80e4b37c8582a3b773d1d7071f983eacfd56b5965db654f3087c25ada33610ab281611e0e565b60005b82811015610b9d576000848483818110610ad157610ad1613cd7565b905060600201803603810190610ae79190613d1a565b9050600081516002811115610afe57610afe613d83565b03610b1b57610b168682602001518360400151611ed6565b610b94565b600181516002811115610b3057610b30613d83565b03610b4857610b168682602001518360400151612094565b600281516002811115610b5d57610b5d613d83565b03610b94576040517fd4d3bef700000000000000000000000000000000000000000000000000000000815260040160405180910390fd5b50600101610ab5565b5050505050565b6000610bb2858585856121d3565b80610bd85750610bd88573ffffffffffffffffffffffffffffffffffffffff85856121d3565b80610bfe5750610bfe73ffffffffffffffffffffffffffffffffffffffff8585856121d3565b90505b949350505050565b610c1161349e565b5060408051606081018252600181526003602082015260009181019190915290565b73ffffffffffffffffffffffffffffffffffffffff7f0000000000000000000000000000000000000000000000000000000000000000163003610cf8576040517f08c379a000000000000000000000000000000000000000000000000000000000815260206004820152602c60248201527f46756e6374696f6e206d7573742062652063616c6c6564207468726f7567682060448201527f64656c656761746563616c6c00000000000000000000000000000000000000006064820152608401610895565b7f000000000000000000000000000000000000000000000000000000000000000073ffffffffffffffffffffffffffffffffffffffff16610d6d7f360894a13ba1a3210667c828492db98dca3e2076cc3735a920a3ca505d382bbc5473ffffffffffffffffffffffffffffffffffffffff1690565b73ffffffffffffffffffffffffffffffffffffffff1614610e10576040517f08c379a000000000000000000000000000000000000000000000000000000000815260206004820152602c60248201527f46756e6374696f6e206d7573742062652063616c6c6564207468726f7567682060448201527f6163746976652070726f787900000000000000000000000000000000000000006064820152608401610895565b610e19816123bd565b60408051600080825260208201909252610e35918391906123e7565b50565b7f0dcbfb19b09fb8ff4e9af583d4b8e9c8127cc1b26529b4d96dd3b7e778088372610e6281611e0e565b61012d80547fffffffffffffffffffffffff00000000000000000000000000000000000000001673ffffffffffffffffffffffffffffffffffffffff84169081179091556040519081527f3b25c5d3870ec0eac28822b177f18c9130233ade5b7f857c6a224a507c37fc4e906020015b60405180910390a15050565b600054600290610100900460ff16158015610f00575060005460ff8083169116105b610f8c576040517f08c379a000000000000000000000000000000000000000000000000000000000815260206004820152602e60248201527f496e697469616c697a61626c653a20636f6e747261637420697320616c72656160448201527f647920696e697469616c697a65640000000000000000000000000000000000006064820152608401610895565b600080547fffffffffffffffffffffffffffffffffffffffffffffffffffffffffffff00001660ff831617610100179055610fca6020850185613dc3565b60ff1660011461100857836040517f84833d670000000000000000000000000000000000000000000000000000000081526004016108959190613dde565b600261101a6040860160208701613dc3565b60ff1611611051576001610130556110517f2ae9c600000000000000000000000000000000000000000000000000000000006125e6565b600080547fffffffffffffffffffffffffffffffffffffffffffffffffffffffffffff00ff16905560405160ff821681527f7f26b83ff96e1f2b6a682f133852f6798a09c465da95921460cefb3847402498906020015b60405180910390a150505050565b73ffffffffffffffffffffffffffffffffffffffff7f000000000000000000000000000000000000000000000000000000000000000016300361117b576040517f08c379a000000000000000000000000000000000000000000000000000000000815260206004820152602c60248201527f46756e6374696f6e206d7573742062652063616c6c6564207468726f7567682060448201527f64656c656761746563616c6c00000000000000000000000000000000000000006064820152608401610895565b7f000000000000000000000000000000000000000000000000000000000000000073ffffffffffffffffffffffffffffffffffffffff166111f07f360894a13ba1a3210667c828492db98dca3e2076cc3735a920a3ca505d382bbc5473ffffffffffffffffffffffffffffffffffffffff1690565b73ffffffffffffffffffffffffffffffffffffffff1614611293576040517f08c379a000000000000000000000000000000000000000000000000000000000815260206004820152602c60248201527f46756e6374696f6e206d7573742062652063616c6c6564207468726f7567682060448201527f6163746976652070726f787900000000000000000000000000000000000000006064820152608401610895565b61129c826123bd565b6112a8828260016123e7565b5050565b60003073ffffffffffffffffffffffffffffffffffffffff7f00000000000000000000000000000000000000000000000000000000000000001614611373576040517f08c379a000000000000000000000000000000000000000000000000000000000815260206004820152603860248201527f555550535570677261646561626c653a206d757374206e6f742062652063616c60448201527f6c6564207468726f7567682064656c656761746563616c6c00000000000000006064820152608401610895565b507f360894a13ba1a3210667c828492db98dca3e2076cc3735a920a3ca505d382bbc90565b606061012f80546113a890613e11565b80601f01602080910402602001604051908101604052809291908181526020018280546113d490613e11565b80156114215780601f106113f657610100808354040283529160200191611421565b820191906000526020600020905b81548152906001019060200180831161140457829003601f168201915b5050505050905090565b82600003611465576040517f1f2a200500000000000000000000000000000000000000000000000000000000815260040160405180910390fd5b73ffffffffffffffffffffffffffffffffffffffff84166114c7578234146114c2576040517f1abd561000000000000000000000000000000000000000000000000000000000815260048101849052346024820152604401610895565b61152a565b3415611508576040517f1abd561000000000000000000000000000000000000000000000000000000000815260006004820152346024820152604401610895565b61152a73ffffffffffffffffffffffffffffffffffffffff85163330866126cd565b8373ffffffffffffffffffffffffffffffffffffffff163373ffffffffffffffffffffffffffffffffffffffff167f2bc500cf071be2d1c1458ed6ff484cd4db4345ada8943dee7ff29e7af3558f7685858560405161158b93929190613ead565b60405180910390a350505050565b7ffaf505be9907aa6951c2ebe5b0312f4980e14f21912ed355372103cc8bd683bc6115c381611e0e565b6115cc846125e6565b7fffffffff000000000000000000000000000000000000000000000000000000008316600090815260fb6020526040902080547fffffffffffffffffffffffffffffffffffffffffffffffffffffffff000000001660e084901c179055604080517fffffffff00000000000000000000000000000000000000000000000000000000808716825280861660208301528416918101919091527ffc72fd547553f7a663e0048e590afc9c47b56a4242e960f31cf4c62e23d308b9906060016110a8565b60606000600261013054036116cf576040517f37ed32e800000000000000000000000000000000000000000000000000000000815260040160405180910390fd5b6002610130557fbf04b4486c9663d805744005c3da000eda93de6e3308a4a7a812eb565327b78d6116ff81611e0e565b61010085111561173b576040517f11c763d600000000000000000000000000000000000000000000000000000000815260040160405180910390fd5b8467ffffffffffffffff81111561175457611754613592565b60405190808252806020026020018201604052801561178757816020015b60608152602001906001900390816117725790505b50925060008060005b87811015611961575a92506000808a8a848181106117b0576117b0613cd7565b90506020028101906117c29190613ec7565b6117d09060208101906137fd565b73ffffffffffffffffffffffffffffffffffffffff168b8b858181106117f8576117f8613cd7565b905060200281019061180a9190613ec7565b602001358c8c8681811061182057611820613cd7565b90506020028101906118329190613ec7565b611840906040810190613f05565b60405161184e929190613f6a565b60006040518083038185875af1925050503d806000811461188b576040519150601f19603f3d011682016040523d82523d6000602084013e611890565b606091505b50915091505a9350600160ff84161b89166118e457816118df576040517fa6a7dbbd00000000000000000000000000000000000000000000000000000000815260048101849052602401610895565b611939565b81611939576118f4604086613f7a565b84101561192d576040517f1c26714c00000000000000000000000000000000000000000000000000000000815260040160405180910390fd5b600160ff84161b871896505b8088848151811061194c5761194c613cd7565b60209081029190910101525050600101611790565b503373ffffffffffffffffffffffffffffffffffffffff167fd4e57c2049f004fb297ef78591cd409503ceb6b2c722d7ffed032fc99e5f3b588a8a8a8a898b6040516119b296959493929190613fb5565b60405180910390a2505060016101305550909590945092505050565b7f815fe80e4b37c8582a3b773d1d7071f983eacfd56b5965db654f3087c25ada336119f881611e0e565b610b9d85858585612762565b7f815fe80e4b37c8582a3b773d1d7071f983eacfd56b5965db654f3087c25ada33611a2e81611e0e565b611a39848484611ed6565b50505050565b7f815fe80e4b37c8582a3b773d1d7071f983eacfd56b5965db654f3087c25ada33611a6981611e0e565b611a39848484612094565b7f06d294bc8cbad2e393408b20dd019a772661f60b8d633e56761157cb1ec85f8c611a9e81611e0e565b6112a882612bcb565b7f815fe80e4b37c8582a3b773d1d7071f983eacfd56b5965db654f3087c25ada33611ad181611e0e565b60005b82811015611a39576000848483818110611af057611af0613cd7565b905060a00201803603810190611b06919061412a565b9050600081516002811115611b1d57611b1d613d83565b03611b3e57611b39816020015182604001518360800151611ed6565b611ba5565b600181516002811115611b5357611b53613d83565b03611b6f57611b39816020015182604001518360800151612094565b600281516002811115611b8457611b84613d83565b03611ba557611ba58160200151826040015183608001518460600151612762565b50600101611ad4565b600054600290610100900460ff16158015611bd0575060005460ff8083169116105b611c5c576040517f08c379a000000000000000000000000000000000000000000000000000000000815260206004820152602e60248201527f496e697469616c697a61626c653a20636f6e747261637420697320616c72656160448201527f647920696e697469616c697a65640000000000000000000000000000000000006064820152608401610895565b600080547fffffffffffffffffffffffffffffffffffffffffffffffffffffffffffff00001660ff831617610100179055600161013055611cbc7f9385547e000000000000000000000000000000000000000000000000000000006125e6565b611ce57f1626ba7e000000000000000000000000000000000000000000000000000000006125e6565b611d0e7f7034731b000000000000000000000000000000000000000000000000000000006125e6565b611d377f2ae9c600000000000000000000000000000000000000000000000000000000006125e6565b611d3f612c45565b611d498787612d6d565b611d5284612bcb565b611d5c8383611e96565b611d6585612d9e565b600080547fffffffffffffffffffffffffffffffffffffffffffffffffffffffffffff00ff16905560405160ff821681527f7f26b83ff96e1f2b6a682f133852f6798a09c465da95921460cefb38474024989060200160405180910390a150505050505050565b7f4707e94b25cfce1a7c363508fbb838c35864388ad77284b248282b9746982b9b611df681611e0e565b6109b98383612d6d565b6000610bfe85858585610ba4565b611e513033836000368080601f016020809104026020016040519081016040528093929190818152602001838380828437600092019190915250610ba492505050565b610e35576040517f1e09743f00000000000000000000000000000000000000000000000000000000815230600482015233602482015260448101829052606401610895565b61012f611ea4828483614207565b507fe9b617ecb5f63f6a9ccd8d4d5fa0d7b2ef9b17ce3f48e6b135808d6a40e677428282604051610ed2929190614321565b73ffffffffffffffffffffffffffffffffffffffff8381161480611f0f575073ffffffffffffffffffffffffffffffffffffffff828116145b15611f46576040517f24159e5b00000000000000000000000000000000000000000000000000000000815260040160405180910390fd5b604080517f5045524d495353494f4e000000000000000000000000000000000000000000006020808301919091527fffffffffffffffffffffffffffffffffffffffff000000000000000000000000606086811b8216602a85015287901b16603e83015260528083018590528351808403909101815260729092019092528051910120600090600081815260c9602052604090205490915073ffffffffffffffffffffffffffffffffffffffff1680610b9d57600082815260c9602090815260409182902080547fffffffffffffffffffffffff0000000000000000000000000000000000000000166002908117909155825173ffffffffffffffffffffffffffffffffffffffff89811682529281019190915290861691339186917f0f579ad49235a8c1fd9041427e7067b1eb10926bbed380bf6fabc73e0e807644910160405180910390a45050505050565b604080517f5045524d495353494f4e000000000000000000000000000000000000000000006020808301919091527fffffffffffffffffffffffffffffffffffffffff000000000000000000000000606086811b8216602a85015287901b16603e83015260528083018590528351808403909101815260729092019092528051910120600090600081815260c9602052604090205490915073ffffffffffffffffffffffffffffffffffffffff1615611a3957600081815260c9602090815260409182902080547fffffffffffffffffffffffff0000000000000000000000000000000000000000169055905173ffffffffffffffffffffffffffffffffffffffff8681168252851691339185917f3ca48185ec3f6e47e24db18b13f1c65b1ce05da1659f9c1c4fe717dda5f67524910160405180910390a450505050565b60008060c9600061226b8888886040517f5045524d495353494f4e0000000000000000000000000000000000000000000060208201527fffffffffffffffffffffffffffffffffffffffff000000000000000000000000606084811b8216602a84015285901b16603e820152605281018290526000906072016040516020818303038152906040528051906020012090509392505050565b815260208101919091526040016000205473ffffffffffffffffffffffffffffffffffffffff169050806122a3576000915050610c01565b7ffffffffffffffffffffffffffffffffffffffffffffffffffffffffffffffffe73ffffffffffffffffffffffffffffffffffffffff8216016122ea576001915050610c01565b6040517f2675fdd000000000000000000000000000000000000000000000000000000000815273ffffffffffffffffffffffffffffffffffffffff821690632675fdd090612342908990899089908990600401614335565b602060405180830381865afa925050508015612399575060408051601f3d9081017fffffffffffffffffffffffffffffffffffffffffffffffffffffffffffffffe016820190925261239691810190614374565b60015b156123b15780156123af57600192505050610c01565b505b50600095945050505050565b7f1f53edd44352e5d15bad2b29233baa93bcd595e09457780bc7c5445bbbe751cc6112a881611e0e565b7f4910fdfa16fed3260ed0e7147f7cc6da11a60208b5b9406d12a635614ffd91435460ff161561241a576109b983612e3e565b8273ffffffffffffffffffffffffffffffffffffffff166352d1902d6040518163ffffffff1660e01b8152600401602060405180830381865afa92505050801561249f575060408051601f3d9081017fffffffffffffffffffffffffffffffffffffffffffffffffffffffffffffffe016820190925261249c91810190614396565b60015b61252b576040517f08c379a000000000000000000000000000000000000000000000000000000000815260206004820152602e60248201527f45524331393637557067726164653a206e657720696d706c656d656e7461746960448201527f6f6e206973206e6f7420555550530000000000000000000000000000000000006064820152608401610895565b7f360894a13ba1a3210667c828492db98dca3e2076cc3735a920a3ca505d382bbc81146125da576040517f08c379a000000000000000000000000000000000000000000000000000000000815260206004820152602960248201527f45524331393637557067726164653a20756e737570706f727465642070726f7860448201527f6961626c655555494400000000000000000000000000000000000000000000006064820152608401610895565b506109b9838383612f48565b7fffffffff000000000000000000000000000000000000000000000000000000008082169003612672576040517f08c379a000000000000000000000000000000000000000000000000000000000815260206004820152601c60248201527f4552433136353a20696e76616c696420696e74657266616365206964000000006044820152606401610895565b7fffffffff0000000000000000000000000000000000000000000000000000000016600090815260336020526040902080547fffffffffffffffffffffffffffffffffffffffffffffffffffffffffffffff00166001179055565b6040805173ffffffffffffffffffffffffffffffffffffffff85811660248301528416604482015260648082018490528251808303909101815260849091019091526020810180517bffffffffffffffffffffffffffffffffffffffffffffffffffffffff167f23b872dd00000000000000000000000000000000000000000000000000000000179052611a39908590612f6d565b8073ffffffffffffffffffffffffffffffffffffffff81163b6127c9576040517f48359af600000000000000000000000000000000000000000000000000000000815273ffffffffffffffffffffffffffffffffffffffff83166004820152602401610895565b6040517f01ffc9a70000000000000000000000000000000000000000000000000000000081527f2675fdd000000000000000000000000000000000000000000000000000000000600482015273ffffffffffffffffffffffffffffffffffffffff8216906301ffc9a790602401602060405180830381865afa158015612853573d6000803e3d6000fd5b505050506040513d601f19601f820116820180604052508101906128779190614374565b6128c5576040517f740b711600000000000000000000000000000000000000000000000000000000815273ffffffffffffffffffffffffffffffffffffffff83166004820152602401610895565b73ffffffffffffffffffffffffffffffffffffffff8581161480156128ff575073ffffffffffffffffffffffffffffffffffffffff848116145b15612936576040517f85f1ba9900000000000000000000000000000000000000000000000000000000815260040160405180910390fd5b73ffffffffffffffffffffffffffffffffffffffff858116148061296f575073ffffffffffffffffffffffffffffffffffffffff848116145b156129dd577f815fe80e4b37c8582a3b773d1d7071f983eacfd56b5965db654f3087c25ada338314806129a657506129a68361307c565b156129dd576040517f24159e5b00000000000000000000000000000000000000000000000000000000815260040160405180910390fd5b604080517f5045524d495353494f4e000000000000000000000000000000000000000000006020808301919091527fffffffffffffffffffffffffffffffffffffffff000000000000000000000000606088811b8216602a85015289901b16603e83015260528083018790528351808403909101815260729092019092528051910120600090600081815260c9602052604090205490915073ffffffffffffffffffffffffffffffffffffffff1680612b2657600082815260c9602090815260409182902080547fffffffffffffffffffffffff00000000000000000000000000000000000000001673ffffffffffffffffffffffffffffffffffffffff87811691821790925583518b8316815292830152881691339188917f0f579ad49235a8c1fd9041427e7067b1eb10926bbed380bf6fabc73e0e807644910160405180910390a4612bc2565b8273ffffffffffffffffffffffffffffffffffffffff168173ffffffffffffffffffffffffffffffffffffffff1614612bc2576040517f0b98789e00000000000000000000000000000000000000000000000000000000815273ffffffffffffffffffffffffffffffffffffffff808916600483015280881660248301526044820187905280831660648301528416608482015260a401610895565b50505050505050565b61012e80547fffffffffffffffffffffffff00000000000000000000000000000000000000001673ffffffffffffffffffffffffffffffffffffffff83169081179091556040519081527fd91237492a9e30cd2faf361fc103998a382ff0ec2b1b07dc1cbebb76ae2f1ea29060200160405180910390a150565b612c6e7f150b7a02000000000000000000000000000000000000000000000000000000006125e6565b612c977f4e2312e0000000000000000000000000000000000000000000000000000000006125e6565b60fb6020527f5a08f87af82de422c581ce019b2e54a9c17372e9cba575ae0470ba2482d6368680547fffffffffffffffffffffffffffffffffffffffffffffffffffffffff0000000090811663150b7a02179091557fe1cfe341950d56d8854f782066100d5ae1d5930cdb4949b973e554a343efc6c38054821663f23a6e611790557fbc197c81000000000000000000000000000000000000000000000000000000006000527f08ba3617671847c1c169da222a5bc01cfdefcc3c4f1e5525214a474479c89123805490911663bc197c81179055565b7fbb39ebb37e60fb5d606ffdb749d2336e56b88e6c88c4bd6513b308f643186eed8282604051610ed2929190614321565b600054610100900460ff16612e35576040517f08c379a000000000000000000000000000000000000000000000000000000000815260206004820152602b60248201527f496e697469616c697a61626c653a20636f6e7472616374206973206e6f74206960448201527f6e697469616c697a696e670000000000000000000000000000000000000000006064820152608401610895565b610e3581613175565b73ffffffffffffffffffffffffffffffffffffffff81163b612ee2576040517f08c379a000000000000000000000000000000000000000000000000000000000815260206004820152602d60248201527f455243313936373a206e657720696d706c656d656e746174696f6e206973206e60448201527f6f74206120636f6e7472616374000000000000000000000000000000000000006064820152608401610895565b7f360894a13ba1a3210667c828492db98dca3e2076cc3735a920a3ca505d382bbc80547fffffffffffffffffffffffff00000000000000000000000000000000000000001673ffffffffffffffffffffffffffffffffffffffff92909216919091179055565b612f51836131a0565b600082511180612f5e5750805b156109b957611a3983836131ed565b6000612fcf826040518060400160405280602081526020017f5361666545524332303a206c6f772d6c6576656c2063616c6c206661696c65648152508573ffffffffffffffffffffffffffffffffffffffff166132129092919063ffffffff16565b9050805160001480612ff0575080806020019051810190612ff09190614374565b6109b9576040517f08c379a000000000000000000000000000000000000000000000000000000000815260206004820152602a60248201527f5361666545524332303a204552433230206f7065726174696f6e20646964206e60448201527f6f742073756363656564000000000000000000000000000000000000000000006064820152608401610895565b60007fbf04b4486c9663d805744005c3da000eda93de6e3308a4a7a812eb565327b78d8214806130cb57507f1f53edd44352e5d15bad2b29233baa93bcd595e09457780bc7c5445bbbe751cc82145b806130f557507f4707e94b25cfce1a7c363508fbb838c35864388ad77284b248282b9746982b9b82145b8061311f57507f06d294bc8cbad2e393408b20dd019a772661f60b8d633e56761157cb1ec85f8c82145b8061314957507f0dcbfb19b09fb8ff4e9af583d4b8e9c8127cc1b26529b4d96dd3b7e77808837282145b806108fa5750507ffaf505be9907aa6951c2ebe5b0312f4980e14f21912ed355372103cc8bd683bc1490565b610e3530827f815fe80e4b37c8582a3b773d1d7071f983eacfd56b5965db654f3087c25ada33611ed6565b6131a981612e3e565b60405173ffffffffffffffffffffffffffffffffffffffff8216907fbc7cd75a20ee27fd9adebab32041f755214dbc6bffa90cc0225b39da2e5c2d3b90600090a250565b6060610a8183836040518060600160405280602781526020016143c260279139613221565b6060610c0184846000856132a6565b60606000808573ffffffffffffffffffffffffffffffffffffffff168560405161324b91906143af565b600060405180830381855af49150503d8060008114613286576040519150601f19603f3d011682016040523d82523d6000602084013e61328b565b606091505b509150915061329c868383876133bf565b9695505050505050565b606082471015613338576040517f08c379a000000000000000000000000000000000000000000000000000000000815260206004820152602660248201527f416464726573733a20696e73756666696369656e742062616c616e636520666f60448201527f722063616c6c00000000000000000000000000000000000000000000000000006064820152608401610895565b6000808673ffffffffffffffffffffffffffffffffffffffff16858760405161336191906143af565b60006040518083038185875af1925050503d806000811461339e576040519150601f19603f3d011682016040523d82523d6000602084013e6133a3565b606091505b50915091506133b4878383876133bf565b979650505050505050565b6060831561345557825160000361344e5773ffffffffffffffffffffffffffffffffffffffff85163b61344e576040517f08c379a000000000000000000000000000000000000000000000000000000000815260206004820152601d60248201527f416464726573733a2063616c6c20746f206e6f6e2d636f6e74726163740000006044820152606401610895565b5081610c01565b610c01838381511561346a5781518083602001fd5b806040517f08c379a0000000000000000000000000000000000000000000000000000000008152600401610895919061391a565b60405180606001604052806003906020820280368337509192915050565b7fffffffff0000000000000000000000000000000000000000000000000000000081168114610e3557600080fd5b6000602082840312156134fc57600080fd5b8135610a81816134bc565b60008083601f84011261351957600080fd5b50813567ffffffffffffffff81111561353157600080fd5b60208301915083602082850101111561354957600080fd5b9250929050565b6000806020838503121561356357600080fd5b823567ffffffffffffffff81111561357a57600080fd5b61358685828601613507565b90969095509350505050565b7f4e487b7100000000000000000000000000000000000000000000000000000000600052604160045260246000fd5b600082601f8301126135d257600080fd5b813567ffffffffffffffff808211156135ed576135ed613592565b604051601f83017fffffffffffffffffffffffffffffffffffffffffffffffffffffffffffffffe0908116603f0116810190828211818310171561363357613633613592565b8160405283815286602085880101111561364c57600080fd5b836020870160208301376000602085830101528094505050505092915050565b6000806040838503121561367f57600080fd5b82359150602083013567ffffffffffffffff81111561369d57600080fd5b6136a9858286016135c1565b9150509250929050565b73ffffffffffffffffffffffffffffffffffffffff81168114610e3557600080fd5b6000806000604084860312156136ea57600080fd5b83356136f5816136b3565b9250602084013567ffffffffffffffff8082111561371257600080fd5b818601915086601f83011261372657600080fd5b81358181111561373557600080fd5b87602060608302850101111561374a57600080fd5b6020830194508093505050509250925092565b6000806000806080858703121561377357600080fd5b843561377e816136b3565b9350602085013561378e816136b3565b925060408501359150606085013567ffffffffffffffff8111156137b157600080fd5b6137bd878288016135c1565b91505092959194509250565b60608101818360005b60038110156137f457815160ff168352602092830192909101906001016137d2565b50505092915050565b60006020828403121561380f57600080fd5b8135610a81816136b3565b60008060006080848603121561382f57600080fd5b606084018581111561384057600080fd5b8493503567ffffffffffffffff81111561385957600080fd5b61386586828701613507565b9497909650939450505050565b6000806040838503121561388557600080fd5b8235613890816136b3565b9150602083013567ffffffffffffffff81111561369d57600080fd5b60005b838110156138c75781810151838201526020016138af565b50506000910152565b600081518084526138e88160208601602086016138ac565b601f017fffffffffffffffffffffffffffffffffffffffffffffffffffffffffffffffe0169290920160200192915050565b602081526000610a8160208301846138d0565b6000806000806060858703121561394357600080fd5b843561394e816136b3565b935060208501359250604085013567ffffffffffffffff81111561397157600080fd5b61397d87828801613507565b95989497509550505050565b60008060006060848603121561399e57600080fd5b83356139a9816134bc565b925060208401356139b9816134bc565b915060408401356139c9816134bc565b809150509250925092565b600080600080606085870312156139ea57600080fd5b84359350602085013567ffffffffffffffff80821115613a0957600080fd5b818701915087601f830112613a1d57600080fd5b813581811115613a2c57600080fd5b8860208260051b8501011115613a4157600080fd5b95986020929092019750949560400135945092505050565b600081518084526020808501808196508360051b8101915082860160005b85811015613aa1578284038952613a8f8483516138d0565b98850198935090840190600101613a77565b5091979650505050505050565b604081526000613ac16040830185613a59565b90508260208301529392505050565b60008060008060808587031215613ae657600080fd5b8435613af1816136b3565b93506020850135613b01816136b3565b9250604085013591506060850135613b18816136b3565b939692955090935050565b600080600060608486031215613b3857600080fd5b8335613b43816136b3565b92506020840135613b53816136b3565b929592945050506040919091013590565b60008060208385031215613b7757600080fd5b823567ffffffffffffffff80821115613b8f57600080fd5b818501915085601f830112613ba357600080fd5b813581811115613bb257600080fd5b86602060a083028501011115613bc757600080fd5b60209290920196919550909350505050565b60008060008060008060808789031215613bf257600080fd5b863567ffffffffffffffff80821115613c0a57600080fd5b613c168a838b01613507565b909850965060208901359150613c2b826136b3565b909450604088013590613c3d826136b3565b90935060608801359080821115613c5357600080fd5b50613c6089828a01613507565b979a9699509497509295939492505050565b73ffffffffffffffffffffffffffffffffffffffff83168152604060208201526000610c0160408301846138d0565b828152604060208201526000610c0160408301846138d0565b600060208284031215613ccc57600080fd5b8151610a81816134bc565b7f4e487b7100000000000000000000000000000000000000000000000000000000600052603260045260246000fd5b803560038110613d1557600080fd5b919050565b600060608284031215613d2c57600080fd5b6040516060810181811067ffffffffffffffff82111715613d4f57613d4f613592565b604052613d5b83613d06565b81526020830135613d6b816136b3565b60208201526040928301359281019290925250919050565b7f4e487b7100000000000000000000000000000000000000000000000000000000600052602160045260246000fd5b803560ff81168114613d1557600080fd5b600060208284031215613dd557600080fd5b610a8182613db2565b60608101818360005b60038110156137f45760ff613dfb83613db2565b1683526020928301929190910190600101613de7565b600181811c90821680613e2557607f821691505b602082108103613e5e577f4e487b7100000000000000000000000000000000000000000000000000000000600052602260045260246000fd5b50919050565b8183528181602085013750600060208284010152600060207fffffffffffffffffffffffffffffffffffffffffffffffffffffffffffffffe0601f840116840101905092915050565b838152604060208201526000610bfe604083018486613e64565b600082357fffffffffffffffffffffffffffffffffffffffffffffffffffffffffffffffa1833603018112613efb57600080fd5b9190910192915050565b60008083357fffffffffffffffffffffffffffffffffffffffffffffffffffffffffffffffe1843603018112613f3a57600080fd5b83018035915067ffffffffffffffff821115613f5557600080fd5b60200191503681900382131561354957600080fd5b8183823760009101908152919050565b600082613fb0577f4e487b7100000000000000000000000000000000000000000000000000000000600052601260045260246000fd5b500490565b600060a08201888352602060a0818501528188835260c08501905060c08960051b86010192508960005b8a8110156140fb577fffffffffffffffffffffffffffffffffffffffffffffffffffffffffffffff4087860301835281357fffffffffffffffffffffffffffffffffffffffffffffffffffffffffffffffa18d360301811261404057600080fd5b8c016060813561404f816136b3565b73ffffffffffffffffffffffffffffffffffffffff1687528186013586880152604080830135368490037fffffffffffffffffffffffffffffffffffffffffffffffffffffffffffffffe10181126140a657600080fd5b90920186810192903567ffffffffffffffff8111156140c457600080fd5b8036038413156140d357600080fd5b82828a01526140e5838a018286613e64565b9850505093850193505090830190600101613fdf565b50505050856040840152846060840152828103608084015261411d8185613a59565b9998505050505050505050565b600060a0828403121561413c57600080fd5b60405160a0810181811067ffffffffffffffff8211171561415f5761415f613592565b60405261416b83613d06565b8152602083013561417b816136b3565b6020820152604083013561418e816136b3565b604082015260608301356141a1816136b3565b60608201526080928301359281019290925250919050565b601f8211156109b957600081815260208120601f850160051c810160208610156141e05750805b601f850160051c820191505b818110156141ff578281556001016141ec565b505050505050565b67ffffffffffffffff83111561421f5761421f613592565b6142338361422d8354613e11565b836141b9565b6000601f841160018114614285576000851561424f5750838201355b7fffffffffffffffffffffffffffffffffffffffffffffffffffffffffffffffff600387901b1c1916600186901b178355610b9d565b6000838152602090207fffffffffffffffffffffffffffffffffffffffffffffffffffffffffffffffe0861690835b828110156142d457868501358255602094850194600190920191016142b4565b508682101561430f577fffffffffffffffffffffffffffffffffffffffffffffffffffffffffffffffff60f88860031b161c19848701351681555b505060018560011b0183555050505050565b602081526000610c01602083018486613e64565b600073ffffffffffffffffffffffffffffffffffffffff80871683528086166020840152508360408301526080606083015261329c60808301846138d0565b60006020828403121561438657600080fd5b81518015158114610a8157600080fd5b6000602082840312156143a857600080fd5b5051919050565b60008251613efb8184602087016138ac56fe416464726573733a206c6f772d6c6576656c2064656c65676174652063616c6c206661696c6564a264697066735822122020a362dd63c4e6e06e6f4f814ed9a220b75c8c6391cd417221a6ba93ab6366a164736f6c63430008110033"
}