{
  "address": "0x4E7c97ab08c046A8e43571f9839d768ae84492e4",
  "abi": [
    {
      "inputs": [
        {
          "internalType": "contract PluginRepoRegistry",
          "name": "_pluginRepoRegistry",
          "type": "address"
        }
      ],
      "stateMutability": "nonpayable",
      "type": "constructor"
    },
    {
      "inputs": [
        {
          "internalType": "string",
          "name": "_subdomain",
          "type": "string"
        },
        {
          "internalType": "address",
          "name": "_initialOwner",
          "type": "address"
        }
      ],
      "name": "createPluginRepo",
      "outputs": [
        {
          "internalType": "contract PluginRepo",
          "name": "",
          "type": "address"
        }
      ],
      "stateMutability": "nonpayable",
      "type": "function"
    },
    {
      "inputs": [
        {
          "internalType": "string",
          "name": "_subdomain",
          "type": "string"
        },
        {
          "internalType": "address",
          "name": "_pluginSetup",
          "type": "address"
        },
        {
          "internalType": "address",
          "name": "_maintainer",
          "type": "address"
        },
        {
          "internalType": "bytes",
          "name": "_releaseMetadata",
          "type": "bytes"
        },
        {
          "internalType": "bytes",
          "name": "_buildMetadata",
          "type": "bytes"
        }
      ],
      "name": "createPluginRepoWithFirstVersion",
      "outputs": [
        {
          "internalType": "contract PluginRepo",
          "name": "pluginRepo",
          "type": "address"
        }
      ],
      "stateMutability": "nonpayable",
      "type": "function"
    },
    {
      "inputs": [],
      "name": "pluginRepoBase",
      "outputs": [
        {
          "internalType": "address",
          "name": "",
          "type": "address"
        }
      ],
      "stateMutability": "view",
      "type": "function"
    },
    {
      "inputs": [],
      "name": "pluginRepoRegistry",
      "outputs": [
        {
          "internalType": "contract PluginRepoRegistry",
          "name": "",
          "type": "address"
        }
      ],
      "stateMutability": "view",
      "type": "function"
    },
    {
      "inputs": [],
      "name": "protocolVersion",
      "outputs": [
        {
          "internalType": "uint8[3]",
          "name": "",
          "type": "uint8[3]"
        }
      ],
      "stateMutability": "pure",
      "type": "function"
    },
    {
      "inputs": [
        {
          "internalType": "bytes4",
          "name": "_interfaceId",
          "type": "bytes4"
        }
      ],
      "name": "supportsInterface",
      "outputs": [
        {
          "internalType": "bool",
          "name": "",
          "type": "bool"
        }
      ],
      "stateMutability": "view",
      "type": "function"
    }
  ],
  "numDeployments": 1,
  "bytecode": "0x608060405234801561001057600080fd5b50604051614d69380380614d6983398101604081905261002f916100a6565b600080546001600160a01b0319166001600160a01b03831617905560405161005690610099565b604051809103906000f080158015610072573d6000803e3d6000fd5b50600180546001600160a01b0319166001600160a01b0392909216919091179055506100d6565b6136b6806116b383390190565b6000602082840312156100b857600080fd5b81516001600160a01b03811681146100cf57600080fd5b9392505050565b6115ce806100e56000396000f3fe60806040523480156200001157600080fd5b50600436106200007b5760003560e01c806349b19d08116200005657806349b19d08146200010c5780637bd3e8ac1462000123578063d222cb1e146200013a57600080fd5b806301ffc9a714620000805780630b36f03c14620000ac5780632ae9c60014620000f3575b600080fd5b62000097620000913660046200089d565b6200015b565b60405190151581526020015b60405180910390f35b600054620000cd9073ffffffffffffffffffffffffffffffffffffffff1681565b60405173ffffffffffffffffffffffffffffffffffffffff9091168152602001620000a3565b620000fd620001f5565b604051620000a39190620008e8565b620000cd6200011d36600462000994565b62000221565b620000cd6200013436600462000ad0565b62000238565b600154620000cd9073ffffffffffffffffffffffffffffffffffffffff1681565b60007fffffffff0000000000000000000000000000000000000000000000000000000082167f2ae9c600000000000000000000000000000000000000000000000000000000001480620001ef57507f01ffc9a7000000000000000000000000000000000000000000000000000000007fffffffff000000000000000000000000000000000000000000000000000000008316145b92915050565b620001ff62000871565b5060408051606081018252600181526003602082015260009181019190915290565b600062000230848484620002ef565b949350505050565b600062000247878730620002ef565b6040517ffc05442700000000000000000000000000000000000000000000000000000000815290915073ffffffffffffffffffffffffffffffffffffffff82169063fc05442790620002a59060019089908790899060040162000bf5565b600060405180830381600087803b158015620002c057600080fd5b505af1158015620002d5573d6000803e3d6000fd5b50505050620002e5818562000419565b9695505050505050565b6001546040805173ffffffffffffffffffffffffffffffffffffffff8481166024808401919091528351808403909101815260449092019092526020810180517bffffffffffffffffffffffffffffffffffffffffffffffffffffffff167fc4d66de800000000000000000000000000000000000000000000000000000000179052600092620003819216906200082d565b6000546040517ffdb9df5500000000000000000000000000000000000000000000000000000000815291925073ffffffffffffffffffffffffffffffffffffffff169063fdb9df5590620003de9087908790869060040162000c4e565b600060405180830381600087803b158015620003f957600080fd5b505af11580156200040e573d6000803e3d6000fd5b505050509392505050565b60408051600680825260e08201909252600091816020015b60408051606081018252600080825260208083018290529282015282527fffffffffffffffffffffffffffffffffffffffffffffffffffffffffffffffff9092019101816200043157905050905060008373ffffffffffffffffffffffffffffffffffffffff166309e56b146040518163ffffffff1660e01b8152600401602060405180830381865afa158015620004cd573d6000803e3d6000fd5b505050506040513d601f19601f82011682018060405250810190620004f3919062000cbb565b905060008473ffffffffffffffffffffffffffffffffffffffff1663afe5eb786040518163ffffffff1660e01b8152600401602060405180830381865afa15801562000543573d6000803e3d6000fd5b505050506040513d601f19601f8201168201806040525081019062000569919062000cbb565b905060008573ffffffffffffffffffffffffffffffffffffffff1663cc98b8f56040518163ffffffff1660e01b8152600401602060405180830381865afa158015620005b9573d6000803e3d6000fd5b505050506040513d601f19601f82011682018060405250810190620005df919062000cbb565b604080516060810190915290915080600081526020018673ffffffffffffffffffffffffffffffffffffffff16815260200183815250846000815181106200062b576200062b62000cd5565b6020908102919091010152604080516060810190915280600081526020018673ffffffffffffffffffffffffffffffffffffffff16815260200182815250846001815181106200067f576200067f62000cd5565b6020908102919091010152604080516060810190915280600081526020018673ffffffffffffffffffffffffffffffffffffffff1681526020018481525084600281518110620006d357620006d362000cd5565b60209081029190910101526040805160608101909152806001815230602082015260400184905284518590600390811062000712576200071262000cd5565b60209081029190910101526040805160608101909152806001815230602082015260400183905284518590600490811062000751576200075162000cd5565b60209081029190910101526040805160608101909152806001815230602082015260400182905284518590600590811062000790576200079062000cd5565b60209081029190910101526040517f22844d0400000000000000000000000000000000000000000000000000000000815273ffffffffffffffffffffffffffffffffffffffff8716906322844d0490620007f1908990889060040162000d04565b600060405180830381600087803b1580156200080c57600080fd5b505af115801562000821573d6000803e3d6000fd5b50505050505050505050565b600082826040516200083f906200088f565b6200084c92919062000dba565b604051809103906000f08015801562000869573d6000803e3d6000fd5b509392505050565b60405180606001604052806003906020820280368337509192915050565b6107ad8062000dec83390190565b600060208284031215620008b057600080fd5b81357fffffffff0000000000000000000000000000000000000000000000000000000081168114620008e157600080fd5b9392505050565b60608101818360005b60038110156200091557815160ff16835260209283019290910190600101620008f1565b50505092915050565b60008083601f8401126200093157600080fd5b50813567ffffffffffffffff8111156200094a57600080fd5b6020830191508360208285010111156200096357600080fd5b9250929050565b803573ffffffffffffffffffffffffffffffffffffffff811681146200098f57600080fd5b919050565b600080600060408486031215620009aa57600080fd5b833567ffffffffffffffff811115620009c257600080fd5b620009d0868287016200091e565b9094509250620009e59050602085016200096a565b90509250925092565b7f4e487b7100000000000000000000000000000000000000000000000000000000600052604160045260246000fd5b600082601f83011262000a2f57600080fd5b813567ffffffffffffffff8082111562000a4d5762000a4d620009ee565b604051601f83017fffffffffffffffffffffffffffffffffffffffffffffffffffffffffffffffe0908116603f0116810190828211818310171562000a965762000a96620009ee565b8160405283815286602085880101111562000ab057600080fd5b836020870160208301376000602085830101528094505050505092915050565b60008060008060008060a0878903121562000aea57600080fd5b863567ffffffffffffffff8082111562000b0357600080fd5b62000b118a838b016200091e565b909850965086915062000b2760208a016200096a565b955062000b3760408a016200096a565b9450606089013591508082111562000b4e57600080fd5b62000b5c8a838b0162000a1d565b9350608089013591508082111562000b7357600080fd5b5062000b8289828a0162000a1d565b9150509295509295509295565b6000815180845260005b8181101562000bb75760208185018101518683018201520162000b99565b5060006020828601015260207fffffffffffffffffffffffffffffffffffffffffffffffffffffffffffffffe0601f83011685010191505092915050565b60ff8516815273ffffffffffffffffffffffffffffffffffffffff8416602082015260806040820152600062000c2f608083018562000b8f565b828103606084015262000c43818562000b8f565b979650505050505050565b6040815282604082015282846060830137600060608483010152600060607fffffffffffffffffffffffffffffffffffffffffffffffffffffffffffffffe0601f860116830101905073ffffffffffffffffffffffffffffffffffffffff83166020830152949350505050565b60006020828403121562000cce57600080fd5b5051919050565b7f4e487b7100000000000000000000000000000000000000000000000000000000600052603260045260246000fd5b6000604080830173ffffffffffffffffffffffffffffffffffffffff8087168552602083818701528287518085526060945084880191508289016000805b8381101562000da957825180516003811062000d85577f4e487b710000000000000000000000000000000000000000000000000000000084526021600452602484fd5b86528087015188168787015289015189860152938701939185019160010162000d42565b50929b9a5050505050505050505050565b73ffffffffffffffffffffffffffffffffffffffff8316815260406020820152600062000230604083018462000b8f56fe60806040526040516107ad3803806107ad83398101604081905261002291610319565b61002e82826000610035565b5050610436565b61003e8361006b565b60008251118061004b5750805b156100665761006483836100ab60201b6100291760201c565b505b505050565b610074816100d7565b6040516001600160a01b038216907fbc7cd75a20ee27fd9adebab32041f755214dbc6bffa90cc0225b39da2e5c2d3b90600090a250565b60606100d08383604051806060016040528060278152602001610786602791396101a9565b9392505050565b6100ea8161022260201b6100551760201c565b6101515760405162461bcd60e51b815260206004820152602d60248201527f455243313936373a206e657720696d706c656d656e746174696f6e206973206e60448201526c1bdd08184818dbdb9d1c9858dd609a1b60648201526084015b60405180910390fd5b806101887f360894a13ba1a3210667c828492db98dca3e2076cc3735a920a3ca505d382bbc60001b61023160201b6100711760201c565b80546001600160a01b0319166001600160a01b039290921691909117905550565b6060600080856001600160a01b0316856040516101c691906103e7565b600060405180830381855af49150503d8060008114610201576040519150601f19603f3d011682016040523d82523d6000602084013e610206565b606091505b50909250905061021886838387610234565b9695505050505050565b6001600160a01b03163b151590565b90565b606083156102a357825160000361029c576001600160a01b0385163b61029c5760405162461bcd60e51b815260206004820152601d60248201527f416464726573733a2063616c6c20746f206e6f6e2d636f6e74726163740000006044820152606401610148565b50816102ad565b6102ad83836102b5565b949350505050565b8151156102c55781518083602001fd5b8060405162461bcd60e51b81526004016101489190610403565b634e487b7160e01b600052604160045260246000fd5b60005b838110156103105781810151838201526020016102f8565b50506000910152565b6000806040838503121561032c57600080fd5b82516001600160a01b038116811461034357600080fd5b60208401519092506001600160401b038082111561036057600080fd5b818501915085601f83011261037457600080fd5b815181811115610386576103866102df565b604051601f8201601f19908116603f011681019083821181831017156103ae576103ae6102df565b816040528281528860208487010111156103c757600080fd5b6103d88360208301602088016102f5565b80955050505050509250929050565b600082516103f98184602087016102f5565b9190910192915050565b60208152600082518060208401526104228160408501602087016102f5565b601f01601f19169190910160400192915050565b610341806104456000396000f3fe60806040523661001357610011610017565b005b6100115b610027610022610074565b6100b9565b565b606061004e83836040518060600160405280602781526020016102e5602791396100dd565b9392505050565b73ffffffffffffffffffffffffffffffffffffffff163b151590565b90565b60006100b47f360894a13ba1a3210667c828492db98dca3e2076cc3735a920a3ca505d382bbc5473ffffffffffffffffffffffffffffffffffffffff1690565b905090565b3660008037600080366000845af43d6000803e8080156100d8573d6000f35b3d6000fd5b60606000808573ffffffffffffffffffffffffffffffffffffffff16856040516101079190610277565b600060405180830381855af49150503d8060008114610142576040519150601f19603f3d011682016040523d82523d6000602084013e610147565b606091505b509150915061015886838387610162565b9695505050505050565b606083156101fd5782516000036101f65773ffffffffffffffffffffffffffffffffffffffff85163b6101f6576040517f08c379a000000000000000000000000000000000000000000000000000000000815260206004820152601d60248201527f416464726573733a2063616c6c20746f206e6f6e2d636f6e747261637400000060448201526064015b60405180910390fd5b5081610207565b610207838361020f565b949350505050565b81511561021f5781518083602001fd5b806040517f08c379a00000000000000000000000000000000000000000000000000000000081526004016101ed9190610293565b60005b8381101561026e578181015183820152602001610256565b50506000910152565b60008251610289818460208701610253565b9190910192915050565b60208152600082518060208401526102b2816040850160208701610253565b601f017fffffffffffffffffffffffffffffffffffffffffffffffffffffffffffffffe016919091016040019291505056fe416464726573733a206c6f772d6c6576656c2064656c65676174652063616c6c206661696c6564a26469706673582212204620451c9055005597d3f3df4a1a9242194551838ce5e440ecc1fd3deaab1c4364736f6c63430008110033416464726573733a206c6f772d6c6576656c2064656c65676174652063616c6c206661696c6564a264697066735822122024c5122bd60c8b4be9885664ed6cce39b44cd7fe918975baa0455b591bdec6a364736f6c6343000811003360a0604052306080523480156200001557600080fd5b506200002062000026565b620000e7565b600054610100900460ff1615620000935760405162461bcd60e51b815260206004820152602760248201527f496e697469616c697a61626c653a20636f6e747261637420697320696e697469604482015266616c697a696e6760c81b606482015260840160405180910390fd5b60005460ff90811614620000e5576000805460ff191660ff9081179091556040519081527f7f26b83ff96e1f2b6a682f133852f6798a09c465da95921460cefb38474024989060200160405180910390a15b565b6080516135976200011f600039600081816108aa0152818161095f01528181610ab401528181610b640152610d0401526135976000f3fe6080604052600436106101805760003560e01c80639aaf9f08116100d6578063d68bad2c1161007f578063e0589bd311610059578063e0589bd31461047d578063e978afe51461049d578063fc054427146104bd57600080fd5b8063d68bad2c14610409578063d96054c414610429578063df1d6c441461044957600080fd5b8063c4d66de8116100b0578063c4d66de814610395578063c9dbc2a4146103b5578063cc98b8f5146103d557600080fd5b80639aaf9f08146103215780639af3e90914610341578063afe5eb781461036157600080fd5b80632ae9c6001161013857806350abe9101161011257806350abe910146102b357806352d1902d146102e05780637be0ca5e146102f557600080fd5b80632ae9c6001461025e5780633659cfe6146102805780634f1ef286146102a057600080fd5b806322844d041161016957806322844d04146101fc5780632675fdd01461021e57806328375f671461023e57600080fd5b806301ffc9a71461018557806309e56b14146101ba575b600080fd5b34801561019157600080fd5b506101a56101a03660046129e9565b6104dd565b60405190151581526020015b60405180910390f35b3480156101c657600080fd5b506101ee7f815fe80e4b37c8582a3b773d1d7071f983eacfd56b5965db654f3087c25ada3381565b6040519081526020016101b1565b34801561020857600080fd5b5061021c610217366004612a4d565b6105c2565b005b34801561022a57600080fd5b506101a5610239366004612baf565b6106de565b34801561024a57600080fd5b5061021c610259366004612c7a565b610743565b34801561026a57600080fd5b50610273610869565b6040516101b19190612ccd565b34801561028c57600080fd5b5061021c61029b366004612d01565b610893565b61021c6102ae366004612d1e565b610a9d565b3480156102bf57600080fd5b506102d36102ce366004612d01565b610c93565b6040516101b19190612ddc565b3480156102ec57600080fd5b506101ee610cea565b34801561030157600080fd5b5060cc5461030f9060ff1681565b60405160ff90911681526020016101b1565b34801561032d57600080fd5b506102d361033c366004612e35565b610dd6565b34801561034d57600080fd5b506102d361035c366004612e4e565b610f3a565b34801561036d57600080fd5b506101ee7fa0885006fe6672eeafd1deca6c67bcdc6dd79cfe2b157a98539ddf73cd8c04ea81565b3480156103a157600080fd5b5061021c6103b0366004612d01565b610f80565b3480156103c157600080fd5b5061021c6103d0366004612e66565b611169565b3480156103e157600080fd5b506101ee7f5aa4f06bdc18535eff05128093a2315c2c960a2722e20021cbff28da04760f5b81565b34801561041557600080fd5b5061021c610424366004612eb9565b61119f565b34801561043557600080fd5b5061021c610444366004612eb9565b6111da565b34801561045557600080fd5b506101ee610464366004612efa565b60ff16600090815260c9602052604090205461ffff1690565b34801561048957600080fd5b506102d3610498366004612efa565b61120f565b3480156104a957600080fd5b5061021c6104b8366004612f15565b611278565b3480156104c957600080fd5b5061021c6104d8366004612f8a565b61137f565b60007fffffffff0000000000000000000000000000000000000000000000000000000082167fd4321b4000000000000000000000000000000000000000000000000000000000148061057057507fffffffff0000000000000000000000000000000000000000000000000000000082167f2ae9c60000000000000000000000000000000000000000000000000000000000145b806105bc57507f01ffc9a7000000000000000000000000000000000000000000000000000000007fffffffff000000000000000000000000000000000000000000000000000000008316145b92915050565b7f815fe80e4b37c8582a3b773d1d7071f983eacfd56b5965db654f3087c25ada336105ec81611822565b60005b828110156106d757600084848381811061060b5761060b61301d565b905060600201803603810190610621919061305b565b9050600081516002811115610638576106386130c4565b036106555761065086826020015183604001516118aa565b6106ce565b60018151600281111561066a5761066a6130c4565b03610682576106508682602001518360400151611a68565b600281516002811115610697576106976130c4565b036106ce576040517fd4d3bef700000000000000000000000000000000000000000000000000000000815260040160405180910390fd5b506001016105ef565b5050505050565b60006106ec85858585611ba7565b8061071257506107128573ffffffffffffffffffffffffffffffffffffffff8585611ba7565b80610738575061073873ffffffffffffffffffffffffffffffffffffffff858585611ba7565b90505b949350505050565b7fa0885006fe6672eeafd1deca6c67bcdc6dd79cfe2b157a98539ddf73cd8c04ea61076d81611822565b8360ff166000036107aa576040517f76f52ffa00000000000000000000000000000000000000000000000000000000815260040160405180910390fd5b60cc5460ff90811690851611156107ed576040517f11c6e3ab00000000000000000000000000000000000000000000000000000000815260040160405180910390fd5b6000829003610828576040517f88bc3fe700000000000000000000000000000000000000000000000000000000815260040160405180910390fd5b7f8ff94c32efcef376eb02508cba5536e0634c1d6ad4b51ffa0f7306c78edaf5f784848460405161085b9392919061313c565b60405180910390a150505050565b6108716129cb565b5060408051606081018252600181526003602082015260009181019190915290565b73ffffffffffffffffffffffffffffffffffffffff7f000000000000000000000000000000000000000000000000000000000000000016300361095d576040517f08c379a000000000000000000000000000000000000000000000000000000000815260206004820152602c60248201527f46756e6374696f6e206d7573742062652063616c6c6564207468726f7567682060448201527f64656c656761746563616c6c000000000000000000000000000000000000000060648201526084015b60405180910390fd5b7f000000000000000000000000000000000000000000000000000000000000000073ffffffffffffffffffffffffffffffffffffffff166109d27f360894a13ba1a3210667c828492db98dca3e2076cc3735a920a3ca505d382bbc5473ffffffffffffffffffffffffffffffffffffffff1690565b73ffffffffffffffffffffffffffffffffffffffff1614610a75576040517f08c379a000000000000000000000000000000000000000000000000000000000815260206004820152602c60248201527f46756e6374696f6e206d7573742062652063616c6c6564207468726f7567682060448201527f6163746976652070726f787900000000000000000000000000000000000000006064820152608401610954565b610a7e81611d91565b60408051600080825260208201909252610a9a91839190611dbb565b50565b73ffffffffffffffffffffffffffffffffffffffff7f0000000000000000000000000000000000000000000000000000000000000000163003610b62576040517f08c379a000000000000000000000000000000000000000000000000000000000815260206004820152602c60248201527f46756e6374696f6e206d7573742062652063616c6c6564207468726f7567682060448201527f64656c656761746563616c6c00000000000000000000000000000000000000006064820152608401610954565b7f000000000000000000000000000000000000000000000000000000000000000073ffffffffffffffffffffffffffffffffffffffff16610bd77f360894a13ba1a3210667c828492db98dca3e2076cc3735a920a3ca505d382bbc5473ffffffffffffffffffffffffffffffffffffffff1690565b73ffffffffffffffffffffffffffffffffffffffff1614610c7a576040517f08c379a000000000000000000000000000000000000000000000000000000000815260206004820152602c60248201527f46756e6374696f6e206d7573742062652063616c6c6564207468726f7567682060448201527f6163746976652070726f787900000000000000000000000000000000000000006064820152608401610954565b610c8382611d91565b610c8f82826001611dbb565b5050565b6040805160a0810182526000606080830182815260808401839052835260208084018390528385019190915273ffffffffffffffffffffffffffffffffffffffff8516825260cb905291909120546105bc90610dd6565b60003073ffffffffffffffffffffffffffffffffffffffff7f00000000000000000000000000000000000000000000000000000000000000001614610db1576040517f08c379a000000000000000000000000000000000000000000000000000000000815260206004820152603860248201527f555550535570677261646561626c653a206d757374206e6f742062652063616c60448201527f6c6564207468726f7567682064656c656761746563616c6c00000000000000006064820152608401610954565b507f360894a13ba1a3210667c828492db98dca3e2076cc3735a920a3ca505d382bbc90565b6040805160a0810182526000606080830182815260808401839052835260208084018390528385019190915284825260ca905291822080549192909160ff169003610e50576040517f8d0aeeb100000000000000000000000000000000000000000000000000000000815260048101849052602401610954565b6040805160a081018252825460ff81166060830190815261010090910461ffff1660808301528152600183015473ffffffffffffffffffffffffffffffffffffffff166020820152600283018054919284929084019190610eb090613159565b80601f0160208091040260200160405190810160405280929190818152602001828054610edc90613159565b8015610f295780601f10610efe57610100808354040283529160200191610f29565b820191906000526020600020905b815481529060010190602001808311610f0c57829003601f168201915b505050505081525050915050919050565b6040805160a081018252600060608083018281526080840183905283526020830191909152918101919091526105bc61033c610f7b368590038501856131a6565b611fbf565b600054610100900460ff1615808015610fa05750600054600160ff909116105b80610fba5750303b158015610fba575060005460ff166001145b611046576040517f08c379a000000000000000000000000000000000000000000000000000000000815260206004820152602e60248201527f496e697469616c697a61626c653a20636f6e747261637420697320616c72656160448201527f647920696e697469616c697a65640000000000000000000000000000000000006064820152608401610954565b600080547fffffffffffffffffffffffffffffffffffffffffffffffffffffffffffffff0016600117905580156110a457600080547fffffffffffffffffffffffffffffffffffffffffffffffffffffffffffff00ff166101001790555b6110ad8261204e565b6110d830837fa0885006fe6672eeafd1deca6c67bcdc6dd79cfe2b157a98539ddf73cd8c04ea6118aa565b61110330837f5aa4f06bdc18535eff05128093a2315c2c960a2722e20021cbff28da04760f5b6118aa565b8015610c8f57600080547fffffffffffffffffffffffffffffffffffffffffffffffffffffffffffff00ff169055604051600181527f7f26b83ff96e1f2b6a682f133852f6798a09c465da95921460cefb38474024989060200160405180910390a15050565b7f815fe80e4b37c8582a3b773d1d7071f983eacfd56b5965db654f3087c25ada3361119381611822565b6106d7858585856120ee565b7f815fe80e4b37c8582a3b773d1d7071f983eacfd56b5965db654f3087c25ada336111c981611822565b6111d48484846118aa565b50505050565b7f815fe80e4b37c8582a3b773d1d7071f983eacfd56b5965db654f3087c25ada3361120481611822565b6111d4848484611a68565b6040805160a0810182526000606080830182815260808401839052835260208084018390528385019190915260ff851680835260c982529184902054845180860190955291845261ffff90911690830181905290916112719061033c90611fbf565b9392505050565b7f815fe80e4b37c8582a3b773d1d7071f983eacfd56b5965db654f3087c25ada336112a281611822565b60005b828110156111d45760008484838181106112c1576112c161301d565b905060a002018036038101906112d7919061320a565b90506000815160028111156112ee576112ee6130c4565b0361130f5761130a8160200151826040015183608001516118aa565b611376565b600181516002811115611324576113246130c4565b036113405761130a816020015182604001518360800151611a68565b600281516002811115611355576113556130c4565b036113765761137681602001518260400151836080015184606001516120ee565b506001016112a5565b7fa0885006fe6672eeafd1deca6c67bcdc6dd79cfe2b157a98539ddf73cd8c04ea6113a981611822565b6113e973ffffffffffffffffffffffffffffffffffffffff87167f99718b5000000000000000000000000000000000000000000000000000000000612551565b61141f576040517f9d145ceb00000000000000000000000000000000000000000000000000000000815260040160405180910390fd5b8660ff1660000361145c576040517f76f52ffa00000000000000000000000000000000000000000000000000000000815260040160405180910390fd5b60cc5460019061146f9060ff16896132c8565b60ff1611156114bb5760cc546040517f53db7b7b00000000000000000000000000000000000000000000000000000000815260ff91821660048201529088166024820152604401610954565b60cc5460ff90811690881611156115345760cc80547fffffffffffffffffffffffffffffffffffffffffffffffffffffffffffffff001660ff89161790556000829003611534576040517f88bc3fe700000000000000000000000000000000000000000000000000000000815260040160405180910390fd5b73ffffffffffffffffffffffffffffffffffffffff8616600090815260cb6020908152604080832054835260ca9091529020805460ff16158015906115805750805460ff898116911614155b156115e95780546040517fff9f367400000000000000000000000000000000000000000000000000000000815260ff8216600482015261010090910461ffff16602482015273ffffffffffffffffffffffffffffffffffffffff88166044820152606401610954565b60ff8816600090815260c9602052604081208054829061160c9061ffff166132e1565b91906101000a81548161ffff021916908361ffff16021790559050600060405180604001604052808b60ff1681526020018361ffff168152509050600061165282611fbf565b905060405180606001604052808381526020018b73ffffffffffffffffffffffffffffffffffffffff1681526020018a8a8080601f016020809104026020016040519081016040528093929190818152602001838380828437600092018290525093909452505083815260ca60209081526040918290208451805182549184015161ffff16610100027fffffffffffffffffffffffffffffffffffffffffffffffffffffffffff00000090921660ff909116171781559084015160018201805473ffffffffffffffffffffffffffffffffffffffff9092167fffffffffffffffffffffffff000000000000000000000000000000000000000090921691909117905590830151909150600282019061176a9082613350565b50505073ffffffffffffffffffffffffffffffffffffffff8a16600081815260cb602052604090819020839055517feb4bce5025c5200f6a074dd28fe7754955dfdca0eb2dcbaa16ccc292655e6669906117cb908e9087908e908e9061346a565b60405180910390a28515611815577f8ff94c32efcef376eb02508cba5536e0634c1d6ad4b51ffa0f7306c78edaf5f78b888860405161180c9392919061313c565b60405180910390a15b5050505050505050505050565b6118653033836000368080601f0160208091040260200160405190810160405280939291908181526020018383808284376000920191909152506106de92505050565b610a9a576040517f1e09743f00000000000000000000000000000000000000000000000000000000815230600482015233602482015260448101829052606401610954565b73ffffffffffffffffffffffffffffffffffffffff83811614806118e3575073ffffffffffffffffffffffffffffffffffffffff828116145b1561191a576040517f24159e5b00000000000000000000000000000000000000000000000000000000815260040160405180910390fd5b604080517f5045524d495353494f4e000000000000000000000000000000000000000000006020808301919091527fffffffffffffffffffffffffffffffffffffffff000000000000000000000000606086811b8216602a85015287901b16603e8301526052808301859052835180840390910181526072909201909252805191012060009060008181526097602052604090205490915073ffffffffffffffffffffffffffffffffffffffff16806106d75760008281526097602090815260409182902080547fffffffffffffffffffffffff0000000000000000000000000000000000000000166002908117909155825173ffffffffffffffffffffffffffffffffffffffff89811682529281019190915290861691339186917f0f579ad49235a8c1fd9041427e7067b1eb10926bbed380bf6fabc73e0e807644910160405180910390a45050505050565b604080517f5045524d495353494f4e000000000000000000000000000000000000000000006020808301919091527fffffffffffffffffffffffffffffffffffffffff000000000000000000000000606086811b8216602a85015287901b16603e8301526052808301859052835180840390910181526072909201909252805191012060009060008181526097602052604090205490915073ffffffffffffffffffffffffffffffffffffffff16156111d45760008181526097602090815260409182902080547fffffffffffffffffffffffff0000000000000000000000000000000000000000169055905173ffffffffffffffffffffffffffffffffffffffff8681168252851691339185917f3ca48185ec3f6e47e24db18b13f1c65b1ce05da1659f9c1c4fe717dda5f67524910160405180910390a450505050565b60008060976000611c3f8888886040517f5045524d495353494f4e0000000000000000000000000000000000000000000060208201527fffffffffffffffffffffffffffffffffffffffff000000000000000000000000606084811b8216602a84015285901b16603e820152605281018290526000906072016040516020818303038152906040528051906020012090509392505050565b815260208101919091526040016000205473ffffffffffffffffffffffffffffffffffffffff16905080611c7757600091505061073b565b7ffffffffffffffffffffffffffffffffffffffffffffffffffffffffffffffffe73ffffffffffffffffffffffffffffffffffffffff821601611cbe57600191505061073b565b6040517f2675fdd000000000000000000000000000000000000000000000000000000000815273ffffffffffffffffffffffffffffffffffffffff821690632675fdd090611d16908990899089908990600401613491565b602060405180830381865afa925050508015611d6d575060408051601f3d9081017fffffffffffffffffffffffffffffffffffffffffffffffffffffffffffffffe0168201909252611d6a918101906134d0565b60015b15611d85578015611d835760019250505061073b565b505b50600095945050505050565b7f5aa4f06bdc18535eff05128093a2315c2c960a2722e20021cbff28da04760f5b610c8f81611822565b7f4910fdfa16fed3260ed0e7147f7cc6da11a60208b5b9406d12a635614ffd91435460ff1615611df357611dee8361256d565b505050565b8273ffffffffffffffffffffffffffffffffffffffff166352d1902d6040518163ffffffff1660e01b8152600401602060405180830381865afa925050508015611e78575060408051601f3d9081017fffffffffffffffffffffffffffffffffffffffffffffffffffffffffffffffe0168201909252611e75918101906134f2565b60015b611f04576040517f08c379a000000000000000000000000000000000000000000000000000000000815260206004820152602e60248201527f45524331393637557067726164653a206e657720696d706c656d656e7461746960448201527f6f6e206973206e6f7420555550530000000000000000000000000000000000006064820152608401610954565b7f360894a13ba1a3210667c828492db98dca3e2076cc3735a920a3ca505d382bbc8114611fb3576040517f08c379a000000000000000000000000000000000000000000000000000000000815260206004820152602960248201527f45524331393637557067726164653a20756e737570706f727465642070726f7860448201527f6961626c655555494400000000000000000000000000000000000000000000006064820152608401610954565b50611dee838383612677565b60008160000151826020015160405160200161203192919060f89290921b7fff0000000000000000000000000000000000000000000000000000000000000016825260f01b7fffff00000000000000000000000000000000000000000000000000000000000016600182015260030190565b604051602081830303815290604052805190602001209050919050565b600054610100900460ff166120e5576040517f08c379a000000000000000000000000000000000000000000000000000000000815260206004820152602b60248201527f496e697469616c697a61626c653a20636f6e7472616374206973206e6f74206960448201527f6e697469616c697a696e670000000000000000000000000000000000000000006064820152608401610954565b610a9a8161269c565b8073ffffffffffffffffffffffffffffffffffffffff81163b612155576040517f48359af600000000000000000000000000000000000000000000000000000000815273ffffffffffffffffffffffffffffffffffffffff83166004820152602401610954565b6040517f01ffc9a70000000000000000000000000000000000000000000000000000000081527f2675fdd000000000000000000000000000000000000000000000000000000000600482015273ffffffffffffffffffffffffffffffffffffffff8216906301ffc9a790602401602060405180830381865afa1580156121df573d6000803e3d6000fd5b505050506040513d601f19601f8201168201806040525081019061220391906134d0565b612251576040517f740b711600000000000000000000000000000000000000000000000000000000815273ffffffffffffffffffffffffffffffffffffffff83166004820152602401610954565b73ffffffffffffffffffffffffffffffffffffffff85811614801561228b575073ffffffffffffffffffffffffffffffffffffffff848116145b156122c2576040517f85f1ba9900000000000000000000000000000000000000000000000000000000815260040160405180910390fd5b73ffffffffffffffffffffffffffffffffffffffff85811614806122fb575073ffffffffffffffffffffffffffffffffffffffff848116145b15612363577f815fe80e4b37c8582a3b773d1d7071f983eacfd56b5965db654f3087c25ada3383148061232c575060005b15612363576040517f24159e5b00000000000000000000000000000000000000000000000000000000815260040160405180910390fd5b604080517f5045524d495353494f4e000000000000000000000000000000000000000000006020808301919091527fffffffffffffffffffffffffffffffffffffffff000000000000000000000000606088811b8216602a85015289901b16603e8301526052808301879052835180840390910181526072909201909252805191012060009060008181526097602052604090205490915073ffffffffffffffffffffffffffffffffffffffff16806124ac5760008281526097602090815260409182902080547fffffffffffffffffffffffff00000000000000000000000000000000000000001673ffffffffffffffffffffffffffffffffffffffff87811691821790925583518b8316815292830152881691339188917f0f579ad49235a8c1fd9041427e7067b1eb10926bbed380bf6fabc73e0e807644910160405180910390a4612548565b8273ffffffffffffffffffffffffffffffffffffffff168173ffffffffffffffffffffffffffffffffffffffff1614612548576040517f0b98789e00000000000000000000000000000000000000000000000000000000815273ffffffffffffffffffffffffffffffffffffffff808916600483015280881660248301526044820187905280831660648301528416608482015260a401610954565b50505050505050565b600061255c836126c7565b80156112715750611271838361272b565b73ffffffffffffffffffffffffffffffffffffffff81163b612611576040517f08c379a000000000000000000000000000000000000000000000000000000000815260206004820152602d60248201527f455243313936373a206e657720696d706c656d656e746174696f6e206973206e60448201527f6f74206120636f6e7472616374000000000000000000000000000000000000006064820152608401610954565b7f360894a13ba1a3210667c828492db98dca3e2076cc3735a920a3ca505d382bbc80547fffffffffffffffffffffffff00000000000000000000000000000000000000001673ffffffffffffffffffffffffffffffffffffffff92909216919091179055565b612680836127fa565b60008251118061268d5750805b15611dee576111d48383612847565b610a9a30827f815fe80e4b37c8582a3b773d1d7071f983eacfd56b5965db654f3087c25ada336118aa565b60006126f3827f01ffc9a70000000000000000000000000000000000000000000000000000000061272b565b80156105bc5750612724827fffffffff0000000000000000000000000000000000000000000000000000000061272b565b1592915050565b604080517fffffffff000000000000000000000000000000000000000000000000000000008316602480830191909152825180830390910181526044909101909152602080820180517bffffffffffffffffffffffffffffffffffffffffffffffffffffffff167f01ffc9a700000000000000000000000000000000000000000000000000000000178152825160009392849283928392918391908a617530fa92503d915060005190508280156127e3575060208210155b80156127ef5750600081115b979650505050505050565b6128038161256d565b60405173ffffffffffffffffffffffffffffffffffffffff8216907fbc7cd75a20ee27fd9adebab32041f755214dbc6bffa90cc0225b39da2e5c2d3b90600090a250565b6060611271838360405180606001604052806027815260200161353b6027913960606000808573ffffffffffffffffffffffffffffffffffffffff1685604051612891919061350b565b600060405180830381855af49150503d80600081146128cc576040519150601f19603f3d011682016040523d82523d6000602084013e6128d1565b606091505b50915091506128e2868383876128ec565b9695505050505050565b6060831561298257825160000361297b5773ffffffffffffffffffffffffffffffffffffffff85163b61297b576040517f08c379a000000000000000000000000000000000000000000000000000000000815260206004820152601d60248201527f416464726573733a2063616c6c20746f206e6f6e2d636f6e74726163740000006044820152606401610954565b508161073b565b61073b83838151156129975781518083602001fd5b806040517f08c379a00000000000000000000000000000000000000000000000000000000081526004016109549190613527565b60405180606001604052806003906020820280368337509192915050565b6000602082840312156129fb57600080fd5b81357fffffffff000000000000000000000000000000000000000000000000000000008116811461127157600080fd5b73ffffffffffffffffffffffffffffffffffffffff81168114610a9a57600080fd5b600080600060408486031215612a6257600080fd5b8335612a6d81612a2b565b9250602084013567ffffffffffffffff80821115612a8a57600080fd5b818601915086601f830112612a9e57600080fd5b813581811115612aad57600080fd5b876020606083028501011115612ac257600080fd5b6020830194508093505050509250925092565b7f4e487b7100000000000000000000000000000000000000000000000000000000600052604160045260246000fd5b600082601f830112612b1557600080fd5b813567ffffffffffffffff80821115612b3057612b30612ad5565b604051601f83017fffffffffffffffffffffffffffffffffffffffffffffffffffffffffffffffe0908116603f01168101908282118183101715612b7657612b76612ad5565b81604052838152866020858801011115612b8f57600080fd5b836020870160208301376000602085830101528094505050505092915050565b60008060008060808587031215612bc557600080fd5b8435612bd081612a2b565b93506020850135612be081612a2b565b925060408501359150606085013567ffffffffffffffff811115612c0357600080fd5b612c0f87828801612b04565b91505092959194509250565b803560ff81168114612c2c57600080fd5b919050565b60008083601f840112612c4357600080fd5b50813567ffffffffffffffff811115612c5b57600080fd5b602083019150836020828501011115612c7357600080fd5b9250929050565b600080600060408486031215612c8f57600080fd5b612c9884612c1b565b9250602084013567ffffffffffffffff811115612cb457600080fd5b612cc086828701612c31565b9497909650939450505050565b60608101818360005b6003811015612cf857815160ff16835260209283019290910190600101612cd6565b50505092915050565b600060208284031215612d1357600080fd5b813561127181612a2b565b60008060408385031215612d3157600080fd5b8235612d3c81612a2b565b9150602083013567ffffffffffffffff811115612d5857600080fd5b612d6485828601612b04565b9150509250929050565b60005b83811015612d89578181015183820152602001612d71565b50506000910152565b60008151808452612daa816020860160208601612d6e565b601f017fffffffffffffffffffffffffffffffffffffffffffffffffffffffffffffffe0169290920160200192915050565b602081526000825160ff815116602084015261ffff60208201511660408401525073ffffffffffffffffffffffffffffffffffffffff6020840151166060830152604083015160808084015261073b60a0840182612d92565b600060208284031215612e4757600080fd5b5035919050565b600060408284031215612e6057600080fd5b50919050565b60008060008060808587031215612e7c57600080fd5b8435612e8781612a2b565b93506020850135612e9781612a2b565b9250604085013591506060850135612eae81612a2b565b939692955090935050565b600080600060608486031215612ece57600080fd5b8335612ed981612a2b565b92506020840135612ee981612a2b565b929592945050506040919091013590565b600060208284031215612f0c57600080fd5b61127182612c1b565b60008060208385031215612f2857600080fd5b823567ffffffffffffffff80821115612f4057600080fd5b818501915085601f830112612f5457600080fd5b813581811115612f6357600080fd5b86602060a083028501011115612f7857600080fd5b60209290920196919550909350505050565b60008060008060008060808789031215612fa357600080fd5b612fac87612c1b565b95506020870135612fbc81612a2b565b9450604087013567ffffffffffffffff80821115612fd957600080fd5b612fe58a838b01612c31565b90965094506060890135915080821115612ffe57600080fd5b5061300b89828a01612c31565b979a9699509497509295939492505050565b7f4e487b7100000000000000000000000000000000000000000000000000000000600052603260045260246000fd5b803560038110612c2c57600080fd5b60006060828403121561306d57600080fd5b6040516060810181811067ffffffffffffffff8211171561309057613090612ad5565b60405261309c8361304c565b815260208301356130ac81612a2b565b60208201526040928301359281019290925250919050565b7f4e487b7100000000000000000000000000000000000000000000000000000000600052602160045260246000fd5b8183528181602085013750600060208284010152600060207fffffffffffffffffffffffffffffffffffffffffffffffffffffffffffffffe0601f840116840101905092915050565b60ff841681526040602082015260006107386040830184866130f3565b600181811c9082168061316d57607f821691505b602082108103612e60577f4e487b7100000000000000000000000000000000000000000000000000000000600052602260045260246000fd5b6000604082840312156131b857600080fd5b6040516040810181811067ffffffffffffffff821117156131db576131db612ad5565b6040526131e783612c1b565b8152602083013561ffff811681146131fe57600080fd5b60208201529392505050565b600060a0828403121561321c57600080fd5b60405160a0810181811067ffffffffffffffff8211171561323f5761323f612ad5565b60405261324b8361304c565b8152602083013561325b81612a2b565b6020820152604083013561326e81612a2b565b6040820152606083013561328181612a2b565b60608201526080928301359281019290925250919050565b7f4e487b7100000000000000000000000000000000000000000000000000000000600052601160045260246000fd5b60ff82811682821603908111156105bc576105bc613299565b600061ffff8083168181036132f8576132f8613299565b6001019392505050565b601f821115611dee57600081815260208120601f850160051c810160208610156133295750805b601f850160051c820191505b8181101561334857828155600101613335565b505050505050565b815167ffffffffffffffff81111561336a5761336a612ad5565b61337e816133788454613159565b84613302565b602080601f8311600181146133d1576000841561339b5750858301515b7fffffffffffffffffffffffffffffffffffffffffffffffffffffffffffffffff600386901b1c1916600185901b178555613348565b6000858152602081207fffffffffffffffffffffffffffffffffffffffffffffffffffffffffffffffe08616915b8281101561341e578886015182559484019460019091019084016133ff565b508582101561345a57878501517fffffffffffffffffffffffffffffffffffffffffffffffffffffffffffffffff600388901b60f8161c191681555b5050505050600190811b01905550565b60ff8516815261ffff841660208201526060604082015260006128e26060830184866130f3565b600073ffffffffffffffffffffffffffffffffffffffff8087168352808616602084015250836040830152608060608301526128e26080830184612d92565b6000602082840312156134e257600080fd5b8151801515811461127157600080fd5b60006020828403121561350457600080fd5b5051919050565b6000825161351d818460208701612d6e565b9190910192915050565b6020815260006112716020830184612d9256fe416464726573733a206c6f772d6c6576656c2064656c65676174652063616c6c206661696c6564a2646970667358221220830b415f267d4378ab933863d35ee2313dabc2ee2b525b37b09f55bb5be89cce64736f6c63430008110033"
}