{
  "address": "0xc796bB1AfEBc56daDF6CAcD2aDa78055e5381971",
  "abi": [
    {
      "inputs": [],
      "stateMutability": "nonpayable",
      "type": "constructor"
    },
    {
      "inputs": [
        {
          "internalType": "address",
          "name": "registrant",
          "type": "address"
        }
      ],
      "name": "ContractAlreadyRegistered",
      "type": "error"
    },
    {
      "inputs": [
        {
          "internalType": "address",
          "name": "registrant",
          "type": "address"
        }
      ],
      "name": "ContractERC165SupportInvalid",
      "type": "error"
    },
    {
      "inputs": [
        {
          "internalType": "address",
          "name": "registrant",
          "type": "address"
        }
      ],
      "name": "ContractInterfaceInvalid",
      "type": "error"
    },
    {
      "inputs": [
        {
          "internalType": "address",
          "name": "dao",
          "type": "address"
        },
        {
          "internalType": "address",
          "name": "where",
          "type": "address"
        },
        {
          "internalType": "address",
          "name": "who",
          "type": "address"
        },
        {
          "internalType": "bytes32",
          "name": "permissionId",
          "type": "bytes32"
        }
      ],
      "name": "DaoUnauthorized",
      "type": "error"
    },
    {
      "inputs": [],
      "name": "EmptyPluginRepoSubdomain",
      "type": "error"
    },
    {
      "inputs": [
        {
          "internalType": "string",
          "name": "subdomain",
          "type": "string"
        }
      ],
      "name": "InvalidPluginSubdomain",
      "type": "error"
    },
    {
      "anonymous": false,
      "inputs": [
        {
          "indexed": false,
          "internalType": "address",
          "name": "previousAdmin",
          "type": "address"
        },
        {
          "indexed": false,
          "internalType": "address",
          "name": "newAdmin",
          "type": "address"
        }
      ],
      "name": "AdminChanged",
      "type": "event"
    },
    {
      "anonymous": false,
      "inputs": [
        {
          "indexed": true,
          "internalType": "address",
          "name": "beacon",
          "type": "address"
        }
      ],
      "name": "BeaconUpgraded",
      "type": "event"
    },
    {
      "anonymous": false,
      "inputs": [
        {
          "indexed": false,
          "internalType": "uint8",
          "name": "version",
          "type": "uint8"
        }
      ],
      "name": "Initialized",
      "type": "event"
    },
    {
      "anonymous": false,
      "inputs": [
        {
          "indexed": false,
          "internalType": "string",
          "name": "subdomain",
          "type": "string"
        },
        {
          "indexed": false,
          "internalType": "address",
          "name": "pluginRepo",
          "type": "address"
        }
      ],
      "name": "PluginRepoRegistered",
      "type": "event"
    },
    {
      "anonymous": false,
      "inputs": [
        {
          "indexed": true,
          "internalType": "address",
          "name": "implementation",
          "type": "address"
        }
      ],
      "name": "Upgraded",
      "type": "event"
    },
    {
      "inputs": [],
      "name": "REGISTER_PLUGIN_REPO_PERMISSION_ID",
      "outputs": [
        {
          "internalType": "bytes32",
          "name": "",
          "type": "bytes32"
        }
      ],
      "stateMutability": "view",
      "type": "function"
    },
    {
      "inputs": [],
      "name": "UPGRADE_REGISTRY_PERMISSION_ID",
      "outputs": [
        {
          "internalType": "bytes32",
          "name": "",
          "type": "bytes32"
        }
      ],
      "stateMutability": "view",
      "type": "function"
    },
    {
      "inputs": [],
      "name": "dao",
      "outputs": [
        {
          "internalType": "contract IDAO",
          "name": "",
          "type": "address"
        }
      ],
      "stateMutability": "view",
      "type": "function"
    },
    {
      "inputs": [
        {
          "internalType": "address",
          "name": "",
          "type": "address"
        }
      ],
      "name": "entries",
      "outputs": [
        {
          "internalType": "bool",
          "name": "",
          "type": "bool"
        }
      ],
      "stateMutability": "view",
      "type": "function"
    },
    {
      "inputs": [
        {
          "internalType": "contract IDAO",
          "name": "_dao",
          "type": "address"
        },
        {
          "internalType": "contract ENSSubdomainRegistrar",
          "name": "_subdomainRegistrar",
          "type": "address"
        }
      ],
      "name": "initialize",
      "outputs": [],
      "stateMutability": "nonpayable",
      "type": "function"
    },
    {
      "inputs": [],
      "name": "proxiableUUID",
      "outputs": [
        {
          "internalType": "bytes32",
          "name": "",
          "type": "bytes32"
        }
      ],
      "stateMutability": "view",
      "type": "function"
    },
    {
      "inputs": [
        {
          "internalType": "string",
          "name": "subdomain",
          "type": "string"
        },
        {
          "internalType": "address",
          "name": "pluginRepo",
          "type": "address"
        }
      ],
      "name": "registerPluginRepo",
      "outputs": [],
      "stateMutability": "nonpayable",
      "type": "function"
    },
    {
      "inputs": [],
      "name": "subdomainRegistrar",
      "outputs": [
        {
          "internalType": "contract ENSSubdomainRegistrar",
          "name": "",
          "type": "address"
        }
      ],
      "stateMutability": "view",
      "type": "function"
    },
    {
      "inputs": [],
      "name": "targetInterfaceId",
      "outputs": [
        {
          "internalType": "bytes4",
          "name": "",
          "type": "bytes4"
        }
      ],
      "stateMutability": "view",
      "type": "function"
    },
    {
      "inputs": [
        {
          "internalType": "address",
          "name": "newImplementation",
          "type": "address"
        }
      ],
      "name": "upgradeTo",
      "outputs": [],
      "stateMutability": "nonpayable",
      "type": "function"
    },
    {
      "inputs": [
        {
          "internalType": "address",
          "name": "newImplementation",
          "type": "address"
        },
        {
          "internalType": "bytes",
          "name": "data",
          "type": "bytes"
        }
      ],
      "name": "upgradeToAndCall",
      "outputs": [],
      "stateMutability": "payable",
      "type": "function"
    }
  ],
  "numDeployments": 1,
  "bytecode": "0x60a06040523060805234801561001457600080fd5b5061001d610022565b6100e1565b600054610100900460ff161561008e5760405162461bcd60e51b815260206004820152602760248201527f496e697469616c697a61626c653a20636f6e747261637420697320696e697469604482015266616c697a696e6760c81b606482015260840160405180910390fd5b60005460ff908116146100df576000805460ff191660ff9081179091556040519081527f7f26b83ff96e1f2b6a682f133852f6798a09c465da95921460cefb38474024989060200160405180910390a15b565b608051611b68610118600039600081816102e401528181610399015281816106e60152818161079601526108df0152611b686000f3fe6080604052600436106100bb5760003560e01c80634f1ef28611610074578063ce091c861161004e578063ce091c8614610239578063f29ee1251461026d578063fdb9df55146102ad57600080fd5b80634f1ef286146101cf57806352d1902d146101e257806374574eb71461020557600080fd5b80634162169f116100a55780634162169f1461013957806344162ef814610164578063485cc955146101af57600080fd5b8062077393146100c05780633659cfe614610117575b600080fd5b3480156100cc57600080fd5b5060fb546100ed9073ffffffffffffffffffffffffffffffffffffffff1681565b60405173ffffffffffffffffffffffffffffffffffffffff90911681526020015b60405180910390f35b34801561012357600080fd5b506101376101323660046116e0565b6102cd565b005b34801561014557600080fd5b5060975473ffffffffffffffffffffffffffffffffffffffff166100ed565b34801561017057600080fd5b5060c95461017e9060e01b81565b6040517fffffffff00000000000000000000000000000000000000000000000000000000909116815260200161010e565b3480156101bb57600080fd5b506101376101ca3660046116fd565b6104d7565b6101376101dd366004611765565b6106cf565b3480156101ee57600080fd5b506101f76108c5565b60405190815260200161010e565b34801561021157600080fd5b506101f77f60b96ff9fb5f29153c29c1747515b8be4ee523d686cc6f453ec294b0afa7293281565b34801561024557600080fd5b506101f77f055973dfb6d3b3cd890dde3a801f5427fa973864752b6d2a1ae61cbd5ae5dc0981565b34801561027957600080fd5b5061029d6102883660046116e0565b60ca6020526000908152604090205460ff1681565b604051901515815260200161010e565b3480156102b957600080fd5b506101376102c8366004611847565b6109b1565b73ffffffffffffffffffffffffffffffffffffffff7f0000000000000000000000000000000000000000000000000000000000000000163003610397576040517f08c379a000000000000000000000000000000000000000000000000000000000815260206004820152602c60248201527f46756e6374696f6e206d7573742062652063616c6c6564207468726f7567682060448201527f64656c656761746563616c6c000000000000000000000000000000000000000060648201526084015b60405180910390fd5b7f000000000000000000000000000000000000000000000000000000000000000073ffffffffffffffffffffffffffffffffffffffff1661040c7f360894a13ba1a3210667c828492db98dca3e2076cc3735a920a3ca505d382bbc5473ffffffffffffffffffffffffffffffffffffffff1690565b73ffffffffffffffffffffffffffffffffffffffff16146104af576040517f08c379a000000000000000000000000000000000000000000000000000000000815260206004820152602c60248201527f46756e6374696f6e206d7573742062652063616c6c6564207468726f7567682060448201527f6163746976652070726f78790000000000000000000000000000000000000000606482015260840161038e565b6104b881610b67565b604080516000808252602082019092526104d491839190610bad565b50565b600054610100900460ff16158080156104f75750600054600160ff909116105b806105115750303b158015610511575060005460ff166001145b61059d576040517f08c379a000000000000000000000000000000000000000000000000000000000815260206004820152602e60248201527f496e697469616c697a61626c653a20636f6e747261637420697320616c72656160448201527f647920696e697469616c697a6564000000000000000000000000000000000000606482015260840161038e565b600080547fffffffffffffffffffffffffffffffffffffffffffffffffffffffffffffff0016600117905580156105fb57600080547fffffffffffffffffffffffffffffffffffffffffffffffffffffffffffff00ff166101001790555b7fd4321b40000000000000000000000000000000000000000000000000000000006106268482610dac565b5060fb80547fffffffffffffffffffffffff00000000000000000000000000000000000000001673ffffffffffffffffffffffffffffffffffffffff841617905580156106ca57600080547fffffffffffffffffffffffffffffffffffffffffffffffffffffffffffff00ff169055604051600181527f7f26b83ff96e1f2b6a682f133852f6798a09c465da95921460cefb38474024989060200160405180910390a15b505050565b73ffffffffffffffffffffffffffffffffffffffff7f0000000000000000000000000000000000000000000000000000000000000000163003610794576040517f08c379a000000000000000000000000000000000000000000000000000000000815260206004820152602c60248201527f46756e6374696f6e206d7573742062652063616c6c6564207468726f7567682060448201527f64656c656761746563616c6c0000000000000000000000000000000000000000606482015260840161038e565b7f000000000000000000000000000000000000000000000000000000000000000073ffffffffffffffffffffffffffffffffffffffff166108097f360894a13ba1a3210667c828492db98dca3e2076cc3735a920a3ca505d382bbc5473ffffffffffffffffffffffffffffffffffffffff1690565b73ffffffffffffffffffffffffffffffffffffffff16146108ac576040517f08c379a000000000000000000000000000000000000000000000000000000000815260206004820152602c60248201527f46756e6374696f6e206d7573742062652063616c6c6564207468726f7567682060448201527f6163746976652070726f78790000000000000000000000000000000000000000606482015260840161038e565b6108b582610b67565b6108c182826001610bad565b5050565b60003073ffffffffffffffffffffffffffffffffffffffff7f0000000000000000000000000000000000000000000000000000000000000000161461098c576040517f08c379a000000000000000000000000000000000000000000000000000000000815260206004820152603860248201527f555550535570677261646561626c653a206d757374206e6f742062652063616c60448201527f6c6564207468726f7567682064656c656761746563616c6c0000000000000000606482015260840161038e565b507f360894a13ba1a3210667c828492db98dca3e2076cc3735a920a3ca505d382bbc90565b6097547f055973dfb6d3b3cd890dde3a801f5427fa973864752b6d2a1ae61cbd5ae5dc09906109fc9073ffffffffffffffffffffffffffffffffffffffff1630335b84600036610e81565b82610a33576040517feb59207700000000000000000000000000000000000000000000000000000000815260040160405180910390fd5b610a3d8484610f89565b610a775783836040517f5b7dee8300000000000000000000000000000000000000000000000000000000815260040161038e929190611913565b60008484604051610a89929190611927565b60405190819003812060fb547f89bb41450000000000000000000000000000000000000000000000000000000083526004830182905273ffffffffffffffffffffffffffffffffffffffff868116602485015291935016906389bb414590604401600060405180830381600087803b158015610b0457600080fd5b505af1158015610b18573d6000803e3d6000fd5b50505050610b2583611036565b7f8cc06643d6cbee78b006d2df2db4d2487b69dd64bb2c96088280fb29dd93a0b2858585604051610b5893929190611937565b60405180910390a15050505050565b6097547f60b96ff9fb5f29153c29c1747515b8be4ee523d686cc6f453ec294b0afa72932906108c19073ffffffffffffffffffffffffffffffffffffffff1630336109f3565b7f4910fdfa16fed3260ed0e7147f7cc6da11a60208b5b9406d12a635614ffd91435460ff1615610be0576106ca83611172565b8273ffffffffffffffffffffffffffffffffffffffff166352d1902d6040518163ffffffff1660e01b8152600401602060405180830381865afa925050508015610c65575060408051601f3d9081017fffffffffffffffffffffffffffffffffffffffffffffffffffffffffffffffe0168201909252610c6291810190611971565b60015b610cf1576040517f08c379a000000000000000000000000000000000000000000000000000000000815260206004820152602e60248201527f45524331393637557067726164653a206e657720696d706c656d656e7461746960448201527f6f6e206973206e6f742055555053000000000000000000000000000000000000606482015260840161038e565b7f360894a13ba1a3210667c828492db98dca3e2076cc3735a920a3ca505d382bbc8114610da0576040517f08c379a000000000000000000000000000000000000000000000000000000000815260206004820152602960248201527f45524331393637557067726164653a20756e737570706f727465642070726f7860448201527f6961626c65555549440000000000000000000000000000000000000000000000606482015260840161038e565b506106ca83838361127c565b600054610100900460ff16610e43576040517f08c379a000000000000000000000000000000000000000000000000000000000815260206004820152602b60248201527f496e697469616c697a61626c653a20636f6e7472616374206973206e6f74206960448201527f6e697469616c697a696e67000000000000000000000000000000000000000000606482015260840161038e565b610e4c826112a7565b60c980547fffffffffffffffffffffffffffffffffffffffffffffffffffffffff000000001660e09290921c91909117905550565b6040517ffdef910600000000000000000000000000000000000000000000000000000000815273ffffffffffffffffffffffffffffffffffffffff87169063fdef910690610edb908890889088908890889060040161198a565b602060405180830381865afa158015610ef8573d6000803e3d6000fd5b505050506040513d601f19601f82011682018060405250810190610f1c91906119ca565b610f81576040517f32dbe3b400000000000000000000000000000000000000000000000000000000815273ffffffffffffffffffffffffffffffffffffffff80881660048301528087166024830152851660448201526064810184905260840161038e565b505050505050565b6000828280835b81811015611027576000848483818110610fac57610fac6119ec565b919091013560f81c915050606081118015610fca5750607b8160ff16105b15610fd55750611015565b602f8160ff16118015610feb5750603a8160ff16105b15610ff65750611015565b8060ff16602d036110075750611015565b600095505050505050611030565b8061101f81611a1b565b915050610f90565b50600193505050505b92915050565b73ffffffffffffffffffffffffffffffffffffffff8116600090815260ca602052604090205460ff16156110ae576040517ffdcce17f00000000000000000000000000000000000000000000000000000000815273ffffffffffffffffffffffffffffffffffffffff8216600482015260240161038e565b60c9546110d59073ffffffffffffffffffffffffffffffffffffffff83169060e01b611385565b611123576040517f71023c8a00000000000000000000000000000000000000000000000000000000815273ffffffffffffffffffffffffffffffffffffffff8216600482015260240161038e565b73ffffffffffffffffffffffffffffffffffffffff16600090815260ca6020526040902080547fffffffffffffffffffffffffffffffffffffffffffffffffffffffffffffff00166001179055565b73ffffffffffffffffffffffffffffffffffffffff81163b611216576040517f08c379a000000000000000000000000000000000000000000000000000000000815260206004820152602d60248201527f455243313936373a206e657720696d706c656d656e746174696f6e206973206e60448201527f6f74206120636f6e747261637400000000000000000000000000000000000000606482015260840161038e565b7f360894a13ba1a3210667c828492db98dca3e2076cc3735a920a3ca505d382bbc80547fffffffffffffffffffffffff00000000000000000000000000000000000000001673ffffffffffffffffffffffffffffffffffffffff92909216919091179055565b611285836113a8565b6000825111806112925750805b156106ca576112a183836113f5565b50505050565b600054610100900460ff1661133e576040517f08c379a000000000000000000000000000000000000000000000000000000000815260206004820152602b60248201527f496e697469616c697a61626c653a20636f6e7472616374206973206e6f74206960448201527f6e697469616c697a696e67000000000000000000000000000000000000000000606482015260840161038e565b609780547fffffffffffffffffffffffff00000000000000000000000000000000000000001673ffffffffffffffffffffffffffffffffffffffff92909216919091179055565b60006113908361141a565b80156113a157506113a1838361147e565b9392505050565b6113b181611172565b60405173ffffffffffffffffffffffffffffffffffffffff8216907fbc7cd75a20ee27fd9adebab32041f755214dbc6bffa90cc0225b39da2e5c2d3b90600090a250565b60606113a18383604051806060016040528060278152602001611b0c6027913961154d565b6000611446827f01ffc9a70000000000000000000000000000000000000000000000000000000061147e565b80156110305750611477827fffffffff0000000000000000000000000000000000000000000000000000000061147e565b1592915050565b604080517fffffffff000000000000000000000000000000000000000000000000000000008316602480830191909152825180830390910181526044909101909152602080820180517bffffffffffffffffffffffffffffffffffffffffffffffffffffffff167f01ffc9a700000000000000000000000000000000000000000000000000000000178152825160009392849283928392918391908a617530fa92503d91506000519050828015611536575060208210155b80156115425750600081115b979650505050505050565b60606000808573ffffffffffffffffffffffffffffffffffffffff16856040516115779190611a9e565b600060405180830381855af49150503d80600081146115b2576040519150601f19603f3d011682016040523d82523d6000602084013e6115b7565b606091505b50915091506115c8868383876115d2565b9695505050505050565b606083156116685782516000036116615773ffffffffffffffffffffffffffffffffffffffff85163b611661576040517f08c379a000000000000000000000000000000000000000000000000000000000815260206004820152601d60248201527f416464726573733a2063616c6c20746f206e6f6e2d636f6e7472616374000000604482015260640161038e565b5081611672565b611672838361167a565b949350505050565b81511561168a5781518083602001fd5b806040517f08c379a000000000000000000000000000000000000000000000000000000000815260040161038e9190611aba565b73ffffffffffffffffffffffffffffffffffffffff811681146104d457600080fd5b6000602082840312156116f257600080fd5b81356113a1816116be565b6000806040838503121561171057600080fd5b823561171b816116be565b9150602083013561172b816116be565b809150509250929050565b7f4e487b7100000000000000000000000000000000000000000000000000000000600052604160045260246000fd5b6000806040838503121561177857600080fd5b8235611783816116be565b9150602083013567ffffffffffffffff808211156117a057600080fd5b818501915085601f8301126117b457600080fd5b8135818111156117c6576117c6611736565b604051601f82017fffffffffffffffffffffffffffffffffffffffffffffffffffffffffffffffe0908116603f0116810190838211818310171561180c5761180c611736565b8160405282815288602084870101111561182557600080fd5b8260208601602083013760006020848301015280955050505050509250929050565b60008060006040848603121561185c57600080fd5b833567ffffffffffffffff8082111561187457600080fd5b818601915086601f83011261188857600080fd5b81358181111561189757600080fd5b8760208285010111156118a957600080fd5b602092830195509350508401356118bf816116be565b809150509250925092565b8183528181602085013750600060208284010152600060207fffffffffffffffffffffffffffffffffffffffffffffffffffffffffffffffe0601f840116840101905092915050565b6020815260006116726020830184866118ca565b8183823760009101908152919050565b60408152600061194b6040830185876118ca565b905073ffffffffffffffffffffffffffffffffffffffff83166020830152949350505050565b60006020828403121561198357600080fd5b5051919050565b600073ffffffffffffffffffffffffffffffffffffffff8088168352808716602084015250846040830152608060608301526115426080830184866118ca565b6000602082840312156119dc57600080fd5b815180151581146113a157600080fd5b7f4e487b7100000000000000000000000000000000000000000000000000000000600052603260045260246000fd5b60007fffffffffffffffffffffffffffffffffffffffffffffffffffffffffffffffff8203611a73577f4e487b7100000000000000000000000000000000000000000000000000000000600052601160045260246000fd5b5060010190565b60005b83811015611a95578181015183820152602001611a7d565b50506000910152565b60008251611ab0818460208701611a7a565b9190910192915050565b6020815260008251806020840152611ad9816040850160208701611a7a565b601f017fffffffffffffffffffffffffffffffffffffffffffffffffffffffffffffffe016919091016040019291505056fe416464726573733a206c6f772d6c6576656c2064656c65676174652063616c6c206661696c6564a26469706673582212205037c122a8abd153e2cccfda56f5804b1f19e2f150d5770b3eb16ffd7c53dead64736f6c63430008110033"
}