{
  "address": "0x9227b311C5cecB416707F1C8B7Ca1b52649AabEc",
  "abi": [
    {
      "inputs": [
        {
          "internalType": "contract PluginRepoRegistry",
          "name": "_repoRegistry",
          "type": "address"
        }
      ],
      "stateMutability": "nonpayable",
      "type": "constructor"
    },
    {
      "inputs": [
        {
          "internalType": "address",
          "name": "plugin",
          "type": "address"
        }
      ],
      "name": "IPluginNotSupported",
      "type": "error"
    },
    {
      "inputs": [
        {
          "internalType": "bytes32",
          "name": "currentAppliedSetupId",
          "type": "bytes32"
        },
        {
          "internalType": "bytes32",
          "name": "appliedSetupId",
          "type": "bytes32"
        }
      ],
      "name": "InvalidAppliedSetupId",
      "type": "error"
    },
    {
      "inputs": [
        {
          "components": [
            {
              "internalType": "uint8",
              "name": "release",
              "type": "uint8"
            },
            {
              "internalType": "uint16",
              "name": "build",
              "type": "uint16"
            }
          ],
          "internalType": "struct PluginRepo.Tag",
          "name": "currentVersionTag",
          "type": "tuple"
        },
        {
          "components": [
            {
              "internalType": "uint8",
              "name": "release",
              "type": "uint8"
            },
            {
              "internalType": "uint16",
              "name": "build",
              "type": "uint16"
            }
          ],
          "internalType": "struct PluginRepo.Tag",
          "name": "newVersionTag",
          "type": "tuple"
        }
      ],
      "name": "InvalidUpdateVersion",
      "type": "error"
    },
    {
      "inputs": [],
      "name": "PluginAlreadyInstalled",
      "type": "error"
    },
    {
      "inputs": [
        {
          "internalType": "address",
          "name": "plugin",
          "type": "address"
        }
      ],
      "name": "PluginNonupgradeable",
      "type": "error"
    },
    {
      "inputs": [
        {
          "internalType": "address",
          "name": "proxy",
          "type": "address"
        },
        {
          "internalType": "address",
          "name": "implementation",
          "type": "address"
        },
        {
          "internalType": "bytes",
          "name": "initData",
          "type": "bytes"
        }
      ],
      "name": "PluginProxyUpgradeFailed",
      "type": "error"
    },
    {
      "inputs": [],
      "name": "PluginRepoNonexistent",
      "type": "error"
    },
    {
      "inputs": [
        {
          "internalType": "bytes32",
          "name": "preparedSetupId",
          "type": "bytes32"
        }
      ],
      "name": "SetupAlreadyPrepared",
      "type": "error"
    },
    {
      "inputs": [
        {
          "internalType": "address",
          "name": "dao",
          "type": "address"
        },
        {
          "internalType": "address",
          "name": "caller",
          "type": "address"
        },
        {
          "internalType": "bytes32",
          "name": "permissionId",
          "type": "bytes32"
        }
      ],
      "name": "SetupApplicationUnauthorized",
      "type": "error"
    },
    {
      "inputs": [
        {
          "internalType": "bytes32",
          "name": "preparedSetupId",
          "type": "bytes32"
        }
      ],
      "name": "SetupNotApplicable",
      "type": "error"
    },
    {
      "anonymous": false,
      "inputs": [
        {
          "indexed": true,
          "internalType": "address",
          "name": "dao",
          "type": "address"
        },
        {
          "indexed": true,
          "internalType": "address",
          "name": "plugin",
          "type": "address"
        },
        {
          "indexed": false,
          "internalType": "bytes32",
          "name": "preparedSetupId",
          "type": "bytes32"
        },
        {
          "indexed": false,
          "internalType": "bytes32",
          "name": "appliedSetupId",
          "type": "bytes32"
        }
      ],
      "name": "InstallationApplied",
      "type": "event"
    },
    {
      "anonymous": false,
      "inputs": [
        {
          "indexed": true,
          "internalType": "address",
          "name": "sender",
          "type": "address"
        },
        {
          "indexed": true,
          "internalType": "address",
          "name": "dao",
          "type": "address"
        },
        {
          "indexed": false,
          "internalType": "bytes32",
          "name": "preparedSetupId",
          "type": "bytes32"
        },
        {
          "indexed": true,
          "internalType": "contract PluginRepo",
          "name": "pluginSetupRepo",
          "type": "address"
        },
        {
          "components": [
            {
              "internalType": "uint8",
              "name": "release",
              "type": "uint8"
            },
            {
              "internalType": "uint16",
              "name": "build",
              "type": "uint16"
            }
          ],
          "indexed": false,
          "internalType": "struct PluginRepo.Tag",
          "name": "versionTag",
          "type": "tuple"
        },
        {
          "indexed": false,
          "internalType": "bytes",
          "name": "data",
          "type": "bytes"
        },
        {
          "indexed": false,
          "internalType": "address",
          "name": "plugin",
          "type": "address"
        },
        {
          "components": [
            {
              "internalType": "address[]",
              "name": "helpers",
              "type": "address[]"
            },
            {
              "components": [
                {
                  "internalType": "enum PermissionLib.Operation",
                  "name": "operation",
                  "type": "uint8"
                },
                {
                  "internalType": "address",
                  "name": "where",
                  "type": "address"
                },
                {
                  "internalType": "address",
                  "name": "who",
                  "type": "address"
                },
                {
                  "internalType": "address",
                  "name": "condition",
                  "type": "address"
                },
                {
                  "internalType": "bytes32",
                  "name": "permissionId",
                  "type": "bytes32"
                }
              ],
              "internalType": "struct PermissionLib.MultiTargetPermission[]",
              "name": "permissions",
              "type": "tuple[]"
            }
          ],
          "indexed": false,
          "internalType": "struct IPluginSetup.PreparedSetupData",
          "name": "preparedSetupData",
          "type": "tuple"
        }
      ],
      "name": "InstallationPrepared",
      "type": "event"
    },
    {
      "anonymous": false,
      "inputs": [
        {
          "indexed": true,
          "internalType": "address",
          "name": "dao",
          "type": "address"
        },
        {
          "indexed": true,
          "internalType": "address",
          "name": "plugin",
          "type": "address"
        },
        {
          "indexed": false,
          "internalType": "bytes32",
          "name": "preparedSetupId",
          "type": "bytes32"
        }
      ],
      "name": "UninstallationApplied",
      "type": "event"
    },
    {
      "anonymous": false,
      "inputs": [
        {
          "indexed": true,
          "internalType": "address",
          "name": "sender",
          "type": "address"
        },
        {
          "indexed": true,
          "internalType": "address",
          "name": "dao",
          "type": "address"
        },
        {
          "indexed": false,
          "internalType": "bytes32",
          "name": "preparedSetupId",
          "type": "bytes32"
        },
        {
          "indexed": true,
          "internalType": "contract PluginRepo",
          "name": "pluginSetupRepo",
          "type": "address"
        },
        {
          "components": [
            {
              "internalType": "uint8",
              "name": "release",
              "type": "uint8"
            },
            {
              "internalType": "uint16",
              "name": "build",
              "type": "uint16"
            }
          ],
          "indexed": false,
          "internalType": "struct PluginRepo.Tag",
          "name": "versionTag",
          "type": "tuple"
        },
        {
          "components": [
            {
              "internalType": "address",
              "name": "plugin",
              "type": "address"
            },
            {
              "internalType": "address[]",
              "name": "currentHelpers",
              "type": "address[]"
            },
            {
              "internalType": "bytes",
              "name": "data",
              "type": "bytes"
            }
          ],
          "indexed": false,
          "internalType": "struct IPluginSetup.SetupPayload",
          "name": "setupPayload",
          "type": "tuple"
        },
        {
          "components": [
            {
              "internalType": "enum PermissionLib.Operation",
              "name": "operation",
              "type": "uint8"
            },
            {
              "internalType": "address",
              "name": "where",
              "type": "address"
            },
            {
              "internalType": "address",
              "name": "who",
              "type": "address"
            },
            {
              "internalType": "address",
              "name": "condition",
              "type": "address"
            },
            {
              "internalType": "bytes32",
              "name": "permissionId",
              "type": "bytes32"
            }
          ],
          "indexed": false,
          "internalType": "struct PermissionLib.MultiTargetPermission[]",
          "name": "permissions",
          "type": "tuple[]"
        }
      ],
      "name": "UninstallationPrepared",
      "type": "event"
    },
    {
      "anonymous": false,
      "inputs": [
        {
          "indexed": true,
          "internalType": "address",
          "name": "dao",
          "type": "address"
        },
        {
          "indexed": true,
          "internalType": "address",
          "name": "plugin",
          "type": "address"
        },
        {
          "indexed": false,
          "internalType": "bytes32",
          "name": "preparedSetupId",
          "type": "bytes32"
        },
        {
          "indexed": false,
          "internalType": "bytes32",
          "name": "appliedSetupId",
          "type": "bytes32"
        }
      ],
      "name": "UpdateApplied",
      "type": "event"
    },
    {
      "anonymous": false,
      "inputs": [
        {
          "indexed": true,
          "internalType": "address",
          "name": "sender",
          "type": "address"
        },
        {
          "indexed": true,
          "internalType": "address",
          "name": "dao",
          "type": "address"
        },
        {
          "indexed": false,
          "internalType": "bytes32",
          "name": "preparedSetupId",
          "type": "bytes32"
        },
        {
          "indexed": true,
          "internalType": "contract PluginRepo",
          "name": "pluginSetupRepo",
          "type": "address"
        },
        {
          "components": [
            {
              "internalType": "uint8",
              "name": "release",
              "type": "uint8"
            },
            {
              "internalType": "uint16",
              "name": "build",
              "type": "uint16"
            }
          ],
          "indexed": false,
          "internalType": "struct PluginRepo.Tag",
          "name": "versionTag",
          "type": "tuple"
        },
        {
          "components": [
            {
              "internalType": "address",
              "name": "plugin",
              "type": "address"
            },
            {
              "internalType": "address[]",
              "name": "currentHelpers",
              "type": "address[]"
            },
            {
              "internalType": "bytes",
              "name": "data",
              "type": "bytes"
            }
          ],
          "indexed": false,
          "internalType": "struct IPluginSetup.SetupPayload",
          "name": "setupPayload",
          "type": "tuple"
        },
        {
          "components": [
            {
              "internalType": "address[]",
              "name": "helpers",
              "type": "address[]"
            },
            {
              "components": [
                {
                  "internalType": "enum PermissionLib.Operation",
                  "name": "operation",
                  "type": "uint8"
                },
                {
                  "internalType": "address",
                  "name": "where",
                  "type": "address"
                },
                {
                  "internalType": "address",
                  "name": "who",
                  "type": "address"
                },
                {
                  "internalType": "address",
                  "name": "condition",
                  "type": "address"
                },
                {
                  "internalType": "bytes32",
                  "name": "permissionId",
                  "type": "bytes32"
                }
              ],
              "internalType": "struct PermissionLib.MultiTargetPermission[]",
              "name": "permissions",
              "type": "tuple[]"
            }
          ],
          "indexed": false,
          "internalType": "struct IPluginSetup.PreparedSetupData",
          "name": "preparedSetupData",
          "type": "tuple"
        },
        {
          "indexed": false,
          "internalType": "bytes",
          "name": "initData",
          "type": "bytes"
        }
      ],
      "name": "UpdatePrepared",
      "type": "event"
    },
    {
      "inputs": [],
      "name": "APPLY_INSTALLATION_PERMISSION_ID",
      "outputs": [
        {
          "internalType": "bytes32",
          "name": "",
          "type": "bytes32"
        }
      ],
      "stateMutability": "view",
      "type": "function"
    },
    {
      "inputs": [],
      "name": "APPLY_UNINSTALLATION_PERMISSION_ID",
      "outputs": [
        {
          "internalType": "bytes32",
          "name": "",
          "type": "bytes32"
        }
      ],
      "stateMutability": "view",
      "type": "function"
    },
    {
      "inputs": [],
      "name": "APPLY_UPDATE_PERMISSION_ID",
      "outputs": [
        {
          "internalType": "bytes32",
          "name": "",
          "type": "bytes32"
        }
      ],
      "stateMutability": "view",
      "type": "function"
    },
    {
      "inputs": [
        {
          "internalType": "address",
          "name": "_dao",
          "type": "address"
        },
        {
          "components": [
            {
              "components": [
                {
                  "components": [
                    {
                      "internalType": "uint8",
                      "name": "release",
                      "type": "uint8"
                    },
                    {
                      "internalType": "uint16",
                      "name": "build",
                      "type": "uint16"
                    }
                  ],
                  "internalType": "struct PluginRepo.Tag",
                  "name": "versionTag",
                  "type": "tuple"
                },
                {
                  "internalType": "contract PluginRepo",
                  "name": "pluginSetupRepo",
                  "type": "address"
                }
              ],
              "internalType": "struct PluginSetupRef",
              "name": "pluginSetupRef",
              "type": "tuple"
            },
            {
              "internalType": "address",
              "name": "plugin",
              "type": "address"
            },
            {
              "components": [
                {
                  "internalType": "enum PermissionLib.Operation",
                  "name": "operation",
                  "type": "uint8"
                },
                {
                  "internalType": "address",
                  "name": "where",
                  "type": "address"
                },
                {
                  "internalType": "address",
                  "name": "who",
                  "type": "address"
                },
                {
                  "internalType": "address",
                  "name": "condition",
                  "type": "address"
                },
                {
                  "internalType": "bytes32",
                  "name": "permissionId",
                  "type": "bytes32"
                }
              ],
              "internalType": "struct PermissionLib.MultiTargetPermission[]",
              "name": "permissions",
              "type": "tuple[]"
            },
            {
              "internalType": "bytes32",
              "name": "helpersHash",
              "type": "bytes32"
            }
          ],
          "internalType": "struct PluginSetupProcessor.ApplyInstallationParams",
          "name": "_params",
          "type": "tuple"
        }
      ],
      "name": "applyInstallation",
      "outputs": [],
      "stateMutability": "nonpayable",
      "type": "function"
    },
    {
      "inputs": [
        {
          "internalType": "address",
          "name": "_dao",
          "type": "address"
        },
        {
          "components": [
            {
              "internalType": "address",
              "name": "plugin",
              "type": "address"
            },
            {
              "components": [
                {
                  "components": [
                    {
                      "internalType": "uint8",
                      "name": "release",
                      "type": "uint8"
                    },
                    {
                      "internalType": "uint16",
                      "name": "build",
                      "type": "uint16"
                    }
                  ],
                  "internalType": "struct PluginRepo.Tag",
                  "name": "versionTag",
                  "type": "tuple"
                },
                {
                  "internalType": "contract PluginRepo",
                  "name": "pluginSetupRepo",
                  "type": "address"
                }
              ],
              "internalType": "struct PluginSetupRef",
              "name": "pluginSetupRef",
              "type": "tuple"
            },
            {
              "components": [
                {
                  "internalType": "enum PermissionLib.Operation",
                  "name": "operation",
                  "type": "uint8"
                },
                {
                  "internalType": "address",
                  "name": "where",
                  "type": "address"
                },
                {
                  "internalType": "address",
                  "name": "who",
                  "type": "address"
                },
                {
                  "internalType": "address",
                  "name": "condition",
                  "type": "address"
                },
                {
                  "internalType": "bytes32",
                  "name": "permissionId",
                  "type": "bytes32"
                }
              ],
              "internalType": "struct PermissionLib.MultiTargetPermission[]",
              "name": "permissions",
              "type": "tuple[]"
            }
          ],
          "internalType": "struct PluginSetupProcessor.ApplyUninstallationParams",
          "name": "_params",
          "type": "tuple"
        }
      ],
      "name": "applyUninstallation",
      "outputs": [],
      "stateMutability": "nonpayable",
      "type": "function"
    },
    {
      "inputs": [
        {
          "internalType": "address",
          "name": "_dao",
          "type": "address"
        },
        {
          "components": [
            {
              "internalType": "address",
              "name": "plugin",
              "type": "address"
            },
            {
              "components": [
                {
                  "components": [
                    {
                      "internalType": "uint8",
                      "name": "release",
                      "type": "uint8"
                    },
                    {
                      "internalType": "uint16",
                      "name": "build",
                      "type": "uint16"
                    }
                  ],
                  "internalType": "struct PluginRepo.Tag",
                  "name": "versionTag",
                  "type": "tuple"
                },
                {
                  "internalType": "contract PluginRepo",
                  "name": "pluginSetupRepo",
                  "type": "address"
                }
              ],
              "internalType": "struct PluginSetupRef",
              "name": "pluginSetupRef",
              "type": "tuple"
            },
            {
              "internalType": "bytes",
              "name": "initData",
              "type": "bytes"
            },
            {
              "components": [
                {
                  "internalType": "enum PermissionLib.Operation",
                  "name": "operation",
                  "type": "uint8"
                },
                {
                  "internalType": "address",
                  "name": "where",
                  "type": "address"
                },
                {
                  "internalType": "address",
                  "name": "who",
                  "type": "address"
                },
                {
                  "internalType": "address",
                  "name": "condition",
                  "type": "address"
                },
                {
                  "internalType": "bytes32",
                  "name": "permissionId",
                  "type": "bytes32"
                }
              ],
              "internalType": "struct PermissionLib.MultiTargetPermission[]",
              "name": "permissions",
              "type": "tuple[]"
            },
            {
              "internalType": "bytes32",
              "name": "helpersHash",
              "type": "bytes32"
            }
          ],
          "internalType": "struct PluginSetupProcessor.ApplyUpdateParams",
          "name": "_params",
          "type": "tuple"
        }
      ],
      "name": "applyUpdate",
      "outputs": [],
      "stateMutability": "nonpayable",
      "type": "function"
    },
    {
      "inputs": [
        {
          "internalType": "address",
          "name": "_dao",
          "type": "address"
        },
        {
          "components": [
            {
              "components": [
                {
                  "components": [
                    {
                      "internalType": "uint8",
                      "name": "release",
                      "type": "uint8"
                    },
                    {
                      "internalType": "uint16",
                      "name": "build",
                      "type": "uint16"
                    }
                  ],
                  "internalType": "struct PluginRepo.Tag",
                  "name": "versionTag",
                  "type": "tuple"
                },
                {
                  "internalType": "contract PluginRepo",
                  "name": "pluginSetupRepo",
                  "type": "address"
                }
              ],
              "internalType": "struct PluginSetupRef",
              "name": "pluginSetupRef",
              "type": "tuple"
            },
            {
              "internalType": "bytes",
              "name": "data",
              "type": "bytes"
            }
          ],
          "internalType": "struct PluginSetupProcessor.PrepareInstallationParams",
          "name": "_params",
          "type": "tuple"
        }
      ],
      "name": "prepareInstallation",
      "outputs": [
        {
          "internalType": "address",
          "name": "plugin",
          "type": "address"
        },
        {
          "components": [
            {
              "internalType": "address[]",
              "name": "helpers",
              "type": "address[]"
            },
            {
              "components": [
                {
                  "internalType": "enum PermissionLib.Operation",
                  "name": "operation",
                  "type": "uint8"
                },
                {
                  "internalType": "address",
                  "name": "where",
                  "type": "address"
                },
                {
                  "internalType": "address",
                  "name": "who",
                  "type": "address"
                },
                {
                  "internalType": "address",
                  "name": "condition",
                  "type": "address"
                },
                {
                  "internalType": "bytes32",
                  "name": "permissionId",
                  "type": "bytes32"
                }
              ],
              "internalType": "struct PermissionLib.MultiTargetPermission[]",
              "name": "permissions",
              "type": "tuple[]"
            }
          ],
          "internalType": "struct IPluginSetup.PreparedSetupData",
          "name": "preparedSetupData",
          "type": "tuple"
        }
      ],
      "stateMutability": "nonpayable",
      "type": "function"
    },
    {
      "inputs": [
        {
          "internalType": "address",
          "name": "_dao",
          "type": "address"
        },
        {
          "components": [
            {
              "components": [
                {
                  "components": [
                    {
                      "internalType": "uint8",
                      "name": "release",
                      "type": "uint8"
                    },
                    {
                      "internalType": "uint16",
                      "name": "build",
                      "type": "uint16"
                    }
                  ],
                  "internalType": "struct PluginRepo.Tag",
                  "name": "versionTag",
                  "type": "tuple"
                },
                {
                  "internalType": "contract PluginRepo",
                  "name": "pluginSetupRepo",
                  "type": "address"
                }
              ],
              "internalType": "struct PluginSetupRef",
              "name": "pluginSetupRef",
              "type": "tuple"
            },
            {
              "components": [
                {
                  "internalType": "address",
                  "name": "plugin",
                  "type": "address"
                },
                {
                  "internalType": "address[]",
                  "name": "currentHelpers",
                  "type": "address[]"
                },
                {
                  "internalType": "bytes",
                  "name": "data",
                  "type": "bytes"
                }
              ],
              "internalType": "struct IPluginSetup.SetupPayload",
              "name": "setupPayload",
              "type": "tuple"
            }
          ],
          "internalType": "struct PluginSetupProcessor.PrepareUninstallationParams",
          "name": "_params",
          "type": "tuple"
        }
      ],
      "name": "prepareUninstallation",
      "outputs": [
        {
          "components": [
            {
              "internalType": "enum PermissionLib.Operation",
              "name": "operation",
              "type": "uint8"
            },
            {
              "internalType": "address",
              "name": "where",
              "type": "address"
            },
            {
              "internalType": "address",
              "name": "who",
              "type": "address"
            },
            {
              "internalType": "address",
              "name": "condition",
              "type": "address"
            },
            {
              "internalType": "bytes32",
              "name": "permissionId",
              "type": "bytes32"
            }
          ],
          "internalType": "struct PermissionLib.MultiTargetPermission[]",
          "name": "permissions",
          "type": "tuple[]"
        }
      ],
      "stateMutability": "nonpayable",
      "type": "function"
    },
    {
      "inputs": [
        {
          "internalType": "address",
          "name": "_dao",
          "type": "address"
        },
        {
          "components": [
            {
              "components": [
                {
                  "internalType": "uint8",
                  "name": "release",
                  "type": "uint8"
                },
                {
                  "internalType": "uint16",
                  "name": "build",
                  "type": "uint16"
                }
              ],
              "internalType": "struct PluginRepo.Tag",
              "name": "currentVersionTag",
              "type": "tuple"
            },
            {
              "components": [
                {
                  "internalType": "uint8",
                  "name": "release",
                  "type": "uint8"
                },
                {
                  "internalType": "uint16",
                  "name": "build",
                  "type": "uint16"
                }
              ],
              "internalType": "struct PluginRepo.Tag",
              "name": "newVersionTag",
              "type": "tuple"
            },
            {
              "internalType": "contract PluginRepo",
              "name": "pluginSetupRepo",
              "type": "address"
            },
            {
              "components": [
                {
                  "internalType": "address",
                  "name": "plugin",
                  "type": "address"
                },
                {
                  "internalType": "address[]",
                  "name": "currentHelpers",
                  "type": "address[]"
                },
                {
                  "internalType": "bytes",
                  "name": "data",
                  "type": "bytes"
                }
              ],
              "internalType": "struct IPluginSetup.SetupPayload",
              "name": "setupPayload",
              "type": "tuple"
            }
          ],
          "internalType": "struct PluginSetupProcessor.PrepareUpdateParams",
          "name": "_params",
          "type": "tuple"
        }
      ],
      "name": "prepareUpdate",
      "outputs": [
        {
          "internalType": "bytes",
          "name": "initData",
          "type": "bytes"
        },
        {
          "components": [
            {
              "internalType": "address[]",
              "name": "helpers",
              "type": "address[]"
            },
            {
              "components": [
                {
                  "internalType": "enum PermissionLib.Operation",
                  "name": "operation",
                  "type": "uint8"
                },
                {
                  "internalType": "address",
                  "name": "where",
                  "type": "address"
                },
                {
                  "internalType": "address",
                  "name": "who",
                  "type": "address"
                },
                {
                  "internalType": "address",
                  "name": "condition",
                  "type": "address"
                },
                {
                  "internalType": "bytes32",
                  "name": "permissionId",
                  "type": "bytes32"
                }
              ],
              "internalType": "struct PermissionLib.MultiTargetPermission[]",
              "name": "permissions",
              "type": "tuple[]"
            }
          ],
          "internalType": "struct IPluginSetup.PreparedSetupData",
          "name": "preparedSetupData",
          "type": "tuple"
        }
      ],
      "stateMutability": "nonpayable",
      "type": "function"
    },
    {
      "inputs": [],
      "name": "repoRegistry",
      "outputs": [
        {
          "internalType": "contract PluginRepoRegistry",
          "name": "",
          "type": "address"
        }
      ],
      "stateMutability": "view",
      "type": "function"
    },
    {
      "inputs": [
        {
          "internalType": "bytes32",
          "name": "",
          "type": "bytes32"
        }
      ],
      "name": "states",
      "outputs": [
        {
          "internalType": "uint256",
          "name": "blockNumber",
          "type": "uint256"
        },
        {
          "internalType": "bytes32",
          "name": "currentAppliedSetupId",
          "type": "bytes32"
        }
      ],
      "stateMutability": "view",
      "type": "function"
    },
    {
      "inputs": [
        {
          "internalType": "bytes32",
          "name": "pluginInstallationId",
          "type": "bytes32"
        },
        {
          "internalType": "bytes32",
          "name": "preparedSetupId",
          "type": "bytes32"
        }
      ],
      "name": "validatePreparedSetupId",
      "outputs": [],
      "stateMutability": "view",
      "type": "function"
    }
  ],
  "numDeployments": 1,
  "bytecode": "0x60806040523480156200001157600080fd5b50604051620034ff380380620034ff83398101604081905262000034916200005a565b600180546001600160a01b0319166001600160a01b03929092169190911790556200008c565b6000602082840312156200006d57600080fd5b81516001600160a01b03811681146200008557600080fd5b9392505050565b613463806200009c6000396000f3fe608060405234801561001057600080fd5b50600436106100d45760003560e01c80639665861a11610081578063fafc79da1161005b578063fafc79da14610234578063fbdc1ef114610247578063fe6c34741461028357600080fd5b80639665861a146101c5578063ca211f7f146101ec578063d75981221461021357600080fd5b8063483d209e116100b2578063483d209e14610138578063747e5ec11461017d578063851d11f8146101b257600080fd5b806322e12c63146100d95780632fb04336146100ee5780633c8c01d114610117575b600080fd5b6100ec6100e7366004612138565b610296565b005b6101016100fc3660046121a7565b610757565b60405161010e91906122d3565b60405180910390f35b61012a6101253660046121a7565b610b03565b60405161010e929190612386565b6001546101589073ffffffffffffffffffffffffffffffffffffffff1681565b60405173ffffffffffffffffffffffffffffffffffffffff909116815260200161010e565b6101a47ff796b89427c6552c1ac705d833bfb7909f8eb5ce502c1db97f85fabc6ad8354881565b60405190815260200161010e565b6100ec6101c03660046123bd565b610ee6565b6101a47fb03cf3d518f6d49560b7f5bece1ccb8fd50ea7370f02f5e5210edba04be3c4f781565b6101a47fbd4dbacf5ba6d9793f600403b3293d6ecd695fcc703a2b5edcf245f45fda6cfa81565b61022661022136600461241b565b6110ca565b60405161010e9291906124cf565b6100ec6102423660046124fd565b61187c565b61026e61025536600461251f565b6000602081905290815260409020805460019091015482565b6040805192835260208301919091520161010e565b6100ec61029136600461241b565b6118da565b817fb03cf3d518f6d49560b7f5bece1ccb8fd50ea7370f02f5e5210edba04be3c4f76102c28282611b43565b60006102da856102d56020870187612538565b611c6a565b60008181526020818152604082209293506103b6906103019036899003890190890161269d565b61036761031160a08a018a6126e1565b808060200260200160405190810160405280939291908181526020016000905b8282101561035d5761034e60a08302860136819003810190612755565b81526020019060010190610331565b5050505050611cba565b60c089013561037960808b018b6127e6565b8080601f01602080910402602001604051908101604052809392919081815260200183838082843760009201919091525060029250611cea915050565b90506103c2838261187c565b60006103e36103d936899003890160208a0161269d565b8860c00135611d32565b43845560018401819055905060006104016080890160608a01612538565b6040517f9af3e90900000000000000000000000000000000000000000000000000000000815273ffffffffffffffffffffffffffffffffffffffff9190911690639af3e909906104589060208c0190600401612878565b600060405180830381865afa158015610475573d6000803e3d6000fd5b505050506040513d6000823e601f3d9081017fffffffffffffffffffffffffffffffffffffffffffffffffffffffffffffffe01682016040526104bb919081019061291c565b905060006104cc60208a018a612538565b73ffffffffffffffffffffffffffffffffffffffff16635c60da1b6040518163ffffffff1660e01b8152600401602060405180830381865afa158015610516573d6000803e3d6000fd5b505050506040513d601f19601f8201168201806040525081019061053a91906129e6565b90506000826020015173ffffffffffffffffffffffffffffffffffffffff16635c60da1b6040518163ffffffff1660e01b8152600401602060405180830381865afa15801561058d573d6000803e3d6000fd5b505050506040513d601f19601f820116820180604052508101906105b191906129e6565b90508073ffffffffffffffffffffffffffffffffffffffff168273ffffffffffffffffffffffffffffffffffffffff161461063e5761063e6105f660208c018c612538565b8261060460808e018e6127e6565b8080601f016020809104026020016040519081016040528093929190818152602001838380828437600092019190915250611d8692505050565b600061064d60a08c018c6126e1565b905011156106ce5773ffffffffffffffffffffffffffffffffffffffff8b1663e978afe561067e60a08d018d6126e1565b6040518363ffffffff1660e01b815260040161069b929190612a03565b600060405180830381600087803b1580156106b557600080fd5b505af11580156106c9573d6000803e3d6000fd5b505050505b6106db60208b018b612538565b73ffffffffffffffffffffffffffffffffffffffff168b73ffffffffffffffffffffffffffffffffffffffff167f24565610ddf61ee73e8501d7f0454657c71f5944882f5c586d7246bf43e13cda8787604051610742929190918252602082015260400190565b60405180910390a35050505050505050505050565b606060006107798461076b85850186612ab3565b6102d5906020810190612538565b60008181526020819052604081209192506107f661079c3687900387018761269d565b6107f16107ac6060890189612ab3565b6107ba906020810190612af1565b80806020026020016040519081016040528093929190818152602001838360200280828437600092019190915250611f2992505050565b611d32565b90508082600101541461084a5760018201546040517f73a4eaa00000000000000000000000000000000000000000000000000000000081526004810191909152602481018290526044015b60405180910390fd5b600061085c6060870160408801612538565b6040517f9af3e90900000000000000000000000000000000000000000000000000000000815273ffffffffffffffffffffffffffffffffffffffff9190911690639af3e909906108b0908990600401612878565b600060405180830381865afa1580156108cd573d6000803e3d6000fd5b505050506040513d6000823e601f3d9081017fffffffffffffffffffffffffffffffffffffffffffffffffffffffffffffffe0168201604052610913919081019061291c565b602081015190915073ffffffffffffffffffffffffffffffffffffffff16639cb0a1248861094460608a018a612ab3565b6040518363ffffffff1660e01b8152600401610961929190612d04565b6000604051808303816000875af1158015610980573d6000803e3d6000fd5b505050506040513d6000823e601f3d9081017fffffffffffffffffffffffffffffffffffffffffffffffffffffffffffffffe01682016040526109c69190810190612e30565b94506000610a1d6109dc3689900389018961269d565b6109e588611cba565b6040805160208101909152600081527f290decd9548b62a8d60345a988386fc84ba6bc95484008f6362f93160ef3e563906003611cea565b600081815260028601602052604090205485549192501115610a6e576040517f2acda5b800000000000000000000000000000000000000000000000000000000815260048101829052602401610841565b600081815260028501602052604090819020439055610a939060608901908901612538565b73ffffffffffffffffffffffffffffffffffffffff908116908916337f5fdcd271ff15db84cbc94365956df5504f6d756e111654144648433c11a44530848b610adf6060820182612ab3565b8c604051610af09493929190612e65565b60405180910390a4505050505092915050565b6000610b22604051806040016040528060608152602001606081525090565b6000610b346060850160408601612538565b6001546040517ff29ee12500000000000000000000000000000000000000000000000000000000815273ffffffffffffffffffffffffffffffffffffffff808416600483015292935091169063f29ee12590602401602060405180830381865afa158015610ba6573d6000803e3d6000fd5b505050506040513d601f19601f82011682018060405250810190610bca9190612e9d565b610c00576040517f0d4feab400000000000000000000000000000000000000000000000000000000815260040160405180910390fd5b6040517f9af3e90900000000000000000000000000000000000000000000000000000000815260009073ffffffffffffffffffffffffffffffffffffffff831690639af3e90990610c55908890600401612878565b600060405180830381865afa158015610c72573d6000803e3d6000fd5b505050506040513d6000823e601f3d9081017fffffffffffffffffffffffffffffffffffffffffffffffffffffffffffffffe0168201604052610cb8919081019061291c565b602081015190915073ffffffffffffffffffffffffffffffffffffffff1663f10832f187610ce960608901896127e6565b6040518463ffffffff1660e01b8152600401610d0793929190612ebf565b6000604051808303816000875af1158015610d26573d6000803e3d6000fd5b505050506040513d6000823e601f3d9081017fffffffffffffffffffffffffffffffffffffffffffffffffffffffffffffffe0168201604052610d6c9190810190612fce565b90945092506000610d7d8786611c6a565b90506000610dc2610d933689900389018961269d565b610da08760200151611cba565b8751610dab90611f29565b604051806020016040528060008152506001611cea565b600083815260208190526040902060018101549192509015610e10576040517fd2e44eb600000000000000000000000000000000000000000000000000000000815260040160405180910390fd5b600082815260028201602052604090205481541015610e5e576040517f2acda5b800000000000000000000000000000000000000000000000000000000815260048101839052602401610841565b6000828152600282016020526040902043905573ffffffffffffffffffffffffffffffffffffffff808616908a16337f8ea69cee01fd9fc24e6b9614ea0896c5a1eac8fd8aba383285248cd0e1d8503a858c610ebd60608201826127e6565b8e8e604051610ed196959493929190613015565b60405180910390a450505050505b9250929050565b817fbd4dbacf5ba6d9793f600403b3293d6ecd695fcc703a2b5edcf245f45fda6cfa610f128282611b43565b6000610f25856102d56020870187612538565b6000818152602081815260408220929350610fa890610f4c9036899003890190890161269d565b6109e5610f5c60808a018a6126e1565b808060200260200160405190810160405280939291908181526020016000905b8282101561035d57610f9960a08302860136819003810190612755565b81526020019060010190610f7c565b9050610fb4838261187c565b438255600060018301819055610fcd60808801886126e1565b9050111561104e5773ffffffffffffffffffffffffffffffffffffffff871663e978afe5610ffe60808901896126e1565b6040518363ffffffff1660e01b815260040161101b929190612a03565b600060405180830381600087803b15801561103557600080fd5b505af1158015611049573d6000803e3d6000fd5b505050505b61105b6020870187612538565b73ffffffffffffffffffffffffffffffffffffffff168773ffffffffffffffffffffffffffffffffffffffff167fa0e5d4ce6420a0e7a5f0ac10c47b3a672fb661c11f5609bb21b68644d81e17aa836040516110b991815260200190565b60405180910390a350505050505050565b60606110e9604051806040016040528060608152602001606081525090565b6110f9606084016040850161306a565b60ff16611109602085018561306a565b60ff1614158061113f57506111246080840160608501613087565b61ffff166111386040850160208601613087565b61ffff1610155b1561117d57604080517f80d4e907000000000000000000000000000000000000000000000000000000008152610841918591908201906004016130a4565b60006111908561076b60a0870187612ab3565b60008181526020819052604081209192506111b16107ac60a0880188612ab3565b9050600061120a6040518060400160405280896000018036038101906111d791906130bf565b81526020016111ec60a08b0160808c01612538565b73ffffffffffffffffffffffffffffffffffffffff16905283611d32565b9050808360010154146112595760018301546040517f73a4eaa0000000000000000000000000000000000000000000000000000000008152600481019190915260248101829052604401610841565b600061126b60a0890160808a01612538565b6040517f9af3e90900000000000000000000000000000000000000000000000000000000815273ffffffffffffffffffffffffffffffffffffffff9190911690639af3e909906112bf908b90600401612878565b600060405180830381865afa1580156112dc573d6000803e3d6000fd5b505050506040513d6000823e601f3d9081017fffffffffffffffffffffffffffffffffffffffffffffffffffffffffffffffe0168201604052611322919081019061291c565b9050600061133660a08a0160808b01612538565b73ffffffffffffffffffffffffffffffffffffffff16639af3e9098a6040016040518263ffffffff1660e01b81526004016113719190612878565b600060405180830381865afa15801561138e573d6000803e3d6000fd5b505050506040513d6000823e601f3d9081017fffffffffffffffffffffffffffffffffffffffffffffffffffffffffffffffe01682016040526113d4919081019061291c565b90506000816020015173ffffffffffffffffffffffffffffffffffffffff16836020015173ffffffffffffffffffffffffffffffffffffffff16036114f25761149c60405180604001604052808c60400180360381019061143591906130bf565b815260200161144a60a08e0160808f01612538565b73ffffffffffffffffffffffffffffffffffffffff1690526040805160208101909152600081527f569e75fc77c1a856f6daaf9e69d8a9566ca34aa47f9133711ce065a571af0cfd9088906002611cea565b90506114ab60a08b018b612ab3565b6114b9906020810190612af1565b80806020026020016040519081016040528093929190818152602001838360200280828437600092019190915250505090895250611800565b61154d7f41de68300000000000000000000000000000000000000000000000000000000061152360a08d018d612ab3565b611531906020810190612538565b73ffffffffffffffffffffffffffffffffffffffff1690611f3c565b6115b75761155e60a08b018b612ab3565b61156c906020810190612538565b6040517f8174ff5500000000000000000000000000000000000000000000000000000000815273ffffffffffffffffffffffffffffffffffffffff9091166004820152602401610841565b60006115c660a08c018c612ab3565b6115d4906020810190612538565b73ffffffffffffffffffffffffffffffffffffffff166341de68306040518163ffffffff1660e01b8152600401602060405180830381865afa15801561161e573d6000803e3d6000fd5b505050506040513d601f19601f8201168201806040525081019061164291906130db565b6002811115611653576116536121f7565b146116be5761166560a08b018b612ab3565b611673906020810190612538565b6040517fe4356c9400000000000000000000000000000000000000000000000000000000815273ffffffffffffffffffffffffffffffffffffffff9091166004820152602401610841565b816020015173ffffffffffffffffffffffffffffffffffffffff1663a8a9c29e8c8c60000160200160208101906116f59190613087565b61170260a08f018f612ab3565b6040518463ffffffff1660e01b8152600401611720939291906130f8565b6000604051808303816000875af115801561173f573d6000803e3d6000fd5b505050506040513d6000823e601f3d9081017fffffffffffffffffffffffffffffffffffffffffffffffffffffffffffffffe01682016040526117859190810190613131565b809950819a5050506117fd60405180604001604052808c6040018036038101906117af91906130bf565b81526020016117c460a08e0160808f01612538565b73ffffffffffffffffffffffffffffffffffffffff168152506117ea8a60200151611cba565b8a516117f590611f29565b8c6002611cea565b90505b60008181526002870160205260409020548654101561184e576040517f2acda5b800000000000000000000000000000000000000000000000000000000815260048101829052602401610841565b6000818152600287016020526040902043905561186e8b828c8b8d611f5f565b505050505050509250929050565b60008281526020818152604080832084845260028101909252909120548154106118d5576040517f59730ce600000000000000000000000000000000000000000000000000000000815260048101839052602401610841565b505050565b817ff796b89427c6552c1ac705d833bfb7909f8eb5ce502c1db97f85fabc6ad835486119068282611b43565b600061191c856102d56080870160608801612538565b60008181526020819052604081209192506119b761193f3688900388018861269d565b61199b61194f60808a018a6126e1565b808060200260200160405190810160405280939291908181526020016000905b8282101561035d5761198c60a08302860136819003810190612755565b8152602001906001019061196f565b8860a00135604051806020016040528060008152506001611cea565b6001830154909150156119f6576040517fd2e44eb600000000000000000000000000000000000000000000000000000000815260040160405180910390fd5b611a00838261187c565b6000611a1e611a143689900389018961269d565b8860a00135611d32565b6001840181905543845590506000611a3960808901896126e1565b90501115611aba5773ffffffffffffffffffffffffffffffffffffffff881663e978afe5611a6a60808a018a6126e1565b6040518363ffffffff1660e01b8152600401611a87929190612a03565b600060405180830381600087803b158015611aa157600080fd5b505af1158015611ab5573d6000803e3d6000fd5b505050505b611aca6080880160608901612538565b73ffffffffffffffffffffffffffffffffffffffff168873ffffffffffffffffffffffffffffffffffffffff167f74e616c7264536b98a5ec234d051ae6ce1305bf05c85f9ddc112364440ccf1298484604051611b31929190918252602082015260400190565b60405180910390a35050505050505050565b3373ffffffffffffffffffffffffffffffffffffffff831614801590611c0a5750604080516020810182526000815290517ffdef910600000000000000000000000000000000000000000000000000000000815273ffffffffffffffffffffffffffffffffffffffff84169163fdef910691611bc79130913391879160040161318b565b602060405180830381865afa158015611be4573d6000803e3d6000fd5b505050506040513d601f19601f82011682018060405250810190611c089190612e9d565b155b15611c66576040517f15d68ee000000000000000000000000000000000000000000000000000000000815273ffffffffffffffffffffffffffffffffffffffff8316600482015233602482015260448101829052606401610841565b5050565b6040805173ffffffffffffffffffffffffffffffffffffffff80851660208301528316918101919091526000906060015b6040516020818303038152906040528051906020012090505b92915050565b600081604051602001611ccd91906122d3565b604051602081830303815290604052805190602001209050919050565b8451602080870151845185830120604051600094611d11949093928a928a928991016131d4565b60405160208183030381529060405280519060200120905095945050505050565b815160208084015160408051845160ff1681850152929093015161ffff169282019290925273ffffffffffffffffffffffffffffffffffffffff90911660608201526080810182905260009060a001611c9b565b805115611ed5576040517f4f1ef28600000000000000000000000000000000000000000000000000000000815273ffffffffffffffffffffffffffffffffffffffff841690634f1ef28690611de1908590859060040161323c565b600060405180830381600087803b158015611dfb57600080fd5b505af1925050508015611e0c575060015b6118d557611e1861326b565b806308c379a003611e6b5750611e2c613287565b80611e375750611e6d565b806040517f08c379a0000000000000000000000000000000000000000000000000000000008152600401610841919061332f565b505b3d808015611e97576040519150601f19603f3d011682016040523d82523d6000602084013e611e9c565b606091505b508383836040517f96e9e31b00000000000000000000000000000000000000000000000000000000815260040161084193929190613342565b6040517f3659cfe600000000000000000000000000000000000000000000000000000000815273ffffffffffffffffffffffffffffffffffffffff8381166004830152841690633659cfe690602401611de1565b600081604051602001611ccd919061337b565b6000611f4783611fe0565b8015611f585750611f588383612044565b9392505050565b611f6f60a0840160808501612538565b73ffffffffffffffffffffffffffffffffffffffff908116908616337f3686138d92841c8549b2fe39fda23881fef6aa9b347352114c0869bf5af3e3f28760408801611fbe60a08a018a612ab3565b8888604051611fd19594939291906133d5565b60405180910390a45050505050565b600061200c827f01ffc9a700000000000000000000000000000000000000000000000000000000612044565b8015611cb4575061203d827fffffffff00000000000000000000000000000000000000000000000000000000612044565b1592915050565b604080517fffffffff000000000000000000000000000000000000000000000000000000008316602480830191909152825180830390910181526044909101909152602080820180517bffffffffffffffffffffffffffffffffffffffffffffffffffffffff167f01ffc9a700000000000000000000000000000000000000000000000000000000178152825160009392849283928392918391908a617530fa92503d915060005190508280156120fc575060208210155b80156121085750600081115b979650505050505050565b73ffffffffffffffffffffffffffffffffffffffff8116811461213557600080fd5b50565b6000806040838503121561214b57600080fd5b823561215681612113565b9150602083013567ffffffffffffffff81111561217257600080fd5b830160e0818603121561218457600080fd5b809150509250929050565b6000608082840312156121a157600080fd5b50919050565b600080604083850312156121ba57600080fd5b82356121c581612113565b9150602083013567ffffffffffffffff8111156121e157600080fd5b6121ed8582860161218f565b9150509250929050565b7f4e487b7100000000000000000000000000000000000000000000000000000000600052602160045260246000fd5b60038110612236576122366121f7565b9052565b612245828251612226565b60208181015173ffffffffffffffffffffffffffffffffffffffff90811691840191909152604080830151821690840152606080830151909116908301526080908101519082015260a00190565b600081518084526020808501945080840160005b838110156122c8576122ba87835161223a565b9650908201906001016122a7565b509495945050505050565b602081526000611f586020830184612293565b805160408084528151908401819052600091602091908201906060860190845b8181101561233857835173ffffffffffffffffffffffffffffffffffffffff1683529284019291840191600101612306565b50508483015186820387850152805180835290840192506000918401905b8083101561237b5761236982855161223a565b91508484019350600183019250612356565b509695505050505050565b73ffffffffffffffffffffffffffffffffffffffff831681526040602082015260006123b560408301846122e6565b949350505050565b600080604083850312156123d057600080fd5b82356123db81612113565b9150602083013567ffffffffffffffff8111156123f757600080fd5b830160a0818603121561218457600080fd5b600060c082840312156121a157600080fd5b6000806040838503121561242e57600080fd5b823561243981612113565b9150602083013567ffffffffffffffff81111561245557600080fd5b6121ed85828601612409565b60005b8381101561247c578181015183820152602001612464565b50506000910152565b6000815180845261249d816020860160208601612461565b601f017fffffffffffffffffffffffffffffffffffffffffffffffffffffffffffffffe0169290920160200192915050565b6040815260006124e26040830185612485565b82810360208401526124f481856122e6565b95945050505050565b6000806040838503121561251057600080fd5b50508035926020909101359150565b60006020828403121561253157600080fd5b5035919050565b60006020828403121561254a57600080fd5b8135611f5881612113565b7f4e487b7100000000000000000000000000000000000000000000000000000000600052604160045260246000fd5b6040810181811067ffffffffffffffff821117156125a4576125a4612555565b60405250565b6060810181811067ffffffffffffffff821117156125a4576125a4612555565b60a0810181811067ffffffffffffffff821117156125a4576125a4612555565b7fffffffffffffffffffffffffffffffffffffffffffffffffffffffffffffffe0601f830116810181811067ffffffffffffffff8211171561262e5761262e612555565b6040525050565b60ff8116811461213557600080fd5b61ffff8116811461213557600080fd5b60006040828403121561266657600080fd5b60405161267281612584565b809150823561268081612635565b8152602083013561269081612644565b6020919091015292915050565b6000606082840312156126af57600080fd5b6040516126bb81612584565b6126c58484612654565b815260408301356126d581612113565b60208201529392505050565b60008083357fffffffffffffffffffffffffffffffffffffffffffffffffffffffffffffffe184360301811261271657600080fd5b83018035915067ffffffffffffffff82111561273157600080fd5b602001915060a081023603821315610edf57600080fd5b6003811061213557600080fd5b600060a0828403121561276757600080fd5b60405160a0810181811067ffffffffffffffff8211171561278a5761278a612555565b604052823561279881612748565b815260208301356127a881612113565b602082015260408301356127bb81612113565b604082015260608301356127ce81612113565b60608201526080928301359281019290925250919050565b60008083357fffffffffffffffffffffffffffffffffffffffffffffffffffffffffffffffe184360301811261281b57600080fd5b83018035915067ffffffffffffffff82111561283657600080fd5b602001915036819003821315610edf57600080fd5b803561285681612635565b60ff168252602081013561286981612644565b61ffff81166020840152505050565b60408101611cb4828461284b565b805161289181612113565b919050565b600082601f8301126128a757600080fd5b815167ffffffffffffffff8111156128c1576128c1612555565b6040516128f660207fffffffffffffffffffffffffffffffffffffffffffffffffffffffffffffffe0601f85011601826125ea565b81815284602083860101111561290b57600080fd5b6123b5826020830160208701612461565b60006020828403121561292e57600080fd5b815167ffffffffffffffff8082111561294657600080fd5b90830190818503608081121561295b57600080fd5b604051612967816125aa565b604082121561297557600080fd5b604051915061298382612584565b835161298e81612635565b8252602084015161299e81612644565b60208301528181526129b260408501612886565b602082015260608401519150828211156129cb57600080fd5b6129d787838601612896565b60408201529695505050505050565b6000602082840312156129f857600080fd5b8151611f5881612113565b6020808252818101839052600090604080840186845b87811015612aa6578135612a2c81612748565b612a368482612226565b5084820135612a4481612113565b73ffffffffffffffffffffffffffffffffffffffff908116848701528285013590612a6e82612113565b9081168486015260609083820135612a8581612113565b16908401526080828101359084015260a09283019290910190600101612a19565b5090979650505050505050565b600082357fffffffffffffffffffffffffffffffffffffffffffffffffffffffffffffffa1833603018112612ae757600080fd5b9190910192915050565b60008083357fffffffffffffffffffffffffffffffffffffffffffffffffffffffffffffffe1843603018112612b2657600080fd5b83018035915067ffffffffffffffff821115612b4157600080fd5b6020019150600581901b3603821315610edf57600080fd5b60008083357fffffffffffffffffffffffffffffffffffffffffffffffffffffffffffffffe1843603018112612b8e57600080fd5b830160208101925035905067ffffffffffffffff811115612bae57600080fd5b803603821315610edf57600080fd5b8183528181602085013750600060208284010152600060207fffffffffffffffffffffffffffffffffffffffffffffffffffffffffffffffe0601f840116840101905092915050565b6000606083018235612c1781612113565b73ffffffffffffffffffffffffffffffffffffffff808216865260209150818501357fffffffffffffffffffffffffffffffffffffffffffffffffffffffffffffffe1863603018112612c6957600080fd5b8501828101903567ffffffffffffffff811115612c8557600080fd5b8060051b3603821315612c9757600080fd5b6060888501529384905292600090608088015b81831015612cd3578535612cbd81612113565b8416815294840194600192909201918401612caa565b612ce06040890189612b59565b9650945088810360408a0152612cf7818787612bbd565b9998505050505050505050565b73ffffffffffffffffffffffffffffffffffffffff831681526040602082015260006123b56040830184612c06565b600067ffffffffffffffff821115612d4d57612d4d612555565b5060051b60200190565b600082601f830112612d6857600080fd5b81516020612d7582612d33565b60408051612d8383826125ea565b84815260a09485028701840194848201935088861115612da257600080fd5b8488015b86811015612e225781818b031215612dbe5760008081fd5b8351612dc9816125ca565b8151612dd481612748565b815281870151612de381612113565b8188015281850151612df481612113565b81860152606082810151612e0781612113565b90820152608082810151908201528552938501938101612da6565b509098975050505050505050565b600060208284031215612e4257600080fd5b815167ffffffffffffffff811115612e5957600080fd5b6123b584828501612d57565b848152612e75602082018561284b565b60a060608201526000612e8b60a0830185612c06565b82810360808401526121088185612293565b600060208284031215612eaf57600080fd5b81518015158114611f5857600080fd5b73ffffffffffffffffffffffffffffffffffffffff841681526040602082015260006124f4604083018486612bbd565b600060408284031215612f0157600080fd5b604051612f0d81612584565b809150825167ffffffffffffffff80821115612f2857600080fd5b818501915085601f830112612f3c57600080fd5b81516020612f4982612d33565b604051612f5682826125ea565b83815260059390931b8501820192828101915089841115612f7657600080fd5b948201945b83861015612f9d578551612f8e81612113565b82529482019490820190612f7b565b86525086810151935082841115612fb357600080fd5b612fbf88858901612d57565b81860152505050505092915050565b60008060408385031215612fe157600080fd5b8251612fec81612113565b602084015190925067ffffffffffffffff81111561300957600080fd5b6121ed85828601612eef565b868152613025602082018761284b565b60c06060820152600061303c60c083018688612bbd565b73ffffffffffffffffffffffffffffffffffffffff8516608084015282810360a0840152612cf781856122e6565b60006020828403121561307c57600080fd5b8135611f5881612635565b60006020828403121561309957600080fd5b8135611f5881612644565b608081016130b2828561284b565b611f58604083018461284b565b6000604082840312156130d157600080fd5b611f588383612654565b6000602082840312156130ed57600080fd5b8151611f5881612748565b73ffffffffffffffffffffffffffffffffffffffff8416815261ffff831660208201526060604082015260006124f46060830184612c06565b6000806040838503121561314457600080fd5b825167ffffffffffffffff8082111561315c57600080fd5b61316886838701612896565b9350602085015191508082111561317e57600080fd5b506121ed85828601612eef565b600073ffffffffffffffffffffffffffffffffffffffff8087168352808616602084015250836040830152608060608301526131ca6080830184612485565b9695505050505050565b865160ff16815260208088015161ffff169082015260e0810173ffffffffffffffffffffffffffffffffffffffff871660408301528560608301528460808301528360a08301526004831061322b5761322b6121f7565b8260c0830152979650505050505050565b73ffffffffffffffffffffffffffffffffffffffff831681526040602082015260006123b56040830184612485565b600060033d11156132845760046000803e5060005160e01c5b90565b600060443d10156132955790565b6040517ffffffffffffffffffffffffffffffffffffffffffffffffffffffffffffffffc803d016004833e81513d67ffffffffffffffff81602484011181841117156132e357505050505090565b82850191508151818111156132fb5750505050505090565b843d87010160208285010111156133155750505050505090565b613324602082860101876125ea565b509095945050505050565b602081526000611f586020830184612485565b600073ffffffffffffffffffffffffffffffffffffffff8086168352808516602084015250606060408301526124f46060830184612485565b6020808252825182820181905260009190848201906040850190845b818110156133c957835173ffffffffffffffffffffffffffffffffffffffff1683529284019291840191600101613397565b50909695505050505050565b8581526133e5602082018661284b565b60c0606082015260006133fb60c0830186612c06565b828103608084015261340d81866122e6565b905082810360a08401526134218185612485565b9897505050505050505056fea26469706673582212201fb975b0a49aedaa9953246acabdcc14a27fbff183fd027b2257e058b710edb064736f6c63430008110033"
}