{
  "address": "0xc796bB1AfEBc56daDF6CAcD2aDa78055e5381971",
  "abi": [
    {
      "inputs": [],
      "stateMutability": "nonpayable",
      "type": "constructor"
    },
    {
      "inputs": [
        {
          "internalType": "address",
          "name": "registrant",
          "type": "address"
        }
      ],
      "name": "ContractAlreadyRegistered",
      "type": "error"
    },
    {
      "inputs": [
        {
          "internalType": "address",
          "name": "registrant",
          "type": "address"
        }
      ],
      "name": "ContractERC165SupportInvalid",
      "type": "error"
    },
    {
      "inputs": [
        {
          "internalType": "address",
          "name": "registrant",
          "type": "address"
        }
      ],
      "name": "ContractInterfaceInvalid",
      "type": "error"
    },
    {
      "inputs": [
        {
          "internalType": "address",
          "name": "dao",
          "type": "address"
        },
        {
          "internalType": "address",
          "name": "where",
          "type": "address"
        },
        {
          "internalType": "address",
          "name": "who",
          "type": "address"
        },
        {
          "internalType": "bytes32",
          "name": "permissionId",
          "type": "bytes32"
        }
      ],
      "name": "DaoUnauthorized",
      "type": "error"
    },
    {
      "inputs": [],
      "name": "EmptyPluginRepoSubdomain",
      "type": "error"
    },
    {
      "inputs": [
        {
          "internalType": "string",
          "name": "subdomain",
          "type": "string"
        }
      ],
      "name": "InvalidPluginSubdomain",
      "type": "error"
    },
    {
      "anonymous": false,
      "inputs": [
        {
          "indexed": false,
          "internalType": "address",
          "name": "previousAdmin",
          "type": "address"
        },
        {
          "indexed": false,
          "internalType": "address",
          "name": "newAdmin",
          "type": "address"
        }
      ],
      "name": "AdminChanged",
      "type": "event"
    },
    {
      "anonymous": false,
      "inputs": [
        {
          "indexed": true,
          "internalType": "address",
          "name": "beacon",
          "type": "address"
        }
      ],
      "name": "BeaconUpgraded",
      "type": "event"
    },
    {
      "anonymous": false,
      "inputs": [
        {
          "indexed": false,
          "internalType": "uint8",
          "name": "version",
          "type": "uint8"
        }
      ],
      "name": "Initialized",
      "type": "event"
    },
    {
      "anonymous": false,
      "inputs": [
        {
          "indexed": false,
          "internalType": "string",
          "name": "subdomain",
          "type": "string"
        },
        {
          "indexed": false,
          "internalType": "address",
          "name": "pluginRepo",
          "type": "address"
        }
      ],
      "name": "PluginRepoRegistered",
      "type": "event"
    },
    {
      "anonymous": false,
      "inputs": [
        {
          "indexed": true,
          "internalType": "address",
          "name": "implementation",
          "type": "address"
        }
      ],
      "name": "Upgraded",
      "type": "event"
    },
    {
      "inputs": [],
      "name": "REGISTER_PLUGIN_REPO_PERMISSION_ID",
      "outputs": [
        {
          "internalType": "bytes32",
          "name": "",
          "type": "bytes32"
        }
      ],
      "stateMutability": "view",
      "type": "function"
    },
    {
      "inputs": [],
      "name": "UPGRADE_REGISTRY_PERMISSION_ID",
      "outputs": [
        {
          "internalType": "bytes32",
          "name": "",
          "type": "bytes32"
        }
      ],
      "stateMutability": "view",
      "type": "function"
    },
    {
      "inputs": [],
      "name": "dao",
      "outputs": [
        {
          "internalType": "contract IDAO",
          "name": "",
          "type": "address"
        }
      ],
      "stateMutability": "view",
      "type": "function"
    },
    {
      "inputs": [
        {
          "internalType": "address",
          "name": "",
          "type": "address"
        }
      ],
      "name": "entries",
      "outputs": [
        {
          "internalType": "bool",
          "name": "",
          "type": "bool"
        }
      ],
      "stateMutability": "view",
      "type": "function"
    },
    {
      "inputs": [
        {
          "internalType": "contract IDAO",
          "name": "_dao",
          "type": "address"
        },
        {
          "internalType": "contract ENSSubdomainRegistrar",
          "name": "_subdomainRegistrar",
          "type": "address"
        }
      ],
      "name": "initialize",
      "outputs": [],
      "stateMutability": "nonpayable",
      "type": "function"
    },
    {
      "inputs": [],
      "name": "proxiableUUID",
      "outputs": [
        {
          "internalType": "bytes32",
          "name": "",
          "type": "bytes32"
        }
      ],
      "stateMutability": "view",
      "type": "function"
    },
    {
      "inputs": [
        {
          "internalType": "string",
          "name": "subdomain",
          "type": "string"
        },
        {
          "internalType": "address",
          "name": "pluginRepo",
          "type": "address"
        }
      ],
      "name": "registerPluginRepo",
      "outputs": [],
      "stateMutability": "nonpayable",
      "type": "function"
    },
    {
      "inputs": [],
      "name": "subdomainRegistrar",
      "outputs": [
        {
          "internalType": "contract ENSSubdomainRegistrar",
          "name": "",
          "type": "address"
        }
      ],
      "stateMutability": "view",
      "type": "function"
    },
    {
      "inputs": [],
      "name": "targetInterfaceId",
      "outputs": [
        {
          "internalType": "bytes4",
          "name": "",
          "type": "bytes4"
        }
      ],
      "stateMutability": "view",
      "type": "function"
    },
    {
      "inputs": [
        {
          "internalType": "address",
          "name": "newImplementation",
          "type": "address"
        }
      ],
      "name": "upgradeTo",
      "outputs": [],
      "stateMutability": "nonpayable",
      "type": "function"
    },
    {
      "inputs": [
        {
          "internalType": "address",
          "name": "newImplementation",
          "type": "address"
        },
        {
          "internalType": "bytes",
          "name": "data",
          "type": "bytes"
        }
      ],
      "name": "upgradeToAndCall",
      "outputs": [],
      "stateMutability": "payable",
      "type": "function"
    }
  ],
  "numDeployments": 1,
  "bytecode": "0x60a06040523060805234801561001457600080fd5b5061001d610022565b6100e1565b600054610100900460ff161561008e5760405162461bcd60e51b815260206004820152602760248201527f496e697469616c697a61626c653a20636f6e747261637420697320696e697469604482015266616c697a696e6760c81b606482015260840160405180910390fd5b60005460ff908116146100df576000805460ff191660ff9081179091556040519081527f7f26b83ff96e1f2b6a682f133852f6798a09c465da95921460cefb38474024989060200160405180910390a15b565b60805161139c61011860003960008181610278015281816102c101528181610499015281816104d9015261056c015261139c6000f3fe60806040526004361061009b5760003560e01c80634f1ef286116100645780634f1ef2861461017057806352d1902d1461018357806374574eb7146101a6578063ce091c86146101da578063f29ee1251461020e578063fdb9df551461024e57600080fd5b8062077393146100a05780633659cfe6146100dd5780634162169f146100ff57806344162ef81461011d578063485cc95514610150575b600080fd5b3480156100ac57600080fd5b5060fb546100c0906001600160a01b031681565b6040516001600160a01b0390911681526020015b60405180910390f35b3480156100e957600080fd5b506100fd6100f8366004610ef1565b61026e565b005b34801561010b57600080fd5b506097546001600160a01b03166100c0565b34801561012957600080fd5b5060c9546101379060e01b81565b6040516001600160e01b031990911681526020016100d4565b34801561015c57600080fd5b506100fd61016b366004610f0e565b610356565b6100fd61017e366004610f5d565b61048f565b34801561018f57600080fd5b5061019861055f565b6040519081526020016100d4565b3480156101b257600080fd5b506101987f60b96ff9fb5f29153c29c1747515b8be4ee523d686cc6f453ec294b0afa7293281565b3480156101e657600080fd5b506101987f055973dfb6d3b3cd890dde3a801f5427fa973864752b6d2a1ae61cbd5ae5dc0981565b34801561021a57600080fd5b5061023e610229366004610ef1565b60ca6020526000908152604090205460ff1681565b60405190151581526020016100d4565b34801561025a57600080fd5b506100fd610269366004611021565b610612565b6001600160a01b037f00000000000000000000000000000000000000000000000000000000000000001630036102bf5760405162461bcd60e51b81526004016102b6906110a4565b60405180910390fd5b7f00000000000000000000000000000000000000000000000000000000000000006001600160a01b0316610308600080516020611320833981519152546001600160a01b031690565b6001600160a01b03161461032e5760405162461bcd60e51b81526004016102b6906110f0565b61033781610763565b604080516000808252602082019092526103539183919061079c565b50565b600054610100900460ff16158080156103765750600054600160ff909116105b806103905750303b158015610390575060005460ff166001145b6103f35760405162461bcd60e51b815260206004820152602e60248201527f496e697469616c697a61626c653a20636f6e747261637420697320616c72656160448201526d191e481a5b9a5d1a585b1a5e995960921b60648201526084016102b6565b6000805460ff191660011790558015610416576000805461ff0019166101001790555b630350c86d60e61b6104288482610907565b5060fb80546001600160a01b0319166001600160a01b038416179055801561048a576000805461ff0019169055604051600181527f7f26b83ff96e1f2b6a682f133852f6798a09c465da95921460cefb38474024989060200160405180910390a15b505050565b6001600160a01b037f00000000000000000000000000000000000000000000000000000000000000001630036104d75760405162461bcd60e51b81526004016102b6906110a4565b7f00000000000000000000000000000000000000000000000000000000000000006001600160a01b0316610520600080516020611320833981519152546001600160a01b031690565b6001600160a01b0316146105465760405162461bcd60e51b81526004016102b6906110f0565b61054f82610763565b61055b8282600161079c565b5050565b6000306001600160a01b037f000000000000000000000000000000000000000000000000000000000000000016146105ff5760405162461bcd60e51b815260206004820152603860248201527f555550535570677261646561626c653a206d757374206e6f742062652063616c60448201527f6c6564207468726f7567682064656c656761746563616c6c000000000000000060648201526084016102b6565b5060008051602061132083398151915290565b6097547f055973dfb6d3b3cd890dde3a801f5427fa973864752b6d2a1ae61cbd5ae5dc0990610650906001600160a01b031630335b84600036610951565b8261066e5760405163eb59207760e01b815260040160405180910390fd5b6106788484610a0d565b610699578383604051635b7dee8360e01b81526004016102b6929190611165565b600084846040516106ab929190611179565b60405190819003812060fb546389bb414560e01b8352600483018290526001600160a01b03868116602485015291935016906389bb414590604401600060405180830381600087803b15801561070057600080fd5b505af1158015610714573d6000803e3d6000fd5b5050505061072183610aba565b7f8cc06643d6cbee78b006d2df2db4d2487b69dd64bb2c96088280fb29dd93a0b285858560405161075493929190611189565b60405180910390a15050505050565b6097547f60b96ff9fb5f29153c29c1747515b8be4ee523d686cc6f453ec294b0afa729329061055b906001600160a01b03163033610647565b7f4910fdfa16fed3260ed0e7147f7cc6da11a60208b5b9406d12a635614ffd91435460ff16156107cf5761048a83610b65565b826001600160a01b03166352d1902d6040518163ffffffff1660e01b8152600401602060405180830381865afa925050508015610829575060408051601f3d908101601f19168201909252610826918101906111b5565b60015b61088c5760405162461bcd60e51b815260206004820152602e60248201527f45524331393637557067726164653a206e657720696d706c656d656e7461746960448201526d6f6e206973206e6f74205555505360901b60648201526084016102b6565b60008051602061132083398151915281146108fb5760405162461bcd60e51b815260206004820152602960248201527f45524331393637557067726164653a20756e737570706f727465642070726f786044820152681a58589b195555525160ba1b60648201526084016102b6565b5061048a838383610c01565b600054610100900460ff1661092e5760405162461bcd60e51b81526004016102b6906111ce565b61093782610c2c565b60c9805463ffffffff191660e09290921c91909117905550565b604051637ef7c88360e11b81526001600160a01b0387169063fdef9106906109859088908890889088908890600401611219565b602060405180830381865afa1580156109a2573d6000803e3d6000fd5b505050506040513d601f19601f820116820180604052508101906109c6919061124d565b610a0557604051630cb6f8ed60e21b81526001600160a01b038088166004830152808716602483015285166044820152606481018490526084016102b6565b505050505050565b6000828280835b81811015610aab576000848483818110610a3057610a3061126f565b919091013560f81c915050606081118015610a4e5750607b8160ff16105b15610a595750610a99565b602f8160ff16118015610a6f5750603a8160ff16105b15610a7a5750610a99565b8060ff16602d03610a8b5750610a99565b600095505050505050610ab4565b80610aa381611285565b915050610a14565b50600193505050505b92915050565b6001600160a01b038116600090815260ca602052604090205460ff1615610aff5760405163fdcce17f60e01b81526001600160a01b03821660048201526024016102b6565b60c954610b19906001600160a01b0383169060e01b610c75565b610b41576040516338811e4560e11b81526001600160a01b03821660048201526024016102b6565b6001600160a01b0316600090815260ca60205260409020805460ff19166001179055565b6001600160a01b0381163b610bd25760405162461bcd60e51b815260206004820152602d60248201527f455243313936373a206e657720696d706c656d656e746174696f6e206973206e60448201526c1bdd08184818dbdb9d1c9858dd609a1b60648201526084016102b6565b60008051602061132083398151915280546001600160a01b0319166001600160a01b0392909216919091179055565b610c0a83610c98565b600082511180610c175750805b1561048a57610c268383610cd8565b50505050565b600054610100900460ff16610c535760405162461bcd60e51b81526004016102b6906111ce565b609780546001600160a01b0319166001600160a01b0392909216919091179055565b6000610c8083610cfd565b8015610c915750610c918383610d30565b9392505050565b610ca181610b65565b6040516001600160a01b038216907fbc7cd75a20ee27fd9adebab32041f755214dbc6bffa90cc0225b39da2e5c2d3b90600090a250565b6060610c91838360405180606001604052806027815260200161134060279139610db9565b6000610d10826301ffc9a760e01b610d30565b8015610ab45750610d29826001600160e01b0319610d30565b1592915050565b604080516001600160e01b03198316602480830191909152825180830390910181526044909101909152602080820180516001600160e01b03166301ffc9a760e01b178152825160009392849283928392918391908a617530fa92503d91506000519050828015610da2575060208210155b8015610dae5750600081115b979650505050505050565b6060600080856001600160a01b031685604051610dd691906112d0565b600060405180830381855af49150503d8060008114610e11576040519150601f19603f3d011682016040523d82523d6000602084013e610e16565b606091505b5091509150610e2786838387610e31565b9695505050505050565b60608315610ea0578251600003610e99576001600160a01b0385163b610e995760405162461bcd60e51b815260206004820152601d60248201527f416464726573733a2063616c6c20746f206e6f6e2d636f6e747261637400000060448201526064016102b6565b5081610eaa565b610eaa8383610eb2565b949350505050565b815115610ec25781518083602001fd5b8060405162461bcd60e51b81526004016102b691906112ec565b6001600160a01b038116811461035357600080fd5b600060208284031215610f0357600080fd5b8135610c9181610edc565b60008060408385031215610f2157600080fd5b8235610f2c81610edc565b91506020830135610f3c81610edc565b809150509250929050565b634e487b7160e01b600052604160045260246000fd5b60008060408385031215610f7057600080fd5b8235610f7b81610edc565b9150602083013567ffffffffffffffff80821115610f9857600080fd5b818501915085601f830112610fac57600080fd5b813581811115610fbe57610fbe610f47565b604051601f8201601f19908116603f01168101908382118183101715610fe657610fe6610f47565b81604052828152886020848701011115610fff57600080fd5b8260208601602083013760006020848301015280955050505050509250929050565b60008060006040848603121561103657600080fd5b833567ffffffffffffffff8082111561104e57600080fd5b818601915086601f83011261106257600080fd5b81358181111561107157600080fd5b87602082850101111561108357600080fd5b6020928301955093505084013561109981610edc565b809150509250925092565b6020808252602c908201527f46756e6374696f6e206d7573742062652063616c6c6564207468726f7567682060408201526b19195b1959d85d1958d85b1b60a21b606082015260800190565b6020808252602c908201527f46756e6374696f6e206d7573742062652063616c6c6564207468726f7567682060408201526b6163746976652070726f787960a01b606082015260800190565b81835281816020850137506000828201602090810191909152601f909101601f19169091010190565b602081526000610eaa60208301848661113c565b8183823760009101908152919050565b60408152600061119d60408301858761113c565b905060018060a01b0383166020830152949350505050565b6000602082840312156111c757600080fd5b5051919050565b6020808252602b908201527f496e697469616c697a61626c653a20636f6e7472616374206973206e6f74206960408201526a6e697469616c697a696e6760a81b606082015260800190565b6001600160a01b0386811682528516602082015260408101849052608060608201819052600090610dae908301848661113c565b60006020828403121561125f57600080fd5b81518015158114610c9157600080fd5b634e487b7160e01b600052603260045260246000fd5b6000600182016112a557634e487b7160e01b600052601160045260246000fd5b5060010190565b60005b838110156112c75781810151838201526020016112af565b50506000910152565b600082516112e28184602087016112ac565b9190910192915050565b602081526000825180602084015261130b8160408501602087016112ac565b601f01601f1916919091016040019291505056fe360894a13ba1a3210667c828492db98dca3e2076cc3735a920a3ca505d382bbc416464726573733a206c6f772d6c6576656c2064656c65676174652063616c6c206661696c6564a2646970667358221220982c5d4762799aa3deb746fd1a79b189317549484a946293ff9162a1bbbdfb3b64736f6c63430008110033"
}