{
  "address": "0x56EBA30A7Aa8655215C20ffA1983910B9F5a8a77",
  "abi": [
    {
      "inputs": [],
      "stateMutability": "nonpayable",
      "type": "constructor"
    },
    {
      "inputs": [],
      "name": "ApplicationDoesNotExist",
      "type": "error"
    },
    {
      "inputs": [],
      "name": "ApplicationNotAccepted",
      "type": "error"
    },
    {
      "inputs": [],
      "name": "NotExecutor",
      "type": "error"
    },
    {
      "inputs": [],
      "name": "NotManager",
      "type": "error"
    },
    {
      "inputs": [],
      "name": "NotYourApplication",
      "type": "error"
    },
    {
      "inputs": [],
      "name": "RequestAlreadyAccepted",
      "type": "error"
    },
    {
      "inputs": [],
      "name": "RequestAlreadyExecuted",
      "type": "error"
    },
    {
      "inputs": [],
      "name": "RequestDoesNotExist",
      "type": "error"
    },
    {
      "inputs": [],
      "name": "RequestNotAccepted",
      "type": "error"
    },
    {
      "inputs": [],
      "name": "RewardAboveBudget",
      "type": "error"
    },
    {
      "inputs": [],
      "name": "SubmissionAlreadyJudged",
      "type": "error"
    },
    {
      "inputs": [],
      "name": "SubmissionDoesNotExist",
      "type": "error"
    },
    {
      "inputs": [],
      "name": "TaskClosed",
      "type": "error"
    },
    {
      "inputs": [],
      "name": "TaskDoesNotExist",
      "type": "error"
    },
    {
      "inputs": [],
      "name": "TaskNotClosed",
      "type": "error"
    },
    {
      "inputs": [],
      "name": "TaskNotOpen",
      "type": "error"
    },
    {
      "inputs": [],
      "name": "TaskNotTaken",
      "type": "error"
    },
    {
      "anonymous": false,
      "inputs": [
        {
          "indexed": false,
          "internalType": "uint256",
          "name": "taskId",
          "type": "uint256"
        },
        {
          "indexed": false,
          "internalType": "uint16",
          "name": "applicationId",
          "type": "uint16"
        },
        {
          "indexed": false,
          "internalType": "address",
          "name": "manager",
          "type": "address"
        },
        {
          "indexed": false,
          "internalType": "address",
          "name": "applicant",
          "type": "address"
        }
      ],
      "name": "ApplicationAccepted",
      "type": "event"
    },
    {
      "anonymous": false,
      "inputs": [
        {
          "indexed": false,
          "internalType": "uint256",
          "name": "taskId",
          "type": "uint256"
        },
        {
          "indexed": false,
          "internalType": "uint16",
          "name": "applicationId",
          "type": "uint16"
        },
        {
          "indexed": false,
          "internalType": "string",
          "name": "metadata",
          "type": "string"
        },
        {
          "components": [
            {
              "internalType": "bool",
              "name": "nextToken",
              "type": "bool"
            },
            {
              "internalType": "address",
              "name": "to",
              "type": "address"
            },
            {
              "internalType": "uint88",
              "name": "amount",
              "type": "uint88"
            }
          ],
          "indexed": false,
          "internalType": "struct ITasks.Reward[]",
          "name": "reward",
          "type": "tuple[]"
        },
        {
          "indexed": false,
          "internalType": "address",
          "name": "manager",
          "type": "address"
        },
        {
          "indexed": false,
          "internalType": "address",
          "name": "applicant",
          "type": "address"
        }
      ],
      "name": "ApplicationCreated",
      "type": "event"
    },
    {
      "anonymous": false,
      "inputs": [
        {
          "indexed": false,
          "internalType": "uint256",
          "name": "taskId",
          "type": "uint256"
        },
        {
          "indexed": false,
          "internalType": "uint96[]",
          "name": "increase",
          "type": "uint96[]"
        },
        {
          "indexed": false,
          "internalType": "address",
          "name": "manager",
          "type": "address"
        }
      ],
      "name": "BudgetIncreased",
      "type": "event"
    },
    {
      "anonymous": false,
      "inputs": [
        {
          "indexed": false,
          "internalType": "uint256",
          "name": "taskId",
          "type": "uint256"
        },
        {
          "indexed": false,
          "internalType": "uint8",
          "name": "requestId",
          "type": "uint8"
        },
        {
          "indexed": false,
          "internalType": "string",
          "name": "explanation",
          "type": "string"
        },
        {
          "indexed": false,
          "internalType": "address",
          "name": "manager",
          "type": "address"
        },
        {
          "indexed": false,
          "internalType": "address",
          "name": "executor",
          "type": "address"
        }
      ],
      "name": "CancelTaskRequested",
      "type": "event"
    },
    {
      "anonymous": false,
      "inputs": [
        {
          "indexed": false,
          "internalType": "uint256",
          "name": "taskId",
          "type": "uint256"
        },
        {
          "indexed": false,
          "internalType": "uint64",
          "name": "extension",
          "type": "uint64"
        },
        {
          "indexed": false,
          "internalType": "address",
          "name": "manager",
          "type": "address"
        },
        {
          "indexed": false,
          "internalType": "address",
          "name": "executor",
          "type": "address"
        }
      ],
      "name": "DeadlineExtended",
      "type": "event"
    },
    {
      "anonymous": false,
      "inputs": [
        {
          "indexed": false,
          "internalType": "uint256",
          "name": "taskId",
          "type": "uint256"
        },
        {
          "indexed": false,
          "internalType": "string",
          "name": "newMetadata",
          "type": "string"
        },
        {
          "indexed": false,
          "internalType": "address",
          "name": "manager",
          "type": "address"
        }
      ],
      "name": "MetadataEditted",
      "type": "event"
    },
    {
      "anonymous": false,
      "inputs": [
        {
          "indexed": false,
          "internalType": "uint256",
          "name": "taskId",
          "type": "uint256"
        },
        {
          "indexed": false,
          "internalType": "enum ITasks.RequestType",
          "name": "requestType",
          "type": "uint8"
        },
        {
          "indexed": false,
          "internalType": "uint8",
          "name": "requestId",
          "type": "uint8"
        },
        {
          "indexed": false,
          "internalType": "address",
          "name": "manager",
          "type": "address"
        },
        {
          "indexed": false,
          "internalType": "address",
          "name": "executor",
          "type": "address"
        }
      ],
      "name": "RequestAccepted",
      "type": "event"
    },
    {
      "anonymous": false,
      "inputs": [
        {
          "indexed": false,
          "internalType": "uint256",
          "name": "taskId",
          "type": "uint256"
        },
        {
          "indexed": false,
          "internalType": "enum ITasks.RequestType",
          "name": "requestType",
          "type": "uint8"
        },
        {
          "indexed": false,
          "internalType": "uint8",
          "name": "requestId",
          "type": "uint8"
        },
        {
          "indexed": false,
          "internalType": "address",
          "name": "by",
          "type": "address"
        },
        {
          "indexed": false,
          "internalType": "address",
          "name": "manager",
          "type": "address"
        },
        {
          "indexed": false,
          "internalType": "address",
          "name": "executor",
          "type": "address"
        }
      ],
      "name": "RequestExecuted",
      "type": "event"
    },
    {
      "anonymous": false,
      "inputs": [
        {
          "indexed": false,
          "internalType": "uint256",
          "name": "taskId",
          "type": "uint256"
        },
        {
          "indexed": false,
          "internalType": "uint8",
          "name": "submissionId",
          "type": "uint8"
        },
        {
          "indexed": false,
          "internalType": "string",
          "name": "metadata",
          "type": "string"
        },
        {
          "indexed": false,
          "internalType": "address",
          "name": "manager",
          "type": "address"
        },
        {
          "indexed": false,
          "internalType": "address",
          "name": "executor",
          "type": "address"
        }
      ],
      "name": "SubmissionCreated",
      "type": "event"
    },
    {
      "anonymous": false,
      "inputs": [
        {
          "indexed": false,
          "internalType": "uint256",
          "name": "taskId",
          "type": "uint256"
        },
        {
          "indexed": false,
          "internalType": "uint8",
          "name": "submissionId",
          "type": "uint8"
        },
        {
          "indexed": false,
          "internalType": "enum ITasks.SubmissionJudgement",
          "name": "judgement",
          "type": "uint8"
        },
        {
          "indexed": false,
          "internalType": "string",
          "name": "feedback",
          "type": "string"
        },
        {
          "indexed": false,
          "internalType": "address",
          "name": "manager",
          "type": "address"
        },
        {
          "indexed": false,
          "internalType": "address",
          "name": "executor",
          "type": "address"
        }
      ],
      "name": "SubmissionReviewed",
      "type": "event"
    },
    {
      "anonymous": false,
      "inputs": [
        {
          "indexed": false,
          "internalType": "uint256",
          "name": "taskId",
          "type": "uint256"
        },
        {
          "indexed": false,
          "internalType": "address",
          "name": "manager",
          "type": "address"
        },
        {
          "indexed": false,
          "internalType": "address",
          "name": "executor",
          "type": "address"
        }
      ],
      "name": "TaskCancelled",
      "type": "event"
    },
    {
      "anonymous": false,
      "inputs": [
        {
          "indexed": false,
          "internalType": "uint256",
          "name": "taskId",
          "type": "uint256"
        },
        {
          "indexed": false,
          "internalType": "address",
          "name": "manager",
          "type": "address"
        },
        {
          "indexed": false,
          "internalType": "address",
          "name": "executor",
          "type": "address"
        }
      ],
      "name": "TaskCompleted",
      "type": "event"
    },
    {
      "anonymous": false,
      "inputs": [
        {
          "indexed": false,
          "internalType": "uint256",
          "name": "taskId",
          "type": "uint256"
        },
        {
          "indexed": false,
          "internalType": "string",
          "name": "metadata",
          "type": "string"
        },
        {
          "indexed": false,
          "internalType": "uint64",
          "name": "deadline",
          "type": "uint64"
        },
        {
          "components": [
            {
              "internalType": "contract IERC20",
              "name": "tokenContract",
              "type": "address"
            },
            {
              "internalType": "uint96",
              "name": "amount",
              "type": "uint96"
            }
          ],
          "indexed": false,
          "internalType": "struct ITasks.ERC20Transfer[]",
          "name": "budget",
          "type": "tuple[]"
        },
        {
          "indexed": false,
          "internalType": "address",
          "name": "creator",
          "type": "address"
        },
        {
          "indexed": false,
          "internalType": "address",
          "name": "manager",
          "type": "address"
        },
        {
          "components": [
            {
              "internalType": "address",
              "name": "applicant",
              "type": "address"
            },
            {
              "components": [
                {
                  "internalType": "bool",
                  "name": "nextToken",
                  "type": "bool"
                },
                {
                  "internalType": "address",
                  "name": "to",
                  "type": "address"
                },
                {
                  "internalType": "uint88",
                  "name": "amount",
                  "type": "uint88"
                }
              ],
              "internalType": "struct ITasks.Reward[]",
              "name": "reward",
              "type": "tuple[]"
            }
          ],
          "indexed": false,
          "internalType": "struct ITasks.PreapprovedApplication[]",
          "name": "preapproved",
          "type": "tuple[]"
        }
      ],
      "name": "TaskCreated",
      "type": "event"
    },
    {
      "anonymous": false,
      "inputs": [
        {
          "indexed": false,
          "internalType": "uint256",
          "name": "taskId",
          "type": "uint256"
        },
        {
          "indexed": false,
          "internalType": "uint16",
          "name": "applicationId",
          "type": "uint16"
        },
        {
          "indexed": false,
          "internalType": "address",
          "name": "manager",
          "type": "address"
        },
        {
          "indexed": false,
          "internalType": "address",
          "name": "executor",
          "type": "address"
        }
      ],
      "name": "TaskTaken",
      "type": "event"
    },
    {
      "inputs": [
        {
          "internalType": "uint256",
          "name": "_taskId",
          "type": "uint256"
        },
        {
          "internalType": "uint16[]",
          "name": "_applicationIds",
          "type": "uint16[]"
        }
      ],
      "name": "acceptApplications",
      "outputs": [],
      "stateMutability": "nonpayable",
      "type": "function"
    },
    {
      "inputs": [
        {
          "internalType": "uint256",
          "name": "_taskId",
          "type": "uint256"
        },
        {
          "internalType": "enum ITasks.RequestType",
          "name": "_requestType",
          "type": "uint8"
        },
        {
          "internalType": "uint8",
          "name": "_requestId",
          "type": "uint8"
        },
        {
          "internalType": "bool",
          "name": "_execute",
          "type": "bool"
        }
      ],
      "name": "acceptRequest",
      "outputs": [],
      "stateMutability": "nonpayable",
      "type": "function"
    },
    {
      "inputs": [
        {
          "internalType": "uint256",
          "name": "_taskId",
          "type": "uint256"
        },
        {
          "internalType": "string",
          "name": "_metadata",
          "type": "string"
        },
        {
          "components": [
            {
              "internalType": "bool",
              "name": "nextToken",
              "type": "bool"
            },
            {
              "internalType": "address",
              "name": "to",
              "type": "address"
            },
            {
              "internalType": "uint88",
              "name": "amount",
              "type": "uint88"
            }
          ],
          "internalType": "struct ITasks.Reward[]",
          "name": "_reward",
          "type": "tuple[]"
        }
      ],
      "name": "applyForTask",
      "outputs": [
        {
          "internalType": "uint16",
          "name": "applicationId",
          "type": "uint16"
        }
      ],
      "stateMutability": "nonpayable",
      "type": "function"
    },
    {
      "inputs": [
        {
          "internalType": "uint256",
          "name": "_taskId",
          "type": "uint256"
        },
        {
          "internalType": "string",
          "name": "_explanation",
          "type": "string"
        }
      ],
      "name": "cancelTask",
      "outputs": [
        {
          "internalType": "uint8",
          "name": "cancelTaskRequestId",
          "type": "uint8"
        }
      ],
      "stateMutability": "nonpayable",
      "type": "function"
    },
    {
      "inputs": [
        {
          "internalType": "uint256",
          "name": "_taskId",
          "type": "uint256"
        },
        {
          "internalType": "string",
          "name": "_metadata",
          "type": "string"
        }
      ],
      "name": "createSubmission",
      "outputs": [
        {
          "internalType": "uint8",
          "name": "submissionId",
          "type": "uint8"
        }
      ],
      "stateMutability": "nonpayable",
      "type": "function"
    },
    {
      "inputs": [
        {
          "internalType": "string",
          "name": "_metadata",
          "type": "string"
        },
        {
          "internalType": "uint64",
          "name": "_deadline",
          "type": "uint64"
        },
        {
          "components": [
            {
              "internalType": "contract IERC20",
              "name": "tokenContract",
              "type": "address"
            },
            {
              "internalType": "uint96",
              "name": "amount",
              "type": "uint96"
            }
          ],
          "internalType": "struct ITasks.ERC20Transfer[]",
          "name": "_budget",
          "type": "tuple[]"
        },
        {
          "internalType": "address",
          "name": "_manager",
          "type": "address"
        },
        {
          "components": [
            {
              "internalType": "address",
              "name": "applicant",
              "type": "address"
            },
            {
              "components": [
                {
                  "internalType": "bool",
                  "name": "nextToken",
                  "type": "bool"
                },
                {
                  "internalType": "address",
                  "name": "to",
                  "type": "address"
                },
                {
                  "internalType": "uint88",
                  "name": "amount",
                  "type": "uint88"
                }
              ],
              "internalType": "struct ITasks.Reward[]",
              "name": "reward",
              "type": "tuple[]"
            }
          ],
          "internalType": "struct ITasks.PreapprovedApplication[]",
          "name": "_preapprove",
          "type": "tuple[]"
        }
      ],
      "name": "createTask",
      "outputs": [
        {
          "internalType": "uint256",
          "name": "taskId",
          "type": "uint256"
        }
      ],
      "stateMutability": "nonpayable",
      "type": "function"
    },
    {
      "inputs": [
        {
          "internalType": "uint256",
          "name": "_taskId",
          "type": "uint256"
        },
        {
          "internalType": "string",
          "name": "_newMetadata",
          "type": "string"
        }
      ],
      "name": "editMetadata",
      "outputs": [],
      "stateMutability": "nonpayable",
      "type": "function"
    },
    {
      "inputs": [
        {
          "internalType": "uint256",
          "name": "_taskId",
          "type": "uint256"
        },
        {
          "internalType": "enum ITasks.RequestType",
          "name": "_requestType",
          "type": "uint8"
        },
        {
          "internalType": "uint8",
          "name": "_requestId",
          "type": "uint8"
        }
      ],
      "name": "executeRequest",
      "outputs": [],
      "stateMutability": "nonpayable",
      "type": "function"
    },
    {
      "inputs": [
        {
          "internalType": "uint256",
          "name": "_taskId",
          "type": "uint256"
        },
        {
          "internalType": "uint64",
          "name": "_extension",
          "type": "uint64"
        }
      ],
      "name": "extendDeadline",
      "outputs": [],
      "stateMutability": "nonpayable",
      "type": "function"
    },
    {
      "inputs": [
        {
          "internalType": "address",
          "name": "_executor",
          "type": "address"
        },
        {
          "internalType": "uint256",
          "name": "_fromTaskId",
          "type": "uint256"
        },
        {
          "internalType": "uint256",
          "name": "_max",
          "type": "uint256"
        }
      ],
      "name": "getExecutingTasks",
      "outputs": [
        {
          "components": [
            {
              "internalType": "string",
              "name": "metadata",
              "type": "string"
            },
            {
              "internalType": "uint64",
              "name": "deadline",
              "type": "uint64"
            },
            {
              "internalType": "uint16",
              "name": "executorApplication",
              "type": "uint16"
            },
            {
              "internalType": "address",
              "name": "creator",
              "type": "address"
            },
            {
              "internalType": "address",
              "name": "manager",
              "type": "address"
            },
            {
              "internalType": "enum ITasks.TaskState",
              "name": "state",
              "type": "uint8"
            },
            {
              "internalType": "contract Escrow",
              "name": "escrow",
              "type": "address"
            },
            {
              "components": [
                {
                  "internalType": "contract IERC20",
                  "name": "tokenContract",
                  "type": "address"
                },
                {
                  "internalType": "uint96",
                  "name": "amount",
                  "type": "uint96"
                }
              ],
              "internalType": "struct ITasks.ERC20Transfer[]",
              "name": "budget",
              "type": "tuple[]"
            },
            {
              "components": [
                {
                  "internalType": "string",
                  "name": "metadata",
                  "type": "string"
                },
                {
                  "internalType": "address",
                  "name": "applicant",
                  "type": "address"
                },
                {
                  "internalType": "bool",
                  "name": "accepted",
                  "type": "bool"
                },
                {
                  "components": [
                    {
                      "internalType": "bool",
                      "name": "nextToken",
                      "type": "bool"
                    },
                    {
                      "internalType": "address",
                      "name": "to",
                      "type": "address"
                    },
                    {
                      "internalType": "uint88",
                      "name": "amount",
                      "type": "uint88"
                    }
                  ],
                  "internalType": "struct ITasks.Reward[]",
                  "name": "reward",
                  "type": "tuple[]"
                }
              ],
              "internalType": "struct ITasks.OffChainApplication[]",
              "name": "applications",
              "type": "tuple[]"
            },
            {
              "components": [
                {
                  "internalType": "string",
                  "name": "metadata",
                  "type": "string"
                },
                {
                  "internalType": "string",
                  "name": "feedback",
                  "type": "string"
                },
                {
                  "internalType": "enum ITasks.SubmissionJudgement",
                  "name": "judgement",
                  "type": "uint8"
                }
              ],
              "internalType": "struct ITasks.Submission[]",
              "name": "submissions",
              "type": "tuple[]"
            },
            {
              "components": [
                {
                  "components": [
                    {
                      "internalType": "bool",
                      "name": "accepted",
                      "type": "bool"
                    },
                    {
                      "internalType": "bool",
                      "name": "executed",
                      "type": "bool"
                    }
                  ],
                  "internalType": "struct ITasks.Request",
                  "name": "request",
                  "type": "tuple"
                },
                {
                  "internalType": "string",
                  "name": "explanation",
                  "type": "string"
                }
              ],
              "internalType": "struct ITasks.CancelTaskRequest[]",
              "name": "cancelTaskRequests",
              "type": "tuple[]"
            }
          ],
          "internalType": "struct ITasks.OffChainTask[]",
          "name": "",
          "type": "tuple[]"
        }
      ],
      "stateMutability": "view",
      "type": "function"
    },
    {
      "inputs": [
        {
          "internalType": "address",
          "name": "_manager",
          "type": "address"
        },
        {
          "internalType": "uint256",
          "name": "_fromTaskId",
          "type": "uint256"
        },
        {
          "internalType": "uint256",
          "name": "_max",
          "type": "uint256"
        }
      ],
      "name": "getManagingTasks",
      "outputs": [
        {
          "components": [
            {
              "internalType": "string",
              "name": "metadata",
              "type": "string"
            },
            {
              "internalType": "uint64",
              "name": "deadline",
              "type": "uint64"
            },
            {
              "internalType": "uint16",
              "name": "executorApplication",
              "type": "uint16"
            },
            {
              "internalType": "address",
              "name": "creator",
              "type": "address"
            },
            {
              "internalType": "address",
              "name": "manager",
              "type": "address"
            },
            {
              "internalType": "enum ITasks.TaskState",
              "name": "state",
              "type": "uint8"
            },
            {
              "internalType": "contract Escrow",
              "name": "escrow",
              "type": "address"
            },
            {
              "components": [
                {
                  "internalType": "contract IERC20",
                  "name": "tokenContract",
                  "type": "address"
                },
                {
                  "internalType": "uint96",
                  "name": "amount",
                  "type": "uint96"
                }
              ],
              "internalType": "struct ITasks.ERC20Transfer[]",
              "name": "budget",
              "type": "tuple[]"
            },
            {
              "components": [
                {
                  "internalType": "string",
                  "name": "metadata",
                  "type": "string"
                },
                {
                  "internalType": "address",
                  "name": "applicant",
                  "type": "address"
                },
                {
                  "internalType": "bool",
                  "name": "accepted",
                  "type": "bool"
                },
                {
                  "components": [
                    {
                      "internalType": "bool",
                      "name": "nextToken",
                      "type": "bool"
                    },
                    {
                      "internalType": "address",
                      "name": "to",
                      "type": "address"
                    },
                    {
                      "internalType": "uint88",
                      "name": "amount",
                      "type": "uint88"
                    }
                  ],
                  "internalType": "struct ITasks.Reward[]",
                  "name": "reward",
                  "type": "tuple[]"
                }
              ],
              "internalType": "struct ITasks.OffChainApplication[]",
              "name": "applications",
              "type": "tuple[]"
            },
            {
              "components": [
                {
                  "internalType": "string",
                  "name": "metadata",
                  "type": "string"
                },
                {
                  "internalType": "string",
                  "name": "feedback",
                  "type": "string"
                },
                {
                  "internalType": "enum ITasks.SubmissionJudgement",
                  "name": "judgement",
                  "type": "uint8"
                }
              ],
              "internalType": "struct ITasks.Submission[]",
              "name": "submissions",
              "type": "tuple[]"
            },
            {
              "components": [
                {
                  "components": [
                    {
                      "internalType": "bool",
                      "name": "accepted",
                      "type": "bool"
                    },
                    {
                      "internalType": "bool",
                      "name": "executed",
                      "type": "bool"
                    }
                  ],
                  "internalType": "struct ITasks.Request",
                  "name": "request",
                  "type": "tuple"
                },
                {
                  "internalType": "string",
                  "name": "explanation",
                  "type": "string"
                }
              ],
              "internalType": "struct ITasks.CancelTaskRequest[]",
              "name": "cancelTaskRequests",
              "type": "tuple[]"
            }
          ],
          "internalType": "struct ITasks.OffChainTask[]",
          "name": "",
          "type": "tuple[]"
        }
      ],
      "stateMutability": "view",
      "type": "function"
    },
    {
      "inputs": [
        {
          "internalType": "uint256",
          "name": "_taskId",
          "type": "uint256"
        }
      ],
      "name": "getTask",
      "outputs": [
        {
          "components": [
            {
              "internalType": "string",
              "name": "metadata",
              "type": "string"
            },
            {
              "internalType": "uint64",
              "name": "deadline",
              "type": "uint64"
            },
            {
              "internalType": "uint16",
              "name": "executorApplication",
              "type": "uint16"
            },
            {
              "internalType": "address",
              "name": "creator",
              "type": "address"
            },
            {
              "internalType": "address",
              "name": "manager",
              "type": "address"
            },
            {
              "internalType": "enum ITasks.TaskState",
              "name": "state",
              "type": "uint8"
            },
            {
              "internalType": "contract Escrow",
              "name": "escrow",
              "type": "address"
            },
            {
              "components": [
                {
                  "internalType": "contract IERC20",
                  "name": "tokenContract",
                  "type": "address"
                },
                {
                  "internalType": "uint96",
                  "name": "amount",
                  "type": "uint96"
                }
              ],
              "internalType": "struct ITasks.ERC20Transfer[]",
              "name": "budget",
              "type": "tuple[]"
            },
            {
              "components": [
                {
                  "internalType": "string",
                  "name": "metadata",
                  "type": "string"
                },
                {
                  "internalType": "address",
                  "name": "applicant",
                  "type": "address"
                },
                {
                  "internalType": "bool",
                  "name": "accepted",
                  "type": "bool"
                },
                {
                  "components": [
                    {
                      "internalType": "bool",
                      "name": "nextToken",
                      "type": "bool"
                    },
                    {
                      "internalType": "address",
                      "name": "to",
                      "type": "address"
                    },
                    {
                      "internalType": "uint88",
                      "name": "amount",
                      "type": "uint88"
                    }
                  ],
                  "internalType": "struct ITasks.Reward[]",
                  "name": "reward",
                  "type": "tuple[]"
                }
              ],
              "internalType": "struct ITasks.OffChainApplication[]",
              "name": "applications",
              "type": "tuple[]"
            },
            {
              "components": [
                {
                  "internalType": "string",
                  "name": "metadata",
                  "type": "string"
                },
                {
                  "internalType": "string",
                  "name": "feedback",
                  "type": "string"
                },
                {
                  "internalType": "enum ITasks.SubmissionJudgement",
                  "name": "judgement",
                  "type": "uint8"
                }
              ],
              "internalType": "struct ITasks.Submission[]",
              "name": "submissions",
              "type": "tuple[]"
            },
            {
              "components": [
                {
                  "components": [
                    {
                      "internalType": "bool",
                      "name": "accepted",
                      "type": "bool"
                    },
                    {
                      "internalType": "bool",
                      "name": "executed",
                      "type": "bool"
                    }
                  ],
                  "internalType": "struct ITasks.Request",
                  "name": "request",
                  "type": "tuple"
                },
                {
                  "internalType": "string",
                  "name": "explanation",
                  "type": "string"
                }
              ],
              "internalType": "struct ITasks.CancelTaskRequest[]",
              "name": "cancelTaskRequests",
              "type": "tuple[]"
            }
          ],
          "internalType": "struct ITasks.OffChainTask",
          "name": "offchainTask",
          "type": "tuple"
        }
      ],
      "stateMutability": "view",
      "type": "function"
    },
    {
      "inputs": [
        {
          "internalType": "uint256[]",
          "name": "_taskIds",
          "type": "uint256[]"
        }
      ],
      "name": "getTasks",
      "outputs": [
        {
          "components": [
            {
              "internalType": "string",
              "name": "metadata",
              "type": "string"
            },
            {
              "internalType": "uint64",
              "name": "deadline",
              "type": "uint64"
            },
            {
              "internalType": "uint16",
              "name": "executorApplication",
              "type": "uint16"
            },
            {
              "internalType": "address",
              "name": "creator",
              "type": "address"
            },
            {
              "internalType": "address",
              "name": "manager",
              "type": "address"
            },
            {
              "internalType": "enum ITasks.TaskState",
              "name": "state",
              "type": "uint8"
            },
            {
              "internalType": "contract Escrow",
              "name": "escrow",
              "type": "address"
            },
            {
              "components": [
                {
                  "internalType": "contract IERC20",
                  "name": "tokenContract",
                  "type": "address"
                },
                {
                  "internalType": "uint96",
                  "name": "amount",
                  "type": "uint96"
                }
              ],
              "internalType": "struct ITasks.ERC20Transfer[]",
              "name": "budget",
              "type": "tuple[]"
            },
            {
              "components": [
                {
                  "internalType": "string",
                  "name": "metadata",
                  "type": "string"
                },
                {
                  "internalType": "address",
                  "name": "applicant",
                  "type": "address"
                },
                {
                  "internalType": "bool",
                  "name": "accepted",
                  "type": "bool"
                },
                {
                  "components": [
                    {
                      "internalType": "bool",
                      "name": "nextToken",
                      "type": "bool"
                    },
                    {
                      "internalType": "address",
                      "name": "to",
                      "type": "address"
                    },
                    {
                      "internalType": "uint88",
                      "name": "amount",
                      "type": "uint88"
                    }
                  ],
                  "internalType": "struct ITasks.Reward[]",
                  "name": "reward",
                  "type": "tuple[]"
                }
              ],
              "internalType": "struct ITasks.OffChainApplication[]",
              "name": "applications",
              "type": "tuple[]"
            },
            {
              "components": [
                {
                  "internalType": "string",
                  "name": "metadata",
                  "type": "string"
                },
                {
                  "internalType": "string",
                  "name": "feedback",
                  "type": "string"
                },
                {
                  "internalType": "enum ITasks.SubmissionJudgement",
                  "name": "judgement",
                  "type": "uint8"
                }
              ],
              "internalType": "struct ITasks.Submission[]",
              "name": "submissions",
              "type": "tuple[]"
            },
            {
              "components": [
                {
                  "components": [
                    {
                      "internalType": "bool",
                      "name": "accepted",
                      "type": "bool"
                    },
                    {
                      "internalType": "bool",
                      "name": "executed",
                      "type": "bool"
                    }
                  ],
                  "internalType": "struct ITasks.Request",
                  "name": "request",
                  "type": "tuple"
                },
                {
                  "internalType": "string",
                  "name": "explanation",
                  "type": "string"
                }
              ],
              "internalType": "struct ITasks.CancelTaskRequest[]",
              "name": "cancelTaskRequests",
              "type": "tuple[]"
            }
          ],
          "internalType": "struct ITasks.OffChainTask[]",
          "name": "",
          "type": "tuple[]"
        }
      ],
      "stateMutability": "view",
      "type": "function"
    },
    {
      "inputs": [
        {
          "internalType": "uint256",
          "name": "_taskId",
          "type": "uint256"
        },
        {
          "internalType": "uint96[]",
          "name": "_increase",
          "type": "uint96[]"
        }
      ],
      "name": "increaseBudget",
      "outputs": [],
      "stateMutability": "nonpayable",
      "type": "function"
    },
    {
      "inputs": [
        {
          "internalType": "uint256",
          "name": "_taskId",
          "type": "uint256"
        },
        {
          "internalType": "uint8",
          "name": "_submissionId",
          "type": "uint8"
        },
        {
          "internalType": "enum ITasks.SubmissionJudgement",
          "name": "_judgement",
          "type": "uint8"
        },
        {
          "internalType": "string",
          "name": "_feedback",
          "type": "string"
        }
      ],
      "name": "reviewSubmission",
      "outputs": [],
      "stateMutability": "nonpayable",
      "type": "function"
    },
    {
      "inputs": [
        {
          "internalType": "uint256",
          "name": "_taskId",
          "type": "uint256"
        },
        {
          "internalType": "uint16",
          "name": "_applicationId",
          "type": "uint16"
        }
      ],
      "name": "takeTask",
      "outputs": [],
      "stateMutability": "nonpayable",
      "type": "function"
    },
    {
      "inputs": [],
      "name": "taskCount",
      "outputs": [
        {
          "internalType": "uint256",
          "name": "",
          "type": "uint256"
        }
      ],
      "stateMutability": "view",
      "type": "function"
    },
    {
      "inputs": [],
      "name": "taskStatistics",
      "outputs": [
        {
          "internalType": "uint256",
          "name": "open",
          "type": "uint256"
        },
        {
          "internalType": "uint256",
          "name": "taken",
          "type": "uint256"
        },
        {
          "internalType": "uint256",
          "name": "successful",
          "type": "uint256"
        }
      ],
      "stateMutability": "view",
      "type": "function"
    }
  ],
  "transactionHash": "0xe91ea5c6d27d891aaa2aff211fc8f93701fe1f709b6c8ab91aedf0aa70af4b15",
  "args": [],
  "numDeployments": 1,
  "solcInputHash": "7ef8f14ee826a85f16b27be705efb77d",
  "bytecode": "0x60806040523480156200001157600080fd5b50604051620000209062000064565b604051809103906000f0801580156200003d573d6000803e3d6000fd5b50600580546001600160a01b0319166001600160a01b039290921691909117905562000072565b6102a9806200522183390190565b61519f80620000826000396000f3fe608060405234801561001057600080fd5b50600436106101355760003560e01c806383219a8a116100b2578063b685504b11610081578063b795282911610066578063b7952829146102b5578063c5f9027b146102c8578063ecb8adae146102db57600080fd5b8063b685504b1461029a578063b6cb58a5146102ad57600080fd5b806383219a8a1461022e57806391a2922514610241578063978a2b5314610254578063a5e99c4e1461027557600080fd5b806352a63d491161010957806362ffbb20116100ee57806362ffbb20146101f557806376645a931461020857806377b984191461021b57600080fd5b806352a63d49146101ab5780635ac1d773146101d157600080fd5b8062f9467d1461013a5780631d65e77e1461014f5780633f561a40146101785780633f74d41d1461018b575b600080fd5b61014d610148366004613b6b565b6102ee565b005b61016261015d366004613bba565b610490565b60405161016f919061408c565b60405180910390f35b61014d6101863660046140eb565b610520565b61019e610199366004614164565b6106c9565b60405161016f9190614199565b6101be6101b936600461425b565b610872565b60405161ffff909116815260200161016f565b6001546002546003546040805193845260208401929092529082015260600161016f565b61014d6102033660046140eb565b610a39565b61019e610216366004614331565b610c78565b61014d61022936600461440d565b610d97565b61014d61023c366004614482565b610f93565b61014d61024f3660046144c1565b610ff4565b610267610262366004614515565b6111c4565b60405190815260200161016f565b610288610283366004614482565b6116c9565b60405160ff909116815260200161016f565b61014d6102a8366004614614565b6117ed565b600054610267565b61019e6102c3366004614164565b611948565b61014d6102d6366004614640565b611a5b565b6102886102e9366004614482565b611bc1565b60006102f985611f1a565b905061030481611f68565b61030d81611fd5565b600084801561031e5761031e613c37565b0361042f5761032d818461205a565b60ff83166000908152600782016020526040902061034a816120c1565b821561040557610359826120fd565b600280547fffffffffffffffffffffffffffffffffffffffffffffffffffffffffffffffff01905560038201546040805188815273ffffffffffffffffffffffffffffffffffffffff90921660208301523382820152517f7b6dd43008ec95d34632e25b85bcb8ea6ac0e4170eda419079a724462b2b8e729181900360600190a180547fffffffffffffffffffffffffffffffffffffffffffffffffffffffffffff00ff166101001781555b80547fffffffffffffffffffffffffffffffffffffffffffffffffffffffffffffff001660011790555b60038101546040517f22c8636df8a0387ea92695f6534f3a1dccaa44ba42e7627c4d205e078dbbbe04916104819188918891889173ffffffffffffffffffffffffffffffffffffffff16903390614673565b60405180910390a15050505050565b610503604080516101608101825260608082526000602083018190529282018390528101829052608081018290529060a08201908152602001600073ffffffffffffffffffffffffffffffffffffffff168152602001606081526020016060815260200160608152602001606081525090565b600061050e83611f1a565b905061051981612298565b9392505050565b600061052b84611f1a565b905061053681612db3565b61053f81612e1d565b60005b828110156106c25761057a82858584818110610560576105606146bd565b905060200201602081019061057591906146ec565b612e70565b6000826005016000868685818110610594576105946146bd565b90506020020160208101906105a991906146ec565b61ffff16815260208101919091526040016000206001810180547fffffffffffffffffffffff00ffffffffffffffffffffffffffffffffffffffff1674010000000000000000000000000000000000000000179081905590915061062e9084907501000000000000000000000000000000000000000000900460ff1660028401612ed1565b7f42640c2316bc5dc21268d8f31f937340e2b0bae183af2839d910e442daa5b34f86868685818110610662576106626146bd565b905060200201602081019061067791906146ec565b60018401546040805193845261ffff929092166020840152338383015273ffffffffffffffffffffffffffffffffffffffff166060830152519081900360800190a150600101610542565b5050505050565b600080546060918167ffffffffffffffff8111156106e9576106e9614302565b604051908082528060200260200182016040528015610712578160200160208202803683370190505b50905060008560000361072d5761072a600184614736565b95505b855b7fffffffffffffffffffffffffffffffffffffffffffffffffffffffffffffffff8114610855576000808281526004602052604090206003015474010000000000000000000000000000000000000000900460ff16600281111561079557610795613c37565b141580156107fb5750600081815260046020908152604080832060038101547501000000000000000000000000000000000000000000900461ffff16845260050190915290206001015473ffffffffffffffffffffffffffffffffffffffff8981169116145b1561082e5780838381518110610813576108136146bd565b60200260200101818152505081600101915085820315610855575b7fffffffffffffffffffffffffffffffffffffffffffffffffffffffffffffffff0161072f565b50808303825103825261086782610c78565b979650505050505050565b60008061087e87611f1a565b905061088981612db3565b60038101547801000000000000000000000000000000000000000000000000900461ffff1660009081526005820160205260409020806108ca8789836147eb565b5060018101805460ff86167501000000000000000000000000000000000000000000027fffffffffffffffffffff00ff0000000000000000000000000000000000000000909116331717905560005b60ff80861690821610156109705785858260ff1681811061093c5761093c6146bd565b60ff841660009081526002860160205260409020606090910292909201919050610966828261491e565b5050600101610919565b506003820180547801000000000000000000000000000000000000000000000000900461ffff169060186109a3836149cf565b91906101000a81548161ffff021916908361ffff16021790555092507f7dea79221549b396f31442a220505470acfcfd38f772b6b3faa676d25df5998d8884898989898860030160009054906101000a900473ffffffffffffffffffffffffffffffffffffffff16610a123390565b604051610a26989796959493929190614aba565b60405180910390a1505095945050505050565b6000610a4484611f1a565b9050610a4f81612e1d565b610a5881612db3565b60005b60ff8084169082161015610c345760ff811660009081526004830160205260409020805473ffffffffffffffffffffffffffffffffffffffff166323b872dd33600186015468010000000000000000900473ffffffffffffffffffffffffffffffffffffffff16888860ff8816818110610ad757610ad76146bd565b9050602002016020810190610aec9190614b41565b6040517fffffffff0000000000000000000000000000000000000000000000000000000060e086901b16815273ffffffffffffffffffffffffffffffffffffffff93841660048201529290911660248301526bffffffffffffffffffffffff1660448201526064016020604051808303816000875af1158015610b73573d6000803e3d6000fd5b505050506040513d601f19601f82011682018060405250810190610b979190614b5e565b5084848360ff16818110610bad57610bad6146bd565b9050602002016020810190610bc29190614b41565b81548290601490610bfa9084907401000000000000000000000000000000000000000090046bffffffffffffffffffffffff16614b7b565b92506101000a8154816bffffffffffffffffffffffff02191690836bffffffffffffffffffffffff16021790555081600101915050610a5b565b507ffd28ab2ce625e634dd4caa0b1632ca64ed46e19b4ddd416693af49ad5e696d6284848433604051610c6a9493929190614ba0565b60405180910390a150505050565b60606000825167ffffffffffffffff811115610c9657610c96614302565b604051908082528060200260200182016040528015610d3a57816020015b610d27604080516101608101825260608082526000602083018190529282018390528101829052608081018290529060a08201908152602001600073ffffffffffffffffffffffffffffffffffffffff168152602001606081526020016060815260200160608152602001606081525090565b815260200190600190039081610cb45790505b50905060005b8351811015610d9057610d6b848281518110610d5e57610d5e6146bd565b6020026020010151610490565b828281518110610d7d57610d7d6146bd565b6020908102919091010152600101610d40565b5092915050565b6000610da286611f1a565b9050610dad81611f68565b610db681612e1d565b610dc08186613126565b60ff851660009081526006820160205260409020610ddd81613188565b848160020160006101000a81548160ff02191690836002811115610e0357610e03613c37565b021790555060018101610e178486836147eb565b506001856002811115610e2c57610e2c613c37565b03610efb57610e3a826131da565b600280547fffffffffffffffffffffffffffffffffffffffffffffffffffffffffffffffff0190556003805460019081018255908301547501000000000000000000000000000000000000000000900461ffff1660009081526005840160209081526040918290209092015481518a8152339381019390935273ffffffffffffffffffffffffffffffffffffffff16908201527f71df29d45998a549c1f24c01fb77e4eb23d0655460af8d435c59de2d8f572d969060600160405180910390a15b7f996a0dc6f1df9505a14639ddb92690f738f30d9e246272adae5ae7fb6c9a930387878787873360038901547501000000000000000000000000000000000000000000900461ffff16600090815260058a01602052604090819020600101549051610f829796959493929173ffffffffffffffffffffffffffffffffffffffff1690614c1d565b60405180910390a150505050505050565b6000610f9e84611f1a565b9050610fa981612e1d565b610fb281612db3565b80610fbe8385836147eb565b507f967dad14c5f736d50ac946b958b80007717809320b4864c86cd29b0898fad80784848433604051610c6a9493929190614c80565b6000610fff84611f1a565b905061100a81611f68565b600083801561101b5761101b613c37565b0361113d5761102a818361205a565b60ff821660009081526007820160205260409020611047816136a8565b611050816136e3565b611059826120fd565b600280547fffffffffffffffffffffffffffffffffffffffffffffffffffffffffffffffff019055600382015461ffff7501000000000000000000000000000000000000000000820416600090815260058401602090815260409182902060010154825189815273ffffffffffffffffffffffffffffffffffffffff948516928101929092529290921682820152517f7b6dd43008ec95d34632e25b85bcb8ea6ac0e4170eda419079a724462b2b8e729181900360600190a180547fffffffffffffffffffffffffffffffffffffffffffffffffffffffffffff00ff166101001790555b7fa20926c2163603eba714f9531625851214f394b2984a5038f03c478b73b0458a84848433600386015461ffff7501000000000000000000000000000000000000000000820416600090815260058801602052604090819020600101549051610c6a969594939273ffffffffffffffffffffffffffffffffffffffff908116921690614cc1565b6000805481806111d383614d14565b909155506000818152600460205260409020909150806111f48a8c836147eb565b506001810180547fffffffffffffffffffffffffffffffffffffffffffffffff00000000000000001667ffffffffffffffff8a161790556003810180547fffffffffffffffff00ffffffffffffffffffffffffffffffffffffffffffffff167701000000000000000000000000000000000000000000000060ff8916021790556005546000906112999073ffffffffffffffffffffffffffffffffffffffff16613724565b90508073ffffffffffffffffffffffffffffffffffffffff166365b145fb6040518163ffffffff1660e01b8152600401600060405180830381600087803b1580156112e357600080fd5b505af11580156112f7573d6000803e3d6000fd5b505050506001820180547fffffffff0000000000000000000000000000000000000000ffffffffffffffff166801000000000000000073ffffffffffffffffffffffffffffffffffffffff84160217905560005b60ff80891690821610156114c25788888260ff1681811061136e5761136e6146bd565b6113849260206040909202019081019150614d4c565b73ffffffffffffffffffffffffffffffffffffffff166323b872dd33848c8c8660ff168181106113b6576113b66146bd565b90506040020160200160208101906113ce9190614b41565b6040517fffffffff0000000000000000000000000000000000000000000000000000000060e086901b16815273ffffffffffffffffffffffffffffffffffffffff93841660048201529290911660248301526bffffffffffffffffffffffff1660448201526064016020604051808303816000875af1158015611455573d6000803e3d6000fd5b505050506040513d601f19601f820116820180604052508101906114799190614b5e565b5088888260ff1681811061148f5761148f6146bd565b60ff84166000908152600487016020526040908190209102929092019190506114b88282614d69565b505060010161134b565b5060038201805473ffffffffffffffffffffffffffffffffffffffff88167fffffffffffffffffffffffff0000000000000000000000000000000000000000918216179091556002830180549091163317905560018054810190558315611672576003820180547fffffffffffff0000ffffffffffffffffffffffffffffffffffffffffffffffff16780100000000000000000000000000000000000000000000000061ffff87160217905560005b61ffff80861690821610156116705761ffff81166000818152600585016020526040902090879087908181106115a9576115a96146bd565b90506020028101906115bb9190614dce565b6115c9906020810190614d4c565b6001820180547fffffffffffffffffffffff0000000000000000000000000000000000000000001673ffffffffffffffffffffffffffffffffffffffff9290921691909117740100000000000000000000000000000000000000001790556116678482898961ffff8716818110611642576116426146bd565b90506020028101906116549190614dce565b611662906020810190614e0c565b6137f0565b50600101611571565b505b7f789e3fb3404e145b30be9137359b893e98ac76bcf68e2acfc3ac8c94edf05982838c8c8c8c8c338d8d8d6040516116b39a99989796959493929190614fa0565b60405180910390a1505098975050505050505050565b6000806116d585611f1a565b90506116e081611f68565b6116e981611fd5565b60038101547a010000000000000000000000000000000000000000000000000000900460ff16600090815260068201602052604090208061172b8587836147eb565b506003820180547a010000000000000000000000000000000000000000000000000000900460ff1690601a61175f8361509c565b91906101000a81548160ff021916908360ff16021790555092507febbf99121aff5f85cf06c85caf2ef1ffc43579642cafcec11f652cd95d128712868487878660030160009054906101000a900473ffffffffffffffffffffffffffffffffffffffff166117ca3390565b6040516117dc969594939291906150bb565b60405180910390a150509392505050565b60006117f883611f1a565b905061180381612db3565b61180d8183612e70565b61ffff82166000908152600582016020526040902061182b81613a2a565b61183481613a7d565b6003820180547fffffffffffffffffff000000ffffffffffffffffffffffffffffffffffffffff16750100000000000000000000000000000000000000000061ffff86169081027fffffffffffffffffffffff00ffffffffffffffffffffffffffffffffffffffff169190911774010000000000000000000000000000000000000000178255600180547fffffffffffffffffffffffffffffffffffffffffffffffffffffffffffffffff018155600280549091019055905460408051878152602081019390935273ffffffffffffffffffffffffffffffffffffffff909116908201523360608201527f999f5ac16ad68b99efbba298ac2365d78c941b1b397f82a52232dedb58d48de190608001610c6a565b600080546060918167ffffffffffffffff81111561196857611968614302565b604051908082528060200260200182016040528015611991578160200160208202803683370190505b5090506000856000036119ac576119a9600184614736565b95505b855b7fffffffffffffffffffffffffffffffffffffffffffffffffffffffffffffffff81146108555760008181526004602052604090206003015473ffffffffffffffffffffffffffffffffffffffff808a16911603611a345780838381518110611a1957611a196146bd565b60200260200101818152505081600101915085820315610855575b7fffffffffffffffffffffffffffffffffffffffffffffffffffffffffffffffff016119ae565b6000611a6683611f1a565b9050611a7181612e1d565b611a7a81613ad3565b600181018054839190600090611a9b90849067ffffffffffffffff1661510e565b92506101000a81548167ffffffffffffffff021916908367ffffffffffffffff1602179055507f3d9ee6a0fdedaee94f1c3631bf046c61c58704428408ca72e3e7ffa046884a688383611aeb3390565b6000600386015474010000000000000000000000000000000000000000900460ff166002811115611b1e57611b1e613c37565b14611b745760038501547501000000000000000000000000000000000000000000900461ffff16600090815260058601602052604090206001015473ffffffffffffffffffffffffffffffffffffffff16611b77565b60005b6040805194855267ffffffffffffffff93909316602085015273ffffffffffffffffffffffffffffffffffffffff91821684840152166060830152519081900360800190a1505050565b600080611bcd85611f1a565b9050611bd881612e1d565b611be181613ad3565b6000600382015474010000000000000000000000000000000000000000900460ff166002811115611c1457611c14613c37565b1480611c315750600181015467ffffffffffffffff428116911611155b15611df257611c3f816120fd565b6000600382015474010000000000000000000000000000000000000000900460ff166002811115611c7257611c72613c37565b03611ca457600180547fffffffffffffffffffffffffffffffffffffffffffffffffffffffffffffffff019055611d05565b6001600382015474010000000000000000000000000000000000000000900460ff166002811115611cd757611cd7613c37565b03611d0557600280547fffffffffffffffffffffffffffffffffffffffffffffffffffffffffffffffff0190555b7f7b6dd43008ec95d34632e25b85bcb8ea6ac0e4170eda419079a724462b2b8e7285336000600385015474010000000000000000000000000000000000000000900460ff166002811115611d5b57611d5b613c37565b14611db15760038401547501000000000000000000000000000000000000000000900461ffff16600090815260058501602052604090206001015473ffffffffffffffffffffffffffffffffffffffff16611db4565b60005b6040805193845273ffffffffffffffffffffffffffffffffffffffff928316602085015291169082015260600160405180910390a160ff9150611f12565b60038101547b01000000000000000000000000000000000000000000000000000000900460ff166000908152600782016020526040902060018101611e388587836147eb565b506003820180547b01000000000000000000000000000000000000000000000000000000900460ff1690601b611e6d8361509c565b91906101000a81548160ff021916908360ff16021790555092507f8beb4b470a422a5a51289e17afad55bb1f5692ed0b2ad0d71779119481d3899286848787611eb33390565b60038801547501000000000000000000000000000000000000000000900461ffff166000908152600589016020526040908190206001015490516117dc96959493929173ffffffffffffffffffffffffffffffffffffffff16906150bb565b509392505050565b600080548210611f56576040517fda319dff00000000000000000000000000000000000000000000000000000000815260040160405180910390fd5b50600090815260046020526040902090565b6001600382015474010000000000000000000000000000000000000000900460ff166002811115611f9b57611f9b613c37565b14611fd2576040517f24a6478900000000000000000000000000000000000000000000000000000000815260040160405180910390fd5b50565b600381015461ffff750100000000000000000000000000000000000000000090910416600090815260058201602052604090206001015473ffffffffffffffffffffffffffffffffffffffff163314611fd2576040517fc32d1d7600000000000000000000000000000000000000000000000000000000815260040160405180910390fd5b600382015460ff7b010000000000000000000000000000000000000000000000000000009091048116908216106120bd576040517fe06f976a00000000000000000000000000000000000000000000000000000000815260040160405180910390fd5b5050565b805460ff1615611fd2576040517f9f80515700000000000000000000000000000000000000000000000000000000815260040160405180910390fd5b6003810154600282015460018301547701000000000000000000000000000000000000000000000090920460ff169173ffffffffffffffffffffffffffffffffffffffff91821691680100000000000000009091041660005b8360ff168160ff1610156122525760ff811660009081526004868101602090815260409283902083518085018552905473ffffffffffffffffffffffffffffffffffffffff808216808452740100000000000000000000000000000000000000009092046bffffffffffffffffffffffff1693830184905294517fbeabacc800000000000000000000000000000000000000000000000000000000815293840152868416602484015260448301919091529184169063beabacc890606401600060405180830381600087803b15801561222e57600080fd5b505af1158015612242573d6000803e3d6000fd5b5050505081600101915050612156565b5050505060030180547fffffffffffffffffffffff00ffffffffffffffffffffffffffffffffffffffff1674020000000000000000000000000000000000000000179055565b61230b604080516101608101825260608082526000602083018190529282018390528101829052608081018290529060a08201908152602001600073ffffffffffffffffffffffffffffffffffffffff168152602001606081526020016060815260200160608152602001606081525090565b815482906123189061474f565b80601f01602080910402602001604051908101604052809291908181526020018280546123449061474f565b80156123915780601f1061236657610100808354040283529160200191612391565b820191906000526020600020905b81548152906001019060200180831161237457829003601f168201915b5050509183525050600182015467ffffffffffffffff16602082015260038201547501000000000000000000000000000000000000000000810461ffff16604083015260028084015473ffffffffffffffffffffffffffffffffffffffff90811660608501528216608084015260a083019174010000000000000000000000000000000000000000900460ff169081111561242e5761242e613c37565b9081600281111561244157612441613c37565b905250600182015468010000000000000000900473ffffffffffffffffffffffffffffffffffffffff1660c0820152600382015477010000000000000000000000000000000000000000000000900460ff1667ffffffffffffffff8111156124ab576124ab614302565b6040519080825280602002602001820160405280156124f057816020015b60408051808201909152600080825260208201528152602001906001900390816124c95790505b5060e082015260005b8160e00151518160ff1610156125995760ff8116600081815260048501602090815260409182902082518084019093525473ffffffffffffffffffffffffffffffffffffffff811683527401000000000000000000000000000000000000000090046bffffffffffffffffffffffff169082015260e08401518051919290918110612586576125866146bd565b60209081029190910101526001016124f9565b5060038201547801000000000000000000000000000000000000000000000000900461ffff1667ffffffffffffffff8111156125d7576125d7614302565b60405190808252806020026020018201604052801561264b57816020015b612638604051806080016040528060608152602001600073ffffffffffffffffffffffffffffffffffffffff168152602001600015158152602001606081525090565b8152602001906001900390816125f55790505b5061010082015260005b816101000151518160ff1610156129ad5760ff811660009081526005840160205260409020805481906126879061474f565b80601f01602080910402602001604051908101604052809291908181526020018280546126b39061474f565b80156127005780601f106126d557610100808354040283529160200191612700565b820191906000526020600020905b8154815290600101906020018083116126e357829003601f168201915b50505050508361010001518360ff168151811061271f5761271f6146bd565b6020908102919091010151526001810154610100840151805173ffffffffffffffffffffffffffffffffffffffff9092169160ff8516908110612764576127646146bd565b60209081029190910181015173ffffffffffffffffffffffffffffffffffffffff9092169101526001810154610100840151805160ff7401000000000000000000000000000000000000000090930483169285169081106127c7576127c76146bd565b602090810291909101015190151560409091015260018101547501000000000000000000000000000000000000000000900460ff1667ffffffffffffffff81111561281457612814614302565b60405190808252806020026020018201604052801561287d57816020015b60408051606081018252600080825260208083018290529282015282527fffffffffffffffffffffffffffffffffffffffffffffffffffffffffffffffff9092019101816128325790505b508361010001518360ff1681518110612898576128986146bd565b60200260200101516060018190525060005b8361010001518360ff16815181106128c4576128c46146bd565b602002602001015160600151518160ff1610156129a35760ff8181166000908152600284016020908152604091829020825160608101845290548085161515825261010080820473ffffffffffffffffffffffffffffffffffffffff1693830193909352750100000000000000000000000000000000000000000090046affffffffffffffffffffff1692810192909252860151805191929091908616908110612970576129706146bd565b6020026020010151606001518260ff1681518110612990576129906146bd565b60209081029190910101526001016128aa565b5050600101612655565b5060038201547a010000000000000000000000000000000000000000000000000000900460ff1667ffffffffffffffff8111156129ec576129ec614302565b604051908082528060200260200182016040528015612a3d57816020015b612a2a604080516060808201835280825260208201529081016000905290565b815260200190600190039081612a0a5790505b5061012082015260005b816101200151518160ff161015612bfa5760ff8116600090815260068401602052604090819020815160608101909252805482908290612a869061474f565b80601f0160208091040260200160405190810160405280929190818152602001828054612ab29061474f565b8015612aff5780601f10612ad457610100808354040283529160200191612aff565b820191906000526020600020905b815481529060010190602001808311612ae257829003601f168201915b50505050508152602001600182018054612b189061474f565b80601f0160208091040260200160405190810160405280929190818152602001828054612b449061474f565b8015612b915780601f10612b6657610100808354040283529160200191612b91565b820191906000526020600020905b815481529060010190602001808311612b7457829003601f168201915b505050918352505060028281015460209092019160ff1690811115612bb857612bb8613c37565b6002811115612bc957612bc9613c37565b815250508261012001518260ff1681518110612be757612be76146bd565b6020908102919091010152600101612a47565b5060038201547b01000000000000000000000000000000000000000000000000000000900460ff1667ffffffffffffffff811115612c3a57612c3a614302565b604051908082528060200260200182016040528015612c9057816020015b60408051608081018252600091810182815260608083019390935281526020810191909152815260200190600190039081612c585790505b5061014082015260005b816101400151518160ff161015612dad5760ff808216600090815260078501602090815260409182902082516080810184528154808616151594820194855261010090049094161515606085015291835260018201805491840191612cfe9061474f565b80601f0160208091040260200160405190810160405280929190818152602001828054612d2a9061474f565b8015612d775780601f10612d4c57610100808354040283529160200191612d77565b820191906000526020600020905b815481529060010190602001808311612d5a57829003601f168201915b5050505050815250508261014001518260ff1681518110612d9a57612d9a6146bd565b6020908102919091010152600101612c9a565b50919050565b6000600382015474010000000000000000000000000000000000000000900460ff166002811115612de657612de6613c37565b14611fd2576040517ffe89421700000000000000000000000000000000000000000000000000000000815260040160405180910390fd5b600381015473ffffffffffffffffffffffffffffffffffffffff163314611fd2576040517fc0fc8a8a00000000000000000000000000000000000000000000000000000000815260040160405180910390fd5b600382015461ffff78010000000000000000000000000000000000000000000000009091048116908216106120bd576040517f362a281100000000000000000000000000000000000000000000000000000000815260040160405180910390fd5b6000808052600484016020908152604080832081518083019092525473ffffffffffffffffffffffffffffffffffffffff811682527401000000000000000000000000000000000000000090046bffffffffffffffffffffffff169181019190915281805b8560ff168160ff16101561311d5760ff8082166000908152602087905260409020546affffffffffffffffffffff7501000000000000000000000000000000000000000000820416939093019216156131155782602001516bffffffffffffffffffffffff168211156130a357825173ffffffffffffffffffffffffffffffffffffffff166323b872dd338960010160089054906101000a900473ffffffffffffffffffffffffffffffffffffffff1686602001516bffffffffffffffffffffffff16866130049190614736565b6040517fffffffff0000000000000000000000000000000000000000000000000000000060e086901b16815273ffffffffffffffffffffffffffffffffffffffff938416600482015292909116602483015260448201526064016020604051808303816000875af115801561307d573d6000803e3d6000fd5b505050506040513d601f19601f820116820180604052508101906130a19190614b5e565b505b60ff60019094019384166000908152600488016020908152604080832081518083019092525473ffffffffffffffffffffffffffffffffffffffff811682526bffffffffffffffffffffffff740100000000000000000000000000000000000000009091041691810191909152935091505b600101612f36565b50505050505050565b600382015460ff7a0100000000000000000000000000000000000000000000000000009091048116908216106120bd576040517f5005f9de00000000000000000000000000000000000000000000000000000000815260040160405180910390fd5b600060028083015460ff16908111156131a3576131a3613c37565b14611fd2576040517fc144afcc00000000000000000000000000000000000000000000000000000000815260040160405180910390fd5b600381015475010000000000000000000000000000000000000000009081900461ffff1660009081526005830160209081526040808320600286015460018088015486805260048901865284872085518087019096525473ffffffffffffffffffffffffffffffffffffffff8082168752740100000000000000000000000000000000000000009091046bffffffffffffffffffffffff1696860196909652908301549296918516956801000000000000000090910490941693929160ff91900416825b8160ff168160ff1610156135105760ff81811660009081526002890160209081526040918290208251606081018452905493841615158152610100840473ffffffffffffffffffffffffffffffffffffffff9081169282019290925275010000000000000000000000000000000000000000009093046affffffffffffffffffffff16838301819052865160018c015493517fbeabacc800000000000000000000000000000000000000000000000000000000815290831660048201529282166024840152604483015287169063beabacc890606401600060405180830381600087803b15801561338e57600080fd5b505af11580156133a2573d6000803e3d6000fd5b5050505060408101516020850180516affffffffffffffffffffff9092169091036bffffffffffffffffffffffff1690528051156135075760208401516bffffffffffffffffffffffff161561349957835160208501516040517fbeabacc800000000000000000000000000000000000000000000000000000000815273ffffffffffffffffffffffffffffffffffffffff928316600482015289831660248201526bffffffffffffffffffffffff90911660448201529087169063beabacc890606401600060405180830381600087803b15801561348057600080fd5b505af1158015613494573d6000803e3d6000fd5b505050505b60ff6001909501948516600090815260048a01602090815260409182902082518084019093525473ffffffffffffffffffffffffffffffffffffffff811683526bffffffffffffffffffffffff74010000000000000000000000000000000000000000909104169082015293505b5060010161329e565b50600387015477010000000000000000000000000000000000000000000000900460ff165b8060ff168460ff16101561365c57825160208401516040517fbeabacc800000000000000000000000000000000000000000000000000000000815273ffffffffffffffffffffffffffffffffffffffff928316600482015288831660248201526bffffffffffffffffffffffff90911660448201529086169063beabacc890606401600060405180830381600087803b1580156135d157600080fd5b505af11580156135e5573d6000803e3d6000fd5b50505060ff6001909501948516600090815260048a01602090815260409182902082518084019093525473ffffffffffffffffffffffffffffffffffffffff811683526bffffffffffffffffffffffff74010000000000000000000000000000000000000000909104169082015293506135359050565b5050505060039390930180547fffffffffffffffffffffff00ffffffffffffffffffffffffffffffffffffffff1674020000000000000000000000000000000000000000179055505050565b805460ff16611fd2576040517ff34ca27f00000000000000000000000000000000000000000000000000000000815260040160405180910390fd5b8054610100900460ff1615611fd2576040517fd6f1f94600000000000000000000000000000000000000000000000000000000815260040160405180910390fd5b6000763d602d80600a3d3981f3363d3d373d3d3d363d730000008260601b60e81c176000526e5af43d82803e903d91602b57fd5bf38260781b17602052603760096000f0905073ffffffffffffffffffffffffffffffffffffffff81166137eb576040517f08c379a000000000000000000000000000000000000000000000000000000000815260206004820152601660248201527f455243313136373a20637265617465206661696c656400000000000000000000604482015260640160405180910390fd5b919050565b6001830180547fffffffffffffffffffff00ffffffffffffffffffffffffffffffffffffffffff16750100000000000000000000000000000000000000000060ff8416021790556000808052600485016020908152604080832081518083019092525473ffffffffffffffffffffffffffffffffffffffff811682527401000000000000000000000000000000000000000090046bffffffffffffffffffffffff169181019190915281805b60ff8086169082161015613a205785858260ff168181106138bf576138bf6146bd565b90506060020160400160208101906138d7919061512f565b6affffffffffffffffffffff168201915082602001516bffffffffffffffffffffffff16821115613934576040517fb8f6ba5300000000000000000000000000000000000000000000000000000000815260040160405180910390fd5b85858260ff16818110613949576139496146bd565b60ff8416600090815260028b0160205260409020606090910292909201919050613973828261491e565b90505085858260ff1681811061398b5761398b6146bd565b6139a1926020606090920201908101915061514c565b15613a185760ff60019094019384166000908152600489016020908152604080832081518083019092525473ffffffffffffffffffffffffffffffffffffffff811682526bffffffffffffffffffffffff740100000000000000000000000000000000000000009091041691810191909152935091505b60010161389c565b5050505050505050565b600181015473ffffffffffffffffffffffffffffffffffffffff163314611fd2576040517fb7ec028400000000000000000000000000000000000000000000000000000000815260040160405180910390fd5b600181015474010000000000000000000000000000000000000000900460ff16611fd2576040517fbcffbdde00000000000000000000000000000000000000000000000000000000815260040160405180910390fd5b6002600382015474010000000000000000000000000000000000000000900460ff166002811115613b0657613b06613c37565b03611fd2576040517f39d70be400000000000000000000000000000000000000000000000000000000815260040160405180910390fd5b8035600181106137eb57600080fd5b803560ff811681146137eb57600080fd5b8015158114611fd257600080fd5b60008060008060808587031215613b8157600080fd5b84359350613b9160208601613b3d565b9250613b9f60408601613b4c565b91506060850135613baf81613b5d565b939692955090935050565b600060208284031215613bcc57600080fd5b5035919050565b6000815180845260005b81811015613bf957602081850181015186830182015201613bdd565b5060006020828601015260207fffffffffffffffffffffffffffffffffffffffffffffffffffffffffffffffe0601f83011685010191505092915050565b7f4e487b7100000000000000000000000000000000000000000000000000000000600052602160045260246000fd5b60038110611fd257611fd2613c37565b613c7f81613c66565b9052565b600081518084526020808501945080840160005b83811015613ce2578151805173ffffffffffffffffffffffffffffffffffffffff1688528301516bffffffffffffffffffffffff168388015260409096019590820190600101613c97565b509495945050505050565b600082825180855260208086019550808260051b8401018186016000805b85811015613dfa577fffffffffffffffffffffffffffffffffffffffffffffffffffffffffffffffe0878503018a52825160808151818752613d4f82880182613bd3565b8389015173ffffffffffffffffffffffffffffffffffffffff908116898b01526040808601511515818b01526060958601518a8403878c01528051808552908c019689965091945091929091908b01905b80861015613de25786518051151583528c81015185168d8401528501516affffffffffffffffffffff1685830152958b01956001959095019490820190613da0565b509e8a019e9850505094870194505050600101613d0b565b509198975050505050505050565b600082825180855260208086019550808260051b84010181860160005b84811015613eaa577fffffffffffffffffffffffffffffffffffffffffffffffffffffffffffffffe0868403018952815160608151818652613e6982870182613bd3565b9150508582015185820387870152613e818282613bd3565b9150506040808301519250613e9583613c66565b94909401529783019790830190600101613e25565b5090979650505050505050565b600082825180855260208086019550808260051b84010181860160005b84811015613eaa578583037fffffffffffffffffffffffffffffffffffffffffffffffffffffffffffffffe001895281518051805115158552850151151585850152840151606060408501819052613f2e81860183613bd3565b9a86019a9450505090830190600101613ed4565b60006101608251818552613f5882860182613bd3565b9150506020830151613f76602086018267ffffffffffffffff169052565b506040830151613f8c604086018261ffff169052565b506060830151613fb4606086018273ffffffffffffffffffffffffffffffffffffffff169052565b506080830151613fdc608086018273ffffffffffffffffffffffffffffffffffffffff169052565b5060a0830151613fef60a0860182613c76565b5060c083015161401760c086018273ffffffffffffffffffffffffffffffffffffffff169052565b5060e083015184820360e086015261402f8282613c83565b915050610100808401518583038287015261404a8382613ced565b9250505061012080840151858303828701526140668382613e08565b9250505061014080840151858303828701526140828382613eb7565b9695505050505050565b6020815260006105196020830184613f42565b60008083601f8401126140b157600080fd5b50813567ffffffffffffffff8111156140c957600080fd5b6020830191508360208260051b85010111156140e457600080fd5b9250929050565b60008060006040848603121561410057600080fd5b83359250602084013567ffffffffffffffff81111561411e57600080fd5b61412a8682870161409f565b9497909650939450505050565b73ffffffffffffffffffffffffffffffffffffffff81168114611fd257600080fd5b80356137eb81614137565b60008060006060848603121561417957600080fd5b833561418481614137565b95602085013595506040909401359392505050565b6000602080830181845280855180835260408601915060408160051b870101925083870160005b8281101561420c577fffffffffffffffffffffffffffffffffffffffffffffffffffffffffffffffc08886030184526141fa858351613f42565b945092850192908501906001016141c0565b5092979650505050505050565b60008083601f84011261422b57600080fd5b50813567ffffffffffffffff81111561424357600080fd5b6020830191508360208285010111156140e457600080fd5b60008060008060006060868803121561427357600080fd5b85359450602086013567ffffffffffffffff8082111561429257600080fd5b61429e89838a01614219565b909650945060408801359150808211156142b757600080fd5b818801915088601f8301126142cb57600080fd5b8135818111156142da57600080fd5b8960206060830285010111156142ef57600080fd5b9699959850939650602001949392505050565b7f4e487b7100000000000000000000000000000000000000000000000000000000600052604160045260246000fd5b6000602080838503121561434457600080fd5b823567ffffffffffffffff8082111561435c57600080fd5b818501915085601f83011261437057600080fd5b81358181111561438257614382614302565b8060051b6040517fffffffffffffffffffffffffffffffffffffffffffffffffffffffffffffffe0603f830116810181811085821117156143c5576143c5614302565b6040529182528482019250838101850191888311156143e357600080fd5b938501935b82851015614401578435845293850193928501926143e8565b98975050505050505050565b60008060008060006080868803121561442557600080fd5b8535945061443560208701613b4c565b935060408601356003811061444957600080fd5b9250606086013567ffffffffffffffff81111561446557600080fd5b61447188828901614219565b969995985093965092949392505050565b60008060006040848603121561449757600080fd5b83359250602084013567ffffffffffffffff8111156144b557600080fd5b61412a86828701614219565b6000806000606084860312156144d657600080fd5b833592506144e660208501613b3d565b91506144f460408501613b4c565b90509250925092565b803567ffffffffffffffff811681146137eb57600080fd5b60008060008060008060008060a0898b03121561453157600080fd5b883567ffffffffffffffff8082111561454957600080fd5b6145558c838d01614219565b909a50985088915061456960208c016144fd565b975060408b013591508082111561457f57600080fd5b818b0191508b601f83011261459357600080fd5b8135818111156145a257600080fd5b8c60208260061b85010111156145b757600080fd5b60208301975095506145cb60608c01614159565b945060808b01359150808211156145e157600080fd5b506145ee8b828c0161409f565b999c989b5096995094979396929594505050565b803561ffff811681146137eb57600080fd5b6000806040838503121561462757600080fd5b8235915061463760208401614602565b90509250929050565b6000806040838503121561465357600080fd5b82359150614637602084016144fd565b60018110613c7f57613c7f613c37565b85815260a081016146876020830187614663565b60ff94909416604082015273ffffffffffffffffffffffffffffffffffffffff9283166060820152911660809091015292915050565b7f4e487b7100000000000000000000000000000000000000000000000000000000600052603260045260246000fd5b6000602082840312156146fe57600080fd5b61051982614602565b7f4e487b7100000000000000000000000000000000000000000000000000000000600052601160045260246000fd5b8181038181111561474957614749614707565b92915050565b600181811c9082168061476357607f821691505b602082108103612dad577f4e487b7100000000000000000000000000000000000000000000000000000000600052602260045260246000fd5b601f8211156147e657600081815260208120601f850160051c810160208610156147c35750805b601f850160051c820191505b818110156147e2578281556001016147cf565b5050505b505050565b67ffffffffffffffff83111561480357614803614302565b61481783614811835461474f565b8361479c565b6000601f84116001811461486957600085156148335750838201355b7fffffffffffffffffffffffffffffffffffffffffffffffffffffffffffffffff600387901b1c1916600186901b1783556106c2565b6000838152602090207fffffffffffffffffffffffffffffffffffffffffffffffffffffffffffffffe0861690835b828110156148b85786850135825560209485019460019092019101614898565b50868210156148f3577fffffffffffffffffffffffffffffffffffffffffffffffffffffffffffffffff60f88860031b161c19848701351681555b505060018560011b0183555050505050565b6affffffffffffffffffffff81168114611fd257600080fd5b813561492981613b5d565b81547fffffffffffffffffffffffffffffffffffffffffffffffffffffffffffffff00811691151560ff169182178355602084013561496781614137565b74ffffffffffffffffffffffffffffffffffffffff008160081b1690507fffffffffffffffffffffff000000000000000000000000000000000000000000818482851617178555604086013592506149be83614905565b921760a89190911b90911617905550565b600061ffff8083168181036149e6576149e6614707565b6001019392505050565b8183528181602085013750600060208284010152600060207fffffffffffffffffffffffffffffffffffffffffffffffffffffffffffffffe0601f840116840101905092915050565b8183526000602080850194508260005b85811015613ce2578135614a5c81613b5d565b1515875281830135614a6d81614137565b73ffffffffffffffffffffffffffffffffffffffff1687840152604082810135614a9681614905565b6affffffffffffffffffffff16908801526060968701969190910190600101614a49565b88815261ffff8816602082015260c060408201526000614ade60c08301888a6149f0565b8281036060840152614af1818789614a39565b91505073ffffffffffffffffffffffffffffffffffffffff808516608084015280841660a0840152509998505050505050505050565b6bffffffffffffffffffffffff81168114611fd257600080fd5b600060208284031215614b5357600080fd5b813561051981614b27565b600060208284031215614b7057600080fd5b815161051981613b5d565b6bffffffffffffffffffffffff818116838216019080821115610d9057610d90614707565b84815260606020808301829052908201849052600090859060808401835b87811015614bf1578335614bd181614b27565b6bffffffffffffffffffffffff1682529282019290820190600101614bbe565b5080935050505073ffffffffffffffffffffffffffffffffffffffff8316604083015295945050505050565b87815260ff87166020820152614c3286613c66565b85604082015260c060608201526000614c4f60c0830186886149f0565b73ffffffffffffffffffffffffffffffffffffffff94851660808401529290931660a0909101529695505050505050565b848152606060208201526000614c9a6060830185876149f0565b905073ffffffffffffffffffffffffffffffffffffffff8316604083015295945050505050565b86815260c08101614cd56020830188614663565b60ff95909516604082015273ffffffffffffffffffffffffffffffffffffffff9384166060820152918316608083015290911660a09091015292915050565b60007fffffffffffffffffffffffffffffffffffffffffffffffffffffffffffffffff8203614d4557614d45614707565b5060010190565b600060208284031215614d5e57600080fd5b813561051981614137565b8135614d7481614137565b73ffffffffffffffffffffffffffffffffffffffff811690507fffffffffffffffffffffffff000000000000000000000000000000000000000081818454161783556020840135614dc481614b27565b60a01b1617905550565b600082357fffffffffffffffffffffffffffffffffffffffffffffffffffffffffffffffc1833603018112614e0257600080fd5b9190910192915050565b60008083357fffffffffffffffffffffffffffffffffffffffffffffffffffffffffffffffe1843603018112614e4157600080fd5b83018035915067ffffffffffffffff821115614e5c57600080fd5b60200191506060810236038213156140e457600080fd5b60008383855260208086019550808560051b8301018460005b87811015613eaa577fffffffffffffffffffffffffffffffffffffffffffffffffffffffffffffffe085840301895281357fffffffffffffffffffffffffffffffffffffffffffffffffffffffffffffffc1883603018112614eed57600080fd5b870160408135614efc81614137565b73ffffffffffffffffffffffffffffffffffffffff16855281860135368390037fffffffffffffffffffffffffffffffffffffffffffffffffffffffffffffffe1018112614f4957600080fd5b90910185810191903567ffffffffffffffff811115614f6757600080fd5b606081023603831315614f7957600080fd5b8187870152614f8b8287018285614a39565b9b87019b955050509184019150600101614e8c565b8a81526000602060e081840152614fbb60e084018c8e6149f0565b67ffffffffffffffff8b1660408581019190915284820360608601528982528a91830160005b8b81101561503b578335614ff481614137565b73ffffffffffffffffffffffffffffffffffffffff1682528385013561501981614b27565b6bffffffffffffffffffffffff16828601529282019290820190600101614fe1565b5073ffffffffffffffffffffffffffffffffffffffff8a16608087015273ffffffffffffffffffffffffffffffffffffffff891660a087015285810360c087015261508781888a614e73565b9450505050509b9a5050505050505050505050565b600060ff821660ff81036150b2576150b2614707565b60010192915050565b86815260ff8616602082015260a0604082015260006150de60a0830186886149f0565b73ffffffffffffffffffffffffffffffffffffffff94851660608401529290931660809091015295945050505050565b67ffffffffffffffff818116838216019080821115610d9057610d90614707565b60006020828403121561514157600080fd5b813561051981614905565b60006020828403121561515e57600080fd5b813561051981613b5d56fea2646970667358221220100dc6aa6ed2c0b8362cb8f2d5dbea4d6b6dfaed8d02b782b6c8e5ffbc3c3a1b64736f6c63430008110033608060405234801561001057600080fd5b50610289806100206000396000f3fe608060405234801561001057600080fd5b50600436106100365760003560e01c806365b145fb1461003b578063beabacc814610045575b600080fd5b610043610058565b005b6100436100533660046101e9565b6100d4565b60005473ffffffffffffffffffffffffffffffffffffffff16156100a8576040517f0dc149f000000000000000000000000000000000000000000000000000000000815260040160405180910390fd5b600080547fffffffffffffffffffffffff00000000000000000000000000000000000000001633179055565b60005473ffffffffffffffffffffffffffffffffffffffff163314610125576040517f30cd747100000000000000000000000000000000000000000000000000000000815260040160405180910390fd5b6040517fa9059cbb00000000000000000000000000000000000000000000000000000000815273ffffffffffffffffffffffffffffffffffffffff83811660048301526024820183905284169063a9059cbb906044016020604051808303816000875af115801561019a573d6000803e3d6000fd5b505050506040513d601f19601f820116820180604052508101906101be919061022a565b50505050565b73ffffffffffffffffffffffffffffffffffffffff811681146101e657600080fd5b50565b6000806000606084860312156101fe57600080fd5b8335610209816101c4565b92506020840135610219816101c4565b929592945050506040919091013590565b60006020828403121561023c57600080fd5b8151801515811461024c57600080fd5b939250505056fea26469706673582212201d2e0260bc1b668deed1ce5be0dd2fdd10d67c1761b87d684b7f290e81ab5fc364736f6c63430008110033",
  "devdoc": {
    "kind": "dev",
    "methods": {
      "acceptApplications(uint256,uint16[])": {
        "params": {
          "_applicationIds": "Indexes of the applications to accept.",
          "_taskId": "Id of the task."
        }
      },
      "acceptRequest(uint256,uint8,uint8,bool)": {
        "params": {
          "_execute": "If the request should also be executed in this transaction.",
          "_requestId": "Id of the request.",
          "_requestType": "What kind of request it is.",
          "_taskId": "Id of the task."
        }
      },
      "applyForTask(uint256,string,(bool,address,uint88)[])": {
        "params": {
          "_metadata": "Metadata of your application.",
          "_reward": "Wanted rewards for completing the task.",
          "_taskId": "Id of the task."
        }
      },
      "cancelTask(uint256,string)": {
        "params": {
          "_explanation": "Why the task was cancelled. (IPFS hash)",
          "_taskId": "Id of the task."
        }
      },
      "createSubmission(uint256,string)": {
        "params": {
          "_metadata": "Metadata of the submission. (IPFS hash)",
          "_taskId": "Id of the task."
        }
      },
      "createTask(string,uint64,(address,uint96)[],address,(address,(bool,address,uint88)[])[])": {
        "params": {
          "_budget": "Maximum ERC20 rewards that can be earned by completing the task.",
          "_deadline": "Block timestamp at which the task expires if not completed.",
          "_manager": "Who will manage the task (become the manager).",
          "_metadata": "Metadata of the task. (IPFS hash)"
        },
        "returns": {
          "taskId": "Id of the newly created task."
        }
      },
      "editMetadata(uint256,string)": {
        "details": "This metadata update might change the task completely. Show a warning to people who applied before the change.",
        "params": {
          "_newMetadata": "New metadata of the task.",
          "_taskId": "Id of the task."
        }
      },
      "executeRequest(uint256,uint8,uint8)": {
        "params": {
          "_requestId": "Id of the request.",
          "_requestType": "What kind of request it is.",
          "_taskId": "Id of the task."
        }
      },
      "extendDeadline(uint256,uint64)": {
        "params": {
          "_extension": "How much to extend the deadline by.",
          "_taskId": "Id of the task."
        }
      },
      "getExecutingTasks(address,uint256,uint256)": {
        "params": {
          "_executor": "The executor to fetch tasks of.",
          "_fromTaskId": "What taskId to start from. 0 for most recent task.",
          "_max": "The maximum amount of tasks to return. 0 for no max."
        }
      },
      "getManagingTasks(address,uint256,uint256)": {
        "params": {
          "_fromTaskId": "What taskId to start from. 0 for most recent task.",
          "_manager": "The manager to fetch tasks of.",
          "_max": "The maximum amount of tasks to return. 0 for no max."
        }
      },
      "getTask(uint256)": {
        "params": {
          "_taskId": "Id of the task."
        }
      },
      "getTasks(uint256[])": {
        "params": {
          "_taskIds": "Ids of the tasks."
        }
      },
      "increaseBudget(uint256,uint96[])": {
        "params": {
          "_increase": "How much to increase each tokens amount by.",
          "_taskId": "Id of the task."
        }
      },
      "reviewSubmission(uint256,uint8,uint8,string)": {
        "params": {
          "_feedback": "Reasoning of the reviewer. (IPFS hash)",
          "_judgement": "Outcome of the review.",
          "_submissionId": "Index of the submission that is reviewed.",
          "_taskId": "Id of the task."
        }
      },
      "takeTask(uint256,uint16)": {
        "params": {
          "_applicationId": "Index of application you made that has been accepted.",
          "_taskId": "Id of the task."
        }
      }
    },
    "version": 1
  },
  "userdoc": {
    "kind": "user",
    "methods": {
      "acceptApplications(uint256,uint16[])": {
        "notice": "Accept application to allow them to take the task."
      },
      "acceptRequest(uint256,uint8,uint8,bool)": {
        "notice": "Accepts a request, executing the proposed action."
      },
      "applyForTask(uint256,string,(bool,address,uint88)[])": {
        "notice": "Apply to take the task."
      },
      "cancelTask(uint256,string)": {
        "notice": "Cancels a task. This can be used to close a task and receive back the budget."
      },
      "createSubmission(uint256,string)": {
        "notice": "Create a submission."
      },
      "createTask(string,uint64,(address,uint96)[],address,(address,(bool,address,uint88)[])[])": {
        "notice": "Create a new task."
      },
      "editMetadata(uint256,string)": {
        "notice": "Edit the metadata of a task."
      },
      "executeRequest(uint256,uint8,uint8)": {
        "notice": "Exectued an accepted request, allows anyone to pay for the gas costs of the execution."
      },
      "extendDeadline(uint256,uint64)": {
        "notice": "Extend the deadline of a task."
      },
      "getExecutingTasks(address,uint256,uint256)": {
        "notice": "Retrieves all tasks of an executor. Most recent ones first."
      },
      "getManagingTasks(address,uint256,uint256)": {
        "notice": "Retrieves all tasks of a manager. Most recent ones first."
      },
      "getTask(uint256)": {
        "notice": "Retrieves all task information by id."
      },
      "getTasks(uint256[])": {
        "notice": "Retrieves multiple tasks."
      },
      "increaseBudget(uint256,uint96[])": {
        "notice": "Increase the budget of the task."
      },
      "reviewSubmission(uint256,uint8,uint8,string)": {
        "notice": "Review a submission."
      },
      "takeTask(uint256,uint16)": {
        "notice": "Take the task after your application has been accepted."
      },
      "taskCount()": {
        "notice": "Retrieves the current amount of created tasks."
      },
      "taskStatistics()": {
        "notice": "Retrieves the current statistics of created tasks."
      }
    },
    "version": 1
  },
  "storageLayout": {
    "storage": [
      {
        "astId": 817,
        "contract": "contracts/Tasks/Tasks.sol:Tasks",
        "label": "taskCounter",
        "offset": 0,
        "slot": "0",
        "type": "t_uint256"
      },
      {
        "astId": 820,
        "contract": "contracts/Tasks/Tasks.sol:Tasks",
        "label": "openTasks",
        "offset": 0,
        "slot": "1",
        "type": "t_uint256"
      },
      {
        "astId": 822,
        "contract": "contracts/Tasks/Tasks.sol:Tasks",
        "label": "takenTasks",
        "offset": 0,
        "slot": "2",
        "type": "t_uint256"
      },
      {
        "astId": 824,
        "contract": "contracts/Tasks/Tasks.sol:Tasks",
        "label": "successfulTasks",
        "offset": 0,
        "slot": "3",
        "type": "t_uint256"
      },
      {
        "astId": 830,
        "contract": "contracts/Tasks/Tasks.sol:Tasks",
        "label": "tasks",
        "offset": 0,
        "slot": "4",
        "type": "t_mapping(t_uint256,t_struct(Task)563_storage)"
      },
      {
        "astId": 833,
        "contract": "contracts/Tasks/Tasks.sol:Tasks",
        "label": "escrowImplementation",
        "offset": 0,
        "slot": "5",
        "type": "t_address"
      }
    ],
    "types": {
      "t_address": {
        "encoding": "inplace",
        "label": "address",
        "numberOfBytes": "20"
      },
      "t_bool": {
        "encoding": "inplace",
        "label": "bool",
        "numberOfBytes": "1"
      },
      "t_contract(Escrow)237": {
        "encoding": "inplace",
        "label": "contract Escrow",
        "numberOfBytes": "20"
      },
      "t_contract(IERC20)157": {
        "encoding": "inplace",
        "label": "contract IERC20",
        "numberOfBytes": "20"
      },
      "t_enum(SubmissionJudgement)492": {
        "encoding": "inplace",
        "label": "enum ITasks.SubmissionJudgement",
        "numberOfBytes": "1"
      },
      "t_enum(TaskState)517": {
        "encoding": "inplace",
        "label": "enum ITasks.TaskState",
        "numberOfBytes": "1"
      },
      "t_mapping(t_uint16,t_struct(Application)470_storage)": {
        "encoding": "mapping",
        "key": "t_uint16",
        "label": "mapping(uint16 => struct ITasks.Application)",
        "numberOfBytes": "32",
        "value": "t_struct(Application)470_storage"
      },
      "t_mapping(t_uint256,t_struct(Task)563_storage)": {
        "encoding": "mapping",
        "key": "t_uint256",
        "label": "mapping(uint256 => struct ITasks.Task)",
        "numberOfBytes": "32",
        "value": "t_struct(Task)563_storage"
      },
      "t_mapping(t_uint8,t_struct(CancelTaskRequest)513_storage)": {
        "encoding": "mapping",
        "key": "t_uint8",
        "label": "mapping(uint8 => struct ITasks.CancelTaskRequest)",
        "numberOfBytes": "32",
        "value": "t_struct(CancelTaskRequest)513_storage"
      },
      "t_mapping(t_uint8,t_struct(ERC20Transfer)449_storage)": {
        "encoding": "mapping",
        "key": "t_uint8",
        "label": "mapping(uint8 => struct ITasks.ERC20Transfer)",
        "numberOfBytes": "32",
        "value": "t_struct(ERC20Transfer)449_storage"
      },
      "t_mapping(t_uint8,t_struct(Reward)456_storage)": {
        "encoding": "mapping",
        "key": "t_uint8",
        "label": "mapping(uint8 => struct ITasks.Reward)",
        "numberOfBytes": "32",
        "value": "t_struct(Reward)456_storage"
      },
      "t_mapping(t_uint8,t_struct(Submission)500_storage)": {
        "encoding": "mapping",
        "key": "t_uint8",
        "label": "mapping(uint8 => struct ITasks.Submission)",
        "numberOfBytes": "32",
        "value": "t_struct(Submission)500_storage"
      },
      "t_string_storage": {
        "encoding": "bytes",
        "label": "string",
        "numberOfBytes": "32"
      },
      "t_struct(Application)470_storage": {
        "encoding": "inplace",
        "label": "struct ITasks.Application",
        "members": [
          {
            "astId": 458,
            "contract": "contracts/Tasks/Tasks.sol:Tasks",
            "label": "metadata",
            "offset": 0,
            "slot": "0",
            "type": "t_string_storage"
          },
          {
            "astId": 460,
            "contract": "contracts/Tasks/Tasks.sol:Tasks",
            "label": "applicant",
            "offset": 0,
            "slot": "1",
            "type": "t_address"
          },
          {
            "astId": 462,
            "contract": "contracts/Tasks/Tasks.sol:Tasks",
            "label": "accepted",
            "offset": 20,
            "slot": "1",
            "type": "t_bool"
          },
          {
            "astId": 464,
            "contract": "contracts/Tasks/Tasks.sol:Tasks",
            "label": "rewardCount",
            "offset": 21,
            "slot": "1",
            "type": "t_uint8"
          },
          {
            "astId": 469,
            "contract": "contracts/Tasks/Tasks.sol:Tasks",
            "label": "reward",
            "offset": 0,
            "slot": "2",
            "type": "t_mapping(t_uint8,t_struct(Reward)456_storage)"
          }
        ],
        "numberOfBytes": "96"
      },
      "t_struct(CancelTaskRequest)513_storage": {
        "encoding": "inplace",
        "label": "struct ITasks.CancelTaskRequest",
        "members": [
          {
            "astId": 510,
            "contract": "contracts/Tasks/Tasks.sol:Tasks",
            "label": "request",
            "offset": 0,
            "slot": "0",
            "type": "t_struct(Request)507_storage"
          },
          {
            "astId": 512,
            "contract": "contracts/Tasks/Tasks.sol:Tasks",
            "label": "explanation",
            "offset": 0,
            "slot": "1",
            "type": "t_string_storage"
          }
        ],
        "numberOfBytes": "64"
      },
      "t_struct(ERC20Transfer)449_storage": {
        "encoding": "inplace",
        "label": "struct ITasks.ERC20Transfer",
        "members": [
          {
            "astId": 446,
            "contract": "contracts/Tasks/Tasks.sol:Tasks",
            "label": "tokenContract",
            "offset": 0,
            "slot": "0",
            "type": "t_contract(IERC20)157"
          },
          {
            "astId": 448,
            "contract": "contracts/Tasks/Tasks.sol:Tasks",
            "label": "amount",
            "offset": 20,
            "slot": "0",
            "type": "t_uint96"
          }
        ],
        "numberOfBytes": "32"
      },
      "t_struct(Request)507_storage": {
        "encoding": "inplace",
        "label": "struct ITasks.Request",
        "members": [
          {
            "astId": 504,
            "contract": "contracts/Tasks/Tasks.sol:Tasks",
            "label": "accepted",
            "offset": 0,
            "slot": "0",
            "type": "t_bool"
          },
          {
            "astId": 506,
            "contract": "contracts/Tasks/Tasks.sol:Tasks",
            "label": "executed",
            "offset": 1,
            "slot": "0",
            "type": "t_bool"
          }
        ],
        "numberOfBytes": "32"
      },
      "t_struct(Reward)456_storage": {
        "encoding": "inplace",
        "label": "struct ITasks.Reward",
        "members": [
          {
            "astId": 451,
            "contract": "contracts/Tasks/Tasks.sol:Tasks",
            "label": "nextToken",
            "offset": 0,
            "slot": "0",
            "type": "t_bool"
          },
          {
            "astId": 453,
            "contract": "contracts/Tasks/Tasks.sol:Tasks",
            "label": "to",
            "offset": 1,
            "slot": "0",
            "type": "t_address"
          },
          {
            "astId": 455,
            "contract": "contracts/Tasks/Tasks.sol:Tasks",
            "label": "amount",
            "offset": 21,
            "slot": "0",
            "type": "t_uint88"
          }
        ],
        "numberOfBytes": "32"
      },
      "t_struct(Submission)500_storage": {
        "encoding": "inplace",
        "label": "struct ITasks.Submission",
        "members": [
          {
            "astId": 494,
            "contract": "contracts/Tasks/Tasks.sol:Tasks",
            "label": "metadata",
            "offset": 0,
            "slot": "0",
            "type": "t_string_storage"
          },
          {
            "astId": 496,
            "contract": "contracts/Tasks/Tasks.sol:Tasks",
            "label": "feedback",
            "offset": 0,
            "slot": "1",
            "type": "t_string_storage"
          },
          {
            "astId": 499,
            "contract": "contracts/Tasks/Tasks.sol:Tasks",
            "label": "judgement",
            "offset": 0,
            "slot": "2",
            "type": "t_enum(SubmissionJudgement)492"
          }
        ],
        "numberOfBytes": "96"
      },
      "t_struct(Task)563_storage": {
        "encoding": "inplace",
        "label": "struct ITasks.Task",
        "members": [
          {
            "astId": 519,
            "contract": "contracts/Tasks/Tasks.sol:Tasks",
            "label": "metadata",
            "offset": 0,
            "slot": "0",
            "type": "t_string_storage"
          },
          {
            "astId": 521,
            "contract": "contracts/Tasks/Tasks.sol:Tasks",
            "label": "deadline",
            "offset": 0,
            "slot": "1",
            "type": "t_uint64"
          },
          {
            "astId": 524,
            "contract": "contracts/Tasks/Tasks.sol:Tasks",
            "label": "escrow",
            "offset": 8,
            "slot": "1",
            "type": "t_contract(Escrow)237"
          },
          {
            "astId": 526,
            "contract": "contracts/Tasks/Tasks.sol:Tasks",
            "label": "creator",
            "offset": 0,
            "slot": "2",
            "type": "t_address"
          },
          {
            "astId": 528,
            "contract": "contracts/Tasks/Tasks.sol:Tasks",
            "label": "manager",
            "offset": 0,
            "slot": "3",
            "type": "t_address"
          },
          {
            "astId": 531,
            "contract": "contracts/Tasks/Tasks.sol:Tasks",
            "label": "state",
            "offset": 20,
            "slot": "3",
            "type": "t_enum(TaskState)517"
          },
          {
            "astId": 534,
            "contract": "contracts/Tasks/Tasks.sol:Tasks",
            "label": "executorApplication",
            "offset": 21,
            "slot": "3",
            "type": "t_uint16"
          },
          {
            "astId": 536,
            "contract": "contracts/Tasks/Tasks.sol:Tasks",
            "label": "budgetCount",
            "offset": 23,
            "slot": "3",
            "type": "t_uint8"
          },
          {
            "astId": 538,
            "contract": "contracts/Tasks/Tasks.sol:Tasks",
            "label": "applicationCount",
            "offset": 24,
            "slot": "3",
            "type": "t_uint16"
          },
          {
            "astId": 540,
            "contract": "contracts/Tasks/Tasks.sol:Tasks",
            "label": "submissionCount",
            "offset": 26,
            "slot": "3",
            "type": "t_uint8"
          },
          {
            "astId": 542,
            "contract": "contracts/Tasks/Tasks.sol:Tasks",
            "label": "cancelTaskRequestCount",
            "offset": 27,
            "slot": "3",
            "type": "t_uint8"
          },
          {
            "astId": 547,
            "contract": "contracts/Tasks/Tasks.sol:Tasks",
            "label": "budget",
            "offset": 0,
            "slot": "4",
            "type": "t_mapping(t_uint8,t_struct(ERC20Transfer)449_storage)"
          },
          {
            "astId": 552,
            "contract": "contracts/Tasks/Tasks.sol:Tasks",
            "label": "applications",
            "offset": 0,
            "slot": "5",
            "type": "t_mapping(t_uint16,t_struct(Application)470_storage)"
          },
          {
            "astId": 557,
            "contract": "contracts/Tasks/Tasks.sol:Tasks",
            "label": "submissions",
            "offset": 0,
            "slot": "6",
            "type": "t_mapping(t_uint8,t_struct(Submission)500_storage)"
          },
          {
            "astId": 562,
            "contract": "contracts/Tasks/Tasks.sol:Tasks",
            "label": "cancelTaskRequests",
            "offset": 0,
            "slot": "7",
            "type": "t_mapping(t_uint8,t_struct(CancelTaskRequest)513_storage)"
          }
        ],
        "numberOfBytes": "256"
      },
      "t_uint16": {
        "encoding": "inplace",
        "label": "uint16",
        "numberOfBytes": "2"
      },
      "t_uint256": {
        "encoding": "inplace",
        "label": "uint256",
        "numberOfBytes": "32"
      },
      "t_uint64": {
        "encoding": "inplace",
        "label": "uint64",
        "numberOfBytes": "8"
      },
      "t_uint8": {
        "encoding": "inplace",
        "label": "uint8",
        "numberOfBytes": "1"
      },
      "t_uint88": {
        "encoding": "inplace",
        "label": "uint88",
        "numberOfBytes": "11"
      },
      "t_uint96": {
        "encoding": "inplace",
        "label": "uint96",
        "numberOfBytes": "12"
      }
    }
  }
}