{
  "address": "0xCFAdfF377be6d81f97E49cF273794bF5796A6f1a",
  "abi": [
    {
      "inputs": [],
      "stateMutability": "nonpayable",
      "type": "constructor"
    },
    {
      "inputs": [],
      "name": "ApplicationDoesNotExist",
      "type": "error"
    },
    {
      "inputs": [],
      "name": "ApplicationNotAccepted",
      "type": "error"
    },
    {
      "inputs": [],
      "name": "NotExecutor",
      "type": "error"
    },
    {
      "inputs": [],
      "name": "NotProposer",
      "type": "error"
    },
    {
      "inputs": [],
      "name": "NotYourApplication",
      "type": "error"
    },
    {
      "inputs": [],
      "name": "RequestAlreadyAccepted",
      "type": "error"
    },
    {
      "inputs": [],
      "name": "RequestDoesNotExist",
      "type": "error"
    },
    {
      "inputs": [
        {
          "internalType": "uint8",
          "name": "index",
          "type": "uint8"
        }
      ],
      "name": "RewardAboveBudget",
      "type": "error"
    },
    {
      "inputs": [],
      "name": "SubmissionAlreadyJudged",
      "type": "error"
    },
    {
      "inputs": [],
      "name": "SubmissionDoesNotExist",
      "type": "error"
    },
    {
      "inputs": [],
      "name": "TaskClosed",
      "type": "error"
    },
    {
      "inputs": [],
      "name": "TaskDoesNotExist",
      "type": "error"
    },
    {
      "inputs": [],
      "name": "TaskNotClosed",
      "type": "error"
    },
    {
      "inputs": [],
      "name": "TaskNotOpen",
      "type": "error"
    },
    {
      "inputs": [],
      "name": "TaskNotTaken",
      "type": "error"
    },
    {
      "anonymous": false,
      "inputs": [
        {
          "indexed": false,
          "internalType": "uint256",
          "name": "taskId",
          "type": "uint256"
        },
        {
          "indexed": false,
          "internalType": "uint16",
          "name": "applicationId",
          "type": "uint16"
        },
        {
          "indexed": false,
          "internalType": "address",
          "name": "applicant",
          "type": "address"
        },
        {
          "indexed": false,
          "internalType": "string",
          "name": "metadata",
          "type": "string"
        },
        {
          "components": [
            {
              "internalType": "bool",
              "name": "nextToken",
              "type": "bool"
            },
            {
              "internalType": "address",
              "name": "to",
              "type": "address"
            },
            {
              "internalType": "uint88",
              "name": "amount",
              "type": "uint88"
            }
          ],
          "indexed": false,
          "internalType": "struct ITasks.Reward[]",
          "name": "reward",
          "type": "tuple[]"
        }
      ],
      "name": "ApplicationCreated",
      "type": "event"
    },
    {
      "anonymous": false,
      "inputs": [
        {
          "indexed": false,
          "internalType": "uint256",
          "name": "taskId",
          "type": "uint256"
        },
        {
          "indexed": false,
          "internalType": "uint16[]",
          "name": "applications",
          "type": "uint16[]"
        },
        {
          "indexed": false,
          "internalType": "address",
          "name": "proposer",
          "type": "address"
        }
      ],
      "name": "ApplicationsAccepted",
      "type": "event"
    },
    {
      "anonymous": false,
      "inputs": [
        {
          "indexed": false,
          "internalType": "uint256",
          "name": "taskId",
          "type": "uint256"
        },
        {
          "indexed": false,
          "internalType": "uint8",
          "name": "submissionId",
          "type": "uint8"
        },
        {
          "indexed": false,
          "internalType": "address",
          "name": "executor",
          "type": "address"
        },
        {
          "indexed": false,
          "internalType": "string",
          "name": "metadata",
          "type": "string"
        }
      ],
      "name": "SubmissionCreated",
      "type": "event"
    },
    {
      "anonymous": false,
      "inputs": [
        {
          "indexed": false,
          "internalType": "uint256",
          "name": "taskId",
          "type": "uint256"
        },
        {
          "indexed": false,
          "internalType": "uint8",
          "name": "submissionId",
          "type": "uint8"
        },
        {
          "indexed": false,
          "internalType": "address",
          "name": "proposer",
          "type": "address"
        },
        {
          "indexed": false,
          "internalType": "enum ITasks.SubmissionJudgement",
          "name": "judgement",
          "type": "uint8"
        },
        {
          "indexed": false,
          "internalType": "string",
          "name": "feedback",
          "type": "string"
        }
      ],
      "name": "SubmissionReviewed",
      "type": "event"
    },
    {
      "anonymous": false,
      "inputs": [
        {
          "indexed": false,
          "internalType": "uint256",
          "name": "taskId",
          "type": "uint256"
        },
        {
          "indexed": false,
          "internalType": "address",
          "name": "proposer",
          "type": "address"
        },
        {
          "indexed": false,
          "internalType": "string",
          "name": "metadata",
          "type": "string"
        },
        {
          "indexed": false,
          "internalType": "uint64",
          "name": "deadline",
          "type": "uint64"
        },
        {
          "components": [
            {
              "internalType": "contract IERC20",
              "name": "tokenContract",
              "type": "address"
            },
            {
              "internalType": "uint96",
              "name": "amount",
              "type": "uint96"
            }
          ],
          "indexed": false,
          "internalType": "struct ITasks.ERC20Transfer[]",
          "name": "budget",
          "type": "tuple[]"
        }
      ],
      "name": "TaskCreated",
      "type": "event"
    },
    {
      "anonymous": false,
      "inputs": [
        {
          "indexed": false,
          "internalType": "uint256",
          "name": "taskId",
          "type": "uint256"
        },
        {
          "indexed": false,
          "internalType": "uint16",
          "name": "applicationId",
          "type": "uint16"
        },
        {
          "indexed": false,
          "internalType": "address",
          "name": "applicant",
          "type": "address"
        }
      ],
      "name": "TaskTaken",
      "type": "event"
    },
    {
      "inputs": [
        {
          "internalType": "uint256",
          "name": "_taskId",
          "type": "uint256"
        },
        {
          "internalType": "uint16[]",
          "name": "_applications",
          "type": "uint16[]"
        }
      ],
      "name": "acceptApplications",
      "outputs": [],
      "stateMutability": "nonpayable",
      "type": "function"
    },
    {
      "inputs": [
        {
          "internalType": "uint256",
          "name": "_taskId",
          "type": "uint256"
        },
        {
          "internalType": "enum ITasks.RequestType",
          "name": "_requestType",
          "type": "uint8"
        },
        {
          "internalType": "uint8",
          "name": "_requestId",
          "type": "uint8"
        }
      ],
      "name": "acceptRequest",
      "outputs": [],
      "stateMutability": "nonpayable",
      "type": "function"
    },
    {
      "inputs": [
        {
          "internalType": "uint256",
          "name": "_taskId",
          "type": "uint256"
        },
        {
          "internalType": "string",
          "name": "_metadata",
          "type": "string"
        },
        {
          "components": [
            {
              "internalType": "bool",
              "name": "nextToken",
              "type": "bool"
            },
            {
              "internalType": "address",
              "name": "to",
              "type": "address"
            },
            {
              "internalType": "uint88",
              "name": "amount",
              "type": "uint88"
            }
          ],
          "internalType": "struct ITasks.Reward[]",
          "name": "_reward",
          "type": "tuple[]"
        }
      ],
      "name": "applyForTask",
      "outputs": [
        {
          "internalType": "uint16",
          "name": "applicationId",
          "type": "uint16"
        }
      ],
      "stateMutability": "nonpayable",
      "type": "function"
    },
    {
      "inputs": [
        {
          "internalType": "uint256",
          "name": "_taskId",
          "type": "uint256"
        },
        {
          "internalType": "string",
          "name": "_explanation",
          "type": "string"
        }
      ],
      "name": "cancelTask",
      "outputs": [
        {
          "internalType": "uint8",
          "name": "cancelTaskRequestId",
          "type": "uint8"
        }
      ],
      "stateMutability": "nonpayable",
      "type": "function"
    },
    {
      "inputs": [
        {
          "internalType": "uint256",
          "name": "_taskId",
          "type": "uint256"
        },
        {
          "internalType": "string",
          "name": "_newMetadata",
          "type": "string"
        },
        {
          "internalType": "uint64",
          "name": "_newDeadline",
          "type": "uint64"
        },
        {
          "components": [
            {
              "internalType": "bool",
              "name": "nextToken",
              "type": "bool"
            },
            {
              "internalType": "address",
              "name": "to",
              "type": "address"
            },
            {
              "internalType": "uint88",
              "name": "amount",
              "type": "uint88"
            }
          ],
          "internalType": "struct ITasks.Reward[]",
          "name": "_newReward",
          "type": "tuple[]"
        }
      ],
      "name": "changeScope",
      "outputs": [
        {
          "internalType": "uint8",
          "name": "changeTaskRequestId",
          "type": "uint8"
        }
      ],
      "stateMutability": "nonpayable",
      "type": "function"
    },
    {
      "inputs": [
        {
          "internalType": "uint256",
          "name": "_taskId",
          "type": "uint256"
        },
        {
          "internalType": "string",
          "name": "_metadata",
          "type": "string"
        }
      ],
      "name": "createSubmission",
      "outputs": [
        {
          "internalType": "uint8",
          "name": "submissionId",
          "type": "uint8"
        }
      ],
      "stateMutability": "nonpayable",
      "type": "function"
    },
    {
      "inputs": [
        {
          "internalType": "string",
          "name": "_metadata",
          "type": "string"
        },
        {
          "internalType": "uint64",
          "name": "_deadline",
          "type": "uint64"
        },
        {
          "components": [
            {
              "internalType": "contract IERC20",
              "name": "tokenContract",
              "type": "address"
            },
            {
              "internalType": "uint96",
              "name": "amount",
              "type": "uint96"
            }
          ],
          "internalType": "struct ITasks.ERC20Transfer[]",
          "name": "_budget",
          "type": "tuple[]"
        }
      ],
      "name": "createTask",
      "outputs": [
        {
          "internalType": "uint256",
          "name": "taskId",
          "type": "uint256"
        }
      ],
      "stateMutability": "nonpayable",
      "type": "function"
    },
    {
      "inputs": [
        {
          "internalType": "uint256",
          "name": "_taskId",
          "type": "uint256"
        },
        {
          "internalType": "string",
          "name": "_explanation",
          "type": "string"
        }
      ],
      "name": "dropExecutor",
      "outputs": [
        {
          "internalType": "uint8",
          "name": "dropExecutorRequestId",
          "type": "uint8"
        }
      ],
      "stateMutability": "nonpayable",
      "type": "function"
    },
    {
      "inputs": [
        {
          "internalType": "address",
          "name": "_executor",
          "type": "address"
        },
        {
          "internalType": "uint256",
          "name": "_fromTaskId",
          "type": "uint256"
        },
        {
          "internalType": "uint256",
          "name": "_max",
          "type": "uint256"
        }
      ],
      "name": "getExecutingTasks",
      "outputs": [
        {
          "components": [
            {
              "internalType": "string",
              "name": "metadata",
              "type": "string"
            },
            {
              "internalType": "uint64",
              "name": "deadline",
              "type": "uint64"
            },
            {
              "internalType": "uint64",
              "name": "creationTimestamp",
              "type": "uint64"
            },
            {
              "internalType": "uint64",
              "name": "executorConfirmationTimestamp",
              "type": "uint64"
            },
            {
              "internalType": "uint16",
              "name": "executorApplication",
              "type": "uint16"
            },
            {
              "internalType": "address",
              "name": "proposer",
              "type": "address"
            },
            {
              "internalType": "enum ITasks.TaskState",
              "name": "state",
              "type": "uint8"
            },
            {
              "internalType": "contract Escrow",
              "name": "escrow",
              "type": "address"
            },
            {
              "components": [
                {
                  "internalType": "contract IERC20",
                  "name": "tokenContract",
                  "type": "address"
                },
                {
                  "internalType": "uint96",
                  "name": "amount",
                  "type": "uint96"
                }
              ],
              "internalType": "struct ITasks.ERC20Transfer[]",
              "name": "budget",
              "type": "tuple[]"
            },
            {
              "components": [
                {
                  "internalType": "string",
                  "name": "metadata",
                  "type": "string"
                },
                {
                  "internalType": "uint64",
                  "name": "timestamp",
                  "type": "uint64"
                },
                {
                  "internalType": "address",
                  "name": "applicant",
                  "type": "address"
                },
                {
                  "internalType": "bool",
                  "name": "accepted",
                  "type": "bool"
                },
                {
                  "components": [
                    {
                      "internalType": "bool",
                      "name": "nextToken",
                      "type": "bool"
                    },
                    {
                      "internalType": "address",
                      "name": "to",
                      "type": "address"
                    },
                    {
                      "internalType": "uint88",
                      "name": "amount",
                      "type": "uint88"
                    }
                  ],
                  "internalType": "struct ITasks.Reward[]",
                  "name": "reward",
                  "type": "tuple[]"
                }
              ],
              "internalType": "struct ITasks.OffChainApplication[]",
              "name": "applications",
              "type": "tuple[]"
            },
            {
              "components": [
                {
                  "internalType": "string",
                  "name": "metadata",
                  "type": "string"
                },
                {
                  "internalType": "uint64",
                  "name": "timestamp",
                  "type": "uint64"
                },
                {
                  "internalType": "enum ITasks.SubmissionJudgement",
                  "name": "judgement",
                  "type": "uint8"
                },
                {
                  "internalType": "uint64",
                  "name": "judgementTimestamp",
                  "type": "uint64"
                },
                {
                  "internalType": "string",
                  "name": "feedback",
                  "type": "string"
                }
              ],
              "internalType": "struct ITasks.Submission[]",
              "name": "submissions",
              "type": "tuple[]"
            },
            {
              "components": [
                {
                  "internalType": "string",
                  "name": "metadata",
                  "type": "string"
                },
                {
                  "internalType": "uint64",
                  "name": "timestamp",
                  "type": "uint64"
                },
                {
                  "internalType": "uint64",
                  "name": "accepted",
                  "type": "uint64"
                },
                {
                  "internalType": "uint64",
                  "name": "deadline",
                  "type": "uint64"
                },
                {
                  "components": [
                    {
                      "internalType": "bool",
                      "name": "nextToken",
                      "type": "bool"
                    },
                    {
                      "internalType": "address",
                      "name": "to",
                      "type": "address"
                    },
                    {
                      "internalType": "uint88",
                      "name": "amount",
                      "type": "uint88"
                    }
                  ],
                  "internalType": "struct ITasks.Reward[]",
                  "name": "reward",
                  "type": "tuple[]"
                }
              ],
              "internalType": "struct ITasks.OffChainChangeScopeRequest[]",
              "name": "changeScopeRequests",
              "type": "tuple[]"
            },
            {
              "components": [
                {
                  "internalType": "string",
                  "name": "explanation",
                  "type": "string"
                },
                {
                  "internalType": "uint64",
                  "name": "timestamp",
                  "type": "uint64"
                },
                {
                  "internalType": "uint64",
                  "name": "accepted",
                  "type": "uint64"
                }
              ],
              "internalType": "struct ITasks.DropExecutorRequest[]",
              "name": "dropExecutorRequests",
              "type": "tuple[]"
            },
            {
              "components": [
                {
                  "internalType": "string",
                  "name": "explanation",
                  "type": "string"
                },
                {
                  "internalType": "uint64",
                  "name": "timestamp",
                  "type": "uint64"
                },
                {
                  "internalType": "uint64",
                  "name": "accepted",
                  "type": "uint64"
                }
              ],
              "internalType": "struct ITasks.CancelTaskRequest[]",
              "name": "cancelTaskRequests",
              "type": "tuple[]"
            }
          ],
          "internalType": "struct ITasks.OffChainTask[]",
          "name": "",
          "type": "tuple[]"
        }
      ],
      "stateMutability": "view",
      "type": "function"
    },
    {
      "inputs": [
        {
          "internalType": "address",
          "name": "_proposer",
          "type": "address"
        },
        {
          "internalType": "uint256",
          "name": "_fromTaskId",
          "type": "uint256"
        },
        {
          "internalType": "uint256",
          "name": "_max",
          "type": "uint256"
        }
      ],
      "name": "getProposingTasks",
      "outputs": [
        {
          "components": [
            {
              "internalType": "string",
              "name": "metadata",
              "type": "string"
            },
            {
              "internalType": "uint64",
              "name": "deadline",
              "type": "uint64"
            },
            {
              "internalType": "uint64",
              "name": "creationTimestamp",
              "type": "uint64"
            },
            {
              "internalType": "uint64",
              "name": "executorConfirmationTimestamp",
              "type": "uint64"
            },
            {
              "internalType": "uint16",
              "name": "executorApplication",
              "type": "uint16"
            },
            {
              "internalType": "address",
              "name": "proposer",
              "type": "address"
            },
            {
              "internalType": "enum ITasks.TaskState",
              "name": "state",
              "type": "uint8"
            },
            {
              "internalType": "contract Escrow",
              "name": "escrow",
              "type": "address"
            },
            {
              "components": [
                {
                  "internalType": "contract IERC20",
                  "name": "tokenContract",
                  "type": "address"
                },
                {
                  "internalType": "uint96",
                  "name": "amount",
                  "type": "uint96"
                }
              ],
              "internalType": "struct ITasks.ERC20Transfer[]",
              "name": "budget",
              "type": "tuple[]"
            },
            {
              "components": [
                {
                  "internalType": "string",
                  "name": "metadata",
                  "type": "string"
                },
                {
                  "internalType": "uint64",
                  "name": "timestamp",
                  "type": "uint64"
                },
                {
                  "internalType": "address",
                  "name": "applicant",
                  "type": "address"
                },
                {
                  "internalType": "bool",
                  "name": "accepted",
                  "type": "bool"
                },
                {
                  "components": [
                    {
                      "internalType": "bool",
                      "name": "nextToken",
                      "type": "bool"
                    },
                    {
                      "internalType": "address",
                      "name": "to",
                      "type": "address"
                    },
                    {
                      "internalType": "uint88",
                      "name": "amount",
                      "type": "uint88"
                    }
                  ],
                  "internalType": "struct ITasks.Reward[]",
                  "name": "reward",
                  "type": "tuple[]"
                }
              ],
              "internalType": "struct ITasks.OffChainApplication[]",
              "name": "applications",
              "type": "tuple[]"
            },
            {
              "components": [
                {
                  "internalType": "string",
                  "name": "metadata",
                  "type": "string"
                },
                {
                  "internalType": "uint64",
                  "name": "timestamp",
                  "type": "uint64"
                },
                {
                  "internalType": "enum ITasks.SubmissionJudgement",
                  "name": "judgement",
                  "type": "uint8"
                },
                {
                  "internalType": "uint64",
                  "name": "judgementTimestamp",
                  "type": "uint64"
                },
                {
                  "internalType": "string",
                  "name": "feedback",
                  "type": "string"
                }
              ],
              "internalType": "struct ITasks.Submission[]",
              "name": "submissions",
              "type": "tuple[]"
            },
            {
              "components": [
                {
                  "internalType": "string",
                  "name": "metadata",
                  "type": "string"
                },
                {
                  "internalType": "uint64",
                  "name": "timestamp",
                  "type": "uint64"
                },
                {
                  "internalType": "uint64",
                  "name": "accepted",
                  "type": "uint64"
                },
                {
                  "internalType": "uint64",
                  "name": "deadline",
                  "type": "uint64"
                },
                {
                  "components": [
                    {
                      "internalType": "bool",
                      "name": "nextToken",
                      "type": "bool"
                    },
                    {
                      "internalType": "address",
                      "name": "to",
                      "type": "address"
                    },
                    {
                      "internalType": "uint88",
                      "name": "amount",
                      "type": "uint88"
                    }
                  ],
                  "internalType": "struct ITasks.Reward[]",
                  "name": "reward",
                  "type": "tuple[]"
                }
              ],
              "internalType": "struct ITasks.OffChainChangeScopeRequest[]",
              "name": "changeScopeRequests",
              "type": "tuple[]"
            },
            {
              "components": [
                {
                  "internalType": "string",
                  "name": "explanation",
                  "type": "string"
                },
                {
                  "internalType": "uint64",
                  "name": "timestamp",
                  "type": "uint64"
                },
                {
                  "internalType": "uint64",
                  "name": "accepted",
                  "type": "uint64"
                }
              ],
              "internalType": "struct ITasks.DropExecutorRequest[]",
              "name": "dropExecutorRequests",
              "type": "tuple[]"
            },
            {
              "components": [
                {
                  "internalType": "string",
                  "name": "explanation",
                  "type": "string"
                },
                {
                  "internalType": "uint64",
                  "name": "timestamp",
                  "type": "uint64"
                },
                {
                  "internalType": "uint64",
                  "name": "accepted",
                  "type": "uint64"
                }
              ],
              "internalType": "struct ITasks.CancelTaskRequest[]",
              "name": "cancelTaskRequests",
              "type": "tuple[]"
            }
          ],
          "internalType": "struct ITasks.OffChainTask[]",
          "name": "",
          "type": "tuple[]"
        }
      ],
      "stateMutability": "view",
      "type": "function"
    },
    {
      "inputs": [
        {
          "internalType": "uint256",
          "name": "_taskId",
          "type": "uint256"
        }
      ],
      "name": "getTask",
      "outputs": [
        {
          "components": [
            {
              "internalType": "string",
              "name": "metadata",
              "type": "string"
            },
            {
              "internalType": "uint64",
              "name": "deadline",
              "type": "uint64"
            },
            {
              "internalType": "uint64",
              "name": "creationTimestamp",
              "type": "uint64"
            },
            {
              "internalType": "uint64",
              "name": "executorConfirmationTimestamp",
              "type": "uint64"
            },
            {
              "internalType": "uint16",
              "name": "executorApplication",
              "type": "uint16"
            },
            {
              "internalType": "address",
              "name": "proposer",
              "type": "address"
            },
            {
              "internalType": "enum ITasks.TaskState",
              "name": "state",
              "type": "uint8"
            },
            {
              "internalType": "contract Escrow",
              "name": "escrow",
              "type": "address"
            },
            {
              "components": [
                {
                  "internalType": "contract IERC20",
                  "name": "tokenContract",
                  "type": "address"
                },
                {
                  "internalType": "uint96",
                  "name": "amount",
                  "type": "uint96"
                }
              ],
              "internalType": "struct ITasks.ERC20Transfer[]",
              "name": "budget",
              "type": "tuple[]"
            },
            {
              "components": [
                {
                  "internalType": "string",
                  "name": "metadata",
                  "type": "string"
                },
                {
                  "internalType": "uint64",
                  "name": "timestamp",
                  "type": "uint64"
                },
                {
                  "internalType": "address",
                  "name": "applicant",
                  "type": "address"
                },
                {
                  "internalType": "bool",
                  "name": "accepted",
                  "type": "bool"
                },
                {
                  "components": [
                    {
                      "internalType": "bool",
                      "name": "nextToken",
                      "type": "bool"
                    },
                    {
                      "internalType": "address",
                      "name": "to",
                      "type": "address"
                    },
                    {
                      "internalType": "uint88",
                      "name": "amount",
                      "type": "uint88"
                    }
                  ],
                  "internalType": "struct ITasks.Reward[]",
                  "name": "reward",
                  "type": "tuple[]"
                }
              ],
              "internalType": "struct ITasks.OffChainApplication[]",
              "name": "applications",
              "type": "tuple[]"
            },
            {
              "components": [
                {
                  "internalType": "string",
                  "name": "metadata",
                  "type": "string"
                },
                {
                  "internalType": "uint64",
                  "name": "timestamp",
                  "type": "uint64"
                },
                {
                  "internalType": "enum ITasks.SubmissionJudgement",
                  "name": "judgement",
                  "type": "uint8"
                },
                {
                  "internalType": "uint64",
                  "name": "judgementTimestamp",
                  "type": "uint64"
                },
                {
                  "internalType": "string",
                  "name": "feedback",
                  "type": "string"
                }
              ],
              "internalType": "struct ITasks.Submission[]",
              "name": "submissions",
              "type": "tuple[]"
            },
            {
              "components": [
                {
                  "internalType": "string",
                  "name": "metadata",
                  "type": "string"
                },
                {
                  "internalType": "uint64",
                  "name": "timestamp",
                  "type": "uint64"
                },
                {
                  "internalType": "uint64",
                  "name": "accepted",
                  "type": "uint64"
                },
                {
                  "internalType": "uint64",
                  "name": "deadline",
                  "type": "uint64"
                },
                {
                  "components": [
                    {
                      "internalType": "bool",
                      "name": "nextToken",
                      "type": "bool"
                    },
                    {
                      "internalType": "address",
                      "name": "to",
                      "type": "address"
                    },
                    {
                      "internalType": "uint88",
                      "name": "amount",
                      "type": "uint88"
                    }
                  ],
                  "internalType": "struct ITasks.Reward[]",
                  "name": "reward",
                  "type": "tuple[]"
                }
              ],
              "internalType": "struct ITasks.OffChainChangeScopeRequest[]",
              "name": "changeScopeRequests",
              "type": "tuple[]"
            },
            {
              "components": [
                {
                  "internalType": "string",
                  "name": "explanation",
                  "type": "string"
                },
                {
                  "internalType": "uint64",
                  "name": "timestamp",
                  "type": "uint64"
                },
                {
                  "internalType": "uint64",
                  "name": "accepted",
                  "type": "uint64"
                }
              ],
              "internalType": "struct ITasks.DropExecutorRequest[]",
              "name": "dropExecutorRequests",
              "type": "tuple[]"
            },
            {
              "components": [
                {
                  "internalType": "string",
                  "name": "explanation",
                  "type": "string"
                },
                {
                  "internalType": "uint64",
                  "name": "timestamp",
                  "type": "uint64"
                },
                {
                  "internalType": "uint64",
                  "name": "accepted",
                  "type": "uint64"
                }
              ],
              "internalType": "struct ITasks.CancelTaskRequest[]",
              "name": "cancelTaskRequests",
              "type": "tuple[]"
            }
          ],
          "internalType": "struct ITasks.OffChainTask",
          "name": "offchainTask",
          "type": "tuple"
        }
      ],
      "stateMutability": "view",
      "type": "function"
    },
    {
      "inputs": [
        {
          "internalType": "uint256[]",
          "name": "_taskIds",
          "type": "uint256[]"
        }
      ],
      "name": "getTasks",
      "outputs": [
        {
          "components": [
            {
              "internalType": "string",
              "name": "metadata",
              "type": "string"
            },
            {
              "internalType": "uint64",
              "name": "deadline",
              "type": "uint64"
            },
            {
              "internalType": "uint64",
              "name": "creationTimestamp",
              "type": "uint64"
            },
            {
              "internalType": "uint64",
              "name": "executorConfirmationTimestamp",
              "type": "uint64"
            },
            {
              "internalType": "uint16",
              "name": "executorApplication",
              "type": "uint16"
            },
            {
              "internalType": "address",
              "name": "proposer",
              "type": "address"
            },
            {
              "internalType": "enum ITasks.TaskState",
              "name": "state",
              "type": "uint8"
            },
            {
              "internalType": "contract Escrow",
              "name": "escrow",
              "type": "address"
            },
            {
              "components": [
                {
                  "internalType": "contract IERC20",
                  "name": "tokenContract",
                  "type": "address"
                },
                {
                  "internalType": "uint96",
                  "name": "amount",
                  "type": "uint96"
                }
              ],
              "internalType": "struct ITasks.ERC20Transfer[]",
              "name": "budget",
              "type": "tuple[]"
            },
            {
              "components": [
                {
                  "internalType": "string",
                  "name": "metadata",
                  "type": "string"
                },
                {
                  "internalType": "uint64",
                  "name": "timestamp",
                  "type": "uint64"
                },
                {
                  "internalType": "address",
                  "name": "applicant",
                  "type": "address"
                },
                {
                  "internalType": "bool",
                  "name": "accepted",
                  "type": "bool"
                },
                {
                  "components": [
                    {
                      "internalType": "bool",
                      "name": "nextToken",
                      "type": "bool"
                    },
                    {
                      "internalType": "address",
                      "name": "to",
                      "type": "address"
                    },
                    {
                      "internalType": "uint88",
                      "name": "amount",
                      "type": "uint88"
                    }
                  ],
                  "internalType": "struct ITasks.Reward[]",
                  "name": "reward",
                  "type": "tuple[]"
                }
              ],
              "internalType": "struct ITasks.OffChainApplication[]",
              "name": "applications",
              "type": "tuple[]"
            },
            {
              "components": [
                {
                  "internalType": "string",
                  "name": "metadata",
                  "type": "string"
                },
                {
                  "internalType": "uint64",
                  "name": "timestamp",
                  "type": "uint64"
                },
                {
                  "internalType": "enum ITasks.SubmissionJudgement",
                  "name": "judgement",
                  "type": "uint8"
                },
                {
                  "internalType": "uint64",
                  "name": "judgementTimestamp",
                  "type": "uint64"
                },
                {
                  "internalType": "string",
                  "name": "feedback",
                  "type": "string"
                }
              ],
              "internalType": "struct ITasks.Submission[]",
              "name": "submissions",
              "type": "tuple[]"
            },
            {
              "components": [
                {
                  "internalType": "string",
                  "name": "metadata",
                  "type": "string"
                },
                {
                  "internalType": "uint64",
                  "name": "timestamp",
                  "type": "uint64"
                },
                {
                  "internalType": "uint64",
                  "name": "accepted",
                  "type": "uint64"
                },
                {
                  "internalType": "uint64",
                  "name": "deadline",
                  "type": "uint64"
                },
                {
                  "components": [
                    {
                      "internalType": "bool",
                      "name": "nextToken",
                      "type": "bool"
                    },
                    {
                      "internalType": "address",
                      "name": "to",
                      "type": "address"
                    },
                    {
                      "internalType": "uint88",
                      "name": "amount",
                      "type": "uint88"
                    }
                  ],
                  "internalType": "struct ITasks.Reward[]",
                  "name": "reward",
                  "type": "tuple[]"
                }
              ],
              "internalType": "struct ITasks.OffChainChangeScopeRequest[]",
              "name": "changeScopeRequests",
              "type": "tuple[]"
            },
            {
              "components": [
                {
                  "internalType": "string",
                  "name": "explanation",
                  "type": "string"
                },
                {
                  "internalType": "uint64",
                  "name": "timestamp",
                  "type": "uint64"
                },
                {
                  "internalType": "uint64",
                  "name": "accepted",
                  "type": "uint64"
                }
              ],
              "internalType": "struct ITasks.DropExecutorRequest[]",
              "name": "dropExecutorRequests",
              "type": "tuple[]"
            },
            {
              "components": [
                {
                  "internalType": "string",
                  "name": "explanation",
                  "type": "string"
                },
                {
                  "internalType": "uint64",
                  "name": "timestamp",
                  "type": "uint64"
                },
                {
                  "internalType": "uint64",
                  "name": "accepted",
                  "type": "uint64"
                }
              ],
              "internalType": "struct ITasks.CancelTaskRequest[]",
              "name": "cancelTaskRequests",
              "type": "tuple[]"
            }
          ],
          "internalType": "struct ITasks.OffChainTask[]",
          "name": "",
          "type": "tuple[]"
        }
      ],
      "stateMutability": "view",
      "type": "function"
    },
    {
      "inputs": [
        {
          "internalType": "uint256",
          "name": "_taskId",
          "type": "uint256"
        },
        {
          "internalType": "uint8",
          "name": "_submission",
          "type": "uint8"
        },
        {
          "internalType": "enum ITasks.SubmissionJudgement",
          "name": "_judgement",
          "type": "uint8"
        },
        {
          "internalType": "string",
          "name": "_feedback",
          "type": "string"
        }
      ],
      "name": "reviewSubmission",
      "outputs": [],
      "stateMutability": "nonpayable",
      "type": "function"
    },
    {
      "inputs": [
        {
          "internalType": "uint256",
          "name": "_taskId",
          "type": "uint256"
        },
        {
          "internalType": "uint16",
          "name": "_application",
          "type": "uint16"
        }
      ],
      "name": "takeTask",
      "outputs": [],
      "stateMutability": "nonpayable",
      "type": "function"
    },
    {
      "inputs": [],
      "name": "taskCount",
      "outputs": [
        {
          "internalType": "uint256",
          "name": "",
          "type": "uint256"
        }
      ],
      "stateMutability": "view",
      "type": "function"
    },
    {
      "inputs": [],
      "name": "taskStatistics",
      "outputs": [
        {
          "internalType": "uint256",
          "name": "",
          "type": "uint256"
        },
        {
          "internalType": "uint256",
          "name": "",
          "type": "uint256"
        },
        {
          "internalType": "uint256",
          "name": "",
          "type": "uint256"
        }
      ],
      "stateMutability": "view",
      "type": "function"
    }
  ],
  "transactionHash": "0x809977d1068e731e7613629fb2dc89b2d12f23880fa0bde410cb6c74ac5b96fe",
  "args": [],
  "numDeployments": 8,
  "solcInputHash": "ef255d94e432a1e8f564853c9b8d6afb",
  "bytecode": "0x60806040523480156200001157600080fd5b50604051620000209062000064565b604051809103906000f0801580156200003d573d6000803e3d6000fd5b50600580546001600160a01b0319166001600160a01b039290921691909117905562000072565b6102a9806200590983390190565b61588780620000826000396000f3fe608060405234801561001057600080fd5b50600436106101005760003560e01c806376645a9311610097578063b685504b11610066578063b685504b14610252578063b6cb58a514610265578063e3ee50d41461026d578063ecb8adae1461028057600080fd5b806376645a93146101f857806377b984191461020b578063a11484121461021e578063a5e99c4e1461023f57600080fd5b80633f74d41d116100d35780633f74d41d1461017657806352a63d49146101895780635ac1d773146101af57806362b65da9146101d357600080fd5b80630353ce60146101055780631d65e77e1461012e5780633a05f7541461014e5780633f561a4014610163575b600080fd5b610118610113366004614458565b610293565b6040516101259190614a48565b60405180910390f35b61014161013c366004614ac8565b6103c5565b6040516101259190614ae1565b61016161015c366004614b12565b61166f565b005b610161610171366004614b50565b611da2565b610118610184366004614458565b61201a565b61019c610197366004614c5d565b6121b2565b60405161ffff9091168152602001610125565b60015460025460035460408051938452602084019290925290820152606001610125565b6101e66101e1366004614cef565b6125b1565b60405160ff9091168152602001610125565b610118610206366004614dab565b612aa2565b610161610219366004614e87565b612bd6565b61023161022c366004614ee7565b6133c0565b604051908152602001610125565b6101e661024d366004614f98565b613773565b610161610260366004614ff6565b6139b3565b600054610231565b6101e661027b366004614f98565b613cd0565b6101e661028e366004614f98565b613eb7565b600080546060918167ffffffffffffffff8111156102b3576102b3614d7c565b6040519080825280602002602001820160405280156102dc578160200160208202803683370190505b5090506000856000036102f7576102f4600184615022565b95505b855b7fffffffffffffffffffffffffffffffffffffffffffffffffffffffffffffffff81146103a65760008181526004602052604090206003015473ffffffffffffffffffffffffffffffffffffffff808a1691160361037f578083838151811061036457610364615062565b602002602001018181525050816001019150858203156103a6575b7fffffffffffffffffffffffffffffffffffffffffffffffffffffffffffffffff016102f9565b5080830382510382526103b882612aa2565b93505050505b9392505050565b61044d604080516101c081018252606080825260006020830181905292820183905281018290526080810182905260a081018290529060c08201908152602001600073ffffffffffffffffffffffffffffffffffffffff1681526020016060815260200160608152602001606081526020016060815260200160608152602001606081525090565b6000548210610488576040517fda319dff00000000000000000000000000000000000000000000000000000000815260040160405180910390fd5b6000828152600460205260409020805481906104a390615091565b80601f01602080910402602001604051908101604052809291908181526020018280546104cf90615091565b801561051c5780601f106104f15761010080835404028352916020019161051c565b820191906000526020600020905b8154815290600101906020018083116104ff57829003601f168201915b5050509184525050600181015467ffffffffffffffff700100000000000000000000000000000000820481166020850152808216604085015268010000000000000000909104166060830152600381015461ffff7501000000000000000000000000000000000000000000820416608084015273ffffffffffffffffffffffffffffffffffffffff811660a084015260c083019060ff740100000000000000000000000000000000000000009091041660028111156105dd576105dd6144f1565b908160028111156105f0576105f06144f1565b905250600281015473ffffffffffffffffffffffffffffffffffffffff1660e0830152600381015477010000000000000000000000000000000000000000000000900460ff1667ffffffffffffffff81111561064e5761064e614d7c565b60405190808252806020026020018201604052801561069357816020015b604080518082019091526000808252602082015281526020019060019003908161066c5790505b5061010083015260005b826101000151518160ff16101561073f5760ff8116600081815260048401602090815260409182902082518084019093525473ffffffffffffffffffffffffffffffffffffffff811683527401000000000000000000000000000000000000000090046bffffffffffffffffffffffff1690820152610100850151805191929091811061072c5761072c615062565b602090810291909101015260010161069d565b5060038101547801000000000000000000000000000000000000000000000000900461ffff1667ffffffffffffffff81111561077d5761077d614d7c565b60405190808252806020026020018201604052801561080257816020015b6107ef6040518060a0016040528060608152602001600067ffffffffffffffff168152602001600073ffffffffffffffffffffffffffffffffffffffff168152602001600015158152602001606081525090565b81526020019060019003908161079b5790505b5061012083015260005b826101200151518160ff161015610bd25760ff8116600090815260058301602052604090208054819061083e90615091565b80601f016020809104026020016040519081016040528092919081815260200182805461086a90615091565b80156108b75780601f1061088c576101008083540402835291602001916108b7565b820191906000526020600020905b81548152906001019060200180831161089a57829003601f168201915b50505050508461012001518360ff16815181106108d6576108d6615062565b6020908102919091010151526001810154610120850151805167ffffffffffffffff9092169160ff851690811061090f5761090f615062565b60200260200101516020019067ffffffffffffffff16908167ffffffffffffffff16815250508060010160089054906101000a900473ffffffffffffffffffffffffffffffffffffffff168461012001518360ff168151811061097457610974615062565b602090810291909101015173ffffffffffffffffffffffffffffffffffffffff9091166040909101526001810154610120850151805160ff7c010000000000000000000000000000000000000000000000000000000090930483169285169081106109e1576109e1615062565b602090810291909101015190151560609091015260018101547d010000000000000000000000000000000000000000000000000000000000900460ff1667ffffffffffffffff811115610a3657610a36614d7c565b604051908082528060200260200182016040528015610a9f57816020015b60408051606081018252600080825260208083018290529282015282527fffffffffffffffffffffffffffffffffffffffffffffffffffffffffffffffff909201910181610a545790505b508461012001518360ff1681518110610aba57610aba615062565b60200260200101516080018190525060005b8461012001518360ff1681518110610ae657610ae6615062565b602002602001015160800151518160ff161015610bc85760ff81811660009081526002840160209081526040918290208251606081018452905480851615158252610100810473ffffffffffffffffffffffffffffffffffffffff169282019290925275010000000000000000000000000000000000000000009091046affffffffffffffffffffff1691810191909152610120870151805191929091908616908110610b9557610b95615062565b6020026020010151608001518260ff1681518110610bb557610bb5615062565b6020908102919091010152600101610acc565b505060010161080c565b5060038101547a010000000000000000000000000000000000000000000000000000900460ff1667ffffffffffffffff811115610c1157610c11614d7c565b604051908082528060200260200182016040528015610c7557816020015b610c626040805160a081018252606081526000602082018190529091820190815260006020820152606060409091015290565b815260200190600190039081610c2f5790505b5061014083015260005b826101400151518160ff161015610e725760ff8116600090815260068301602052604090819020815160a08101909252805482908290610cbe90615091565b80601f0160208091040260200160405190810160405280929190818152602001828054610cea90615091565b8015610d375780601f10610d0c57610100808354040283529160200191610d37565b820191906000526020600020905b815481529060010190602001808311610d1a57829003601f168201915b5050509183525050600182015467ffffffffffffffff8116602083015260409091019068010000000000000000900460ff166002811115610d7a57610d7a6144f1565b6002811115610d8b57610d8b6144f1565b815260018201546901000000000000000000900467ffffffffffffffff166020820152600282018054604090920191610dc390615091565b80601f0160208091040260200160405190810160405280929190818152602001828054610def90615091565b8015610e3c5780601f10610e1157610100808354040283529160200191610e3c565b820191906000526020600020905b815481529060010190602001808311610e1f57829003601f168201915b5050505050815250508361014001518260ff1681518110610e5f57610e5f615062565b6020908102919091010152600101610c7f565b5060038101547b01000000000000000000000000000000000000000000000000000000900460ff1667ffffffffffffffff811115610eb257610eb2614d7c565b604051908082528060200260200182016040528015610f3357816020015b610f206040518060a0016040528060608152602001600067ffffffffffffffff168152602001600067ffffffffffffffff168152602001600067ffffffffffffffff168152602001606081525090565b815260200190600190039081610ed05790505b5061016083015260005b826101600151518160ff1610156112cb5760ff8116600090815260078301602052604090208054610f6d90615091565b80601f0160208091040260200160405190810160405280929190818152602001828054610f9990615091565b8015610fe65780601f10610fbb57610100808354040283529160200191610fe6565b820191906000526020600020905b815481529060010190602001808311610fc957829003601f168201915b50505050508361016001518260ff168151811061100557611005615062565b6020026020010151600001819052508160070160008260ff1660ff16815260200190815260200160002060010160089054906101000a900467ffffffffffffffff168361016001518260ff168151811061106157611061615062565b60209081029190910181015167ffffffffffffffff92831660409182015260ff8416600081815260078701909352912060010154610160860151805170010000000000000000000000000000000090920490931692919081106110c6576110c6615062565b60209081029190910181015167ffffffffffffffff92831660609091015260ff80841660009081526007860190925260409091206001015478010000000000000000000000000000000000000000000000009004169081111561112b5761112b614d7c565b60405190808252806020026020018201604052801561119457816020015b60408051606081018252600080825260208083018290529282015282527fffffffffffffffffffffffffffffffffffffffffffffffffffffffffffffffff9092019101816111495790505b508361016001518260ff16815181106111af576111af615062565b60200260200101516080018190525060005b8361016001518260ff16815181106111db576111db615062565b602002602001015160800151518160ff1610156112c25760ff8281166000818152600786016020908152604080832086861684526002018252918290208251606081018452905494851615158152610100850473ffffffffffffffffffffffffffffffffffffffff169181019190915275010000000000000000000000000000000000000000009093046affffffffffffffffffffff16908301526101608601518051909190811061128f5761128f615062565b6020026020010151608001518260ff16815181106112af576112af615062565b60209081029190910101526001016111c1565b50600101610f3d565b5060038101547c0100000000000000000000000000000000000000000000000000000000900460ff1667ffffffffffffffff81111561130c5761130c614d7c565b60405190808252806020026020018201604052801561137557816020015b60408051606080820183528152600060208083018290529282015282527fffffffffffffffffffffffffffffffffffffffffffffffffffffffffffffffff90920191018161132a5790505b5061018083015260005b826101800151518160ff1610156114995760ff81166000908152600883016020526040908190208151606081019092528054829082906113be90615091565b80601f01602080910402602001604051908101604052809291908181526020018280546113ea90615091565b80156114375780601f1061140c57610100808354040283529160200191611437565b820191906000526020600020905b81548152906001019060200180831161141a57829003601f168201915b50505091835250506001919091015467ffffffffffffffff80821660208401526801000000000000000090910416604090910152610180840151805160ff841690811061148657611486615062565b602090810291909101015260010161137f565b5060038101547d010000000000000000000000000000000000000000000000000000000000900460ff1667ffffffffffffffff8111156114db576114db614d7c565b60405190808252806020026020018201604052801561154457816020015b60408051606080820183528152600060208083018290529282015282527fffffffffffffffffffffffffffffffffffffffffffffffffffffffffffffffff9092019101816114f95790505b506101a083015260005b826101a00151518160ff1610156116685760ff811660009081526009830160205260409081902081516060810190925280548290829061158d90615091565b80601f01602080910402602001604051908101604052809291908181526020018280546115b990615091565b80156116065780601f106115db57610100808354040283529160200191611606565b820191906000526020600020905b8154815290600101906020018083116115e957829003601f168201915b50505091835250506001919091015467ffffffffffffffff808216602084015268010000000000000000909104166040909101526101a0840151805160ff841690811061165557611655615062565b602090810291909101015260010161154e565b5050919050565b60005483106116aa576040517fda319dff00000000000000000000000000000000000000000000000000000000815260040160405180910390fd5b60008381526004602052604090206001600382015474010000000000000000000000000000000000000000900460ff1660028111156116eb576116eb6144f1565b14611722576040517f24a6478900000000000000000000000000000000000000000000000000000000815260040160405180910390fd5b600381015461ffff750100000000000000000000000000000000000000000090910416600090815260058201602052604090206001015468010000000000000000900473ffffffffffffffffffffffffffffffffffffffff1633146117b3576040517fc32d1d7600000000000000000000000000000000000000000000000000000000815260040160405180910390fd5b60008360028111156117c7576117c76144f1565b03611b0757600381015460ff7b0100000000000000000000000000000000000000000000000000000090910481169083161061182f576040517fe06f976a00000000000000000000000000000000000000000000000000000000815260040160405180910390fd5b60ff821660009081526007820160205260409020600181015468010000000000000000900467ffffffffffffffff1615611895576040517f9f80515700000000000000000000000000000000000000000000000000000000815260040160405180910390fd5b816118a08282615133565b506001818101805484830180547fffffffffffffffff0000000000000000ffffffffffffffffffffffffffffffff167001000000000000000000000000000000009283900467ffffffffffffffff1690920291909117905560038401547501000000000000000000000000000000000000000000900461ffff1660009081526005850160205260408120915492820180547fffff00ffffffffffffffffffffffffffffffffffffffffffffffffffffffffff16780100000000000000000000000000000000000000000000000090940460ff167d01000000000000000000000000000000000000000000000000000000000081029490941790559091905b8160ff168160ff161015611abf5760ff808216600090815260028087016020908152604080842092880190915290912081548154931615157fffffffffffffffffffffffffffffffffffffffffffffffffffffffffffffff00841681178255825473ffffffffffffffffffffffffffffffffffffffff6101009182900416027fffffffffffffffffffffff0000000000000000000000000000000000000000ff9091167fffffffffffffffffffffff000000000000000000000000000000000000000000909416939093179290921780835590546affffffffffffffffffffff750100000000000000000000000000000000000000000091829004160274ffffffffffffffffffffffffffffffffffffffffff90911617905560010161199e565b50505060010180547fffffffffffffffffffffffffffffffff0000000000000000ffffffffffffffff16680100000000000000004267ffffffffffffffff1602179055611d9c565b6001836002811115611b1b57611b1b6144f1565b03611c8757600381015460ff7c0100000000000000000000000000000000000000000000000000000000909104811690831610611b84576040517fe06f976a00000000000000000000000000000000000000000000000000000000815260040160405180910390fd5b60ff821660009081526008820160205260409020600181015468010000000000000000900467ffffffffffffffff1615611bea576040517f9f80515700000000000000000000000000000000000000000000000000000000815260040160405180910390fd5b6003820180547fffffffffffffffffffffff00ffffffffffffffffffffffffffffffffffffffff169055600280547fffffffffffffffffffffffffffffffffffffffffffffffffffffffffffffffff01905560018054810181550180547fffffffffffffffffffffffffffffffff0000000000000000ffffffffffffffff16680100000000000000004267ffffffffffffffff1602179055611d9c565b600381015460ff7d010000000000000000000000000000000000000000000000000000000000909104811690831610611cec576040517fe06f976a00000000000000000000000000000000000000000000000000000000815260040160405180910390fd5b60ff821660009081526009820160205260409020600181015468010000000000000000900467ffffffffffffffff1615611d52576040517f9f80515700000000000000000000000000000000000000000000000000000000815260040160405180910390fd5b611d5b8261411d565b60010180547fffffffffffffffffffffffffffffffff0000000000000000ffffffffffffffff16680100000000000000004267ffffffffffffffff16021790555b50505050565b6000548310611ddd576040517fda319dff00000000000000000000000000000000000000000000000000000000815260040160405180910390fd5b600083815260046020526040812090600382015474010000000000000000000000000000000000000000900460ff166002811115611e1d57611e1d6144f1565b14611e54576040517ffe89421700000000000000000000000000000000000000000000000000000000815260040160405180910390fd5b600381015473ffffffffffffffffffffffffffffffffffffffff163314611ea7576040517f7d1b73b900000000000000000000000000000000000000000000000000000000815260040160405180910390fd5b60005b82811015611fd65760038201547801000000000000000000000000000000000000000000000000900461ffff16848483818110611ee957611ee9615062565b9050602002016020810190611efe919061526e565b61ffff1610611f39576040517f362a281100000000000000000000000000000000000000000000000000000000815260040160405180910390fd5b6001826005016000868685818110611f5357611f53615062565b9050602002016020810190611f68919061526e565b61ffff1681526020810191909152604001600020600190810180549215157c0100000000000000000000000000000000000000000000000000000000027fffffff00ffffffffffffffffffffffffffffffffffffffffffffffffffffffff9093169290921790915501611eaa565b507fc1ad33a134f6e7dbb5a91cc377bf5a8e998799046658fbaa2b9ff9e30343b8428484843360405161200c9493929190615289565b60405180910390a150505050565b600080546060918167ffffffffffffffff81111561203a5761203a614d7c565b604051908082528060200260200182016040528015612063578160200160208202803683370190505b50905060008560000361207e5761207b600184615022565b95505b855b7fffffffffffffffffffffffffffffffffffffffffffffffffffffffffffffffff81146103a6576000808281526004602052604090206003015474010000000000000000000000000000000000000000900460ff1660028111156120e6576120e66144f1565b141580156121585750600081815260046020908152604080832060038101547501000000000000000000000000000000000000000000900461ffff16845260050190915290206001015473ffffffffffffffffffffffffffffffffffffffff8981166801000000000000000090920416145b1561218b578083838151811061217057612170615062565b602002602001018181525050816001019150858203156103a6575b7fffffffffffffffffffffffffffffffffffffffffffffffffffffffffffffffff01612080565b6000805486106121ee576040517fda319dff00000000000000000000000000000000000000000000000000000000815260040160405180910390fd5b600086815260046020526040812090600382015474010000000000000000000000000000000000000000900460ff16600281111561222e5761222e6144f1565b14612265576040517ffe89421700000000000000000000000000000000000000000000000000000000815260040160405180910390fd5b600381018054780100000000000000000000000000000000000000000000000080820461ffff908116600081815260058701602052604090207fffffffffffff0000ffffffffffffffffffffffffffffffffffffffffffffffff9094166001820190921690920217909255909250806122df8789836152fa565b506001810180544267ffffffffffffffff167fffffffff0000000000000000000000000000000000000000000000000000000090911617336801000000000000000002177fffff00ffffffffffffffffffffffffffffffffffffffffffffffffffffffffff167d01000000000000000000000000000000000000000000000000000000000060ff8716021790556000808052600483016020908152604080832081518083019092525473ffffffffffffffffffffffffffffffffffffffff811682527401000000000000000000000000000000000000000090046bffffffffffffffffffffffff169181019190915281805b60ff808916908216101561255f5788888260ff168181106123f4576123f4615062565b905060600201604001602081019061240c919061542d565b6affffffffffffffffffffff168201915082602001516bffffffffffffffffffffffff16821115612473576040517f6e52358c00000000000000000000000000000000000000000000000000000000815260ff821660048201526024015b60405180910390fd5b88888260ff1681811061248857612488615062565b60ff8416600090815260028901602052604090206060909102929092019190506124b28282615458565b90505088888260ff168181106124ca576124ca615062565b6124e09260206060909202019081019150615509565b156125575760ff60019094019384166000908152600487016020908152604080832081518083019092525473ffffffffffffffffffffffffffffffffffffffff811682526bffffffffffffffffffffffff740100000000000000000000000000000000000000009091041691810191909152935091505b6001016123d1565b507fa11d0b61a08c8de555085ed30826dbf0e2497415c6b6521961c6f3634638423f8b87338d8d8d8d60405161259b979695949392919061556f565b60405180910390a1505050505095945050505050565b6000805487106125ed576040517fda319dff00000000000000000000000000000000000000000000000000000000815260040160405180910390fd5b60008781526004602052604090206001600382015474010000000000000000000000000000000000000000900460ff16600281111561262e5761262e6144f1565b14612665576040517f24a6478900000000000000000000000000000000000000000000000000000000815260040160405180910390fd5b600381015473ffffffffffffffffffffffffffffffffffffffff1633146126b8576040517f7d1b73b900000000000000000000000000000000000000000000000000000000815260040160405180910390fd5b60038101547b01000000000000000000000000000000000000000000000000000000900460ff1660009081526007820160205260409020806126fb888a836152fa565b506001810180544267ffffffffffffffff9081167fffffffffffffffff0000000000000000ffffffffffffffff00000000000000009092169190911770010000000000000000000000000000000091891691909102177fffffffffffffff00ffffffffffffffffffffffffffffffffffffffffffffffff16780100000000000000000000000000000000000000000000000060ff8716021790556000808052600483016020908152604080832081518083019092525473ffffffffffffffffffffffffffffffffffffffff811682527401000000000000000000000000000000000000000090046bffffffffffffffffffffffff169181019190915281805b60ff8089169082161015612a335788888260ff1681811061281d5761281d615062565b9050606002016040016020810190612835919061542d565b6affffffffffffffffffffff168201915088888260ff1681811061285b5761285b615062565b60ff8416600090815260028901602052604090206060909102929092019190506128858282615458565b90505088888260ff1681811061289d5761289d615062565b6128b39260206060909202019081019150615509565b15612a2b5782602001516bffffffffffffffffffffffff168211156129b95782516002870154602085015173ffffffffffffffffffffffffffffffffffffffff928316926323b872dd92339291169061291a906bffffffffffffffffffffffff1687615022565b6040517fffffffff0000000000000000000000000000000000000000000000000000000060e086901b16815273ffffffffffffffffffffffffffffffffffffffff938416600482015292909116602483015260448201526064016020604051808303816000875af1158015612993573d6000803e3d6000fd5b505050506040513d601f19601f820116820180604052508101906129b79190615630565b505b60ff60019094019384166000908152600487016020908152604080832081518083019092525473ffffffffffffffffffffffffffffffffffffffff811682526bffffffffffffffffffffffff740100000000000000000000000000000000000000009091041691810191909152935091505b6001016127fa565b5050505060039190910180547fffffffff00ffffffffffffffffffffffffffffffffffffffffffffffffffffff81167b010000000000000000000000000000000000000000000000000000009182900460ff908116600181019091169092021790915598975050505050505050565b60606000825167ffffffffffffffff811115612ac057612ac0614d7c565b604051908082528060200260200182016040528015612b7957816020015b612b66604080516101c081018252606080825260006020830181905292820183905281018290526080810182905260a081018290529060c08201908152602001600073ffffffffffffffffffffffffffffffffffffffff1681526020016060815260200160608152602001606081526020016060815260200160608152602001606081525090565b815260200190600190039081612ade5790505b50905060005b8351811015612bcf57612baa848281518110612b9d57612b9d615062565b60200260200101516103c5565b828281518110612bbc57612bbc615062565b6020908102919091010152600101612b7f565b5092915050565b6000548510612c11576040517fda319dff00000000000000000000000000000000000000000000000000000000815260040160405180910390fd5b60008581526004602052604090206001600382015474010000000000000000000000000000000000000000900460ff166002811115612c5257612c526144f1565b14612c89576040517f24a6478900000000000000000000000000000000000000000000000000000000815260040160405180910390fd5b600381015473ffffffffffffffffffffffffffffffffffffffff163314612cdc576040517f7d1b73b900000000000000000000000000000000000000000000000000000000815260040160405180910390fd5b600381015460ff7a010000000000000000000000000000000000000000000000000000909104811690861610612d3e576040517f5005f9de00000000000000000000000000000000000000000000000000000000815260040160405180910390fd5b60ff85166000908152600682016020526040812090600182015468010000000000000000900460ff166002811115612d7857612d786144f1565b14612daf576040517fc144afcc00000000000000000000000000000000000000000000000000000000815260040160405180910390fd5b6001810180548691907fffffffffffffffffffffffffffffffffffffffffffffff00ffffffffffffffff1668010000000000000000836002811115612df657612df66144f1565b02179055506001810180547fffffffffffffffffffffffffffffff0000000000000000ffffffffffffffffff1669010000000000000000004267ffffffffffffffff160217905560028101612e4c8486836152fa565b506001856002811115612e6157612e616144f1565b036133765760038201547501000000000000000000000000000000000000000000810461ffff1660009081526005840160209081526040808320600287015484805260048801845282852083518085019094525473ffffffffffffffffffffffffffffffffffffffff8082168552740100000000000000000000000000000000000000009091046bffffffffffffffffffffffff169484019490945260018201549195841694931692919060ff7d01000000000000000000000000000000000000000000000000000000000090910416825b8160ff168160ff1610156131b15760ff81811660009081526002890160209081526040918290208251606081018452905493841615158152610100840473ffffffffffffffffffffffffffffffffffffffff9081169282019290925275010000000000000000000000000000000000000000009093046affffffffffffffffffffff16838301819052865160018c015493517fbeabacc800000000000000000000000000000000000000000000000000000000815290831660048201526801000000000000000090930482166024840152604483015287169063beabacc890606401600060405180830381600087803b15801561302f57600080fd5b505af1158015613043573d6000803e3d6000fd5b5050505060408101516020850180516affffffffffffffffffffff9092169091036bffffffffffffffffffffffff1690528051156131a85760208401516bffffffffffffffffffffffff161561313a57835160208501516040517fbeabacc800000000000000000000000000000000000000000000000000000000815273ffffffffffffffffffffffffffffffffffffffff928316600482015289831660248201526bffffffffffffffffffffffff90911660448201529087169063beabacc890606401600060405180830381600087803b15801561312157600080fd5b505af1158015613135573d6000803e3d6000fd5b505050505b60ff6001909501948516600090815260048b01602090815260409182902082518084019093525473ffffffffffffffffffffffffffffffffffffffff811683526bffffffffffffffffffffffff74010000000000000000000000000000000000000000909104169082015293505b50600101612f33565b50600388015477010000000000000000000000000000000000000000000000900460ff165b8060ff168460ff1610156132fd57825160208401516040517fbeabacc800000000000000000000000000000000000000000000000000000000815273ffffffffffffffffffffffffffffffffffffffff928316600482015288831660248201526bffffffffffffffffffffffff90911660448201529086169063beabacc890606401600060405180830381600087803b15801561327257600080fd5b505af1158015613286573d6000803e3d6000fd5b50505060ff6001909501948516600090815260048b01602090815260409182902082518084019093525473ffffffffffffffffffffffffffffffffffffffff811683526bffffffffffffffffffffffff74010000000000000000000000000000000000000000909104169082015293506131d69050565b50505050600385810180547fffffffffffffffffffffff00ffffffffffffffffffffffffffffffffffffffff1674020000000000000000000000000000000000000000179055600280547fffffffffffffffffffffffffffffffffffffffffffffffffffffffffffffffff019055805460010190555050505b7f03c517393f135331d7a758c4ef901924ac30ed6a463e5d948f120b43e863812d8787338888886040516133af9695949392919061564d565b60405180910390a150505050505050565b6000805460018101825580825260046020526040909120806133e38789836152fa565b506001810180547fffffffffffffffff0000000000000000ffffffffffffffffffffffffffffffff1670010000000000000000000000000000000067ffffffffffffffff8816021790556003810180547fffffffffffffffff00ffffffffffffffffffffffffffffffffffffffffffffff167701000000000000000000000000000000000000000000000060ff86160217905560055460009061349b9073ffffffffffffffffffffffffffffffffffffffff1661436b565b90508073ffffffffffffffffffffffffffffffffffffffff166365b145fb6040518163ffffffff1660e01b8152600401600060405180830381600087803b1580156134e557600080fd5b505af11580156134f9573d6000803e3d6000fd5b505050506002820180547fffffffffffffffffffffffff00000000000000000000000000000000000000001673ffffffffffffffffffffffffffffffffffffffff831617905560005b60ff81168511156136b65785858260ff1681811061356257613562615062565b613578926020604090920201908101915061569b565b73ffffffffffffffffffffffffffffffffffffffff166323b872dd338489898660ff168181106135aa576135aa615062565b90506040020160200160208101906135c291906156d2565b6040517fffffffff0000000000000000000000000000000000000000000000000000000060e086901b16815273ffffffffffffffffffffffffffffffffffffffff93841660048201529290911660248301526bffffffffffffffffffffffff1660448201526064016020604051808303816000875af1158015613649573d6000803e3d6000fd5b505050506040513d601f19601f8201168201806040525081019061366d9190615630565b5085858260ff1681811061368357613683615062565b60ff84166000908152600487016020526040908190209102929092019190506136ac82826156ef565b5050600101613542565b50600182810180547fffffffffffffffffffffffffffffffffffffffffffffffff0000000000000000164267ffffffffffffffff16179055600383018054337fffffffffffffffffffffffff00000000000000000000000000000000000000009091168117909155815482019091556040517f90e340de55de9dc993bdccfdcd5b64c700be20c8bf9abe06b24c1ce5bc902b5591613760918691908c908c908c908c908c90615754565b60405180910390a1505095945050505050565b6000805484106137af576040517fda319dff00000000000000000000000000000000000000000000000000000000815260040160405180910390fd5b60008481526004602052604090206001600382015474010000000000000000000000000000000000000000900460ff1660028111156137f0576137f06144f1565b14613827576040517f24a6478900000000000000000000000000000000000000000000000000000000815260040160405180910390fd5b600381015461ffff750100000000000000000000000000000000000000000090910416600090815260058201602052604090206001015468010000000000000000900473ffffffffffffffffffffffffffffffffffffffff1633146138b8576040517fc32d1d7600000000000000000000000000000000000000000000000000000000815260040160405180910390fd5b6003810180547a01000000000000000000000000000000000000000000000000000080820460ff908116600081815260068701602052604090207fffffffffff00ffffffffffffffffffffffffffffffffffffffffffffffffffff9094166001820190921690920217909255909250806139338587836152fa565b506001810180547fffffffffffffffffffffffffffffffffffffffffffffffff0000000000000000164267ffffffffffffffff161790556040517fea7224f31e314f15c34c3e2df7261324db1a63035701c2e701c5a64d1b2e1faa906139a2908890869033908a908a90615807565b60405180910390a150509392505050565b60005482106139ee576040517fda319dff00000000000000000000000000000000000000000000000000000000815260040160405180910390fd5b600082815260046020526040812090600382015474010000000000000000000000000000000000000000900460ff166002811115613a2e57613a2e6144f1565b14613a65576040517ffe89421700000000000000000000000000000000000000000000000000000000815260040160405180910390fd5b600381015461ffff7801000000000000000000000000000000000000000000000000909104811690831610613ac6576040517f362a281100000000000000000000000000000000000000000000000000000000815260040160405180910390fd5b61ffff821660009081526005820160205260409020600181015468010000000000000000900473ffffffffffffffffffffffffffffffffffffffff163314613b3a576040517fb7ec028400000000000000000000000000000000000000000000000000000000815260040160405180910390fd5b60018101547c0100000000000000000000000000000000000000000000000000000000900460ff16613b98576040517fbcffbdde00000000000000000000000000000000000000000000000000000000815260040160405180910390fd5b600382018054600180850180547fffffffffffffffffffffffffffffffff0000000000000000ffffffffffffffff16680100000000000000004267ffffffffffffffff16021790557fffffffffffffffffff000000ffffffffffffffffffffffffffffffffffffffff909116750100000000000000000000000000000000000000000061ffff87169081027fffffffffffffffffffffff00ffffffffffffffffffffffffffffffffffffffff1691909117740100000000000000000000000000000000000000001790925580547fffffffffffffffffffffffffffffffffffffffffffffffffffffffffffffffff01815560028054909101905560408051868152602081019290925233908201527faf6a7b9d6c1a71672e146c0869b4d6ad101d5f4f93426670cc55cd131670af099060600161200c565b600080548410613d0c576040517fda319dff00000000000000000000000000000000000000000000000000000000815260040160405180910390fd5b60008481526004602052604090206001600382015474010000000000000000000000000000000000000000900460ff166002811115613d4d57613d4d6144f1565b14613d84576040517f24a6478900000000000000000000000000000000000000000000000000000000815260040160405180910390fd5b600381015473ffffffffffffffffffffffffffffffffffffffff163314613dd7576040517f7d1b73b900000000000000000000000000000000000000000000000000000000815260040160405180910390fd5b60038101547c0100000000000000000000000000000000000000000000000000000000900460ff166000908152600882016020526040902080613e1b8587836152fa565b50600190810180547fffffffffffffffffffffffffffffffffffffffffffffffff0000000000000000164267ffffffffffffffff1617905560039190910180547fffffff00ffffffffffffffffffffffffffffffffffffffffffffffffffffffff81167c01000000000000000000000000000000000000000000000000000000009182900460ff90811694850116909102179055949350505050565b600080548410613ef3576040517fda319dff00000000000000000000000000000000000000000000000000000000815260040160405180910390fd5b6000848152600460205260409020600381015473ffffffffffffffffffffffffffffffffffffffff163314613f54576040517f7d1b73b900000000000000000000000000000000000000000000000000000000815260040160405180910390fd5b6001600382015474010000000000000000000000000000000000000000900460ff166002811115613f8757613f876144f1565b0361409f57600181015467ffffffffffffffff42811670010000000000000000000000000000000090920416111561409a5760038101547d010000000000000000000000000000000000000000000000000000000000900460ff166000908152600982016020526040902080613ffe8587836152fa565b506001908101805467ffffffffffffffff42167fffffffffffffffffffffffffffffffffffffffffffffffff00000000000000009091161790556003909101805460ff7d0100000000000000000000000000000000000000000000000000000000008083048216948501909116027fffff00ffffffffffffffffffffffffffffffffffffffffffffffffffffffffff90911617905590506103be565b614109565b6000600382015474010000000000000000000000000000000000000000900460ff1660028111156140d2576140d26144f1565b14614109576040517f39d70be400000000000000000000000000000000000000000000000000000000815260040160405180910390fd5b6141128161411d565b5060ff949350505050565b6003810154600282015460ff770100000000000000000000000000000000000000000000008304169173ffffffffffffffffffffffffffffffffffffffff908116911660005b8360ff168160ff16101561425f5760ff811660009081526004868101602090815260409283902083518085018552905473ffffffffffffffffffffffffffffffffffffffff808216808452740100000000000000000000000000000000000000009092046bffffffffffffffffffffffff1693830184905294517fbeabacc800000000000000000000000000000000000000000000000000000000815293840152868416602484015260448301919091529184169063beabacc890606401600060405180830381600087803b15801561423b57600080fd5b505af115801561424f573d6000803e3d6000fd5b5050505081600101915050614163565b506000600385015474010000000000000000000000000000000000000000900460ff166002811115614293576142936144f1565b036142c557600180547fffffffffffffffffffffffffffffffffffffffffffffffffffffffffffffffff019055614326565b6001600385015474010000000000000000000000000000000000000000900460ff1660028111156142f8576142f86144f1565b0361432657600280547fffffffffffffffffffffffffffffffffffffffffffffffffffffffffffffffff0190555b50505060030180547fffffffffffffffffffffff00ffffffffffffffffffffffffffffffffffffffff1674020000000000000000000000000000000000000000179055565b6000763d602d80600a3d3981f3363d3d373d3d3d363d730000008260601b60e81c176000526e5af43d82803e903d91602b57fd5bf38260781b17602052603760096000f0905073ffffffffffffffffffffffffffffffffffffffff811661442e576040517f08c379a000000000000000000000000000000000000000000000000000000000815260206004820152601660248201527f455243313136373a20637265617465206661696c656400000000000000000000604482015260640161246a565b919050565b73ffffffffffffffffffffffffffffffffffffffff8116811461445557600080fd5b50565b60008060006060848603121561446d57600080fd5b833561447881614433565b95602085013595506040909401359392505050565b6000815180845260005b818110156144b357602081850181015186830182015201614497565b5060006020828601015260207fffffffffffffffffffffffffffffffffffffffffffffffffffffffffffffffe0601f83011685010191505092915050565b7f4e487b7100000000000000000000000000000000000000000000000000000000600052602160045260246000fd5b60038110614455577f4e487b7100000000000000000000000000000000000000000000000000000000600052602160045260246000fd5b61456081614520565b9052565b600081518084526020808501945080840160005b838110156145c3578151805173ffffffffffffffffffffffffffffffffffffffff1688528301516bffffffffffffffffffffffff168388015260409096019590820190600101614578565b509495945050505050565b600081518084526020808501945080840160005b838110156145c35781518051151588528381015173ffffffffffffffffffffffffffffffffffffffff16848901526040908101516affffffffffffffffffffff1690880152606090960195908201906001016145e2565b600081518084526020808501808196508360051b8101915082860160005b858110156146e9578284038952815160a081518187526146798288018261448d565b8389015167ffffffffffffffff16888a015260408085015173ffffffffffffffffffffffffffffffffffffffff16908901526060808501511515908901526080938401518882039489019490945291506146d5905081836145ce565b9a87019a9550505090840190600101614657565b5091979650505050505050565b600081518084526020808501808196508360051b8101915082860160005b858110156146e9578284038952815160a081518187526147368288018261448d565b9150508682015167ffffffffffffffff80821689890152604091508184015161475e81614520565b91880191909152606083810151909116908701526080918201518682039287019290925261478c818361448d565b9a87019a9550505090840190600101614714565b600081518084526020808501808196508360051b8101915082860160005b858110156146e9578284038952815160a081518187526147e08288018261448d565b8389015167ffffffffffffffff908116898b01526040808601518216908a01526060808601519091169089015260809384015188820394890194909452915061482b905081836145ce565b9a87019a95505050908401906001016147be565b600081518084526020808501808196508360051b8101915082860160005b858110156146e957828403895281516060815181875261487f8288018261448d565b8389015167ffffffffffffffff908116898b01526040948501511693909701929092525050978401979084019060010161485d565b60006101c082518185526148ca8286018261448d565b91505060208301516148e8602086018267ffffffffffffffff169052565b506040830151614904604086018267ffffffffffffffff169052565b506060830151614920606086018267ffffffffffffffff169052565b506080830151614936608086018261ffff169052565b5060a083015161495e60a086018273ffffffffffffffffffffffffffffffffffffffff169052565b5060c083015161497160c0860182614557565b5060e083015161499960e086018273ffffffffffffffffffffffffffffffffffffffff169052565b5061010080840151858303828701526149b28382614564565b9250505061012080840151858303828701526149ce8382614639565b9250505061014080840151858303828701526149ea83826146f6565b925050506101608084015185830382870152614a0683826147a0565b925050506101808084015185830382870152614a22838261483f565b925050506101a08084015185830382870152614a3e838261483f565b9695505050505050565b6000602080830181845280855180835260408601915060408160051b870101925083870160005b82811015614abb577fffffffffffffffffffffffffffffffffffffffffffffffffffffffffffffffc0888603018452614aa98583516148b4565b94509285019290850190600101614a6f565b5092979650505050505050565b600060208284031215614ada57600080fd5b5035919050565b6020815260006103be60208301846148b4565b6003811061445557600080fd5b803560ff8116811461442e57600080fd5b600080600060608486031215614b2757600080fd5b833592506020840135614b3981614af4565b9150614b4760408501614b01565b90509250925092565b600080600060408486031215614b6557600080fd5b83359250602084013567ffffffffffffffff80821115614b8457600080fd5b818601915086601f830112614b9857600080fd5b813581811115614ba757600080fd5b8760208260051b8501011115614bbc57600080fd5b6020830194508093505050509250925092565b60008083601f840112614be157600080fd5b50813567ffffffffffffffff811115614bf957600080fd5b602083019150836020828501011115614c1157600080fd5b9250929050565b60008083601f840112614c2a57600080fd5b50813567ffffffffffffffff811115614c4257600080fd5b602083019150836020606083028501011115614c1157600080fd5b600080600080600060608688031215614c7557600080fd5b85359450602086013567ffffffffffffffff80821115614c9457600080fd5b614ca089838a01614bcf565b90965094506040880135915080821115614cb957600080fd5b50614cc688828901614c18565b969995985093965092949392505050565b803567ffffffffffffffff8116811461442e57600080fd5b60008060008060008060808789031215614d0857600080fd5b86359550602087013567ffffffffffffffff80821115614d2757600080fd5b614d338a838b01614bcf565b9097509550859150614d4760408a01614cd7565b94506060890135915080821115614d5d57600080fd5b50614d6a89828a01614c18565b979a9699509497509295939492505050565b7f4e487b7100000000000000000000000000000000000000000000000000000000600052604160045260246000fd5b60006020808385031215614dbe57600080fd5b823567ffffffffffffffff80821115614dd657600080fd5b818501915085601f830112614dea57600080fd5b813581811115614dfc57614dfc614d7c565b8060051b6040517fffffffffffffffffffffffffffffffffffffffffffffffffffffffffffffffe0603f83011681018181108582111715614e3f57614e3f614d7c565b604052918252848201925083810185019188831115614e5d57600080fd5b938501935b82851015614e7b57843584529385019392850192614e62565b98975050505050505050565b600080600080600060808688031215614e9f57600080fd5b85359450614eaf60208701614b01565b93506040860135614ebf81614af4565b9250606086013567ffffffffffffffff811115614edb57600080fd5b614cc688828901614bcf565b600080600080600060608688031215614eff57600080fd5b853567ffffffffffffffff80821115614f1757600080fd5b614f2389838a01614bcf565b9097509550859150614f3760208901614cd7565b94506040880135915080821115614f4d57600080fd5b818801915088601f830112614f6157600080fd5b813581811115614f7057600080fd5b8960208260061b8501011115614f8557600080fd5b9699959850939650602001949392505050565b600080600060408486031215614fad57600080fd5b83359250602084013567ffffffffffffffff811115614fcb57600080fd5b614fd786828701614bcf565b9497909650939450505050565b803561ffff8116811461442e57600080fd5b6000806040838503121561500957600080fd5b8235915061501960208401614fe4565b90509250929050565b8181038181111561505c577f4e487b7100000000000000000000000000000000000000000000000000000000600052601160045260246000fd5b92915050565b7f4e487b7100000000000000000000000000000000000000000000000000000000600052603260045260246000fd5b600181811c908216806150a557607f821691505b6020821081036150de577f4e487b7100000000000000000000000000000000000000000000000000000000600052602260045260246000fd5b50919050565b601f82111561512e57600081815260208120601f850160051c8101602086101561510b5750805b601f850160051c820191505b8181101561512a57828155600101615117565b5050505b505050565b81810361513e575050565b6151488254615091565b67ffffffffffffffff81111561516057615160614d7c565b6151748161516e8454615091565b846150e4565b6000601f8211600181146151c657600083156151905750848201545b7fffffffffffffffffffffffffffffffffffffffffffffffffffffffffffffffff600385901b1c1916600184901b178455615267565b6000858152602090207fffffffffffffffffffffffffffffffffffffffffffffffffffffffffffffffe0841690600086815260209020845b8381101561521e57828601548255600195860195909101906020016151fe565b508583101561525a57818501547fffffffffffffffffffffffffffffffffffffffffffffffffffffffffffffffff600388901b60f8161c191681555b50505060018360011b0184555b5050505050565b60006020828403121561528057600080fd5b6103be82614fe4565b84815260606020808301829052908201849052600090859060808401835b878110156152ce5761ffff6152bb85614fe4565b16825292820192908201906001016152a7565b5080935050505073ffffffffffffffffffffffffffffffffffffffff8316604083015295945050505050565b67ffffffffffffffff83111561531257615312614d7c565b615326836153208354615091565b836150e4565b6000601f84116001811461537857600085156153425750838201355b7fffffffffffffffffffffffffffffffffffffffffffffffffffffffffffffffff600387901b1c1916600186901b178355615267565b6000838152602090207fffffffffffffffffffffffffffffffffffffffffffffffffffffffffffffffe0861690835b828110156153c757868501358255602094850194600190920191016153a7565b5086821015615402577fffffffffffffffffffffffffffffffffffffffffffffffffffffffffffffffff60f88860031b161c19848701351681555b505060018560011b0183555050505050565b6affffffffffffffffffffff8116811461445557600080fd5b60006020828403121561543f57600080fd5b81356103be81615414565b801515811461445557600080fd5b81356154638161544a565b81547fffffffffffffffffffffffffffffffffffffffffffffffffffffffffffffff00811691151560ff16918217835560208401356154a181614433565b74ffffffffffffffffffffffffffffffffffffffff008160081b1690507fffffffffffffffffffffff000000000000000000000000000000000000000000818482851617178555604086013592506154f883615414565b921760a89190911b90911617905550565b60006020828403121561551b57600080fd5b81356103be8161544a565b8183528181602085013750600060208284010152600060207fffffffffffffffffffffffffffffffffffffffffffffffffffffffffffffffe0601f840116840101905092915050565b8781526000602061ffff891681840152604073ffffffffffffffffffffffffffffffffffffffff808a1682860152606060a0818701526155b360a087018a8c615526565b86810360808801528781528890850160005b8981101561561d5782356155d88161544a565b15158252828701356155e981614433565b851682880152828601356155fc81615414565b6affffffffffffffffffffff168287015291830191908301906001016155c5565b509e9d5050505050505050505050505050565b60006020828403121561564257600080fd5b81516103be8161544a565b86815260ff8616602082015273ffffffffffffffffffffffffffffffffffffffff8516604082015261567e84614520565b83606082015260a060808201526000614e7b60a083018486615526565b6000602082840312156156ad57600080fd5b81356103be81614433565b6bffffffffffffffffffffffff8116811461445557600080fd5b6000602082840312156156e457600080fd5b81356103be816156b8565b81356156fa81614433565b73ffffffffffffffffffffffffffffffffffffffff811690507fffffffffffffffffffffffff00000000000000000000000000000000000000008181845416178355602084013561574a816156b8565b60a01b1617905550565b8781526000602073ffffffffffffffffffffffffffffffffffffffff808a1682850152604060a08186015261578d60a086018a8c615526565b67ffffffffffffffff8916606087015285810360808701528681528790840160005b888110156157f55782356157c281614433565b85168252828601356157d3816156b8565b6bffffffffffffffffffffffff168287015291830191908301906001016157af565b509d9c50505050505050505050505050565b85815260ff8516602082015273ffffffffffffffffffffffffffffffffffffffff84166040820152608060608201526000615846608083018486615526565b97965050505050505056fea2646970667358221220e078dfa83401faacff4a3798fc27b1de7d193dcc5011c5de90b209ce4d2af87a64736f6c63430008130033608060405234801561001057600080fd5b50610289806100206000396000f3fe608060405234801561001057600080fd5b50600436106100365760003560e01c806365b145fb1461003b578063beabacc814610045575b600080fd5b610043610058565b005b6100436100533660046101e9565b6100d4565b60005473ffffffffffffffffffffffffffffffffffffffff16156100a8576040517f0dc149f000000000000000000000000000000000000000000000000000000000815260040160405180910390fd5b600080547fffffffffffffffffffffffff00000000000000000000000000000000000000001633179055565b60005473ffffffffffffffffffffffffffffffffffffffff163314610125576040517f30cd747100000000000000000000000000000000000000000000000000000000815260040160405180910390fd5b6040517fa9059cbb00000000000000000000000000000000000000000000000000000000815273ffffffffffffffffffffffffffffffffffffffff83811660048301526024820183905284169063a9059cbb906044016020604051808303816000875af115801561019a573d6000803e3d6000fd5b505050506040513d601f19601f820116820180604052508101906101be919061022a565b50505050565b73ffffffffffffffffffffffffffffffffffffffff811681146101e657600080fd5b50565b6000806000606084860312156101fe57600080fd5b8335610209816101c4565b92506020840135610219816101c4565b929592945050506040919091013590565b60006020828403121561023c57600080fd5b8151801515811461024c57600080fd5b939250505056fea26469706673582212206d3351ed27548c154005a99d47c1795088871f992cc349acfd0cb41eebf58de464736f6c63430008130033",
  "devdoc": {
    "kind": "dev",
    "methods": {
      "acceptApplications(uint256,uint16[])": {
        "params": {
          "_applications": "Indexes of the applications to accept.",
          "_taskId": "Id of the task."
        }
      },
      "acceptRequest(uint256,uint8,uint8)": {
        "params": {
          "_requestId": "Id of the request.",
          "_requestType": "What kind of request it is.",
          "_taskId": "Id of the task."
        }
      },
      "applyForTask(uint256,string,(bool,address,uint88)[])": {
        "params": {
          "_metadata": "Metadata of your application.",
          "_reward": "Wanted rewards for completing the task.",
          "_taskId": "Id of the task."
        }
      },
      "cancelTask(uint256,string)": {
        "params": {
          "_explanation": "Why the task was cancelled. (IPFS hash)",
          "_taskId": "Id of the task."
        }
      },
      "changeScope(uint256,string,uint64,(bool,address,uint88)[])": {
        "params": {
          "_newDeadline": "New deadline of the task.",
          "_newMetadata": "New description of the task. (IPFS hash)",
          "_newReward": "New reward of the task.",
          "_taskId": "Id of the task."
        }
      },
      "createSubmission(uint256,string)": {
        "params": {
          "_metadata": "Metadata of the submission. (IPFS hash)",
          "_taskId": "Id of the task."
        }
      },
      "createTask(string,uint64,(address,uint96)[])": {
        "params": {
          "_budget": "Maximum ERC20 rewards that can be earned by completing the task.",
          "_deadline": "Block timestamp at which the task expires if not completed.",
          "_metadata": "Metadata of the task. (IPFS hash)"
        },
        "returns": {
          "taskId": "Id of the newly created task."
        }
      },
      "dropExecutor(uint256,string)": {
        "params": {
          "_explanation": "Why the executor should be dropped.",
          "_taskId": "Id of the task."
        }
      },
      "getExecutingTasks(address,uint256,uint256)": {
        "params": {
          "_executor": "The executor to fetch tasks of.",
          "_fromTaskId": "What taskId to start from.",
          "_max": "The maximum amount of tasks to return. 0 for no max."
        }
      },
      "getProposingTasks(address,uint256,uint256)": {
        "params": {
          "_fromTaskId": "What taskId to start from.",
          "_max": "The maximum amount of tasks to return. 0 for no max.",
          "_proposer": "The proposer to fetch tasks of."
        }
      },
      "getTask(uint256)": {
        "params": {
          "_taskId": "Id of the task."
        }
      },
      "getTasks(uint256[])": {
        "params": {
          "_taskIds": "Ids of the tasks."
        }
      },
      "reviewSubmission(uint256,uint8,uint8,string)": {
        "params": {
          "_feedback": "Reasoning of the reviewer. (IPFS hash)",
          "_judgement": "Outcome of the review.",
          "_submission": "Index of the submission that is reviewed.",
          "_taskId": "Id of the task."
        }
      },
      "takeTask(uint256,uint16)": {
        "params": {
          "_application": "Index of application you made that has been accepted.",
          "_taskId": "Id of the task."
        }
      }
    },
    "version": 1
  },
  "userdoc": {
    "kind": "user",
    "methods": {
      "acceptApplications(uint256,uint16[])": {
        "notice": "Accept application to allow them to take the task."
      },
      "acceptRequest(uint256,uint8,uint8)": {
        "notice": "Accepts a request, executing the proposed action."
      },
      "applyForTask(uint256,string,(bool,address,uint88)[])": {
        "notice": "Apply to take the task."
      },
      "cancelTask(uint256,string)": {
        "notice": "Cancels a task. This can be used to close a task and receive back the budget."
      },
      "changeScope(uint256,string,uint64,(bool,address,uint88)[])": {
        "notice": "Change the scope of the task. This updates the description, deadline and reward of the task."
      },
      "createSubmission(uint256,string)": {
        "notice": "Create a submission."
      },
      "createTask(string,uint64,(address,uint96)[])": {
        "notice": "Create a new task."
      },
      "dropExecutor(uint256,string)": {
        "notice": "Drops the current executor of the task"
      },
      "getExecutingTasks(address,uint256,uint256)": {
        "notice": "Retrieves all tasks of an executor. Most recent ones first."
      },
      "getProposingTasks(address,uint256,uint256)": {
        "notice": "Retrieves all tasks of a proposer. Most recent ones first."
      },
      "getTask(uint256)": {
        "notice": "Retrieves all task information by id."
      },
      "getTasks(uint256[])": {
        "notice": "Retrieves multiple tasks."
      },
      "reviewSubmission(uint256,uint8,uint8,string)": {
        "notice": "Review a submission."
      },
      "takeTask(uint256,uint16)": {
        "notice": "Take the task after your application has been accepted."
      },
      "taskCount()": {
        "notice": "Retrieves the current amount of created tasks."
      },
      "taskStatistics()": {
        "notice": "Retrieves the current statistics of created tasks."
      }
    },
    "version": 1
  },
  "storageLayout": {
    "storage": [
      {
        "astId": 727,
        "contract": "contracts/Tasks/Tasks.sol:Tasks",
        "label": "taskCounter",
        "offset": 0,
        "slot": "0",
        "type": "t_uint256"
      },
      {
        "astId": 730,
        "contract": "contracts/Tasks/Tasks.sol:Tasks",
        "label": "openTasks",
        "offset": 0,
        "slot": "1",
        "type": "t_uint256"
      },
      {
        "astId": 732,
        "contract": "contracts/Tasks/Tasks.sol:Tasks",
        "label": "takenTasks",
        "offset": 0,
        "slot": "2",
        "type": "t_uint256"
      },
      {
        "astId": 734,
        "contract": "contracts/Tasks/Tasks.sol:Tasks",
        "label": "successfulTasks",
        "offset": 0,
        "slot": "3",
        "type": "t_uint256"
      },
      {
        "astId": 740,
        "contract": "contracts/Tasks/Tasks.sol:Tasks",
        "label": "tasks",
        "offset": 0,
        "slot": "4",
        "type": "t_mapping(t_uint256,t_struct(Task)491_storage)"
      },
      {
        "astId": 743,
        "contract": "contracts/Tasks/Tasks.sol:Tasks",
        "label": "escrowImplementation",
        "offset": 0,
        "slot": "5",
        "type": "t_address"
      }
    ],
    "types": {
      "t_address": {
        "encoding": "inplace",
        "label": "address",
        "numberOfBytes": "20"
      },
      "t_bool": {
        "encoding": "inplace",
        "label": "bool",
        "numberOfBytes": "1"
      },
      "t_contract(Escrow)215": {
        "encoding": "inplace",
        "label": "contract Escrow",
        "numberOfBytes": "20"
      },
      "t_contract(IERC20)157": {
        "encoding": "inplace",
        "label": "contract IERC20",
        "numberOfBytes": "20"
      },
      "t_enum(SubmissionJudgement)367": {
        "encoding": "inplace",
        "label": "enum ITasks.SubmissionJudgement",
        "numberOfBytes": "1"
      },
      "t_enum(TaskState)430": {
        "encoding": "inplace",
        "label": "enum ITasks.TaskState",
        "numberOfBytes": "1"
      },
      "t_mapping(t_uint16,t_struct(Application)350_storage)": {
        "encoding": "mapping",
        "key": "t_uint16",
        "label": "mapping(uint16 => struct ITasks.Application)",
        "numberOfBytes": "32",
        "value": "t_struct(Application)350_storage"
      },
      "t_mapping(t_uint256,t_struct(Task)491_storage)": {
        "encoding": "mapping",
        "key": "t_uint256",
        "label": "mapping(uint256 => struct ITasks.Task)",
        "numberOfBytes": "32",
        "value": "t_struct(Task)491_storage"
      },
      "t_mapping(t_uint8,t_struct(CancelTaskRequest)426_storage)": {
        "encoding": "mapping",
        "key": "t_uint8",
        "label": "mapping(uint8 => struct ITasks.CancelTaskRequest)",
        "numberOfBytes": "32",
        "value": "t_struct(CancelTaskRequest)426_storage"
      },
      "t_mapping(t_uint8,t_struct(ChangeScopeRequest)399_storage)": {
        "encoding": "mapping",
        "key": "t_uint8",
        "label": "mapping(uint8 => struct ITasks.ChangeScopeRequest)",
        "numberOfBytes": "32",
        "value": "t_struct(ChangeScopeRequest)399_storage"
      },
      "t_mapping(t_uint8,t_struct(DropExecutorRequest)419_storage)": {
        "encoding": "mapping",
        "key": "t_uint8",
        "label": "mapping(uint8 => struct ITasks.DropExecutorRequest)",
        "numberOfBytes": "32",
        "value": "t_struct(DropExecutorRequest)419_storage"
      },
      "t_mapping(t_uint8,t_struct(ERC20Transfer)327_storage)": {
        "encoding": "mapping",
        "key": "t_uint8",
        "label": "mapping(uint8 => struct ITasks.ERC20Transfer)",
        "numberOfBytes": "32",
        "value": "t_struct(ERC20Transfer)327_storage"
      },
      "t_mapping(t_uint8,t_struct(Reward)334_storage)": {
        "encoding": "mapping",
        "key": "t_uint8",
        "label": "mapping(uint8 => struct ITasks.Reward)",
        "numberOfBytes": "32",
        "value": "t_struct(Reward)334_storage"
      },
      "t_mapping(t_uint8,t_struct(Submission)379_storage)": {
        "encoding": "mapping",
        "key": "t_uint8",
        "label": "mapping(uint8 => struct ITasks.Submission)",
        "numberOfBytes": "32",
        "value": "t_struct(Submission)379_storage"
      },
      "t_string_storage": {
        "encoding": "bytes",
        "label": "string",
        "numberOfBytes": "32"
      },
      "t_struct(Application)350_storage": {
        "encoding": "inplace",
        "label": "struct ITasks.Application",
        "members": [
          {
            "astId": 336,
            "contract": "contracts/Tasks/Tasks.sol:Tasks",
            "label": "metadata",
            "offset": 0,
            "slot": "0",
            "type": "t_string_storage"
          },
          {
            "astId": 338,
            "contract": "contracts/Tasks/Tasks.sol:Tasks",
            "label": "timestamp",
            "offset": 0,
            "slot": "1",
            "type": "t_uint64"
          },
          {
            "astId": 340,
            "contract": "contracts/Tasks/Tasks.sol:Tasks",
            "label": "applicant",
            "offset": 8,
            "slot": "1",
            "type": "t_address"
          },
          {
            "astId": 342,
            "contract": "contracts/Tasks/Tasks.sol:Tasks",
            "label": "accepted",
            "offset": 28,
            "slot": "1",
            "type": "t_bool"
          },
          {
            "astId": 344,
            "contract": "contracts/Tasks/Tasks.sol:Tasks",
            "label": "rewardCount",
            "offset": 29,
            "slot": "1",
            "type": "t_uint8"
          },
          {
            "astId": 349,
            "contract": "contracts/Tasks/Tasks.sol:Tasks",
            "label": "reward",
            "offset": 0,
            "slot": "2",
            "type": "t_mapping(t_uint8,t_struct(Reward)334_storage)"
          }
        ],
        "numberOfBytes": "96"
      },
      "t_struct(CancelTaskRequest)426_storage": {
        "encoding": "inplace",
        "label": "struct ITasks.CancelTaskRequest",
        "members": [
          {
            "astId": 421,
            "contract": "contracts/Tasks/Tasks.sol:Tasks",
            "label": "explanation",
            "offset": 0,
            "slot": "0",
            "type": "t_string_storage"
          },
          {
            "astId": 423,
            "contract": "contracts/Tasks/Tasks.sol:Tasks",
            "label": "timestamp",
            "offset": 0,
            "slot": "1",
            "type": "t_uint64"
          },
          {
            "astId": 425,
            "contract": "contracts/Tasks/Tasks.sol:Tasks",
            "label": "accepted",
            "offset": 8,
            "slot": "1",
            "type": "t_uint64"
          }
        ],
        "numberOfBytes": "64"
      },
      "t_struct(ChangeScopeRequest)399_storage": {
        "encoding": "inplace",
        "label": "struct ITasks.ChangeScopeRequest",
        "members": [
          {
            "astId": 385,
            "contract": "contracts/Tasks/Tasks.sol:Tasks",
            "label": "metadata",
            "offset": 0,
            "slot": "0",
            "type": "t_string_storage"
          },
          {
            "astId": 387,
            "contract": "contracts/Tasks/Tasks.sol:Tasks",
            "label": "timestamp",
            "offset": 0,
            "slot": "1",
            "type": "t_uint64"
          },
          {
            "astId": 389,
            "contract": "contracts/Tasks/Tasks.sol:Tasks",
            "label": "accepted",
            "offset": 8,
            "slot": "1",
            "type": "t_uint64"
          },
          {
            "astId": 391,
            "contract": "contracts/Tasks/Tasks.sol:Tasks",
            "label": "deadline",
            "offset": 16,
            "slot": "1",
            "type": "t_uint64"
          },
          {
            "astId": 393,
            "contract": "contracts/Tasks/Tasks.sol:Tasks",
            "label": "rewardCount",
            "offset": 24,
            "slot": "1",
            "type": "t_uint8"
          },
          {
            "astId": 398,
            "contract": "contracts/Tasks/Tasks.sol:Tasks",
            "label": "reward",
            "offset": 0,
            "slot": "2",
            "type": "t_mapping(t_uint8,t_struct(Reward)334_storage)"
          }
        ],
        "numberOfBytes": "96"
      },
      "t_struct(DropExecutorRequest)419_storage": {
        "encoding": "inplace",
        "label": "struct ITasks.DropExecutorRequest",
        "members": [
          {
            "astId": 414,
            "contract": "contracts/Tasks/Tasks.sol:Tasks",
            "label": "explanation",
            "offset": 0,
            "slot": "0",
            "type": "t_string_storage"
          },
          {
            "astId": 416,
            "contract": "contracts/Tasks/Tasks.sol:Tasks",
            "label": "timestamp",
            "offset": 0,
            "slot": "1",
            "type": "t_uint64"
          },
          {
            "astId": 418,
            "contract": "contracts/Tasks/Tasks.sol:Tasks",
            "label": "accepted",
            "offset": 8,
            "slot": "1",
            "type": "t_uint64"
          }
        ],
        "numberOfBytes": "64"
      },
      "t_struct(ERC20Transfer)327_storage": {
        "encoding": "inplace",
        "label": "struct ITasks.ERC20Transfer",
        "members": [
          {
            "astId": 324,
            "contract": "contracts/Tasks/Tasks.sol:Tasks",
            "label": "tokenContract",
            "offset": 0,
            "slot": "0",
            "type": "t_contract(IERC20)157"
          },
          {
            "astId": 326,
            "contract": "contracts/Tasks/Tasks.sol:Tasks",
            "label": "amount",
            "offset": 20,
            "slot": "0",
            "type": "t_uint96"
          }
        ],
        "numberOfBytes": "32"
      },
      "t_struct(Reward)334_storage": {
        "encoding": "inplace",
        "label": "struct ITasks.Reward",
        "members": [
          {
            "astId": 329,
            "contract": "contracts/Tasks/Tasks.sol:Tasks",
            "label": "nextToken",
            "offset": 0,
            "slot": "0",
            "type": "t_bool"
          },
          {
            "astId": 331,
            "contract": "contracts/Tasks/Tasks.sol:Tasks",
            "label": "to",
            "offset": 1,
            "slot": "0",
            "type": "t_address"
          },
          {
            "astId": 333,
            "contract": "contracts/Tasks/Tasks.sol:Tasks",
            "label": "amount",
            "offset": 21,
            "slot": "0",
            "type": "t_uint88"
          }
        ],
        "numberOfBytes": "32"
      },
      "t_struct(Submission)379_storage": {
        "encoding": "inplace",
        "label": "struct ITasks.Submission",
        "members": [
          {
            "astId": 369,
            "contract": "contracts/Tasks/Tasks.sol:Tasks",
            "label": "metadata",
            "offset": 0,
            "slot": "0",
            "type": "t_string_storage"
          },
          {
            "astId": 371,
            "contract": "contracts/Tasks/Tasks.sol:Tasks",
            "label": "timestamp",
            "offset": 0,
            "slot": "1",
            "type": "t_uint64"
          },
          {
            "astId": 374,
            "contract": "contracts/Tasks/Tasks.sol:Tasks",
            "label": "judgement",
            "offset": 8,
            "slot": "1",
            "type": "t_enum(SubmissionJudgement)367"
          },
          {
            "astId": 376,
            "contract": "contracts/Tasks/Tasks.sol:Tasks",
            "label": "judgementTimestamp",
            "offset": 9,
            "slot": "1",
            "type": "t_uint64"
          },
          {
            "astId": 378,
            "contract": "contracts/Tasks/Tasks.sol:Tasks",
            "label": "feedback",
            "offset": 0,
            "slot": "2",
            "type": "t_string_storage"
          }
        ],
        "numberOfBytes": "96"
      },
      "t_struct(Task)491_storage": {
        "encoding": "inplace",
        "label": "struct ITasks.Task",
        "members": [
          {
            "astId": 432,
            "contract": "contracts/Tasks/Tasks.sol:Tasks",
            "label": "metadata",
            "offset": 0,
            "slot": "0",
            "type": "t_string_storage"
          },
          {
            "astId": 434,
            "contract": "contracts/Tasks/Tasks.sol:Tasks",
            "label": "creationTimestamp",
            "offset": 0,
            "slot": "1",
            "type": "t_uint64"
          },
          {
            "astId": 436,
            "contract": "contracts/Tasks/Tasks.sol:Tasks",
            "label": "executorConfirmationTimestamp",
            "offset": 8,
            "slot": "1",
            "type": "t_uint64"
          },
          {
            "astId": 438,
            "contract": "contracts/Tasks/Tasks.sol:Tasks",
            "label": "deadline",
            "offset": 16,
            "slot": "1",
            "type": "t_uint64"
          },
          {
            "astId": 441,
            "contract": "contracts/Tasks/Tasks.sol:Tasks",
            "label": "escrow",
            "offset": 0,
            "slot": "2",
            "type": "t_contract(Escrow)215"
          },
          {
            "astId": 443,
            "contract": "contracts/Tasks/Tasks.sol:Tasks",
            "label": "proposer",
            "offset": 0,
            "slot": "3",
            "type": "t_address"
          },
          {
            "astId": 446,
            "contract": "contracts/Tasks/Tasks.sol:Tasks",
            "label": "state",
            "offset": 20,
            "slot": "3",
            "type": "t_enum(TaskState)430"
          },
          {
            "astId": 448,
            "contract": "contracts/Tasks/Tasks.sol:Tasks",
            "label": "executorApplication",
            "offset": 21,
            "slot": "3",
            "type": "t_uint16"
          },
          {
            "astId": 450,
            "contract": "contracts/Tasks/Tasks.sol:Tasks",
            "label": "budgetCount",
            "offset": 23,
            "slot": "3",
            "type": "t_uint8"
          },
          {
            "astId": 452,
            "contract": "contracts/Tasks/Tasks.sol:Tasks",
            "label": "applicationCount",
            "offset": 24,
            "slot": "3",
            "type": "t_uint16"
          },
          {
            "astId": 454,
            "contract": "contracts/Tasks/Tasks.sol:Tasks",
            "label": "submissionCount",
            "offset": 26,
            "slot": "3",
            "type": "t_uint8"
          },
          {
            "astId": 456,
            "contract": "contracts/Tasks/Tasks.sol:Tasks",
            "label": "changeScopeRequestCount",
            "offset": 27,
            "slot": "3",
            "type": "t_uint8"
          },
          {
            "astId": 458,
            "contract": "contracts/Tasks/Tasks.sol:Tasks",
            "label": "dropExecutorRequestCount",
            "offset": 28,
            "slot": "3",
            "type": "t_uint8"
          },
          {
            "astId": 460,
            "contract": "contracts/Tasks/Tasks.sol:Tasks",
            "label": "cancelTaskRequestCount",
            "offset": 29,
            "slot": "3",
            "type": "t_uint8"
          },
          {
            "astId": 465,
            "contract": "contracts/Tasks/Tasks.sol:Tasks",
            "label": "budget",
            "offset": 0,
            "slot": "4",
            "type": "t_mapping(t_uint8,t_struct(ERC20Transfer)327_storage)"
          },
          {
            "astId": 470,
            "contract": "contracts/Tasks/Tasks.sol:Tasks",
            "label": "applications",
            "offset": 0,
            "slot": "5",
            "type": "t_mapping(t_uint16,t_struct(Application)350_storage)"
          },
          {
            "astId": 475,
            "contract": "contracts/Tasks/Tasks.sol:Tasks",
            "label": "submissions",
            "offset": 0,
            "slot": "6",
            "type": "t_mapping(t_uint8,t_struct(Submission)379_storage)"
          },
          {
            "astId": 480,
            "contract": "contracts/Tasks/Tasks.sol:Tasks",
            "label": "changeScopeRequests",
            "offset": 0,
            "slot": "7",
            "type": "t_mapping(t_uint8,t_struct(ChangeScopeRequest)399_storage)"
          },
          {
            "astId": 485,
            "contract": "contracts/Tasks/Tasks.sol:Tasks",
            "label": "dropExecutorRequests",
            "offset": 0,
            "slot": "8",
            "type": "t_mapping(t_uint8,t_struct(DropExecutorRequest)419_storage)"
          },
          {
            "astId": 490,
            "contract": "contracts/Tasks/Tasks.sol:Tasks",
            "label": "cancelTaskRequests",
            "offset": 0,
            "slot": "9",
            "type": "t_mapping(t_uint8,t_struct(CancelTaskRequest)426_storage)"
          }
        ],
        "numberOfBytes": "320"
      },
      "t_uint16": {
        "encoding": "inplace",
        "label": "uint16",
        "numberOfBytes": "2"
      },
      "t_uint256": {
        "encoding": "inplace",
        "label": "uint256",
        "numberOfBytes": "32"
      },
      "t_uint64": {
        "encoding": "inplace",
        "label": "uint64",
        "numberOfBytes": "8"
      },
      "t_uint8": {
        "encoding": "inplace",
        "label": "uint8",
        "numberOfBytes": "1"
      },
      "t_uint88": {
        "encoding": "inplace",
        "label": "uint88",
        "numberOfBytes": "11"
      },
      "t_uint96": {
        "encoding": "inplace",
        "label": "uint96",
        "numberOfBytes": "12"
      }
    }
  }
}