{
  "address": "0xc185B032C39544060D57E3304bE0fFb0c235118e",
  "abi": [
    {
      "inputs": [
        {
          "internalType": "address",
          "name": "dao",
          "type": "address"
        },
        {
          "internalType": "address",
          "name": "where",
          "type": "address"
        },
        {
          "internalType": "address",
          "name": "who",
          "type": "address"
        },
        {
          "internalType": "bytes32",
          "name": "permissionId",
          "type": "bytes32"
        }
      ],
      "name": "DaoUnauthorized",
      "type": "error"
    },
    {
      "anonymous": false,
      "inputs": [
        {
          "indexed": false,
          "internalType": "address",
          "name": "previousAdmin",
          "type": "address"
        },
        {
          "indexed": false,
          "internalType": "address",
          "name": "newAdmin",
          "type": "address"
        }
      ],
      "name": "AdminChanged",
      "type": "event"
    },
    {
      "anonymous": false,
      "inputs": [
        {
          "indexed": true,
          "internalType": "address",
          "name": "beacon",
          "type": "address"
        }
      ],
      "name": "BeaconUpgraded",
      "type": "event"
    },
    {
      "anonymous": false,
      "inputs": [
        {
          "indexed": false,
          "internalType": "uint8",
          "name": "version",
          "type": "uint8"
        }
      ],
      "name": "Initialized",
      "type": "event"
    },
    {
      "anonymous": false,
      "inputs": [
        {
          "indexed": true,
          "internalType": "address",
          "name": "implementation",
          "type": "address"
        }
      ],
      "name": "Upgraded",
      "type": "event"
    },
    {
      "inputs": [],
      "name": "UPGRADE_PLUGIN_PERMISSION_ID",
      "outputs": [
        {
          "internalType": "bytes32",
          "name": "",
          "type": "bytes32"
        }
      ],
      "stateMutability": "view",
      "type": "function"
    },
    {
      "inputs": [
        {
          "internalType": "bytes",
          "name": "_metadata",
          "type": "bytes"
        },
        {
          "internalType": "uint64",
          "name": "_startDate",
          "type": "uint64"
        },
        {
          "internalType": "uint64",
          "name": "_endDate",
          "type": "uint64"
        },
        {
          "components": [
            {
              "internalType": "string",
              "name": "metadata",
              "type": "string"
            },
            {
              "internalType": "uint64",
              "name": "deadline",
              "type": "uint64"
            },
            {
              "components": [
                {
                  "internalType": "contract IERC20",
                  "name": "tokenContract",
                  "type": "address"
                },
                {
                  "internalType": "uint96",
                  "name": "amount",
                  "type": "uint96"
                }
              ],
              "internalType": "struct ITasks.ERC20Transfer[]",
              "name": "budget",
              "type": "tuple[]"
            },
            {
              "internalType": "address",
              "name": "manager",
              "type": "address"
            },
            {
              "components": [
                {
                  "internalType": "address",
                  "name": "applicant",
                  "type": "address"
                },
                {
                  "components": [
                    {
                      "internalType": "bool",
                      "name": "nextToken",
                      "type": "bool"
                    },
                    {
                      "internalType": "address",
                      "name": "to",
                      "type": "address"
                    },
                    {
                      "internalType": "uint88",
                      "name": "amount",
                      "type": "uint88"
                    }
                  ],
                  "internalType": "struct ITasks.Reward[]",
                  "name": "reward",
                  "type": "tuple[]"
                }
              ],
              "internalType": "struct ITasks.PreapprovedApplication[]",
              "name": "preapproved",
              "type": "tuple[]"
            }
          ],
          "internalType": "struct ITaskDrafts.CreateTaskInfo",
          "name": "_taskInfo",
          "type": "tuple"
        }
      ],
      "name": "createDraftTask",
      "outputs": [],
      "stateMutability": "nonpayable",
      "type": "function"
    },
    {
      "inputs": [],
      "name": "dao",
      "outputs": [
        {
          "internalType": "contract IDAO",
          "name": "",
          "type": "address"
        }
      ],
      "stateMutability": "view",
      "type": "function"
    },
    {
      "inputs": [],
      "name": "getGovernanceContract",
      "outputs": [
        {
          "internalType": "contract IPluginProposals",
          "name": "",
          "type": "address"
        }
      ],
      "stateMutability": "view",
      "type": "function"
    },
    {
      "inputs": [],
      "name": "getTasksContract",
      "outputs": [
        {
          "internalType": "contract ITasks",
          "name": "",
          "type": "address"
        }
      ],
      "stateMutability": "view",
      "type": "function"
    },
    {
      "inputs": [],
      "name": "implementation",
      "outputs": [
        {
          "internalType": "address",
          "name": "",
          "type": "address"
        }
      ],
      "stateMutability": "view",
      "type": "function"
    },
    {
      "inputs": [
        {
          "internalType": "contract IDAO",
          "name": "_dao",
          "type": "address"
        },
        {
          "internalType": "contract ITasks",
          "name": "_tasks",
          "type": "address"
        },
        {
          "internalType": "contract IPluginProposals",
          "name": "_governancePlugin",
          "type": "address"
        }
      ],
      "name": "initialize",
      "outputs": [],
      "stateMutability": "nonpayable",
      "type": "function"
    },
    {
      "inputs": [],
      "name": "pluginType",
      "outputs": [
        {
          "internalType": "enum IPlugin.PluginType",
          "name": "",
          "type": "uint8"
        }
      ],
      "stateMutability": "pure",
      "type": "function"
    },
    {
      "inputs": [],
      "name": "proxiableUUID",
      "outputs": [
        {
          "internalType": "bytes32",
          "name": "",
          "type": "bytes32"
        }
      ],
      "stateMutability": "view",
      "type": "function"
    },
    {
      "inputs": [
        {
          "internalType": "bytes4",
          "name": "_interfaceId",
          "type": "bytes4"
        }
      ],
      "name": "supportsInterface",
      "outputs": [
        {
          "internalType": "bool",
          "name": "",
          "type": "bool"
        }
      ],
      "stateMutability": "view",
      "type": "function"
    },
    {
      "inputs": [
        {
          "internalType": "contract ITasks",
          "name": "_tasks",
          "type": "address"
        },
        {
          "internalType": "contract IPluginProposals",
          "name": "_governancePlugin",
          "type": "address"
        }
      ],
      "name": "updateAddresses",
      "outputs": [],
      "stateMutability": "nonpayable",
      "type": "function"
    },
    {
      "inputs": [
        {
          "internalType": "address",
          "name": "newImplementation",
          "type": "address"
        }
      ],
      "name": "upgradeTo",
      "outputs": [],
      "stateMutability": "nonpayable",
      "type": "function"
    },
    {
      "inputs": [
        {
          "internalType": "address",
          "name": "newImplementation",
          "type": "address"
        },
        {
          "internalType": "bytes",
          "name": "data",
          "type": "bytes"
        }
      ],
      "name": "upgradeToAndCall",
      "outputs": [],
      "stateMutability": "payable",
      "type": "function"
    }
  ],
  "args": [],
  "numDeployments": 2,
  "solcInputHash": "3676d7d352686f95242024cb5d960872",
  "bytecode": "0x60a06040523060805234801561001457600080fd5b5061001d610022565b6100e1565b600054610100900460ff161561008e5760405162461bcd60e51b815260206004820152602760248201527f496e697469616c697a61626c653a20636f6e747261637420697320696e697469604482015266616c697a696e6760c81b606482015260840160405180910390fd5b60005460ff908116146100df576000805460ff191660ff9081179091556040519081527f7f26b83ff96e1f2b6a682f133852f6798a09c465da95921460cefb38474024989060200160405180910390a15b565b608051611fe761011860003960008181610340015281816103f50152818161054a015281816105fa01526107430152611fe76000f3fe6080604052600436106100d25760003560e01c80635c60da1b1161007f578063c1d1103711610059578063c1d1103714610221578063c9c4bfca14610241578063d2c6c68114610275578063ef2fa85f146102a157600080fd5b80635c60da1b146101cc578063c0c53b8b146101e1578063c0cf926b1461020157600080fd5b806341de6830116100b057806341de68301461017a5780634f1ef2861461019657806352d1902d146101a957600080fd5b806301ffc9a7146100d75780633659cfe61461010c5780634162169f1461012e575b600080fd5b3480156100e357600080fd5b506100f76100f23660046115f8565b6102cd565b60405190151581526020015b60405180910390f35b34801561011857600080fd5b5061012c61012736600461165c565b610329565b005b34801561013a57600080fd5b5060c95473ffffffffffffffffffffffffffffffffffffffff165b60405173ffffffffffffffffffffffffffffffffffffffff9091168152602001610103565b34801561018657600080fd5b5060006040516101039190611679565b61012c6101a43660046116e9565b610533565b3480156101b557600080fd5b506101be610729565b604051908152602001610103565b3480156101d857600080fd5b50610155610815565b3480156101ed57600080fd5b5061012c6101fc3660046117cb565b61085a565b34801561020d57600080fd5b5061012c61021c36600461184b565b610a47565b34801561022d57600080fd5b5061012c61023c366004611904565b610c8b565b34801561024d57600080fd5b506101be7f821b6e3a557148015a918c89e5d092e878a69854a2d1a410635f771bd5a8a3f581565b34801561028157600080fd5b5061012d5473ffffffffffffffffffffffffffffffffffffffff16610155565b3480156102ad57600080fd5b5061012e5473ffffffffffffffffffffffffffffffffffffffff16610155565b60007fffffffff0000000000000000000000000000000000000000000000000000000082167f3cf7ec82000000000000000000000000000000000000000000000000000000001480610323575061032382610d2c565b92915050565b73ffffffffffffffffffffffffffffffffffffffff7f00000000000000000000000000000000000000000000000000000000000000001630036103f3576040517f08c379a000000000000000000000000000000000000000000000000000000000815260206004820152602c60248201527f46756e6374696f6e206d7573742062652063616c6c6564207468726f7567682060448201527f64656c656761746563616c6c000000000000000000000000000000000000000060648201526084015b60405180910390fd5b7f000000000000000000000000000000000000000000000000000000000000000073ffffffffffffffffffffffffffffffffffffffff166104687f360894a13ba1a3210667c828492db98dca3e2076cc3735a920a3ca505d382bbc5473ffffffffffffffffffffffffffffffffffffffff1690565b73ffffffffffffffffffffffffffffffffffffffff161461050b576040517f08c379a000000000000000000000000000000000000000000000000000000000815260206004820152602c60248201527f46756e6374696f6e206d7573742062652063616c6c6564207468726f7567682060448201527f6163746976652070726f7879000000000000000000000000000000000000000060648201526084016103ea565b61051481610e0f565b6040805160008082526020820190925261053091839190610e55565b50565b73ffffffffffffffffffffffffffffffffffffffff7f00000000000000000000000000000000000000000000000000000000000000001630036105f8576040517f08c379a000000000000000000000000000000000000000000000000000000000815260206004820152602c60248201527f46756e6374696f6e206d7573742062652063616c6c6564207468726f7567682060448201527f64656c656761746563616c6c000000000000000000000000000000000000000060648201526084016103ea565b7f000000000000000000000000000000000000000000000000000000000000000073ffffffffffffffffffffffffffffffffffffffff1661066d7f360894a13ba1a3210667c828492db98dca3e2076cc3735a920a3ca505d382bbc5473ffffffffffffffffffffffffffffffffffffffff1690565b73ffffffffffffffffffffffffffffffffffffffff1614610710576040517f08c379a000000000000000000000000000000000000000000000000000000000815260206004820152602c60248201527f46756e6374696f6e206d7573742062652063616c6c6564207468726f7567682060448201527f6163746976652070726f7879000000000000000000000000000000000000000060648201526084016103ea565b61071982610e0f565b61072582826001610e55565b5050565b60003073ffffffffffffffffffffffffffffffffffffffff7f000000000000000000000000000000000000000000000000000000000000000016146107f0576040517f08c379a000000000000000000000000000000000000000000000000000000000815260206004820152603860248201527f555550535570677261646561626c653a206d757374206e6f742062652063616c60448201527f6c6564207468726f7567682064656c656761746563616c6c000000000000000060648201526084016103ea565b507f360894a13ba1a3210667c828492db98dca3e2076cc3735a920a3ca505d382bbc90565b60006108557f360894a13ba1a3210667c828492db98dca3e2076cc3735a920a3ca505d382bbc5473ffffffffffffffffffffffffffffffffffffffff1690565b905090565b600054610100900460ff161580801561087a5750600054600160ff909116105b806108945750303b158015610894575060005460ff166001145b610920576040517f08c379a000000000000000000000000000000000000000000000000000000000815260206004820152602e60248201527f496e697469616c697a61626c653a20636f6e747261637420697320616c72656160448201527f647920696e697469616c697a656400000000000000000000000000000000000060648201526084016103ea565b600080547fffffffffffffffffffffffffffffffffffffffffffffffffffffffffffffff00166001179055801561097e57600080547fffffffffffffffffffffffffffffffffffffffffffffffffffffffffffff00ff166101001790555b61098784611059565b61012d805473ffffffffffffffffffffffffffffffffffffffff8086167fffffffffffffffffffffffff00000000000000000000000000000000000000009283161790925561012e8054928516929091169190911790558015610a4157600080547fffffffffffffffffffffffffffffffffffffffffffffffffffffffffffff00ff169055604051600181527f7f26b83ff96e1f2b6a682f133852f6798a09c465da95921460cefb38474024989060200160405180910390a15b50505050565b604080516001808252818301909252600091816020015b60408051606080820183526000808352602083015291810191909152815260200190600190039081610a5e57905050905060007f978a2b5300000000000000000000000000000000000000000000000000000000610abc848061193d565b610acc60408701602088016119a9565b610ad960408801886119c4565b610ae960808a0160608b0161165c565b610af660808b018b611a2c565b604051602401610b0d989796959493929190611c70565b604080517fffffffffffffffffffffffffffffffffffffffffffffffffffffffffffffffe0818403018152918152602080830180517bffffffffffffffffffffffffffffffffffffffffffffffffffffffff167fffffffff0000000000000000000000000000000000000000000000000000000090951694909417909352805160608101825261012d5473ffffffffffffffffffffffffffffffffffffffff16815260009381018490529081018290528451919350918491610bd157610bd1611d4f565b60209081029190910101525061012e546040517f23b8897400000000000000000000000000000000000000000000000000000000815273ffffffffffffffffffffffffffffffffffffffff909116906323b8897490610c3f908990899086906000908b908b90600401611dec565b6020604051808303816000875af1158015610c5e573d6000803e3d6000fd5b505050506040513d601f19601f82011682018060405250810190610c829190611ee5565b50505050505050565b60c9547f37c20ba3fe5e4e1eb04b4bdb30d528f9d2d37a43a745d3976dffa671d4a3895390610cd69073ffffffffffffffffffffffffffffffffffffffff1630335b846000366110f9565b5061012d805473ffffffffffffffffffffffffffffffffffffffff9384167fffffffffffffffffffffffff00000000000000000000000000000000000000009182161790915561012e8054929093169116179055565b60007fffffffff0000000000000000000000000000000000000000000000000000000082167f41de6830000000000000000000000000000000000000000000000000000000001480610dbf57507fffffffff0000000000000000000000000000000000000000000000000000000082167f52d1902d00000000000000000000000000000000000000000000000000000000145b8061032357507f01ffc9a7000000000000000000000000000000000000000000000000000000007fffffffff00000000000000000000000000000000000000000000000000000000831614610323565b60c9547f821b6e3a557148015a918c89e5d092e878a69854a2d1a410635f771bd5a8a3f5906107259073ffffffffffffffffffffffffffffffffffffffff163033610ccd565b7f4910fdfa16fed3260ed0e7147f7cc6da11a60208b5b9406d12a635614ffd91435460ff1615610e8d57610e8883611201565b505050565b8273ffffffffffffffffffffffffffffffffffffffff166352d1902d6040518163ffffffff1660e01b8152600401602060405180830381865afa925050508015610f12575060408051601f3d9081017fffffffffffffffffffffffffffffffffffffffffffffffffffffffffffffffe0168201909252610f0f91810190611ee5565b60015b610f9e576040517f08c379a000000000000000000000000000000000000000000000000000000000815260206004820152602e60248201527f45524331393637557067726164653a206e657720696d706c656d656e7461746960448201527f6f6e206973206e6f74205555505300000000000000000000000000000000000060648201526084016103ea565b7f360894a13ba1a3210667c828492db98dca3e2076cc3735a920a3ca505d382bbc811461104d576040517f08c379a000000000000000000000000000000000000000000000000000000000815260206004820152602960248201527f45524331393637557067726164653a20756e737570706f727465642070726f7860448201527f6961626c6555554944000000000000000000000000000000000000000000000060648201526084016103ea565b50610e8883838361130b565b600054610100900460ff166110f0576040517f08c379a000000000000000000000000000000000000000000000000000000000815260206004820152602b60248201527f496e697469616c697a61626c653a20636f6e7472616374206973206e6f74206960448201527f6e697469616c697a696e6700000000000000000000000000000000000000000060648201526084016103ea565b61053081611330565b6040517ffdef910600000000000000000000000000000000000000000000000000000000815273ffffffffffffffffffffffffffffffffffffffff87169063fdef9106906111539088908890889088908890600401611efe565b602060405180830381865afa158015611170573d6000803e3d6000fd5b505050506040513d601f19601f820116820180604052508101906111949190611f3e565b6111f9576040517f32dbe3b400000000000000000000000000000000000000000000000000000000815273ffffffffffffffffffffffffffffffffffffffff8088166004830152808716602483015285166044820152606481018490526084016103ea565b505050505050565b73ffffffffffffffffffffffffffffffffffffffff81163b6112a5576040517f08c379a000000000000000000000000000000000000000000000000000000000815260206004820152602d60248201527f455243313936373a206e657720696d706c656d656e746174696f6e206973206e60448201527f6f74206120636f6e74726163740000000000000000000000000000000000000060648201526084016103ea565b7f360894a13ba1a3210667c828492db98dca3e2076cc3735a920a3ca505d382bbc80547fffffffffffffffffffffffff00000000000000000000000000000000000000001673ffffffffffffffffffffffffffffffffffffffff92909216919091179055565b6113148361140e565b6000825111806113215750805b15610e8857610a41838361145b565b600054610100900460ff166113c7576040517f08c379a000000000000000000000000000000000000000000000000000000000815260206004820152602b60248201527f496e697469616c697a61626c653a20636f6e7472616374206973206e6f74206960448201527f6e697469616c697a696e6700000000000000000000000000000000000000000060648201526084016103ea565b60c980547fffffffffffffffffffffffff00000000000000000000000000000000000000001673ffffffffffffffffffffffffffffffffffffffff92909216919091179055565b61141781611201565b60405173ffffffffffffffffffffffffffffffffffffffff8216907fbc7cd75a20ee27fd9adebab32041f755214dbc6bffa90cc0225b39da2e5c2d3b90600090a250565b60606114808383604051806060016040528060278152602001611f8b60279139611487565b9392505050565b60606000808573ffffffffffffffffffffffffffffffffffffffff16856040516114b19190611f5b565b600060405180830381855af49150503d80600081146114ec576040519150601f19603f3d011682016040523d82523d6000602084013e6114f1565b606091505b50915091506115028683838761150c565b9695505050505050565b606083156115a257825160000361159b5773ffffffffffffffffffffffffffffffffffffffff85163b61159b576040517f08c379a000000000000000000000000000000000000000000000000000000000815260206004820152601d60248201527f416464726573733a2063616c6c20746f206e6f6e2d636f6e747261637400000060448201526064016103ea565b50816115ac565b6115ac83836115b4565b949350505050565b8151156115c45781518083602001fd5b806040517f08c379a00000000000000000000000000000000000000000000000000000000081526004016103ea9190611f77565b60006020828403121561160a57600080fd5b81357fffffffff000000000000000000000000000000000000000000000000000000008116811461148057600080fd5b73ffffffffffffffffffffffffffffffffffffffff8116811461053057600080fd5b60006020828403121561166e57600080fd5b81356114808161163a565b60208101600383106116b4577f4e487b7100000000000000000000000000000000000000000000000000000000600052602160045260246000fd5b91905290565b7f4e487b7100000000000000000000000000000000000000000000000000000000600052604160045260246000fd5b600080604083850312156116fc57600080fd5b82356117078161163a565b9150602083013567ffffffffffffffff8082111561172457600080fd5b818501915085601f83011261173857600080fd5b81358181111561174a5761174a6116ba565b604051601f82017fffffffffffffffffffffffffffffffffffffffffffffffffffffffffffffffe0908116603f01168101908382118183101715611790576117906116ba565b816040528281528860208487010111156117a957600080fd5b8260208601602083013760006020848301015280955050505050509250929050565b6000806000606084860312156117e057600080fd5b83356117eb8161163a565b925060208401356117fb8161163a565b9150604084013561180b8161163a565b809150509250925092565b803567ffffffffffffffff8116811461182e57600080fd5b919050565b600060a0828403121561184557600080fd5b50919050565b60008060008060006080868803121561186357600080fd5b853567ffffffffffffffff8082111561187b57600080fd5b818801915088601f83011261188f57600080fd5b81358181111561189e57600080fd5b8960208285010111156118b057600080fd5b602083019750809650506118c660208901611816565b94506118d460408901611816565b935060608801359150808211156118ea57600080fd5b506118f788828901611833565b9150509295509295909350565b6000806040838503121561191757600080fd5b82356119228161163a565b915060208301356119328161163a565b809150509250929050565b60008083357fffffffffffffffffffffffffffffffffffffffffffffffffffffffffffffffe184360301811261197257600080fd5b83018035915067ffffffffffffffff82111561198d57600080fd5b6020019150368190038213156119a257600080fd5b9250929050565b6000602082840312156119bb57600080fd5b61148082611816565b60008083357fffffffffffffffffffffffffffffffffffffffffffffffffffffffffffffffe18436030181126119f957600080fd5b83018035915067ffffffffffffffff821115611a1457600080fd5b6020019150600681901b36038213156119a257600080fd5b60008083357fffffffffffffffffffffffffffffffffffffffffffffffffffffffffffffffe1843603018112611a6157600080fd5b83018035915067ffffffffffffffff821115611a7c57600080fd5b6020019150600581901b36038213156119a257600080fd5b8183528181602085013750600060208284010152600060207fffffffffffffffffffffffffffffffffffffffffffffffffffffffffffffffe0601f840116840101905092915050565b801515811461053057600080fd5b81835260006020808501808196508560051b810191508460005b87811015611c6357828403895281357fffffffffffffffffffffffffffffffffffffffffffffffffffffffffffffffc1883603018112611b4457600080fd5b870160408581018235611b568161163a565b73ffffffffffffffffffffffffffffffffffffffff80821689528985013591507fffffffffffffffffffffffffffffffffffffffffffffffffffffffffffffffe1853603018212611ba657600080fd5b93018881019390359067ffffffffffffffff821115611bc457600080fd5b60608083023603861315611bd757600080fd5b898b0185905292829052600092808a015b83851015611c47578635611bfb81611add565b15158152868c0135611c0c8161163a565b8316818d0152868601356affffffffffffffffffffff8116808214611c3057600080fd5b828801525095810195600194909401938101611be8565b9e8b019e99505050948801945050506001919091019050611b05565b5091979650505050505050565b60a081526000611c8460a083018a8c611a94565b602067ffffffffffffffff8a16818501526040848303818601528289845282840190508a93506000805b8b811015611d0c578535611cc18161163a565b73ffffffffffffffffffffffffffffffffffffffff168352858501356bffffffffffffffffffffffff8116808214611cf7578384fd5b84870152509483019491830191600101611cae565b505073ffffffffffffffffffffffffffffffffffffffff891660608701528581036080870152611d3d81888a611aeb565b9e9d5050505050505050505050505050565b7f4e487b7100000000000000000000000000000000000000000000000000000000600052603260045260246000fd5b60005b83811015611d99578181015183820152602001611d81565b50506000910152565b60008151808452611dba816020860160208601611d7e565b601f017fffffffffffffffffffffffffffffffffffffffffffffffffffffffffffffffe0169290920160200192915050565b60a081526000611e0060a08301888a611a94565b6020838203818501528188518084528284019150828160051b850101838b0160005b83811015611ea4578683037fffffffffffffffffffffffffffffffffffffffffffffffffffffffffffffffe00185528151805173ffffffffffffffffffffffffffffffffffffffff1684528681015187850152604090810151606091850182905290611e9081860183611da2565b968801969450505090850190600101611e22565b5050604087018a905267ffffffffffffffff891660608801529450611ec99350505050565b67ffffffffffffffff831660808301525b979650505050505050565b600060208284031215611ef757600080fd5b5051919050565b600073ffffffffffffffffffffffffffffffffffffffff808816835280871660208401525084604083015260806060830152611eda608083018486611a94565b600060208284031215611f5057600080fd5b815161148081611add565b60008251611f6d818460208701611d7e565b9190910192915050565b6020815260006114806020830184611da256fe416464726573733a206c6f772d6c6576656c2064656c65676174652063616c6c206661696c6564a26469706673582212205fbf8e4ecb408db3cd3970c8a72989863530a7ab2d5a664281bd2557a91979be64736f6c63430008110033",
  "devdoc": {
    "errors": {
      "DaoUnauthorized(address,address,address,bytes32)": [
        {
          "params": {
            "dao": "The associated DAO.",
            "permissionId": "The permission identifier.",
            "where": "The context in which the authorization reverted.",
            "who": "The address (EOA or contract) missing the permission."
          }
        }
      ]
    },
    "kind": "dev",
    "methods": {
      "createDraftTask(bytes,uint64,uint64,(string,uint64,(address,uint96)[],address,(address,(bool,address,uint88)[])[]))": {
        "params": {
          "_endDate": "The end date of the proposal.",
          "_metadata": "The metadata of the proposal.",
          "_startDate": "The start date of the proposal.",
          "_taskInfo": "The task to be created if the proposal passes."
        }
      },
      "dao()": {
        "returns": {
          "_0": "The DAO contract."
        }
      },
      "implementation()": {
        "returns": {
          "_0": "The address of the implementation contract."
        }
      },
      "initialize(address,address,address)": {
        "params": {
          "_dao": "The dao where this plugin is installed.",
          "_governancePlugin": "The governance plugin contract to create proposals.",
          "_tasks": "The tasks contract to create tasks."
        }
      },
      "proxiableUUID()": {
        "details": "Implementation of the ERC1822 {proxiableUUID} function. This returns the storage slot used by the implementation. It is used to validate the implementation's compatibility when performing an upgrade. IMPORTANT: A proxy pointing at a proxiable contract should not be considered proxiable itself, because this risks bricking a proxy that upgrades to it, by delegating to itself until out of gas. Thus it is critical that this function revert if invoked through a proxy. This is guaranteed by the `notDelegated` modifier."
      },
      "supportsInterface(bytes4)": {
        "params": {
          "_interfaceId": "The ID of the interface."
        },
        "returns": {
          "_0": "Returns `true` if the interface is supported."
        }
      },
      "updateAddresses(address,address)": {
        "params": {
          "_governancePlugin": "The new governance plugin contract address.",
          "_tasks": "The new Tasks contract address."
        }
      },
      "upgradeTo(address)": {
        "custom:oz-upgrades-unsafe-allow-reachable": "delegatecall",
        "details": "Upgrade the implementation of the proxy to `newImplementation`. Calls {_authorizeUpgrade}. Emits an {Upgraded} event."
      },
      "upgradeToAndCall(address,bytes)": {
        "custom:oz-upgrades-unsafe-allow-reachable": "delegatecall",
        "details": "Upgrade the implementation of the proxy to `newImplementation`, and subsequently execute the function call encoded in `data`. Calls {_authorizeUpgrade}. Emits an {Upgraded} event."
      }
    },
    "version": 1
  },
  "userdoc": {
    "errors": {
      "DaoUnauthorized(address,address,address,bytes32)": [
        {
          "notice": "Thrown if a call is unauthorized in the associated DAO."
        }
      ]
    },
    "kind": "user",
    "methods": {
      "UPGRADE_PLUGIN_PERMISSION_ID()": {
        "notice": "The ID of the permission required to call the `_authorizeUpgrade` function."
      },
      "createDraftTask(bytes,uint64,uint64,(string,uint64,(address,uint96)[],address,(address,(bool,address,uint88)[])[]))": {
        "notice": "Create a proposal to create a task."
      },
      "dao()": {
        "notice": "Returns the DAO contract."
      },
      "getGovernanceContract()": {
        "notice": "The governance plugin (instance) contract where proposals are created."
      },
      "getTasksContract()": {
        "notice": "The Tasks contract where tasks are created."
      },
      "implementation()": {
        "notice": "Returns the address of the implementation contract in the [proxy storage slot](https://eips.ethereum.org/EIPS/eip-1967) slot the [UUPS proxy](https://eips.ethereum.org/EIPS/eip-1822) is pointing to."
      },
      "initialize(address,address,address)": {
        "notice": "Initialize the TaskDrafts plugin."
      },
      "pluginType()": {
        "notice": "Returns the plugin's type"
      },
      "supportsInterface(bytes4)": {
        "notice": "Checks if an interface is supported by this or its parent contract."
      },
      "updateAddresses(address,address)": {
        "notice": "Updates the Tasks and governance plugin contract addresses."
      }
    },
    "version": 1
  },
  "storageLayout": {
    "storage": [
      {
        "astId": 2853,
        "contract": "contracts/DAO/TaskDrafts/TaskDrafts.sol:TaskDrafts",
        "label": "_initialized",
        "offset": 0,
        "slot": "0",
        "type": "t_uint8"
      },
      {
        "astId": 2856,
        "contract": "contracts/DAO/TaskDrafts/TaskDrafts.sol:TaskDrafts",
        "label": "_initializing",
        "offset": 1,
        "slot": "0",
        "type": "t_bool"
      },
      {
        "astId": 4418,
        "contract": "contracts/DAO/TaskDrafts/TaskDrafts.sol:TaskDrafts",
        "label": "__gap",
        "offset": 0,
        "slot": "1",
        "type": "t_array(t_uint256)50_storage"
      },
      {
        "astId": 2835,
        "contract": "contracts/DAO/TaskDrafts/TaskDrafts.sol:TaskDrafts",
        "label": "__gap",
        "offset": 0,
        "slot": "51",
        "type": "t_array(t_uint256)50_storage"
      },
      {
        "astId": 3150,
        "contract": "contracts/DAO/TaskDrafts/TaskDrafts.sol:TaskDrafts",
        "label": "__gap",
        "offset": 0,
        "slot": "101",
        "type": "t_array(t_uint256)50_storage"
      },
      {
        "astId": 4193,
        "contract": "contracts/DAO/TaskDrafts/TaskDrafts.sol:TaskDrafts",
        "label": "__gap",
        "offset": 0,
        "slot": "151",
        "type": "t_array(t_uint256)50_storage"
      },
      {
        "astId": 2043,
        "contract": "contracts/DAO/TaskDrafts/TaskDrafts.sol:TaskDrafts",
        "label": "dao_",
        "offset": 0,
        "slot": "201",
        "type": "t_contract(IDAO)1013"
      },
      {
        "astId": 2092,
        "contract": "contracts/DAO/TaskDrafts/TaskDrafts.sol:TaskDrafts",
        "label": "__gap",
        "offset": 0,
        "slot": "202",
        "type": "t_array(t_uint256)49_storage"
      },
      {
        "astId": 2027,
        "contract": "contracts/DAO/TaskDrafts/TaskDrafts.sol:TaskDrafts",
        "label": "__gap",
        "offset": 0,
        "slot": "251",
        "type": "t_array(t_uint256)50_storage"
      },
      {
        "astId": 5842,
        "contract": "contracts/DAO/TaskDrafts/TaskDrafts.sol:TaskDrafts",
        "label": "tasks",
        "offset": 0,
        "slot": "301",
        "type": "t_contract(ITasks)6839"
      },
      {
        "astId": 5845,
        "contract": "contracts/DAO/TaskDrafts/TaskDrafts.sol:TaskDrafts",
        "label": "governancePlugin",
        "offset": 0,
        "slot": "302",
        "type": "t_contract(IPluginProposals)5757"
      }
    ],
    "types": {
      "t_array(t_uint256)49_storage": {
        "base": "t_uint256",
        "encoding": "inplace",
        "label": "uint256[49]",
        "numberOfBytes": "1568"
      },
      "t_array(t_uint256)50_storage": {
        "base": "t_uint256",
        "encoding": "inplace",
        "label": "uint256[50]",
        "numberOfBytes": "1600"
      },
      "t_bool": {
        "encoding": "inplace",
        "label": "bool",
        "numberOfBytes": "1"
      },
      "t_contract(IDAO)1013": {
        "encoding": "inplace",
        "label": "contract IDAO",
        "numberOfBytes": "20"
      },
      "t_contract(IPluginProposals)5757": {
        "encoding": "inplace",
        "label": "contract IPluginProposals",
        "numberOfBytes": "20"
      },
      "t_contract(ITasks)6839": {
        "encoding": "inplace",
        "label": "contract ITasks",
        "numberOfBytes": "20"
      },
      "t_uint256": {
        "encoding": "inplace",
        "label": "uint256",
        "numberOfBytes": "32"
      },
      "t_uint8": {
        "encoding": "inplace",
        "label": "uint8",
        "numberOfBytes": "1"
      }
    }
  }
}