{
  "address": "0x7D3865834de4e28D2a97D9fA8ad7432Dd3Ded851",
  "abi": [
    {
      "inputs": [],
      "stateMutability": "nonpayable",
      "type": "constructor"
    },
    {
      "inputs": [],
      "name": "implementation",
      "outputs": [
        {
          "internalType": "address",
          "name": "",
          "type": "address"
        }
      ],
      "stateMutability": "view",
      "type": "function"
    },
    {
      "inputs": [
        {
          "internalType": "address",
          "name": "_dao",
          "type": "address"
        },
        {
          "internalType": "bytes",
          "name": "_data",
          "type": "bytes"
        }
      ],
      "name": "prepareInstallation",
      "outputs": [
        {
          "internalType": "address",
          "name": "plugin",
          "type": "address"
        },
        {
          "components": [
            {
              "internalType": "address[]",
              "name": "helpers",
              "type": "address[]"
            },
            {
              "components": [
                {
                  "internalType": "enum PermissionLib.Operation",
                  "name": "operation",
                  "type": "uint8"
                },
                {
                  "internalType": "address",
                  "name": "where",
                  "type": "address"
                },
                {
                  "internalType": "address",
                  "name": "who",
                  "type": "address"
                },
                {
                  "internalType": "address",
                  "name": "condition",
                  "type": "address"
                },
                {
                  "internalType": "bytes32",
                  "name": "permissionId",
                  "type": "bytes32"
                }
              ],
              "internalType": "struct PermissionLib.MultiTargetPermission[]",
              "name": "permissions",
              "type": "tuple[]"
            }
          ],
          "internalType": "struct IPluginSetup.PreparedSetupData",
          "name": "preparedSetupData",
          "type": "tuple"
        }
      ],
      "stateMutability": "nonpayable",
      "type": "function"
    },
    {
      "inputs": [
        {
          "internalType": "address",
          "name": "_dao",
          "type": "address"
        },
        {
          "components": [
            {
              "internalType": "address",
              "name": "plugin",
              "type": "address"
            },
            {
              "internalType": "address[]",
              "name": "currentHelpers",
              "type": "address[]"
            },
            {
              "internalType": "bytes",
              "name": "data",
              "type": "bytes"
            }
          ],
          "internalType": "struct IPluginSetup.SetupPayload",
          "name": "_payload",
          "type": "tuple"
        }
      ],
      "name": "prepareUninstallation",
      "outputs": [
        {
          "components": [
            {
              "internalType": "enum PermissionLib.Operation",
              "name": "operation",
              "type": "uint8"
            },
            {
              "internalType": "address",
              "name": "where",
              "type": "address"
            },
            {
              "internalType": "address",
              "name": "who",
              "type": "address"
            },
            {
              "internalType": "address",
              "name": "condition",
              "type": "address"
            },
            {
              "internalType": "bytes32",
              "name": "permissionId",
              "type": "bytes32"
            }
          ],
          "internalType": "struct PermissionLib.MultiTargetPermission[]",
          "name": "permissions",
          "type": "tuple[]"
        }
      ],
      "stateMutability": "view",
      "type": "function"
    },
    {
      "inputs": [
        {
          "internalType": "address",
          "name": "_dao",
          "type": "address"
        },
        {
          "internalType": "uint16",
          "name": "_currentBuild",
          "type": "uint16"
        },
        {
          "components": [
            {
              "internalType": "address",
              "name": "plugin",
              "type": "address"
            },
            {
              "internalType": "address[]",
              "name": "currentHelpers",
              "type": "address[]"
            },
            {
              "internalType": "bytes",
              "name": "data",
              "type": "bytes"
            }
          ],
          "internalType": "struct IPluginSetup.SetupPayload",
          "name": "_payload",
          "type": "tuple"
        }
      ],
      "name": "prepareUpdate",
      "outputs": [
        {
          "internalType": "bytes",
          "name": "initData",
          "type": "bytes"
        },
        {
          "components": [
            {
              "internalType": "address[]",
              "name": "helpers",
              "type": "address[]"
            },
            {
              "components": [
                {
                  "internalType": "enum PermissionLib.Operation",
                  "name": "operation",
                  "type": "uint8"
                },
                {
                  "internalType": "address",
                  "name": "where",
                  "type": "address"
                },
                {
                  "internalType": "address",
                  "name": "who",
                  "type": "address"
                },
                {
                  "internalType": "address",
                  "name": "condition",
                  "type": "address"
                },
                {
                  "internalType": "bytes32",
                  "name": "permissionId",
                  "type": "bytes32"
                }
              ],
              "internalType": "struct PermissionLib.MultiTargetPermission[]",
              "name": "permissions",
              "type": "tuple[]"
            }
          ],
          "internalType": "struct IPluginSetup.PreparedSetupData",
          "name": "preparedSetupData",
          "type": "tuple"
        }
      ],
      "stateMutability": "nonpayable",
      "type": "function"
    },
    {
      "inputs": [
        {
          "internalType": "bytes4",
          "name": "_interfaceId",
          "type": "bytes4"
        }
      ],
      "name": "supportsInterface",
      "outputs": [
        {
          "internalType": "bool",
          "name": "",
          "type": "bool"
        }
      ],
      "stateMutability": "view",
      "type": "function"
    }
  ],
  "transactionHash": "0xfa9c35af346f7430e0b6cbedc09c054a5c114fb54f1761e42b94778404413436",
  "args": [],
  "numDeployments": 1,
  "solcInputHash": "30396de926c153b02b0cb88666b4a18a",
  "bytecode": "0x60a060405234801561001057600080fd5b5060405161001d9061004b565b604051809103906000f080158015610039573d6000803e3d6000fd5b506001600160a01b0316608052610058565b613bd680611aa683390190565b6080516119fc6100aa60003960008181609c0152818161021b015281816103150152818161040f015281816106030152818161071901528181610803015281816108ed0152610aa101526119fc6000f3fe60806040523480156200001157600080fd5b50600436106200005e5760003560e01c806301ffc9a714620000635780635c60da1b146200008f5780639cb0a12414620000c7578063a8a9c29e14620000ed578063f10832f11462000114575b600080fd5b6200007a6200007436600462000bc5565b6200013b565b60405190151581526020015b60405180910390f35b6040516001600160a01b037f000000000000000000000000000000000000000000000000000000000000000016815260200162000086565b620000de620000d836600462000c23565b62000173565b60405162000086919062000ceb565b62000104620000fe36600462000d38565b6200059a565b6040516200008692919062000e89565b6200012b6200012536600462000ebb565b620005c2565b6040516200008692919062000f47565b60006001600160e01b0319821663099718b560e41b14806200016d57506301ffc9a760e01b6001600160e01b03198316145b92915050565b60408051600480825260a08201909252606091816020015b6040805160a0810182526000808252602080830182905292820181905260608201819052608082015282526000199092019101816200018b5750506040805160a0810190915260018152909150602080820190620001ec9085018562000f8b565b6001600160a01b03168152602001846001600160a01b0316815260200160006001600160a01b031681526020017f00000000000000000000000000000000000000000000000000000000000000006001600160a01b031663047e5aaf6040518163ffffffff1660e01b8152600401602060405180830381865afa15801562000278573d6000803e3d6000fd5b505050506040513d601f19601f820116820180604052508101906200029e919062000fab565b81525081600081518110620002b757620002b762000fc5565b60209081029190910101526040805160a081019091528060018152602090810190620002e69085018562000f8b565b6001600160a01b03168152602001846001600160a01b0316815260200160006001600160a01b031681526020017f00000000000000000000000000000000000000000000000000000000000000006001600160a01b0316631befc4056040518163ffffffff1660e01b8152600401602060405180830381865afa15801562000372573d6000803e3d6000fd5b505050506040513d601f19601f8201168201806040525081019062000398919062000fab565b81525081600181518110620003b157620003b162000fc5565b60209081029190910101526040805160a081019091528060018152602090810190620003e09085018562000f8b565b6001600160a01b03168152602001846001600160a01b0316815260200160006001600160a01b031681526020017f00000000000000000000000000000000000000000000000000000000000000006001600160a01b031663c9c4bfca6040518163ffffffff1660e01b8152600401602060405180830381865afa1580156200046c573d6000803e3d6000fd5b505050506040513d601f19601f8201168201806040525081019062000492919062000fab565b81525081600281518110620004ab57620004ab62000fc5565b60209081029190910101526040805160a081019091528060018152602001846001600160a01b03168152602001836000016020810190620004ed919062000f8b565b6001600160a01b0316815260200160006001600160a01b03168152602001846001600160a01b0316630729d0546040518163ffffffff1660e01b8152600401602060405180830381865afa1580156200054a573d6000803e3d6000fd5b505050506040513d601f19601f8201168201806040525081019062000570919062000fab565b8152508160038151811062000589576200058962000fc5565b602002602001018190525092915050565b6060620005ba604051806040016040528060608152602001606081525090565b935093915050565b6000620005e2604051806040016040528060608152602001606081525090565b6000808080620005f587890189620010d3565b93509350935093506200067b7f0000000000000000000000000000000000000000000000000000000000000000631fe5d30560e01b8b878787604051602401620006439493929190620011bf565b60408051601f198184030181529190526020810180516001600160e01b03166001600160e01b03199093169290921790915262000b5e565b60408051600580825260c0820190925291975060009190816020015b6040805160a08101825260008082526020808301829052928201819052606082018190526080820152825260001990920191018162000697579050506040805160a081019091529091508060008152602001886001600160a01b031681526020018b6001600160a01b0316815260200160006001600160a01b031681526020017f00000000000000000000000000000000000000000000000000000000000000006001600160a01b031663047e5aaf6040518163ffffffff1660e01b8152600401602060405180830381865afa15801562000776573d6000803e3d6000fd5b505050506040513d601f19601f820116820180604052508101906200079c919062000fab565b81525081600081518110620007b557620007b562000fc5565b60209081029190910101526040805160a081019091528060008152602001886001600160a01b031681526020018b6001600160a01b0316815260200160006001600160a01b031681526020017f00000000000000000000000000000000000000000000000000000000000000006001600160a01b0316631befc4056040518163ffffffff1660e01b8152600401602060405180830381865afa15801562000860573d6000803e3d6000fd5b505050506040513d601f19601f8201168201806040525081019062000886919062000fab565b815250816001815181106200089f576200089f62000fc5565b60209081029190910101526040805160a081019091528060008152602001886001600160a01b031681526020018b6001600160a01b0316815260200160006001600160a01b031681526020017f00000000000000000000000000000000000000000000000000000000000000006001600160a01b031663c9c4bfca6040518163ffffffff1660e01b8152600401602060405180830381865afa1580156200094a573d6000803e3d6000fd5b505050506040513d601f19601f8201168201806040525081019062000970919062000fab565b8152508160028151811062000989576200098962000fc5565b60209081029190910101526040805160a0810190915280600081526020018b6001600160a01b03168152602001886001600160a01b0316815260200160006001600160a01b031681526020018b6001600160a01b0316630729d0546040518163ffffffff1660e01b8152600401602060405180830381865afa15801562000a14573d6000803e3d6000fd5b505050506040513d601f19601f8201168201806040525081019062000a3a919062000fab565b8152508160038151811062000a535762000a5362000fc5565b60209081029190910101526040805160a081019091528060008152602001886001600160a01b03168152602001836001600160a01b0316815260200160006001600160a01b031681526020017f00000000000000000000000000000000000000000000000000000000000000006001600160a01b031663047e5aaf6040518163ffffffff1660e01b8152600401602060405180830381865afa15801562000afe573d6000803e3d6000fd5b505050506040513d601f19601f8201168201806040525081019062000b24919062000fab565b8152508160048151811062000b3d5762000b3d62000fc5565b60200260200101819052508086602001819052505050505050935093915050565b600062000b6c838362000b73565b9392505050565b6000828260405162000b859062000bb7565b62000b9292919062001279565b604051809103906000f08015801562000baf573d6000803e3d6000fd5b509392505050565b61072780620012a083390190565b60006020828403121562000bd857600080fd5b81356001600160e01b03198116811462000b6c57600080fd5b6001600160a01b038116811462000c0757600080fd5b50565b60006060828403121562000c1d57600080fd5b50919050565b6000806040838503121562000c3757600080fd5b823562000c448162000bf1565b9150602083013567ffffffffffffffff81111562000c6157600080fd5b62000c6f8582860162000c0a565b9150509250929050565b6003811062000c0757634e487b7160e01b600052602160045260246000fd5b6000815162000ca78162000c79565b8352506020818101516001600160a01b0390811691840191909152604080830151821690840152606080830151909116908301526080908101519082015260a00190565b6020808252825182820181905260009190848201906040850190845b8181101562000d2c5762000d1d83855162000c98565b93850193925060010162000d07565b50909695505050505050565b60008060006060848603121562000d4e57600080fd5b833562000d5b8162000bf1565b9250602084013561ffff8116811462000d7357600080fd5b9150604084013567ffffffffffffffff81111562000d9057600080fd5b62000d9e8682870162000c0a565b9150509250925092565b6000815180845260005b8181101562000dd05760208185018101518683018201520162000db2565b506000602082860101526020601f19601f83011685010191505092915050565b805160408084528151908401819052600091602091908201906060860190845b8181101562000e375783516001600160a01b03168352928401929184019160010162000e10565b50508483015186820387850152805180835290840192506000918401905b8083101562000e7e5762000e6b82855162000c98565b9150848401935060018301925062000e55565b509695505050505050565b60408152600062000e9e604083018562000da8565b828103602084015262000eb2818562000df0565b95945050505050565b60008060006040848603121562000ed157600080fd5b833562000ede8162000bf1565b9250602084013567ffffffffffffffff8082111562000efc57600080fd5b818601915086601f83011262000f1157600080fd5b81358181111562000f2157600080fd5b87602082850101111562000f3457600080fd5b6020830194508093505050509250925092565b6001600160a01b038316815260406020820181905260009062000f6d9083018462000df0565b949350505050565b634e487b7160e01b600052604160045260246000fd5b60006020828403121562000f9e57600080fd5b813562000b6c8162000bf1565b60006020828403121562000fbe57600080fd5b5051919050565b634e487b7160e01b600052603260045260246000fd5b60405160a0810167ffffffffffffffff8111828210171562001001576200100162000f75565b60405290565b803563ffffffff811681146200101c57600080fd5b919050565b80356200101c8162000bf1565b600082601f8301126200104057600080fd5b8135602067ffffffffffffffff8083111562001060576200106062000f75565b8260051b604051601f19603f8301168101818110848211171562001088576200108862000f75565b604052938452858101830193838101925087851115620010a757600080fd5b83870191505b84821015620010c857813583529183019190830190620010ad565b979650505050505050565b600080600080848603610100811215620010ec57600080fd5b60a0811215620010fb57600080fd5b506200110662000fdb565b8535600381106200111657600080fd5b8152620011266020870162001007565b6020820152620011396040870162001007565b6040820152606086013567ffffffffffffffff80821682146200115b57600080fd5b816060840152608088013560808401528296506200117c60a0890162001021565b955060c08801359250808311156200119357600080fd5b5050620011a3878288016200102e565b925050620011b460e0860162001021565b905092959194509250565b600061010080830160018060a01b03808916855260208851620011e28162000c79565b8082880152508089015163ffffffff80821660408901528060408c0151166060890152505067ffffffffffffffff60608a0151166080870152608089015160a087015281881660c08701528360e08701528293508651915081835261012086019350808701925060005b828110156200126a578351855293810193928101926001016200124c565b50929998505050505050505050565b6001600160a01b038316815260406020820181905260009062000f6d9083018462000da856fe608060405260405161072738038061072783398101604081905261002291610319565b61002e82826000610035565b5050610436565b61003e8361006b565b60008251118061004b5750805b156100665761006483836100ab60201b6100291760201c565b505b505050565b610074816100d7565b6040516001600160a01b038216907fbc7cd75a20ee27fd9adebab32041f755214dbc6bffa90cc0225b39da2e5c2d3b90600090a250565b60606100d08383604051806060016040528060278152602001610700602791396101a9565b9392505050565b6100ea8161022260201b6100551760201c565b6101515760405162461bcd60e51b815260206004820152602d60248201527f455243313936373a206e657720696d706c656d656e746174696f6e206973206e60448201526c1bdd08184818dbdb9d1c9858dd609a1b60648201526084015b60405180910390fd5b806101887f360894a13ba1a3210667c828492db98dca3e2076cc3735a920a3ca505d382bbc60001b61023160201b6100641760201c565b80546001600160a01b0319166001600160a01b039290921691909117905550565b6060600080856001600160a01b0316856040516101c691906103e7565b600060405180830381855af49150503d8060008114610201576040519150601f19603f3d011682016040523d82523d6000602084013e610206565b606091505b50909250905061021886838387610234565b9695505050505050565b6001600160a01b03163b151590565b90565b606083156102a357825160000361029c576001600160a01b0385163b61029c5760405162461bcd60e51b815260206004820152601d60248201527f416464726573733a2063616c6c20746f206e6f6e2d636f6e74726163740000006044820152606401610148565b50816102ad565b6102ad83836102b5565b949350505050565b8151156102c55781518083602001fd5b8060405162461bcd60e51b81526004016101489190610403565b634e487b7160e01b600052604160045260246000fd5b60005b838110156103105781810151838201526020016102f8565b50506000910152565b6000806040838503121561032c57600080fd5b82516001600160a01b038116811461034357600080fd5b60208401519092506001600160401b038082111561036057600080fd5b818501915085601f83011261037457600080fd5b815181811115610386576103866102df565b604051601f8201601f19908116603f011681019083821181831017156103ae576103ae6102df565b816040528281528860208487010111156103c757600080fd5b6103d88360208301602088016102f5565b80955050505050509250929050565b600082516103f98184602087016102f5565b9190910192915050565b60208152600082518060208401526104228160408501602087016102f5565b601f01601f19169190910160400192915050565b6102bb806104456000396000f3fe60806040523661001357610011610017565b005b6100115b610027610022610067565b61009f565b565b606061004e838360405180606001604052806027815260200161025f602791396100c3565b9392505050565b6001600160a01b03163b151590565b90565b600061009a7f360894a13ba1a3210667c828492db98dca3e2076cc3735a920a3ca505d382bbc546001600160a01b031690565b905090565b3660008037600080366000845af43d6000803e8080156100be573d6000f35b3d6000fd5b6060600080856001600160a01b0316856040516100e0919061020f565b600060405180830381855af49150503d806000811461011b576040519150601f19603f3d011682016040523d82523d6000602084013e610120565b606091505b50915091506101318683838761013b565b9695505050505050565b606083156101af5782516000036101a8576001600160a01b0385163b6101a85760405162461bcd60e51b815260206004820152601d60248201527f416464726573733a2063616c6c20746f206e6f6e2d636f6e747261637400000060448201526064015b60405180910390fd5b50816101b9565b6101b983836101c1565b949350505050565b8151156101d15781518083602001fd5b8060405162461bcd60e51b815260040161019f919061022b565b60005b838110156102065781810151838201526020016101ee565b50506000910152565b600082516102218184602087016101eb565b9190910192915050565b602081526000825180602084015261024a8160408501602087016101eb565b601f01601f1916919091016040019291505056fe416464726573733a206c6f772d6c6576656c2064656c65676174652063616c6c206661696c6564a2646970667358221220df5e088a16650cdc3010db20ecd1e2b26729605480c947e2f8d77aac24e8ff8464736f6c63430008110033416464726573733a206c6f772d6c6576656c2064656c65676174652063616c6c206661696c6564a2646970667358221220cb992c32b82015858bd1b75369ac7cd13c2a400851f409f6c338c8e5ee6da75b64736f6c6343000811003360a0604052306080523480156200001557600080fd5b506200002062000026565b620000e7565b600054610100900460ff1615620000935760405162461bcd60e51b815260206004820152602760248201527f496e697469616c697a61626c653a20636f6e747261637420697320696e697469604482015266616c697a696e6760c81b606482015260840160405180910390fd5b60005460ff90811614620000e5576000805460ff191660ff9081179091556040519081527f7f26b83ff96e1f2b6a682f133852f6798a09c465da95921460cefb38474024989060200160405180910390a15b565b608051613ab76200011f60003960008181610a0f01528181610a4f01528181610ad701528181610b170152610b8f0152613ab76000f3fe60806040526004361061021a5760003560e01c80637c36e8e811610123578063cc63604a116100ab578063e1dff6dc1161006f578063e1dff6dc146106bc578063f29d0279146106dc578063f60046b2146106fc578063fcce488314610712578063fe0d94c11461073257600080fd5b8063cc63604a14610627578063cf13114914610647578063d50c737714610667578063d822b17214610687578063da35c664146106a757600080fd5b8063aa52e2c7116100f2578063aa52e2c714610534578063b4ed7ec314610554578063c7f758a8146105a1578063c9c4bfca146105d3578063c9e35e821461060757600080fd5b80637c36e8e8146104b3578063853cb478146104d45780638a4b00f8146104f457806391883dd11461051457600080fd5b80632de55505116101a65780634f1ef286116101755780634f1ef2861461041d57806352d1902d14610430578063536f9f421461044557806356715761146104655780635c60da1b1461049e57600080fd5b80632de55505146103a25780633659cfe6146103b75780634162169f146103d757806341de68301461040957600080fd5b80630dfb278e116101ed5780630dfb278e146102ea5780631befc4051461030c5780631fe5d3051461034057806323b889741461036057806323d071881461038057600080fd5b806301ffc9a71461021f578063047e5aaf14610254578063054fd2c2146102965780630de21856146102ca575b600080fd5b34801561022b57600080fd5b5061023f61023a366004612a8d565b610752565b60405190151581526020015b60405180910390f35b34801561026057600080fd5b506102887ff874984acff9c23f740e19d82270cc9e4c95b5e75332d3ebf7e9c009dbbfe5ee81565b60405190815260200161024b565b3480156102a257600080fd5b5061016054600160281b900463ffffffff165b60405163ffffffff909116815260200161024b565b3480156102d657600080fd5b5061023f6102e5366004612ab7565b61077d565b3480156102f657600080fd5b5061030a610305366004612ae8565b61081f565b005b34801561031857600080fd5b506102887fbba35d41610b7d25c8e486006535c76bd423091563e694d206ae3d71ce949fe581565b34801561034c57600080fd5b5061030a61035b366004612b5d565b61086a565b34801561036c57600080fd5b5061028861037b366004612c2e565b610992565b34801561038c57600080fd5b506101605460ff165b60405161024b9190612cf3565b3480156103ae57600080fd5b506102886109ea565b3480156103c357600080fd5b5061030a6103d2366004612d06565b610a05565b3480156103e357600080fd5b5060c9546001600160a01b03165b6040516001600160a01b03909116815260200161024b565b34801561041557600080fd5b506000610395565b61030a61042b366004612d90565b610acd565b34801561043c57600080fd5b50610288610b82565b34801561045157600080fd5b50610288610460366004612ab7565b610c36565b34801561047157600080fd5b5061016054600160481b90046001600160401b03166040516001600160401b03909116815260200161024b565b3480156104aa57600080fd5b506103f1610c41565b3480156104bf57600080fd5b5061016054610100900463ffffffff166102b5565b3480156104e057600080fd5b506102886104ef366004612e44565b610c50565b34801561050057600080fd5b5061023f61050f366004612ab7565b610d7d565b34801561052057600080fd5b5061028861052f366004612ab7565b610dbd565b34801561054057600080fd5b5061030a61054f366004612f10565b610dcb565b34801561056057600080fd5b5061059461056f366004612f56565b600091825261015f602090815260408084209284526006909201905290205460ff1690565b60405161024b9190612f8c565b3480156105ad57600080fd5b506105c16105bc366004612ab7565b610e93565b60405161024b96959493929190613068565b3480156105df57600080fd5b506102887f821b6e3a557148015a918c89e5d092e878a69854a2d1a410635f771bd5a8a3f581565b34801561061357600080fd5b5061023f610622366004612f56565b6110ee565b34801561063357600080fd5b5061023f610642366004612ab7565b611111565b34801561065357600080fd5b5061023f610662366004612ab7565b61111c565b34801561067357600080fd5b5061023f610682366004612ab7565b61117e565b34801561069357600080fd5b5061030a6106a236600461311f565b611189565b3480156106b357600080fd5b506102886111d1565b3480156106c857600080fd5b5061023f6106d7366004613160565b6111dd565b3480156106e857600080fd5b5061030a6106f736600461311f565b6111f4565b34801561070857600080fd5b5061016154610288565b34801561071e57600080fd5b5061023f61072d366004612ab7565b611237565b34801561073e57600080fd5b5061030a61074d366004612ab7565b611262565b60006001600160e01b03198216632abfb30b60e01b1480610777575061077782611294565b92915050565b600081815261015f60205260408120600381015460048201546001830154849291906107b890600160a81b90046001600160401b0316610c36565b6107c291906131ab565b6107cc91906131ab565b60018301549091506107ea908290610100900463ffffffff166131be565b6004830154600184015461080c90610100900463ffffffff16620f42406131ab565b61081691906131be565b11949350505050565b60c9547fbba35d41610b7d25c8e486006535c76bd423091563e694d206ae3d71ce949fe59061085d906001600160a01b031630335b846000366112d4565b61086682611388565b5050565b600054610100900460ff161580801561088a5750600054600160ff909116105b806108a45750303b1580156108a4575060005460ff166001145b61090c5760405162461bcd60e51b815260206004820152602e60248201527f496e697469616c697a61626c653a20636f6e747261637420697320616c72656160448201526d191e481a5b9a5d1a585b1a5e995960921b60648201526084015b60405180910390fd5b6000805460ff19166001179055801561092f576000805461ff0019166101001790555b61093a868686611556565b61094483836115b4565b801561098a576000805461ff0019169055604051600181527f7f26b83ff96e1f2b6a682f133852f6798a09c465da95921460cefb38474024989060200160405180910390a15b505050505050565b60c9546000907f1c15d3cf5131706f2e5df605eda2cdbb56eb273e9d22a510f9adba5ee2f7a49c906109ce906001600160a01b03163033610854565b6109dd898989898989896116b2565b9998505050505050505050565b60006109f7610196611861565b6001600160e01b0316905090565b6001600160a01b037f0000000000000000000000000000000000000000000000000000000000000000163003610a4d5760405162461bcd60e51b8152600401610903906131d5565b7f00000000000000000000000000000000000000000000000000000000000000006001600160a01b0316610a7f6118a9565b6001600160a01b031614610aa55760405162461bcd60e51b815260040161090390613221565b610aae816118c5565b60408051600080825260208201909252610aca918391906118fe565b50565b6001600160a01b037f0000000000000000000000000000000000000000000000000000000000000000163003610b155760405162461bcd60e51b8152600401610903906131d5565b7f00000000000000000000000000000000000000000000000000000000000000006001600160a01b0316610b476118a9565b6001600160a01b031614610b6d5760405162461bcd60e51b815260040161090390613221565b610b76826118c5565b610866828260016118fe565b6000306001600160a01b037f00000000000000000000000000000000000000000000000000000000000000001614610c225760405162461bcd60e51b815260206004820152603860248201527f555550535570677261646561626c653a206d757374206e6f742062652063616c60448201527f6c6564207468726f7567682064656c656761746563616c6c00000000000000006064820152608401610903565b50600080516020613a3b8339815191525b90565b600061077782610dbd565b6000610c4b6118a9565b905090565b600033610162546040516331a9108f60e11b8152600481018590526001600160a01b039283169290911690636352211e90602401602060405180830381865afa158015610ca1573d6000803e3d6000fd5b505050506040513d601f19601f82011682018060405250810190610cc5919061326d565b6001600160a01b031614610d005781335b60405162c3da1f60e11b815260048101929092526001600160a01b03166024820152604401610903565b6101615415801590610d185750610d1682611237565b155b15610d395760405163dc785e6560e01b815260048101839052602401610903565b610d488b8b8b8b8b8b8b6116b2565b90506000846003811115610d5e57610d5e612ccd565b14610d6f57610d6f81858585610dcb565b9a9950505050505050505050565b600081815261015f602052604081206002810154600382015460058301546004840154610daa919061328a565b610db4919061328a565b10159392505050565b600061077761019683611a69565b33610162546040516331a9108f60e11b8152600481018490526001600160a01b039283169290911690636352211e90602401602060405180830381865afa158015610e1a573d6000803e3d6000fd5b505050506040513d601f19601f82011682018060405250810190610e3e919061326d565b6001600160a01b031614610e53578033610cd6565b610e5e848285611b1c565b610e8157838184604051631ac80ad560e31b81526004016109039392919061329d565b610e8d84848385611bf9565b50505050565b6040805160c081018252600080825260208201819052918101829052606081018290526080810182905260a081018290528190610eea60405180606001604052806000815260200160008152602001600081525090565b600085815261015f6020526040812060609190610f0681611dd6565b81546040805160c08101909152600184018054939a5060ff9283169950909290918391166002811115610f3b57610f3b612ccd565b6002811115610f4c57610f4c612ccd565b8152815463ffffffff6101008204166020808401919091526001600160401b03600160281b83048116604080860191909152600160681b84048216606080870191909152600160a81b909404909116608085015260019094015460a090930192909252825190810183526003850154815260048501548183015260058501548184015260078501805484518185028101850190955280855294995090975091929060009084015b828210156110d7576000848152602090819020604080516060810182526003860290920180546001600160a01b0316835260018101549383019390935260028301805492939291840191611046906132b8565b80601f0160208091040260200160405190810160405280929190818152602001828054611072906132b8565b80156110bf5780601f10611094576101008083540402835291602001916110bf565b820191906000526020600020905b8154815290600101906020018083116110a257829003601f168201915b50505050508152505081526020019060010190610ff3565b505050509250806008015491505091939550919395565b6000828152610195602052604081206111079083611a69565b6001149392505050565b600061077782611e36565b600081815261015f602052604081206005810154600182015461114a9190610100900463ffffffff166131be565b6004820154600183015461116c90610100900463ffffffff16620f42406131ab565b61117691906131be565b119392505050565b600061077782611237565b60c9547ff874984acff9c23f740e19d82270cc9e4c95b5e75332d3ebf7e9c009dbbfe5ee906111c2906001600160a01b03163033610854565b6111cc8383611ede565b505050565b6000610c4b61012d5490565b60006111ea848484611b1c565b90505b9392505050565b60c9547ff874984acff9c23f740e19d82270cc9e4c95b5e75332d3ebf7e9c009dbbfe5ee9061122d906001600160a01b03163033610854565b6111cc83836115b4565b60008181526101956020526040812061124f90611861565b6001600160e01b03166001149050919050565b61126b81611e36565b61128b57604051639fefd0f160e01b815260048101829052602401610903565b610aca81611f7d565b60006001600160e01b03198216639ffe344760e01b14806112c557506001600160e01b03198216637e66d6cf60e11b145b806107775750610777826120e5565b604051637ef7c88360e11b81526001600160a01b0387169063fdef9106906113089088908890889088908890600401613315565b602060405180830381865afa158015611325573d6000803e3d6000fd5b505050506040513d601f19601f820116820180604052508101906113499190613354565b61098a57604051630cb6f8ed60e21b81526001600160a01b03808816600483015280871660248301528516604482015260648101849052608401610903565b6113966001620f42406131ab565b6113a66040830160208401613383565b63ffffffff1611156113f8576113c06001620f42406131ab565b6113d06040830160208401613383565b60405163cc80c19560e01b8152600481019290925263ffffffff166024820152604401610903565b620f424061140c6060830160408401613383565b63ffffffff16111561142c57620f42406113d06060830160408401613383565b610e1061143f60808301606084016133a0565b6001600160401b0316101561148d57610e1061146160808301606084016133a0565b60405163628819f760e11b81526001600160401b03928316600482015291166024820152604401610903565b6301e133806114a260808301606084016133a0565b6001600160401b031611156114c6576301e1338061146160808301606084016133a0565b806101606114d482826133d7565b507fa8a18d06ddd19f24a872740e3d364c86f62be25f7154525dda18ef07fda46f3e905061150560208301836134ac565b6115156040840160208501613383565b6115256060850160408601613383565b61153560808601606087016133a0565b856080013560405161154b9594939291906134c9565b60405180910390a150565b600054610100900460ff1661157d5760405162461bcd60e51b815260040161090390613504565b6115868361210a565b61158f82611388565b61016280546001600160a01b0319166001600160a01b03929092169190911790555050565b60005b81811015611663576115e08383838181106115d4576115d461354f565b90506020020135611237565b1561161a578282828181106115f7576115f761354f565b90506020020135604051637ab0b3a560e01b815260040161090391815260200190565b611659600161019560008686868181106116365761163661354f565b90506020020135815260200190815260200160002061213a90919063ffffffff16565b50506001016115b7565b5061167361019661217083612174565b50507fe34b7735099414da6660fcd312ed4e89c9da25c599a838872099c7b7ded8043082826040516116a6929190613565565b60405180910390a15050565b60008060016116c0436121ac565b0390506116cd8484612218565b90945092506116e2338a8a87878c8c8c612318565b600081815261015f6020526040902060018101805474ffffffffffffffffffffffffffffffff00000000001916600160281b6001600160401b038981169190910267ffffffffffffffff60681b191691909117600160681b888316021767ffffffffffffffff60a81b1916600160a81b91861691909102179055610160549193509060ff1660018083018054909160ff199091169083600281111561178957611789612ccd565b02179055506101605460018201805464ffffffff00191663ffffffff61010093849004169092029190911790556117e16117cb6001600160401b038416610c36565b61016054600160281b900463ffffffff1661237e565b600282015585156117f457600881018690555b60005b8781101561185357816007018989838181106118155761181561354f565b9050602002810190611827919061359e565b8154600181018355600092835260209092209091600302016118498282613604565b50506001016117f7565b505050979650505050505050565b805460009080156118a0576118898361187b6001846131ab565b600091825260209091200190565b5464010000000090046001600160e01b03166111ed565b60009392505050565b600080516020613a3b833981519152546001600160a01b031690565b60c9547f821b6e3a557148015a918c89e5d092e878a69854a2d1a410635f771bd5a8a3f590610866906001600160a01b03163033610854565b7f4910fdfa16fed3260ed0e7147f7cc6da11a60208b5b9406d12a635614ffd91435460ff1615611931576111cc836123f5565b826001600160a01b03166352d1902d6040518163ffffffff1660e01b8152600401602060405180830381865afa92505050801561198b575060408051601f3d908101601f191682019092526119889181019061372d565b60015b6119ee5760405162461bcd60e51b815260206004820152602e60248201527f45524331393637557067726164653a206e657720696d706c656d656e7461746960448201526d6f6e206973206e6f74205555505360901b6064820152608401610903565b600080516020613a3b8339815191528114611a5d5760405162461bcd60e51b815260206004820152602960248201527f45524331393637557067726164653a20756e737570706f727465642070726f786044820152681a58589b195555525160ba1b6064820152608401610903565b506111cc838383612491565b6000438210611aba5760405162461bcd60e51b815260206004820181905260248201527f436865636b706f696e74733a20626c6f636b206e6f7420796574206d696e65646044820152606401610903565b6000611ac5836124b6565b84549091506000611ad88684838561251b565b90508015611b0657611aef8661187b6001846131ab565b5464010000000090046001600160e01b0316611b09565b60005b6001600160e01b03169695505050505050565b600083815261015f60205260408120611b3481611dd6565b611b425760009150506111ed565b6000836003811115611b5657611b56612ccd565b03611b655760009150506111ed565b6001810154611b85908590600160a81b90046001600160401b03166110ee565b611b935760009150506111ed565b600084815260068201602052604081205460ff166003811115611bb857611bb8612ccd565b14158015611bdf57506002600182015460ff166002811115611bdc57611bdc612ccd565b14155b15611bee5760009150506111ed565b506001949350505050565b600084815261015f60209081526040808320858452600681019092529091205460ff166002816003811115611c3057611c30612ccd565b03611c50576004820154611c46906001906131ab565b6004830155611cb4565b6003816003811115611c6457611c64612ccd565b03611c84576005820154611c7a906001906131ab565b6005830155611cb4565b6001816003811115611c9857611c98612ccd565b03611cb4576003820154611cae906001906131ab565b60038301555b6002856003811115611cc857611cc8612ccd565b03611ce7576004820154611cdd90600161328a565b6004830155611d49565b6003856003811115611cfb57611cfb612ccd565b03611d1a576005820154611d1090600161328a565b6005830155611d49565b6001856003811115611d2e57611d2e612ccd565b03611d49576003820154611d4390600161328a565b60038301555b60008481526006830160205260409020805486919060ff19166001836003811115611d7657611d76612ccd565b021790555083867fad568ed61bf7091b7786ac87d74f01328c2be1bc083d681d151edfcc3ebdfe3d876001604051611daf929190613746565b60405180910390a3828015611dc85750611dc886611e36565b1561098a5761098a86611f7d565b600080611de2426121ac565b60018401549091506001600160401b03808316600160281b9092041611801590611e23575060018301546001600160401b03600160681b9091048116908216105b80156111ed575050905460ff1615919050565b600081815261015f60205260408120805460ff1615611e585750600092915050565b611e6181611dd6565b15611ea95760018082015460ff166002811115611e8057611e80612ccd565b14611e8e5750600092915050565b611e978361077d565b611ea45750600092915050565b611ebf565b611eb28361111c565b611ebf5750600092915050565b611ec883610d7d565b611ed55750600092915050565b50600192915050565b60005b81811015611f3a57611efe8383838181106115d4576115d461354f565b611f14578282828181106115f7576115f761354f565b611f30600061019560008686868181106116365761163661354f565b5050600101611ee1565b50611f4a61019661257c83612174565b50507f5c5d1acd08aa7a519a90f8fa1a36eb31c8bafe7db8e195036b15136d52aa3b0982826040516116a6929190613565565b600081815261015f60205260409020805460ff191660011790556111cc611fac60c9546001600160a01b031690565b8261015f6000858152602001908152602001600020600701805480602002602001604051908101604052809291908181526020016000905b828210156120c8576000848152602090819020604080516060810182526003860290920180546001600160a01b0316835260018101549383019390935260028301805492939291840191612037906132b8565b80601f0160208091040260200160405190810160405280929190818152602001828054612063906132b8565b80156120b05780601f10612085576101008083540402835291602001916120b0565b820191906000526020600020905b81548152906001019060200180831161209357829003601f168201915b50505050508152505081526020019060010190611fe4565b505050600086815261015f60205260409020600801549050612581565b60006001600160e01b0319821663368d719960e21b1480610777575061077782612637565b600054610100900460ff166121315760405162461bcd60e51b815260040161090390613504565b610aca81612687565b6000806121588461214a436124b6565b612153866126d0565b612739565b6001600160e01b0391821693501690505b9250929050565b0190565b60008061219f8561219a61218788611861565b6001600160e01b0316868863ffffffff16565b61213a565b915091505b935093915050565b60006001600160401b038211156122145760405162461bcd60e51b815260206004820152602660248201527f53616665436173743a2076616c756520646f65736e27742066697420696e203660448201526534206269747360d01b6064820152608401610903565b5090565b6000806000612226426121ac565b9050846001600160401b03166000036122415780925061228a565b849250806001600160401b0316836001600160401b0316101561228a57604051631332703d60e21b81526001600160401b03808316600483015284166024820152604401610903565b610160546000906122ab90600160481b90046001600160401b031685613761565b9050846001600160401b03166000036122c65780925061230f565b849250806001600160401b0316836001600160401b0316101561230f57604051631332703d60e21b81526001600160401b03808316600483015284166024820152604401610903565b50509250929050565b60006123226128dc565b9050886001600160a01b0316817fa6c1f8f4276dc3f243459e13b557c84e8f4e90b2e09070bad5f6909cee687c9288888c8c8a8a8a60405161236a9796959493929190613781565b60405180910390a398975050505050505050565b6000620f42408211156123b05760405163cc80c19560e01b8152620f4240600482015260248101839052604401610903565b6123ba82846131be565b925060006123cb620f4240856138a6565b90506123da620f4240856138ba565b915080156123ee576123eb826138ce565b91505b5092915050565b6001600160a01b0381163b6124625760405162461bcd60e51b815260206004820152602d60248201527f455243313936373a206e657720696d706c656d656e746174696f6e206973206e60448201526c1bdd08184818dbdb9d1c9858dd609a1b6064820152608401610903565b600080516020613a3b83398151915280546001600160a01b0319166001600160a01b0392909216919091179055565b61249a836128f7565b6000825111806124a75750805b156111cc57610e8d8383612937565b600063ffffffff8211156122145760405162461bcd60e51b815260206004820152602660248201527f53616665436173743a2076616c756520646f65736e27742066697420696e203360448201526532206269747360d01b6064820152608401610903565b60005b81831015612571576000612532848461295c565b60008781526020902090915063ffffffff86169082015463ffffffff16111561255d5780925061256b565b61256881600161328a565b93505b5061251e565b50805b949350505050565b900390565b6040516331c6fcc960e21b81526060906000906001600160a01b0387169063c71bf324906125b7908890889088906004016138e7565b6000604051808303816000875af11580156125d6573d6000803e3d6000fd5b505050506040513d6000823e601f3d908101601f191682016040526125fe9190810190613910565b604051919350915085907f712ae1383f79ac853f8d882153778e0260ef8f03b504e2866e0593e04d2b291f90600090a294509492505050565b60006001600160e01b0319821663041de68360e41b148061266857506001600160e01b031982166352d1902d60e01b145b8061077757506301ffc9a760e01b6001600160e01b0319831614610777565b600054610100900460ff166126ae5760405162461bcd60e51b815260040161090390613504565b60c980546001600160a01b0319166001600160a01b0392909216919091179055565b60006001600160e01b038211156122145760405162461bcd60e51b815260206004820152602760248201527f53616665436173743a2076616c756520646f65736e27742066697420696e20326044820152663234206269747360c81b6064820152608401610903565b8254600090819080156128825760006127578761187b6001856131ab565b60408051808201909152905463ffffffff8082168084526401000000009092046001600160e01b0316602084015291925090871610156127d95760405162461bcd60e51b815260206004820152601b60248201527f436865636b706f696e743a2064656372656173696e67206b65797300000000006044820152606401610903565b805163ffffffff80881691160361282257846127fa8861187b6001866131ab565b80546001600160e01b03929092166401000000000263ffffffff909216919091179055612872565b6040805180820190915263ffffffff80881682526001600160e01b0380881660208085019182528b54600181018d5560008d81529190912094519151909216640100000000029216919091179101555b6020015192508391506121a49050565b50506040805180820190915263ffffffff80851682526001600160e01b0380851660208085019182528854600181018a5560008a8152918220955192519093166401000000000291909316179201919091559050816121a4565b60006128e66111d1565b9050610c3361012d80546001019055565b612900816123f5565b6040516001600160a01b038216907fbc7cd75a20ee27fd9adebab32041f755214dbc6bffa90cc0225b39da2e5c2d3b90600090a250565b60606111ed8383604051806060016040528060278152602001613a5b60279139612977565b600061296b60028484186138ba565b6111ed9084841661328a565b6060600080856001600160a01b0316856040516129949190613a15565b600060405180830381855af49150503d80600081146129cf576040519150601f19603f3d011682016040523d82523d6000602084013e6129d4565b606091505b50915091506129e5868383876129ef565b9695505050505050565b60608315612a5e578251600003612a57576001600160a01b0385163b612a575760405162461bcd60e51b815260206004820152601d60248201527f416464726573733a2063616c6c20746f206e6f6e2d636f6e74726163740000006044820152606401610903565b5081612574565b6125748383815115612a735781518083602001fd5b8060405162461bcd60e51b81526004016109039190613a27565b600060208284031215612a9f57600080fd5b81356001600160e01b0319811681146111ed57600080fd5b600060208284031215612ac957600080fd5b5035919050565b600060a08284031215612ae257600080fd5b50919050565b600060a08284031215612afa57600080fd5b6111ed8383612ad0565b6001600160a01b0381168114610aca57600080fd5b60008083601f840112612b2b57600080fd5b5081356001600160401b03811115612b4257600080fd5b6020830191508360208260051b850101111561216957600080fd5b60008060008060006101008688031215612b7657600080fd5b8535612b8181612b04565b9450612b908760208801612ad0565b935060c0860135612ba081612b04565b925060e08601356001600160401b03811115612bbb57600080fd5b612bc788828901612b19565b969995985093965092949392505050565b60008083601f840112612bea57600080fd5b5081356001600160401b03811115612c0157600080fd5b60208301915083602082850101111561216957600080fd5b6001600160401b0381168114610aca57600080fd5b600080600080600080600060a0888a031215612c4957600080fd5b87356001600160401b0380821115612c6057600080fd5b612c6c8b838c01612bd8565b909950975060208a0135915080821115612c8557600080fd5b50612c928a828b01612b19565b909650945050604088013592506060880135612cad81612c19565b91506080880135612cbd81612c19565b8091505092959891949750929550565b634e487b7160e01b600052602160045260246000fd5b60038110610aca57610aca612ccd565b60208101612d0083612ce3565b91905290565b600060208284031215612d1857600080fd5b81356111ed81612b04565b634e487b7160e01b600052604160045260246000fd5b604051601f8201601f191681016001600160401b0381118282101715612d6157612d61612d23565b604052919050565b60006001600160401b03821115612d8257612d82612d23565b50601f01601f191660200190565b60008060408385031215612da357600080fd5b8235612dae81612b04565b915060208301356001600160401b03811115612dc957600080fd5b8301601f81018513612dda57600080fd5b8035612ded612de882612d69565b612d39565b818152866020838501011115612e0257600080fd5b816020840160208301376000602083830101528093505050509250929050565b803560048110612e3157600080fd5b919050565b8015158114610aca57600080fd5b6000806000806000806000806000806101008b8d031215612e6457600080fd5b8a356001600160401b0380821115612e7b57600080fd5b612e878e838f01612bd8565b909c509a5060208d0135915080821115612ea057600080fd5b50612ead8d828e01612b19565b90995097505060408b0135955060608b0135612ec881612c19565b945060808b0135612ed881612c19565b9350612ee660a08c01612e22565b925060c08b0135612ef681612e36565b8092505060e08b013590509295989b9194979a5092959850565b60008060008060808587031215612f2657600080fd5b84359350612f3660208601612e22565b92506040850135612f4681612e36565b9396929550929360600135925050565b60008060408385031215612f6957600080fd5b50508035926020909101359150565b60048110612f8857612f88612ccd565b9052565b602081016107778284612f78565b60005b83811015612fb5578181015183820152602001612f9d565b50506000910152565b60008151808452612fd6816020860160208601612f9a565b601f01601f19169290920160200192915050565b600081518084526020808501808196508360051b8101915082860160005b8581101561305b578284038952815180516001600160a01b03168552858101518686015260409081015160609186018290529061304781870183612fbe565b9a87019a9550505090840190600101613008565b5091979650505050505050565b60006101a088151583528715156020840152865161308581612ce3565b8060408501525063ffffffff602088015116606084015260408701516001600160401b0380821660808601528060608a01511660a08601528060808a01511660c0860152505060a087015160e08401526130f76101008401878051825260208082015190830152604090810151910152565b8061016084015261310a81840186612fea565b91505082610180830152979650505050505050565b6000806020838503121561313257600080fd5b82356001600160401b0381111561314857600080fd5b61315485828601612b19565b90969095509350505050565b60008060006060848603121561317557600080fd5b833592506020840135915061318c60408501612e22565b90509250925092565b634e487b7160e01b600052601160045260246000fd5b8181038181111561077757610777613195565b808202811582820484141761077757610777613195565b6020808252602c908201527f46756e6374696f6e206d7573742062652063616c6c6564207468726f7567682060408201526b19195b1959d85d1958d85b1b60a21b606082015260800190565b6020808252602c908201527f46756e6374696f6e206d7573742062652063616c6c6564207468726f7567682060408201526b6163746976652070726f787960a01b606082015260800190565b60006020828403121561327f57600080fd5b81516111ed81612b04565b8082018082111561077757610777613195565b83815260208101839052606081016125746040830184612f78565b600181811c908216806132cc57607f821691505b602082108103612ae257634e487b7160e01b600052602260045260246000fd5b81835281816020850137506000828201602090810191909152601f909101601f19169091010190565b6001600160a01b038681168252851660208201526040810184905260806060820181905260009061334990830184866132ec565b979650505050505050565b60006020828403121561336657600080fd5b81516111ed81612e36565b63ffffffff81168114610aca57600080fd5b60006020828403121561339557600080fd5b81356111ed81613371565b6000602082840312156133b257600080fd5b81356111ed81612c19565b60038110610aca57600080fd5b6000813561077781612c19565b81356133e2816133bd565b6133eb81612ce3565b815460ff821691508160ff198216178355602084013561340a81613371565b64ffffffff008160081b169050808364ffffffffff19841617178455604085013561343481613371565b68ffffffff00000000008160281b168468ffffffffffffffffff1985161783171785555050505061349e61346a606084016133ca565b825470ffffffffffffffff000000000000000000191660489190911b70ffffffffffffffff00000000000000000016178255565b608082013560018201555050565b6000602082840312156134be57600080fd5b81356111ed816133bd565b60a081016134d687612ce3565b95815263ffffffff94851660208201529290931660408301526001600160401b031660608201526080015290565b6020808252602b908201527f496e697469616c697a61626c653a20636f6e7472616374206973206e6f74206960408201526a6e697469616c697a696e6760a81b606082015260800190565b634e487b7160e01b600052603260045260246000fd5b6020808252810182905260006001600160fb1b0383111561358557600080fd5b8260051b80856040850137919091016040019392505050565b60008235605e198336030181126135b457600080fd5b9190910192915050565b601f8211156111cc57600081815260208120601f850160051c810160208610156135e55750805b601f850160051c820191505b8181101561098a578281556001016135f1565b813561360f81612b04565b81546001600160a01b0319166001600160a01b03919091161781556020828101356001838101919091559060028301604085013536869003601e1901811261365657600080fd5b850180356001600160401b0381111561366e57600080fd5b803603848301131561367f57600080fd5b6136938161368d85546132b8565b856135be565b6000601f8211600181146136c957600083156136b157508382018601355b600019600385901b1c1916600184901b178555613722565b600085815260209020601f19841690835b828110156136f9578685018901358255938801939089019088016136da565b50848210156137185760001960f88660031b161c198885880101351681555b50508683881b0185555b505050505050505050565b60006020828403121561373f57600080fd5b5051919050565b604081016137548285612f78565b8260208301529392505050565b6001600160401b038181168382160190808211156123ee576123ee613195565b60006001600160401b03808a1683526020818a1681850152604060a0818601526137af60a086018a8c6132ec565b606086820381880152818983528483019050848a60051b8401018b60005b8c81101561387257858303601f190184528135368f9003605e190181126137f357600080fd5b8e01803561380081612b04565b6001600160a01b0316845280890135898501528781013536829003601e1901811261382a57600080fd5b0188810190358a81111561383d57600080fd5b80360382131561384c57600080fd5b868986015261385e87860182846132ec565b958a019594505050908701906001016137cd565b50508097505050505050505082608083015298975050505050505050565b634e487b7160e01b600052601260045260246000fd5b6000826138b5576138b5613890565b500690565b6000826138c9576138c9613890565b500490565b6000600182016138e0576138e0613195565b5060010190565b8381526060602082015260006139006060830185612fea565b9050826040830152949350505050565b600080604080848603121561392457600080fd5b83516001600160401b038082111561393b57600080fd5b818601915086601f83011261394f57600080fd5b815160208282111561396357613963612d23565b8160051b613972828201612d39565b928352848101820192828101908b85111561398c57600080fd5b83870192505b84831015613a01578251868111156139aa5760008081fd5b8701603f81018d136139bc5760008081fd5b848101516139cc612de882612d69565b8181528e8b8385010111156139e15760008081fd5b6139f0828883018d8601612f9a565b845250509183019190830190613992565b9990920151989a9899505050505050505050565b600082516135b4818460208701612f9a565b6020815260006111ed6020830184612fbe56fe360894a13ba1a3210667c828492db98dca3e2076cc3735a920a3ca505d382bbc416464726573733a206c6f772d6c6576656c2064656c65676174652063616c6c206661696c6564a264697066735822122057d8d7d37b6b0832c93fb743343aa4d74fb670f50cf696c4f9c2bbab1df765ee64736f6c63430008110033",
  "devdoc": {
    "kind": "dev",
    "methods": {
      "implementation()": {
        "details": "The implementation can be instantiated via the `new` keyword, cloned via the minimal clones pattern (see [ERC-1167](https://eips.ethereum.org/EIPS/eip-1167)), or proxied via the UUPS pattern (see [ERC-1822](https://eips.ethereum.org/EIPS/eip-1822)).",
        "returns": {
          "_0": "The address of the plugin implementation contract."
        }
      },
      "prepareInstallation(address,bytes)": {
        "params": {
          "_dao": "The address of the installing DAO.",
          "_data": "The bytes-encoded data containing the input parameters for the installation as specified in the plugin's build metadata JSON file."
        },
        "returns": {
          "plugin": "The address of the `Plugin` contract being prepared for installation.",
          "preparedSetupData": "The deployed plugin's relevant data which consists of helpers and permissions."
        }
      },
      "prepareUninstallation(address,(address,address[],bytes))": {
        "params": {
          "_dao": "The address of the uninstalling DAO.",
          "_payload": "The relevant data necessary for the `prepareUninstallation`. See above."
        },
        "returns": {
          "permissions": "The array of multi-targeted permission operations to be applied by the `PluginSetupProcessor` to the uninstalling DAO."
        }
      },
      "prepareUpdate(address,uint16,(address,address[],bytes))": {
        "params": {
          "_currentBuild": "The build number of the plugin to update from.",
          "_dao": "The address of the updating DAO.",
          "_payload": "The relevant data necessary for the `prepareUpdate`. See above."
        },
        "returns": {
          "initData": "The initialization data to be passed to upgradeable contracts when the update is applied in the `PluginSetupProcessor`.",
          "preparedSetupData": "The deployed plugin's relevant data which consists of helpers and permissions."
        }
      },
      "supportsInterface(bytes4)": {
        "params": {
          "_interfaceId": "The ID of the interface."
        },
        "returns": {
          "_0": "Returns `true` if the interface is supported."
        }
      }
    },
    "version": 1
  },
  "userdoc": {
    "kind": "user",
    "methods": {
      "constructor": {
        "notice": "The contract constructor, that deploys the `TokenListGovernance` plugin logic contract."
      },
      "implementation()": {
        "notice": "Returns the plugin implementation address."
      },
      "prepareInstallation(address,bytes)": {
        "notice": "Prepares the installation of a plugin."
      },
      "prepareUninstallation(address,(address,address[],bytes))": {
        "notice": "Prepares the uninstallation of a plugin."
      },
      "prepareUpdate(address,uint16,(address,address[],bytes))": {
        "notice": "Prepares the update of a plugin."
      },
      "supportsInterface(bytes4)": {
        "notice": "Checks if this or the parent contract supports an interface by its ID."
      }
    },
    "version": 1
  },
  "storageLayout": {
    "storage": [],
    "types": null
  }
}