{
  "address": "0x33a546C01b64953a016999c026A09408419cFe03",
  "abi": [
    {
      "inputs": [],
      "stateMutability": "nonpayable",
      "type": "constructor"
    },
    {
      "inputs": [],
      "name": "ApplicationDoesNotExist",
      "type": "error"
    },
    {
      "inputs": [],
      "name": "ApplicationNotAccepted",
      "type": "error"
    },
    {
      "inputs": [],
      "name": "ArrayLargerThanSupported",
      "type": "error"
    },
    {
      "inputs": [],
      "name": "Disabled",
      "type": "error"
    },
    {
      "inputs": [],
      "name": "InvalidAddress",
      "type": "error"
    },
    {
      "inputs": [],
      "name": "InvalidTimestamp",
      "type": "error"
    },
    {
      "inputs": [],
      "name": "JudgementNone",
      "type": "error"
    },
    {
      "inputs": [],
      "name": "ManualBudgetIncreaseRequired",
      "type": "error"
    },
    {
      "inputs": [],
      "name": "NotDisabled",
      "type": "error"
    },
    {
      "inputs": [],
      "name": "NotDisabler",
      "type": "error"
    },
    {
      "inputs": [],
      "name": "NotExecutor",
      "type": "error"
    },
    {
      "inputs": [],
      "name": "NotManager",
      "type": "error"
    },
    {
      "inputs": [],
      "name": "NotYourApplication",
      "type": "error"
    },
    {
      "inputs": [],
      "name": "PointlessOperation",
      "type": "error"
    },
    {
      "inputs": [],
      "name": "RequestAlreadyAccepted",
      "type": "error"
    },
    {
      "inputs": [],
      "name": "RequestAlreadyExecuted",
      "type": "error"
    },
    {
      "inputs": [],
      "name": "RequestDoesNotExist",
      "type": "error"
    },
    {
      "inputs": [],
      "name": "RequestNotAccepted",
      "type": "error"
    },
    {
      "inputs": [],
      "name": "RewardAboveBudget",
      "type": "error"
    },
    {
      "inputs": [],
      "name": "RewardDoesntEndWithNewToken",
      "type": "error"
    },
    {
      "inputs": [],
      "name": "SubmissionAlreadyJudged",
      "type": "error"
    },
    {
      "inputs": [],
      "name": "SubmissionDoesNotExist",
      "type": "error"
    },
    {
      "inputs": [],
      "name": "TaskClosed",
      "type": "error"
    },
    {
      "inputs": [],
      "name": "TaskDoesNotExist",
      "type": "error"
    },
    {
      "inputs": [],
      "name": "TaskNotClosed",
      "type": "error"
    },
    {
      "inputs": [],
      "name": "TaskNotOpen",
      "type": "error"
    },
    {
      "inputs": [],
      "name": "TaskNotTaken",
      "type": "error"
    },
    {
      "anonymous": false,
      "inputs": [
        {
          "indexed": true,
          "internalType": "uint256",
          "name": "taskId",
          "type": "uint256"
        },
        {
          "indexed": false,
          "internalType": "uint16",
          "name": "applicationId",
          "type": "uint16"
        },
        {
          "indexed": false,
          "internalType": "address",
          "name": "manager",
          "type": "address"
        },
        {
          "indexed": false,
          "internalType": "address",
          "name": "applicant",
          "type": "address"
        }
      ],
      "name": "ApplicationAccepted",
      "type": "event"
    },
    {
      "anonymous": false,
      "inputs": [
        {
          "indexed": true,
          "internalType": "uint256",
          "name": "taskId",
          "type": "uint256"
        },
        {
          "indexed": false,
          "internalType": "uint16",
          "name": "applicationId",
          "type": "uint16"
        },
        {
          "indexed": false,
          "internalType": "string",
          "name": "metadata",
          "type": "string"
        },
        {
          "components": [
            {
              "internalType": "bool",
              "name": "nextToken",
              "type": "bool"
            },
            {
              "internalType": "address",
              "name": "to",
              "type": "address"
            },
            {
              "internalType": "uint88",
              "name": "amount",
              "type": "uint88"
            }
          ],
          "indexed": false,
          "internalType": "struct ITasks.Reward[]",
          "name": "reward",
          "type": "tuple[]"
        },
        {
          "indexed": false,
          "internalType": "address",
          "name": "manager",
          "type": "address"
        },
        {
          "indexed": false,
          "internalType": "address",
          "name": "applicant",
          "type": "address"
        }
      ],
      "name": "ApplicationCreated",
      "type": "event"
    },
    {
      "anonymous": false,
      "inputs": [
        {
          "indexed": true,
          "internalType": "uint256",
          "name": "taskId",
          "type": "uint256"
        },
        {
          "indexed": false,
          "internalType": "uint96[]",
          "name": "increase",
          "type": "uint96[]"
        },
        {
          "indexed": false,
          "internalType": "address",
          "name": "manager",
          "type": "address"
        }
      ],
      "name": "BudgetIncreased",
      "type": "event"
    },
    {
      "anonymous": false,
      "inputs": [
        {
          "indexed": true,
          "internalType": "uint256",
          "name": "taskId",
          "type": "uint256"
        },
        {
          "indexed": false,
          "internalType": "uint8",
          "name": "requestId",
          "type": "uint8"
        },
        {
          "indexed": false,
          "internalType": "string",
          "name": "explanation",
          "type": "string"
        },
        {
          "indexed": false,
          "internalType": "address",
          "name": "manager",
          "type": "address"
        },
        {
          "indexed": false,
          "internalType": "address",
          "name": "executor",
          "type": "address"
        }
      ],
      "name": "CancelTaskRequested",
      "type": "event"
    },
    {
      "anonymous": false,
      "inputs": [
        {
          "indexed": true,
          "internalType": "uint256",
          "name": "taskId",
          "type": "uint256"
        },
        {
          "indexed": false,
          "internalType": "uint64",
          "name": "extension",
          "type": "uint64"
        },
        {
          "indexed": false,
          "internalType": "address",
          "name": "manager",
          "type": "address"
        },
        {
          "indexed": false,
          "internalType": "address",
          "name": "executor",
          "type": "address"
        }
      ],
      "name": "DeadlineExtended",
      "type": "event"
    },
    {
      "anonymous": false,
      "inputs": [
        {
          "indexed": true,
          "internalType": "uint256",
          "name": "taskId",
          "type": "uint256"
        },
        {
          "indexed": false,
          "internalType": "string",
          "name": "newMetadata",
          "type": "string"
        },
        {
          "indexed": false,
          "internalType": "address",
          "name": "manager",
          "type": "address"
        }
      ],
      "name": "MetadataEditted",
      "type": "event"
    },
    {
      "anonymous": false,
      "inputs": [
        {
          "indexed": true,
          "internalType": "uint256",
          "name": "taskId",
          "type": "uint256"
        },
        {
          "indexed": false,
          "internalType": "enum ITasks.RequestType",
          "name": "requestType",
          "type": "uint8"
        },
        {
          "indexed": false,
          "internalType": "uint8",
          "name": "requestId",
          "type": "uint8"
        },
        {
          "indexed": false,
          "internalType": "address",
          "name": "manager",
          "type": "address"
        },
        {
          "indexed": false,
          "internalType": "address",
          "name": "executor",
          "type": "address"
        }
      ],
      "name": "RequestAccepted",
      "type": "event"
    },
    {
      "anonymous": false,
      "inputs": [
        {
          "indexed": true,
          "internalType": "uint256",
          "name": "taskId",
          "type": "uint256"
        },
        {
          "indexed": false,
          "internalType": "enum ITasks.RequestType",
          "name": "requestType",
          "type": "uint8"
        },
        {
          "indexed": false,
          "internalType": "uint8",
          "name": "requestId",
          "type": "uint8"
        },
        {
          "indexed": false,
          "internalType": "address",
          "name": "by",
          "type": "address"
        },
        {
          "indexed": false,
          "internalType": "address",
          "name": "manager",
          "type": "address"
        },
        {
          "indexed": false,
          "internalType": "address",
          "name": "executor",
          "type": "address"
        }
      ],
      "name": "RequestExecuted",
      "type": "event"
    },
    {
      "anonymous": false,
      "inputs": [
        {
          "indexed": true,
          "internalType": "uint256",
          "name": "taskId",
          "type": "uint256"
        },
        {
          "indexed": false,
          "internalType": "uint8",
          "name": "submissionId",
          "type": "uint8"
        },
        {
          "indexed": false,
          "internalType": "string",
          "name": "metadata",
          "type": "string"
        },
        {
          "indexed": false,
          "internalType": "address",
          "name": "manager",
          "type": "address"
        },
        {
          "indexed": false,
          "internalType": "address",
          "name": "executor",
          "type": "address"
        }
      ],
      "name": "SubmissionCreated",
      "type": "event"
    },
    {
      "anonymous": false,
      "inputs": [
        {
          "indexed": true,
          "internalType": "uint256",
          "name": "taskId",
          "type": "uint256"
        },
        {
          "indexed": false,
          "internalType": "uint8",
          "name": "submissionId",
          "type": "uint8"
        },
        {
          "indexed": false,
          "internalType": "enum ITasks.SubmissionJudgement",
          "name": "judgement",
          "type": "uint8"
        },
        {
          "indexed": false,
          "internalType": "string",
          "name": "feedback",
          "type": "string"
        },
        {
          "indexed": false,
          "internalType": "address",
          "name": "manager",
          "type": "address"
        },
        {
          "indexed": false,
          "internalType": "address",
          "name": "executor",
          "type": "address"
        }
      ],
      "name": "SubmissionReviewed",
      "type": "event"
    },
    {
      "anonymous": false,
      "inputs": [
        {
          "indexed": true,
          "internalType": "uint256",
          "name": "taskId",
          "type": "uint256"
        },
        {
          "indexed": false,
          "internalType": "address",
          "name": "manager",
          "type": "address"
        },
        {
          "indexed": false,
          "internalType": "address",
          "name": "executor",
          "type": "address"
        }
      ],
      "name": "TaskCancelled",
      "type": "event"
    },
    {
      "anonymous": false,
      "inputs": [
        {
          "indexed": true,
          "internalType": "uint256",
          "name": "taskId",
          "type": "uint256"
        },
        {
          "indexed": false,
          "internalType": "address",
          "name": "manager",
          "type": "address"
        },
        {
          "indexed": false,
          "internalType": "address",
          "name": "executor",
          "type": "address"
        }
      ],
      "name": "TaskCompleted",
      "type": "event"
    },
    {
      "anonymous": false,
      "inputs": [
        {
          "indexed": true,
          "internalType": "uint256",
          "name": "taskId",
          "type": "uint256"
        },
        {
          "indexed": false,
          "internalType": "string",
          "name": "metadata",
          "type": "string"
        },
        {
          "indexed": false,
          "internalType": "uint64",
          "name": "deadline",
          "type": "uint64"
        },
        {
          "components": [
            {
              "internalType": "contract IERC20",
              "name": "tokenContract",
              "type": "address"
            },
            {
              "internalType": "uint96",
              "name": "amount",
              "type": "uint96"
            }
          ],
          "indexed": false,
          "internalType": "struct ITasks.ERC20Transfer[]",
          "name": "budget",
          "type": "tuple[]"
        },
        {
          "indexed": false,
          "internalType": "address",
          "name": "creator",
          "type": "address"
        },
        {
          "indexed": false,
          "internalType": "address",
          "name": "manager",
          "type": "address"
        }
      ],
      "name": "TaskCreated",
      "type": "event"
    },
    {
      "anonymous": false,
      "inputs": [
        {
          "indexed": true,
          "internalType": "uint256",
          "name": "taskId",
          "type": "uint256"
        },
        {
          "indexed": false,
          "internalType": "uint16",
          "name": "applicationId",
          "type": "uint16"
        },
        {
          "indexed": false,
          "internalType": "address",
          "name": "manager",
          "type": "address"
        },
        {
          "indexed": false,
          "internalType": "address",
          "name": "executor",
          "type": "address"
        }
      ],
      "name": "TaskTaken",
      "type": "event"
    },
    {
      "inputs": [
        {
          "internalType": "uint256",
          "name": "_taskId",
          "type": "uint256"
        },
        {
          "internalType": "uint16[]",
          "name": "_applicationIds",
          "type": "uint16[]"
        }
      ],
      "name": "acceptApplications",
      "outputs": [],
      "stateMutability": "nonpayable",
      "type": "function"
    },
    {
      "inputs": [
        {
          "internalType": "uint256",
          "name": "_taskId",
          "type": "uint256"
        },
        {
          "internalType": "enum ITasks.RequestType",
          "name": "_requestType",
          "type": "uint8"
        },
        {
          "internalType": "uint8",
          "name": "_requestId",
          "type": "uint8"
        },
        {
          "internalType": "bool",
          "name": "_execute",
          "type": "bool"
        }
      ],
      "name": "acceptRequest",
      "outputs": [],
      "stateMutability": "nonpayable",
      "type": "function"
    },
    {
      "inputs": [
        {
          "internalType": "uint256",
          "name": "_taskId",
          "type": "uint256"
        },
        {
          "internalType": "string",
          "name": "_metadata",
          "type": "string"
        },
        {
          "components": [
            {
              "internalType": "bool",
              "name": "nextToken",
              "type": "bool"
            },
            {
              "internalType": "address",
              "name": "to",
              "type": "address"
            },
            {
              "internalType": "uint88",
              "name": "amount",
              "type": "uint88"
            }
          ],
          "internalType": "struct ITasks.Reward[]",
          "name": "_reward",
          "type": "tuple[]"
        }
      ],
      "name": "applyForTask",
      "outputs": [
        {
          "internalType": "uint16",
          "name": "applicationId",
          "type": "uint16"
        }
      ],
      "stateMutability": "nonpayable",
      "type": "function"
    },
    {
      "inputs": [
        {
          "internalType": "uint256",
          "name": "_taskId",
          "type": "uint256"
        },
        {
          "internalType": "string",
          "name": "_explanation",
          "type": "string"
        }
      ],
      "name": "cancelTask",
      "outputs": [
        {
          "internalType": "uint8",
          "name": "cancelTaskRequestId",
          "type": "uint8"
        }
      ],
      "stateMutability": "nonpayable",
      "type": "function"
    },
    {
      "inputs": [
        {
          "internalType": "uint256",
          "name": "_taskId",
          "type": "uint256"
        },
        {
          "internalType": "string",
          "name": "_metadata",
          "type": "string"
        }
      ],
      "name": "createSubmission",
      "outputs": [
        {
          "internalType": "uint8",
          "name": "submissionId",
          "type": "uint8"
        }
      ],
      "stateMutability": "nonpayable",
      "type": "function"
    },
    {
      "inputs": [
        {
          "internalType": "string",
          "name": "_metadata",
          "type": "string"
        },
        {
          "internalType": "uint64",
          "name": "_deadline",
          "type": "uint64"
        },
        {
          "components": [
            {
              "internalType": "contract IERC20",
              "name": "tokenContract",
              "type": "address"
            },
            {
              "internalType": "uint96",
              "name": "amount",
              "type": "uint96"
            }
          ],
          "internalType": "struct ITasks.ERC20Transfer[]",
          "name": "_budget",
          "type": "tuple[]"
        },
        {
          "internalType": "address",
          "name": "_manager",
          "type": "address"
        },
        {
          "components": [
            {
              "internalType": "address",
              "name": "applicant",
              "type": "address"
            },
            {
              "components": [
                {
                  "internalType": "bool",
                  "name": "nextToken",
                  "type": "bool"
                },
                {
                  "internalType": "address",
                  "name": "to",
                  "type": "address"
                },
                {
                  "internalType": "uint88",
                  "name": "amount",
                  "type": "uint88"
                }
              ],
              "internalType": "struct ITasks.Reward[]",
              "name": "reward",
              "type": "tuple[]"
            }
          ],
          "internalType": "struct ITasks.PreapprovedApplication[]",
          "name": "_preapprove",
          "type": "tuple[]"
        }
      ],
      "name": "createTask",
      "outputs": [
        {
          "internalType": "uint256",
          "name": "taskId",
          "type": "uint256"
        }
      ],
      "stateMutability": "nonpayable",
      "type": "function"
    },
    {
      "inputs": [],
      "name": "disable",
      "outputs": [],
      "stateMutability": "nonpayable",
      "type": "function"
    },
    {
      "inputs": [
        {
          "internalType": "uint256",
          "name": "_taskId",
          "type": "uint256"
        },
        {
          "internalType": "string",
          "name": "_newMetadata",
          "type": "string"
        }
      ],
      "name": "editMetadata",
      "outputs": [],
      "stateMutability": "nonpayable",
      "type": "function"
    },
    {
      "inputs": [
        {
          "internalType": "uint256",
          "name": "_taskId",
          "type": "uint256"
        },
        {
          "internalType": "enum ITasks.RequestType",
          "name": "_requestType",
          "type": "uint8"
        },
        {
          "internalType": "uint8",
          "name": "_requestId",
          "type": "uint8"
        }
      ],
      "name": "executeRequest",
      "outputs": [],
      "stateMutability": "nonpayable",
      "type": "function"
    },
    {
      "inputs": [
        {
          "internalType": "uint256",
          "name": "_taskId",
          "type": "uint256"
        },
        {
          "internalType": "uint64",
          "name": "_extension",
          "type": "uint64"
        }
      ],
      "name": "extendDeadline",
      "outputs": [],
      "stateMutability": "nonpayable",
      "type": "function"
    },
    {
      "inputs": [
        {
          "internalType": "address",
          "name": "_executor",
          "type": "address"
        },
        {
          "internalType": "uint256",
          "name": "_fromTaskId",
          "type": "uint256"
        },
        {
          "internalType": "uint256",
          "name": "_max",
          "type": "uint256"
        }
      ],
      "name": "getExecutingTasks",
      "outputs": [
        {
          "components": [
            {
              "internalType": "string",
              "name": "metadata",
              "type": "string"
            },
            {
              "internalType": "uint64",
              "name": "deadline",
              "type": "uint64"
            },
            {
              "internalType": "uint16",
              "name": "executorApplication",
              "type": "uint16"
            },
            {
              "internalType": "address",
              "name": "creator",
              "type": "address"
            },
            {
              "internalType": "address",
              "name": "manager",
              "type": "address"
            },
            {
              "internalType": "enum ITasks.TaskState",
              "name": "state",
              "type": "uint8"
            },
            {
              "internalType": "contract Escrow",
              "name": "escrow",
              "type": "address"
            },
            {
              "components": [
                {
                  "internalType": "contract IERC20",
                  "name": "tokenContract",
                  "type": "address"
                },
                {
                  "internalType": "uint96",
                  "name": "amount",
                  "type": "uint96"
                }
              ],
              "internalType": "struct ITasks.ERC20Transfer[]",
              "name": "budget",
              "type": "tuple[]"
            },
            {
              "components": [
                {
                  "internalType": "string",
                  "name": "metadata",
                  "type": "string"
                },
                {
                  "internalType": "address",
                  "name": "applicant",
                  "type": "address"
                },
                {
                  "internalType": "bool",
                  "name": "accepted",
                  "type": "bool"
                },
                {
                  "components": [
                    {
                      "internalType": "bool",
                      "name": "nextToken",
                      "type": "bool"
                    },
                    {
                      "internalType": "address",
                      "name": "to",
                      "type": "address"
                    },
                    {
                      "internalType": "uint88",
                      "name": "amount",
                      "type": "uint88"
                    }
                  ],
                  "internalType": "struct ITasks.Reward[]",
                  "name": "reward",
                  "type": "tuple[]"
                }
              ],
              "internalType": "struct ITasks.OffChainApplication[]",
              "name": "applications",
              "type": "tuple[]"
            },
            {
              "components": [
                {
                  "internalType": "string",
                  "name": "metadata",
                  "type": "string"
                },
                {
                  "internalType": "string",
                  "name": "feedback",
                  "type": "string"
                },
                {
                  "internalType": "enum ITasks.SubmissionJudgement",
                  "name": "judgement",
                  "type": "uint8"
                }
              ],
              "internalType": "struct ITasks.Submission[]",
              "name": "submissions",
              "type": "tuple[]"
            },
            {
              "components": [
                {
                  "components": [
                    {
                      "internalType": "bool",
                      "name": "accepted",
                      "type": "bool"
                    },
                    {
                      "internalType": "bool",
                      "name": "executed",
                      "type": "bool"
                    }
                  ],
                  "internalType": "struct ITasks.Request",
                  "name": "request",
                  "type": "tuple"
                },
                {
                  "internalType": "string",
                  "name": "explanation",
                  "type": "string"
                }
              ],
              "internalType": "struct ITasks.CancelTaskRequest[]",
              "name": "cancelTaskRequests",
              "type": "tuple[]"
            }
          ],
          "internalType": "struct ITasks.OffChainTask[]",
          "name": "",
          "type": "tuple[]"
        }
      ],
      "stateMutability": "view",
      "type": "function"
    },
    {
      "inputs": [
        {
          "internalType": "address",
          "name": "_manager",
          "type": "address"
        },
        {
          "internalType": "uint256",
          "name": "_fromTaskId",
          "type": "uint256"
        },
        {
          "internalType": "uint256",
          "name": "_max",
          "type": "uint256"
        }
      ],
      "name": "getManagingTasks",
      "outputs": [
        {
          "components": [
            {
              "internalType": "string",
              "name": "metadata",
              "type": "string"
            },
            {
              "internalType": "uint64",
              "name": "deadline",
              "type": "uint64"
            },
            {
              "internalType": "uint16",
              "name": "executorApplication",
              "type": "uint16"
            },
            {
              "internalType": "address",
              "name": "creator",
              "type": "address"
            },
            {
              "internalType": "address",
              "name": "manager",
              "type": "address"
            },
            {
              "internalType": "enum ITasks.TaskState",
              "name": "state",
              "type": "uint8"
            },
            {
              "internalType": "contract Escrow",
              "name": "escrow",
              "type": "address"
            },
            {
              "components": [
                {
                  "internalType": "contract IERC20",
                  "name": "tokenContract",
                  "type": "address"
                },
                {
                  "internalType": "uint96",
                  "name": "amount",
                  "type": "uint96"
                }
              ],
              "internalType": "struct ITasks.ERC20Transfer[]",
              "name": "budget",
              "type": "tuple[]"
            },
            {
              "components": [
                {
                  "internalType": "string",
                  "name": "metadata",
                  "type": "string"
                },
                {
                  "internalType": "address",
                  "name": "applicant",
                  "type": "address"
                },
                {
                  "internalType": "bool",
                  "name": "accepted",
                  "type": "bool"
                },
                {
                  "components": [
                    {
                      "internalType": "bool",
                      "name": "nextToken",
                      "type": "bool"
                    },
                    {
                      "internalType": "address",
                      "name": "to",
                      "type": "address"
                    },
                    {
                      "internalType": "uint88",
                      "name": "amount",
                      "type": "uint88"
                    }
                  ],
                  "internalType": "struct ITasks.Reward[]",
                  "name": "reward",
                  "type": "tuple[]"
                }
              ],
              "internalType": "struct ITasks.OffChainApplication[]",
              "name": "applications",
              "type": "tuple[]"
            },
            {
              "components": [
                {
                  "internalType": "string",
                  "name": "metadata",
                  "type": "string"
                },
                {
                  "internalType": "string",
                  "name": "feedback",
                  "type": "string"
                },
                {
                  "internalType": "enum ITasks.SubmissionJudgement",
                  "name": "judgement",
                  "type": "uint8"
                }
              ],
              "internalType": "struct ITasks.Submission[]",
              "name": "submissions",
              "type": "tuple[]"
            },
            {
              "components": [
                {
                  "components": [
                    {
                      "internalType": "bool",
                      "name": "accepted",
                      "type": "bool"
                    },
                    {
                      "internalType": "bool",
                      "name": "executed",
                      "type": "bool"
                    }
                  ],
                  "internalType": "struct ITasks.Request",
                  "name": "request",
                  "type": "tuple"
                },
                {
                  "internalType": "string",
                  "name": "explanation",
                  "type": "string"
                }
              ],
              "internalType": "struct ITasks.CancelTaskRequest[]",
              "name": "cancelTaskRequests",
              "type": "tuple[]"
            }
          ],
          "internalType": "struct ITasks.OffChainTask[]",
          "name": "",
          "type": "tuple[]"
        }
      ],
      "stateMutability": "view",
      "type": "function"
    },
    {
      "inputs": [
        {
          "internalType": "uint256",
          "name": "_taskId",
          "type": "uint256"
        }
      ],
      "name": "getTask",
      "outputs": [
        {
          "components": [
            {
              "internalType": "string",
              "name": "metadata",
              "type": "string"
            },
            {
              "internalType": "uint64",
              "name": "deadline",
              "type": "uint64"
            },
            {
              "internalType": "uint16",
              "name": "executorApplication",
              "type": "uint16"
            },
            {
              "internalType": "address",
              "name": "creator",
              "type": "address"
            },
            {
              "internalType": "address",
              "name": "manager",
              "type": "address"
            },
            {
              "internalType": "enum ITasks.TaskState",
              "name": "state",
              "type": "uint8"
            },
            {
              "internalType": "contract Escrow",
              "name": "escrow",
              "type": "address"
            },
            {
              "components": [
                {
                  "internalType": "contract IERC20",
                  "name": "tokenContract",
                  "type": "address"
                },
                {
                  "internalType": "uint96",
                  "name": "amount",
                  "type": "uint96"
                }
              ],
              "internalType": "struct ITasks.ERC20Transfer[]",
              "name": "budget",
              "type": "tuple[]"
            },
            {
              "components": [
                {
                  "internalType": "string",
                  "name": "metadata",
                  "type": "string"
                },
                {
                  "internalType": "address",
                  "name": "applicant",
                  "type": "address"
                },
                {
                  "internalType": "bool",
                  "name": "accepted",
                  "type": "bool"
                },
                {
                  "components": [
                    {
                      "internalType": "bool",
                      "name": "nextToken",
                      "type": "bool"
                    },
                    {
                      "internalType": "address",
                      "name": "to",
                      "type": "address"
                    },
                    {
                      "internalType": "uint88",
                      "name": "amount",
                      "type": "uint88"
                    }
                  ],
                  "internalType": "struct ITasks.Reward[]",
                  "name": "reward",
                  "type": "tuple[]"
                }
              ],
              "internalType": "struct ITasks.OffChainApplication[]",
              "name": "applications",
              "type": "tuple[]"
            },
            {
              "components": [
                {
                  "internalType": "string",
                  "name": "metadata",
                  "type": "string"
                },
                {
                  "internalType": "string",
                  "name": "feedback",
                  "type": "string"
                },
                {
                  "internalType": "enum ITasks.SubmissionJudgement",
                  "name": "judgement",
                  "type": "uint8"
                }
              ],
              "internalType": "struct ITasks.Submission[]",
              "name": "submissions",
              "type": "tuple[]"
            },
            {
              "components": [
                {
                  "components": [
                    {
                      "internalType": "bool",
                      "name": "accepted",
                      "type": "bool"
                    },
                    {
                      "internalType": "bool",
                      "name": "executed",
                      "type": "bool"
                    }
                  ],
                  "internalType": "struct ITasks.Request",
                  "name": "request",
                  "type": "tuple"
                },
                {
                  "internalType": "string",
                  "name": "explanation",
                  "type": "string"
                }
              ],
              "internalType": "struct ITasks.CancelTaskRequest[]",
              "name": "cancelTaskRequests",
              "type": "tuple[]"
            }
          ],
          "internalType": "struct ITasks.OffChainTask",
          "name": "offchainTask",
          "type": "tuple"
        }
      ],
      "stateMutability": "view",
      "type": "function"
    },
    {
      "inputs": [
        {
          "internalType": "uint256[]",
          "name": "_taskIds",
          "type": "uint256[]"
        }
      ],
      "name": "getTasks",
      "outputs": [
        {
          "components": [
            {
              "internalType": "string",
              "name": "metadata",
              "type": "string"
            },
            {
              "internalType": "uint64",
              "name": "deadline",
              "type": "uint64"
            },
            {
              "internalType": "uint16",
              "name": "executorApplication",
              "type": "uint16"
            },
            {
              "internalType": "address",
              "name": "creator",
              "type": "address"
            },
            {
              "internalType": "address",
              "name": "manager",
              "type": "address"
            },
            {
              "internalType": "enum ITasks.TaskState",
              "name": "state",
              "type": "uint8"
            },
            {
              "internalType": "contract Escrow",
              "name": "escrow",
              "type": "address"
            },
            {
              "components": [
                {
                  "internalType": "contract IERC20",
                  "name": "tokenContract",
                  "type": "address"
                },
                {
                  "internalType": "uint96",
                  "name": "amount",
                  "type": "uint96"
                }
              ],
              "internalType": "struct ITasks.ERC20Transfer[]",
              "name": "budget",
              "type": "tuple[]"
            },
            {
              "components": [
                {
                  "internalType": "string",
                  "name": "metadata",
                  "type": "string"
                },
                {
                  "internalType": "address",
                  "name": "applicant",
                  "type": "address"
                },
                {
                  "internalType": "bool",
                  "name": "accepted",
                  "type": "bool"
                },
                {
                  "components": [
                    {
                      "internalType": "bool",
                      "name": "nextToken",
                      "type": "bool"
                    },
                    {
                      "internalType": "address",
                      "name": "to",
                      "type": "address"
                    },
                    {
                      "internalType": "uint88",
                      "name": "amount",
                      "type": "uint88"
                    }
                  ],
                  "internalType": "struct ITasks.Reward[]",
                  "name": "reward",
                  "type": "tuple[]"
                }
              ],
              "internalType": "struct ITasks.OffChainApplication[]",
              "name": "applications",
              "type": "tuple[]"
            },
            {
              "components": [
                {
                  "internalType": "string",
                  "name": "metadata",
                  "type": "string"
                },
                {
                  "internalType": "string",
                  "name": "feedback",
                  "type": "string"
                },
                {
                  "internalType": "enum ITasks.SubmissionJudgement",
                  "name": "judgement",
                  "type": "uint8"
                }
              ],
              "internalType": "struct ITasks.Submission[]",
              "name": "submissions",
              "type": "tuple[]"
            },
            {
              "components": [
                {
                  "components": [
                    {
                      "internalType": "bool",
                      "name": "accepted",
                      "type": "bool"
                    },
                    {
                      "internalType": "bool",
                      "name": "executed",
                      "type": "bool"
                    }
                  ],
                  "internalType": "struct ITasks.Request",
                  "name": "request",
                  "type": "tuple"
                },
                {
                  "internalType": "string",
                  "name": "explanation",
                  "type": "string"
                }
              ],
              "internalType": "struct ITasks.CancelTaskRequest[]",
              "name": "cancelTaskRequests",
              "type": "tuple[]"
            }
          ],
          "internalType": "struct ITasks.OffChainTask[]",
          "name": "",
          "type": "tuple[]"
        }
      ],
      "stateMutability": "view",
      "type": "function"
    },
    {
      "inputs": [
        {
          "internalType": "uint256",
          "name": "_taskId",
          "type": "uint256"
        },
        {
          "internalType": "uint96[]",
          "name": "_increase",
          "type": "uint96[]"
        }
      ],
      "name": "increaseBudget",
      "outputs": [],
      "stateMutability": "nonpayable",
      "type": "function"
    },
    {
      "inputs": [
        {
          "internalType": "uint256",
          "name": "_taskId",
          "type": "uint256"
        }
      ],
      "name": "refund",
      "outputs": [],
      "stateMutability": "nonpayable",
      "type": "function"
    },
    {
      "inputs": [
        {
          "internalType": "uint256",
          "name": "_taskId",
          "type": "uint256"
        },
        {
          "internalType": "uint8",
          "name": "_submissionId",
          "type": "uint8"
        },
        {
          "internalType": "enum ITasks.SubmissionJudgement",
          "name": "_judgement",
          "type": "uint8"
        },
        {
          "internalType": "string",
          "name": "_feedback",
          "type": "string"
        }
      ],
      "name": "reviewSubmission",
      "outputs": [],
      "stateMutability": "nonpayable",
      "type": "function"
    },
    {
      "inputs": [
        {
          "internalType": "uint256",
          "name": "_taskId",
          "type": "uint256"
        },
        {
          "internalType": "uint16",
          "name": "_applicationId",
          "type": "uint16"
        }
      ],
      "name": "takeTask",
      "outputs": [],
      "stateMutability": "nonpayable",
      "type": "function"
    },
    {
      "inputs": [],
      "name": "taskCount",
      "outputs": [
        {
          "internalType": "uint256",
          "name": "",
          "type": "uint256"
        }
      ],
      "stateMutability": "view",
      "type": "function"
    },
    {
      "inputs": [],
      "name": "taskStatistics",
      "outputs": [
        {
          "internalType": "uint256",
          "name": "open",
          "type": "uint256"
        },
        {
          "internalType": "uint256",
          "name": "taken",
          "type": "uint256"
        },
        {
          "internalType": "uint256",
          "name": "successful",
          "type": "uint256"
        }
      ],
      "stateMutability": "view",
      "type": "function"
    }
  ],
  "numDeployments": 1,
  "solcInputHash": "453b0e65771c6c1185ae780419830357",
  "bytecode": "0x60a06040523480156200001157600080fd5b50604051620000209062000062565b604051809103906000f0801580156200003d573d6000803e3d6000fd5b506001600160a01b0316608052600580546001600160a01b0319163317905562000070565b61021180620045ce83390190565b6080516145426200008c60003960006110bc01526145426000f3fe608060405234801561001057600080fd5b506004361061012b5760003560e01c806377b98419116100ad578063b685504b11610071578063b685504b146102ab578063b6cb58a5146102be578063b7952829146102c6578063c5f9027b146102d9578063ecb8adae146102ec57600080fd5b806377b984191461022c57806383219a8a1461023f57806391a2922514610252578063978a2b5314610265578063a5e99c4e1461028657600080fd5b80633f74d41d116100f45780633f74d41d1461019c57806352a63d49146101bc5780635ac1d773146101e257806362ffbb201461020657806376645a931461021957600080fd5b8062f9467d146101305780631d65e77e14610145578063278ecde11461016e5780632f2770db146101815780633f561a4014610189575b600080fd5b61014361013e366004613360565b6102ff565b005b6101586101533660046133af565b610424565b604051610165919061379c565b60405180910390f35b61014361017c3660046133af565b610449565b610143610474565b6101436101973660046137fa565b61048e565b6101af6101aa366004613865565b6105f0565b604051610165919061389a565b6101cf6101ca36600461393d565b61072c565b60405161ffff9091168152602001610165565b60015460025460035460408051938452602084019290925290820152606001610165565b6101436102143660046137fa565b610917565b6101af610227366004613a29565b610afa565b61014361023a366004613ace565b610bad565b61014361024d366004613b42565b610d56565b610143610260366004613b80565b610ea8565b610278610273366004613bd3565b610fed565b604051908152602001610165565b610299610294366004613b42565b611691565b60405160ff9091168152602001610165565b6101436102b9366004613cd1565b611782565b600054610278565b6101af6102d4366004613865565b611863565b6101436102e7366004613cfd565b61192c565b6102996102fa366004613b42565b611a7e565b610307611cb7565b600061031285611ce2565b905061031d81611d17565b61032681611d5a565b6103308184611da7565b60ff83166000908152600782016020526040902061034d81611dd9565b82156103bd576002805460001901905561036682611dfc565b6003820154604080516001600160a01b039092168252336020830152805188927f7b6dd43008ec95d34632e25b85bcb8ea6ac0e4170eda419079a724462b2b8e7292908290030190a2805461ff0019166101001781555b805460ff19166001179055600381015485907f22c8636df8a0387ea92695f6534f3a1dccaa44ba42e7627c4d205e078dbbbe0490869086906001600160a01b03166104053390565b6040516104159493929190613d30565b60405180910390a25050505050565b61042c6132cf565b600061043783611ce2565b905061044281611eff565b9392505050565b610451612861565b600061045c82611ce2565b90506104678161288b565b61047081611dfc565b5050565b61047c6128cb565b600580546001600160a01b0319169055565b610496611cb7565b60006104a184611ce2565b90506104ac816128ff565b6104b58161293f565b60005b828110156105e9576104f0828585848181106104d6576104d6613d66565b90506020020160208101906104eb9190613d7c565b61296c565b600082600501600086868581811061050a5761050a613d66565b905060200201602081019061051f9190613d7c565b61ffff168152602081019190915260400160002060018101805460ff60a01b1916600160a01b1790819055909150610566908490600160a81b900460ff166002840161299f565b857f42640c2316bc5dc21268d8f31f937340e2b0bae183af2839d910e442daa5b34f86868581811061059a5761059a613d66565b90506020020160208101906105af9190613d7c565b60018401546040805161ffff9390931683523360208401526001600160a01b0390911682820152519081900360600190a2506001016104b8565b5050505050565b60008054606091816001600160401b0381111561060f5761060f6139e3565b604051908082528060200260200182016040528015610638578160200160208202803683370190505b50905060008560000361065357610650600184613dad565b95505b855b600019811461070f5760008082815260046020526040902060030154600160a01b900460ff16600281111561068c5761068c61340e565b141580156106d3575060008181526004602090815260408083206003810154600160a81b900461ffff1684526005019091529020600101546001600160a01b038981169116145b1561070657808383815181106106eb576106eb613d66565b6020026020010181815250508160010191508582031561070f575b60001901610655565b50808303825103825261072182610afa565b979650505050505050565b600060ff821061074f57604051630207029560e11b815260040160405180910390fd5b610757611cb7565b600061076287611ce2565b905061076d816128ff565b6107c88484808060200260200160405190810160405280939291908181526020016000905b828210156107be576107af60608302860136819003810190613dd5565b81526020019060010190610792565b5050505050612c1a565b6003810154600160c01b900461ffff1660009081526005820160205260409020806107f4878983613ec9565b5060018101805460ff8616600160a81b02600161ff0160a01b0319909116331717905560005b60ff80861690821610156108715785858260ff1681811061083d5761083d613d66565b60ff8416600090815260028601602052604090206060909102929092019190506108678282613f88565b505060010161081a565b50600382018054600160c01b900461ffff1690601861088f83613ff5565b91906101000a81548161ffff021916908361ffff1602179055509250877f7dea79221549b396f31442a220505470acfcfd38f772b6b3faa676d25df5998d84898989898860030160009054906101000a90046001600160a01b03166108f13390565b60405161090497969594939291906140af565b60405180910390a2505095945050505050565b61091f611cb7565b600061092a84611ce2565b90506109358161293f565b61093e816128ff565b60005b60ff8084169082161015610ab75760ff81166000908152600483016020526040902080546001600160a01b03166323b872dd336001860154600160401b90046001600160a01b0316888860ff881681811061099e5761099e613d66565b90506020020160208101906109b3919061411f565b6040518463ffffffff1660e01b81526004016109d19392919061413a565b6020604051808303816000875af11580156109f0573d6000803e3d6000fd5b505050506040513d601f19601f82011682018060405250810190610a149190614166565b50805460018401546040516370a0823160e01b81526001600160a01b03600160401b909204821660048201529116906370a0823190602401602060405180830381865afa158015610a69573d6000803e3d6000fd5b505050506040513d601f19601f82011682018060405250810190610a8d9190614183565b81546001600160601b0391909116600160a01b026001600160a01b03909116179055600101610941565b50837ffd28ab2ce625e634dd4caa0b1632ca64ed46e19b4ddd416693af49ad5e696d62848433604051610aec9392919061419c565b60405180910390a250505050565b6060600082516001600160401b03811115610b1757610b176139e3565b604051908082528060200260200182016040528015610b5057816020015b610b3d6132cf565b815260200190600190039081610b355790505b50905060005b8351811015610ba657610b81848281518110610b7457610b74613d66565b6020026020010151610424565b828281518110610b9357610b93613d66565b6020908102919091010152600101610b56565b5092915050565b610bb5611cb7565b6000610bc086611ce2565b9050610bcb81611d17565b610bd48161293f565b610bde8186612c67565b60ff851660009081526006820160205260409020610bfb81612c99565b610c0485612cd2565b848160020160006101000a81548160ff02191690836002811115610c2a57610c2a61340e565b021790555060018101610c3e848683613ec9565b506001856002811115610c5357610c5361340e565b03610cde5760028054600019019055600380546001019055610c7482612d04565b867f71df29d45998a549c1f24c01fb77e4eb23d0655460af8d435c59de2d8f572d96336003850154600160a81b900461ffff1660009081526005860160209081526040918290206001015482516001600160a01b0394851681529316908301520160405180910390a25b867f996a0dc6f1df9505a14639ddb92690f738f30d9e246272adae5ae7fb6c9a930387878787336003890154600160a81b900461ffff16600090815260058a01602052604090819020600101549051610d459695949392916001600160a01b0316906141fd565b60405180910390a250505050505050565b610d5e611cb7565b6000610d6984611ce2565b9050610d748161293f565b610d7d816128ff565b610e49816000018054610d8f90613e46565b80601f0160208091040260200160405190810160405280929190818152602001828054610dbb90613e46565b8015610e085780601f10610ddd57610100808354040283529160200191610e08565b820191906000526020600020905b815481529060010190602001808311610deb57829003601f168201915b505050505084848080601f016020809104026020016040519081016040528093929190818152602001838380828437600092019190915250612f5b92505050565b15610e67576040516323cb696160e01b815260040160405180910390fd5b80610e73838583613ec9565b50837f967dad14c5f736d50ac946b958b80007717809320b4864c86cd29b0898fad807848433604051610aec9392919061424c565b610eb0611cb7565b6000610ebb84611ce2565b9050610ec681611d17565b610ed08183611da7565b60ff821660009081526007820160205260409020610eed81612f77565b610ef681612f99565b60028054600019019055610f0982611dfc565b6003820154600160a81b810461ffff1660009081526005840160209081526040918290206001015482516001600160a01b03948516815293169083015286917f7b6dd43008ec95d34632e25b85bcb8ea6ac0e4170eda419079a724462b2b8e72910160405180910390a2805461ff001916610100179055837fa20926c2163603eba714f9531625851214f394b2984a5038f03c478b73b0458a8484610fab3390565b600386015461ffff600160a81b820416600090815260058801602052604090819020600101549051610aec959493926001600160a01b03908116921690614278565b6000610ff887612fc1565b61100184612feb565b60ff851061102257604051630207029560e11b815260040160405180910390fd5b61ffff821061104457604051630207029560e11b815260040160405180910390fd5b61104c611cb7565b60008054908061105b836142b7565b9091555060008181526004602052604090209091508061107c8a8c83613ec9565b5060018101805467ffffffffffffffff19166001600160401b038a1617905560038101805460ff60b81b1916600160b81b60ff89160217905560006110e07f0000000000000000000000000000000000000000000000000000000000000000613012565b9050806001600160a01b03166365b145fb6040518163ffffffff1660e01b8152600401600060405180830381600087803b15801561111d57600080fd5b505af1158015611131573d6000803e3d6000fd5b5050505060018201805468010000000000000000600160e01b031916600160401b6001600160a01b0384160217905560005b60ff80891690821610156113645788888260ff1681811061118657611186613d66565b61119c92602060409092020190810191506142d0565b6001600160a01b03166323b872dd33848c8c8660ff168181106111c1576111c1613d66565b90506040020160200160208101906111d9919061411f565b6040518463ffffffff1660e01b81526004016111f79392919061413a565b6020604051808303816000875af1158015611216573d6000803e3d6000fd5b505050506040513d601f19601f8201168201806040525081019061123a9190614166565b5060405180604001604052808a8a8460ff1681811061125b5761125b613d66565b61127192602060409092020190810191506142d0565b6001600160a01b031681526020018a8a8460ff1681811061129457611294613d66565b6112aa92602060409092020190810191506142d0565b6040516370a0823160e01b81526001600160a01b03868116600483015291909116906370a0823190602401602060405180830381865afa1580156112f2573d6000803e3d6000fd5b505050506040513d601f19601f820116820180604052508101906113169190614183565b6001600160601b0390811690915260ff83166000908152600486016020908152604090912083519390910151909116600160a01b026001600160a01b03909216919091179055600101611163565b506003820180546001600160a01b03199081166001600160a01b0389161790915560028301805433921682179055600180548101905560405184917fcef3c76c6dc8ae3380ddd7db5dc62d9912867f43c04b1408899aa707f3078049916113d6918f918f918f918f918f918f906142ed565b60405180910390a283156116835760038201805461ffff60c01b1916600160c01b61ffff87160217905560005b61ffff80861690821610156116815761ffff811660008181526005850160205260409020908790879081811061143b5761143b613d66565b905060200281019061144d919061439e565b61145b9060208101906142d0565b6001820180546001600160a81b0319166001600160a01b039290921691909117600160a01b179055611508878761ffff851681811061149c5761149c613d66565b90506020028101906114ae919061439e565b6114bc9060208101906143be565b808060200260200160405190810160405280939291908181526020016000905b828210156107be576114f960608302860136819003810190613dd5565b815260200190600101906114dc565b611548848289898661ffff1681811061152357611523613d66565b9050602002810190611535919061439e565b6115439060208101906143be565b6130b0565b847f7dea79221549b396f31442a220505470acfcfd38f772b6b3faa676d25df5998d8389898661ffff1681811061158157611581613d66565b9050602002810190611593919061439e565b6115a19060208101906143be565b8c8c8c8961ffff168181106115b8576115b8613d66565b90506020028101906115ca919061439e565b6115d89060208101906142d0565b6040516115e9959493929190614406565b60405180910390a2847f42640c2316bc5dc21268d8f31f937340e2b0bae183af2839d910e442daa5b34f838a8a8a8761ffff1681811061162b5761162b613d66565b905060200281019061163d919061439e565b61164b9060208101906142d0565b6040805161ffff90941684526001600160a01b03928316602085015291169082015260600160405180910390a250600101611403565b505b505098975050505050505050565b600061169b611cb7565b60006116a685611ce2565b90506116b181611d17565b6116ba81611d5a565b6003810154600160d01b900460ff1660009081526006820160205260409020806116e5858783613ec9565b50600382018054600160d01b900460ff1690601a61170283614454565b91906101000a81548160ff021916908360ff1602179055509250857febbf99121aff5f85cf06c85caf2ef1ffc43579642cafcec11f652cd95d1287128487878660030160009054906101000a90046001600160a01b03166117603390565b604051611771959493929190614473565b60405180910390a250509392505050565b61178a611cb7565b600061179583611ce2565b90506117a0816128ff565b6117aa818361296c565b61ffff8216600090815260058201602052604090206117c881613276565b6117d1816132a3565b60038201805461ffff60a81b1916600160a81b61ffff861690810291909117825560018054600019018155600280549091019055815460ff60a01b198116600160a01b17909255604080519182526001600160a01b039092166020820152339181019190915284907f999f5ac16ad68b99efbba298ac2365d78c941b1b397f82a52232dedb58d48de190606001610aec565b60008054606091816001600160401b03811115611882576118826139e3565b6040519080825280602002602001820160405280156118ab578160200160208202803683370190505b5090506000856000036118c6576118c3600184613dad565b95505b855b600019811461070f576000818152600460205260409020600301546001600160a01b03808a16911603611923578083838151811061190857611908613d66565b6020026020010181815250508160010191508582031561070f575b600019016118c8565b611934611cb7565b600061193f83611ce2565b905061194a8161293f565b6119538161288b565b816001600160401b031660000361197d576040516323cb696160e01b815260040160405180910390fd5b60018101805483919060009061199d9084906001600160401b03166144b2565b92506101000a8154816001600160401b0302191690836001600160401b03160217905550827f3d9ee6a0fdedaee94f1c3631bf046c61c58704428408ca72e3e7ffa046884a68836119eb3390565b60006003860154600160a01b900460ff166002811115611a0d57611a0d61340e565b14611a44576003850154600160a81b900461ffff1660009081526005860160205260409020600101546001600160a01b0316611a47565b60005b604080516001600160401b0390941684526001600160a01b03928316602085015291169082015260600160405180910390a2505050565b6000611a88611cb7565b6000611a9385611ce2565b9050611a9e8161293f565b611aa78161288b565b60006003820154600160a01b900460ff166002811115611ac957611ac961340e565b1480611ae5575060018101546001600160401b03428116911611155b15611bdf5760006003820154600160a01b900460ff166002811115611b0c57611b0c61340e565b03611b205760018054600019019055611b2b565b600280546000190190555b611b3481611dfc565b847f7b6dd43008ec95d34632e25b85bcb8ea6ac0e4170eda419079a724462b2b8e723360006003850154600160a01b900460ff166002811115611b7957611b7961340e565b14611bb0576003840154600160a81b900461ffff1660009081526005850160205260409020600101546001600160a01b0316611bb3565b60005b604080516001600160a01b0393841681529290911660208301520160405180910390a260ff9150611caf565b6003810154600160d81b900460ff166000908152600782016020526040902060018101611c0d858783613ec9565b50600382018054600160d81b900460ff1690601b611c2a83614454565b91906101000a81548160ff021916908360ff1602179055509250857f8beb4b470a422a5a51289e17afad55bb1f5692ed0b2ad0d71779119481d38992848787611c703390565b6003880154600160a81b900461ffff1660009081526005890160205260409081902060010154905161177195949392916001600160a01b031690614473565b509392505050565b6005546001600160a01b0316611ce057604051633ac4266d60e11b815260040160405180910390fd5b565b600080548210611d055760405163da319dff60e01b815260040160405180910390fd5b50600090815260046020526040902090565b60016003820154600160a01b900460ff166002811115611d3957611d3961340e565b14611d57576040516324a6478960e01b815260040160405180910390fd5b50565b600381015461ffff600160a81b9091041660009081526005820160205260409020600101546001600160a01b03163314611d57576040516361968ebb60e11b815260040160405180910390fd5b600382015460ff600160d81b90910481169082161061047057604051637037cbb560e11b815260040160405180910390fd5b805460ff1615611d5757604051639f80515760e01b815260040160405180910390fd5b600381015460028201546001830154600160b81b90920460ff16916001600160a01b0391821691600160401b9091041660005b8360ff168160ff161015611ee55760ff81166000908152600486810160209081526040928390208351808501855290546001600160a01b03808216808452600160a01b9092046001600160601b031693830184905294516317d5759960e31b8152919487169363beabacc893611ea7938a920161413a565b600060405180830381600087803b158015611ec157600080fd5b505af1158015611ed5573d6000803e3d6000fd5b5050505081600101915050611e2f565b50505050600301805460ff60a01b1916600160a11b179055565b611f076132cf565b81548290611f1490613e46565b80601f0160208091040260200160405190810160405280929190818152602001828054611f4090613e46565b8015611f8d5780601f10611f6257610100808354040283529160200191611f8d565b820191906000526020600020905b815481529060010190602001808311611f7057829003601f168201915b505050918352505060018201546001600160401b031660208201526003820154600160a81b810461ffff1660408301526002808401546001600160a01b0390811660608501528216608084015260a0830191600160a01b900460ff1690811115611ff957611ff961340e565b9081600281111561200c5761200c61340e565b9052506001820154600160401b90046001600160a01b031660c08201526003820154600160b81b900460ff166001600160401b0381111561204f5761204f6139e3565b60405190808252806020026020018201604052801561209457816020015b604080518082019091526000808252602082015281526020019060019003908161206d5790505b5060e082015260005b8160e00151518160ff16101561211a5760ff811660008181526004850160209081526040918290208251808401909352546001600160a01b0381168352600160a01b90046001600160601b03169082015260e0840151805191929091811061210757612107613d66565b602090810291909101015260010161209d565b506003820154600160c01b900461ffff166001600160401b03811115612142576121426139e3565b6040519080825280602002602001820160405280156121a957816020015b61219660405180608001604052806060815260200160006001600160a01b03168152602001600015158152602001606081525090565b8152602001906001900390816121605790505b5061010082015260005b816101000151518160ff16101561248c5760ff811660009081526005840160205260409020805481906121e590613e46565b80601f016020809104026020016040519081016040528092919081815260200182805461221190613e46565b801561225e5780601f106122335761010080835404028352916020019161225e565b820191906000526020600020905b81548152906001019060200180831161224157829003601f168201915b50505050508361010001518360ff168151811061227d5761227d613d66565b602090810291909101015152600181015461010084015180516001600160a01b039092169160ff85169081106122b5576122b5613d66565b6020908102919091018101516001600160a01b039092169101526001810154610100840151805160ff600160a01b90930483169285169081106122fa576122fa613d66565b60209081029190910101519015156040909101526001810154600160a81b900460ff166001600160401b03811115612334576123346139e3565b60405190808252806020026020018201604052801561237f57816020015b60408051606081018252600080825260208083018290529282015282526000199092019101816123525790505b508361010001518360ff168151811061239a5761239a613d66565b60200260200101516060018190525060005b8361010001518360ff16815181106123c6576123c6613d66565b602002602001015160600151518160ff1610156124825760ff818116600090815260028401602090815260409182902082516060810184529054808516151582526101008082046001600160a01b031693830193909352600160a81b90046001600160581b03169281019290925286015180519192909190861690811061244f5761244f613d66565b6020026020010151606001518260ff168151811061246f5761246f613d66565b60209081029190910101526001016123ac565b50506001016121b3565b506003820154600160d01b900460ff166001600160401b038111156124b3576124b36139e3565b60405190808252806020026020018201604052801561250457816020015b6124f1604080516060808201835280825260208201529081016000905290565b8152602001906001900390816124d15790505b5061012082015260005b816101200151518160ff1610156126c15760ff811660009081526006840160205260409081902081516060810190925280548290829061254d90613e46565b80601f016020809104026020016040519081016040528092919081815260200182805461257990613e46565b80156125c65780601f1061259b576101008083540402835291602001916125c6565b820191906000526020600020905b8154815290600101906020018083116125a957829003601f168201915b505050505081526020016001820180546125df90613e46565b80601f016020809104026020016040519081016040528092919081815260200182805461260b90613e46565b80156126585780601f1061262d57610100808354040283529160200191612658565b820191906000526020600020905b81548152906001019060200180831161263b57829003601f168201915b505050918352505060028281015460209092019160ff169081111561267f5761267f61340e565b60028111156126905761269061340e565b815250508261012001518260ff16815181106126ae576126ae613d66565b602090810291909101015260010161250e565b506003820154600160d81b900460ff166001600160401b038111156126e8576126e86139e3565b60405190808252806020026020018201604052801561273e57816020015b604080516080810182526000918101828152606080830193909352815260208101919091528152602001906001900390816127065790505b5061014082015260005b816101400151518160ff16101561285b5760ff8082166000908152600785016020908152604091829020825160808101845281548086161515948201948552610100900490941615156060850152918352600182018054918401916127ac90613e46565b80601f01602080910402602001604051908101604052809291908181526020018280546127d890613e46565b80156128255780601f106127fa57610100808354040283529160200191612825565b820191906000526020600020905b81548152906001019060200180831161280857829003601f168201915b5050505050815250508261014001518260ff168151811061284857612848613d66565b6020908102919091010152600101612748565b50919050565b6005546001600160a01b031615611ce057604051635b3d539f60e01b815260040160405180910390fd5b60026003820154600160a01b900460ff1660028111156128ad576128ad61340e565b03611d5757604051630e75c2f960e21b815260040160405180910390fd5b6005546001600160a01b0316336001600160a01b031614611ce05760405163039782d760e21b815260040160405180910390fd5b60006003820154600160a01b900460ff1660028111156129215761292161340e565b14611d575760405163fe89421760e01b815260040160405180910390fd5b60038101546001600160a01b03163314611d575760405163607e454560e11b815260040160405180910390fd5b600382015461ffff600160c01b9091048116908216106104705760405163362a281160e01b815260040160405180910390fd5b600080805260048401602090815260408083208151808301909252546001600160a01b0381168252600160a01b90046001600160601b03169181019190915281805b8560ff168160ff161015612c115760ff8082166000908152602087905260409020546001600160581b03600160a81b82041693909301921615612c095782602001516001600160601b0316821115612bba5782516001600160a01b03166323b872dd338960010160089054906101000a90046001600160a01b031686602001516001600160601b031686612a759190613dad565b6040516001600160e01b031960e086901b1681526001600160a01b03938416600482015292909116602483015260448201526064016020604051808303816000875af1158015612ac9573d6000803e3d6000fd5b505050506040513d601f19601f82011682018060405250810190612aed9190614166565b50825160018801546040516370a0823160e01b8152600160401b9091046001600160a01b039081166004830152849216906370a0823190602401602060405180830381865afa158015612b44573d6000803e3d6000fd5b505050506040513d601f19601f82011682018060405250810190612b689190614183565b1015612b875760405163d773240960e01b815260040160405180910390fd5b60ff84166000908152600488016020526040902080546001600160a01b0316600160a01b6001600160601b038516021790555b60ff6001909401938416600090815260048801602090815260408083208151808301909252546001600160a01b03811682526001600160601b03600160a01b9091041691810191909152935091505b6001016129e1565b50505050505050565b805115801590612c49575080600182510381518110612c3b57612c3b613d66565b602002602001015160000151155b15611d5757604051630f871f2b60e11b815260040160405180910390fd5b600382015460ff600160d01b90910481169082161061047057604051632802fcef60e11b815260040160405180910390fd5b600060028083015460ff1690811115612cb457612cb461340e565b14611d57576040516330512bf360e21b815260040160405180910390fd5b6000816002811115612ce657612ce661340e565b03611d575760405163386b121160e21b815260040160405180910390fd5b6003810154600160a81b80820461ffff166000908152600584016020526040812060028501546001808701549083015492956001600160a01b0392831695600160401b90920490921693920460ff90811691600160b81b900416825b8160ff168160ff161015612f3b5760ff811660009081526004890160209081526040918290208251808401909352546001600160a01b0381168352600160a01b90046001600160601b0316908201525b8360ff168560ff161015612eb85760ff858116600090815260028a016020908152604091829020825160608101845290549384161515815261010084046001600160a01b03908116928201839052600160a81b9094046001600160581b0316818401819052855193516317d5759960e31b81529385166004850152602484019290925260448301919091529188169063beabacc890606401600060405180830381600087803b158015612e6257600080fd5b505af1158015612e76573d6000803e3d6000fd5b5050505060408101516020830180516001600160581b039092169091036001600160601b0316905280516001969096019515612eb25750612eb8565b50612db0565b60208101516001600160601b031615612f3257805160208201516040516317d5759960e31b81526001600160a01b0389169263beabacc892612eff928c919060040161413a565b600060405180830381600087803b158015612f1957600080fd5b505af1158015612f2d573d6000803e3d6000fd5b505050505b50600101612d60565b50505050600393909301805460ff60a01b1916600160a11b179055505050565b6000818051906020012083805190602001201490505b92915050565b805460ff16611d575760405163f34ca27f60e01b815260040160405180910390fd5b8054610100900460ff1615611d5757604051636b78fca360e11b815260040160405180910390fd5b806001600160401b0316600003611d575760405163b7d0949760e01b815260040160405180910390fd5b6001600160a01b038116611d575760405163e6c4247b60e01b815260040160405180910390fd5b6000763d602d80600a3d3981f3363d3d373d3d3d363d730000008260601b60e81c176000526e5af43d82803e903d91602b57fd5bf38260781b17602052603760096000f090506001600160a01b0381166130ab5760405162461bcd60e51b8152602060048201526016602482015275115490cc4c4d8dce8818dc99585d194819985a5b195960521b604482015260640160405180910390fd5b919050565b60ff81106130d157604051630207029560e11b815260040160405180910390fd5b60018301805460ff60a81b1916600160a81b60ff841602179055600080805260048501602090815260408083208151808301909252546001600160a01b0381168252600160a01b90046001600160601b03169181019190915281805b60ff808616908216101561326c5785858260ff1681811061315057613150613d66565b905060600201604001602081019061316891906144d2565b6001600160581b03168201915082602001516001600160601b03168211156131a35760405163b8f6ba5360e01b815260040160405180910390fd5b85858260ff168181106131b8576131b8613d66565b60ff8416600090815260028b01602052604090206060909102929092019190506131e28282613f88565b90505085858260ff168181106131fa576131fa613d66565b61321092602060609092020190810191506144ef565b156132645760ff6001909401938416600090815260048901602090815260408083208151808301909252546001600160a01b03811682526001600160601b03600160a01b9091041691810191909152935091505b60010161312d565b5050505050505050565b60018101546001600160a01b03163314611d5757604051632dfb00a160e21b815260040160405180910390fd5b6001810154600160a01b900460ff16611d5757604051635e7fdeef60e11b815260040160405180910390fd5b604080516101608101825260608082526000602083018190529282018390528101829052608081018290529060a0820190815260200160006001600160a01b03168152602001606081526020016060815260200160608152602001606081525090565b8035600181106130ab57600080fd5b803560ff811681146130ab57600080fd5b8015158114611d5757600080fd5b6000806000806080858703121561337657600080fd5b8435935061338660208601613332565b925061339460408601613341565b915060608501356133a481613352565b939692955090935050565b6000602082840312156133c157600080fd5b5035919050565b6000815180845260005b818110156133ee576020818501810151868301820152016133d2565b506000602082860101526020601f19601f83011685010191505092915050565b634e487b7160e01b600052602160045260246000fd5b60038110611d5757611d5761340e565b61343d81613424565b9052565b600081518084526020808501945080840160005b8381101561348e57815180516001600160a01b031688528301516001600160601b03168388015260409096019590820190600101613455565b509495945050505050565b600081518084526020808501808196508360051b810191508286016000805b86811015613574578385038a528251608081518188526134da828901826133c8565b838a01516001600160a01b039081168a8c01526040808601511515818c01526060958601518b8403878d01528051808552908d019689965091945091929091908c01905b8086101561355c5786518051151583528d81015185168e8401528501516001600160581b031685830152958c0195600195909501949082019061351e565b509e8b019e99505050948801945050506001016134b8565b509298975050505050505050565b600081518084526020808501808196508360051b8101915082860160005b858110156136035782840389528151606081518187526135c2828801826133c8565b91505086820151868203888801526135da82826133c8565b91505060408083015192506135ee83613424565b959095015297840197908401906001016135a0565b5091979650505050505050565b600081518084526020808501808196508360051b8101915082860160005b8581101561360357828403895281518051805115158652860151151586860152850151606060408601819052613666818701836133c8565b9a87019a955050509084019060010161362e565b60006101608251818552613690828601826133c8565b91505060208301516136ad60208601826001600160401b03169052565b5060408301516136c3604086018261ffff169052565b5060608301516136de60608601826001600160a01b03169052565b5060808301516136f960808601826001600160a01b03169052565b5060a083015161370c60a0860182613434565b5060c083015161372760c08601826001600160a01b03169052565b5060e083015184820360e086015261373f8282613441565b915050610100808401518583038287015261375a8382613499565b9250505061012080840151858303828701526137768382613582565b9250505061014080840151858303828701526137928382613610565b9695505050505050565b602081526000610442602083018461367a565b60008083601f8401126137c157600080fd5b5081356001600160401b038111156137d857600080fd5b6020830191508360208260051b85010111156137f357600080fd5b9250929050565b60008060006040848603121561380f57600080fd5b8335925060208401356001600160401b0381111561382c57600080fd5b613838868287016137af565b9497909650939450505050565b6001600160a01b0381168114611d5757600080fd5b80356130ab81613845565b60008060006060848603121561387a57600080fd5b833561388581613845565b95602085013595506040909401359392505050565b6000602080830181845280855180835260408601915060408160051b870101925083870160005b828110156138ef57603f198886030184526138dd85835161367a565b945092850192908501906001016138c1565b5092979650505050505050565b60008083601f84011261390e57600080fd5b5081356001600160401b0381111561392557600080fd5b6020830191508360208285010111156137f357600080fd5b60008060008060006060868803121561395557600080fd5b8535945060208601356001600160401b038082111561397357600080fd5b61397f89838a016138fc565b9096509450604088013591508082111561399857600080fd5b818801915088601f8301126139ac57600080fd5b8135818111156139bb57600080fd5b8960206060830285010111156139d057600080fd5b9699959850939650602001949392505050565b634e487b7160e01b600052604160045260246000fd5b604051601f8201601f191681016001600160401b0381118282101715613a2157613a216139e3565b604052919050565b60006020808385031215613a3c57600080fd5b82356001600160401b0380821115613a5357600080fd5b818501915085601f830112613a6757600080fd5b813581811115613a7957613a796139e3565b8060051b9150613a8a8483016139f9565b8181529183018401918481019088841115613aa457600080fd5b938501935b83851015613ac257843582529385019390850190613aa9565b98975050505050505050565b600080600080600060808688031215613ae657600080fd5b85359450613af660208701613341565b9350604086013560038110613b0a57600080fd5b925060608601356001600160401b03811115613b2557600080fd5b613b31888289016138fc565b969995985093965092949392505050565b600080600060408486031215613b5757600080fd5b8335925060208401356001600160401b03811115613b7457600080fd5b613838868287016138fc565b600080600060608486031215613b9557600080fd5b83359250613ba560208501613332565b9150613bb360408501613341565b90509250925092565b80356001600160401b03811681146130ab57600080fd5b60008060008060008060008060a0898b031215613bef57600080fd5b88356001600160401b0380821115613c0657600080fd5b613c128c838d016138fc565b909a509850889150613c2660208c01613bbc565b975060408b0135915080821115613c3c57600080fd5b818b0191508b601f830112613c5057600080fd5b813581811115613c5f57600080fd5b8c60208260061b8501011115613c7457600080fd5b6020830197509550613c8860608c0161385a565b945060808b0135915080821115613c9e57600080fd5b50613cab8b828c016137af565b999c989b5096995094979396929594505050565b803561ffff811681146130ab57600080fd5b60008060408385031215613ce457600080fd5b82359150613cf460208401613cbf565b90509250929050565b60008060408385031215613d1057600080fd5b82359150613cf460208401613bbc565b6001811061343d5761343d61340e565b60808101613d3e8287613d20565b60ff9490941660208201526001600160a01b0392831660408201529116606090910152919050565b634e487b7160e01b600052603260045260246000fd5b600060208284031215613d8e57600080fd5b61044282613cbf565b634e487b7160e01b600052601160045260246000fd5b81810381811115612f7157612f71613d97565b6001600160581b0381168114611d5757600080fd5b600060608284031215613de757600080fd5b604051606081018181106001600160401b0382111715613e0957613e096139e3565b6040528235613e1781613352565b81526020830135613e2781613845565b60208201526040830135613e3a81613dc0565b60408201529392505050565b600181811c90821680613e5a57607f821691505b60208210810361285b57634e487b7160e01b600052602260045260246000fd5b601f821115613ec457600081815260208120601f850160051c81016020861015613ea15750805b601f850160051c820191505b81811015613ec057828155600101613ead565b5050505b505050565b6001600160401b03831115613ee057613ee06139e3565b613ef483613eee8354613e46565b83613e7a565b6000601f841160018114613f285760008515613f105750838201355b600019600387901b1c1916600186901b1783556105e9565b600083815260209020601f19861690835b82811015613f595786850135825560209485019460019092019101613f39565b5086821015613f765760001960f88860031b161c19848701351681555b505060018560011b0183555050505050565b8135613f9381613352565b815460ff19811691151560ff1691821783556020840135613fb381613845565b610100600160a81b0360089190911b166001600160a81b0319918216831781178455604085013591613fe483613dc0565b921760a89190911b90911617905550565b600061ffff80831681810361400c5761400c613d97565b6001019392505050565b81835281816020850137506000828201602090810191909152601f909101601f19169091010190565b8183526000602080850194508260005b8581101561348e57813561406281613352565b151587528183013561407381613845565b6001600160a01b03168784015260408281013561408f81613dc0565b6001600160581b031690880152606096870196919091019060010161404f565b61ffff8816815260a0602082015260006140cd60a08301888a614016565b82810360408401526140e081878961403f565b6001600160a01b03958616606085015293909416608090920191909152509695505050505050565b80356001600160601b03811681146130ab57600080fd5b60006020828403121561413157600080fd5b61044282614108565b6001600160a01b0393841681529190921660208201526001600160601b03909116604082015260600190565b60006020828403121561417857600080fd5b815161044281613352565b60006020828403121561419557600080fd5b5051919050565b6040808252810183905260008460608301825b868110156141dd576001600160601b036141c884614108565b168252602092830192909101906001016141af565b506001600160a01b03949094166020939093019290925250909392505050565b60ff8716815261420c86613424565b85602082015260a06040820152600061422960a083018688614016565b6001600160a01b0394851660608401529290931660809091015295945050505050565b604081526000614260604083018587614016565b905060018060a01b0383166020830152949350505050565b60a081016142868288613d20565b60ff9590951660208201526001600160a01b0393841660408201529183166060830152909116608090910152919050565b6000600182016142c9576142c9613d97565b5060010190565b6000602082840312156142e257600080fd5b813561044281613845565b60a08152600061430160a08301898b614016565b60206001600160401b0389168185015260408483038186015282888452828401905089935060005b8981101561436f57843561433c81613845565b6001600160a01b031682526001600160601b0361435a868601614108565b16828501529382019390820190600101614329565b506001600160a01b0388166060870152935061438a92505050565b6001600160a01b0383166080830152613ac2565b60008235603e198336030181126143b457600080fd5b9190910192915050565b6000808335601e198436030181126143d557600080fd5b8301803591506001600160401b038211156143ef57600080fd5b60200191506060810236038213156137f357600080fd5b61ffff8616815260a06020820152600060a082015260c06040820152600061443260c08301868861403f565b6001600160a01b03948516606084015292909316608090910152949350505050565b600060ff821660ff810361446a5761446a613d97565b60010192915050565b60ff86168152608060208201526000614490608083018688614016565b6001600160a01b03948516604084015292909316606090910152949350505050565b6001600160401b03818116838216019080821115610ba657610ba6613d97565b6000602082840312156144e457600080fd5b813561044281613dc0565b60006020828403121561450157600080fd5b81356104428161335256fea264697066735822122070cb0a224b7a1b0a2170265baf1a8320f2dfb7a7a14c31fdc4e49e01b0c9491064736f6c63430008110033608060405234801561001057600080fd5b506101f1806100206000396000f3fe608060405234801561001057600080fd5b50600436106100365760003560e01c806365b145fb1461003b578063beabacc814610045575b600080fd5b610043610058565b005b610043610053366004610151565b610095565b6000546001600160a01b0316156100815760405162dc149f60e41b815260040160405180910390fd5b600080546001600160a01b03191633179055565b6000546001600160a01b031633146100c0576040516330cd747160e01b815260040160405180910390fd5b60405163a9059cbb60e01b81526001600160a01b0383811660048301526024820183905284169063a9059cbb906044016020604051808303816000875af115801561010f573d6000803e3d6000fd5b505050506040513d601f19601f820116820180604052508101906101339190610192565b50505050565b6001600160a01b038116811461014e57600080fd5b50565b60008060006060848603121561016657600080fd5b833561017181610139565b9250602084013561018181610139565b929592945050506040919091013590565b6000602082840312156101a457600080fd5b815180151581146101b457600080fd5b939250505056fea26469706673582212205216b5fe18ba68a1d60b3e4358f3d3d93a2a514c240738f2969a7c62a7c177e764736f6c63430008110033",
  "devdoc": {
    "kind": "dev",
    "methods": {
      "acceptApplications(uint256,uint16[])": {
        "params": {
          "_applicationIds": "Indexes of the applications to accept.",
          "_taskId": "Id of the task."
        }
      },
      "acceptRequest(uint256,uint8,uint8,bool)": {
        "params": {
          "_execute": "If the request should also be executed in this transaction.",
          "_requestId": "Id of the request.",
          "_requestType": "What kind of request it is.",
          "_taskId": "Id of the task."
        }
      },
      "applyForTask(uint256,string,(bool,address,uint88)[])": {
        "params": {
          "_metadata": "Metadata of your application.",
          "_reward": "Wanted rewards for completing the task.",
          "_taskId": "Id of the task."
        }
      },
      "cancelTask(uint256,string)": {
        "params": {
          "_explanation": "Why the task was cancelled. (IPFS hash)",
          "_taskId": "Id of the task."
        }
      },
      "createSubmission(uint256,string)": {
        "params": {
          "_metadata": "Metadata of the submission. (IPFS hash)",
          "_taskId": "Id of the task."
        }
      },
      "createTask(string,uint64,(address,uint96)[],address,(address,(bool,address,uint88)[])[])": {
        "params": {
          "_budget": "Maximum ERC20 rewards that can be earned by completing the task.",
          "_deadline": "Block timestamp at which the task expires if not completed.",
          "_manager": "Who will manage the task (become the manager).",
          "_metadata": "Metadata of the task. (IPFS hash)"
        },
        "returns": {
          "taskId": "Id of the newly created task."
        }
      },
      "editMetadata(uint256,string)": {
        "details": "This metadata update might change the task completely. Show a warning to people who applied before the change.",
        "params": {
          "_newMetadata": "New metadata of the task.",
          "_taskId": "Id of the task."
        }
      },
      "executeRequest(uint256,uint8,uint8)": {
        "params": {
          "_requestId": "Id of the request.",
          "_requestType": "What kind of request it is.",
          "_taskId": "Id of the task."
        }
      },
      "extendDeadline(uint256,uint64)": {
        "params": {
          "_extension": "How much to extend the deadline by.",
          "_taskId": "Id of the task."
        }
      },
      "getExecutingTasks(address,uint256,uint256)": {
        "params": {
          "_executor": "The executor to fetch tasks of.",
          "_fromTaskId": "What taskId to start from. 0 for most recent task.",
          "_max": "The maximum amount of tasks to return. 0 for no max."
        }
      },
      "getManagingTasks(address,uint256,uint256)": {
        "params": {
          "_fromTaskId": "What taskId to start from. 0 for most recent task.",
          "_manager": "The manager to fetch tasks of.",
          "_max": "The maximum amount of tasks to return. 0 for no max."
        }
      },
      "getTask(uint256)": {
        "params": {
          "_taskId": "Id of the task."
        }
      },
      "getTasks(uint256[])": {
        "params": {
          "_taskIds": "Ids of the tasks."
        }
      },
      "increaseBudget(uint256,uint96[])": {
        "params": {
          "_increase": "How much to increase each tokens amount by.",
          "_taskId": "Id of the task."
        }
      },
      "reviewSubmission(uint256,uint8,uint8,string)": {
        "params": {
          "_feedback": "Reasoning of the reviewer. (IPFS hash)",
          "_judgement": "Outcome of the review.",
          "_submissionId": "Index of the submission that is reviewed.",
          "_taskId": "Id of the task."
        }
      },
      "takeTask(uint256,uint16)": {
        "params": {
          "_applicationId": "Index of application you made that has been accepted.",
          "_taskId": "Id of the task."
        }
      }
    },
    "version": 1
  },
  "userdoc": {
    "kind": "user",
    "methods": {
      "acceptApplications(uint256,uint16[])": {
        "notice": "Accept application to allow them to take the task."
      },
      "acceptRequest(uint256,uint8,uint8,bool)": {
        "notice": "Accepts a request, executing the proposed action."
      },
      "applyForTask(uint256,string,(bool,address,uint88)[])": {
        "notice": "Apply to take the task."
      },
      "cancelTask(uint256,string)": {
        "notice": "Cancels a task. This can be used to close a task and receive back the budget."
      },
      "createSubmission(uint256,string)": {
        "notice": "Create a submission."
      },
      "createTask(string,uint64,(address,uint96)[],address,(address,(bool,address,uint88)[])[])": {
        "notice": "Create a new task."
      },
      "editMetadata(uint256,string)": {
        "notice": "Edit the metadata of a task."
      },
      "executeRequest(uint256,uint8,uint8)": {
        "notice": "Exectued an accepted request, allows anyone to pay for the gas costs of the execution."
      },
      "extendDeadline(uint256,uint64)": {
        "notice": "Extend the deadline of a task."
      },
      "getExecutingTasks(address,uint256,uint256)": {
        "notice": "Retrieves all tasks of an executor. Most recent ones first."
      },
      "getManagingTasks(address,uint256,uint256)": {
        "notice": "Retrieves all tasks of a manager. Most recent ones first."
      },
      "getTask(uint256)": {
        "notice": "Retrieves all task information by id."
      },
      "getTasks(uint256[])": {
        "notice": "Retrieves multiple tasks."
      },
      "increaseBudget(uint256,uint96[])": {
        "notice": "Increase the budget of the task."
      },
      "reviewSubmission(uint256,uint8,uint8,string)": {
        "notice": "Review a submission."
      },
      "takeTask(uint256,uint16)": {
        "notice": "Take the task after your application has been accepted."
      },
      "taskCount()": {
        "notice": "Retrieves the current amount of created tasks."
      },
      "taskStatistics()": {
        "notice": "Retrieves the current statistics of created tasks."
      }
    },
    "version": 1
  },
  "storageLayout": {
    "storage": [
      {
        "astId": 26299,
        "contract": "contracts/Tasks/Tasks.sol:Tasks",
        "label": "taskCounter",
        "offset": 0,
        "slot": "0",
        "type": "t_uint256"
      },
      {
        "astId": 26302,
        "contract": "contracts/Tasks/Tasks.sol:Tasks",
        "label": "openTasks",
        "offset": 0,
        "slot": "1",
        "type": "t_uint256"
      },
      {
        "astId": 26304,
        "contract": "contracts/Tasks/Tasks.sol:Tasks",
        "label": "takenTasks",
        "offset": 0,
        "slot": "2",
        "type": "t_uint256"
      },
      {
        "astId": 26306,
        "contract": "contracts/Tasks/Tasks.sol:Tasks",
        "label": "successfulTasks",
        "offset": 0,
        "slot": "3",
        "type": "t_uint256"
      },
      {
        "astId": 26312,
        "contract": "contracts/Tasks/Tasks.sol:Tasks",
        "label": "tasks",
        "offset": 0,
        "slot": "4",
        "type": "t_mapping(t_uint256,t_struct(Task)26043_storage)"
      },
      {
        "astId": 26318,
        "contract": "contracts/Tasks/Tasks.sol:Tasks",
        "label": "disabler",
        "offset": 0,
        "slot": "5",
        "type": "t_address"
      }
    ],
    "types": {
      "t_address": {
        "encoding": "inplace",
        "label": "address",
        "numberOfBytes": "20"
      },
      "t_bool": {
        "encoding": "inplace",
        "label": "bool",
        "numberOfBytes": "1"
      },
      "t_contract(Escrow)25708": {
        "encoding": "inplace",
        "label": "contract Escrow",
        "numberOfBytes": "20"
      },
      "t_contract(IERC20)19781": {
        "encoding": "inplace",
        "label": "contract IERC20",
        "numberOfBytes": "20"
      },
      "t_enum(SubmissionJudgement)25973": {
        "encoding": "inplace",
        "label": "enum ITasks.SubmissionJudgement",
        "numberOfBytes": "1"
      },
      "t_enum(TaskState)25998": {
        "encoding": "inplace",
        "label": "enum ITasks.TaskState",
        "numberOfBytes": "1"
      },
      "t_mapping(t_uint16,t_struct(Application)25951_storage)": {
        "encoding": "mapping",
        "key": "t_uint16",
        "label": "mapping(uint16 => struct ITasks.Application)",
        "numberOfBytes": "32",
        "value": "t_struct(Application)25951_storage"
      },
      "t_mapping(t_uint256,t_struct(Task)26043_storage)": {
        "encoding": "mapping",
        "key": "t_uint256",
        "label": "mapping(uint256 => struct ITasks.Task)",
        "numberOfBytes": "32",
        "value": "t_struct(Task)26043_storage"
      },
      "t_mapping(t_uint8,t_struct(CancelTaskRequest)25994_storage)": {
        "encoding": "mapping",
        "key": "t_uint8",
        "label": "mapping(uint8 => struct ITasks.CancelTaskRequest)",
        "numberOfBytes": "32",
        "value": "t_struct(CancelTaskRequest)25994_storage"
      },
      "t_mapping(t_uint8,t_struct(ERC20Transfer)25930_storage)": {
        "encoding": "mapping",
        "key": "t_uint8",
        "label": "mapping(uint8 => struct ITasks.ERC20Transfer)",
        "numberOfBytes": "32",
        "value": "t_struct(ERC20Transfer)25930_storage"
      },
      "t_mapping(t_uint8,t_struct(Reward)25937_storage)": {
        "encoding": "mapping",
        "key": "t_uint8",
        "label": "mapping(uint8 => struct ITasks.Reward)",
        "numberOfBytes": "32",
        "value": "t_struct(Reward)25937_storage"
      },
      "t_mapping(t_uint8,t_struct(Submission)25981_storage)": {
        "encoding": "mapping",
        "key": "t_uint8",
        "label": "mapping(uint8 => struct ITasks.Submission)",
        "numberOfBytes": "32",
        "value": "t_struct(Submission)25981_storage"
      },
      "t_string_storage": {
        "encoding": "bytes",
        "label": "string",
        "numberOfBytes": "32"
      },
      "t_struct(Application)25951_storage": {
        "encoding": "inplace",
        "label": "struct ITasks.Application",
        "members": [
          {
            "astId": 25939,
            "contract": "contracts/Tasks/Tasks.sol:Tasks",
            "label": "metadata",
            "offset": 0,
            "slot": "0",
            "type": "t_string_storage"
          },
          {
            "astId": 25941,
            "contract": "contracts/Tasks/Tasks.sol:Tasks",
            "label": "applicant",
            "offset": 0,
            "slot": "1",
            "type": "t_address"
          },
          {
            "astId": 25943,
            "contract": "contracts/Tasks/Tasks.sol:Tasks",
            "label": "accepted",
            "offset": 20,
            "slot": "1",
            "type": "t_bool"
          },
          {
            "astId": 25945,
            "contract": "contracts/Tasks/Tasks.sol:Tasks",
            "label": "rewardCount",
            "offset": 21,
            "slot": "1",
            "type": "t_uint8"
          },
          {
            "astId": 25950,
            "contract": "contracts/Tasks/Tasks.sol:Tasks",
            "label": "reward",
            "offset": 0,
            "slot": "2",
            "type": "t_mapping(t_uint8,t_struct(Reward)25937_storage)"
          }
        ],
        "numberOfBytes": "96"
      },
      "t_struct(CancelTaskRequest)25994_storage": {
        "encoding": "inplace",
        "label": "struct ITasks.CancelTaskRequest",
        "members": [
          {
            "astId": 25991,
            "contract": "contracts/Tasks/Tasks.sol:Tasks",
            "label": "request",
            "offset": 0,
            "slot": "0",
            "type": "t_struct(Request)25988_storage"
          },
          {
            "astId": 25993,
            "contract": "contracts/Tasks/Tasks.sol:Tasks",
            "label": "explanation",
            "offset": 0,
            "slot": "1",
            "type": "t_string_storage"
          }
        ],
        "numberOfBytes": "64"
      },
      "t_struct(ERC20Transfer)25930_storage": {
        "encoding": "inplace",
        "label": "struct ITasks.ERC20Transfer",
        "members": [
          {
            "astId": 25927,
            "contract": "contracts/Tasks/Tasks.sol:Tasks",
            "label": "tokenContract",
            "offset": 0,
            "slot": "0",
            "type": "t_contract(IERC20)19781"
          },
          {
            "astId": 25929,
            "contract": "contracts/Tasks/Tasks.sol:Tasks",
            "label": "amount",
            "offset": 20,
            "slot": "0",
            "type": "t_uint96"
          }
        ],
        "numberOfBytes": "32"
      },
      "t_struct(Request)25988_storage": {
        "encoding": "inplace",
        "label": "struct ITasks.Request",
        "members": [
          {
            "astId": 25985,
            "contract": "contracts/Tasks/Tasks.sol:Tasks",
            "label": "accepted",
            "offset": 0,
            "slot": "0",
            "type": "t_bool"
          },
          {
            "astId": 25987,
            "contract": "contracts/Tasks/Tasks.sol:Tasks",
            "label": "executed",
            "offset": 1,
            "slot": "0",
            "type": "t_bool"
          }
        ],
        "numberOfBytes": "32"
      },
      "t_struct(Reward)25937_storage": {
        "encoding": "inplace",
        "label": "struct ITasks.Reward",
        "members": [
          {
            "astId": 25932,
            "contract": "contracts/Tasks/Tasks.sol:Tasks",
            "label": "nextToken",
            "offset": 0,
            "slot": "0",
            "type": "t_bool"
          },
          {
            "astId": 25934,
            "contract": "contracts/Tasks/Tasks.sol:Tasks",
            "label": "to",
            "offset": 1,
            "slot": "0",
            "type": "t_address"
          },
          {
            "astId": 25936,
            "contract": "contracts/Tasks/Tasks.sol:Tasks",
            "label": "amount",
            "offset": 21,
            "slot": "0",
            "type": "t_uint88"
          }
        ],
        "numberOfBytes": "32"
      },
      "t_struct(Submission)25981_storage": {
        "encoding": "inplace",
        "label": "struct ITasks.Submission",
        "members": [
          {
            "astId": 25975,
            "contract": "contracts/Tasks/Tasks.sol:Tasks",
            "label": "metadata",
            "offset": 0,
            "slot": "0",
            "type": "t_string_storage"
          },
          {
            "astId": 25977,
            "contract": "contracts/Tasks/Tasks.sol:Tasks",
            "label": "feedback",
            "offset": 0,
            "slot": "1",
            "type": "t_string_storage"
          },
          {
            "astId": 25980,
            "contract": "contracts/Tasks/Tasks.sol:Tasks",
            "label": "judgement",
            "offset": 0,
            "slot": "2",
            "type": "t_enum(SubmissionJudgement)25973"
          }
        ],
        "numberOfBytes": "96"
      },
      "t_struct(Task)26043_storage": {
        "encoding": "inplace",
        "label": "struct ITasks.Task",
        "members": [
          {
            "astId": 26000,
            "contract": "contracts/Tasks/Tasks.sol:Tasks",
            "label": "metadata",
            "offset": 0,
            "slot": "0",
            "type": "t_string_storage"
          },
          {
            "astId": 26002,
            "contract": "contracts/Tasks/Tasks.sol:Tasks",
            "label": "deadline",
            "offset": 0,
            "slot": "1",
            "type": "t_uint64"
          },
          {
            "astId": 26005,
            "contract": "contracts/Tasks/Tasks.sol:Tasks",
            "label": "escrow",
            "offset": 8,
            "slot": "1",
            "type": "t_contract(Escrow)25708"
          },
          {
            "astId": 26007,
            "contract": "contracts/Tasks/Tasks.sol:Tasks",
            "label": "creator",
            "offset": 0,
            "slot": "2",
            "type": "t_address"
          },
          {
            "astId": 26009,
            "contract": "contracts/Tasks/Tasks.sol:Tasks",
            "label": "manager",
            "offset": 0,
            "slot": "3",
            "type": "t_address"
          },
          {
            "astId": 26012,
            "contract": "contracts/Tasks/Tasks.sol:Tasks",
            "label": "state",
            "offset": 20,
            "slot": "3",
            "type": "t_enum(TaskState)25998"
          },
          {
            "astId": 26014,
            "contract": "contracts/Tasks/Tasks.sol:Tasks",
            "label": "executorApplication",
            "offset": 21,
            "slot": "3",
            "type": "t_uint16"
          },
          {
            "astId": 26016,
            "contract": "contracts/Tasks/Tasks.sol:Tasks",
            "label": "budgetCount",
            "offset": 23,
            "slot": "3",
            "type": "t_uint8"
          },
          {
            "astId": 26018,
            "contract": "contracts/Tasks/Tasks.sol:Tasks",
            "label": "applicationCount",
            "offset": 24,
            "slot": "3",
            "type": "t_uint16"
          },
          {
            "astId": 26020,
            "contract": "contracts/Tasks/Tasks.sol:Tasks",
            "label": "submissionCount",
            "offset": 26,
            "slot": "3",
            "type": "t_uint8"
          },
          {
            "astId": 26022,
            "contract": "contracts/Tasks/Tasks.sol:Tasks",
            "label": "cancelTaskRequestCount",
            "offset": 27,
            "slot": "3",
            "type": "t_uint8"
          },
          {
            "astId": 26027,
            "contract": "contracts/Tasks/Tasks.sol:Tasks",
            "label": "budget",
            "offset": 0,
            "slot": "4",
            "type": "t_mapping(t_uint8,t_struct(ERC20Transfer)25930_storage)"
          },
          {
            "astId": 26032,
            "contract": "contracts/Tasks/Tasks.sol:Tasks",
            "label": "applications",
            "offset": 0,
            "slot": "5",
            "type": "t_mapping(t_uint16,t_struct(Application)25951_storage)"
          },
          {
            "astId": 26037,
            "contract": "contracts/Tasks/Tasks.sol:Tasks",
            "label": "submissions",
            "offset": 0,
            "slot": "6",
            "type": "t_mapping(t_uint8,t_struct(Submission)25981_storage)"
          },
          {
            "astId": 26042,
            "contract": "contracts/Tasks/Tasks.sol:Tasks",
            "label": "cancelTaskRequests",
            "offset": 0,
            "slot": "7",
            "type": "t_mapping(t_uint8,t_struct(CancelTaskRequest)25994_storage)"
          }
        ],
        "numberOfBytes": "256"
      },
      "t_uint16": {
        "encoding": "inplace",
        "label": "uint16",
        "numberOfBytes": "2"
      },
      "t_uint256": {
        "encoding": "inplace",
        "label": "uint256",
        "numberOfBytes": "32"
      },
      "t_uint64": {
        "encoding": "inplace",
        "label": "uint64",
        "numberOfBytes": "8"
      },
      "t_uint8": {
        "encoding": "inplace",
        "label": "uint8",
        "numberOfBytes": "1"
      },
      "t_uint88": {
        "encoding": "inplace",
        "label": "uint88",
        "numberOfBytes": "11"
      },
      "t_uint96": {
        "encoding": "inplace",
        "label": "uint96",
        "numberOfBytes": "12"
      }
    }
  }
}